{
  "abi": [
    {
      "inputs": [
        {
          "internalType": "string",
          "name": "_name",
          "type": "string"
        },
        {
          "internalType": "string",
          "name": "_symbol",
          "type": "string"
        },
        {
          "internalType": "uint8",
          "name": "_sharedDecimals",
          "type": "uint8"
        },
        {
          "internalType": "address",
          "name": "_lzEndpoint",
          "type": "address"
        }
      ],
      "stateMutability": "nonpayable",
      "type": "constructor"
    },
    {
      "anonymous": false,
      "inputs": [
        {
          "indexed": true,
          "internalType": "address",
          "name": "owner",
          "type": "address"
        },
        {
          "indexed": true,
          "internalType": "address",
          "name": "spender",
          "type": "address"
        },
        {
          "indexed": false,
          "internalType": "uint256",
          "name": "value",
          "type": "uint256"
        }
      ],
      "name": "Approval",
      "type": "event"
    },
    {
      "anonymous": false,
      "inputs": [
        {
          "indexed": true,
          "internalType": "uint16",
          "name": "_srcChainId",
          "type": "uint16"
        },
        {
          "indexed": false,
          "internalType": "bytes",
          "name": "_srcAddress",
          "type": "bytes"
        },
        {
          "indexed": false,
          "internalType": "uint64",
          "name": "_nonce",
          "type": "uint64"
        },
        {
          "indexed": false,
          "internalType": "bytes32",
          "name": "_hash",
          "type": "bytes32"
        }
      ],
      "name": "CallOFTReceivedSuccess",
      "type": "event"
    },
    {
      "anonymous": false,
      "inputs": [
        {
          "indexed": true,
          "internalType": "address",
          "name": "_dst",
          "type": "address"
        },
        {
          "indexed": false,
          "internalType": "uint256",
          "name": "_amount",
          "type": "uint256"
        }
      ],
      "name": "Deposit",
      "type": "event"
    },
    {
      "anonymous": false,
      "inputs": [
        {
          "indexed": false,
          "internalType": "uint16",
          "name": "_srcChainId",
          "type": "uint16"
        },
        {
          "indexed": false,
          "internalType": "bytes",
          "name": "_srcAddress",
          "type": "bytes"
        },
        {
          "indexed": false,
          "internalType": "uint64",
          "name": "_nonce",
          "type": "uint64"
        },
        {
          "indexed": false,
          "internalType": "bytes",
          "name": "_payload",
          "type": "bytes"
        },
        {
          "indexed": false,
          "internalType": "bytes",
          "name": "_reason",
          "type": "bytes"
        }
      ],
      "name": "MessageFailed",
      "type": "event"
    },
    {
      "anonymous": false,
      "inputs": [
        {
          "indexed": false,
          "internalType": "address",
          "name": "_address",
          "type": "address"
        }
      ],
      "name": "NonContractAddress",
      "type": "event"
    },
    {
      "anonymous": false,
      "inputs": [
        {
          "indexed": true,
          "internalType": "address",
          "name": "previousOwner",
          "type": "address"
        },
        {
          "indexed": true,
          "internalType": "address",
          "name": "newOwner",
          "type": "address"
        }
      ],
      "name": "OwnershipTransferred",
      "type": "event"
    },
    {
      "anonymous": false,
      "inputs": [
        {
          "indexed": true,
          "internalType": "uint16",
          "name": "_srcChainId",
          "type": "uint16"
        },
        {
          "indexed": true,
          "internalType": "address",
          "name": "_to",
          "type": "address"
        },
        {
          "indexed": false,
          "internalType": "uint256",
          "name": "_amount",
          "type": "uint256"
        }
      ],
      "name": "ReceiveFromChain",
      "type": "event"
    },
    {
      "anonymous": false,
      "inputs": [
        {
          "indexed": false,
          "internalType": "uint16",
          "name": "_srcChainId",
          "type": "uint16"
        },
        {
          "indexed": false,
          "internalType": "bytes",
          "name": "_srcAddress",
          "type": "bytes"
        },
        {
          "indexed": false,
          "internalType": "uint64",
          "name": "_nonce",
          "type": "uint64"
        },
        {
          "indexed": false,
          "internalType": "bytes32",
          "name": "_payloadHash",
          "type": "bytes32"
        }
      ],
      "name": "RetryMessageSuccess",
      "type": "event"
    },
    {
      "anonymous": false,
      "inputs": [
        {
          "indexed": true,
          "internalType": "uint16",
          "name": "_dstChainId",
          "type": "uint16"
        },
        {
          "indexed": true,
          "internalType": "address",
          "name": "_from",
          "type": "address"
        },
        {
          "indexed": true,
          "internalType": "bytes32",
          "name": "_toAddress",
          "type": "bytes32"
        },
        {
          "indexed": false,
          "internalType": "uint256",
          "name": "_amount",
          "type": "uint256"
        }
      ],
      "name": "SendToChain",
      "type": "event"
    },
    {
      "anonymous": false,
      "inputs": [
        {
          "indexed": false,
          "internalType": "uint16",
          "name": "feeBp",
          "type": "uint16"
        }
      ],
      "name": "SetDefaultFeeBp",
      "type": "event"
    },
    {
      "anonymous": false,
      "inputs": [
        {
          "indexed": false,
          "internalType": "uint16",
          "name": "dstchainId",
          "type": "uint16"
        },
        {
          "indexed": false,
          "internalType": "bool",
          "name": "enabled",
          "type": "bool"
        },
        {
          "indexed": false,
          "internalType": "uint16",
          "name": "feeBp",
          "type": "uint16"
        }
      ],
      "name": "SetFeeBp",
      "type": "event"
    },
    {
      "anonymous": false,
      "inputs": [
        {
          "indexed": false,
          "internalType": "address",
          "name": "feeOwner",
          "type": "address"
        }
      ],
      "name": "SetFeeOwner",
      "type": "event"
    },
    {
      "anonymous": false,
      "inputs": [
        {
          "indexed": false,
          "internalType": "uint16",
          "name": "_dstChainId",
          "type": "uint16"
        },
        {
          "indexed": false,
          "internalType": "uint16",
          "name": "_type",
          "type": "uint16"
        },
        {
          "indexed": false,
          "internalType": "uint256",
          "name": "_minDstGas",
          "type": "uint256"
        }
      ],
      "name": "SetMinDstGas",
      "type": "event"
    },
    {
      "anonymous": false,
      "inputs": [
        {
          "indexed": false,
          "internalType": "address",
          "name": "precrime",
          "type": "address"
        }
      ],
      "name": "SetPrecrime",
      "type": "event"
    },
    {
      "anonymous": false,
      "inputs": [
        {
          "indexed": false,
          "internalType": "uint16",
          "name": "_remoteChainId",
          "type": "uint16"
        },
        {
          "indexed": false,
          "internalType": "bytes",
          "name": "_path",
          "type": "bytes"
        }
      ],
      "name": "SetTrustedRemote",
      "type": "event"
    },
    {
      "anonymous": false,
      "inputs": [
        {
          "indexed": false,
          "internalType": "uint16",
          "name": "_remoteChainId",
          "type": "uint16"
        },
        {
          "indexed": false,
          "internalType": "bytes",
          "name": "_remoteAddress",
          "type": "bytes"
        }
      ],
      "name": "SetTrustedRemoteAddress",
      "type": "event"
    },
    {
      "anonymous": false,
      "inputs": [
        {
          "indexed": true,
          "internalType": "address",
          "name": "from",
          "type": "address"
        },
        {
          "indexed": true,
          "internalType": "address",
          "name": "to",
          "type": "address"
        },
        {
          "indexed": false,
          "internalType": "uint256",
          "name": "value",
          "type": "uint256"
        }
      ],
      "name": "Transfer",
      "type": "event"
    },
    {
      "anonymous": false,
      "inputs": [
        {
          "indexed": true,
          "internalType": "address",
          "name": "_src",
          "type": "address"
        },
        {
          "indexed": false,
          "internalType": "uint256",
          "name": "_amount",
          "type": "uint256"
        }
      ],
      "name": "Withdrawal",
      "type": "event"
    },
    {
      "inputs": [],
      "name": "BP_DENOMINATOR",
      "outputs": [
        {
          "internalType": "uint256",
          "name": "",
          "type": "uint256"
        }
      ],
      "stateMutability": "view",
      "type": "function"
    },
    {
      "inputs": [],
      "name": "DEFAULT_PAYLOAD_SIZE_LIMIT",
      "outputs": [
        {
          "internalType": "uint256",
          "name": "",
          "type": "uint256"
        }
      ],
      "stateMutability": "view",
      "type": "function"
    },
    {
      "inputs": [],
      "name": "NO_EXTRA_GAS",
      "outputs": [
        {
          "internalType": "uint256",
          "name": "",
          "type": "uint256"
        }
      ],
      "stateMutability": "view",
      "type": "function"
    },
    {
      "inputs": [],
      "name": "PT_SEND",
      "outputs": [
        {
          "internalType": "uint8",
          "name": "",
          "type": "uint8"
        }
      ],
      "stateMutability": "view",
      "type": "function"
    },
    {
      "inputs": [],
      "name": "PT_SEND_AND_CALL",
      "outputs": [
        {
          "internalType": "uint8",
          "name": "",
          "type": "uint8"
        }
      ],
      "stateMutability": "view",
      "type": "function"
    },
    {
      "inputs": [
        {
          "internalType": "address",
          "name": "owner",
          "type": "address"
        },
        {
          "internalType": "address",
          "name": "spender",
          "type": "address"
        }
      ],
      "name": "allowance",
      "outputs": [
        {
          "internalType": "uint256",
          "name": "",
          "type": "uint256"
        }
      ],
      "stateMutability": "view",
      "type": "function"
    },
    {
      "inputs": [
        {
          "internalType": "address",
          "name": "spender",
          "type": "address"
        },
        {
          "internalType": "uint256",
          "name": "amount",
          "type": "uint256"
        }
      ],
      "name": "approve",
      "outputs": [
        {
          "internalType": "bool",
          "name": "",
          "type": "bool"
        }
      ],
      "stateMutability": "nonpayable",
      "type": "function"
    },
    {
      "inputs": [
        {
          "internalType": "address",
          "name": "account",
          "type": "address"
        }
      ],
      "name": "balanceOf",
      "outputs": [
        {
          "internalType": "uint256",
          "name": "",
          "type": "uint256"
        }
      ],
      "stateMutability": "view",
      "type": "function"
    },
    {
      "inputs": [
        {
          "internalType": "uint16",
          "name": "_srcChainId",
          "type": "uint16"
        },
        {
          "internalType": "bytes",
          "name": "_srcAddress",
          "type": "bytes"
        },
        {
          "internalType": "uint64",
          "name": "_nonce",
          "type": "uint64"
        },
        {
          "internalType": "bytes32",
          "name": "_from",
          "type": "bytes32"
        },
        {
          "internalType": "address",
          "name": "_to",
          "type": "address"
        },
        {
          "internalType": "uint256",
          "name": "_amount",
          "type": "uint256"
        },
        {
          "internalType": "bytes",
          "name": "_payload",
          "type": "bytes"
        },
        {
          "internalType": "uint256",
          "name": "_gasForCall",
          "type": "uint256"
        }
      ],
      "name": "callOnOFTReceived",
      "outputs": [],
      "stateMutability": "nonpayable",
      "type": "function"
    },
    {
      "inputs": [
        {
          "internalType": "uint16",
          "name": "",
          "type": "uint16"
        }
      ],
      "name": "chainIdToFeeBps",
      "outputs": [
        {
          "internalType": "uint16",
          "name": "feeBP",
          "type": "uint16"
        },
        {
          "internalType": "bool",
          "name": "enabled",
          "type": "bool"
        }
      ],
      "stateMutability": "view",
      "type": "function"
    },
    {
      "inputs": [],
      "name": "circulatingSupply",
      "outputs": [
        {
          "internalType": "uint256",
          "name": "",
          "type": "uint256"
        }
      ],
      "stateMutability": "view",
      "type": "function"
    },
    {
      "inputs": [
        {
          "internalType": "uint16",
          "name": "",
          "type": "uint16"
        },
        {
          "internalType": "bytes",
          "name": "",
          "type": "bytes"
        },
        {
          "internalType": "uint64",
          "name": "",
          "type": "uint64"
        }
      ],
      "name": "creditedPackets",
      "outputs": [
        {
          "internalType": "bool",
          "name": "",
          "type": "bool"
        }
      ],
      "stateMutability": "view",
      "type": "function"
    },
    {
      "inputs": [],
      "name": "decimals",
      "outputs": [
        {
          "internalType": "uint8",
          "name": "",
          "type": "uint8"
        }
      ],
      "stateMutability": "view",
      "type": "function"
    },
    {
      "inputs": [
        {
          "internalType": "address",
          "name": "spender",
          "type": "address"
        },
        {
          "internalType": "uint256",
          "name": "subtractedValue",
          "type": "uint256"
        }
      ],
      "name": "decreaseAllowance",
      "outputs": [
        {
          "internalType": "bool",
          "name": "",
          "type": "bool"
        }
      ],
      "stateMutability": "nonpayable",
      "type": "function"
    },
    {
      "inputs": [],
      "name": "defaultFeeBp",
      "outputs": [
        {
          "internalType": "uint16",
          "name": "",
          "type": "uint16"
        }
      ],
      "stateMutability": "view",
      "type": "function"
    },
    {
      "inputs": [],
      "name": "deposit",
      "outputs": [],
      "stateMutability": "payable",
      "type": "function"
    },
    {
      "inputs": [
        {
          "internalType": "uint16",
          "name": "_dstChainId",
          "type": "uint16"
        },
        {
          "internalType": "bytes32",
          "name": "_toAddress",
          "type": "bytes32"
        },
        {
          "internalType": "uint256",
          "name": "_amount",
          "type": "uint256"
        },
        {
          "internalType": "bytes",
          "name": "_payload",
          "type": "bytes"
        },
        {
          "internalType": "uint64",
          "name": "_dstGasForCall",
          "type": "uint64"
        },
        {
          "internalType": "bool",
          "name": "_useZro",
          "type": "bool"
        },
        {
          "internalType": "bytes",
          "name": "_adapterParams",
          "type": "bytes"
        }
      ],
      "name": "estimateSendAndCallFee",
      "outputs": [
        {
          "internalType": "uint256",
          "name": "nativeFee",
          "type": "uint256"
        },
        {
          "internalType": "uint256",
          "name": "zroFee",
          "type": "uint256"
        }
      ],
      "stateMutability": "view",
      "type": "function"
    },
    {
      "inputs": [
        {
          "internalType": "uint16",
          "name": "_dstChainId",
          "type": "uint16"
        },
        {
          "internalType": "bytes32",
          "name": "_toAddress",
          "type": "bytes32"
        },
        {
          "internalType": "uint256",
          "name": "_amount",
          "type": "uint256"
        },
        {
          "internalType": "bool",
          "name": "_useZro",
          "type": "bool"
        },
        {
          "internalType": "bytes",
          "name": "_adapterParams",
          "type": "bytes"
        }
      ],
      "name": "estimateSendFee",
      "outputs": [
        {
          "internalType": "uint256",
          "name": "nativeFee",
          "type": "uint256"
        },
        {
          "internalType": "uint256",
          "name": "zroFee",
          "type": "uint256"
        }
      ],
      "stateMutability": "view",
      "type": "function"
    },
    {
      "inputs": [
        {
          "internalType": "uint16",
          "name": "",
          "type": "uint16"
        },
        {
          "internalType": "bytes",
          "name": "",
          "type": "bytes"
        },
        {
          "internalType": "uint64",
          "name": "",
          "type": "uint64"
        }
      ],
      "name": "failedMessages",
      "outputs": [
        {
          "internalType": "bytes32",
          "name": "",
          "type": "bytes32"
        }
      ],
      "stateMutability": "view",
      "type": "function"
    },
    {
      "inputs": [],
      "name": "feeOwner",
      "outputs": [
        {
          "internalType": "address",
          "name": "",
          "type": "address"
        }
      ],
      "stateMutability": "view",
      "type": "function"
    },
    {
      "inputs": [
        {
          "internalType": "uint16",
          "name": "_srcChainId",
          "type": "uint16"
        },
        {
          "internalType": "bytes",
          "name": "_srcAddress",
          "type": "bytes"
        }
      ],
      "name": "forceResumeReceive",
      "outputs": [],
      "stateMutability": "nonpayable",
      "type": "function"
    },
    {
      "inputs": [
        {
          "internalType": "uint16",
          "name": "_version",
          "type": "uint16"
        },
        {
          "internalType": "uint16",
          "name": "_chainId",
          "type": "uint16"
        },
        {
          "internalType": "address",
          "name": "",
          "type": "address"
        },
        {
          "internalType": "uint256",
          "name": "_configType",
          "type": "uint256"
        }
      ],
      "name": "getConfig",
      "outputs": [
        {
          "internalType": "bytes",
          "name": "",
          "type": "bytes"
        }
      ],
      "stateMutability": "view",
      "type": "function"
    },
    {
      "inputs": [
        {
          "internalType": "uint16",
          "name": "_remoteChainId",
          "type": "uint16"
        }
      ],
      "name": "getTrustedRemoteAddress",
      "outputs": [
        {
          "internalType": "bytes",
          "name": "",
          "type": "bytes"
        }
      ],
      "stateMutability": "view",
      "type": "function"
    },
    {
      "inputs": [
        {
          "internalType": "address",
          "name": "spender",
          "type": "address"
        },
        {
          "internalType": "uint256",
          "name": "addedValue",
          "type": "uint256"
        }
      ],
      "name": "increaseAllowance",
      "outputs": [
        {
          "internalType": "bool",
          "name": "",
          "type": "bool"
        }
      ],
      "stateMutability": "nonpayable",
      "type": "function"
    },
    {
      "inputs": [
        {
          "internalType": "uint16",
          "name": "_srcChainId",
          "type": "uint16"
        },
        {
          "internalType": "bytes",
          "name": "_srcAddress",
          "type": "bytes"
        }
      ],
      "name": "isTrustedRemote",
      "outputs": [
        {
          "internalType": "bool",
          "name": "",
          "type": "bool"
        }
      ],
      "stateMutability": "view",
      "type": "function"
    },
    {
      "inputs": [],
      "name": "lzEndpoint",
      "outputs": [
        {
          "internalType": "contract ILayerZeroEndpoint",
          "name": "",
          "type": "address"
        }
      ],
      "stateMutability": "view",
      "type": "function"
    },
    {
      "inputs": [
        {
          "internalType": "uint16",
          "name": "_srcChainId",
          "type": "uint16"
        },
        {
          "internalType": "bytes",
          "name": "_srcAddress",
          "type": "bytes"
        },
        {
          "internalType": "uint64",
          "name": "_nonce",
          "type": "uint64"
        },
        {
          "internalType": "bytes",
          "name": "_payload",
          "type": "bytes"
        }
      ],
      "name": "lzReceive",
      "outputs": [],
      "stateMutability": "nonpayable",
      "type": "function"
    },
    {
      "inputs": [
        {
          "internalType": "uint16",
          "name": "",
          "type": "uint16"
        },
        {
          "internalType": "uint16",
          "name": "",
          "type": "uint16"
        }
      ],
      "name": "minDstGasLookup",
      "outputs": [
        {
          "internalType": "uint256",
          "name": "",
          "type": "uint256"
        }
      ],
      "stateMutability": "view",
      "type": "function"
    },
    {
      "inputs": [],
      "name": "name",
      "outputs": [
        {
          "internalType": "string",
          "name": "",
          "type": "string"
        }
      ],
      "stateMutability": "view",
      "type": "function"
    },
    {
      "inputs": [
        {
          "internalType": "uint16",
          "name": "_srcChainId",
          "type": "uint16"
        },
        {
          "internalType": "bytes",
          "name": "_srcAddress",
          "type": "bytes"
        },
        {
          "internalType": "uint64",
          "name": "_nonce",
          "type": "uint64"
        },
        {
          "internalType": "bytes",
          "name": "_payload",
          "type": "bytes"
        }
      ],
      "name": "nonblockingLzReceive",
      "outputs": [],
      "stateMutability": "nonpayable",
      "type": "function"
    },
    {
      "inputs": [],
      "name": "outboundAmount",
      "outputs": [
        {
          "internalType": "uint256",
          "name": "",
          "type": "uint256"
        }
      ],
      "stateMutability": "view",
      "type": "function"
    },
    {
      "inputs": [],
      "name": "owner",
      "outputs": [
        {
          "internalType": "address",
          "name": "",
          "type": "address"
        }
      ],
      "stateMutability": "view",
      "type": "function"
    },
    {
      "inputs": [
        {
          "internalType": "uint16",
          "name": "",
          "type": "uint16"
        }
      ],
      "name": "payloadSizeLimitLookup",
      "outputs": [
        {
          "internalType": "uint256",
          "name": "",
          "type": "uint256"
        }
      ],
      "stateMutability": "view",
      "type": "function"
    },
    {
      "inputs": [],
      "name": "precrime",
      "outputs": [
        {
          "internalType": "address",
          "name": "",
          "type": "address"
        }
      ],
      "stateMutability": "view",
      "type": "function"
    },
    {
      "inputs": [
        {
          "internalType": "uint16",
          "name": "_dstChainId",
          "type": "uint16"
        },
        {
          "internalType": "uint256",
          "name": "_amount",
          "type": "uint256"
        }
      ],
      "name": "quoteOFTFee",
      "outputs": [
        {
          "internalType": "uint256",
          "name": "fee",
          "type": "uint256"
        }
      ],
      "stateMutability": "view",
      "type": "function"
    },
    {
      "inputs": [],
      "name": "renounceOwnership",
      "outputs": [],
      "stateMutability": "nonpayable",
      "type": "function"
    },
    {
      "inputs": [
        {
          "internalType": "uint16",
          "name": "_srcChainId",
          "type": "uint16"
        },
        {
          "internalType": "bytes",
          "name": "_srcAddress",
          "type": "bytes"
        },
        {
          "internalType": "uint64",
          "name": "_nonce",
          "type": "uint64"
        },
        {
          "internalType": "bytes",
          "name": "_payload",
          "type": "bytes"
        }
      ],
      "name": "retryMessage",
      "outputs": [],
      "stateMutability": "payable",
      "type": "function"
    },
    {
      "inputs": [
        {
          "internalType": "address",
          "name": "_from",
          "type": "address"
        },
        {
          "internalType": "uint16",
          "name": "_dstChainId",
          "type": "uint16"
        },
        {
          "internalType": "bytes32",
          "name": "_toAddress",
          "type": "bytes32"
        },
        {
          "internalType": "uint256",
          "name": "_amount",
          "type": "uint256"
        },
        {
          "internalType": "uint256",
          "name": "_minAmount",
          "type": "uint256"
        },
        {
          "internalType": "bytes",
          "name": "_payload",
          "type": "bytes"
        },
        {
          "internalType": "uint64",
          "name": "_dstGasForCall",
          "type": "uint64"
        },
        {
          "components": [
            {
              "internalType": "address payable",
              "name": "refundAddress",
              "type": "address"
            },
            {
              "internalType": "address",
              "name": "zroPaymentAddress",
              "type": "address"
            },
            {
              "internalType": "bytes",
              "name": "adapterParams",
              "type": "bytes"
            }
          ],
          "internalType": "struct ICommonOFT.LzCallParams",
          "name": "_callParams",
          "type": "tuple"
        }
      ],
      "name": "sendAndCall",
      "outputs": [],
      "stateMutability": "payable",
      "type": "function"
    },
    {
      "inputs": [
        {
          "internalType": "address",
          "name": "_from",
          "type": "address"
        },
        {
          "internalType": "uint16",
          "name": "_dstChainId",
          "type": "uint16"
        },
        {
          "internalType": "bytes32",
          "name": "_toAddress",
          "type": "bytes32"
        },
        {
          "internalType": "uint256",
          "name": "_amount",
          "type": "uint256"
        },
        {
          "internalType": "uint256",
          "name": "_minAmount",
          "type": "uint256"
        },
        {
          "components": [
            {
              "internalType": "address payable",
              "name": "refundAddress",
              "type": "address"
            },
            {
              "internalType": "address",
              "name": "zroPaymentAddress",
              "type": "address"
            },
            {
              "internalType": "bytes",
              "name": "adapterParams",
              "type": "bytes"
            }
          ],
          "internalType": "struct ICommonOFT.LzCallParams",
          "name": "_callParams",
          "type": "tuple"
        }
      ],
      "name": "sendFrom",
      "outputs": [],
      "stateMutability": "payable",
      "type": "function"
    },
    {
      "inputs": [
        {
          "internalType": "uint16",
          "name": "_version",
          "type": "uint16"
        },
        {
          "internalType": "uint16",
          "name": "_chainId",
          "type": "uint16"
        },
        {
          "internalType": "uint256",
          "name": "_configType",
          "type": "uint256"
        },
        {
          "internalType": "bytes",
          "name": "_config",
          "type": "bytes"
        }
      ],
      "name": "setConfig",
      "outputs": [],
      "stateMutability": "nonpayable",
      "type": "function"
    },
    {
      "inputs": [
        {
          "internalType": "uint16",
          "name": "_feeBp",
          "type": "uint16"
        }
      ],
      "name": "setDefaultFeeBp",
      "outputs": [],
      "stateMutability": "nonpayable",
      "type": "function"
    },
    {
      "inputs": [
        {
          "internalType": "uint16",
          "name": "_dstChainId",
          "type": "uint16"
        },
        {
          "internalType": "bool",
          "name": "_enabled",
          "type": "bool"
        },
        {
          "internalType": "uint16",
          "name": "_feeBp",
          "type": "uint16"
        }
      ],
      "name": "setFeeBp",
      "outputs": [],
      "stateMutability": "nonpayable",
      "type": "function"
    },
    {
      "inputs": [
        {
          "internalType": "address",
          "name": "_feeOwner",
          "type": "address"
        }
      ],
      "name": "setFeeOwner",
      "outputs": [],
      "stateMutability": "nonpayable",
      "type": "function"
    },
    {
      "inputs": [
        {
          "internalType": "uint16",
          "name": "_dstChainId",
          "type": "uint16"
        },
        {
          "internalType": "uint16",
          "name": "_packetType",
          "type": "uint16"
        },
        {
          "internalType": "uint256",
          "name": "_minGas",
          "type": "uint256"
        }
      ],
      "name": "setMinDstGas",
      "outputs": [],
      "stateMutability": "nonpayable",
      "type": "function"
    },
    {
      "inputs": [
        {
          "internalType": "uint16",
          "name": "_dstChainId",
          "type": "uint16"
        },
        {
          "internalType": "uint256",
          "name": "_size",
          "type": "uint256"
        }
      ],
      "name": "setPayloadSizeLimit",
      "outputs": [],
      "stateMutability": "nonpayable",
      "type": "function"
    },
    {
      "inputs": [
        {
          "internalType": "address",
          "name": "_precrime",
          "type": "address"
        }
      ],
      "name": "setPrecrime",
      "outputs": [],
      "stateMutability": "nonpayable",
      "type": "function"
    },
    {
      "inputs": [
        {
          "internalType": "uint16",
          "name": "_version",
          "type": "uint16"
        }
      ],
      "name": "setReceiveVersion",
      "outputs": [],
      "stateMutability": "nonpayable",
      "type": "function"
    },
    {
      "inputs": [
        {
          "internalType": "uint16",
          "name": "_version",
          "type": "uint16"
        }
      ],
      "name": "setSendVersion",
      "outputs": [],
      "stateMutability": "nonpayable",
      "type": "function"
    },
    {
      "inputs": [
        {
          "internalType": "uint16",
          "name": "_remoteChainId",
          "type": "uint16"
        },
        {
          "internalType": "bytes",
          "name": "_path",
          "type": "bytes"
        }
      ],
      "name": "setTrustedRemote",
      "outputs": [],
      "stateMutability": "nonpayable",
      "type": "function"
    },
    {
      "inputs": [
        {
          "internalType": "uint16",
          "name": "_remoteChainId",
          "type": "uint16"
        },
        {
          "internalType": "bytes",
          "name": "_remoteAddress",
          "type": "bytes"
        }
      ],
      "name": "setTrustedRemoteAddress",
      "outputs": [],
      "stateMutability": "nonpayable",
      "type": "function"
    },
    {
      "inputs": [],
      "name": "sharedDecimals",
      "outputs": [
        {
          "internalType": "uint8",
          "name": "",
          "type": "uint8"
        }
      ],
      "stateMutability": "view",
      "type": "function"
    },
    {
      "inputs": [
        {
          "internalType": "bytes4",
          "name": "interfaceId",
          "type": "bytes4"
        }
      ],
      "name": "supportsInterface",
      "outputs": [
        {
          "internalType": "bool",
          "name": "",
          "type": "bool"
        }
      ],
      "stateMutability": "view",
      "type": "function"
    },
    {
      "inputs": [],
      "name": "symbol",
      "outputs": [
        {
          "internalType": "string",
          "name": "",
          "type": "string"
        }
      ],
      "stateMutability": "view",
      "type": "function"
    },
    {
      "inputs": [],
      "name": "token",
      "outputs": [
        {
          "internalType": "address",
          "name": "",
          "type": "address"
        }
      ],
      "stateMutability": "view",
      "type": "function"
    },
    {
      "inputs": [],
      "name": "totalSupply",
      "outputs": [
        {
          "internalType": "uint256",
          "name": "",
          "type": "uint256"
        }
      ],
      "stateMutability": "view",
      "type": "function"
    },
    {
      "inputs": [
        {
          "internalType": "address",
          "name": "to",
          "type": "address"
        },
        {
          "internalType": "uint256",
          "name": "amount",
          "type": "uint256"
        }
      ],
      "name": "transfer",
      "outputs": [
        {
          "internalType": "bool",
          "name": "",
          "type": "bool"
        }
      ],
      "stateMutability": "nonpayable",
      "type": "function"
    },
    {
      "inputs": [
        {
          "internalType": "address",
          "name": "from",
          "type": "address"
        },
        {
          "internalType": "address",
          "name": "to",
          "type": "address"
        },
        {
          "internalType": "uint256",
          "name": "amount",
          "type": "uint256"
        }
      ],
      "name": "transferFrom",
      "outputs": [
        {
          "internalType": "bool",
          "name": "",
          "type": "bool"
        }
      ],
      "stateMutability": "nonpayable",
      "type": "function"
    },
    {
      "inputs": [
        {
          "internalType": "address",
          "name": "newOwner",
          "type": "address"
        }
      ],
      "name": "transferOwnership",
      "outputs": [],
      "stateMutability": "nonpayable",
      "type": "function"
    },
    {
      "inputs": [
        {
          "internalType": "uint16",
          "name": "",
          "type": "uint16"
        }
      ],
      "name": "trustedRemoteLookup",
      "outputs": [
        {
          "internalType": "bytes",
          "name": "",
          "type": "bytes"
        }
      ],
      "stateMutability": "view",
      "type": "function"
    },
    {
      "inputs": [
        {
          "internalType": "uint256",
          "name": "_amount",
          "type": "uint256"
        }
      ],
      "name": "withdraw",
      "outputs": [],
      "stateMutability": "nonpayable",
      "type": "function"
    },
    {
      "stateMutability": "payable",
      "type": "receive"
    }
  ],
  "bytecode": {
    "object": "0x60e06040523480156200001157600080fd5b50604051620052d2380380620052d2833981016040819052620000349162000292565b8383838383838383818180806200004b3362000175565b6001600160a01b0316608052505060ff1660a052620000726000546001600160a01b031690565b600880546001600160a01b0392909216620100000262010000600160b01b031990921691909117905550600c9050620000ac8382620003c7565b50600d620000bb8282620003c7565b5050506000620000d0620001c560201b60201c565b90508060ff168360ff161115620001445760405162461bcd60e51b815260206004820152602e60248201527f4f4654576974684665653a20736861726564446563696d616c73206d7573742060448201526d6265203c3d20646563696d616c7360901b606482015260840160405180910390fd5b620001508382620004a9565b6200015d90600a620005c8565b60c05250506001600e5550620005e095505050505050565b600080546001600160a01b038381166001600160a01b0319831681178455604051919092169283917f8be0079c531659141344cd1fd0a4f28419497f9722a3daafe3b4186f6b6457e09190a35050565b601290565b634e487b7160e01b600052604160045260246000fd5b600082601f830112620001f257600080fd5b81516001600160401b03808211156200020f576200020f620001ca565b604051601f8301601f19908116603f011681019082821181831017156200023a576200023a620001ca565b81604052838152602092508660208588010111156200025857600080fd5b600091505b838210156200027c57858201830151818301840152908201906200025d565b6000602085830101528094505050505092915050565b60008060008060808587031215620002a957600080fd5b84516001600160401b0380821115620002c157600080fd5b620002cf88838901620001e0565b95506020870151915080821115620002e657600080fd5b50620002f587828801620001e0565b935050604085015160ff811681146200030d57600080fd5b60608601519092506001600160a01b03811681146200032b57600080fd5b939692955090935050565b600181811c908216806200034b57607f821691505b6020821081036200036c57634e487b7160e01b600052602260045260246000fd5b50919050565b601f821115620003c2576000816000526020600020601f850160051c810160208610156200039d5750805b601f850160051c820191505b81811015620003be57828155600101620003a9565b5050505b505050565b81516001600160401b03811115620003e357620003e3620001ca565b620003fb81620003f4845462000336565b8462000372565b602080601f8311600181146200043357600084156200041a5750858301515b600019600386901b1c1916600185901b178555620003be565b600085815260208120601f198616915b82811015620004645788860151825594840194600190910190840162000443565b5085821015620004835787850151600019600388901b60f8161c191681555b5050505050600190811b01905550565b634e487b7160e01b600052601160045260246000fd5b60ff8281168282160390811115620004c557620004c562000493565b92915050565b600181815b808511156200050c578160001904821115620004f057620004f062000493565b80851615620004fe57918102915b93841c9390800290620004d0565b509250929050565b6000826200052557506001620004c5565b816200053457506000620004c5565b81600181146200054d5760028114620005585762000578565b6001915050620004c5565b60ff8411156200056c576200056c62000493565b50506001821b620004c5565b5060208310610133831016604e8410600b84101617156200059d575081810a620004c5565b620005a98383620004cb565b8060001904821115620005c057620005c062000493565b029392505050565b6000620005d960ff84168362000514565b9392505050565b60805160a05160c051614c756200065d600039600081816130940152818161365601526138ab0152600061078401526000818161098a01528181610bfd01528181610f1501528181610fd50152818161138e01528181611b71015281816121390152818161291d01528181612c69015261323b0152614c756000f3fe60806040526004361061039a5760003560e01c80638da5cb5b116101dc578063c446183411610102578063df2a5b3b116100a0578063ecd8f2121161006f578063ecd8f21214610b46578063f2fde38b14610b66578063f5ecbdbc14610b86578063fc0c546a14610ba657600080fd5b8063df2a5b3b14610ad1578063e6a20ae614610af1578063eaffd49a14610b06578063eb8d72b714610b2657600080fd5b8063d0e30db0116100dc578063d0e30db014610a68578063d1deba1f14610a70578063d888296814610a83578063dd62ed3e14610ab157600080fd5b8063c446183414610962578063c83330ce146109f2578063cbed8b9c14610a4857600080fd5b8063a457c2d71161017a578063abe685cd11610149578063abe685cd14610962578063b353aaa714610978578063b9818be1146109ac578063baf3292d146109d257600080fd5b8063a457c2d7146108e2578063a4c51df514610902578063a6c3d16514610922578063a9059cbb1461094257600080fd5b806395d89b41116101b657806395d89b41146108455780639689cb051461085a5780639bdb9812146108705780639f38369a146108c257600080fd5b80638da5cb5b146107de5780639358928b14610810578063950c8a741461082557600080fd5b80633f1f4fa4116102c15780635b8c41e61161025f5780637533d7881161022e5780637533d7881461073257806379c0ad4b14610752578063857749b0146107725780638cfd8f5c146107a657600080fd5b80635b8c41e61461067857806366ad5c8a146106c757806370a08231146106e7578063715018a61461071d57600080fd5b8063455ba27d1161029b578063455ba27d146106105780634b104eff146106235780634c42899a146106435780635a359dc51461065857600080fd5b80633f1f4fa4146105ae57806342d65a8d146105db57806344770515146105fb57600080fd5b806318160ddd11610339578063313ce56711610308578063313ce56714610517578063365260b414610539578063395093511461056e5780633d8b38f61461058e57600080fd5b806318160ddd146104a557806323b872dd146104c45780632cdf0b95146104e45780632e1a7d4d146104f757600080fd5b806307e0db171161037557806307e0db1714610425578063095ea7b3146104455780630df374831461046557806310ddb1371461048557600080fd5b80621d3567146103ae57806301ffc9a7146103ce57806306fdde031461040357600080fd5b366103a9576103a7610bb9565b005b600080fd5b3480156103ba57600080fd5b506103a76103c9366004613bfb565b610bfa565b3480156103da57600080fd5b506103ee6103e9366004613c8e565b610e2b565b60405190151581526020015b60405180910390f35b34801561040f57600080fd5b50610418610e62565b6040516103fa9190613d08565b34801561043157600080fd5b506103a7610440366004613d1b565b610ef4565b34801561045157600080fd5b506103ee610460366004613d4b565b610f7d565b34801561047157600080fd5b506103a7610480366004613d77565b610f95565b34801561049157600080fd5b506103a76104a0366004613d1b565b610fb4565b3480156104b157600080fd5b50600b545b6040519081526020016103fa565b3480156104d057600080fd5b506103ee6104df366004613d93565b61100c565b6103a76104f2366004613dec565b611030565b34801561050357600080fd5b506103a7610512366004613e67565b6110c5565b34801561052357600080fd5b5060125b60405160ff90911681526020016103fa565b34801561054557600080fd5b50610559610554366004613e90565b61122c565b604080519283526020830191909152016103fa565b34801561057a57600080fd5b506103ee610589366004613d4b565b611281565b34801561059a57600080fd5b506103ee6105a9366004613ef5565b6112a3565b3480156105ba57600080fd5b506104b66105c9366004613d1b565b60036020526000908152604090205481565b3480156105e757600080fd5b506103a76105f6366004613ef5565b61136f565b34801561060757600080fd5b506104b6600081565b6103a761061e366004613f47565b6113f5565b34801561062f57600080fd5b506103a761063e366004614003565b6114c6565b34801561064f57600080fd5b50610527600081565b34801561066457600080fd5b506103a7610673366004613d1b565b611583565b34801561068457600080fd5b506104b661069336600461408d565b6005602090815260009384526040808520845180860184018051928152908401958401959095209452929052825290205481565b3480156106d357600080fd5b506103a76106e2366004613bfb565b6115f5565b3480156106f357600080fd5b506104b6610702366004614003565b6001600160a01b031660009081526009602052604090205490565b34801561072957600080fd5b506103a76116c9565b34801561073e57600080fd5b5061041861074d366004613d1b565b6116dd565b34801561075e57600080fd5b506103a761076d36600461412d565b611777565b34801561077e57600080fd5b506105277f000000000000000000000000000000000000000000000000000000000000000081565b3480156107b257600080fd5b506104b66107c1366004614167565b600260209081526000928352604080842090915290825290205481565b3480156107ea57600080fd5b506000546001600160a01b03165b6040516001600160a01b0390911681526020016103fa565b34801561081c57600080fd5b506104b6611833565b34801561083157600080fd5b506004546107f8906001600160a01b031681565b34801561085157600080fd5b50610418611843565b34801561086657600080fd5b506104b6600f5481565b34801561087c57600080fd5b506103ee61088b36600461408d565b6006602090815260009384526040808520845180860184018051928152908401958401959095209452929052825290205460ff1681565b3480156108ce57600080fd5b506104186108dd366004613d1b565b611852565b3480156108ee57600080fd5b506103ee6108fd366004613d4b565b611968565b34801561090e57600080fd5b5061055961091d36600461419a565b6119e3565b34801561092e57600080fd5b506103a761093d366004613ef5565b611a72565b34801561094e57600080fd5b506103ee61095d366004613d4b565b611aee565b34801561096e57600080fd5b506104b661271081565b34801561098457600080fd5b506107f87f000000000000000000000000000000000000000000000000000000000000000081565b3480156109b857600080fd5b506008546107f8906201000090046001600160a01b031681565b3480156109de57600080fd5b506103a76109ed366004614003565b611afc565b3480156109fe57600080fd5b50610a2e610a0d366004613d1b565b60076020526000908152604090205461ffff81169062010000900460ff1682565b6040805161ffff90931683529015156020830152016103fa565b348015610a5457600080fd5b506103a7610a63366004614253565b611b52565b6103a7610bb9565b6103a7610a7e366004613bfb565b611bdc565b348015610a8f57600080fd5b50600854610a9e9061ffff1681565b60405161ffff90911681526020016103fa565b348015610abd57600080fd5b506104b6610acc3660046142c1565b611df2565b348015610add57600080fd5b506103a7610aec3660046142fa565b611e1d565b348015610afd57600080fd5b50610527600181565b348015610b1257600080fd5b506103a7610b21366004614336565b611e87565b348015610b3257600080fd5b506103a7610b41366004613ef5565b611fa6565b348015610b5257600080fd5b506104b6610b61366004613d77565b612000565b348015610b7257600080fd5b506103a7610b81366004614003565b612092565b348015610b9257600080fd5b50610418610ba13660046143fe565b612108565b348015610bb257600080fd5b50306107f8565b610bc333346121b9565b60405134815233907fe1fffcc4923d04b559f4d29a8bfc6cda04eb5b0d3c460751c2402c5c5cc9109c9060200160405180910390a2565b337f00000000000000000000000000000000000000000000000000000000000000006001600160a01b031614610c775760405162461bcd60e51b815260206004820152601e60248201527f4c7a4170703a20696e76616c696420656e64706f696e742063616c6c6572000060448201526064015b60405180910390fd5b61ffff861660009081526001602052604081208054610c959061444b565b80601f0160208091040260200160405190810160405280929190818152602001828054610cc19061444b565b8015610d0e5780601f10610ce357610100808354040283529160200191610d0e565b820191906000526020600020905b815481529060010190602001808311610cf157829003601f168201915b50505050509050805186869050148015610d29575060008151115b8015610d51575080516020820120604051610d47908890889061447f565b6040518091039020145b610dac5760405162461bcd60e51b815260206004820152602660248201527f4c7a4170703a20696e76616c696420736f757263652073656e64696e6720636f6044820152651b9d1c9858dd60d21b6064820152608401610c6e565b610e228787878080601f01602080910402602001604051908101604052809392919081815260200183838082843760009201919091525050604080516020601f8a018190048102820181019092528881528a93509150889088908190840183828082843760009201919091525061227a92505050565b50505050505050565b60006001600160e01b03198216630d30953d60e31b1480610e5c57506301ffc9a760e01b6001600160e01b03198316145b92915050565b6060600c8054610e719061444b565b80601f0160208091040260200160405190810160405280929190818152602001828054610e9d9061444b565b8015610eea5780601f10610ebf57610100808354040283529160200191610eea565b820191906000526020600020905b815481529060010190602001808311610ecd57829003601f168201915b5050505050905090565b610efc6122f3565b6040516307e0db1760e01b815261ffff821660048201527f00000000000000000000000000000000000000000000000000000000000000006001600160a01b0316906307e0db17906024015b600060405180830381600087803b158015610f6257600080fd5b505af1158015610f76573d6000803e3d6000fd5b5050505050565b600033610f8b81858561234d565b5060019392505050565b610f9d6122f3565b61ffff909116600090815260036020526040902055565b610fbc6122f3565b6040516310ddb13760e01b815261ffff821660048201527f00000000000000000000000000000000000000000000000000000000000000006001600160a01b0316906310ddb13790602401610f48565b60003361101a858285612472565b6110258585856124ec565b506001949350505050565b61109b868686866110446020870187614003565b6110546040880160208901614003565b611061604089018961448f565b8080601f01602080910402602001604051908101604052809392919081815260200183838082843760009201919091525061269792505050565b9250818310156110bd5760405162461bcd60e51b8152600401610c6e906144d5565b505050505050565b6110cd612767565b3360009081526009602052604090205481111561113c5760405162461bcd60e51b815260206004820152602760248201527f4e61746976654f4654576974684665653a20496e73756666696369656e74206260448201526630b630b731b29760c91b6064820152608401610c6e565b61114633826127c0565b604051600090339083908381818185875af1925050503d8060008114611188576040519150601f19603f3d011682016040523d82523d6000602084013e61118d565b606091505b50509050806111e95760405162461bcd60e51b815260206004820152602260248201527f4e61746976654f4654576974684665653a206661696c656420746f20756e7772604482015261061760f41b6064820152608401610c6e565b60405182815233907f7fcf532c15f0a6db0bd6d0e038bea71d30d808c7d98cb3bf7268a95bf5081b659060200160405180910390a2506112296001600e55565b50565b6000806112728888888888888080601f0160208091040260200160405190810160405280939291908181526020018383808284376000920191909152506128f192505050565b91509150965096945050505050565b600033610f8b8185856112948383611df2565b61129e919061453a565b61234d565b61ffff8316600090815260016020526040812080548291906112c49061444b565b80601f01602080910402602001604051908101604052809291908181526020018280546112f09061444b565b801561133d5780601f106113125761010080835404028352916020019161133d565b820191906000526020600020905b81548152906001019060200180831161132057829003601f168201915b50505050509050838360405161135492919061447f565b60405180910390208180519060200120149150509392505050565b6113776122f3565b6040516342d65a8d60e01b81526001600160a01b037f000000000000000000000000000000000000000000000000000000000000000016906342d65a8d906113c790869086908690600401614576565b600060405180830381600087803b1580156113e157600080fd5b505af1158015610e22573d6000803e3d6000fd5b6114998989898988888080601f0160208091040260200160405190810160405280939291908181526020018383808284376000920191909152508a92506114429150506020890189614003565b61145260408a0160208b01614003565b61145f60408b018b61448f565b8080601f0160208091040260200160405190810160405280939291908181526020018383808284376000920191909152506129a992505050565b9550848610156114bb5760405162461bcd60e51b8152600401610c6e906144d5565b505050505050505050565b6114ce6122f3565b6001600160a01b0381166115245760405162461bcd60e51b815260206004820152601a60248201527f4665653a206665654f776e65722063616e6e6f742062652030780000000000006044820152606401610c6e565b6008805462010000600160b01b031916620100006001600160a01b038416908102919091179091556040519081527f047912631afa564eebd3db2efe191a0dec62da1fede6bbbc1ffc89d87845b1b5906020015b60405180910390a150565b61158b6122f3565b6127108161ffff1611156115b15760405162461bcd60e51b8152600401610c6e90614594565b6008805461ffff191661ffff83169081179091556040519081527fd26030ef4a8c225ee12b646eb4466acb41fb96b6cd4660b22d0ba0124e7bdc7490602001611578565b3330146116535760405162461bcd60e51b815260206004820152602660248201527f4e6f6e626c6f636b696e674c7a4170703a2063616c6c6572206d7573742062656044820152650204c7a4170760d41b6064820152608401610c6e565b6110bd8686868080601f01602080910402602001604051908101604052809392919081815260200183838082843760009201919091525050604080516020601f890181900481028201810190925287815289935091508790879081908401838280828437600092019190915250612a5192505050565b6116d16122f3565b6116db6000612ad8565b565b600160205260009081526040902080546116f69061444b565b80601f01602080910402602001604051908101604052809291908181526020018280546117229061444b565b801561176f5780601f106117445761010080835404028352916020019161176f565b820191906000526020600020905b81548152906001019060200180831161175257829003601f168201915b505050505081565b61177f6122f3565b6127108161ffff1611156117a55760405162461bcd60e51b8152600401610c6e90614594565b60408051808201825261ffff83811680835285151560208085018281528985166000818152600784528890209651875492511515620100000262ffffff1990931696169590951717909455845192835292820192909252918201527fdd9c9685af3e6dcb56d8f4b88d2595d4add6837a150034e7781c46b6dcf8aaab906060015b60405180910390a1505050565b600061183e600b5490565b905090565b6060600d8054610e719061444b565b61ffff81166000908152600160205260408120805460609291906118759061444b565b80601f01602080910402602001604051908101604052809291908181526020018280546118a19061444b565b80156118ee5780601f106118c3576101008083540402835291602001916118ee565b820191906000526020600020905b8154815290600101906020018083116118d157829003601f168201915b5050505050905080516000036119465760405162461bcd60e51b815260206004820152601d60248201527f4c7a4170703a206e6f20747275737465642070617468207265636f72640000006044820152606401610c6e565b61196160006014835161195991906145d9565b839190612b28565b9392505050565b600033816119768286611df2565b9050838110156119d65760405162461bcd60e51b815260206004820152602560248201527f45524332303a2064656372656173656420616c6c6f77616e63652062656c6f77604482015264207a65726f60d81b6064820152608401610c6e565b611025828686840361234d565b600080611a608b8b8b8b8b8080601f01602080910402602001604051908101604052809392919081815260200183838082843760009201919091525050604080516020601f8d018190048102820181019092528b81528e93508d9250908c908c9081908401838280828437600092019190915250612c3592505050565b91509150995099975050505050505050565b611a7a6122f3565b818130604051602001611a8f939291906145ec565b60408051601f1981840301815291815261ffff8516600090815260016020522090611aba908261465a565b507f8c0400cfe2d1199b1a725c78960bcc2a344d869b80590d0f2bd005db15a572ce83838360405161182693929190614576565b600033610f8b8185856124ec565b611b046122f3565b600480546001600160a01b0319166001600160a01b0383169081179091556040519081527f5db758e995a17ec1ad84bdef7e8c3293a0bd6179bcce400dff5d4c3d87db726b90602001611578565b611b5a6122f3565b6040516332fb62e760e21b81526001600160a01b037f0000000000000000000000000000000000000000000000000000000000000000169063cbed8b9c90611bae9088908890889088908890600401614719565b600060405180830381600087803b158015611bc857600080fd5b505af11580156114bb573d6000803e3d6000fd5b61ffff86166000908152600560205260408082209051611bff908890889061447f565b90815260408051602092819003830190206001600160401b03871660009081529252902054905080611c7f5760405162461bcd60e51b815260206004820152602360248201527f4e6f6e626c6f636b696e674c7a4170703a206e6f2073746f726564206d65737360448201526261676560e81b6064820152608401610c6e565b808383604051611c9092919061447f565b604051809103902014611cef5760405162461bcd60e51b815260206004820152602160248201527f4e6f6e626c6f636b696e674c7a4170703a20696e76616c6964207061796c6f616044820152601960fa1b6064820152608401610c6e565b61ffff87166000908152600560205260408082209051611d12908990899061447f565b90815260408051602092819003830181206001600160401b038916600090815290845282902093909355601f88018290048202830182019052868252611daa918991899089908190840183828082843760009201919091525050604080516020601f8a018190048102820181019092528881528a935091508890889081908401838280828437600092019190915250612a5192505050565b7fc264d91f3adc5588250e1551f547752ca0cfa8f6b530d243b9f9f4cab10ea8e58787878785604051611de1959493929190614752565b60405180910390a150505050505050565b6001600160a01b039182166000908152600a6020908152604080832093909416825291909152205490565b611e256122f3565b61ffff83811660008181526002602090815260408083209487168084529482529182902085905581519283528201929092529081018290527f9d5c7c0b934da8fefa9c7760c98383778a12dfbfc0c3b3106518f43fb9508ac090606001611826565b333014611ed65760405162461bcd60e51b815260206004820152601f60248201527f4f4654436f72653a2063616c6c6572206d757374206265204f4654436f7265006044820152606401610c6e565b611ee1308686612cf7565b9350846001600160a01b03168a61ffff167fbf551ec93859b170f9b2141bd9298bf3f64322c6f7beb2543a0cb669834118bf86604051611f2391815260200190565b60405180910390a3604051633fe79aed60e11b81526001600160a01b03861690637fcf35da908390611f67908e908e908e908e908e908d908d908d9060040161478d565b600060405180830381600088803b158015611f8157600080fd5b5087f1158015611f95573d6000803e3d6000fd5b505050505050505050505050505050565b611fae6122f3565b61ffff83166000908152600160205260409020611fcc8284836147e8565b507ffa41487ad5d6728f0b19276fa1eddc16558578f5109fc39d2dc33c3230470dab83838360405161182693929190614576565b61ffff828116600090815260076020908152604080832081518083019092525493841681526201000090930460ff1615801591840191909152909190612065578051612710906120549061ffff16856148a7565b61205e91906148d4565b915061208b565b60085461ffff161561208657600854612710906120549061ffff16856148a7565b600091505b5092915050565b61209a6122f3565b6001600160a01b0381166120ff5760405162461bcd60e51b815260206004820152602660248201527f4f776e61626c653a206e6577206f776e657220697320746865207a65726f206160448201526564647265737360d01b6064820152608401610c6e565b61122981612ad8565b604051633d7b2f6f60e21b815261ffff808616600483015284166024820152306044820152606481018290526060907f00000000000000000000000000000000000000000000000000000000000000006001600160a01b03169063f5ecbdbc90608401600060405180830381865afa158015612188573d6000803e3d6000fd5b505050506040513d6000823e601f3d908101601f191682016040526121b091908101906148e8565b95945050505050565b6001600160a01b03821661220f5760405162461bcd60e51b815260206004820152601f60248201527f45524332303a206d696e7420746f20746865207a65726f2061646472657373006044820152606401610c6e565b80600b6000828254612221919061453a565b90915550506001600160a01b0382166000818152600960209081526040808320805486019055518481527fddf252ad1be2c89b69c2b068fc378daa952ba7f163c4a11628f55a4df523b3ef910160405180910390a35050565b6000806122dd5a60966366ad5c8a60e01b898989896040516024016122a29493929190614955565b60408051601f198184030181529190526020810180516001600160e01b03166001600160e01b03199093169290921790915230929190612d49565b91509150816110bd576110bd8686868685612dd3565b6000546001600160a01b031633146116db5760405162461bcd60e51b815260206004820181905260248201527f4f776e61626c653a2063616c6c6572206973206e6f7420746865206f776e65726044820152606401610c6e565b6001600160a01b0383166123af5760405162461bcd60e51b8152602060048201526024808201527f45524332303a20617070726f76652066726f6d20746865207a65726f206164646044820152637265737360e01b6064820152608401610c6e565b6001600160a01b0382166124105760405162461bcd60e51b815260206004820152602260248201527f45524332303a20617070726f766520746f20746865207a65726f206164647265604482015261737360f01b6064820152608401610c6e565b6001600160a01b038381166000818152600a602090815260408083209487168084529482529182902085905590518481527f8c5be1e5ebec7d5bd14f71427d1e84f3dd0314c0f7b2291e5b200ac8c7c3b92591015b60405180910390a3505050565b600061247e8484611df2565b905060001981146124e657818110156124d95760405162461bcd60e51b815260206004820152601d60248201527f45524332303a20696e73756666696369656e7420616c6c6f77616e63650000006044820152606401610c6e565b6124e6848484840361234d565b50505050565b6001600160a01b0383166125505760405162461bcd60e51b815260206004820152602560248201527f45524332303a207472616e736665722066726f6d20746865207a65726f206164604482015264647265737360d81b6064820152608401610c6e565b6001600160a01b0382166125b25760405162461bcd60e51b815260206004820152602360248201527f45524332303a207472616e7366657220746f20746865207a65726f206164647260448201526265737360e81b6064820152608401610c6e565b6001600160a01b0383166000908152600960205260409020548181101561262a5760405162461bcd60e51b815260206004820152602660248201527f45524332303a207472616e7366657220616d6f756e7420657863656564732062604482015265616c616e636560d01b6064820152608401610c6e565b6001600160a01b0380851660008181526009602052604080822086860390559286168082529083902080548601905591517fddf252ad1be2c89b69c2b068fc378daa952ba7f163c4a11628f55a4df523b3ef9061268a9086815260200190565b60405180910390a36124e6565b60006126a587828481612e70565b60006126b289878a612f45565b925090506000612701886126c58561308c565b6040805160006020820152602181019390935260c09190911b6001600160c01b0319166041830152805160298184030181526049909201905290565b9050612711898288888887613112565b878a6001600160a01b03168a61ffff167fd81fc9b8523134ed613870ed029d6170cbb73aa6a6bc311b9a642689fb9df59a8660405161275291815260200190565b60405180910390a45050979650505050505050565b6002600e54036127b95760405162461bcd60e51b815260206004820152601f60248201527f5265656e7472616e637947756172643a207265656e7472616e742063616c6c006044820152606401610c6e565b6002600e55565b6001600160a01b0382166128205760405162461bcd60e51b815260206004820152602160248201527f45524332303a206275726e2066726f6d20746865207a65726f206164647265736044820152607360f81b6064820152608401610c6e565b6001600160a01b038216600090815260096020526040902054818110156128945760405162461bcd60e51b815260206004820152602260248201527f45524332303a206275726e20616d6f756e7420657863656564732062616c616e604482015261636560f01b6064820152608401610c6e565b6001600160a01b03831660008181526009602090815260408083208686039055600b80548790039055518581529192917fddf252ad1be2c89b69c2b068fc378daa952ba7f163c4a11628f55a4df523b3ef9101612465565b505050565b6000806000612903876126c58861308c565b60405163040a7bb160e41b81529091506001600160a01b037f000000000000000000000000000000000000000000000000000000000000000016906340a7bb109061295a908b90309086908b908b90600401614993565b6040805180830381865afa158015612976573d6000803e3d6000fd5b505050506040513d601f19601f8201168201806040525081019061299a91906149e7565b92509250509550959350505050565b60006129c1896001846001600160401b038916612e70565b60006129ce8b898c612f45565b9250905060006129e9338b6129e28661308c565b8b8b6132b7565b90506129f98b8288888887613112565b898c6001600160a01b03168c61ffff167fd81fc9b8523134ed613870ed029d6170cbb73aa6a6bc311b9a642689fb9df59a86604051612a3a91815260200190565b60405180910390a450509998505050505050505050565b6000612a5d82826132f8565b905060ff8116612a7857612a7385858585613354565b610f76565b60001960ff821601612a9057612a73858585856133e4565b60405162461bcd60e51b815260206004820152601c60248201527f4f4654436f72653a20756e6b6e6f776e207061636b65742074797065000000006044820152606401610c6e565b600080546001600160a01b038381166001600160a01b0319831681178455604051919092169283917f8be0079c531659141344cd1fd0a4f28419497f9722a3daafe3b4186f6b6457e09190a35050565b606081612b3681601f61453a565b1015612b755760405162461bcd60e51b815260206004820152600e60248201526d736c6963655f6f766572666c6f7760901b6044820152606401610c6e565b612b7f828461453a565b84511015612bc35760405162461bcd60e51b8152602060048201526011602482015270736c6963655f6f75744f66426f756e647360781b6044820152606401610c6e565b606082158015612be25760405191506000825260208201604052612c2c565b6040519150601f8416801560200281840101858101878315602002848b0101015b81831015612c1b578051835260209283019201612c03565b5050858452601f01601f1916604052505b50949350505050565b6000806000612c4f338a612c488b61308c565b8a8a6132b7565b60405163040a7bb160e41b81529091506001600160a01b037f000000000000000000000000000000000000000000000000000000000000000016906340a7bb1090612ca6908d90309086908b908b90600401614993565b6040805180830381865afa158015612cc2573d6000803e3d6000fd5b505050506040513d601f19601f82011682018060405250810190612ce691906149e7565b925092505097509795505050505050565b600033306001600160a01b03861614801590612d255750806001600160a01b0316856001600160a01b031614155b15612d3557612d35858285612472565b612d408585856124ec565b50909392505050565b6000606060008060008661ffff166001600160401b03811115612d6e57612d6e614020565b6040519080825280601f01601f191660200182016040528015612d98576020820181803683370190505b50905060008087516020890160008d8df191503d925086831115612dba578692505b828152826000602083013e909890975095505050505050565b8180519060200120600560008761ffff1661ffff16815260200190815260200160002085604051612e049190614a0b565b9081526040805191829003602090810183206001600160401b0388166000908152915220919091557fe183f33de2837795525b4792ca4cd60535bd77c53b7e7030060bfcf5734d6b0c90612e619087908790879087908790614a27565b60405180910390a15050505050565b6000612e7b836135f2565b61ffff80871660009081526002602090815260408083209389168352929052205490915080612eec5760405162461bcd60e51b815260206004820152601a60248201527f4c7a4170703a206d696e4761734c696d6974206e6f74207365740000000000006044820152606401610c6e565b612ef6838261453a565b8210156110bd5760405162461bcd60e51b815260206004820152601b60248201527f4c7a4170703a20676173206c696d697420697320746f6f206c6f7700000000006044820152606401610c6e565b6000806000612f548486612000565b9050348115612fdb57612f6782876145d9565b955081612f89886001600160a01b031660009081526009602052604090205490565b10612fb257600854612fac9088906201000090046001600160a01b031684612cf7565b50612fdb565b600854612fce906201000090046001600160a01b0316836121b9565b612fd882826145d9565b90505b612fe48661364e565b5092508261303f5760405162461bcd60e51b815260206004820152602260248201527f4e61746976654f4654576974684665653a20616d6f756e7420746f6f20736d616044820152611b1b60f21b6064820152608401610c6e565b82600f6000828254613051919061453a565b9091555050336001600160a01b038816146130765761307187848361368e565b613080565b6130808382613734565b93505050935093915050565b6000806130b97f0000000000000000000000000000000000000000000000000000000000000000846148d4565b90506001600160401b03811115610e5c5760405162461bcd60e51b815260206004820152601a60248201527f4f4654436f72653a20616d6f756e745344206f766572666c6f770000000000006044820152606401610c6e565b61ffff8616600090815260016020526040812080546131309061444b565b80601f016020809104026020016040519081016040528092919081815260200182805461315c9061444b565b80156131a95780601f1061317e576101008083540402835291602001916131a9565b820191906000526020600020905b81548152906001019060200180831161318c57829003601f168201915b50505050509050805160000361321a5760405162461bcd60e51b815260206004820152603060248201527f4c7a4170703a2064657374696e6174696f6e20636861696e206973206e6f742060448201526f61207472757374656420736f7572636560801b6064820152608401610c6e565b6132258787516137ae565b60405162c5803160e81b81526001600160a01b037f0000000000000000000000000000000000000000000000000000000000000000169063c580310090849061327c908b9086908c908c908c908c90600401614a79565b6000604051808303818588803b15801561329557600080fd5b505af11580156132a9573d6000803e3d6000fd5b505050505050505050505050565b6060600185856001600160a01b03891685876040516020016132de96959493929190614ae0565b604051602081830303815290604052905095945050505050565b600061330582600161453a565b8351101561334b5760405162461bcd60e51b8152602060048201526013602482015272746f55696e74385f6f75744f66426f756e647360681b6044820152606401610c6e565b50016001015190565b6000806133608361381f565b90925090506001600160a01b0382166133795761dead91505b6000613384826138a4565b90506133918784836138d9565b9050826001600160a01b03168761ffff167fbf551ec93859b170f9b2141bd9298bf3f64322c6f7beb2543a0cb669834118bf836040516133d391815260200190565b60405180910390a350505050505050565b60008060008060006133f5866139ae565b945094509450945094506000600660008b61ffff1661ffff1681526020019081526020016000208960405161342a9190614a0b565b90815260408051602092819003830190206001600160401b038b166000908152925281205460ff16915061345d856138a4565b9050816134cb5761346f8b30836138d9565b61ffff8c16600090815260066020526040908190209051919250600191613497908d90614a0b565b90815260408051602092819003830190206001600160401b038d16600090815292529020805460ff19169115159190911790555b6001600160a01b0386163b613522576040516001600160a01b03871681527f9aedf5fdba8716db3b6705ca00150643309995d4f818a249ed6dde6677e7792d9060200160405180910390a1505050505050506124e6565b8a8a8a8a8a8a868a60008a613540578b6001600160401b0316613542565b5a5b90506000806135745a609663eaffd49a60e01b8e8e8e8d8d8d8d8d6040516024016122a2989796959493929190614b41565b9150915081156135cd578751602089012060405161ffff8d16907fb8890edbfc1c74692f527444645f95489c3703cc2df42e4a366f5d06fa6cd884906135bf908e908e908690614bb5565b60405180910390a2506135da565b6135da8b8b8b8b85612dd3565b50505050505050505050505050505050505050505050565b60006022825110156136465760405162461bcd60e51b815260206004820152601c60248201527f4c7a4170703a20696e76616c69642061646170746572506172616d73000000006044820152606401610c6e565b506022015190565b60008061367b7f000000000000000000000000000000000000000000000000000000000000000084614be3565b905061368781846145d9565b9150915091565b6001600160a01b0383166000908152600960205260408120548381101561371257836136ba848361453a565b10156136d85760405162461bcd60e51b8152600401610c6e90614bf7565b60006136e482866145d9565b90506136f033826121b9565b6136fb3330836124ec565b819450808461370a91906145d9565b925050613716565b8291505b613721853386612472565b61372c8530866124ec565b509392505050565b336000908152600960205260408120548381101561379f5783613757848361453a565b10156137755760405162461bcd60e51b8152600401610c6e90614bf7565b600061378182866145d9565b905061378d33826121b9565b61379781856145d9565b9250506137a3565b8291505b61208b3330866124ec565b61ffff8216600090815260036020526040812054908190036137cf57506127105b808211156128ec5760405162461bcd60e51b815260206004820181905260248201527f4c7a4170703a207061796c6f61642073697a6520697320746f6f206c617267656044820152606401610c6e565b6000808061382d84826132f8565b60ff1614801561383e575082516029145b6138855760405162461bcd60e51b815260206004820152601860248201527713d19510dbdc994e881a5b9d985b1a59081c185e5b1bd85960421b6044820152606401610c6e565b61389083600d613a65565b915061389d836021613aca565b9050915091565b6000610e5c7f00000000000000000000000000000000000000000000000000000000000000006001600160401b0384166148a7565b600081600f60008282546138ed91906145d9565b909155506138fd905030836127c0565b6000836001600160a01b03168360405160006040518083038185875af1925050503d806000811461394a576040519150601f19603f3d011682016040523d82523d6000602084013e61394f565b606091505b5050905080612d405760405162461bcd60e51b815260206004820152602560248201527f4e61746976654f4654576974684665653a206661696c656420746f205f637265604482015264646974546f60d81b6064820152608401610c6e565b6000808060608160016139c187836132f8565b60ff1614613a0c5760405162461bcd60e51b815260206004820152601860248201527713d19510dbdc994e881a5b9d985b1a59081c185e5b1bd85960421b6044820152606401610c6e565b613a1786600d613a65565b9350613a24866021613aca565b9250613a31866029613b27565b9450613a3e866049613aca565b9050613a5a6051808851613a5291906145d9565b889190612b28565b915091939590929450565b6000613a7282601461453a565b83511015613aba5760405162461bcd60e51b8152602060048201526015602482015274746f416464726573735f6f75744f66426f756e647360581b6044820152606401610c6e565b500160200151600160601b900490565b6000613ad782600861453a565b83511015613b1e5760405162461bcd60e51b8152602060048201526014602482015273746f55696e7436345f6f75744f66426f756e647360601b6044820152606401610c6e565b50016008015190565b6000613b3482602061453a565b83511015613b7c5760405162461bcd60e51b8152602060048201526015602482015274746f427974657333325f6f75744f66426f756e647360581b6044820152606401610c6e565b50016020015190565b803561ffff81168114613b9757600080fd5b919050565b60008083601f840112613bae57600080fd5b5081356001600160401b03811115613bc557600080fd5b602083019150836020828501011115613bdd57600080fd5b9250929050565b80356001600160401b0381168114613b9757600080fd5b60008060008060008060808789031215613c1457600080fd5b613c1d87613b85565b955060208701356001600160401b0380821115613c3957600080fd5b613c458a838b01613b9c565b9097509550859150613c5960408a01613be4565b94506060890135915080821115613c6f57600080fd5b50613c7c89828a01613b9c565b979a9699509497509295939492505050565b600060208284031215613ca057600080fd5b81356001600160e01b03198116811461196157600080fd5b60005b83811015613cd3578181015183820152602001613cbb565b50506000910152565b60008151808452613cf4816020860160208601613cb8565b601f01601f19169290920160200192915050565b6020815260006119616020830184613cdc565b600060208284031215613d2d57600080fd5b61196182613b85565b6001600160a01b038116811461122957600080fd5b60008060408385031215613d5e57600080fd5b8235613d6981613d36565b946020939093013593505050565b60008060408385031215613d8a57600080fd5b613d6983613b85565b600080600060608486031215613da857600080fd5b8335613db381613d36565b92506020840135613dc381613d36565b929592945050506040919091013590565b600060608284031215613de657600080fd5b50919050565b60008060008060008060c08789031215613e0557600080fd5b8635613e1081613d36565b9550613e1e60208801613b85565b945060408701359350606087013592506080870135915060a08701356001600160401b03811115613e4e57600080fd5b613e5a89828a01613dd4565b9150509295509295509295565b600060208284031215613e7957600080fd5b5035919050565b80358015158114613b9757600080fd5b60008060008060008060a08789031215613ea957600080fd5b613eb287613b85565b95506020870135945060408701359350613ece60608801613e80565b925060808701356001600160401b03811115613ee957600080fd5b613c7c89828a01613b9c565b600080600060408486031215613f0a57600080fd5b613f1384613b85565b925060208401356001600160401b03811115613f2e57600080fd5b613f3a86828701613b9c565b9497909650939450505050565b60008060008060008060008060006101008a8c031215613f6657600080fd5b8935613f7181613d36565b9850613f7f60208b01613b85565b975060408a0135965060608a0135955060808a0135945060a08a01356001600160401b0380821115613fb057600080fd5b613fbc8d838e01613b9c565b9096509450849150613fd060c08d01613be4565b935060e08c0135915080821115613fe657600080fd5b50613ff38c828d01613dd4565b9150509295985092959850929598565b60006020828403121561401557600080fd5b813561196181613d36565b634e487b7160e01b600052604160045260246000fd5b604051601f8201601f191681016001600160401b038111828210171561405e5761405e614020565b604052919050565b60006001600160401b0382111561407f5761407f614020565b50601f01601f191660200190565b6000806000606084860312156140a257600080fd5b6140ab84613b85565b925060208401356001600160401b038111156140c657600080fd5b8401601f810186136140d757600080fd5b80356140ea6140e582614066565b614036565b8181528760208385010111156140ff57600080fd5b8160208401602083013760006020838301015280945050505061412460408501613be4565b90509250925092565b60008060006060848603121561414257600080fd5b61414b84613b85565b925061415960208501613e80565b915061412460408501613b85565b6000806040838503121561417a57600080fd5b61418383613b85565b915061419160208401613b85565b90509250929050565b600080600080600080600080600060e08a8c0312156141b857600080fd5b6141c18a613b85565b985060208a0135975060408a0135965060608a01356001600160401b03808211156141eb57600080fd5b6141f78d838e01613b9c565b909850965086915061420b60808d01613be4565b955061421960a08d01613e80565b945060c08c013591508082111561422f57600080fd5b5061423c8c828d01613b9c565b915080935050809150509295985092959850929598565b60008060008060006080868803121561426b57600080fd5b61427486613b85565b945061428260208701613b85565b93506040860135925060608601356001600160401b038111156142a457600080fd5b6142b088828901613b9c565b969995985093965092949392505050565b600080604083850312156142d457600080fd5b82356142df81613d36565b915060208301356142ef81613d36565b809150509250929050565b60008060006060848603121561430f57600080fd5b61431884613b85565b925061432660208501613b85565b9150604084013590509250925092565b6000806000806000806000806000806101008b8d03121561435657600080fd5b61435f8b613b85565b995060208b01356001600160401b038082111561437b57600080fd5b6143878e838f01613b9c565b909b50995089915061439b60408e01613be4565b985060608d0135975060808d013591506143b482613d36565b90955060a08c0135945060c08c013590808211156143d157600080fd5b506143de8d828e01613b9c565b9150809450508092505060e08b013590509295989b9194979a5092959850565b6000806000806080858703121561441457600080fd5b61441d85613b85565b935061442b60208601613b85565b9250604085013561443b81613d36565b9396929550929360600135925050565b600181811c9082168061445f57607f821691505b602082108103613de657634e487b7160e01b600052602260045260246000fd5b8183823760009101908152919050565b6000808335601e198436030181126144a657600080fd5b8301803591506001600160401b038211156144c057600080fd5b602001915036819003821315613bdd57600080fd5b6020808252602f908201527f4e61746976654f4654576974684665653a20616d6f756e74206973206c65737360408201526e081d1a185b881b5a5b905b5bdd5b9d608a1b606082015260800190565b634e487b7160e01b600052601160045260246000fd5b80820180821115610e5c57610e5c614524565b81835281816020850137506000828201602090810191909152601f909101601f19169091010190565b61ffff841681526040602082015260006121b060408301848661454d565b60208082526025908201527f4665653a20666565206270206d757374206265203c3d2042505f44454e4f4d496040820152642720aa27a960d91b606082015260800190565b81810381811115610e5c57610e5c614524565b8284823760609190911b6bffffffffffffffffffffffff19169101908152601401919050565b601f8211156128ec576000816000526020600020601f850160051c8101602086101561463b5750805b601f850160051c820191505b818110156110bd57828155600101614647565b81516001600160401b0381111561467357614673614020565b61468781614681845461444b565b84614612565b602080601f8311600181146146bc57600084156146a45750858301515b600019600386901b1c1916600185901b1785556110bd565b600085815260208120601f198616915b828110156146eb578886015182559484019460019091019084016146cc565b50858210156147095787850151600019600388901b60f8161c191681555b5050505050600190811b01905550565b600061ffff80881683528087166020840152508460408301526080606083015261474760808301848661454d565b979650505050505050565b61ffff8616815260806020820152600061477060808301868861454d565b6001600160401b0394909416604083015250606001529392505050565b61ffff8916815260c0602082015260006147ab60c08301898b61454d565b6001600160401b038816604084015286606084015285608084015282810360a08401526147d981858761454d565b9b9a5050505050505050505050565b6001600160401b038311156147ff576147ff614020565b6148138361480d835461444b565b83614612565b6000601f841160018114614847576000851561482f5750838201355b600019600387901b1c1916600186901b178355610f76565b600083815260209020601f19861690835b828110156148785786850135825560209485019460019092019101614858565b50868210156148955760001960f88860031b161c19848701351681555b505060018560011b0183555050505050565b8082028115828204841417610e5c57610e5c614524565b634e487b7160e01b600052601260045260246000fd5b6000826148e3576148e36148be565b500490565b6000602082840312156148fa57600080fd5b81516001600160401b0381111561491057600080fd5b8201601f8101841361492157600080fd5b805161492f6140e582614066565b81815285602083850101111561494457600080fd5b6121b0826020830160208601613cb8565b61ffff851681526080602082015260006149726080830186613cdc565b6001600160401b038516604084015282810360608401526147478185613cdc565b61ffff861681526001600160a01b038516602082015260a0604082018190526000906149c190830186613cdc565b841515606084015282810360808401526149db8185613cdc565b98975050505050505050565b600080604083850312156149fa57600080fd5b505080516020909101519092909150565b60008251614a1d818460208701613cb8565b9190910192915050565b61ffff8616815260a060208201526000614a4460a0830187613cdc565b6001600160401b03861660408401528281036060840152614a658186613cdc565b905082810360808401526149db8185613cdc565b61ffff8716815260c060208201526000614a9660c0830188613cdc565b8281036040840152614aa88188613cdc565b6001600160a01b0387811660608601528616608085015283810360a08501529050614ad38185613cdc565b9998505050505050505050565b60ff60f81b8760f81b16815285600182015260006001600160401b0360c01b808760c01b166021840152856029840152808560c01b166049840152508251614b2f816051850160208701613cb8565b91909101605101979650505050505050565b600061010061ffff8b168352806020840152614b5f8184018b613cdc565b6001600160401b038a166040850152606084018990526001600160a01b038816608085015260a0840187905283810360c08501529050614b9f8186613cdc565b9150508260e08301529998505050505050505050565b606081526000614bc86060830186613cdc565b6001600160401b039490941660208301525060400152919050565b600082614bf257614bf26148be565b500690565b60208082526028908201527f4e61746976654f4654576974684665653a20496e73756666696369656e74206d60408201526773672e76616c756560c01b60608201526080019056fea26469706673582212200e7069587821d1a75d7e31d638e8d19425445a3b5d80c07e37852039d775e91064736f6c63430008160033",
    "linkReferences": {}
  },
  "methodIdentifiers": {
    "BP_DENOMINATOR()": "abe685cd",
    "DEFAULT_PAYLOAD_SIZE_LIMIT()": "c4461834",
    "NO_EXTRA_GAS()": "44770515",
    "PT_SEND()": "4c42899a",
    "PT_SEND_AND_CALL()": "e6a20ae6",
    "allowance(address,address)": "dd62ed3e",
    "approve(address,uint256)": "095ea7b3",
    "balanceOf(address)": "70a08231",
    "callOnOFTReceived(uint16,bytes,uint64,bytes32,address,uint256,bytes,uint256)": "eaffd49a",
    "chainIdToFeeBps(uint16)": "c83330ce",
    "circulatingSupply()": "9358928b",
    "creditedPackets(uint16,bytes,uint64)": "9bdb9812",
    "decimals()": "313ce567",
    "decreaseAllowance(address,uint256)": "a457c2d7",
    "defaultFeeBp()": "d8882968",
    "deposit()": "d0e30db0",
    "estimateSendAndCallFee(uint16,bytes32,uint256,bytes,uint64,bool,bytes)": "a4c51df5",
    "estimateSendFee(uint16,bytes32,uint256,bool,bytes)": "365260b4",
    "failedMessages(uint16,bytes,uint64)": "5b8c41e6",
    "feeOwner()": "b9818be1",
    "forceResumeReceive(uint16,bytes)": "42d65a8d",
    "getConfig(uint16,uint16,address,uint256)": "f5ecbdbc",
    "getTrustedRemoteAddress(uint16)": "9f38369a",
    "increaseAllowance(address,uint256)": "39509351",
    "isTrustedRemote(uint16,bytes)": "3d8b38f6",
    "lzEndpoint()": "b353aaa7",
    "lzReceive(uint16,bytes,uint64,bytes)": "001d3567",
    "minDstGasLookup(uint16,uint16)": "8cfd8f5c",
    "name()": "06fdde03",
    "nonblockingLzReceive(uint16,bytes,uint64,bytes)": "66ad5c8a",
    "outboundAmount()": "9689cb05",
    "owner()": "8da5cb5b",
    "payloadSizeLimitLookup(uint16)": "3f1f4fa4",
    "precrime()": "950c8a74",
    "quoteOFTFee(uint16,uint256)": "ecd8f212",
    "renounceOwnership()": "715018a6",
    "retryMessage(uint16,bytes,uint64,bytes)": "d1deba1f",
    "sendAndCall(address,uint16,bytes32,uint256,uint256,bytes,uint64,(address,address,bytes))": "455ba27d",
    "sendFrom(address,uint16,bytes32,uint256,uint256,(address,address,bytes))": "2cdf0b95",
    "setConfig(uint16,uint16,uint256,bytes)": "cbed8b9c",
    "setDefaultFeeBp(uint16)": "5a359dc5",
    "setFeeBp(uint16,bool,uint16)": "79c0ad4b",
    "setFeeOwner(address)": "4b104eff",
    "setMinDstGas(uint16,uint16,uint256)": "df2a5b3b",
    "setPayloadSizeLimit(uint16,uint256)": "0df37483",
    "setPrecrime(address)": "baf3292d",
    "setReceiveVersion(uint16)": "10ddb137",
    "setSendVersion(uint16)": "07e0db17",
    "setTrustedRemote(uint16,bytes)": "eb8d72b7",
    "setTrustedRemoteAddress(uint16,bytes)": "a6c3d165",
    "sharedDecimals()": "857749b0",
    "supportsInterface(bytes4)": "01ffc9a7",
    "symbol()": "95d89b41",
    "token()": "fc0c546a",
    "totalSupply()": "18160ddd",
    "transfer(address,uint256)": "a9059cbb",
    "transferFrom(address,address,uint256)": "23b872dd",
    "transferOwnership(address)": "f2fde38b",
    "trustedRemoteLookup(uint16)": "7533d788",
    "withdraw(uint256)": "2e1a7d4d"
  },
  "id": 28
}