{
  "abi": [
    {
      "inputs": [
        {
          "internalType": "address",
          "name": "_oft",
          "type": "address"
        }
      ],
      "stateMutability": "nonpayable",
      "type": "constructor"
    },
    {
      "anonymous": false,
      "inputs": [
        {
          "indexed": false,
          "internalType": "address",
          "name": "from",
          "type": "address"
        },
        {
          "indexed": false,
          "internalType": "uint256",
          "name": "amount",
          "type": "uint256"
        }
      ],
      "name": "Deposit",
      "type": "event"
    },
    {
      "anonymous": false,
      "inputs": [
        {
          "indexed": false,
          "internalType": "address",
          "name": "from",
          "type": "address"
        },
        {
          "indexed": false,
          "internalType": "uint16",
          "name": "dstChainId",
          "type": "uint16"
        },
        {
          "indexed": false,
          "internalType": "bytes",
          "name": "to",
          "type": "bytes"
        },
        {
          "indexed": false,
          "internalType": "uint256",
          "name": "amountOut",
          "type": "uint256"
        }
      ],
      "name": "DepositToDstChain",
      "type": "event"
    },
    {
      "anonymous": false,
      "inputs": [
        {
          "indexed": false,
          "internalType": "address",
          "name": "to",
          "type": "address"
        },
        {
          "indexed": false,
          "internalType": "uint256",
          "name": "amount",
          "type": "uint256"
        }
      ],
      "name": "Withdrawal",
      "type": "event"
    },
    {
      "inputs": [],
      "name": "DST_GAS_FOR_CALL",
      "outputs": [
        {
          "internalType": "uint64",
          "name": "",
          "type": "uint64"
        }
      ],
      "stateMutability": "view",
      "type": "function"
    },
    {
      "inputs": [],
      "name": "PT_DEPOSIT_TO_REMOTE_CHAIN",
      "outputs": [
        {
          "internalType": "uint8",
          "name": "",
          "type": "uint8"
        }
      ],
      "stateMutability": "view",
      "type": "function"
    },
    {
      "inputs": [
        {
          "internalType": "address",
          "name": "",
          "type": "address"
        }
      ],
      "name": "balances",
      "outputs": [
        {
          "internalType": "uint256",
          "name": "",
          "type": "uint256"
        }
      ],
      "stateMutability": "view",
      "type": "function"
    },
    {
      "inputs": [
        {
          "internalType": "uint256",
          "name": "_amount",
          "type": "uint256"
        }
      ],
      "name": "deposit",
      "outputs": [],
      "stateMutability": "payable",
      "type": "function"
    },
    {
      "inputs": [
        {
          "internalType": "uint16",
          "name": "_dstChainId",
          "type": "uint16"
        },
        {
          "internalType": "bytes",
          "name": "_to",
          "type": "bytes"
        },
        {
          "internalType": "uint256",
          "name": "_amount",
          "type": "uint256"
        },
        {
          "internalType": "bytes",
          "name": "_adapterParams",
          "type": "bytes"
        }
      ],
      "name": "depositToDstChain",
      "outputs": [],
      "stateMutability": "payable",
      "type": "function"
    },
    {
      "inputs": [],
      "name": "oft",
      "outputs": [
        {
          "internalType": "contract IOFTV2",
          "name": "",
          "type": "address"
        }
      ],
      "stateMutability": "view",
      "type": "function"
    },
    {
      "inputs": [
        {
          "internalType": "uint16",
          "name": "_srcChainId",
          "type": "uint16"
        },
        {
          "internalType": "bytes",
          "name": "",
          "type": "bytes"
        },
        {
          "internalType": "uint64",
          "name": "",
          "type": "uint64"
        },
        {
          "internalType": "bytes32",
          "name": "_from",
          "type": "bytes32"
        },
        {
          "internalType": "uint256",
          "name": "_amount",
          "type": "uint256"
        },
        {
          "internalType": "bytes",
          "name": "_payload",
          "type": "bytes"
        }
      ],
      "name": "onOFTReceived",
      "outputs": [],
      "stateMutability": "nonpayable",
      "type": "function"
    },
    {
      "inputs": [],
      "name": "paused",
      "outputs": [
        {
          "internalType": "bool",
          "name": "",
          "type": "bool"
        }
      ],
      "stateMutability": "view",
      "type": "function"
    },
    {
      "inputs": [
        {
          "internalType": "uint16",
          "name": "_dstChainId",
          "type": "uint16"
        },
        {
          "internalType": "bytes",
          "name": "_to",
          "type": "bytes"
        },
        {
          "internalType": "uint256",
          "name": "_amount",
          "type": "uint256"
        },
        {
          "internalType": "bytes",
          "name": "_adapterParams",
          "type": "bytes"
        }
      ],
      "name": "quoteForDeposit",
      "outputs": [
        {
          "internalType": "uint256",
          "name": "nativeFee",
          "type": "uint256"
        },
        {
          "internalType": "uint256",
          "name": "zroFee",
          "type": "uint256"
        }
      ],
      "stateMutability": "view",
      "type": "function"
    },
    {
      "inputs": [
        {
          "internalType": "uint16",
          "name": "",
          "type": "uint16"
        }
      ],
      "name": "remoteStakingContracts",
      "outputs": [
        {
          "internalType": "bytes32",
          "name": "",
          "type": "bytes32"
        }
      ],
      "stateMutability": "view",
      "type": "function"
    },
    {
      "inputs": [
        {
          "internalType": "bool",
          "name": "_paused",
          "type": "bool"
        }
      ],
      "name": "setPaused",
      "outputs": [],
      "stateMutability": "nonpayable",
      "type": "function"
    },
    {
      "inputs": [
        {
          "internalType": "uint16",
          "name": "_chainId",
          "type": "uint16"
        },
        {
          "internalType": "bytes32",
          "name": "_stakingContract",
          "type": "bytes32"
        }
      ],
      "name": "setRemoteStakingContract",
      "outputs": [],
      "stateMutability": "nonpayable",
      "type": "function"
    },
    {
      "inputs": [
        {
          "internalType": "uint256",
          "name": "_amount",
          "type": "uint256"
        }
      ],
      "name": "withdraw",
      "outputs": [],
      "stateMutability": "nonpayable",
      "type": "function"
    },
    {
      "inputs": [
        {
          "internalType": "uint256",
          "name": "_amount",
          "type": "uint256"
        },
        {
          "internalType": "address",
          "name": "_to",
          "type": "address"
        }
      ],
      "name": "withdrawTo",
      "outputs": [],
      "stateMutability": "nonpayable",
      "type": "function"
    }
  ],
  "bytecode": {
    "object": "0x60806040523480156200001157600080fd5b5060405162001960380380620019608339810160408190526200003491620004a2565b600080546001600160a01b0319166001600160a01b03831690811790915560408051637e062a3560e11b81529051620000d09284926000199263fc0c546a916004808201926020929091908290030181865afa15801562000099573d6000803e3d6000fd5b505050506040513d601f19601f82011682018060405250810190620000bf9190620004a2565b6001600160a01b03169190620000d7565b506200058b565b801580620001555750604051636eb1769f60e11b81523060048201526001600160a01b03838116602483015284169063dd62ed3e90604401602060405180830381865afa1580156200012d573d6000803e3d6000fd5b505050506040513d601f19601f82011682018060405250810190620001539190620004d4565b155b620001cd5760405162461bcd60e51b815260206004820152603660248201527f5361666545524332303a20617070726f76652066726f6d206e6f6e2d7a65726f60448201527f20746f206e6f6e2d7a65726f20616c6c6f77616e63650000000000000000000060648201526084015b60405180910390fd5b604080516001600160a01b038416602482015260448082018490528251808303909101815260649091019091526020810180516001600160e01b0390811663095ea7b360e01b17909152620002259185916200022a16565b505050565b6040805180820190915260208082527f5361666545524332303a206c6f772d6c6576656c2063616c6c206661696c65649082015260009062000279906001600160a01b038516908490620002fe565b90508051600014806200029d5750808060200190518101906200029d9190620004ee565b620002255760405162461bcd60e51b815260206004820152602a60248201527f5361666545524332303a204552433230206f7065726174696f6e20646964206e6044820152691bdd081cdd58d8d9595960b21b6064820152608401620001c4565b60606200030f848460008562000317565b949350505050565b6060824710156200037a5760405162461bcd60e51b815260206004820152602660248201527f416464726573733a20696e73756666696369656e742062616c616e636520666f6044820152651c8818d85b1b60d21b6064820152608401620001c4565b600080866001600160a01b0316858760405162000398919062000538565b60006040518083038185875af1925050503d8060008114620003d7576040519150601f19603f3d011682016040523d82523d6000602084013e620003dc565b606091505b509092509050620003f087838387620003fb565b979650505050505050565b606083156200046f57825160000362000467576001600160a01b0385163b620004675760405162461bcd60e51b815260206004820152601d60248201527f416464726573733a2063616c6c20746f206e6f6e2d636f6e74726163740000006044820152606401620001c4565b50816200030f565b6200030f8383815115620004865781518083602001fd5b8060405162461bcd60e51b8152600401620001c4919062000556565b600060208284031215620004b557600080fd5b81516001600160a01b0381168114620004cd57600080fd5b9392505050565b600060208284031215620004e757600080fd5b5051919050565b6000602082840312156200050157600080fd5b81518015158114620004cd57600080fd5b60005b838110156200052f57818101518382015260200162000515565b50506000910152565b600082516200054c81846020870162000512565b9190910192915050565b60208152600082518060208401526200057781604085016020870162000512565b601f01601f19169190910160400192915050565b6113c5806200059b6000396000f3fe6080604052600436106100dd5760003560e01c80639ae065f11161007f578063acd4b82711610059578063acd4b82714610295578063b6b55f25146102c5578063c86283c8146102d8578063f2ab0e04146102f857600080fd5b80639ae065f1146102045780639b5215f614610236578063aadda7f61461026e57600080fd5b80635485ab3c116100bb5780635485ab3c146101725780635c975abb146101a75780637242abf6146101d15780637fcf35da146101e457600080fd5b806316c38b3c146100e257806327e235e3146101125780632e1a7d4d14610152575b600080fd5b3480156100ee57600080fd5b506101106100fd366004610d4c565b6003805460ff1916911515919091179055565b005b34801561011e57600080fd5b5061013f61012d366004610d85565b60026020526000908152604090205481565b6040519081526020015b60405180910390f35b34801561015e57600080fd5b5061011061016d366004610da2565b610325565b34801561017e57600080fd5b5061019261018d366004610e1b565b610332565b60408051928352602083019190915201610149565b3480156101b357600080fd5b506003546101c19060ff1681565b6040519015158152602001610149565b6101106101df366004610e1b565b61044b565b3480156101f057600080fd5b506101106101ff366004610f14565b61065d565b34801561021057600080fd5b5061011061021f366004610ffe565b61ffff909116600090815260016020526040902055565b34801561024257600080fd5b50600054610256906001600160a01b031681565b6040516001600160a01b039091168152602001610149565b34801561027a57600080fd5b50610283600181565b60405160ff9091168152602001610149565b3480156102a157600080fd5b506102ac620493e081565b60405167ffffffffffffffff9091168152602001610149565b6101106102d3366004610da2565b610808565b3480156102e457600080fd5b506101106102f3366004611028565b6108bf565b34801561030457600080fd5b5061013f610313366004611058565b60016020526000908152604090205481565b61032f81336108bf565b50565b61ffff86166000908152600160205260408120548190806103905760405162461bcd60e51b81526020600482015260136024820152721a5b9d985b1a590817d91cdd10da185a5b9259606a1b60448201526064015b60405180910390fd5b6000600189896040516020016103a89392919061109c565b60408051601f19818403018152908290526000805463a4c51df560e01b84529193506001600160a01b039091169163a4c51df5916103fa918e9187918d918891620493e091908f908f90600401611112565b6040805180830381865afa158015610416573d6000803e3d6000fd5b505050506040513d601f19601f8201168201806040525081019061043a9190611175565b935093505050965096945050505050565b61ffff8616600090815260016020526040902054806104a25760405162461bcd60e51b81526020600482015260136024820152721a5b9d985b1a590817d91cdd10da185a5b9259606a1b6044820152606401610387565b61052e33308660008054906101000a90046001600160a01b03166001600160a01b031663fc0c546a6040518163ffffffff1660e01b8152600401602060405180830381865afa1580156104f9573d6000803e3d6000fd5b505050506040513d601f19601f8201168201806040525081019061051d9190611199565b6001600160a01b03169291906109c8565b6000600187876040516020016105469392919061109c565b60408051601f19818403018152606083018252338352600060208481018290528351601f89018290048202810182018552888152929550909392830191908890889081908401838280828437600092018290525093909452505054604051630ec4076960e31b81529293506001600160a01b0316916376203b48915034906105e19030908e9089908d908a90620493e0908b906004016111b6565b6000604051808303818588803b1580156105fa57600080fd5b505af115801561060e573d6000803e3d6000fd5b50505050507ff19a8f0b78556c2027690fa47020dd2adb2b807bdf2b287ae4685a7c0adde38a338a8a8a8a60405161064a959493929190611233565b60405180910390a1505050505050505050565b60035460ff16156106995760405162461bcd60e51b81526020600482015260066024820152651c185d5cd95960d21b6044820152606401610387565b6000546001600160a01b031633146106fd5760405162461bcd60e51b815260206004820152602160248201527f6f6e6c79206f66742063616e2063616c6c206f6e4f46545265636569766564286044820152602960f81b6064820152608401610387565b61ffff8716600090815260016020526040902054831461074e5760405162461bcd60e51b815260206004820152600c60248201526b696e76616c69642066726f6d60a01b6044820152606401610387565b602081015160001960ff8216016107bf576000828060200190518101906107759190611274565b9150600090506107858282610a39565b6001600160a01b0381166000908152600260205260408120805492935087929091906107b290849061131d565b909155506107fe92505050565b60405162461bcd60e51b8152602060048201526014602482015273696e76616c6964206465706f736974207479706560601b6044820152606401610387565b5050505050505050565b61085f33308360008054906101000a90046001600160a01b03166001600160a01b031663fc0c546a6040518163ffffffff1660e01b8152600401602060405180830381865afa1580156104f9573d6000803e3d6000fd5b336000908152600260205260408120805483929061087e90849061131d565b909155505060408051338152602081018390527fe1fffcc4923d04b559f4d29a8bfc6cda04eb5b0d3c460751c2402c5c5cc9109c910160405180910390a150565b336000908152600260205260409020548211156108db57600080fd5b33600090815260026020526040812080548492906108fa908490611330565b9250508190555061098b818360008054906101000a90046001600160a01b03166001600160a01b031663fc0c546a6040518163ffffffff1660e01b8152600401602060405180830381865afa158015610957573d6000803e3d6000fd5b505050506040513d601f19601f8201168201806040525081019061097b9190611199565b6001600160a01b03169190610aa4565b60408051338152602081018490527f7fcf532c15f0a6db0bd6d0e038bea71d30d808c7d98cb3bf7268a95bf5081b65910160405180910390a15050565b6040516001600160a01b0380851660248301528316604482015260648101829052610a339085906323b872dd60e01b906084015b60408051601f198184030181529190526020810180516001600160e01b03166001600160e01b031990931692909217909152610ad9565b50505050565b6000610a4682601461131d565b83511015610a8e5760405162461bcd60e51b8152602060048201526015602482015274746f416464726573735f6f75744f66426f756e647360581b6044820152606401610387565b5081810160200151600160601b90045b92915050565b6040516001600160a01b038316602482015260448101829052610ad490849063a9059cbb60e01b906064016109fc565b505050565b6000610b2e826040518060400160405280602081526020017f5361666545524332303a206c6f772d6c6576656c2063616c6c206661696c6564815250856001600160a01b0316610bae9092919063ffffffff16565b9050805160001480610b4f575080806020019051810190610b4f9190611343565b610ad45760405162461bcd60e51b815260206004820152602a60248201527f5361666545524332303a204552433230206f7065726174696f6e20646964206e6044820152691bdd081cdd58d8d9595960b21b6064820152608401610387565b6060610bbd8484600085610bc5565b949350505050565b606082471015610c265760405162461bcd60e51b815260206004820152602660248201527f416464726573733a20696e73756666696369656e742062616c616e636520666f6044820152651c8818d85b1b60d21b6064820152608401610387565b600080866001600160a01b03168587604051610c429190611360565b60006040518083038185875af1925050503d8060008114610c7f576040519150601f19603f3d011682016040523d82523d6000602084013e610c84565b606091505b5091509150610c9587838387610ca0565b979650505050505050565b60608315610d0f578251600003610d08576001600160a01b0385163b610d085760405162461bcd60e51b815260206004820152601d60248201527f416464726573733a2063616c6c20746f206e6f6e2d636f6e74726163740000006044820152606401610387565b5081610bbd565b610bbd8383815115610d245781518083602001fd5b8060405162461bcd60e51b8152600401610387919061137c565b801515811461032f57600080fd5b600060208284031215610d5e57600080fd5b8135610d6981610d3e565b9392505050565b6001600160a01b038116811461032f57600080fd5b600060208284031215610d9757600080fd5b8135610d6981610d70565b600060208284031215610db457600080fd5b5035919050565b803561ffff81168114610dcd57600080fd5b919050565b60008083601f840112610de457600080fd5b50813567ffffffffffffffff811115610dfc57600080fd5b602083019150836020828501011115610e1457600080fd5b9250929050565b60008060008060008060808789031215610e3457600080fd5b610e3d87610dbb565b9550602087013567ffffffffffffffff80821115610e5a57600080fd5b610e668a838b01610dd2565b9097509550604089013594506060890135915080821115610e8657600080fd5b50610e9389828a01610dd2565b979a9699509497509295939492505050565b634e487b7160e01b600052604160045260246000fd5b604051601f8201601f1916810167ffffffffffffffff81118282101715610ee457610ee4610ea5565b604052919050565b600067ffffffffffffffff821115610f0657610f06610ea5565b50601f01601f191660200190565b600080600080600080600060c0888a031215610f2f57600080fd5b610f3888610dbb565b9650602088013567ffffffffffffffff80821115610f5557600080fd5b610f618b838c01610dd2565b909850965060408a013591508082168214610f7b57600080fd5b909450606089013593506080890135925060a08901359080821115610f9f57600080fd5b508801601f81018a13610fb157600080fd5b8035610fc4610fbf82610eec565b610ebb565b8181528b6020838501011115610fd957600080fd5b8160208401602083013760006020838301015280935050505092959891949750929550565b6000806040838503121561101157600080fd5b61101a83610dbb565b946020939093013593505050565b6000806040838503121561103b57600080fd5b82359150602083013561104d81610d70565b809150509250929050565b60006020828403121561106a57600080fd5b610d6982610dbb565b81835281816020850137506000828201602090810191909152601f909101601f19169091010190565b60ff841681526040602082015260006110b9604083018486611073565b95945050505050565b60005b838110156110dd5781810151838201526020016110c5565b50506000910152565b600081518084526110fe8160208601602086016110c2565b601f01601f19169290920160200192915050565b61ffff8916815287602082015286604082015260e06060820152600061113b60e08301886110e6565b67ffffffffffffffff8716608084015285151560a084015282810360c0840152611166818587611073565b9b9a5050505050505050505050565b6000806040838503121561118857600080fd5b505080516020909101519092909150565b6000602082840312156111ab57600080fd5b8151610d6981610d70565b600060018060a01b03808a16835261ffff8916602084015287604084015286606084015260e060808401526111ee60e08401876110e6565b67ffffffffffffffff861660a085015283810360c0850152818551168152816020860151166020820152604085015191506060604082015261116660608201836110e6565b6001600160a01b038616815261ffff851660208201526080604082018190526000906112629083018587611073565b90508260608301529695505050505050565b6000806040838503121561128757600080fd5b825160ff8116811461129857600080fd5b602084015190925067ffffffffffffffff8111156112b557600080fd5b8301601f810185136112c657600080fd5b80516112d4610fbf82610eec565b8181528660208385010111156112e957600080fd5b6112fa8260208301602086016110c2565b8093505050509250929050565b634e487b7160e01b600052601160045260246000fd5b80820180821115610a9e57610a9e611307565b81810381811115610a9e57610a9e611307565b60006020828403121561135557600080fd5b8151610d6981610d3e565b600082516113728184602087016110c2565b9190910192915050565b602081526000610d6960208301846110e656fea26469706673582212209b25c4fc4f96cf8290368b3305095b9c5d37e5567a8341cdd065448131f90da264736f6c63430008160033",
    "linkReferences": {}
  },
  "methodIdentifiers": {
    "DST_GAS_FOR_CALL()": "acd4b827",
    "PT_DEPOSIT_TO_REMOTE_CHAIN()": "aadda7f6",
    "balances(address)": "27e235e3",
    "deposit(uint256)": "b6b55f25",
    "depositToDstChain(uint16,bytes,uint256,bytes)": "7242abf6",
    "oft()": "9b5215f6",
    "onOFTReceived(uint16,bytes,uint64,bytes32,uint256,bytes)": "7fcf35da",
    "paused()": "5c975abb",
    "quoteForDeposit(uint16,bytes,uint256,bytes)": "5485ab3c",
    "remoteStakingContracts(uint16)": "f2ab0e04",
    "setPaused(bool)": "16c38b3c",
    "setRemoteStakingContract(uint16,bytes32)": "9ae065f1",
    "withdraw(uint256)": "2e1a7d4d",
    "withdrawTo(uint256,address)": "c86283c8"
  },
  "id": 34
}