{
  "abi": [
    {
      "inputs": [
        {
          "internalType": "string",
          "name": "_name",
          "type": "string"
        },
        {
          "internalType": "string",
          "name": "_symbol",
          "type": "string"
        },
        {
          "internalType": "uint8",
          "name": "_sharedDecimals",
          "type": "uint8"
        },
        {
          "internalType": "address",
          "name": "_lzEndpoint",
          "type": "address"
        }
      ],
      "stateMutability": "nonpayable",
      "type": "constructor"
    },
    {
      "anonymous": false,
      "inputs": [
        {
          "indexed": true,
          "internalType": "address",
          "name": "owner",
          "type": "address"
        },
        {
          "indexed": true,
          "internalType": "address",
          "name": "spender",
          "type": "address"
        },
        {
          "indexed": false,
          "internalType": "uint256",
          "name": "value",
          "type": "uint256"
        }
      ],
      "name": "Approval",
      "type": "event"
    },
    {
      "anonymous": false,
      "inputs": [
        {
          "indexed": true,
          "internalType": "uint16",
          "name": "_srcChainId",
          "type": "uint16"
        },
        {
          "indexed": false,
          "internalType": "bytes",
          "name": "_srcAddress",
          "type": "bytes"
        },
        {
          "indexed": false,
          "internalType": "uint64",
          "name": "_nonce",
          "type": "uint64"
        },
        {
          "indexed": false,
          "internalType": "bytes32",
          "name": "_hash",
          "type": "bytes32"
        }
      ],
      "name": "CallOFTReceivedSuccess",
      "type": "event"
    },
    {
      "anonymous": false,
      "inputs": [
        {
          "indexed": false,
          "internalType": "uint16",
          "name": "_srcChainId",
          "type": "uint16"
        },
        {
          "indexed": false,
          "internalType": "bytes",
          "name": "_srcAddress",
          "type": "bytes"
        },
        {
          "indexed": false,
          "internalType": "uint64",
          "name": "_nonce",
          "type": "uint64"
        },
        {
          "indexed": false,
          "internalType": "bytes",
          "name": "_payload",
          "type": "bytes"
        },
        {
          "indexed": false,
          "internalType": "bytes",
          "name": "_reason",
          "type": "bytes"
        }
      ],
      "name": "MessageFailed",
      "type": "event"
    },
    {
      "anonymous": false,
      "inputs": [
        {
          "indexed": false,
          "internalType": "address",
          "name": "_address",
          "type": "address"
        }
      ],
      "name": "NonContractAddress",
      "type": "event"
    },
    {
      "anonymous": false,
      "inputs": [
        {
          "indexed": true,
          "internalType": "address",
          "name": "previousOwner",
          "type": "address"
        },
        {
          "indexed": true,
          "internalType": "address",
          "name": "newOwner",
          "type": "address"
        }
      ],
      "name": "OwnershipTransferred",
      "type": "event"
    },
    {
      "anonymous": false,
      "inputs": [
        {
          "indexed": true,
          "internalType": "uint16",
          "name": "_srcChainId",
          "type": "uint16"
        },
        {
          "indexed": true,
          "internalType": "address",
          "name": "_to",
          "type": "address"
        },
        {
          "indexed": false,
          "internalType": "uint256",
          "name": "_amount",
          "type": "uint256"
        }
      ],
      "name": "ReceiveFromChain",
      "type": "event"
    },
    {
      "anonymous": false,
      "inputs": [
        {
          "indexed": false,
          "internalType": "uint16",
          "name": "_srcChainId",
          "type": "uint16"
        },
        {
          "indexed": false,
          "internalType": "bytes",
          "name": "_srcAddress",
          "type": "bytes"
        },
        {
          "indexed": false,
          "internalType": "uint64",
          "name": "_nonce",
          "type": "uint64"
        },
        {
          "indexed": false,
          "internalType": "bytes32",
          "name": "_payloadHash",
          "type": "bytes32"
        }
      ],
      "name": "RetryMessageSuccess",
      "type": "event"
    },
    {
      "anonymous": false,
      "inputs": [
        {
          "indexed": true,
          "internalType": "uint16",
          "name": "_dstChainId",
          "type": "uint16"
        },
        {
          "indexed": true,
          "internalType": "address",
          "name": "_from",
          "type": "address"
        },
        {
          "indexed": true,
          "internalType": "bytes32",
          "name": "_toAddress",
          "type": "bytes32"
        },
        {
          "indexed": false,
          "internalType": "uint256",
          "name": "_amount",
          "type": "uint256"
        }
      ],
      "name": "SendToChain",
      "type": "event"
    },
    {
      "anonymous": false,
      "inputs": [
        {
          "indexed": false,
          "internalType": "uint16",
          "name": "feeBp",
          "type": "uint16"
        }
      ],
      "name": "SetDefaultFeeBp",
      "type": "event"
    },
    {
      "anonymous": false,
      "inputs": [
        {
          "indexed": false,
          "internalType": "uint16",
          "name": "dstchainId",
          "type": "uint16"
        },
        {
          "indexed": false,
          "internalType": "bool",
          "name": "enabled",
          "type": "bool"
        },
        {
          "indexed": false,
          "internalType": "uint16",
          "name": "feeBp",
          "type": "uint16"
        }
      ],
      "name": "SetFeeBp",
      "type": "event"
    },
    {
      "anonymous": false,
      "inputs": [
        {
          "indexed": false,
          "internalType": "address",
          "name": "feeOwner",
          "type": "address"
        }
      ],
      "name": "SetFeeOwner",
      "type": "event"
    },
    {
      "anonymous": false,
      "inputs": [
        {
          "indexed": false,
          "internalType": "uint16",
          "name": "_dstChainId",
          "type": "uint16"
        },
        {
          "indexed": false,
          "internalType": "uint16",
          "name": "_type",
          "type": "uint16"
        },
        {
          "indexed": false,
          "internalType": "uint256",
          "name": "_minDstGas",
          "type": "uint256"
        }
      ],
      "name": "SetMinDstGas",
      "type": "event"
    },
    {
      "anonymous": false,
      "inputs": [
        {
          "indexed": false,
          "internalType": "address",
          "name": "precrime",
          "type": "address"
        }
      ],
      "name": "SetPrecrime",
      "type": "event"
    },
    {
      "anonymous": false,
      "inputs": [
        {
          "indexed": false,
          "internalType": "uint16",
          "name": "_remoteChainId",
          "type": "uint16"
        },
        {
          "indexed": false,
          "internalType": "bytes",
          "name": "_path",
          "type": "bytes"
        }
      ],
      "name": "SetTrustedRemote",
      "type": "event"
    },
    {
      "anonymous": false,
      "inputs": [
        {
          "indexed": false,
          "internalType": "uint16",
          "name": "_remoteChainId",
          "type": "uint16"
        },
        {
          "indexed": false,
          "internalType": "bytes",
          "name": "_remoteAddress",
          "type": "bytes"
        }
      ],
      "name": "SetTrustedRemoteAddress",
      "type": "event"
    },
    {
      "anonymous": false,
      "inputs": [
        {
          "indexed": true,
          "internalType": "address",
          "name": "from",
          "type": "address"
        },
        {
          "indexed": true,
          "internalType": "address",
          "name": "to",
          "type": "address"
        },
        {
          "indexed": false,
          "internalType": "uint256",
          "name": "value",
          "type": "uint256"
        }
      ],
      "name": "Transfer",
      "type": "event"
    },
    {
      "inputs": [],
      "name": "BP_DENOMINATOR",
      "outputs": [
        {
          "internalType": "uint256",
          "name": "",
          "type": "uint256"
        }
      ],
      "stateMutability": "view",
      "type": "function"
    },
    {
      "inputs": [],
      "name": "DEFAULT_PAYLOAD_SIZE_LIMIT",
      "outputs": [
        {
          "internalType": "uint256",
          "name": "",
          "type": "uint256"
        }
      ],
      "stateMutability": "view",
      "type": "function"
    },
    {
      "inputs": [],
      "name": "NO_EXTRA_GAS",
      "outputs": [
        {
          "internalType": "uint256",
          "name": "",
          "type": "uint256"
        }
      ],
      "stateMutability": "view",
      "type": "function"
    },
    {
      "inputs": [],
      "name": "PT_SEND",
      "outputs": [
        {
          "internalType": "uint8",
          "name": "",
          "type": "uint8"
        }
      ],
      "stateMutability": "view",
      "type": "function"
    },
    {
      "inputs": [],
      "name": "PT_SEND_AND_CALL",
      "outputs": [
        {
          "internalType": "uint8",
          "name": "",
          "type": "uint8"
        }
      ],
      "stateMutability": "view",
      "type": "function"
    },
    {
      "inputs": [
        {
          "internalType": "address",
          "name": "owner",
          "type": "address"
        },
        {
          "internalType": "address",
          "name": "spender",
          "type": "address"
        }
      ],
      "name": "allowance",
      "outputs": [
        {
          "internalType": "uint256",
          "name": "",
          "type": "uint256"
        }
      ],
      "stateMutability": "view",
      "type": "function"
    },
    {
      "inputs": [
        {
          "internalType": "address",
          "name": "spender",
          "type": "address"
        },
        {
          "internalType": "uint256",
          "name": "amount",
          "type": "uint256"
        }
      ],
      "name": "approve",
      "outputs": [
        {
          "internalType": "bool",
          "name": "",
          "type": "bool"
        }
      ],
      "stateMutability": "nonpayable",
      "type": "function"
    },
    {
      "inputs": [
        {
          "internalType": "address",
          "name": "account",
          "type": "address"
        }
      ],
      "name": "balanceOf",
      "outputs": [
        {
          "internalType": "uint256",
          "name": "",
          "type": "uint256"
        }
      ],
      "stateMutability": "view",
      "type": "function"
    },
    {
      "inputs": [
        {
          "internalType": "uint16",
          "name": "_srcChainId",
          "type": "uint16"
        },
        {
          "internalType": "bytes",
          "name": "_srcAddress",
          "type": "bytes"
        },
        {
          "internalType": "uint64",
          "name": "_nonce",
          "type": "uint64"
        },
        {
          "internalType": "bytes32",
          "name": "_from",
          "type": "bytes32"
        },
        {
          "internalType": "address",
          "name": "_to",
          "type": "address"
        },
        {
          "internalType": "uint256",
          "name": "_amount",
          "type": "uint256"
        },
        {
          "internalType": "bytes",
          "name": "_payload",
          "type": "bytes"
        },
        {
          "internalType": "uint256",
          "name": "_gasForCall",
          "type": "uint256"
        }
      ],
      "name": "callOnOFTReceived",
      "outputs": [],
      "stateMutability": "nonpayable",
      "type": "function"
    },
    {
      "inputs": [
        {
          "internalType": "uint16",
          "name": "",
          "type": "uint16"
        }
      ],
      "name": "chainIdToFeeBps",
      "outputs": [
        {
          "internalType": "uint16",
          "name": "feeBP",
          "type": "uint16"
        },
        {
          "internalType": "bool",
          "name": "enabled",
          "type": "bool"
        }
      ],
      "stateMutability": "view",
      "type": "function"
    },
    {
      "inputs": [],
      "name": "circulatingSupply",
      "outputs": [
        {
          "internalType": "uint256",
          "name": "",
          "type": "uint256"
        }
      ],
      "stateMutability": "view",
      "type": "function"
    },
    {
      "inputs": [
        {
          "internalType": "uint16",
          "name": "",
          "type": "uint16"
        },
        {
          "internalType": "bytes",
          "name": "",
          "type": "bytes"
        },
        {
          "internalType": "uint64",
          "name": "",
          "type": "uint64"
        }
      ],
      "name": "creditedPackets",
      "outputs": [
        {
          "internalType": "bool",
          "name": "",
          "type": "bool"
        }
      ],
      "stateMutability": "view",
      "type": "function"
    },
    {
      "inputs": [],
      "name": "decimals",
      "outputs": [
        {
          "internalType": "uint8",
          "name": "",
          "type": "uint8"
        }
      ],
      "stateMutability": "view",
      "type": "function"
    },
    {
      "inputs": [
        {
          "internalType": "address",
          "name": "spender",
          "type": "address"
        },
        {
          "internalType": "uint256",
          "name": "subtractedValue",
          "type": "uint256"
        }
      ],
      "name": "decreaseAllowance",
      "outputs": [
        {
          "internalType": "bool",
          "name": "",
          "type": "bool"
        }
      ],
      "stateMutability": "nonpayable",
      "type": "function"
    },
    {
      "inputs": [],
      "name": "defaultFeeBp",
      "outputs": [
        {
          "internalType": "uint16",
          "name": "",
          "type": "uint16"
        }
      ],
      "stateMutability": "view",
      "type": "function"
    },
    {
      "inputs": [
        {
          "internalType": "uint16",
          "name": "_dstChainId",
          "type": "uint16"
        },
        {
          "internalType": "bytes32",
          "name": "_toAddress",
          "type": "bytes32"
        },
        {
          "internalType": "uint256",
          "name": "_amount",
          "type": "uint256"
        },
        {
          "internalType": "bytes",
          "name": "_payload",
          "type": "bytes"
        },
        {
          "internalType": "uint64",
          "name": "_dstGasForCall",
          "type": "uint64"
        },
        {
          "internalType": "bool",
          "name": "_useZro",
          "type": "bool"
        },
        {
          "internalType": "bytes",
          "name": "_adapterParams",
          "type": "bytes"
        }
      ],
      "name": "estimateSendAndCallFee",
      "outputs": [
        {
          "internalType": "uint256",
          "name": "nativeFee",
          "type": "uint256"
        },
        {
          "internalType": "uint256",
          "name": "zroFee",
          "type": "uint256"
        }
      ],
      "stateMutability": "view",
      "type": "function"
    },
    {
      "inputs": [
        {
          "internalType": "uint16",
          "name": "_dstChainId",
          "type": "uint16"
        },
        {
          "internalType": "bytes32",
          "name": "_toAddress",
          "type": "bytes32"
        },
        {
          "internalType": "uint256",
          "name": "_amount",
          "type": "uint256"
        },
        {
          "internalType": "bool",
          "name": "_useZro",
          "type": "bool"
        },
        {
          "internalType": "bytes",
          "name": "_adapterParams",
          "type": "bytes"
        }
      ],
      "name": "estimateSendFee",
      "outputs": [
        {
          "internalType": "uint256",
          "name": "nativeFee",
          "type": "uint256"
        },
        {
          "internalType": "uint256",
          "name": "zroFee",
          "type": "uint256"
        }
      ],
      "stateMutability": "view",
      "type": "function"
    },
    {
      "inputs": [
        {
          "internalType": "uint16",
          "name": "",
          "type": "uint16"
        },
        {
          "internalType": "bytes",
          "name": "",
          "type": "bytes"
        },
        {
          "internalType": "uint64",
          "name": "",
          "type": "uint64"
        }
      ],
      "name": "failedMessages",
      "outputs": [
        {
          "internalType": "bytes32",
          "name": "",
          "type": "bytes32"
        }
      ],
      "stateMutability": "view",
      "type": "function"
    },
    {
      "inputs": [],
      "name": "feeOwner",
      "outputs": [
        {
          "internalType": "address",
          "name": "",
          "type": "address"
        }
      ],
      "stateMutability": "view",
      "type": "function"
    },
    {
      "inputs": [
        {
          "internalType": "uint16",
          "name": "_srcChainId",
          "type": "uint16"
        },
        {
          "internalType": "bytes",
          "name": "_srcAddress",
          "type": "bytes"
        }
      ],
      "name": "forceResumeReceive",
      "outputs": [],
      "stateMutability": "nonpayable",
      "type": "function"
    },
    {
      "inputs": [
        {
          "internalType": "uint16",
          "name": "_version",
          "type": "uint16"
        },
        {
          "internalType": "uint16",
          "name": "_chainId",
          "type": "uint16"
        },
        {
          "internalType": "address",
          "name": "",
          "type": "address"
        },
        {
          "internalType": "uint256",
          "name": "_configType",
          "type": "uint256"
        }
      ],
      "name": "getConfig",
      "outputs": [
        {
          "internalType": "bytes",
          "name": "",
          "type": "bytes"
        }
      ],
      "stateMutability": "view",
      "type": "function"
    },
    {
      "inputs": [
        {
          "internalType": "uint16",
          "name": "_remoteChainId",
          "type": "uint16"
        }
      ],
      "name": "getTrustedRemoteAddress",
      "outputs": [
        {
          "internalType": "bytes",
          "name": "",
          "type": "bytes"
        }
      ],
      "stateMutability": "view",
      "type": "function"
    },
    {
      "inputs": [
        {
          "internalType": "address",
          "name": "spender",
          "type": "address"
        },
        {
          "internalType": "uint256",
          "name": "addedValue",
          "type": "uint256"
        }
      ],
      "name": "increaseAllowance",
      "outputs": [
        {
          "internalType": "bool",
          "name": "",
          "type": "bool"
        }
      ],
      "stateMutability": "nonpayable",
      "type": "function"
    },
    {
      "inputs": [
        {
          "internalType": "uint16",
          "name": "_srcChainId",
          "type": "uint16"
        },
        {
          "internalType": "bytes",
          "name": "_srcAddress",
          "type": "bytes"
        }
      ],
      "name": "isTrustedRemote",
      "outputs": [
        {
          "internalType": "bool",
          "name": "",
          "type": "bool"
        }
      ],
      "stateMutability": "view",
      "type": "function"
    },
    {
      "inputs": [],
      "name": "lzEndpoint",
      "outputs": [
        {
          "internalType": "contract ILayerZeroEndpoint",
          "name": "",
          "type": "address"
        }
      ],
      "stateMutability": "view",
      "type": "function"
    },
    {
      "inputs": [
        {
          "internalType": "uint16",
          "name": "_srcChainId",
          "type": "uint16"
        },
        {
          "internalType": "bytes",
          "name": "_srcAddress",
          "type": "bytes"
        },
        {
          "internalType": "uint64",
          "name": "_nonce",
          "type": "uint64"
        },
        {
          "internalType": "bytes",
          "name": "_payload",
          "type": "bytes"
        }
      ],
      "name": "lzReceive",
      "outputs": [],
      "stateMutability": "nonpayable",
      "type": "function"
    },
    {
      "inputs": [
        {
          "internalType": "uint16",
          "name": "",
          "type": "uint16"
        },
        {
          "internalType": "uint16",
          "name": "",
          "type": "uint16"
        }
      ],
      "name": "minDstGasLookup",
      "outputs": [
        {
          "internalType": "uint256",
          "name": "",
          "type": "uint256"
        }
      ],
      "stateMutability": "view",
      "type": "function"
    },
    {
      "inputs": [],
      "name": "name",
      "outputs": [
        {
          "internalType": "string",
          "name": "",
          "type": "string"
        }
      ],
      "stateMutability": "view",
      "type": "function"
    },
    {
      "inputs": [
        {
          "internalType": "uint16",
          "name": "_srcChainId",
          "type": "uint16"
        },
        {
          "internalType": "bytes",
          "name": "_srcAddress",
          "type": "bytes"
        },
        {
          "internalType": "uint64",
          "name": "_nonce",
          "type": "uint64"
        },
        {
          "internalType": "bytes",
          "name": "_payload",
          "type": "bytes"
        }
      ],
      "name": "nonblockingLzReceive",
      "outputs": [],
      "stateMutability": "nonpayable",
      "type": "function"
    },
    {
      "inputs": [],
      "name": "owner",
      "outputs": [
        {
          "internalType": "address",
          "name": "",
          "type": "address"
        }
      ],
      "stateMutability": "view",
      "type": "function"
    },
    {
      "inputs": [
        {
          "internalType": "uint16",
          "name": "",
          "type": "uint16"
        }
      ],
      "name": "payloadSizeLimitLookup",
      "outputs": [
        {
          "internalType": "uint256",
          "name": "",
          "type": "uint256"
        }
      ],
      "stateMutability": "view",
      "type": "function"
    },
    {
      "inputs": [],
      "name": "precrime",
      "outputs": [
        {
          "internalType": "address",
          "name": "",
          "type": "address"
        }
      ],
      "stateMutability": "view",
      "type": "function"
    },
    {
      "inputs": [
        {
          "internalType": "uint16",
          "name": "_dstChainId",
          "type": "uint16"
        },
        {
          "internalType": "uint256",
          "name": "_amount",
          "type": "uint256"
        }
      ],
      "name": "quoteOFTFee",
      "outputs": [
        {
          "internalType": "uint256",
          "name": "fee",
          "type": "uint256"
        }
      ],
      "stateMutability": "view",
      "type": "function"
    },
    {
      "inputs": [],
      "name": "renounceOwnership",
      "outputs": [],
      "stateMutability": "nonpayable",
      "type": "function"
    },
    {
      "inputs": [
        {
          "internalType": "uint16",
          "name": "_srcChainId",
          "type": "uint16"
        },
        {
          "internalType": "bytes",
          "name": "_srcAddress",
          "type": "bytes"
        },
        {
          "internalType": "uint64",
          "name": "_nonce",
          "type": "uint64"
        },
        {
          "internalType": "bytes",
          "name": "_payload",
          "type": "bytes"
        }
      ],
      "name": "retryMessage",
      "outputs": [],
      "stateMutability": "payable",
      "type": "function"
    },
    {
      "inputs": [
        {
          "internalType": "address",
          "name": "_from",
          "type": "address"
        },
        {
          "internalType": "uint16",
          "name": "_dstChainId",
          "type": "uint16"
        },
        {
          "internalType": "bytes32",
          "name": "_toAddress",
          "type": "bytes32"
        },
        {
          "internalType": "uint256",
          "name": "_amount",
          "type": "uint256"
        },
        {
          "internalType": "uint256",
          "name": "_minAmount",
          "type": "uint256"
        },
        {
          "internalType": "bytes",
          "name": "_payload",
          "type": "bytes"
        },
        {
          "internalType": "uint64",
          "name": "_dstGasForCall",
          "type": "uint64"
        },
        {
          "components": [
            {
              "internalType": "address payable",
              "name": "refundAddress",
              "type": "address"
            },
            {
              "internalType": "address",
              "name": "zroPaymentAddress",
              "type": "address"
            },
            {
              "internalType": "bytes",
              "name": "adapterParams",
              "type": "bytes"
            }
          ],
          "internalType": "struct ICommonOFT.LzCallParams",
          "name": "_callParams",
          "type": "tuple"
        }
      ],
      "name": "sendAndCall",
      "outputs": [],
      "stateMutability": "payable",
      "type": "function"
    },
    {
      "inputs": [
        {
          "internalType": "address",
          "name": "_from",
          "type": "address"
        },
        {
          "internalType": "uint16",
          "name": "_dstChainId",
          "type": "uint16"
        },
        {
          "internalType": "bytes32",
          "name": "_toAddress",
          "type": "bytes32"
        },
        {
          "internalType": "uint256",
          "name": "_amount",
          "type": "uint256"
        },
        {
          "internalType": "uint256",
          "name": "_minAmount",
          "type": "uint256"
        },
        {
          "components": [
            {
              "internalType": "address payable",
              "name": "refundAddress",
              "type": "address"
            },
            {
              "internalType": "address",
              "name": "zroPaymentAddress",
              "type": "address"
            },
            {
              "internalType": "bytes",
              "name": "adapterParams",
              "type": "bytes"
            }
          ],
          "internalType": "struct ICommonOFT.LzCallParams",
          "name": "_callParams",
          "type": "tuple"
        }
      ],
      "name": "sendFrom",
      "outputs": [],
      "stateMutability": "payable",
      "type": "function"
    },
    {
      "inputs": [
        {
          "internalType": "uint16",
          "name": "_version",
          "type": "uint16"
        },
        {
          "internalType": "uint16",
          "name": "_chainId",
          "type": "uint16"
        },
        {
          "internalType": "uint256",
          "name": "_configType",
          "type": "uint256"
        },
        {
          "internalType": "bytes",
          "name": "_config",
          "type": "bytes"
        }
      ],
      "name": "setConfig",
      "outputs": [],
      "stateMutability": "nonpayable",
      "type": "function"
    },
    {
      "inputs": [
        {
          "internalType": "uint16",
          "name": "_feeBp",
          "type": "uint16"
        }
      ],
      "name": "setDefaultFeeBp",
      "outputs": [],
      "stateMutability": "nonpayable",
      "type": "function"
    },
    {
      "inputs": [
        {
          "internalType": "uint16",
          "name": "_dstChainId",
          "type": "uint16"
        },
        {
          "internalType": "bool",
          "name": "_enabled",
          "type": "bool"
        },
        {
          "internalType": "uint16",
          "name": "_feeBp",
          "type": "uint16"
        }
      ],
      "name": "setFeeBp",
      "outputs": [],
      "stateMutability": "nonpayable",
      "type": "function"
    },
    {
      "inputs": [
        {
          "internalType": "address",
          "name": "_feeOwner",
          "type": "address"
        }
      ],
      "name": "setFeeOwner",
      "outputs": [],
      "stateMutability": "nonpayable",
      "type": "function"
    },
    {
      "inputs": [
        {
          "internalType": "uint16",
          "name": "_dstChainId",
          "type": "uint16"
        },
        {
          "internalType": "uint16",
          "name": "_packetType",
          "type": "uint16"
        },
        {
          "internalType": "uint256",
          "name": "_minGas",
          "type": "uint256"
        }
      ],
      "name": "setMinDstGas",
      "outputs": [],
      "stateMutability": "nonpayable",
      "type": "function"
    },
    {
      "inputs": [
        {
          "internalType": "uint16",
          "name": "_dstChainId",
          "type": "uint16"
        },
        {
          "internalType": "uint256",
          "name": "_size",
          "type": "uint256"
        }
      ],
      "name": "setPayloadSizeLimit",
      "outputs": [],
      "stateMutability": "nonpayable",
      "type": "function"
    },
    {
      "inputs": [
        {
          "internalType": "address",
          "name": "_precrime",
          "type": "address"
        }
      ],
      "name": "setPrecrime",
      "outputs": [],
      "stateMutability": "nonpayable",
      "type": "function"
    },
    {
      "inputs": [
        {
          "internalType": "uint16",
          "name": "_version",
          "type": "uint16"
        }
      ],
      "name": "setReceiveVersion",
      "outputs": [],
      "stateMutability": "nonpayable",
      "type": "function"
    },
    {
      "inputs": [
        {
          "internalType": "uint16",
          "name": "_version",
          "type": "uint16"
        }
      ],
      "name": "setSendVersion",
      "outputs": [],
      "stateMutability": "nonpayable",
      "type": "function"
    },
    {
      "inputs": [
        {
          "internalType": "uint16",
          "name": "_remoteChainId",
          "type": "uint16"
        },
        {
          "internalType": "bytes",
          "name": "_path",
          "type": "bytes"
        }
      ],
      "name": "setTrustedRemote",
      "outputs": [],
      "stateMutability": "nonpayable",
      "type": "function"
    },
    {
      "inputs": [
        {
          "internalType": "uint16",
          "name": "_remoteChainId",
          "type": "uint16"
        },
        {
          "internalType": "bytes",
          "name": "_remoteAddress",
          "type": "bytes"
        }
      ],
      "name": "setTrustedRemoteAddress",
      "outputs": [],
      "stateMutability": "nonpayable",
      "type": "function"
    },
    {
      "inputs": [],
      "name": "sharedDecimals",
      "outputs": [
        {
          "internalType": "uint8",
          "name": "",
          "type": "uint8"
        }
      ],
      "stateMutability": "view",
      "type": "function"
    },
    {
      "inputs": [
        {
          "internalType": "bytes4",
          "name": "interfaceId",
          "type": "bytes4"
        }
      ],
      "name": "supportsInterface",
      "outputs": [
        {
          "internalType": "bool",
          "name": "",
          "type": "bool"
        }
      ],
      "stateMutability": "view",
      "type": "function"
    },
    {
      "inputs": [],
      "name": "symbol",
      "outputs": [
        {
          "internalType": "string",
          "name": "",
          "type": "string"
        }
      ],
      "stateMutability": "view",
      "type": "function"
    },
    {
      "inputs": [],
      "name": "token",
      "outputs": [
        {
          "internalType": "address",
          "name": "",
          "type": "address"
        }
      ],
      "stateMutability": "view",
      "type": "function"
    },
    {
      "inputs": [],
      "name": "totalSupply",
      "outputs": [
        {
          "internalType": "uint256",
          "name": "",
          "type": "uint256"
        }
      ],
      "stateMutability": "view",
      "type": "function"
    },
    {
      "inputs": [
        {
          "internalType": "address",
          "name": "to",
          "type": "address"
        },
        {
          "internalType": "uint256",
          "name": "amount",
          "type": "uint256"
        }
      ],
      "name": "transfer",
      "outputs": [
        {
          "internalType": "bool",
          "name": "",
          "type": "bool"
        }
      ],
      "stateMutability": "nonpayable",
      "type": "function"
    },
    {
      "inputs": [
        {
          "internalType": "address",
          "name": "from",
          "type": "address"
        },
        {
          "internalType": "address",
          "name": "to",
          "type": "address"
        },
        {
          "internalType": "uint256",
          "name": "amount",
          "type": "uint256"
        }
      ],
      "name": "transferFrom",
      "outputs": [
        {
          "internalType": "bool",
          "name": "",
          "type": "bool"
        }
      ],
      "stateMutability": "nonpayable",
      "type": "function"
    },
    {
      "inputs": [
        {
          "internalType": "address",
          "name": "newOwner",
          "type": "address"
        }
      ],
      "name": "transferOwnership",
      "outputs": [],
      "stateMutability": "nonpayable",
      "type": "function"
    },
    {
      "inputs": [
        {
          "internalType": "uint16",
          "name": "",
          "type": "uint16"
        }
      ],
      "name": "trustedRemoteLookup",
      "outputs": [
        {
          "internalType": "bytes",
          "name": "",
          "type": "bytes"
        }
      ],
      "stateMutability": "view",
      "type": "function"
    }
  ],
  "bytecode": {
    "object": "0x60e06040523480156200001157600080fd5b5060405162004e0538038062004e05833981016040819052620000349162000285565b8383838381818080620000473362000168565b6001600160a01b0316608052505060ff1660a0526200006e6000546001600160a01b031690565b600880546001600160a01b0392909216620100000262010000600160b01b031990921691909117905550600c9050620000a88382620003ba565b50600d620000b78282620003ba565b5050506000620000cc620001b860201b60201c565b90508060ff168360ff161115620001405760405162461bcd60e51b815260206004820152602e60248201527f4f4654576974684665653a20736861726564446563696d616c73206d7573742060448201526d6265203c3d20646563696d616c7360901b606482015260840160405180910390fd5b6200014c83826200049c565b6200015990600a620005bb565b60c05250620005d39350505050565b600080546001600160a01b038381166001600160a01b0319831681178455604051919092169283917f8be0079c531659141344cd1fd0a4f28419497f9722a3daafe3b4186f6b6457e09190a35050565b601290565b634e487b7160e01b600052604160045260246000fd5b600082601f830112620001e557600080fd5b81516001600160401b0380821115620002025762000202620001bd565b604051601f8301601f19908116603f011681019082821181831017156200022d576200022d620001bd565b81604052838152602092508660208588010111156200024b57600080fd5b600091505b838210156200026f578582018301518183018401529082019062000250565b6000602085830101528094505050505092915050565b600080600080608085870312156200029c57600080fd5b84516001600160401b0380821115620002b457600080fd5b620002c288838901620001d3565b95506020870151915080821115620002d957600080fd5b50620002e887828801620001d3565b935050604085015160ff811681146200030057600080fd5b60608601519092506001600160a01b03811681146200031e57600080fd5b939692955090935050565b600181811c908216806200033e57607f821691505b6020821081036200035f57634e487b7160e01b600052602260045260246000fd5b50919050565b601f821115620003b5576000816000526020600020601f850160051c81016020861015620003905750805b601f850160051c820191505b81811015620003b1578281556001016200039c565b5050505b505050565b81516001600160401b03811115620003d657620003d6620001bd565b620003ee81620003e7845462000329565b8462000365565b602080601f8311600181146200042657600084156200040d5750858301515b600019600386901b1c1916600185901b178555620003b1565b600085815260208120601f198616915b82811015620004575788860151825594840194600190910190840162000436565b5085821015620004765787850151600019600388901b60f8161c191681555b5050505050600190811b01905550565b634e487b7160e01b600052601160045260246000fd5b60ff8281168282160390811115620004b857620004b862000486565b92915050565b600181815b80851115620004ff578160001904821115620004e357620004e362000486565b80851615620004f157918102915b93841c9390800290620004c3565b509250929050565b6000826200051857506001620004b8565b816200052757506000620004b8565b81600181146200054057600281146200054b576200056b565b6001915050620004b8565b60ff8411156200055f576200055f62000486565b50506001821b620004b8565b5060208310610133831016604e8410600b841016171562000590575081810a620004b8565b6200059c8383620004be565b8060001904821115620005b357620005b362000486565b029392505050565b6000620005cc60ff84168362000507565b9392505050565b60805160a05160c0516147b56200065060003960008181612bf901528181612c6b01526134560152600061073201526000818161092201528181610b4c01528181610e6401528181610f24015281816111840152818161197701528181611f4201528181612577015281816129100152612e1201526147b56000f3fe6080604052600436106103755760003560e01c80638cfd8f5c116101d1578063baf3292d11610102578063df2a5b3b116100a0578063ecd8f2121161006f578063ecd8f21214610ad6578063f2fde38b14610af6578063f5ecbdbc14610b16578063fc0c546a14610b3657600080fd5b8063df2a5b3b14610a61578063e6a20ae614610a81578063eaffd49a14610a96578063eb8d72b714610ab657600080fd5b8063cbed8b9c116100dc578063cbed8b9c146109e0578063d1deba1f14610a00578063d888296814610a13578063dd62ed3e14610a4157600080fd5b8063baf3292d1461096a578063c4461834146108fa578063c83330ce1461098a57600080fd5b8063a457c2d71161016f578063a9059cbb11610149578063a9059cbb146108da578063abe685cd146108fa578063b353aaa714610910578063b9818be11461094457600080fd5b8063a457c2d71461087a578063a4c51df51461089a578063a6c3d165146108ba57600080fd5b8063950c8a74116101ab578063950c8a74146107d357806395d89b41146107f35780639bdb9812146108085780639f38369a1461085a57600080fd5b80638cfd8f5c146107545780638da5cb5b1461078c5780639358928b146107be57600080fd5b80633f1f4fa4116102ab5780635b8c41e611610249578063715018a611610223578063715018a6146106cb5780637533d788146106e057806379c0ad4b14610700578063857749b01461072057600080fd5b80635b8c41e61461062657806366ad5c8a1461067557806370a082311461069557600080fd5b8063455ba27d11610285578063455ba27d146105be5780634b104eff146105d15780634c42899a146105f15780635a359dc51461060657600080fd5b80633f1f4fa41461055c57806342d65a8d1461058957806344770515146105a957600080fd5b806318160ddd11610318578063313ce567116102f2578063313ce567146104c5578063365260b4146104e7578063395093511461051c5780633d8b38f61461053c57600080fd5b806318160ddd1461047357806323b872dd146104925780632cdf0b95146104b257600080fd5b806307e0db171161035457806307e0db17146103f3578063095ea7b3146104135780630df374831461043357806310ddb1371461045357600080fd5b80621d35671461037a57806301ffc9a71461039c57806306fdde03146103d1575b600080fd5b34801561038657600080fd5b5061039a61039536600461379e565b610b49565b005b3480156103a857600080fd5b506103bc6103b7366004613831565b610d7a565b60405190151581526020015b60405180910390f35b3480156103dd57600080fd5b506103e6610db1565b6040516103c891906138ab565b3480156103ff57600080fd5b5061039a61040e3660046138be565b610e43565b34801561041f57600080fd5b506103bc61042e3660046138ee565b610ecc565b34801561043f57600080fd5b5061039a61044e36600461391a565b610ee4565b34801561045f57600080fd5b5061039a61046e3660046138be565b610f03565b34801561047f57600080fd5b50600b545b6040519081526020016103c8565b34801561049e57600080fd5b506103bc6104ad366004613936565b610f5b565b61039a6104c036600461398f565b610f7f565b3480156104d157600080fd5b5060125b60405160ff90911681526020016103c8565b3480156104f357600080fd5b50610507610502366004613a1a565b611022565b604080519283526020830191909152016103c8565b34801561052857600080fd5b506103bc6105373660046138ee565b611077565b34801561054857600080fd5b506103bc610557366004613a7f565b611099565b34801561056857600080fd5b506104846105773660046138be565b60036020526000908152604090205481565b34801561059557600080fd5b5061039a6105a4366004613a7f565b611165565b3480156105b557600080fd5b50610484600081565b61039a6105cc366004613ad1565b6111eb565b3480156105dd57600080fd5b5061039a6105ec366004613b8d565b6112cc565b3480156105fd57600080fd5b506104d5600081565b34801561061257600080fd5b5061039a6106213660046138be565b611389565b34801561063257600080fd5b50610484610641366004613c17565b6005602090815260009384526040808520845180860184018051928152908401958401959095209452929052825290205481565b34801561068157600080fd5b5061039a61069036600461379e565b6113fb565b3480156106a157600080fd5b506104846106b0366004613b8d565b6001600160a01b031660009081526009602052604090205490565b3480156106d757600080fd5b5061039a6114cf565b3480156106ec57600080fd5b506103e66106fb3660046138be565b6114e3565b34801561070c57600080fd5b5061039a61071b366004613cb7565b61157d565b34801561072c57600080fd5b506104d57f000000000000000000000000000000000000000000000000000000000000000081565b34801561076057600080fd5b5061048461076f366004613cf1565b600260209081526000928352604080842090915290825290205481565b34801561079857600080fd5b506000546001600160a01b03165b6040516001600160a01b0390911681526020016103c8565b3480156107ca57600080fd5b50610484611639565b3480156107df57600080fd5b506004546107a6906001600160a01b031681565b3480156107ff57600080fd5b506103e6611649565b34801561081457600080fd5b506103bc610823366004613c17565b6006602090815260009384526040808520845180860184018051928152908401958401959095209452929052825290205460ff1681565b34801561086657600080fd5b506103e66108753660046138be565b611658565b34801561088657600080fd5b506103bc6108953660046138ee565b61176e565b3480156108a657600080fd5b506105076108b5366004613d24565b6117e9565b3480156108c657600080fd5b5061039a6108d5366004613a7f565b611878565b3480156108e657600080fd5b506103bc6108f53660046138ee565b6118f4565b34801561090657600080fd5b5061048461271081565b34801561091c57600080fd5b506107a67f000000000000000000000000000000000000000000000000000000000000000081565b34801561095057600080fd5b506008546107a6906201000090046001600160a01b031681565b34801561097657600080fd5b5061039a610985366004613b8d565b611902565b34801561099657600080fd5b506109c66109a53660046138be565b60076020526000908152604090205461ffff81169062010000900460ff1682565b6040805161ffff90931683529015156020830152016103c8565b3480156109ec57600080fd5b5061039a6109fb366004613ddd565b611958565b61039a610a0e36600461379e565b6119e2565b348015610a1f57600080fd5b50600854610a2e9061ffff1681565b60405161ffff90911681526020016103c8565b348015610a4d57600080fd5b50610484610a5c366004613e4b565b611bf8565b348015610a6d57600080fd5b5061039a610a7c366004613e84565b611c23565b348015610a8d57600080fd5b506104d5600181565b348015610aa257600080fd5b5061039a610ab1366004613ec0565b611c8d565b348015610ac257600080fd5b5061039a610ad1366004613a7f565b611dac565b348015610ae257600080fd5b50610484610af136600461391a565b611e06565b348015610b0257600080fd5b5061039a610b11366004613b8d565b611e98565b348015610b2257600080fd5b506103e6610b31366004613f88565b611f11565b348015610b4257600080fd5b50306107a6565b337f00000000000000000000000000000000000000000000000000000000000000006001600160a01b031614610bc65760405162461bcd60e51b815260206004820152601e60248201527f4c7a4170703a20696e76616c696420656e64706f696e742063616c6c6572000060448201526064015b60405180910390fd5b61ffff861660009081526001602052604081208054610be490613fd5565b80601f0160208091040260200160405190810160405280929190818152602001828054610c1090613fd5565b8015610c5d5780601f10610c3257610100808354040283529160200191610c5d565b820191906000526020600020905b815481529060010190602001808311610c4057829003601f168201915b50505050509050805186869050148015610c78575060008151115b8015610ca0575080516020820120604051610c969088908890614009565b6040518091039020145b610cfb5760405162461bcd60e51b815260206004820152602660248201527f4c7a4170703a20696e76616c696420736f757263652073656e64696e6720636f6044820152651b9d1c9858dd60d21b6064820152608401610bbd565b610d718787878080601f01602080910402602001604051908101604052809392919081815260200183838082843760009201919091525050604080516020601f8a018190048102820181019092528881528a935091508890889081908401838280828437600092019190915250611fc292505050565b50505050505050565b60006001600160e01b03198216630d30953d60e31b1480610dab57506301ffc9a760e01b6001600160e01b03198316145b92915050565b6060600c8054610dc090613fd5565b80601f0160208091040260200160405190810160405280929190818152602001828054610dec90613fd5565b8015610e395780601f10610e0e57610100808354040283529160200191610e39565b820191906000526020600020905b815481529060010190602001808311610e1c57829003601f168201915b5050505050905090565b610e4b61203b565b6040516307e0db1760e01b815261ffff821660048201527f00000000000000000000000000000000000000000000000000000000000000006001600160a01b0316906307e0db17906024015b600060405180830381600087803b158015610eb157600080fd5b505af1158015610ec5573d6000803e3d6000fd5b5050505050565b600033610eda818585612095565b5060019392505050565b610eec61203b565b61ffff909116600090815260036020526040902055565b610f0b61203b565b6040516310ddb13760e01b815261ffff821660048201527f00000000000000000000000000000000000000000000000000000000000000006001600160a01b0316906310ddb13790602401610e97565b600033610f698582856121b9565b610f74858585612233565b506001949350505050565b610f8a8686856123de565b509250610ff886868686610fa16020870187613b8d565b610fb16040880160208901613b8d565b610fbe6040890189614019565b8080601f01602080910402602001604051908101604052809392919081815260200183838082843760009201919091525061242792505050565b92508183101561101a5760405162461bcd60e51b8152600401610bbd9061405f565b505050505050565b6000806110688888888888888080601f01602080910402602001604051908101604052809392919081815260200183838082843760009201919091525061254b92505050565b91509150965096945050505050565b600033610eda81858561108a8383611bf8565b61109491906140c2565b612095565b61ffff8316600090815260016020526040812080548291906110ba90613fd5565b80601f01602080910402602001604051908101604052809291908181526020018280546110e690613fd5565b80156111335780601f1061110857610100808354040283529160200191611133565b820191906000526020600020905b81548152906001019060200180831161111657829003601f168201915b50505050509050838360405161114a929190614009565b60405180910390208180519060200120149150509392505050565b61116d61203b565b6040516342d65a8d60e01b81526001600160a01b037f000000000000000000000000000000000000000000000000000000000000000016906342d65a8d906111bd908690869086906004016140fe565b600060405180830381600087803b1580156111d757600080fd5b505af1158015610d71573d6000803e3d6000fd5b6111f68989886123de565b508096505061129f8989898988888080601f0160208091040260200160405190810160405280939291908181526020018383808284376000920191909152508a92506112489150506020890189613b8d565b61125860408a0160208b01613b8d565b61126560408b018b614019565b8080601f01602080910402602001604051908101604052809392919081815260200183838082843760009201919091525061260392505050565b9550848610156112c15760405162461bcd60e51b8152600401610bbd9061405f565b505050505050505050565b6112d461203b565b6001600160a01b03811661132a5760405162461bcd60e51b815260206004820152601a60248201527f4665653a206665654f776e65722063616e6e6f742062652030780000000000006044820152606401610bbd565b6008805462010000600160b01b031916620100006001600160a01b038416908102919091179091556040519081527f047912631afa564eebd3db2efe191a0dec62da1fede6bbbc1ffc89d87845b1b5906020015b60405180910390a150565b61139161203b565b6127108161ffff1611156113b75760405162461bcd60e51b8152600401610bbd9061411c565b6008805461ffff191661ffff83169081179091556040519081527fd26030ef4a8c225ee12b646eb4466acb41fb96b6cd4660b22d0ba0124e7bdc749060200161137e565b3330146114595760405162461bcd60e51b815260206004820152602660248201527f4e6f6e626c6f636b696e674c7a4170703a2063616c6c6572206d7573742062656044820152650204c7a4170760d41b6064820152608401610bbd565b61101a8686868080601f01602080910402602001604051908101604052809392919081815260200183838082843760009201919091525050604080516020601f8901819004810282018101909252878152899350915087908790819084018382808284376000920191909152506126ff92505050565b6114d761203b565b6114e16000612786565b565b600160205260009081526040902080546114fc90613fd5565b80601f016020809104026020016040519081016040528092919081815260200182805461152890613fd5565b80156115755780601f1061154a57610100808354040283529160200191611575565b820191906000526020600020905b81548152906001019060200180831161155857829003601f168201915b505050505081565b61158561203b565b6127108161ffff1611156115ab5760405162461bcd60e51b8152600401610bbd9061411c565b60408051808201825261ffff83811680835285151560208085018281528985166000818152600784528890209651875492511515620100000262ffffff1990931696169590951717909455845192835292820192909252918201527fdd9c9685af3e6dcb56d8f4b88d2595d4add6837a150034e7781c46b6dcf8aaab906060015b60405180910390a1505050565b6000611644600b5490565b905090565b6060600d8054610dc090613fd5565b61ffff811660009081526001602052604081208054606092919061167b90613fd5565b80601f01602080910402602001604051908101604052809291908181526020018280546116a790613fd5565b80156116f45780601f106116c9576101008083540402835291602001916116f4565b820191906000526020600020905b8154815290600101906020018083116116d757829003601f168201915b50505050509050805160000361174c5760405162461bcd60e51b815260206004820152601d60248201527f4c7a4170703a206e6f20747275737465642070617468207265636f72640000006044820152606401610bbd565b61176760006014835161175f9190614161565b8391906127d6565b9392505050565b6000338161177c8286611bf8565b9050838110156117dc5760405162461bcd60e51b815260206004820152602560248201527f45524332303a2064656372656173656420616c6c6f77616e63652062656c6f77604482015264207a65726f60d81b6064820152608401610bbd565b610f748286868403612095565b6000806118668b8b8b8b8b8080601f01602080910402602001604051908101604052809392919081815260200183838082843760009201919091525050604080516020601f8d018190048102820181019092528b81528e93508d9250908c908c90819084018382808284376000920191909152506128e392505050565b91509150995099975050505050505050565b61188061203b565b81813060405160200161189593929190614174565b60408051601f1981840301815291815261ffff85166000908152600160205220906118c090826141e2565b507f8c0400cfe2d1199b1a725c78960bcc2a344d869b80590d0f2bd005db15a572ce83838360405161162c939291906140fe565b600033610eda818585612233565b61190a61203b565b600480546001600160a01b0319166001600160a01b0383169081179091556040519081527f5db758e995a17ec1ad84bdef7e8c3293a0bd6179bcce400dff5d4c3d87db726b9060200161137e565b61196061203b565b6040516332fb62e760e21b81526001600160a01b037f0000000000000000000000000000000000000000000000000000000000000000169063cbed8b9c906119b490889088908890889088906004016142a1565b600060405180830381600087803b1580156119ce57600080fd5b505af11580156112c1573d6000803e3d6000fd5b61ffff86166000908152600560205260408082209051611a059088908890614009565b90815260408051602092819003830190206001600160401b03871660009081529252902054905080611a855760405162461bcd60e51b815260206004820152602360248201527f4e6f6e626c6f636b696e674c7a4170703a206e6f2073746f726564206d65737360448201526261676560e81b6064820152608401610bbd565b808383604051611a96929190614009565b604051809103902014611af55760405162461bcd60e51b815260206004820152602160248201527f4e6f6e626c6f636b696e674c7a4170703a20696e76616c6964207061796c6f616044820152601960fa1b6064820152608401610bbd565b61ffff87166000908152600560205260408082209051611b189089908990614009565b90815260408051602092819003830181206001600160401b038916600090815290845282902093909355601f88018290048202830182019052868252611bb0918991899089908190840183828082843760009201919091525050604080516020601f8a018190048102820181019092528881528a9350915088908890819084018382808284376000920191909152506126ff92505050565b7fc264d91f3adc5588250e1551f547752ca0cfa8f6b530d243b9f9f4cab10ea8e58787878785604051611be79594939291906142da565b60405180910390a150505050505050565b6001600160a01b039182166000908152600a6020908152604080832093909416825291909152205490565b611c2b61203b565b61ffff83811660008181526002602090815260408083209487168084529482529182902085905581519283528201929092529081018290527f9d5c7c0b934da8fefa9c7760c98383778a12dfbfc0c3b3106518f43fb9508ac09060600161162c565b333014611cdc5760405162461bcd60e51b815260206004820152601f60248201527f4f4654436f72653a2063616c6c6572206d757374206265204f4654436f7265006044820152606401610bbd565b611ce730868661299e565b9350846001600160a01b03168a61ffff167fbf551ec93859b170f9b2141bd9298bf3f64322c6f7beb2543a0cb669834118bf86604051611d2991815260200190565b60405180910390a3604051633fe79aed60e11b81526001600160a01b03861690637fcf35da908390611d6d908e908e908e908e908e908d908d908d90600401614315565b600060405180830381600088803b158015611d8757600080fd5b5087f1158015611d9b573d6000803e3d6000fd5b505050505050505050505050505050565b611db461203b565b61ffff83166000908152600160205260409020611dd2828483614370565b507ffa41487ad5d6728f0b19276fa1eddc16558578f5109fc39d2dc33c3230470dab83838360405161162c939291906140fe565b61ffff828116600090815260076020908152604080832081518083019092525493841681526201000090930460ff1615801591840191909152909190611e6b57805161271090611e5a9061ffff168561442f565b611e64919061445c565b9150611e91565b60085461ffff1615611e8c5760085461271090611e5a9061ffff168561442f565b600091505b5092915050565b611ea061203b565b6001600160a01b038116611f055760405162461bcd60e51b815260206004820152602660248201527f4f776e61626c653a206e6577206f776e657220697320746865207a65726f206160448201526564647265737360d01b6064820152608401610bbd565b611f0e81612786565b50565b604051633d7b2f6f60e21b815261ffff808616600483015284166024820152306044820152606481018290526060907f00000000000000000000000000000000000000000000000000000000000000006001600160a01b03169063f5ecbdbc90608401600060405180830381865afa158015611f91573d6000803e3d6000fd5b505050506040513d6000823e601f3d908101601f19168201604052611fb99190810190614470565b95945050505050565b6000806120255a60966366ad5c8a60e01b89898989604051602401611fea94939291906144dd565b60408051601f198184030181529190526020810180516001600160e01b03166001600160e01b031990931692909217909152309291906129f0565b915091508161101a5761101a8686868685612a7a565b6000546001600160a01b031633146114e15760405162461bcd60e51b815260206004820181905260248201527f4f776e61626c653a2063616c6c6572206973206e6f7420746865206f776e65726044820152606401610bbd565b6001600160a01b0383166120f75760405162461bcd60e51b8152602060048201526024808201527f45524332303a20617070726f76652066726f6d20746865207a65726f206164646044820152637265737360e01b6064820152608401610bbd565b6001600160a01b0382166121585760405162461bcd60e51b815260206004820152602260248201527f45524332303a20617070726f766520746f20746865207a65726f206164647265604482015261737360f01b6064820152608401610bbd565b6001600160a01b038381166000818152600a602090815260408083209487168084529482529182902085905590518481527f8c5be1e5ebec7d5bd14f71427d1e84f3dd0314c0f7b2291e5b200ac8c7c3b925910160405180910390a3505050565b60006121c58484611bf8565b9050600019811461222d57818110156122205760405162461bcd60e51b815260206004820152601d60248201527f45524332303a20696e73756666696369656e7420616c6c6f77616e63650000006044820152606401610bbd565b61222d8484848403612095565b50505050565b6001600160a01b0383166122975760405162461bcd60e51b815260206004820152602560248201527f45524332303a207472616e736665722066726f6d20746865207a65726f206164604482015264647265737360d81b6064820152608401610bbd565b6001600160a01b0382166122f95760405162461bcd60e51b815260206004820152602360248201527f45524332303a207472616e7366657220746f20746865207a65726f206164647260448201526265737360e81b6064820152608401610bbd565b6001600160a01b038316600090815260096020526040902054818110156123715760405162461bcd60e51b815260206004820152602660248201527f45524332303a207472616e7366657220616d6f756e7420657863656564732062604482015265616c616e636560d01b6064820152608401610bbd565b6001600160a01b0380851660008181526009602052604080822086860390559286168082529083902080548601905591517fddf252ad1be2c89b69c2b068fc378daa952ba7f163c4a11628f55a4df523b3ef906123d19086815260200190565b60405180910390a361222d565b6000806123eb8484611e06565b90506123f78184614161565b9150801561241f5760085461241d9086906201000090046001600160a01b03168361299e565b505b935093915050565b600061243587828481612b1c565b61243e85612bf1565b50905061244d88888884612c31565b90506000811161249b5760405162461bcd60e51b815260206004820152601960248201527813d19510dbdc994e88185b5bdd5b9d081d1bdbc81cdb585b1b603a1b6044820152606401610bbd565b60006124e6876124aa84612c63565b6040805160006020820152602181019390935260c09190911b6001600160c01b0319166041830152805160298184030181526049909201905290565b90506124f6888287878734612ce9565b86896001600160a01b03168961ffff167fd81fc9b8523134ed613870ed029d6170cbb73aa6a6bc311b9a642689fb9df59a8560405161253791815260200190565b60405180910390a450979650505050505050565b600080600061255d876124aa88612c63565b60405163040a7bb160e41b81529091506001600160a01b037f000000000000000000000000000000000000000000000000000000000000000016906340a7bb10906125b4908b90309086908b908b9060040161451b565b6040805180830381865afa1580156125d0573d6000803e3d6000fd5b505050506040513d601f19601f820116820180604052508101906125f4919061456f565b92509250509550959350505050565b600061261b896001846001600160401b038916612b1c565b61262487612bf1565b5090506126338a8a8a84612c31565b9050600081116126815760405162461bcd60e51b815260206004820152601960248201527813d19510dbdc994e88185b5bdd5b9d081d1bdbc81cdb585b1b603a1b6044820152606401610bbd565b6000612698338a61269185612c63565b8a8a612e8e565b90506126a88a8287878734612ce9565b888b6001600160a01b03168b61ffff167fd81fc9b8523134ed613870ed029d6170cbb73aa6a6bc311b9a642689fb9df59a856040516126e991815260200190565b60405180910390a4509998505050505050505050565b600061270b8282612ecf565b905060ff81166127265761272185858585612f2b565b610ec5565b60001960ff82160161273e5761272185858585612fbb565b60405162461bcd60e51b815260206004820152601c60248201527f4f4654436f72653a20756e6b6e6f776e207061636b65742074797065000000006044820152606401610bbd565b600080546001600160a01b038381166001600160a01b0319831681178455604051919092169283917f8be0079c531659141344cd1fd0a4f28419497f9722a3daafe3b4186f6b6457e09190a35050565b6060816127e481601f6140c2565b10156128235760405162461bcd60e51b815260206004820152600e60248201526d736c6963655f6f766572666c6f7760901b6044820152606401610bbd565b61282d82846140c2565b845110156128715760405162461bcd60e51b8152602060048201526011602482015270736c6963655f6f75744f66426f756e647360781b6044820152606401610bbd565b60608215801561289057604051915060008252602082016040526128da565b6040519150601f8416801560200281840101858101878315602002848b0101015b818310156128c95780518352602092830192016128b1565b5050858452601f01601f1916604052505b50949350505050565b60008060006128f6338a6126918b612c63565b60405163040a7bb160e41b81529091506001600160a01b037f000000000000000000000000000000000000000000000000000000000000000016906340a7bb109061294d908d90309086908b908b9060040161451b565b6040805180830381865afa158015612969573d6000803e3d6000fd5b505050506040513d601f19601f8201168201806040525081019061298d919061456f565b925092505097509795505050505050565b600033306001600160a01b038616148015906129cc5750806001600160a01b0316856001600160a01b031614155b156129dc576129dc8582856121b9565b6129e7858585612233565b50909392505050565b6000606060008060008661ffff166001600160401b03811115612a1557612a15613baa565b6040519080825280601f01601f191660200182016040528015612a3f576020820181803683370190505b50905060008087516020890160008d8df191503d925086831115612a61578692505b828152826000602083013e909890975095505050505050565b8180519060200120600560008761ffff1661ffff16815260200190815260200160002085604051612aab9190614593565b9081526040805191829003602090810183206001600160401b0388166000908152915220919091557fe183f33de2837795525b4792ca4cd60535bd77c53b7e7030060bfcf5734d6b0c90612b0890879087908790879087906145af565b60405180910390a15050505050565b505050565b6000612b27836131c9565b61ffff80871660009081526002602090815260408083209389168352929052205490915080612b985760405162461bcd60e51b815260206004820152601a60248201527f4c7a4170703a206d696e4761734c696d6974206e6f74207365740000000000006044820152606401610bbd565b612ba283826140c2565b82101561101a5760405162461bcd60e51b815260206004820152601b60248201527f4c7a4170703a20676173206c696d697420697320746f6f206c6f7700000000006044820152606401610bbd565b600080612c1e7f000000000000000000000000000000000000000000000000000000000000000084614601565b9050612c2a8184614161565b9150915091565b6000336001600160a01b0386168114612c4f57612c4f8682856121b9565b612c598684613225565b5090949350505050565b600080612c907f00000000000000000000000000000000000000000000000000000000000000008461445c565b90506001600160401b03811115610dab5760405162461bcd60e51b815260206004820152601a60248201527f4f4654436f72653a20616d6f756e745344206f766572666c6f770000000000006044820152606401610bbd565b61ffff861660009081526001602052604081208054612d0790613fd5565b80601f0160208091040260200160405190810160405280929190818152602001828054612d3390613fd5565b8015612d805780601f10612d5557610100808354040283529160200191612d80565b820191906000526020600020905b815481529060010190602001808311612d6357829003601f168201915b505050505090508051600003612df15760405162461bcd60e51b815260206004820152603060248201527f4c7a4170703a2064657374696e6174696f6e20636861696e206973206e6f742060448201526f61207472757374656420736f7572636560801b6064820152608401610bbd565b612dfc878751613359565b60405162c5803160e81b81526001600160a01b037f0000000000000000000000000000000000000000000000000000000000000000169063c5803100908490612e53908b9086908c908c908c908c90600401614615565b6000604051808303818588803b158015612e6c57600080fd5b505af1158015612e80573d6000803e3d6000fd5b505050505050505050505050565b6060600185856001600160a01b0389168587604051602001612eb59695949392919061467c565b604051602081830303815290604052905095945050505050565b6000612edc8260016140c2565b83511015612f225760405162461bcd60e51b8152602060048201526013602482015272746f55696e74385f6f75744f66426f756e647360681b6044820152606401610bbd565b50016001015190565b600080612f37836133ca565b90925090506001600160a01b038216612f505761dead91505b6000612f5b8261344f565b9050612f68878483613484565b9050826001600160a01b03168761ffff167fbf551ec93859b170f9b2141bd9298bf3f64322c6f7beb2543a0cb669834118bf83604051612faa91815260200190565b60405180910390a350505050505050565b6000806000806000612fcc86613490565b945094509450945094506000600660008b61ffff1661ffff168152602001908152602001600020896040516130019190614593565b90815260408051602092819003830190206001600160401b038b166000908152925281205460ff1691506130348561344f565b9050816130a2576130468b3083613484565b61ffff8c1660009081526006602052604090819020905191925060019161306e908d90614593565b90815260408051602092819003830190206001600160401b038d16600090815292529020805460ff19169115159190911790555b6001600160a01b0386163b6130f9576040516001600160a01b03871681527f9aedf5fdba8716db3b6705ca00150643309995d4f818a249ed6dde6677e7792d9060200160405180910390a15050505050505061222d565b8a8a8a8a8a8a868a60008a613117578b6001600160401b0316613119565b5a5b905060008061314b5a609663eaffd49a60e01b8e8e8e8d8d8d8d8d604051602401611fea9897969594939291906146dd565b9150915081156131a4578751602089012060405161ffff8d16907fb8890edbfc1c74692f527444645f95489c3703cc2df42e4a366f5d06fa6cd88490613196908e908e908690614751565b60405180910390a2506131b1565b6131b18b8b8b8b85612a7a565b50505050505050505050505050505050505050505050565b600060228251101561321d5760405162461bcd60e51b815260206004820152601c60248201527f4c7a4170703a20696e76616c69642061646170746572506172616d73000000006044820152606401610bbd565b506022015190565b6001600160a01b0382166132855760405162461bcd60e51b815260206004820152602160248201527f45524332303a206275726e2066726f6d20746865207a65726f206164647265736044820152607360f81b6064820152608401610bbd565b6001600160a01b038216600090815260096020526040902054818110156132f95760405162461bcd60e51b815260206004820152602260248201527f45524332303a206275726e20616d6f756e7420657863656564732062616c616e604482015261636560f01b6064820152608401610bbd565b6001600160a01b03831660008181526009602090815260408083208686039055600b80548790039055518581529192917fddf252ad1be2c89b69c2b068fc378daa952ba7f163c4a11628f55a4df523b3ef910160405180910390a3505050565b61ffff82166000908152600360205260408120549081900361337a57506127105b80821115612b175760405162461bcd60e51b815260206004820181905260248201527f4c7a4170703a207061796c6f61642073697a6520697320746f6f206c617267656044820152606401610bbd565b600080806133d88482612ecf565b60ff161480156133e9575082516029145b6134305760405162461bcd60e51b815260206004820152601860248201527713d19510dbdc994e881a5b9d985b1a59081c185e5b1bd85960421b6044820152606401610bbd565b61343b83600d613547565b91506134488360216135ac565b9050915091565b6000610dab7f00000000000000000000000000000000000000000000000000000000000000006001600160401b03841661442f565b6000611e918383613609565b6000808060608160016134a38783612ecf565b60ff16146134ee5760405162461bcd60e51b815260206004820152601860248201527713d19510dbdc994e881a5b9d985b1a59081c185e5b1bd85960421b6044820152606401610bbd565b6134f986600d613547565b93506135068660216135ac565b92506135138660296136ca565b94506135208660496135ac565b905061353c60518088516135349190614161565b8891906127d6565b915091939590929450565b60006135548260146140c2565b8351101561359c5760405162461bcd60e51b8152602060048201526015602482015274746f416464726573735f6f75744f66426f756e647360581b6044820152606401610bbd565b500160200151600160601b900490565b60006135b98260086140c2565b835110156136005760405162461bcd60e51b8152602060048201526014602482015273746f55696e7436345f6f75744f66426f756e647360601b6044820152606401610bbd565b50016008015190565b6001600160a01b03821661365f5760405162461bcd60e51b815260206004820152601f60248201527f45524332303a206d696e7420746f20746865207a65726f2061646472657373006044820152606401610bbd565b80600b600082825461367191906140c2565b90915550506001600160a01b0382166000818152600960209081526040808320805486019055518481527fddf252ad1be2c89b69c2b068fc378daa952ba7f163c4a11628f55a4df523b3ef910160405180910390a35050565b60006136d78260206140c2565b8351101561371f5760405162461bcd60e51b8152602060048201526015602482015274746f427974657333325f6f75744f66426f756e647360581b6044820152606401610bbd565b50016020015190565b803561ffff8116811461373a57600080fd5b919050565b60008083601f84011261375157600080fd5b5081356001600160401b0381111561376857600080fd5b60208301915083602082850101111561378057600080fd5b9250929050565b80356001600160401b038116811461373a57600080fd5b600080600080600080608087890312156137b757600080fd5b6137c087613728565b955060208701356001600160401b03808211156137dc57600080fd5b6137e88a838b0161373f565b90975095508591506137fc60408a01613787565b9450606089013591508082111561381257600080fd5b5061381f89828a0161373f565b979a9699509497509295939492505050565b60006020828403121561384357600080fd5b81356001600160e01b03198116811461176757600080fd5b60005b8381101561387657818101518382015260200161385e565b50506000910152565b6000815180845261389781602086016020860161385b565b601f01601f19169290920160200192915050565b602081526000611767602083018461387f565b6000602082840312156138d057600080fd5b61176782613728565b6001600160a01b0381168114611f0e57600080fd5b6000806040838503121561390157600080fd5b823561390c816138d9565b946020939093013593505050565b6000806040838503121561392d57600080fd5b61390c83613728565b60008060006060848603121561394b57600080fd5b8335613956816138d9565b92506020840135613966816138d9565b929592945050506040919091013590565b60006060828403121561398957600080fd5b50919050565b60008060008060008060c087890312156139a857600080fd5b86356139b3816138d9565b95506139c160208801613728565b945060408701359350606087013592506080870135915060a08701356001600160401b038111156139f157600080fd5b6139fd89828a01613977565b9150509295509295509295565b8035801515811461373a57600080fd5b60008060008060008060a08789031215613a3357600080fd5b613a3c87613728565b95506020870135945060408701359350613a5860608801613a0a565b925060808701356001600160401b03811115613a7357600080fd5b61381f89828a0161373f565b600080600060408486031215613a9457600080fd5b613a9d84613728565b925060208401356001600160401b03811115613ab857600080fd5b613ac48682870161373f565b9497909650939450505050565b60008060008060008060008060006101008a8c031215613af057600080fd5b8935613afb816138d9565b9850613b0960208b01613728565b975060408a0135965060608a0135955060808a0135945060a08a01356001600160401b0380821115613b3a57600080fd5b613b468d838e0161373f565b9096509450849150613b5a60c08d01613787565b935060e08c0135915080821115613b7057600080fd5b50613b7d8c828d01613977565b9150509295985092959850929598565b600060208284031215613b9f57600080fd5b8135611767816138d9565b634e487b7160e01b600052604160045260246000fd5b604051601f8201601f191681016001600160401b0381118282101715613be857613be8613baa565b604052919050565b60006001600160401b03821115613c0957613c09613baa565b50601f01601f191660200190565b600080600060608486031215613c2c57600080fd5b613c3584613728565b925060208401356001600160401b03811115613c5057600080fd5b8401601f81018613613c6157600080fd5b8035613c74613c6f82613bf0565b613bc0565b818152876020838501011115613c8957600080fd5b81602084016020830137600060208383010152809450505050613cae60408501613787565b90509250925092565b600080600060608486031215613ccc57600080fd5b613cd584613728565b9250613ce360208501613a0a565b9150613cae60408501613728565b60008060408385031215613d0457600080fd5b613d0d83613728565b9150613d1b60208401613728565b90509250929050565b600080600080600080600080600060e08a8c031215613d4257600080fd5b613d4b8a613728565b985060208a0135975060408a0135965060608a01356001600160401b0380821115613d7557600080fd5b613d818d838e0161373f565b9098509650869150613d9560808d01613787565b9550613da360a08d01613a0a565b945060c08c0135915080821115613db957600080fd5b50613dc68c828d0161373f565b915080935050809150509295985092959850929598565b600080600080600060808688031215613df557600080fd5b613dfe86613728565b9450613e0c60208701613728565b93506040860135925060608601356001600160401b03811115613e2e57600080fd5b613e3a8882890161373f565b969995985093965092949392505050565b60008060408385031215613e5e57600080fd5b8235613e69816138d9565b91506020830135613e79816138d9565b809150509250929050565b600080600060608486031215613e9957600080fd5b613ea284613728565b9250613eb060208501613728565b9150604084013590509250925092565b6000806000806000806000806000806101008b8d031215613ee057600080fd5b613ee98b613728565b995060208b01356001600160401b0380821115613f0557600080fd5b613f118e838f0161373f565b909b509950899150613f2560408e01613787565b985060608d0135975060808d01359150613f3e826138d9565b90955060a08c0135945060c08c01359080821115613f5b57600080fd5b50613f688d828e0161373f565b9150809450508092505060e08b013590509295989b9194979a5092959850565b60008060008060808587031215613f9e57600080fd5b613fa785613728565b9350613fb560208601613728565b92506040850135613fc5816138d9565b9396929550929360600135925050565b600181811c90821680613fe957607f821691505b60208210810361398957634e487b7160e01b600052602260045260246000fd5b8183823760009101908152919050565b6000808335601e1984360301811261403057600080fd5b8301803591506001600160401b0382111561404a57600080fd5b60200191503681900382131561378057600080fd5b6020808252602d908201527f426173654f4654576974684665653a20616d6f756e74206973206c657373207460408201526c1a185b881b5a5b905b5bdd5b9d609a1b606082015260800190565b634e487b7160e01b600052601160045260246000fd5b80820180821115610dab57610dab6140ac565b81835281816020850137506000828201602090810191909152601f909101601f19169091010190565b61ffff84168152604060208201526000611fb96040830184866140d5565b60208082526025908201527f4665653a20666565206270206d757374206265203c3d2042505f44454e4f4d496040820152642720aa27a960d91b606082015260800190565b81810381811115610dab57610dab6140ac565b8284823760609190911b6bffffffffffffffffffffffff19169101908152601401919050565b601f821115612b17576000816000526020600020601f850160051c810160208610156141c35750805b601f850160051c820191505b8181101561101a578281556001016141cf565b81516001600160401b038111156141fb576141fb613baa565b61420f816142098454613fd5565b8461419a565b602080601f831160018114614244576000841561422c5750858301515b600019600386901b1c1916600185901b17855561101a565b600085815260208120601f198616915b8281101561427357888601518255948401946001909101908401614254565b50858210156142915787850151600019600388901b60f8161c191681555b5050505050600190811b01905550565b600061ffff8088168352808716602084015250846040830152608060608301526142cf6080830184866140d5565b979650505050505050565b61ffff861681526080602082015260006142f86080830186886140d5565b6001600160401b0394909416604083015250606001529392505050565b61ffff8916815260c06020820152600061433360c08301898b6140d5565b6001600160401b038816604084015286606084015285608084015282810360a08401526143618185876140d5565b9b9a5050505050505050505050565b6001600160401b0383111561438757614387613baa565b61439b836143958354613fd5565b8361419a565b6000601f8411600181146143cf57600085156143b75750838201355b600019600387901b1c1916600186901b178355610ec5565b600083815260209020601f19861690835b8281101561440057868501358255602094850194600190920191016143e0565b508682101561441d5760001960f88860031b161c19848701351681555b505060018560011b0183555050505050565b8082028115828204841417610dab57610dab6140ac565b634e487b7160e01b600052601260045260246000fd5b60008261446b5761446b614446565b500490565b60006020828403121561448257600080fd5b81516001600160401b0381111561449857600080fd5b8201601f810184136144a957600080fd5b80516144b7613c6f82613bf0565b8181528560208385010111156144cc57600080fd5b611fb982602083016020860161385b565b61ffff851681526080602082015260006144fa608083018661387f565b6001600160401b038516604084015282810360608401526142cf818561387f565b61ffff861681526001600160a01b038516602082015260a0604082018190526000906145499083018661387f565b84151560608401528281036080840152614563818561387f565b98975050505050505050565b6000806040838503121561458257600080fd5b505080516020909101519092909150565b600082516145a581846020870161385b565b9190910192915050565b61ffff8616815260a0602082015260006145cc60a083018761387f565b6001600160401b038616604084015282810360608401526145ed818661387f565b90508281036080840152614563818561387f565b60008261461057614610614446565b500690565b61ffff8716815260c06020820152600061463260c083018861387f565b8281036040840152614644818861387f565b6001600160a01b0387811660608601528616608085015283810360a0850152905061466f818561387f565b9998505050505050505050565b60ff60f81b8760f81b16815285600182015260006001600160401b0360c01b808760c01b166021840152856029840152808560c01b1660498401525082516146cb81605185016020870161385b565b91909101605101979650505050505050565b600061010061ffff8b1683528060208401526146fb8184018b61387f565b6001600160401b038a166040850152606084018990526001600160a01b038816608085015260a0840187905283810360c0850152905061473b818661387f565b9150508260e08301529998505050505050505050565b606081526000614764606083018661387f565b6001600160401b03949094166020830152506040015291905056fea264697066735822122091fd6fbf442d7d86207d7c4f67de4bd7c89e7cf98b10755f4576967f1f8fbbf164736f6c63430008160033",
    "linkReferences": {}
  },
  "methodIdentifiers": {
    "BP_DENOMINATOR()": "abe685cd",
    "DEFAULT_PAYLOAD_SIZE_LIMIT()": "c4461834",
    "NO_EXTRA_GAS()": "44770515",
    "PT_SEND()": "4c42899a",
    "PT_SEND_AND_CALL()": "e6a20ae6",
    "allowance(address,address)": "dd62ed3e",
    "approve(address,uint256)": "095ea7b3",
    "balanceOf(address)": "70a08231",
    "callOnOFTReceived(uint16,bytes,uint64,bytes32,address,uint256,bytes,uint256)": "eaffd49a",
    "chainIdToFeeBps(uint16)": "c83330ce",
    "circulatingSupply()": "9358928b",
    "creditedPackets(uint16,bytes,uint64)": "9bdb9812",
    "decimals()": "313ce567",
    "decreaseAllowance(address,uint256)": "a457c2d7",
    "defaultFeeBp()": "d8882968",
    "estimateSendAndCallFee(uint16,bytes32,uint256,bytes,uint64,bool,bytes)": "a4c51df5",
    "estimateSendFee(uint16,bytes32,uint256,bool,bytes)": "365260b4",
    "failedMessages(uint16,bytes,uint64)": "5b8c41e6",
    "feeOwner()": "b9818be1",
    "forceResumeReceive(uint16,bytes)": "42d65a8d",
    "getConfig(uint16,uint16,address,uint256)": "f5ecbdbc",
    "getTrustedRemoteAddress(uint16)": "9f38369a",
    "increaseAllowance(address,uint256)": "39509351",
    "isTrustedRemote(uint16,bytes)": "3d8b38f6",
    "lzEndpoint()": "b353aaa7",
    "lzReceive(uint16,bytes,uint64,bytes)": "001d3567",
    "minDstGasLookup(uint16,uint16)": "8cfd8f5c",
    "name()": "06fdde03",
    "nonblockingLzReceive(uint16,bytes,uint64,bytes)": "66ad5c8a",
    "owner()": "8da5cb5b",
    "payloadSizeLimitLookup(uint16)": "3f1f4fa4",
    "precrime()": "950c8a74",
    "quoteOFTFee(uint16,uint256)": "ecd8f212",
    "renounceOwnership()": "715018a6",
    "retryMessage(uint16,bytes,uint64,bytes)": "d1deba1f",
    "sendAndCall(address,uint16,bytes32,uint256,uint256,bytes,uint64,(address,address,bytes))": "455ba27d",
    "sendFrom(address,uint16,bytes32,uint256,uint256,(address,address,bytes))": "2cdf0b95",
    "setConfig(uint16,uint16,uint256,bytes)": "cbed8b9c",
    "setDefaultFeeBp(uint16)": "5a359dc5",
    "setFeeBp(uint16,bool,uint16)": "79c0ad4b",
    "setFeeOwner(address)": "4b104eff",
    "setMinDstGas(uint16,uint16,uint256)": "df2a5b3b",
    "setPayloadSizeLimit(uint16,uint256)": "0df37483",
    "setPrecrime(address)": "baf3292d",
    "setReceiveVersion(uint16)": "10ddb137",
    "setSendVersion(uint16)": "07e0db17",
    "setTrustedRemote(uint16,bytes)": "eb8d72b7",
    "setTrustedRemoteAddress(uint16,bytes)": "a6c3d165",
    "sharedDecimals()": "857749b0",
    "supportsInterface(bytes4)": "01ffc9a7",
    "symbol()": "95d89b41",
    "token()": "fc0c546a",
    "totalSupply()": "18160ddd",
    "transfer(address,uint256)": "a9059cbb",
    "transferFrom(address,address,uint256)": "23b872dd",
    "transferOwnership(address)": "f2fde38b",
    "trustedRemoteLookup(uint16)": "7533d788"
  },
  "id": 29
}