{
  "abi": [
    {
      "inputs": [
        {
          "internalType": "string",
          "name": "_name",
          "type": "string"
        },
        {
          "internalType": "string",
          "name": "_symbol",
          "type": "string"
        },
        {
          "internalType": "address",
          "name": "_lzEndpoint",
          "type": "address"
        }
      ],
      "stateMutability": "nonpayable",
      "type": "constructor"
    },
    {
      "anonymous": false,
      "inputs": [
        {
          "indexed": true,
          "internalType": "address",
          "name": "owner",
          "type": "address"
        },
        {
          "indexed": true,
          "internalType": "address",
          "name": "spender",
          "type": "address"
        },
        {
          "indexed": false,
          "internalType": "uint256",
          "name": "value",
          "type": "uint256"
        }
      ],
      "name": "Approval",
      "type": "event"
    },
    {
      "anonymous": false,
      "inputs": [
        {
          "indexed": true,
          "internalType": "address",
          "name": "_dst",
          "type": "address"
        },
        {
          "indexed": false,
          "internalType": "uint256",
          "name": "_amount",
          "type": "uint256"
        }
      ],
      "name": "Deposit",
      "type": "event"
    },
    {
      "anonymous": false,
      "inputs": [
        {
          "indexed": false,
          "internalType": "uint16",
          "name": "_srcChainId",
          "type": "uint16"
        },
        {
          "indexed": false,
          "internalType": "bytes",
          "name": "_srcAddress",
          "type": "bytes"
        },
        {
          "indexed": false,
          "internalType": "uint64",
          "name": "_nonce",
          "type": "uint64"
        },
        {
          "indexed": false,
          "internalType": "bytes",
          "name": "_payload",
          "type": "bytes"
        },
        {
          "indexed": false,
          "internalType": "bytes",
          "name": "_reason",
          "type": "bytes"
        }
      ],
      "name": "MessageFailed",
      "type": "event"
    },
    {
      "anonymous": false,
      "inputs": [
        {
          "indexed": true,
          "internalType": "address",
          "name": "previousOwner",
          "type": "address"
        },
        {
          "indexed": true,
          "internalType": "address",
          "name": "newOwner",
          "type": "address"
        }
      ],
      "name": "OwnershipTransferred",
      "type": "event"
    },
    {
      "anonymous": false,
      "inputs": [
        {
          "indexed": true,
          "internalType": "uint16",
          "name": "_srcChainId",
          "type": "uint16"
        },
        {
          "indexed": true,
          "internalType": "address",
          "name": "_to",
          "type": "address"
        },
        {
          "indexed": false,
          "internalType": "uint256",
          "name": "_amount",
          "type": "uint256"
        }
      ],
      "name": "ReceiveFromChain",
      "type": "event"
    },
    {
      "anonymous": false,
      "inputs": [
        {
          "indexed": false,
          "internalType": "uint16",
          "name": "_srcChainId",
          "type": "uint16"
        },
        {
          "indexed": false,
          "internalType": "bytes",
          "name": "_srcAddress",
          "type": "bytes"
        },
        {
          "indexed": false,
          "internalType": "uint64",
          "name": "_nonce",
          "type": "uint64"
        },
        {
          "indexed": false,
          "internalType": "bytes32",
          "name": "_payloadHash",
          "type": "bytes32"
        }
      ],
      "name": "RetryMessageSuccess",
      "type": "event"
    },
    {
      "anonymous": false,
      "inputs": [
        {
          "indexed": true,
          "internalType": "uint16",
          "name": "_dstChainId",
          "type": "uint16"
        },
        {
          "indexed": true,
          "internalType": "address",
          "name": "_from",
          "type": "address"
        },
        {
          "indexed": false,
          "internalType": "bytes",
          "name": "_toAddress",
          "type": "bytes"
        },
        {
          "indexed": false,
          "internalType": "uint256",
          "name": "_amount",
          "type": "uint256"
        }
      ],
      "name": "SendToChain",
      "type": "event"
    },
    {
      "anonymous": false,
      "inputs": [
        {
          "indexed": false,
          "internalType": "uint16",
          "name": "_dstChainId",
          "type": "uint16"
        },
        {
          "indexed": false,
          "internalType": "uint16",
          "name": "_type",
          "type": "uint16"
        },
        {
          "indexed": false,
          "internalType": "uint256",
          "name": "_minDstGas",
          "type": "uint256"
        }
      ],
      "name": "SetMinDstGas",
      "type": "event"
    },
    {
      "anonymous": false,
      "inputs": [
        {
          "indexed": false,
          "internalType": "address",
          "name": "precrime",
          "type": "address"
        }
      ],
      "name": "SetPrecrime",
      "type": "event"
    },
    {
      "anonymous": false,
      "inputs": [
        {
          "indexed": false,
          "internalType": "uint16",
          "name": "_remoteChainId",
          "type": "uint16"
        },
        {
          "indexed": false,
          "internalType": "bytes",
          "name": "_path",
          "type": "bytes"
        }
      ],
      "name": "SetTrustedRemote",
      "type": "event"
    },
    {
      "anonymous": false,
      "inputs": [
        {
          "indexed": false,
          "internalType": "uint16",
          "name": "_remoteChainId",
          "type": "uint16"
        },
        {
          "indexed": false,
          "internalType": "bytes",
          "name": "_remoteAddress",
          "type": "bytes"
        }
      ],
      "name": "SetTrustedRemoteAddress",
      "type": "event"
    },
    {
      "anonymous": false,
      "inputs": [
        {
          "indexed": false,
          "internalType": "bool",
          "name": "_useCustomAdapterParams",
          "type": "bool"
        }
      ],
      "name": "SetUseCustomAdapterParams",
      "type": "event"
    },
    {
      "anonymous": false,
      "inputs": [
        {
          "indexed": true,
          "internalType": "address",
          "name": "from",
          "type": "address"
        },
        {
          "indexed": true,
          "internalType": "address",
          "name": "to",
          "type": "address"
        },
        {
          "indexed": false,
          "internalType": "uint256",
          "name": "value",
          "type": "uint256"
        }
      ],
      "name": "Transfer",
      "type": "event"
    },
    {
      "anonymous": false,
      "inputs": [
        {
          "indexed": true,
          "internalType": "address",
          "name": "_src",
          "type": "address"
        },
        {
          "indexed": false,
          "internalType": "uint256",
          "name": "_amount",
          "type": "uint256"
        }
      ],
      "name": "Withdrawal",
      "type": "event"
    },
    {
      "inputs": [],
      "name": "DEFAULT_PAYLOAD_SIZE_LIMIT",
      "outputs": [
        {
          "internalType": "uint256",
          "name": "",
          "type": "uint256"
        }
      ],
      "stateMutability": "view",
      "type": "function"
    },
    {
      "inputs": [],
      "name": "NO_EXTRA_GAS",
      "outputs": [
        {
          "internalType": "uint256",
          "name": "",
          "type": "uint256"
        }
      ],
      "stateMutability": "view",
      "type": "function"
    },
    {
      "inputs": [],
      "name": "PT_SEND",
      "outputs": [
        {
          "internalType": "uint16",
          "name": "",
          "type": "uint16"
        }
      ],
      "stateMutability": "view",
      "type": "function"
    },
    {
      "inputs": [
        {
          "internalType": "address",
          "name": "owner",
          "type": "address"
        },
        {
          "internalType": "address",
          "name": "spender",
          "type": "address"
        }
      ],
      "name": "allowance",
      "outputs": [
        {
          "internalType": "uint256",
          "name": "",
          "type": "uint256"
        }
      ],
      "stateMutability": "view",
      "type": "function"
    },
    {
      "inputs": [
        {
          "internalType": "address",
          "name": "spender",
          "type": "address"
        },
        {
          "internalType": "uint256",
          "name": "amount",
          "type": "uint256"
        }
      ],
      "name": "approve",
      "outputs": [
        {
          "internalType": "bool",
          "name": "",
          "type": "bool"
        }
      ],
      "stateMutability": "nonpayable",
      "type": "function"
    },
    {
      "inputs": [
        {
          "internalType": "address",
          "name": "account",
          "type": "address"
        }
      ],
      "name": "balanceOf",
      "outputs": [
        {
          "internalType": "uint256",
          "name": "",
          "type": "uint256"
        }
      ],
      "stateMutability": "view",
      "type": "function"
    },
    {
      "inputs": [],
      "name": "circulatingSupply",
      "outputs": [
        {
          "internalType": "uint256",
          "name": "",
          "type": "uint256"
        }
      ],
      "stateMutability": "view",
      "type": "function"
    },
    {
      "inputs": [],
      "name": "decimals",
      "outputs": [
        {
          "internalType": "uint8",
          "name": "",
          "type": "uint8"
        }
      ],
      "stateMutability": "view",
      "type": "function"
    },
    {
      "inputs": [
        {
          "internalType": "address",
          "name": "spender",
          "type": "address"
        },
        {
          "internalType": "uint256",
          "name": "subtractedValue",
          "type": "uint256"
        }
      ],
      "name": "decreaseAllowance",
      "outputs": [
        {
          "internalType": "bool",
          "name": "",
          "type": "bool"
        }
      ],
      "stateMutability": "nonpayable",
      "type": "function"
    },
    {
      "inputs": [],
      "name": "deposit",
      "outputs": [],
      "stateMutability": "payable",
      "type": "function"
    },
    {
      "inputs": [
        {
          "internalType": "uint16",
          "name": "_dstChainId",
          "type": "uint16"
        },
        {
          "internalType": "bytes",
          "name": "_toAddress",
          "type": "bytes"
        },
        {
          "internalType": "uint256",
          "name": "_amount",
          "type": "uint256"
        },
        {
          "internalType": "bool",
          "name": "_useZro",
          "type": "bool"
        },
        {
          "internalType": "bytes",
          "name": "_adapterParams",
          "type": "bytes"
        }
      ],
      "name": "estimateSendFee",
      "outputs": [
        {
          "internalType": "uint256",
          "name": "nativeFee",
          "type": "uint256"
        },
        {
          "internalType": "uint256",
          "name": "zroFee",
          "type": "uint256"
        }
      ],
      "stateMutability": "view",
      "type": "function"
    },
    {
      "inputs": [
        {
          "internalType": "uint16",
          "name": "",
          "type": "uint16"
        },
        {
          "internalType": "bytes",
          "name": "",
          "type": "bytes"
        },
        {
          "internalType": "uint64",
          "name": "",
          "type": "uint64"
        }
      ],
      "name": "failedMessages",
      "outputs": [
        {
          "internalType": "bytes32",
          "name": "",
          "type": "bytes32"
        }
      ],
      "stateMutability": "view",
      "type": "function"
    },
    {
      "inputs": [
        {
          "internalType": "uint16",
          "name": "_srcChainId",
          "type": "uint16"
        },
        {
          "internalType": "bytes",
          "name": "_srcAddress",
          "type": "bytes"
        }
      ],
      "name": "forceResumeReceive",
      "outputs": [],
      "stateMutability": "nonpayable",
      "type": "function"
    },
    {
      "inputs": [
        {
          "internalType": "uint16",
          "name": "_version",
          "type": "uint16"
        },
        {
          "internalType": "uint16",
          "name": "_chainId",
          "type": "uint16"
        },
        {
          "internalType": "address",
          "name": "",
          "type": "address"
        },
        {
          "internalType": "uint256",
          "name": "_configType",
          "type": "uint256"
        }
      ],
      "name": "getConfig",
      "outputs": [
        {
          "internalType": "bytes",
          "name": "",
          "type": "bytes"
        }
      ],
      "stateMutability": "view",
      "type": "function"
    },
    {
      "inputs": [
        {
          "internalType": "uint16",
          "name": "_remoteChainId",
          "type": "uint16"
        }
      ],
      "name": "getTrustedRemoteAddress",
      "outputs": [
        {
          "internalType": "bytes",
          "name": "",
          "type": "bytes"
        }
      ],
      "stateMutability": "view",
      "type": "function"
    },
    {
      "inputs": [
        {
          "internalType": "address",
          "name": "spender",
          "type": "address"
        },
        {
          "internalType": "uint256",
          "name": "addedValue",
          "type": "uint256"
        }
      ],
      "name": "increaseAllowance",
      "outputs": [
        {
          "internalType": "bool",
          "name": "",
          "type": "bool"
        }
      ],
      "stateMutability": "nonpayable",
      "type": "function"
    },
    {
      "inputs": [
        {
          "internalType": "uint16",
          "name": "_srcChainId",
          "type": "uint16"
        },
        {
          "internalType": "bytes",
          "name": "_srcAddress",
          "type": "bytes"
        }
      ],
      "name": "isTrustedRemote",
      "outputs": [
        {
          "internalType": "bool",
          "name": "",
          "type": "bool"
        }
      ],
      "stateMutability": "view",
      "type": "function"
    },
    {
      "inputs": [],
      "name": "lzEndpoint",
      "outputs": [
        {
          "internalType": "contract ILayerZeroEndpoint",
          "name": "",
          "type": "address"
        }
      ],
      "stateMutability": "view",
      "type": "function"
    },
    {
      "inputs": [
        {
          "internalType": "uint16",
          "name": "_srcChainId",
          "type": "uint16"
        },
        {
          "internalType": "bytes",
          "name": "_srcAddress",
          "type": "bytes"
        },
        {
          "internalType": "uint64",
          "name": "_nonce",
          "type": "uint64"
        },
        {
          "internalType": "bytes",
          "name": "_payload",
          "type": "bytes"
        }
      ],
      "name": "lzReceive",
      "outputs": [],
      "stateMutability": "nonpayable",
      "type": "function"
    },
    {
      "inputs": [
        {
          "internalType": "uint16",
          "name": "",
          "type": "uint16"
        },
        {
          "internalType": "uint16",
          "name": "",
          "type": "uint16"
        }
      ],
      "name": "minDstGasLookup",
      "outputs": [
        {
          "internalType": "uint256",
          "name": "",
          "type": "uint256"
        }
      ],
      "stateMutability": "view",
      "type": "function"
    },
    {
      "inputs": [],
      "name": "name",
      "outputs": [
        {
          "internalType": "string",
          "name": "",
          "type": "string"
        }
      ],
      "stateMutability": "view",
      "type": "function"
    },
    {
      "inputs": [
        {
          "internalType": "uint16",
          "name": "_srcChainId",
          "type": "uint16"
        },
        {
          "internalType": "bytes",
          "name": "_srcAddress",
          "type": "bytes"
        },
        {
          "internalType": "uint64",
          "name": "_nonce",
          "type": "uint64"
        },
        {
          "internalType": "bytes",
          "name": "_payload",
          "type": "bytes"
        }
      ],
      "name": "nonblockingLzReceive",
      "outputs": [],
      "stateMutability": "nonpayable",
      "type": "function"
    },
    {
      "inputs": [],
      "name": "owner",
      "outputs": [
        {
          "internalType": "address",
          "name": "",
          "type": "address"
        }
      ],
      "stateMutability": "view",
      "type": "function"
    },
    {
      "inputs": [
        {
          "internalType": "uint16",
          "name": "",
          "type": "uint16"
        }
      ],
      "name": "payloadSizeLimitLookup",
      "outputs": [
        {
          "internalType": "uint256",
          "name": "",
          "type": "uint256"
        }
      ],
      "stateMutability": "view",
      "type": "function"
    },
    {
      "inputs": [],
      "name": "precrime",
      "outputs": [
        {
          "internalType": "address",
          "name": "",
          "type": "address"
        }
      ],
      "stateMutability": "view",
      "type": "function"
    },
    {
      "inputs": [],
      "name": "renounceOwnership",
      "outputs": [],
      "stateMutability": "nonpayable",
      "type": "function"
    },
    {
      "inputs": [
        {
          "internalType": "uint16",
          "name": "_srcChainId",
          "type": "uint16"
        },
        {
          "internalType": "bytes",
          "name": "_srcAddress",
          "type": "bytes"
        },
        {
          "internalType": "uint64",
          "name": "_nonce",
          "type": "uint64"
        },
        {
          "internalType": "bytes",
          "name": "_payload",
          "type": "bytes"
        }
      ],
      "name": "retryMessage",
      "outputs": [],
      "stateMutability": "payable",
      "type": "function"
    },
    {
      "inputs": [
        {
          "internalType": "address",
          "name": "_from",
          "type": "address"
        },
        {
          "internalType": "uint16",
          "name": "_dstChainId",
          "type": "uint16"
        },
        {
          "internalType": "bytes",
          "name": "_toAddress",
          "type": "bytes"
        },
        {
          "internalType": "uint256",
          "name": "_amount",
          "type": "uint256"
        },
        {
          "internalType": "address payable",
          "name": "_refundAddress",
          "type": "address"
        },
        {
          "internalType": "address",
          "name": "_zroPaymentAddress",
          "type": "address"
        },
        {
          "internalType": "bytes",
          "name": "_adapterParams",
          "type": "bytes"
        }
      ],
      "name": "sendFrom",
      "outputs": [],
      "stateMutability": "payable",
      "type": "function"
    },
    {
      "inputs": [
        {
          "internalType": "uint16",
          "name": "_version",
          "type": "uint16"
        },
        {
          "internalType": "uint16",
          "name": "_chainId",
          "type": "uint16"
        },
        {
          "internalType": "uint256",
          "name": "_configType",
          "type": "uint256"
        },
        {
          "internalType": "bytes",
          "name": "_config",
          "type": "bytes"
        }
      ],
      "name": "setConfig",
      "outputs": [],
      "stateMutability": "nonpayable",
      "type": "function"
    },
    {
      "inputs": [
        {
          "internalType": "uint16",
          "name": "_dstChainId",
          "type": "uint16"
        },
        {
          "internalType": "uint16",
          "name": "_packetType",
          "type": "uint16"
        },
        {
          "internalType": "uint256",
          "name": "_minGas",
          "type": "uint256"
        }
      ],
      "name": "setMinDstGas",
      "outputs": [],
      "stateMutability": "nonpayable",
      "type": "function"
    },
    {
      "inputs": [
        {
          "internalType": "uint16",
          "name": "_dstChainId",
          "type": "uint16"
        },
        {
          "internalType": "uint256",
          "name": "_size",
          "type": "uint256"
        }
      ],
      "name": "setPayloadSizeLimit",
      "outputs": [],
      "stateMutability": "nonpayable",
      "type": "function"
    },
    {
      "inputs": [
        {
          "internalType": "address",
          "name": "_precrime",
          "type": "address"
        }
      ],
      "name": "setPrecrime",
      "outputs": [],
      "stateMutability": "nonpayable",
      "type": "function"
    },
    {
      "inputs": [
        {
          "internalType": "uint16",
          "name": "_version",
          "type": "uint16"
        }
      ],
      "name": "setReceiveVersion",
      "outputs": [],
      "stateMutability": "nonpayable",
      "type": "function"
    },
    {
      "inputs": [
        {
          "internalType": "uint16",
          "name": "_version",
          "type": "uint16"
        }
      ],
      "name": "setSendVersion",
      "outputs": [],
      "stateMutability": "nonpayable",
      "type": "function"
    },
    {
      "inputs": [
        {
          "internalType": "uint16",
          "name": "_remoteChainId",
          "type": "uint16"
        },
        {
          "internalType": "bytes",
          "name": "_path",
          "type": "bytes"
        }
      ],
      "name": "setTrustedRemote",
      "outputs": [],
      "stateMutability": "nonpayable",
      "type": "function"
    },
    {
      "inputs": [
        {
          "internalType": "uint16",
          "name": "_remoteChainId",
          "type": "uint16"
        },
        {
          "internalType": "bytes",
          "name": "_remoteAddress",
          "type": "bytes"
        }
      ],
      "name": "setTrustedRemoteAddress",
      "outputs": [],
      "stateMutability": "nonpayable",
      "type": "function"
    },
    {
      "inputs": [
        {
          "internalType": "bool",
          "name": "_useCustomAdapterParams",
          "type": "bool"
        }
      ],
      "name": "setUseCustomAdapterParams",
      "outputs": [],
      "stateMutability": "nonpayable",
      "type": "function"
    },
    {
      "inputs": [
        {
          "internalType": "bytes4",
          "name": "interfaceId",
          "type": "bytes4"
        }
      ],
      "name": "supportsInterface",
      "outputs": [
        {
          "internalType": "bool",
          "name": "",
          "type": "bool"
        }
      ],
      "stateMutability": "view",
      "type": "function"
    },
    {
      "inputs": [],
      "name": "symbol",
      "outputs": [
        {
          "internalType": "string",
          "name": "",
          "type": "string"
        }
      ],
      "stateMutability": "view",
      "type": "function"
    },
    {
      "inputs": [],
      "name": "token",
      "outputs": [
        {
          "internalType": "address",
          "name": "",
          "type": "address"
        }
      ],
      "stateMutability": "view",
      "type": "function"
    },
    {
      "inputs": [],
      "name": "totalSupply",
      "outputs": [
        {
          "internalType": "uint256",
          "name": "",
          "type": "uint256"
        }
      ],
      "stateMutability": "view",
      "type": "function"
    },
    {
      "inputs": [
        {
          "internalType": "address",
          "name": "to",
          "type": "address"
        },
        {
          "internalType": "uint256",
          "name": "amount",
          "type": "uint256"
        }
      ],
      "name": "transfer",
      "outputs": [
        {
          "internalType": "bool",
          "name": "",
          "type": "bool"
        }
      ],
      "stateMutability": "nonpayable",
      "type": "function"
    },
    {
      "inputs": [
        {
          "internalType": "address",
          "name": "from",
          "type": "address"
        },
        {
          "internalType": "address",
          "name": "to",
          "type": "address"
        },
        {
          "internalType": "uint256",
          "name": "amount",
          "type": "uint256"
        }
      ],
      "name": "transferFrom",
      "outputs": [
        {
          "internalType": "bool",
          "name": "",
          "type": "bool"
        }
      ],
      "stateMutability": "nonpayable",
      "type": "function"
    },
    {
      "inputs": [
        {
          "internalType": "address",
          "name": "newOwner",
          "type": "address"
        }
      ],
      "name": "transferOwnership",
      "outputs": [],
      "stateMutability": "nonpayable",
      "type": "function"
    },
    {
      "inputs": [
        {
          "internalType": "uint16",
          "name": "",
          "type": "uint16"
        }
      ],
      "name": "trustedRemoteLookup",
      "outputs": [
        {
          "internalType": "bytes",
          "name": "",
          "type": "bytes"
        }
      ],
      "stateMutability": "view",
      "type": "function"
    },
    {
      "inputs": [],
      "name": "useCustomAdapterParams",
      "outputs": [
        {
          "internalType": "bool",
          "name": "",
          "type": "bool"
        }
      ],
      "stateMutability": "view",
      "type": "function"
    },
    {
      "inputs": [
        {
          "internalType": "uint256",
          "name": "_amount",
          "type": "uint256"
        }
      ],
      "name": "withdraw",
      "outputs": [],
      "stateMutability": "nonpayable",
      "type": "function"
    },
    {
      "stateMutability": "payable",
      "type": "receive"
    }
  ],
  "bytecode": {
    "object": "0x60a06040523480156200001157600080fd5b5060405162003c2838038062003c288339810160408190526200003491620001a0565b8282828282828080620000473362000088565b6001600160a01b031660805250600a9050620000648382620002be565b50600b620000738282620002be565b50506001600c55506200038a95505050505050565b600080546001600160a01b038381166001600160a01b0319831681178455604051919092169283917f8be0079c531659141344cd1fd0a4f28419497f9722a3daafe3b4186f6b6457e09190a35050565b634e487b7160e01b600052604160045260246000fd5b600082601f8301126200010057600080fd5b81516001600160401b03808211156200011d576200011d620000d8565b604051601f8301601f19908116603f01168101908282118183101715620001485762000148620000d8565b81604052838152602092508660208588010111156200016657600080fd5b600091505b838210156200018a57858201830151818301840152908201906200016b565b6000602085830101528094505050505092915050565b600080600060608486031215620001b657600080fd5b83516001600160401b0380821115620001ce57600080fd5b620001dc87838801620000ee565b94506020860151915080821115620001f357600080fd5b506200020286828701620000ee565b604086015190935090506001600160a01b03811681146200022257600080fd5b809150509250925092565b600181811c908216806200024257607f821691505b6020821081036200026357634e487b7160e01b600052602260045260246000fd5b50919050565b601f821115620002b9576000816000526020600020601f850160051c81016020861015620002945750805b601f850160051c820191505b81811015620002b557828155600101620002a0565b5050505b505050565b81516001600160401b03811115620002da57620002da620000d8565b620002f281620002eb84546200022d565b8462000269565b602080601f8311600181146200032a5760008415620003115750858301515b600019600386901b1c1916600185901b178555620002b5565b600085815260208120601f198616915b828110156200035b578886015182559484019460019091019084016200033a565b50858210156200037a5787850151600019600388901b60f8161c191681555b5050505050600190811b01905550565b60805161384a620003de600039600081816107430152818161090701528181610c2601528181610ce601528181610d840152818161106d015281816115a601528181611a0601526126fc015261384a6000f3fe60806040526004361061028b5760003560e01c80637533d7881161015a578063c4461834116100c1578063eab45d9c1161007a578063eab45d9c14610816578063eb8d72b714610836578063ed629c5c14610856578063f2fde38b14610870578063f5ecbdbc14610890578063fc0c546a146108b057600080fd5b8063c446183414610785578063cbed8b9c1461079b578063d0e30db0146107bb578063d1deba1f146107c3578063dd62ed3e146107d6578063df2a5b3b146107f657600080fd5b80639f38369a116101135780639f38369a146106b1578063a457c2d7146106d1578063a6c3d165146106f1578063a9059cbb14610711578063b353aaa714610731578063baf3292d1461076557600080fd5b80637533d788146105dd5780638cfd8f5c146105fd5780638da5cb5b146106355780639358928b14610667578063950c8a741461067c57806395d89b411461069c57600080fd5b8063313ce567116101fe5780634c42899a116101b75780634c42899a146104e857806351905636146105105780635b8c41e61461052357806366ad5c8a1461057257806370a0823114610592578063715018a6146105c857600080fd5b8063313ce5671461042a57806339509351146104465780633d8b38f6146104665780633f1f4fa41461048657806342d65a8d146104b357806344770515146104d357600080fd5b80630df37483116102505780630df374831461035657806310ddb1371461037657806318160ddd1461039657806323b872dd146103b55780632a205e3d146103d55780632e1a7d4d1461040a57600080fd5b80621d35671461029f57806301ffc9a7146102bf57806306fdde03146102f457806307e0db1714610316578063095ea7b31461033657600080fd5b3661029a576102986108c3565b005b600080fd5b3480156102ab57600080fd5b506102986102ba366004612b85565b610904565b3480156102cb57600080fd5b506102df6102da366004612c1a565b610b35565b60405190151581526020015b60405180910390f35b34801561030057600080fd5b50610309610b73565b6040516102eb9190612c94565b34801561032257600080fd5b50610298610331366004612ca7565b610c05565b34801561034257600080fd5b506102df610351366004612cd9565b610c8e565b34801561036257600080fd5b50610298610371366004612d05565b610ca6565b34801561038257600080fd5b50610298610391366004612ca7565b610cc5565b3480156103a257600080fd5b506009545b6040519081526020016102eb565b3480156103c157600080fd5b506102df6103d0366004612d23565b610d1d565b3480156103e157600080fd5b506103f56103f0366004612d74565b610d41565b604080519283526020830191909152016102eb565b34801561041657600080fd5b50610298610425366004612e13565b610e14565b34801561043657600080fd5b50604051601281526020016102eb565b34801561045257600080fd5b506102df610461366004612cd9565b610f60565b34801561047257600080fd5b506102df610481366004612e2c565b610f82565b34801561049257600080fd5b506103a76104a1366004612ca7565b60036020526000908152604090205481565b3480156104bf57600080fd5b506102986104ce366004612e2c565b61104e565b3480156104df57600080fd5b506103a7600081565b3480156104f457600080fd5b506104fd600081565b60405161ffff90911681526020016102eb565b61029861051e366004612e80565b6110d4565b34801561052f57600080fd5b506103a761053e366004612fb6565b6005602090815260009384526040808520845180860184018051928152908401958401959095209452929052825290205481565b34801561057e57600080fd5b5061029861058d366004612b85565b611159565b34801561059e57600080fd5b506103a76105ad366004613058565b6001600160a01b031660009081526007602052604090205490565b3480156105d457600080fd5b50610298611235565b3480156105e957600080fd5b506103096105f8366004612ca7565b611249565b34801561060957600080fd5b506103a7610618366004613075565b600260209081526000928352604080842090915290825290205481565b34801561064157600080fd5b506000546001600160a01b03165b6040516001600160a01b0390911681526020016102eb565b34801561067357600080fd5b506103a76112e3565b34801561068857600080fd5b5060045461064f906001600160a01b031681565b3480156106a857600080fd5b506103096112f3565b3480156106bd57600080fd5b506103096106cc366004612ca7565b611302565b3480156106dd57600080fd5b506102df6106ec366004612cd9565b611418565b3480156106fd57600080fd5b5061029861070c366004612e2c565b611493565b34801561071d57600080fd5b506102df61072c366004612cd9565b61151c565b34801561073d57600080fd5b5061064f7f000000000000000000000000000000000000000000000000000000000000000081565b34801561077157600080fd5b50610298610780366004613058565b61152a565b34801561079157600080fd5b506103a761271081565b3480156107a757600080fd5b506102986107b63660046130ae565b611587565b6102986108c3565b6102986107d1366004612b85565b611611565b3480156107e257600080fd5b506103a76107f1366004613120565b611827565b34801561080257600080fd5b5061029861081136600461314e565b611852565b34801561082257600080fd5b5061029861083136600461317e565b6118bc565b34801561084257600080fd5b50610298610851366004612e2c565b611905565b34801561086257600080fd5b506006546102df9060ff1681565b34801561087c57600080fd5b5061029861088b366004613058565b61195f565b34801561089c57600080fd5b506103096108ab366004613199565b6119d5565b3480156108bc57600080fd5b503061064f565b6108cd3334611a86565b60405134815233907fe1fffcc4923d04b559f4d29a8bfc6cda04eb5b0d3c460751c2402c5c5cc9109c9060200160405180910390a2565b337f00000000000000000000000000000000000000000000000000000000000000006001600160a01b0316146109815760405162461bcd60e51b815260206004820152601e60248201527f4c7a4170703a20696e76616c696420656e64706f696e742063616c6c6572000060448201526064015b60405180910390fd5b61ffff86166000908152600160205260408120805461099f906131ea565b80601f01602080910402602001604051908101604052809291908181526020018280546109cb906131ea565b8015610a185780601f106109ed57610100808354040283529160200191610a18565b820191906000526020600020905b8154815290600101906020018083116109fb57829003601f168201915b50505050509050805186869050148015610a33575060008151115b8015610a5b575080516020820120604051610a51908890889061321e565b6040518091039020145b610ab65760405162461bcd60e51b815260206004820152602660248201527f4c7a4170703a20696e76616c696420736f757263652073656e64696e6720636f6044820152651b9d1c9858dd60d21b6064820152608401610978565b610b2c8787878080601f01602080910402602001604051908101604052809392919081815260200183838082843760009201919091525050604080516020601f8a018190048102820181019092528881528a935091508890889081908401838280828437600092019190915250611b4792505050565b50505050505050565b60006001600160e01b031982161580610b5e57506001600160e01b031982166336372b0760e01b145b80610b6d5750610b6d82611bc0565b92915050565b6060600a8054610b82906131ea565b80601f0160208091040260200160405190810160405280929190818152602001828054610bae906131ea565b8015610bfb5780601f10610bd057610100808354040283529160200191610bfb565b820191906000526020600020905b815481529060010190602001808311610bde57829003601f168201915b5050505050905090565b610c0d611bf5565b6040516307e0db1760e01b815261ffff821660048201527f00000000000000000000000000000000000000000000000000000000000000006001600160a01b0316906307e0db17906024015b600060405180830381600087803b158015610c7357600080fd5b505af1158015610c87573d6000803e3d6000fd5b5050505050565b600033610c9c818585611c4f565b5060019392505050565b610cae611bf5565b61ffff909116600090815260036020526040902055565b610ccd611bf5565b6040516310ddb13760e01b815261ffff821660048201527f00000000000000000000000000000000000000000000000000000000000000006001600160a01b0316906310ddb13790602401610c59565b600033610d2b858285611d74565b610d36858585611dee565b506001949350505050565b600080600080898989604051602001610d5d9493929190613257565b60408051601f198184030181529082905263040a7bb160e41b825291506001600160a01b037f000000000000000000000000000000000000000000000000000000000000000016906340a7bb1090610dc3908d90309086908c908c908c90600401613286565b6040805180830381865afa158015610ddf573d6000803e3d6000fd5b505050506040513d601f19601f82011682018060405250810190610e0391906132dc565b925092505097509795505050505050565b610e1c611f99565b33600090815260076020526040902054811115610e7b5760405162461bcd60e51b815260206004820181905260248201527f4e61746976654f46543a20496e73756666696369656e742062616c616e63652e6044820152606401610978565b610e853382611ff2565b604051600090339083908381818185875af1925050503d8060008114610ec7576040519150601f19603f3d011682016040523d82523d6000602084013e610ecc565b606091505b5050905080610f1d5760405162461bcd60e51b815260206004820152601b60248201527f4e61746976654f46543a206661696c656420746f20756e7772617000000000006044820152606401610978565b60405182815233907f7fcf532c15f0a6db0bd6d0e038bea71d30d808c7d98cb3bf7268a95bf5081b659060200160405180910390a250610f5d6001600c55565b50565b600033610c9c818585610f738383611827565b610f7d9190613316565b611c4f565b61ffff831660009081526001602052604081208054829190610fa3906131ea565b80601f0160208091040260200160405190810160405280929190818152602001828054610fcf906131ea565b801561101c5780601f10610ff15761010080835404028352916020019161101c565b820191906000526020600020905b815481529060010190602001808311610fff57829003601f168201915b50505050509050838360405161103392919061321e565b60405180910390208180519060200120149150509392505050565b611056611bf5565b6040516342d65a8d60e01b81526001600160a01b037f000000000000000000000000000000000000000000000000000000000000000016906342d65a8d906110a690869086908690600401613329565b600060405180830381600087803b1580156110c057600080fd5b505af1158015610b2c573d6000803e3d6000fd5b61114e898989898080601f01602080910402602001604051908101604052809392919081815260200183838082843760009201919091525050604080516020601f8a018190048102820181019092528881528c93508b92508a918a908a908190840183828082843760009201919091525061212392505050565b505050505050505050565b3330146111b75760405162461bcd60e51b815260206004820152602660248201527f4e6f6e626c6f636b696e674c7a4170703a2063616c6c6572206d7573742062656044820152650204c7a4170760d41b6064820152608401610978565b61122d8686868080601f01602080910402602001604051908101604052809392919081815260200183838082843760009201919091525050604080516020601f8901819004810282018101909252878152899350915087908790819084018382808284376000920191909152506121e992505050565b505050505050565b61123d611bf5565b6112476000612250565b565b60016020526000908152604090208054611262906131ea565b80601f016020809104026020016040519081016040528092919081815260200182805461128e906131ea565b80156112db5780601f106112b0576101008083540402835291602001916112db565b820191906000526020600020905b8154815290600101906020018083116112be57829003601f168201915b505050505081565b60006112ee60095490565b905090565b6060600b8054610b82906131ea565b61ffff8116600090815260016020526040812080546060929190611325906131ea565b80601f0160208091040260200160405190810160405280929190818152602001828054611351906131ea565b801561139e5780601f106113735761010080835404028352916020019161139e565b820191906000526020600020905b81548152906001019060200180831161138157829003601f168201915b5050505050905080516000036113f65760405162461bcd60e51b815260206004820152601d60248201527f4c7a4170703a206e6f20747275737465642070617468207265636f72640000006044820152606401610978565b6114116000601483516114099190613347565b8391906122a0565b9392505050565b600033816114268286611827565b9050838110156114865760405162461bcd60e51b815260206004820152602560248201527f45524332303a2064656372656173656420616c6c6f77616e63652062656c6f77604482015264207a65726f60d81b6064820152608401610978565b610d368286868403611c4f565b61149b611bf5565b8181306040516020016114b09392919061335a565b60408051601f1981840301815291815261ffff85166000908152600160205220906114db90826133c8565b507f8c0400cfe2d1199b1a725c78960bcc2a344d869b80590d0f2bd005db15a572ce83838360405161150f93929190613329565b60405180910390a1505050565b600033610c9c818585611dee565b611532611bf5565b600480546001600160a01b0319166001600160a01b0383169081179091556040519081527f5db758e995a17ec1ad84bdef7e8c3293a0bd6179bcce400dff5d4c3d87db726b906020015b60405180910390a150565b61158f611bf5565b6040516332fb62e760e21b81526001600160a01b037f0000000000000000000000000000000000000000000000000000000000000000169063cbed8b9c906115e39088908890889088908890600401613487565b600060405180830381600087803b1580156115fd57600080fd5b505af115801561114e573d6000803e3d6000fd5b61ffff86166000908152600560205260408082209051611634908890889061321e565b90815260408051602092819003830190206001600160401b038716600090815292529020549050806116b45760405162461bcd60e51b815260206004820152602360248201527f4e6f6e626c6f636b696e674c7a4170703a206e6f2073746f726564206d65737360448201526261676560e81b6064820152608401610978565b8083836040516116c592919061321e565b6040518091039020146117245760405162461bcd60e51b815260206004820152602160248201527f4e6f6e626c6f636b696e674c7a4170703a20696e76616c6964207061796c6f616044820152601960fa1b6064820152608401610978565b61ffff87166000908152600560205260408082209051611747908990899061321e565b90815260408051602092819003830181206001600160401b038916600090815290845282902093909355601f880182900482028301820190528682526117df918991899089908190840183828082843760009201919091525050604080516020601f8a018190048102820181019092528881528a9350915088908890819084018382808284376000920191909152506121e992505050565b7fc264d91f3adc5588250e1551f547752ca0cfa8f6b530d243b9f9f4cab10ea8e587878787856040516118169594939291906134c0565b60405180910390a150505050505050565b6001600160a01b03918216600090815260086020908152604080832093909416825291909152205490565b61185a611bf5565b61ffff83811660008181526002602090815260408083209487168084529482529182902085905581519283528201929092529081018290527f9d5c7c0b934da8fefa9c7760c98383778a12dfbfc0c3b3106518f43fb9508ac09060600161150f565b6118c4611bf5565b6006805460ff19168215159081179091556040519081527f1584ad594a70cbe1e6515592e1272a987d922b097ead875069cebe8b40c004a49060200161157c565b61190d611bf5565b61ffff8316600090815260016020526040902061192b8284836134fb565b507ffa41487ad5d6728f0b19276fa1eddc16558578f5109fc39d2dc33c3230470dab83838360405161150f93929190613329565b611967611bf5565b6001600160a01b0381166119cc5760405162461bcd60e51b815260206004820152602660248201527f4f776e61626c653a206e6577206f776e657220697320746865207a65726f206160448201526564647265737360d01b6064820152608401610978565b610f5d81612250565b604051633d7b2f6f60e21b815261ffff808616600483015284166024820152306044820152606481018290526060907f00000000000000000000000000000000000000000000000000000000000000006001600160a01b03169063f5ecbdbc90608401600060405180830381865afa158015611a55573d6000803e3d6000fd5b505050506040513d6000823e601f3d908101601f19168201604052611a7d9190810190613607565b95945050505050565b6001600160a01b038216611adc5760405162461bcd60e51b815260206004820152601f60248201527f45524332303a206d696e7420746f20746865207a65726f2061646472657373006044820152606401610978565b8060096000828254611aee9190613316565b90915550506001600160a01b0382166000818152600760209081526040808320805486019055518481527fddf252ad1be2c89b69c2b068fc378daa952ba7f163c4a11628f55a4df523b3ef910160405180910390a35050565b600080611baa5a60966366ad5c8a60e01b89898989604051602401611b6f949392919061363b565b60408051601f198184030181529190526020810180516001600160e01b03166001600160e01b031990931692909217909152309291906123ad565b915091508161122d5761122d8686868685612437565b60006001600160e01b03198216630a72677560e11b1480610b6d57506301ffc9a760e01b6001600160e01b0319831614610b6d565b6000546001600160a01b031633146112475760405162461bcd60e51b815260206004820181905260248201527f4f776e61626c653a2063616c6c6572206973206e6f7420746865206f776e65726044820152606401610978565b6001600160a01b038316611cb15760405162461bcd60e51b8152602060048201526024808201527f45524332303a20617070726f76652066726f6d20746865207a65726f206164646044820152637265737360e01b6064820152608401610978565b6001600160a01b038216611d125760405162461bcd60e51b815260206004820152602260248201527f45524332303a20617070726f766520746f20746865207a65726f206164647265604482015261737360f01b6064820152608401610978565b6001600160a01b0383811660008181526008602090815260408083209487168084529482529182902085905590518481527f8c5be1e5ebec7d5bd14f71427d1e84f3dd0314c0f7b2291e5b200ac8c7c3b92591015b60405180910390a3505050565b6000611d808484611827565b90506000198114611de85781811015611ddb5760405162461bcd60e51b815260206004820152601d60248201527f45524332303a20696e73756666696369656e7420616c6c6f77616e63650000006044820152606401610978565b611de88484848403611c4f565b50505050565b6001600160a01b038316611e525760405162461bcd60e51b815260206004820152602560248201527f45524332303a207472616e736665722066726f6d20746865207a65726f206164604482015264647265737360d81b6064820152608401610978565b6001600160a01b038216611eb45760405162461bcd60e51b815260206004820152602360248201527f45524332303a207472616e7366657220746f20746865207a65726f206164647260448201526265737360e81b6064820152608401610978565b6001600160a01b03831660009081526007602052604090205481811015611f2c5760405162461bcd60e51b815260206004820152602660248201527f45524332303a207472616e7366657220616d6f756e7420657863656564732062604482015265616c616e636560d01b6064820152608401610978565b6001600160a01b0380851660008181526007602052604080822086860390559286168082529083902080548601905591517fddf252ad1be2c89b69c2b068fc378daa952ba7f163c4a11628f55a4df523b3ef90611f8c9086815260200190565b60405180910390a3611de8565b6002600c5403611feb5760405162461bcd60e51b815260206004820152601f60248201527f5265656e7472616e637947756172643a207265656e7472616e742063616c6c006044820152606401610978565b6002600c55565b6001600160a01b0382166120525760405162461bcd60e51b815260206004820152602160248201527f45524332303a206275726e2066726f6d20746865207a65726f206164647265736044820152607360f81b6064820152608401610978565b6001600160a01b038216600090815260076020526040902054818110156120c65760405162461bcd60e51b815260206004820152602260248201527f45524332303a206275726e20616d6f756e7420657863656564732062616c616e604482015261636560f01b6064820152608401610978565b6001600160a01b03831660008181526007602090815260408083208686039055600980548790039055518581529192917fddf252ad1be2c89b69c2b068fc378daa952ba7f163c4a11628f55a4df523b3ef9101611d67565b505050565b6000612131888888886124d4565b9050600080878760405160200161214a93929190613679565b60408051601f1981840301815291905260065490915060ff161561217b576121768860008560006124fe565b6121db565b8251156121db5760405162461bcd60e51b815260206004820152602860248201527f4e61746976654f46543a205f61646170746572506172616d73206d7573742062604482015267329032b6b83a3c9760c11b6064820152608401610978565b61114e8882878787876125d3565b602081015161ffff81166122085761220385858585612778565b610c87565b60405162461bcd60e51b815260206004820152601c60248201527f4f4654436f72653a20756e6b6e6f776e207061636b65742074797065000000006044820152606401610978565b600080546001600160a01b038381166001600160a01b0319831681178455604051919092169283917f8be0079c531659141344cd1fd0a4f28419497f9722a3daafe3b4186f6b6457e09190a35050565b6060816122ae81601f613316565b10156122ed5760405162461bcd60e51b815260206004820152600e60248201526d736c6963655f6f766572666c6f7760901b6044820152606401610978565b6122f78284613316565b8451101561233b5760405162461bcd60e51b8152602060048201526011602482015270736c6963655f6f75744f66426f756e647360781b6044820152606401610978565b60608215801561235a57604051915060008252602082016040526123a4565b6040519150601f8416801560200281840101858101878315602002848b0101015b8183101561239357805183526020928301920161237b565b5050858452601f01601f1916604052505b50949350505050565b6000606060008060008661ffff166001600160401b038111156123d2576123d2612f49565b6040519080825280601f01601f1916602001820160405280156123fc576020820181803683370190505b50905060008087516020890160008d8df191503d92508683111561241e578692505b828152826000602083013e909890975095505050505050565b8180519060200120600560008761ffff1661ffff1681526020019081526020016000208560405161246891906136a6565b9081526040805191829003602090810183206001600160401b0388166000908152915220919091557fe183f33de2837795525b4792ca4cd60535bd77c53b7e7030060bfcf5734d6b0c906124c590879087908790879087906136c2565b60405180910390a15050505050565b6000336001600160a01b038616146124f5576124f08583612802565b611a7d565b611a7d826128a7565b600061250983612927565b61ffff8087166000908152600260209081526040808320938916835292905220549091508061257a5760405162461bcd60e51b815260206004820152601a60248201527f4c7a4170703a206d696e4761734c696d6974206e6f74207365740000000000006044820152606401610978565b6125848382613316565b82101561122d5760405162461bcd60e51b815260206004820152601b60248201527f4c7a4170703a20676173206c696d697420697320746f6f206c6f7700000000006044820152606401610978565b61ffff8616600090815260016020526040812080546125f1906131ea565b80601f016020809104026020016040519081016040528092919081815260200182805461261d906131ea565b801561266a5780601f1061263f5761010080835404028352916020019161266a565b820191906000526020600020905b81548152906001019060200180831161264d57829003601f168201915b5050505050905080516000036126db5760405162461bcd60e51b815260206004820152603060248201527f4c7a4170703a2064657374696e6174696f6e20636861696e206973206e6f742060448201526f61207472757374656420736f7572636560801b6064820152608401610978565b6126e6878751612983565b60405162c5803160e81b81526001600160a01b037f0000000000000000000000000000000000000000000000000000000000000000169063c580310090849061273d908b9086908c908c908c908c90600401613720565b6000604051808303818588803b15801561275657600080fd5b505af115801561276a573d6000803e3d6000fd5b505050505050505050505050565b6000808280602001905181019061278f919061377a565b9093509150600090506127a283826129f4565b90506127af878284612a59565b9150806001600160a01b03168761ffff167fbf551ec93859b170f9b2141bd9298bf3f64322c6f7beb2543a0cb669834118bf846040516127f191815260200190565b60405180910390a350505050505050565b6001600160a01b03821660009081526007602052604081205482811015612886578261282e3483613316565b101561284c5760405162461bcd60e51b8152600401610978906137d3565b60006128588285613347565b90506128643382611a86565b61286f333083611dee565b819350803461287e9190613347565b92505061288a565b3491505b612895843385611d74565b6128a0843085611dee565b5092915050565b336000908152600760205260408120548281101561291257826128ca3483613316565b10156128e85760405162461bcd60e51b8152600401610978906137d3565b60006128f48285613347565b90506129003382611a86565b61290a8134613347565b925050612916565b3491505b612921333085611dee565b50919050565b600060228251101561297b5760405162461bcd60e51b815260206004820152601c60248201527f4c7a4170703a20696e76616c69642061646170746572506172616d73000000006044820152606401610978565b506022015190565b61ffff8216600090815260036020526040812054908190036129a457506127105b8082111561211e5760405162461bcd60e51b815260206004820181905260248201527f4c7a4170703a207061796c6f61642073697a6520697320746f6f206c617267656044820152606401610978565b6000612a01826014613316565b83511015612a495760405162461bcd60e51b8152602060048201526015602482015274746f416464726573735f6f75744f66426f756e647360581b6044820152606401610978565b500160200151600160601b900490565b6000612a653083611ff2565b6000836001600160a01b03168360405160006040518083038185875af1925050503d8060008114612ab2576040519150601f19603f3d011682016040523d82523d6000602084013e612ab7565b606091505b5050905080612b085760405162461bcd60e51b815260206004820152601e60248201527f4e61746976654f46543a206661696c656420746f205f637265646974546f00006044820152606401610978565b50909392505050565b61ffff81168114610f5d57600080fd5b60008083601f840112612b3357600080fd5b5081356001600160401b03811115612b4a57600080fd5b602083019150836020828501011115612b6257600080fd5b9250929050565b80356001600160401b0381168114612b8057600080fd5b919050565b60008060008060008060808789031215612b9e57600080fd5b8635612ba981612b11565b955060208701356001600160401b0380821115612bc557600080fd5b612bd18a838b01612b21565b9097509550859150612be560408a01612b69565b94506060890135915080821115612bfb57600080fd5b50612c0889828a01612b21565b979a9699509497509295939492505050565b600060208284031215612c2c57600080fd5b81356001600160e01b03198116811461141157600080fd5b60005b83811015612c5f578181015183820152602001612c47565b50506000910152565b60008151808452612c80816020860160208601612c44565b601f01601f19169290920160200192915050565b6020815260006114116020830184612c68565b600060208284031215612cb957600080fd5b813561141181612b11565b6001600160a01b0381168114610f5d57600080fd5b60008060408385031215612cec57600080fd5b8235612cf781612cc4565b946020939093013593505050565b60008060408385031215612d1857600080fd5b8235612cf781612b11565b600080600060608486031215612d3857600080fd5b8335612d4381612cc4565b92506020840135612d5381612cc4565b929592945050506040919091013590565b80358015158114612b8057600080fd5b600080600080600080600060a0888a031215612d8f57600080fd5b8735612d9a81612b11565b965060208801356001600160401b0380821115612db657600080fd5b612dc28b838c01612b21565b909850965060408a01359550869150612ddd60608b01612d64565b945060808a0135915080821115612df357600080fd5b50612e008a828b01612b21565b989b979a50959850939692959293505050565b600060208284031215612e2557600080fd5b5035919050565b600080600060408486031215612e4157600080fd5b8335612e4c81612b11565b925060208401356001600160401b03811115612e6757600080fd5b612e7386828701612b21565b9497909650939450505050565b600080600080600080600080600060e08a8c031215612e9e57600080fd5b8935612ea981612cc4565b985060208a0135612eb981612b11565b975060408a01356001600160401b0380821115612ed557600080fd5b612ee18d838e01612b21565b909950975060608c0135965060808c01359150612efd82612cc4565b90945060a08b013590612f0f82612cc4565b90935060c08b01359080821115612f2557600080fd5b50612f328c828d01612b21565b915080935050809150509295985092959850929598565b634e487b7160e01b600052604160045260246000fd5b604051601f8201601f191681016001600160401b0381118282101715612f8757612f87612f49565b604052919050565b60006001600160401b03821115612fa857612fa8612f49565b50601f01601f191660200190565b600080600060608486031215612fcb57600080fd5b8335612fd681612b11565b925060208401356001600160401b03811115612ff157600080fd5b8401601f8101861361300257600080fd5b803561301561301082612f8f565b612f5f565b81815287602083850101111561302a57600080fd5b8160208401602083013760006020838301015280945050505061304f60408501612b69565b90509250925092565b60006020828403121561306a57600080fd5b813561141181612cc4565b6000806040838503121561308857600080fd5b823561309381612b11565b915060208301356130a381612b11565b809150509250929050565b6000806000806000608086880312156130c657600080fd5b85356130d181612b11565b945060208601356130e181612b11565b93506040860135925060608601356001600160401b0381111561310357600080fd5b61310f88828901612b21565b969995985093965092949392505050565b6000806040838503121561313357600080fd5b823561313e81612cc4565b915060208301356130a381612cc4565b60008060006060848603121561316357600080fd5b833561316e81612b11565b92506020840135612d5381612b11565b60006020828403121561319057600080fd5b61141182612d64565b600080600080608085870312156131af57600080fd5b84356131ba81612b11565b935060208501356131ca81612b11565b925060408501356131da81612cc4565b9396929550929360600135925050565b600181811c908216806131fe57607f821691505b60208210810361292157634e487b7160e01b600052602260045260246000fd5b8183823760009101908152919050565b81835281816020850137506000828201602090810191909152601f909101601f19169091010190565b61ffff8516815260606020820152600061327560608301858761322e565b905082604083015295945050505050565b61ffff871681526001600160a01b038616602082015260a0604082018190526000906132b490830187612c68565b851515606084015282810360808401526132cf81858761322e565b9998505050505050505050565b600080604083850312156132ef57600080fd5b505080516020909101519092909150565b634e487b7160e01b600052601160045260246000fd5b80820180821115610b6d57610b6d613300565b61ffff84168152604060208201526000611a7d60408301848661322e565b81810381811115610b6d57610b6d613300565b8284823760609190911b6bffffffffffffffffffffffff19169101908152601401919050565b601f82111561211e576000816000526020600020601f850160051c810160208610156133a95750805b601f850160051c820191505b8181101561122d578281556001016133b5565b81516001600160401b038111156133e1576133e1612f49565b6133f5816133ef84546131ea565b84613380565b602080601f83116001811461342a57600084156134125750858301515b600019600386901b1c1916600185901b17855561122d565b600085815260208120601f198616915b828110156134595788860151825594840194600190910190840161343a565b50858210156134775787850151600019600388901b60f8161c191681555b5050505050600190811b01905550565b600061ffff8088168352808716602084015250846040830152608060608301526134b560808301848661322e565b979650505050505050565b61ffff861681526080602082015260006134de60808301868861322e565b6001600160401b0394909416604083015250606001529392505050565b6001600160401b0383111561351257613512612f49565b6135268361352083546131ea565b83613380565b6000601f84116001811461355a57600085156135425750838201355b600019600387901b1c1916600186901b178355610c87565b600083815260209020601f19861690835b8281101561358b578685013582556020948501946001909201910161356b565b50868210156135a85760001960f88860031b161c19848701351681555b505060018560011b0183555050505050565b600082601f8301126135cb57600080fd5b81516135d961301082612f8f565b8181528460208386010111156135ee57600080fd5b6135ff826020830160208701612c44565b949350505050565b60006020828403121561361957600080fd5b81516001600160401b0381111561362f57600080fd5b6135ff848285016135ba565b61ffff851681526080602082015260006136586080830186612c68565b6001600160401b038516604084015282810360608401526134b58185612c68565b61ffff841681526060602082015260006136966060830185612c68565b9050826040830152949350505050565b600082516136b8818460208701612c44565b9190910192915050565b61ffff8616815260a0602082015260006136df60a0830187612c68565b6001600160401b038616604084015282810360608401526137008186612c68565b905082810360808401526137148185612c68565b98975050505050505050565b61ffff8716815260c06020820152600061373d60c0830188612c68565b828103604084015261374f8188612c68565b6001600160a01b0387811660608601528616608085015283810360a085015290506132cf8185612c68565b60008060006060848603121561378f57600080fd5b835161379a81612b11565b60208501519093506001600160401b038111156137b657600080fd5b6137c2868287016135ba565b925050604084015190509250925092565b60208082526021908201527f4e61746976654f46543a20496e73756666696369656e74206d73672e76616c756040820152606560f81b60608201526080019056fea2646970667358221220c4b5ccd6806ebd636746e38f52d2515fd38018dfa30b42e727b181f6827a3c1e64736f6c63430008160033",
    "linkReferences": {}
  },
  "methodIdentifiers": {
    "DEFAULT_PAYLOAD_SIZE_LIMIT()": "c4461834",
    "NO_EXTRA_GAS()": "44770515",
    "PT_SEND()": "4c42899a",
    "allowance(address,address)": "dd62ed3e",
    "approve(address,uint256)": "095ea7b3",
    "balanceOf(address)": "70a08231",
    "circulatingSupply()": "9358928b",
    "decimals()": "313ce567",
    "decreaseAllowance(address,uint256)": "a457c2d7",
    "deposit()": "d0e30db0",
    "estimateSendFee(uint16,bytes,uint256,bool,bytes)": "2a205e3d",
    "failedMessages(uint16,bytes,uint64)": "5b8c41e6",
    "forceResumeReceive(uint16,bytes)": "42d65a8d",
    "getConfig(uint16,uint16,address,uint256)": "f5ecbdbc",
    "getTrustedRemoteAddress(uint16)": "9f38369a",
    "increaseAllowance(address,uint256)": "39509351",
    "isTrustedRemote(uint16,bytes)": "3d8b38f6",
    "lzEndpoint()": "b353aaa7",
    "lzReceive(uint16,bytes,uint64,bytes)": "001d3567",
    "minDstGasLookup(uint16,uint16)": "8cfd8f5c",
    "name()": "06fdde03",
    "nonblockingLzReceive(uint16,bytes,uint64,bytes)": "66ad5c8a",
    "owner()": "8da5cb5b",
    "payloadSizeLimitLookup(uint16)": "3f1f4fa4",
    "precrime()": "950c8a74",
    "renounceOwnership()": "715018a6",
    "retryMessage(uint16,bytes,uint64,bytes)": "d1deba1f",
    "sendFrom(address,uint16,bytes,uint256,address,address,bytes)": "51905636",
    "setConfig(uint16,uint16,uint256,bytes)": "cbed8b9c",
    "setMinDstGas(uint16,uint16,uint256)": "df2a5b3b",
    "setPayloadSizeLimit(uint16,uint256)": "0df37483",
    "setPrecrime(address)": "baf3292d",
    "setReceiveVersion(uint16)": "10ddb137",
    "setSendVersion(uint16)": "07e0db17",
    "setTrustedRemote(uint16,bytes)": "eb8d72b7",
    "setTrustedRemoteAddress(uint16,bytes)": "a6c3d165",
    "setUseCustomAdapterParams(bool)": "eab45d9c",
    "supportsInterface(bytes4)": "01ffc9a7",
    "symbol()": "95d89b41",
    "token()": "fc0c546a",
    "totalSupply()": "18160ddd",
    "transfer(address,uint256)": "a9059cbb",
    "transferFrom(address,address,uint256)": "23b872dd",
    "transferOwnership(address)": "f2fde38b",
    "trustedRemoteLookup(uint16)": "7533d788",
    "useCustomAdapterParams()": "ed629c5c",
    "withdraw(uint256)": "2e1a7d4d"
  },
  "id": 13
}