{
  "abi": [
    {
      "inputs": [
        {
          "internalType": "address",
          "name": "_lzEndpoint",
          "type": "address"
        }
      ],
      "stateMutability": "nonpayable",
      "type": "constructor"
    },
    {
      "anonymous": false,
      "inputs": [
        {
          "indexed": false,
          "internalType": "uint16",
          "name": "_srcChainId",
          "type": "uint16"
        },
        {
          "indexed": false,
          "internalType": "bytes",
          "name": "_srcAddress",
          "type": "bytes"
        },
        {
          "indexed": false,
          "internalType": "uint64",
          "name": "_nonce",
          "type": "uint64"
        },
        {
          "indexed": false,
          "internalType": "bytes",
          "name": "_payload",
          "type": "bytes"
        },
        {
          "indexed": false,
          "internalType": "bytes",
          "name": "_reason",
          "type": "bytes"
        }
      ],
      "name": "MessageFailed",
      "type": "event"
    },
    {
      "anonymous": false,
      "inputs": [
        {
          "indexed": true,
          "internalType": "address",
          "name": "previousOwner",
          "type": "address"
        },
        {
          "indexed": true,
          "internalType": "address",
          "name": "newOwner",
          "type": "address"
        }
      ],
      "name": "OwnershipTransferred",
      "type": "event"
    },
    {
      "anonymous": false,
      "inputs": [
        {
          "indexed": false,
          "internalType": "uint16",
          "name": "_srcChainId",
          "type": "uint16"
        },
        {
          "indexed": false,
          "internalType": "bytes",
          "name": "_srcAddress",
          "type": "bytes"
        },
        {
          "indexed": false,
          "internalType": "uint64",
          "name": "_nonce",
          "type": "uint64"
        },
        {
          "indexed": false,
          "internalType": "bytes32",
          "name": "_payloadHash",
          "type": "bytes32"
        }
      ],
      "name": "RetryMessageSuccess",
      "type": "event"
    },
    {
      "anonymous": false,
      "inputs": [
        {
          "indexed": false,
          "internalType": "uint16",
          "name": "_dstChainId",
          "type": "uint16"
        },
        {
          "indexed": false,
          "internalType": "uint16",
          "name": "_type",
          "type": "uint16"
        },
        {
          "indexed": false,
          "internalType": "uint256",
          "name": "_minDstGas",
          "type": "uint256"
        }
      ],
      "name": "SetMinDstGas",
      "type": "event"
    },
    {
      "anonymous": false,
      "inputs": [
        {
          "indexed": false,
          "internalType": "address",
          "name": "precrime",
          "type": "address"
        }
      ],
      "name": "SetPrecrime",
      "type": "event"
    },
    {
      "anonymous": false,
      "inputs": [
        {
          "indexed": false,
          "internalType": "uint16",
          "name": "_remoteChainId",
          "type": "uint16"
        },
        {
          "indexed": false,
          "internalType": "bytes",
          "name": "_path",
          "type": "bytes"
        }
      ],
      "name": "SetTrustedRemote",
      "type": "event"
    },
    {
      "anonymous": false,
      "inputs": [
        {
          "indexed": false,
          "internalType": "uint16",
          "name": "_remoteChainId",
          "type": "uint16"
        },
        {
          "indexed": false,
          "internalType": "bytes",
          "name": "_remoteAddress",
          "type": "bytes"
        }
      ],
      "name": "SetTrustedRemoteAddress",
      "type": "event"
    },
    {
      "inputs": [],
      "name": "DEFAULT_PAYLOAD_SIZE_LIMIT",
      "outputs": [
        {
          "internalType": "uint256",
          "name": "",
          "type": "uint256"
        }
      ],
      "stateMutability": "view",
      "type": "function"
    },
    {
      "inputs": [],
      "name": "PAYLOAD",
      "outputs": [
        {
          "internalType": "bytes",
          "name": "",
          "type": "bytes"
        }
      ],
      "stateMutability": "view",
      "type": "function"
    },
    {
      "inputs": [],
      "name": "counter",
      "outputs": [
        {
          "internalType": "uint256",
          "name": "",
          "type": "uint256"
        }
      ],
      "stateMutability": "view",
      "type": "function"
    },
    {
      "inputs": [
        {
          "internalType": "uint16",
          "name": "_dstChainId",
          "type": "uint16"
        },
        {
          "internalType": "bool",
          "name": "_useZro",
          "type": "bool"
        },
        {
          "internalType": "bytes",
          "name": "_adapterParams",
          "type": "bytes"
        }
      ],
      "name": "estimateFee",
      "outputs": [
        {
          "internalType": "uint256",
          "name": "nativeFee",
          "type": "uint256"
        },
        {
          "internalType": "uint256",
          "name": "zroFee",
          "type": "uint256"
        }
      ],
      "stateMutability": "view",
      "type": "function"
    },
    {
      "inputs": [
        {
          "internalType": "uint16",
          "name": "",
          "type": "uint16"
        },
        {
          "internalType": "bytes",
          "name": "",
          "type": "bytes"
        },
        {
          "internalType": "uint64",
          "name": "",
          "type": "uint64"
        }
      ],
      "name": "failedMessages",
      "outputs": [
        {
          "internalType": "bytes32",
          "name": "",
          "type": "bytes32"
        }
      ],
      "stateMutability": "view",
      "type": "function"
    },
    {
      "inputs": [
        {
          "internalType": "uint16",
          "name": "_srcChainId",
          "type": "uint16"
        },
        {
          "internalType": "bytes",
          "name": "_srcAddress",
          "type": "bytes"
        }
      ],
      "name": "forceResumeReceive",
      "outputs": [],
      "stateMutability": "nonpayable",
      "type": "function"
    },
    {
      "inputs": [
        {
          "internalType": "uint16",
          "name": "_version",
          "type": "uint16"
        },
        {
          "internalType": "uint16",
          "name": "_chainId",
          "type": "uint16"
        },
        {
          "internalType": "address",
          "name": "",
          "type": "address"
        },
        {
          "internalType": "uint256",
          "name": "_configType",
          "type": "uint256"
        }
      ],
      "name": "getConfig",
      "outputs": [
        {
          "internalType": "bytes",
          "name": "",
          "type": "bytes"
        }
      ],
      "stateMutability": "view",
      "type": "function"
    },
    {
      "inputs": [
        {
          "internalType": "uint16",
          "name": "remoteChainId",
          "type": "uint16"
        }
      ],
      "name": "getOracle",
      "outputs": [
        {
          "internalType": "address",
          "name": "_oracle",
          "type": "address"
        }
      ],
      "stateMutability": "view",
      "type": "function"
    },
    {
      "inputs": [
        {
          "internalType": "uint16",
          "name": "_remoteChainId",
          "type": "uint16"
        }
      ],
      "name": "getTrustedRemoteAddress",
      "outputs": [
        {
          "internalType": "bytes",
          "name": "",
          "type": "bytes"
        }
      ],
      "stateMutability": "view",
      "type": "function"
    },
    {
      "inputs": [
        {
          "internalType": "uint16",
          "name": "_dstChainId",
          "type": "uint16"
        }
      ],
      "name": "incrementCounter",
      "outputs": [],
      "stateMutability": "payable",
      "type": "function"
    },
    {
      "inputs": [
        {
          "internalType": "uint16",
          "name": "_srcChainId",
          "type": "uint16"
        },
        {
          "internalType": "bytes",
          "name": "_srcAddress",
          "type": "bytes"
        }
      ],
      "name": "isTrustedRemote",
      "outputs": [
        {
          "internalType": "bool",
          "name": "",
          "type": "bool"
        }
      ],
      "stateMutability": "view",
      "type": "function"
    },
    {
      "inputs": [],
      "name": "lzEndpoint",
      "outputs": [
        {
          "internalType": "contract ILayerZeroEndpoint",
          "name": "",
          "type": "address"
        }
      ],
      "stateMutability": "view",
      "type": "function"
    },
    {
      "inputs": [
        {
          "internalType": "uint16",
          "name": "_srcChainId",
          "type": "uint16"
        },
        {
          "internalType": "bytes",
          "name": "_srcAddress",
          "type": "bytes"
        },
        {
          "internalType": "uint64",
          "name": "_nonce",
          "type": "uint64"
        },
        {
          "internalType": "bytes",
          "name": "_payload",
          "type": "bytes"
        }
      ],
      "name": "lzReceive",
      "outputs": [],
      "stateMutability": "nonpayable",
      "type": "function"
    },
    {
      "inputs": [
        {
          "internalType": "uint16",
          "name": "",
          "type": "uint16"
        },
        {
          "internalType": "uint16",
          "name": "",
          "type": "uint16"
        }
      ],
      "name": "minDstGasLookup",
      "outputs": [
        {
          "internalType": "uint256",
          "name": "",
          "type": "uint256"
        }
      ],
      "stateMutability": "view",
      "type": "function"
    },
    {
      "inputs": [
        {
          "internalType": "uint16",
          "name": "_srcChainId",
          "type": "uint16"
        },
        {
          "internalType": "bytes",
          "name": "_srcAddress",
          "type": "bytes"
        },
        {
          "internalType": "uint64",
          "name": "_nonce",
          "type": "uint64"
        },
        {
          "internalType": "bytes",
          "name": "_payload",
          "type": "bytes"
        }
      ],
      "name": "nonblockingLzReceive",
      "outputs": [],
      "stateMutability": "nonpayable",
      "type": "function"
    },
    {
      "inputs": [],
      "name": "owner",
      "outputs": [
        {
          "internalType": "address",
          "name": "",
          "type": "address"
        }
      ],
      "stateMutability": "view",
      "type": "function"
    },
    {
      "inputs": [
        {
          "internalType": "uint16",
          "name": "",
          "type": "uint16"
        }
      ],
      "name": "payloadSizeLimitLookup",
      "outputs": [
        {
          "internalType": "uint256",
          "name": "",
          "type": "uint256"
        }
      ],
      "stateMutability": "view",
      "type": "function"
    },
    {
      "inputs": [],
      "name": "precrime",
      "outputs": [
        {
          "internalType": "address",
          "name": "",
          "type": "address"
        }
      ],
      "stateMutability": "view",
      "type": "function"
    },
    {
      "inputs": [],
      "name": "renounceOwnership",
      "outputs": [],
      "stateMutability": "nonpayable",
      "type": "function"
    },
    {
      "inputs": [
        {
          "internalType": "uint16",
          "name": "_srcChainId",
          "type": "uint16"
        },
        {
          "internalType": "bytes",
          "name": "_srcAddress",
          "type": "bytes"
        },
        {
          "internalType": "uint64",
          "name": "_nonce",
          "type": "uint64"
        },
        {
          "internalType": "bytes",
          "name": "_payload",
          "type": "bytes"
        }
      ],
      "name": "retryMessage",
      "outputs": [],
      "stateMutability": "payable",
      "type": "function"
    },
    {
      "inputs": [
        {
          "internalType": "uint16",
          "name": "_version",
          "type": "uint16"
        },
        {
          "internalType": "uint16",
          "name": "_chainId",
          "type": "uint16"
        },
        {
          "internalType": "uint256",
          "name": "_configType",
          "type": "uint256"
        },
        {
          "internalType": "bytes",
          "name": "_config",
          "type": "bytes"
        }
      ],
      "name": "setConfig",
      "outputs": [],
      "stateMutability": "nonpayable",
      "type": "function"
    },
    {
      "inputs": [
        {
          "internalType": "uint16",
          "name": "_dstChainId",
          "type": "uint16"
        },
        {
          "internalType": "uint16",
          "name": "_packetType",
          "type": "uint16"
        },
        {
          "internalType": "uint256",
          "name": "_minGas",
          "type": "uint256"
        }
      ],
      "name": "setMinDstGas",
      "outputs": [],
      "stateMutability": "nonpayable",
      "type": "function"
    },
    {
      "inputs": [
        {
          "internalType": "uint16",
          "name": "dstChainId",
          "type": "uint16"
        },
        {
          "internalType": "address",
          "name": "oracle",
          "type": "address"
        }
      ],
      "name": "setOracle",
      "outputs": [],
      "stateMutability": "nonpayable",
      "type": "function"
    },
    {
      "inputs": [
        {
          "internalType": "uint16",
          "name": "_dstChainId",
          "type": "uint16"
        },
        {
          "internalType": "uint256",
          "name": "_size",
          "type": "uint256"
        }
      ],
      "name": "setPayloadSizeLimit",
      "outputs": [],
      "stateMutability": "nonpayable",
      "type": "function"
    },
    {
      "inputs": [
        {
          "internalType": "address",
          "name": "_precrime",
          "type": "address"
        }
      ],
      "name": "setPrecrime",
      "outputs": [],
      "stateMutability": "nonpayable",
      "type": "function"
    },
    {
      "inputs": [
        {
          "internalType": "uint16",
          "name": "_version",
          "type": "uint16"
        }
      ],
      "name": "setReceiveVersion",
      "outputs": [],
      "stateMutability": "nonpayable",
      "type": "function"
    },
    {
      "inputs": [
        {
          "internalType": "uint16",
          "name": "_version",
          "type": "uint16"
        }
      ],
      "name": "setSendVersion",
      "outputs": [],
      "stateMutability": "nonpayable",
      "type": "function"
    },
    {
      "inputs": [
        {
          "internalType": "uint16",
          "name": "_remoteChainId",
          "type": "uint16"
        },
        {
          "internalType": "bytes",
          "name": "_path",
          "type": "bytes"
        }
      ],
      "name": "setTrustedRemote",
      "outputs": [],
      "stateMutability": "nonpayable",
      "type": "function"
    },
    {
      "inputs": [
        {
          "internalType": "uint16",
          "name": "_remoteChainId",
          "type": "uint16"
        },
        {
          "internalType": "bytes",
          "name": "_remoteAddress",
          "type": "bytes"
        }
      ],
      "name": "setTrustedRemoteAddress",
      "outputs": [],
      "stateMutability": "nonpayable",
      "type": "function"
    },
    {
      "inputs": [
        {
          "internalType": "address",
          "name": "newOwner",
          "type": "address"
        }
      ],
      "name": "transferOwnership",
      "outputs": [],
      "stateMutability": "nonpayable",
      "type": "function"
    },
    {
      "inputs": [
        {
          "internalType": "uint16",
          "name": "",
          "type": "uint16"
        }
      ],
      "name": "trustedRemoteLookup",
      "outputs": [
        {
          "internalType": "bytes",
          "name": "",
          "type": "bytes"
        }
      ],
      "stateMutability": "view",
      "type": "function"
    }
  ],
  "bytecode": {
    "object": "0x60a06040523480156200001157600080fd5b506040516200278e3803806200278e8339810160408190526200003491620000a6565b8080620000413362000056565b6001600160a01b031660805250620000d89050565b600080546001600160a01b038381166001600160a01b0319831681178455604051919092169283917f8be0079c531659141344cd1fd0a4f28419497f9722a3daafe3b4186f6b6457e09190a35050565b600060208284031215620000b957600080fd5b81516001600160a01b0381168114620000d157600080fd5b9392505050565b6080516126546200013a600039600081816104f70152818161065a015281816108a90152818161095101528181610a7301528181610afa01528181610f9b0152818161125c015281816113700152818161156b015261185501526126546000f3fe6080604052600436106101d75760003560e01c80638da5cb5b11610102578063cbed8b9c11610095578063e2f2882411610064578063e2f28824146105d7578063eb8d72b7146105f7578063f2fde38b14610617578063f5ecbdbc1461063757600080fd5b8063cbed8b9c1461054f578063d1deba1f1461056f578063d46fb18814610582578063df2a5b3b146105b757600080fd5b8063a6c3d165116100d1578063a6c3d165146104c5578063b353aaa7146104e5578063baf3292d14610519578063c44618341461053957600080fd5b80638da5cb5b14610440578063950c8a74146104725780639917565c146104925780639f38369a146104a557600080fd5b806342d65a8d1161017a57806366ad5c8a1161014957806366ad5c8a146103b3578063715018a6146103d35780637533d788146103e85780638cfd8f5c1461040857600080fd5b806342d65a8d1461030e578063492e527e1461032e5780635b8c41e61461034e57806361bc221a1461039d57600080fd5b806310ddb137116101b657806310ddb1371461023e578063268e878d1461025e5780633d8b38f6146102a35780633f1f4fa4146102d357600080fd5b80621d3567146101dc57806307e0db17146101fe5780630df374831461021e575b600080fd5b3480156101e857600080fd5b506101fc6101f7366004611bef565b610657565b005b34801561020a57600080fd5b506101fc610219366004611c84565b610888565b34801561022a57600080fd5b506101fc610239366004611ca1565b610911565b34801561024a57600080fd5b506101fc610259366004611c84565b610930565b34801561026a57600080fd5b5061028d604051806040016040528060048152602001624080c160e21b81525081565b60405161029a9190611d1d565b60405180910390f35b3480156102af57600080fd5b506102c36102be366004611d30565b610988565b604051901515815260200161029a565b3480156102df57600080fd5b506103006102ee366004611c84565b60036020526000908152604090205481565b60405190815260200161029a565b34801561031a57600080fd5b506101fc610329366004611d30565b610a54565b34801561033a57600080fd5b506101fc610349366004611d9b565b610ada565b34801561035a57600080fd5b50610300610369366004611e3d565b6005602090815260009384526040808520845180860184018051928152908401958401959095209452929052825290205481565b3480156103a957600080fd5b5061030060065481565b3480156103bf57600080fd5b506101fc6103ce366004611bef565b610bbb565b3480156103df57600080fd5b506101fc610c97565b3480156103f457600080fd5b5061028d610403366004611c84565b610cab565b34801561041457600080fd5b50610300610423366004611edf565b600260209081526000928352604080842090915290825290205481565b34801561044c57600080fd5b506000546001600160a01b03165b6040516001600160a01b03909116815260200161029a565b34801561047e57600080fd5b5060045461045a906001600160a01b031681565b6101fc6104a0366004611c84565b610d45565b3480156104b157600080fd5b5061028d6104c0366004611c84565b610d81565b3480156104d157600080fd5b506101fc6104e0366004611d30565b610e97565b3480156104f157600080fd5b5061045a7f000000000000000000000000000000000000000000000000000000000000000081565b34801561052557600080fd5b506101fc610534366004611f18565b610f20565b34801561054557600080fd5b5061030061271081565b34801561055b57600080fd5b506101fc61056a366004611f33565b610f7c565b6101fc61057d366004611bef565b611011565b34801561058e57600080fd5b506105a261059d366004611fa5565b611227565b6040805192835260208301919091520161029a565b3480156105c357600080fd5b506101fc6105d236600461200e565b6112e4565b3480156105e357600080fd5b5061045a6105f2366004611c84565b61134e565b34801561060357600080fd5b506101fc610612366004611d30565b61146a565b34801561062357600080fd5b506101fc610632366004611f18565b6114c4565b34801561064357600080fd5b5061028d61065236600461204f565b61153a565b337f00000000000000000000000000000000000000000000000000000000000000006001600160a01b0316146106d45760405162461bcd60e51b815260206004820152601e60248201527f4c7a4170703a20696e76616c696420656e64706f696e742063616c6c6572000060448201526064015b60405180910390fd5b61ffff8616600090815260016020526040812080546106f29061209e565b80601f016020809104026020016040519081016040528092919081815260200182805461071e9061209e565b801561076b5780601f106107405761010080835404028352916020019161076b565b820191906000526020600020905b81548152906001019060200180831161074e57829003601f168201915b50505050509050805186869050148015610786575060008151115b80156107ae5750805160208201206040516107a490889088906120d8565b6040518091039020145b6108095760405162461bcd60e51b815260206004820152602660248201527f4c7a4170703a20696e76616c696420736f757263652073656e64696e6720636f6044820152651b9d1c9858dd60d21b60648201526084016106cb565b61087f8787878080601f01602080910402602001604051908101604052809392919081815260200183838082843760009201919091525050604080516020601f8a018190048102820181019092528881528a9350915088908890819084018382808284376000920191909152506115eb92505050565b50505050505050565b610890611664565b6040516307e0db1760e01b815261ffff821660048201527f00000000000000000000000000000000000000000000000000000000000000006001600160a01b0316906307e0db17906024015b600060405180830381600087803b1580156108f657600080fd5b505af115801561090a573d6000803e3d6000fd5b5050505050565b610919611664565b61ffff909116600090815260036020526040902055565b610938611664565b6040516310ddb13760e01b815261ffff821660048201527f00000000000000000000000000000000000000000000000000000000000000006001600160a01b0316906310ddb137906024016108dc565b61ffff8316600090815260016020526040812080548291906109a99061209e565b80601f01602080910402602001604051908101604052809291908181526020018280546109d59061209e565b8015610a225780601f106109f757610100808354040283529160200191610a22565b820191906000526020600020905b815481529060010190602001808311610a0557829003601f168201915b505050505090508383604051610a399291906120d8565b60405180910390208180519060200120149150509392505050565b610a5c611664565b6040516342d65a8d60e01b81526001600160a01b037f000000000000000000000000000000000000000000000000000000000000000016906342d65a8d90610aac90869086908690600401612111565b600060405180830381600087803b158015610ac657600080fd5b505af115801561087f573d6000803e3d6000fd5b610ae2611664565b6040516304b2b47b60e11b81523060048201526006907f00000000000000000000000000000000000000000000000000000000000000006001600160a01b03169063cbed8b9c90829063096568f690602401602060405180830381865afa158015610b51573d6000803e3d6000fd5b505050506040513d601f19601f82011682018060405250810190610b75919061212f565b604080516001600160a01b038716602082015287918691016040516020818303038152906040526040518563ffffffff1660e01b8152600401610aac949392919061214c565b333014610c195760405162461bcd60e51b815260206004820152602660248201527f4e6f6e626c6f636b696e674c7a4170703a2063616c6c6572206d7573742062656044820152650204c7a4170760d41b60648201526084016106cb565b610c8f8686868080601f01602080910402602001604051908101604052809392919081815260200183838082843760009201919091525050604080516020601f8901819004810282018101909252878152899350915087908790819084018382808284376000920191909152506116be92505050565b505050505050565b610c9f611664565b610ca960006116dc565b565b60016020526000908152604090208054610cc49061209e565b80601f0160208091040260200160405190810160405280929190818152602001828054610cf09061209e565b8015610d3d5780601f10610d1257610100808354040283529160200191610d3d565b820191906000526020600020905b815481529060010190602001808311610d2057829003601f168201915b505050505081565b610d7e81604051806040016040528060048152602001624080c160e21b815250336000604051806020016040528060008152503461172c565b50565b61ffff8116600090815260016020526040812080546060929190610da49061209e565b80601f0160208091040260200160405190810160405280929190818152602001828054610dd09061209e565b8015610e1d5780601f10610df257610100808354040283529160200191610e1d565b820191906000526020600020905b815481529060010190602001808311610e0057829003601f168201915b505050505090508051600003610e755760405162461bcd60e51b815260206004820152601d60248201527f4c7a4170703a206e6f20747275737465642070617468207265636f726400000060448201526064016106cb565b610e90600060148351610e889190612199565b8391906118d1565b9392505050565b610e9f611664565b818130604051602001610eb4939291906121b2565b60408051601f1981840301815291815261ffff8516600090815260016020522090610edf9082612220565b507f8c0400cfe2d1199b1a725c78960bcc2a344d869b80590d0f2bd005db15a572ce838383604051610f1393929190612111565b60405180910390a1505050565b610f28611664565b600480546001600160a01b0319166001600160a01b0383169081179091556040519081527f5db758e995a17ec1ad84bdef7e8c3293a0bd6179bcce400dff5d4c3d87db726b9060200160405180910390a150565b610f84611664565b6040516332fb62e760e21b81526001600160a01b037f0000000000000000000000000000000000000000000000000000000000000000169063cbed8b9c90610fd890889088908890889088906004016122df565b600060405180830381600087803b158015610ff257600080fd5b505af1158015611006573d6000803e3d6000fd5b505050505050505050565b61ffff8616600090815260056020526040808220905161103490889088906120d8565b90815260408051602092819003830190206001600160401b038716600090815292529020549050806110b45760405162461bcd60e51b815260206004820152602360248201527f4e6f6e626c6f636b696e674c7a4170703a206e6f2073746f726564206d65737360448201526261676560e81b60648201526084016106cb565b8083836040516110c59291906120d8565b6040518091039020146111245760405162461bcd60e51b815260206004820152602160248201527f4e6f6e626c6f636b696e674c7a4170703a20696e76616c6964207061796c6f616044820152601960fa1b60648201526084016106cb565b61ffff8716600090815260056020526040808220905161114790899089906120d8565b90815260408051602092819003830181206001600160401b038916600090815290845282902093909355601f880182900482028301820190528682526111df918991899089908190840183828082843760009201919091525050604080516020601f8a018190048102820181019092528881528a9350915088908890819084018382808284376000920191909152506116be92505050565b7fc264d91f3adc5588250e1551f547752ca0cfa8f6b530d243b9f9f4cab10ea8e58787878785604051611216959493929190612318565b60405180910390a150505050505050565b6040805180820182526004808252624080c160e21b6020830152915163040a7bb160e41b815260009283926001600160a01b037f000000000000000000000000000000000000000000000000000000000000000016926340a7bb1092611297928b9230928c918c918c9101612353565b6040805180830381865afa1580156112b3573d6000803e3d6000fd5b505050506040513d601f19601f820116820180604052508101906112d791906123a9565b9150915094509492505050565b6112ec611664565b61ffff83811660008181526002602090815260408083209487168084529482529182902085905581519283528201929092529081018290527f9d5c7c0b934da8fefa9c7760c98383778a12dfbfc0c3b3106518f43fb9508ac090606001610f13565b6040516304b2b47b60e11b815230600482015260009081906001600160a01b037f0000000000000000000000000000000000000000000000000000000000000000169063f5ecbdbc90829063096568f690602401602060405180830381865afa1580156113bf573d6000803e3d6000fd5b505050506040513d601f19601f820116820180604052508101906113e3919061212f565b6040516001600160e01b031960e084901b16815261ffff9182166004820152908616602482015230604482015260066064820152608401600060405180830381865afa158015611437573d6000803e3d6000fd5b505050506040513d6000823e601f3d908101601f1916820160405261145f91908101906123cd565b602001519392505050565b611472611664565b61ffff8316600090815260016020526040902061149082848361243a565b507ffa41487ad5d6728f0b19276fa1eddc16558578f5109fc39d2dc33c3230470dab838383604051610f1393929190612111565b6114cc611664565b6001600160a01b0381166115315760405162461bcd60e51b815260206004820152602660248201527f4f776e61626c653a206e6577206f776e657220697320746865207a65726f206160448201526564647265737360d01b60648201526084016106cb565b610d7e816116dc565b604051633d7b2f6f60e21b815261ffff808616600483015284166024820152306044820152606481018290526060907f00000000000000000000000000000000000000000000000000000000000000006001600160a01b03169063f5ecbdbc90608401600060405180830381865afa1580156115ba573d6000803e3d6000fd5b505050506040513d6000823e601f3d908101601f191682016040526115e291908101906123cd565b95945050505050565b60008061164e5a60966366ad5c8a60e01b8989898960405160240161161394939291906124f9565b60408051601f198184030181529190526020810180516001600160e01b03166001600160e01b031990931692909217909152309291906119de565b9150915081610c8f57610c8f8686868685611a68565b6000546001600160a01b03163314610ca95760405162461bcd60e51b815260206004820181905260248201527f4f776e61626c653a2063616c6c6572206973206e6f7420746865206f776e657260448201526064016106cb565b6001600660008282546116d19190612537565b909155505050505050565b600080546001600160a01b038381166001600160a01b0319831681178455604051919092169283917f8be0079c531659141344cd1fd0a4f28419497f9722a3daafe3b4186f6b6457e09190a35050565b61ffff86166000908152600160205260408120805461174a9061209e565b80601f01602080910402602001604051908101604052809291908181526020018280546117769061209e565b80156117c35780601f10611798576101008083540402835291602001916117c3565b820191906000526020600020905b8154815290600101906020018083116117a657829003601f168201915b5050505050905080516000036118345760405162461bcd60e51b815260206004820152603060248201527f4c7a4170703a2064657374696e6174696f6e20636861696e206973206e6f742060448201526f61207472757374656420736f7572636560801b60648201526084016106cb565b61183f878751611b05565b60405162c5803160e81b81526001600160a01b037f0000000000000000000000000000000000000000000000000000000000000000169063c5803100908490611896908b9086908c908c908c908c9060040161254a565b6000604051808303818588803b1580156118af57600080fd5b505af11580156118c3573d6000803e3d6000fd5b505050505050505050505050565b6060816118df81601f612537565b101561191e5760405162461bcd60e51b815260206004820152600e60248201526d736c6963655f6f766572666c6f7760901b60448201526064016106cb565b6119288284612537565b8451101561196c5760405162461bcd60e51b8152602060048201526011602482015270736c6963655f6f75744f66426f756e647360781b60448201526064016106cb565b60608215801561198b57604051915060008252602082016040526119d5565b6040519150601f8416801560200281840101858101878315602002848b0101015b818310156119c45780518352602092830192016119ac565b5050858452601f01601f1916604052505b50949350505050565b6000606060008060008661ffff166001600160401b03811115611a0357611a03611dd0565b6040519080825280601f01601f191660200182016040528015611a2d576020820181803683370190505b50905060008087516020890160008d8df191503d925086831115611a4f578692505b828152826000602083013e909890975095505050505050565b8180519060200120600560008761ffff1661ffff16815260200190815260200160002085604051611a9991906125a4565b9081526040805191829003602090810183206001600160401b0388166000908152915220919091557fe183f33de2837795525b4792ca4cd60535bd77c53b7e7030060bfcf5734d6b0c90611af690879087908790879087906125c0565b60405180910390a15050505050565b61ffff821660009081526003602052604081205490819003611b2657506127105b80821115611b765760405162461bcd60e51b815260206004820181905260248201527f4c7a4170703a207061796c6f61642073697a6520697320746f6f206c6172676560448201526064016106cb565b505050565b61ffff81168114610d7e57600080fd5b60008083601f840112611b9d57600080fd5b5081356001600160401b03811115611bb457600080fd5b602083019150836020828501011115611bcc57600080fd5b9250929050565b80356001600160401b0381168114611bea57600080fd5b919050565b60008060008060008060808789031215611c0857600080fd5b8635611c1381611b7b565b955060208701356001600160401b0380821115611c2f57600080fd5b611c3b8a838b01611b8b565b9097509550859150611c4f60408a01611bd3565b94506060890135915080821115611c6557600080fd5b50611c7289828a01611b8b565b979a9699509497509295939492505050565b600060208284031215611c9657600080fd5b8135610e9081611b7b565b60008060408385031215611cb457600080fd5b8235611cbf81611b7b565b946020939093013593505050565b60005b83811015611ce8578181015183820152602001611cd0565b50506000910152565b60008151808452611d09816020860160208601611ccd565b601f01601f19169290920160200192915050565b602081526000610e906020830184611cf1565b600080600060408486031215611d4557600080fd5b8335611d5081611b7b565b925060208401356001600160401b03811115611d6b57600080fd5b611d7786828701611b8b565b9497909650939450505050565b80356001600160a01b0381168114611bea57600080fd5b60008060408385031215611dae57600080fd5b8235611db981611b7b565b9150611dc760208401611d84565b90509250929050565b634e487b7160e01b600052604160045260246000fd5b604051601f8201601f191681016001600160401b0381118282101715611e0e57611e0e611dd0565b604052919050565b60006001600160401b03821115611e2f57611e2f611dd0565b50601f01601f191660200190565b600080600060608486031215611e5257600080fd5b8335611e5d81611b7b565b925060208401356001600160401b03811115611e7857600080fd5b8401601f81018613611e8957600080fd5b8035611e9c611e9782611e16565b611de6565b818152876020838501011115611eb157600080fd5b81602084016020830137600060208383010152809450505050611ed660408501611bd3565b90509250925092565b60008060408385031215611ef257600080fd5b8235611efd81611b7b565b91506020830135611f0d81611b7b565b809150509250929050565b600060208284031215611f2a57600080fd5b610e9082611d84565b600080600080600060808688031215611f4b57600080fd5b8535611f5681611b7b565b94506020860135611f6681611b7b565b93506040860135925060608601356001600160401b03811115611f8857600080fd5b611f9488828901611b8b565b969995985093965092949392505050565b60008060008060608587031215611fbb57600080fd5b8435611fc681611b7b565b935060208501358015158114611fdb57600080fd5b925060408501356001600160401b03811115611ff657600080fd5b61200287828801611b8b565b95989497509550505050565b60008060006060848603121561202357600080fd5b833561202e81611b7b565b9250602084013561203e81611b7b565b929592945050506040919091013590565b6000806000806080858703121561206557600080fd5b843561207081611b7b565b9350602085013561208081611b7b565b925061208e60408601611d84565b9396929550929360600135925050565b600181811c908216806120b257607f821691505b6020821081036120d257634e487b7160e01b600052602260045260246000fd5b50919050565b8183823760009101908152919050565b81835281816020850137506000828201602090810191909152601f909101601f19169091010190565b61ffff841681526040602082015260006115e26040830184866120e8565b60006020828403121561214157600080fd5b8151610e9081611b7b565b600061ffff8087168352808616602084015250836040830152608060608301526121796080830184611cf1565b9695505050505050565b634e487b7160e01b600052601160045260246000fd5b818103818111156121ac576121ac612183565b92915050565b8284823760609190911b6bffffffffffffffffffffffff19169101908152601401919050565b601f821115611b76576000816000526020600020601f850160051c810160208610156122015750805b601f850160051c820191505b81811015610c8f5782815560010161220d565b81516001600160401b0381111561223957612239611dd0565b61224d81612247845461209e565b846121d8565b602080601f831160018114612282576000841561226a5750858301515b600019600386901b1c1916600185901b178555610c8f565b600085815260208120601f198616915b828110156122b157888601518255948401946001909101908401612292565b50858210156122cf5787850151600019600388901b60f8161c191681555b5050505050600190811b01905550565b600061ffff80881683528087166020840152508460408301526080606083015261230d6080830184866120e8565b979650505050505050565b61ffff861681526080602082015260006123366080830186886120e8565b6001600160401b0394909416604083015250606001529392505050565b61ffff871681526001600160a01b038616602082015260a06040820181905260009061238190830187611cf1565b8515156060840152828103608084015261239c8185876120e8565b9998505050505050505050565b600080604083850312156123bc57600080fd5b505080516020909101519092909150565b6000602082840312156123df57600080fd5b81516001600160401b038111156123f557600080fd5b8201601f8101841361240657600080fd5b8051612414611e9782611e16565b81815285602083850101111561242957600080fd5b6115e2826020830160208601611ccd565b6001600160401b0383111561245157612451611dd0565b6124658361245f835461209e565b836121d8565b6000601f84116001811461249957600085156124815750838201355b600019600387901b1c1916600186901b17835561090a565b600083815260209020601f19861690835b828110156124ca57868501358255602094850194600190920191016124aa565b50868210156124e75760001960f88860031b161c19848701351681555b505060018560011b0183555050505050565b61ffff851681526080602082015260006125166080830186611cf1565b6001600160401b0385166040840152828103606084015261230d8185611cf1565b808201808211156121ac576121ac612183565b61ffff8716815260c06020820152600061256760c0830188611cf1565b82810360408401526125798188611cf1565b6001600160a01b0387811660608601528616608085015283810360a0850152905061239c8185611cf1565b600082516125b6818460208701611ccd565b9190910192915050565b61ffff8616815260a0602082015260006125dd60a0830187611cf1565b6001600160401b038616604084015282810360608401526125fe8186611cf1565b905082810360808401526126128185611cf1565b9897505050505050505056fea264697066735822122056b450b6d5e4d3090a0aa4c556b7250203b54378311c102dd419ee501e0cfd3964736f6c63430008160033",
    "linkReferences": {}
  },
  "methodIdentifiers": {
    "DEFAULT_PAYLOAD_SIZE_LIMIT()": "c4461834",
    "PAYLOAD()": "268e878d",
    "counter()": "61bc221a",
    "estimateFee(uint16,bool,bytes)": "d46fb188",
    "failedMessages(uint16,bytes,uint64)": "5b8c41e6",
    "forceResumeReceive(uint16,bytes)": "42d65a8d",
    "getConfig(uint16,uint16,address,uint256)": "f5ecbdbc",
    "getOracle(uint16)": "e2f28824",
    "getTrustedRemoteAddress(uint16)": "9f38369a",
    "incrementCounter(uint16)": "9917565c",
    "isTrustedRemote(uint16,bytes)": "3d8b38f6",
    "lzEndpoint()": "b353aaa7",
    "lzReceive(uint16,bytes,uint64,bytes)": "001d3567",
    "minDstGasLookup(uint16,uint16)": "8cfd8f5c",
    "nonblockingLzReceive(uint16,bytes,uint64,bytes)": "66ad5c8a",
    "owner()": "8da5cb5b",
    "payloadSizeLimitLookup(uint16)": "3f1f4fa4",
    "precrime()": "950c8a74",
    "renounceOwnership()": "715018a6",
    "retryMessage(uint16,bytes,uint64,bytes)": "d1deba1f",
    "setConfig(uint16,uint16,uint256,bytes)": "cbed8b9c",
    "setMinDstGas(uint16,uint16,uint256)": "df2a5b3b",
    "setOracle(uint16,address)": "492e527e",
    "setPayloadSizeLimit(uint16,uint256)": "0df37483",
    "setPrecrime(address)": "baf3292d",
    "setReceiveVersion(uint16)": "10ddb137",
    "setSendVersion(uint16)": "07e0db17",
    "setTrustedRemote(uint16,bytes)": "eb8d72b7",
    "setTrustedRemoteAddress(uint16,bytes)": "a6c3d165",
    "transferOwnership(address)": "f2fde38b",
    "trustedRemoteLookup(uint16)": "7533d788"
  },
  "id": 1
}