{
  "abi": [
    {
      "inputs": [
        {
          "internalType": "uint16",
          "name": "_chainId",
          "type": "uint16"
        }
      ],
      "stateMutability": "nonpayable",
      "type": "constructor"
    },
    {
      "anonymous": false,
      "inputs": [
        {
          "indexed": false,
          "internalType": "uint16",
          "name": "srcChainId",
          "type": "uint16"
        },
        {
          "indexed": false,
          "internalType": "bytes",
          "name": "srcAddress",
          "type": "bytes"
        },
        {
          "indexed": false,
          "internalType": "uint64",
          "name": "nonce",
          "type": "uint64"
        },
        {
          "indexed": false,
          "internalType": "address",
          "name": "dstAddress",
          "type": "address"
        }
      ],
      "name": "PayloadCleared",
      "type": "event"
    },
    {
      "anonymous": false,
      "inputs": [
        {
          "indexed": false,
          "internalType": "uint16",
          "name": "srcChainId",
          "type": "uint16"
        },
        {
          "indexed": false,
          "internalType": "bytes",
          "name": "srcAddress",
          "type": "bytes"
        },
        {
          "indexed": false,
          "internalType": "address",
          "name": "dstAddress",
          "type": "address"
        },
        {
          "indexed": false,
          "internalType": "uint64",
          "name": "nonce",
          "type": "uint64"
        },
        {
          "indexed": false,
          "internalType": "bytes",
          "name": "payload",
          "type": "bytes"
        },
        {
          "indexed": false,
          "internalType": "bytes",
          "name": "reason",
          "type": "bytes"
        }
      ],
      "name": "PayloadStored",
      "type": "event"
    },
    {
      "anonymous": false,
      "inputs": [
        {
          "indexed": false,
          "internalType": "uint16",
          "name": "chainId",
          "type": "uint16"
        },
        {
          "indexed": false,
          "internalType": "bytes",
          "name": "srcAddress",
          "type": "bytes"
        }
      ],
      "name": "UaForceResumeReceive",
      "type": "event"
    },
    {
      "anonymous": false,
      "inputs": [
        {
          "indexed": true,
          "internalType": "address",
          "name": "to",
          "type": "address"
        },
        {
          "indexed": true,
          "internalType": "uint256",
          "name": "quantity",
          "type": "uint256"
        }
      ],
      "name": "ValueTransferFailed",
      "type": "event"
    },
    {
      "inputs": [],
      "name": "blockNextMsg",
      "outputs": [],
      "stateMutability": "nonpayable",
      "type": "function"
    },
    {
      "inputs": [],
      "name": "defaultAdapterParams",
      "outputs": [
        {
          "internalType": "bytes",
          "name": "",
          "type": "bytes"
        }
      ],
      "stateMutability": "view",
      "type": "function"
    },
    {
      "inputs": [
        {
          "internalType": "uint16",
          "name": "_dstChainId",
          "type": "uint16"
        },
        {
          "internalType": "address",
          "name": "_userApplication",
          "type": "address"
        },
        {
          "internalType": "bytes",
          "name": "_payload",
          "type": "bytes"
        },
        {
          "internalType": "bool",
          "name": "_payInZRO",
          "type": "bool"
        },
        {
          "internalType": "bytes",
          "name": "_adapterParams",
          "type": "bytes"
        }
      ],
      "name": "estimateFees",
      "outputs": [
        {
          "internalType": "uint256",
          "name": "nativeFee",
          "type": "uint256"
        },
        {
          "internalType": "uint256",
          "name": "zroFee",
          "type": "uint256"
        }
      ],
      "stateMutability": "view",
      "type": "function"
    },
    {
      "inputs": [
        {
          "internalType": "uint16",
          "name": "_srcChainId",
          "type": "uint16"
        },
        {
          "internalType": "bytes",
          "name": "_path",
          "type": "bytes"
        }
      ],
      "name": "forceResumeReceive",
      "outputs": [],
      "stateMutability": "nonpayable",
      "type": "function"
    },
    {
      "inputs": [],
      "name": "getChainId",
      "outputs": [
        {
          "internalType": "uint16",
          "name": "",
          "type": "uint16"
        }
      ],
      "stateMutability": "view",
      "type": "function"
    },
    {
      "inputs": [
        {
          "internalType": "uint16",
          "name": "",
          "type": "uint16"
        },
        {
          "internalType": "uint16",
          "name": "",
          "type": "uint16"
        },
        {
          "internalType": "address",
          "name": "",
          "type": "address"
        },
        {
          "internalType": "uint256",
          "name": "",
          "type": "uint256"
        }
      ],
      "name": "getConfig",
      "outputs": [
        {
          "internalType": "bytes",
          "name": "",
          "type": "bytes"
        }
      ],
      "stateMutability": "pure",
      "type": "function"
    },
    {
      "inputs": [
        {
          "internalType": "uint16",
          "name": "_chainID",
          "type": "uint16"
        },
        {
          "internalType": "bytes",
          "name": "_path",
          "type": "bytes"
        }
      ],
      "name": "getInboundNonce",
      "outputs": [
        {
          "internalType": "uint64",
          "name": "",
          "type": "uint64"
        }
      ],
      "stateMutability": "view",
      "type": "function"
    },
    {
      "inputs": [
        {
          "internalType": "uint16",
          "name": "_srcChainId",
          "type": "uint16"
        },
        {
          "internalType": "bytes",
          "name": "_srcAddress",
          "type": "bytes"
        }
      ],
      "name": "getLengthOfQueue",
      "outputs": [
        {
          "internalType": "uint256",
          "name": "",
          "type": "uint256"
        }
      ],
      "stateMutability": "view",
      "type": "function"
    },
    {
      "inputs": [
        {
          "internalType": "uint16",
          "name": "_chainID",
          "type": "uint16"
        },
        {
          "internalType": "address",
          "name": "_srcAddress",
          "type": "address"
        }
      ],
      "name": "getOutboundNonce",
      "outputs": [
        {
          "internalType": "uint64",
          "name": "",
          "type": "uint64"
        }
      ],
      "stateMutability": "view",
      "type": "function"
    },
    {
      "inputs": [
        {
          "internalType": "address",
          "name": "",
          "type": "address"
        }
      ],
      "name": "getReceiveLibraryAddress",
      "outputs": [
        {
          "internalType": "address",
          "name": "",
          "type": "address"
        }
      ],
      "stateMutability": "view",
      "type": "function"
    },
    {
      "inputs": [
        {
          "internalType": "address",
          "name": "",
          "type": "address"
        }
      ],
      "name": "getReceiveVersion",
      "outputs": [
        {
          "internalType": "uint16",
          "name": "",
          "type": "uint16"
        }
      ],
      "stateMutability": "pure",
      "type": "function"
    },
    {
      "inputs": [
        {
          "internalType": "address",
          "name": "",
          "type": "address"
        }
      ],
      "name": "getSendLibraryAddress",
      "outputs": [
        {
          "internalType": "address",
          "name": "",
          "type": "address"
        }
      ],
      "stateMutability": "view",
      "type": "function"
    },
    {
      "inputs": [
        {
          "internalType": "address",
          "name": "",
          "type": "address"
        }
      ],
      "name": "getSendVersion",
      "outputs": [
        {
          "internalType": "uint16",
          "name": "",
          "type": "uint16"
        }
      ],
      "stateMutability": "pure",
      "type": "function"
    },
    {
      "inputs": [
        {
          "internalType": "uint16",
          "name": "_srcChainId",
          "type": "uint16"
        },
        {
          "internalType": "bytes",
          "name": "_path",
          "type": "bytes"
        }
      ],
      "name": "hasStoredPayload",
      "outputs": [
        {
          "internalType": "bool",
          "name": "",
          "type": "bool"
        }
      ],
      "stateMutability": "view",
      "type": "function"
    },
    {
      "inputs": [
        {
          "internalType": "uint16",
          "name": "",
          "type": "uint16"
        },
        {
          "internalType": "bytes",
          "name": "",
          "type": "bytes"
        }
      ],
      "name": "inboundNonce",
      "outputs": [
        {
          "internalType": "uint64",
          "name": "",
          "type": "uint64"
        }
      ],
      "stateMutability": "view",
      "type": "function"
    },
    {
      "inputs": [],
      "name": "isReceivingPayload",
      "outputs": [
        {
          "internalType": "bool",
          "name": "",
          "type": "bool"
        }
      ],
      "stateMutability": "view",
      "type": "function"
    },
    {
      "inputs": [],
      "name": "isSendingPayload",
      "outputs": [
        {
          "internalType": "bool",
          "name": "",
          "type": "bool"
        }
      ],
      "stateMutability": "view",
      "type": "function"
    },
    {
      "inputs": [
        {
          "internalType": "address",
          "name": "",
          "type": "address"
        }
      ],
      "name": "lzEndpointLookup",
      "outputs": [
        {
          "internalType": "address",
          "name": "",
          "type": "address"
        }
      ],
      "stateMutability": "view",
      "type": "function"
    },
    {
      "inputs": [],
      "name": "mockChainId",
      "outputs": [
        {
          "internalType": "uint16",
          "name": "",
          "type": "uint16"
        }
      ],
      "stateMutability": "view",
      "type": "function"
    },
    {
      "inputs": [
        {
          "internalType": "uint16",
          "name": "",
          "type": "uint16"
        },
        {
          "internalType": "bytes",
          "name": "",
          "type": "bytes"
        },
        {
          "internalType": "uint256",
          "name": "",
          "type": "uint256"
        }
      ],
      "name": "msgsToDeliver",
      "outputs": [
        {
          "internalType": "address",
          "name": "dstAddress",
          "type": "address"
        },
        {
          "internalType": "uint64",
          "name": "nonce",
          "type": "uint64"
        },
        {
          "internalType": "bytes",
          "name": "payload",
          "type": "bytes"
        }
      ],
      "stateMutability": "view",
      "type": "function"
    },
    {
      "inputs": [],
      "name": "nextMsgBlocked",
      "outputs": [
        {
          "internalType": "bool",
          "name": "",
          "type": "bool"
        }
      ],
      "stateMutability": "view",
      "type": "function"
    },
    {
      "inputs": [],
      "name": "oracleFee",
      "outputs": [
        {
          "internalType": "uint256",
          "name": "",
          "type": "uint256"
        }
      ],
      "stateMutability": "view",
      "type": "function"
    },
    {
      "inputs": [
        {
          "internalType": "uint16",
          "name": "",
          "type": "uint16"
        },
        {
          "internalType": "address",
          "name": "",
          "type": "address"
        }
      ],
      "name": "outboundNonce",
      "outputs": [
        {
          "internalType": "uint64",
          "name": "",
          "type": "uint64"
        }
      ],
      "stateMutability": "view",
      "type": "function"
    },
    {
      "inputs": [],
      "name": "protocolFeeConfig",
      "outputs": [
        {
          "internalType": "uint256",
          "name": "zroFee",
          "type": "uint256"
        },
        {
          "internalType": "uint256",
          "name": "nativeBP",
          "type": "uint256"
        }
      ],
      "stateMutability": "view",
      "type": "function"
    },
    {
      "inputs": [
        {
          "internalType": "uint16",
          "name": "_srcChainId",
          "type": "uint16"
        },
        {
          "internalType": "bytes",
          "name": "_path",
          "type": "bytes"
        },
        {
          "internalType": "address",
          "name": "_dstAddress",
          "type": "address"
        },
        {
          "internalType": "uint64",
          "name": "_nonce",
          "type": "uint64"
        },
        {
          "internalType": "uint256",
          "name": "_gasLimit",
          "type": "uint256"
        },
        {
          "internalType": "bytes",
          "name": "_payload",
          "type": "bytes"
        }
      ],
      "name": "receivePayload",
      "outputs": [],
      "stateMutability": "nonpayable",
      "type": "function"
    },
    {
      "inputs": [],
      "name": "relayerFeeConfig",
      "outputs": [
        {
          "internalType": "uint128",
          "name": "dstPriceRatio",
          "type": "uint128"
        },
        {
          "internalType": "uint128",
          "name": "dstGasPriceInWei",
          "type": "uint128"
        },
        {
          "internalType": "uint128",
          "name": "dstNativeAmtCap",
          "type": "uint128"
        },
        {
          "internalType": "uint64",
          "name": "baseGas",
          "type": "uint64"
        },
        {
          "internalType": "uint64",
          "name": "gasPerByte",
          "type": "uint64"
        }
      ],
      "stateMutability": "view",
      "type": "function"
    },
    {
      "inputs": [
        {
          "internalType": "uint16",
          "name": "_srcChainId",
          "type": "uint16"
        },
        {
          "internalType": "bytes",
          "name": "_path",
          "type": "bytes"
        },
        {
          "internalType": "bytes",
          "name": "_payload",
          "type": "bytes"
        }
      ],
      "name": "retryPayload",
      "outputs": [],
      "stateMutability": "nonpayable",
      "type": "function"
    },
    {
      "inputs": [
        {
          "internalType": "uint16",
          "name": "_chainId",
          "type": "uint16"
        },
        {
          "internalType": "bytes",
          "name": "_path",
          "type": "bytes"
        },
        {
          "internalType": "bytes",
          "name": "_payload",
          "type": "bytes"
        },
        {
          "internalType": "address payable",
          "name": "_refundAddress",
          "type": "address"
        },
        {
          "internalType": "address",
          "name": "_zroPaymentAddress",
          "type": "address"
        },
        {
          "internalType": "bytes",
          "name": "_adapterParams",
          "type": "bytes"
        }
      ],
      "name": "send",
      "outputs": [],
      "stateMutability": "payable",
      "type": "function"
    },
    {
      "inputs": [
        {
          "internalType": "uint16",
          "name": "",
          "type": "uint16"
        },
        {
          "internalType": "uint16",
          "name": "",
          "type": "uint16"
        },
        {
          "internalType": "uint256",
          "name": "",
          "type": "uint256"
        },
        {
          "internalType": "bytes",
          "name": "",
          "type": "bytes"
        }
      ],
      "name": "setConfig",
      "outputs": [],
      "stateMutability": "nonpayable",
      "type": "function"
    },
    {
      "inputs": [
        {
          "internalType": "bytes",
          "name": "_adapterParams",
          "type": "bytes"
        }
      ],
      "name": "setDefaultAdapterParams",
      "outputs": [],
      "stateMutability": "nonpayable",
      "type": "function"
    },
    {
      "inputs": [
        {
          "internalType": "address",
          "name": "destAddr",
          "type": "address"
        },
        {
          "internalType": "address",
          "name": "lzEndpointAddr",
          "type": "address"
        }
      ],
      "name": "setDestLzEndpoint",
      "outputs": [],
      "stateMutability": "nonpayable",
      "type": "function"
    },
    {
      "inputs": [
        {
          "internalType": "uint256",
          "name": "_oracleFee",
          "type": "uint256"
        }
      ],
      "name": "setOracleFee",
      "outputs": [],
      "stateMutability": "nonpayable",
      "type": "function"
    },
    {
      "inputs": [
        {
          "internalType": "uint256",
          "name": "_zroFee",
          "type": "uint256"
        },
        {
          "internalType": "uint256",
          "name": "_nativeBP",
          "type": "uint256"
        }
      ],
      "name": "setProtocolFee",
      "outputs": [],
      "stateMutability": "nonpayable",
      "type": "function"
    },
    {
      "inputs": [
        {
          "internalType": "uint16",
          "name": "",
          "type": "uint16"
        }
      ],
      "name": "setReceiveVersion",
      "outputs": [],
      "stateMutability": "nonpayable",
      "type": "function"
    },
    {
      "inputs": [
        {
          "internalType": "uint128",
          "name": "_dstPriceRatio",
          "type": "uint128"
        },
        {
          "internalType": "uint128",
          "name": "_dstGasPriceInWei",
          "type": "uint128"
        },
        {
          "internalType": "uint128",
          "name": "_dstNativeAmtCap",
          "type": "uint128"
        },
        {
          "internalType": "uint64",
          "name": "_baseGas",
          "type": "uint64"
        },
        {
          "internalType": "uint64",
          "name": "_gasPerByte",
          "type": "uint64"
        }
      ],
      "name": "setRelayerPrice",
      "outputs": [],
      "stateMutability": "nonpayable",
      "type": "function"
    },
    {
      "inputs": [
        {
          "internalType": "uint16",
          "name": "",
          "type": "uint16"
        }
      ],
      "name": "setSendVersion",
      "outputs": [],
      "stateMutability": "nonpayable",
      "type": "function"
    },
    {
      "inputs": [
        {
          "internalType": "uint16",
          "name": "",
          "type": "uint16"
        },
        {
          "internalType": "bytes",
          "name": "",
          "type": "bytes"
        }
      ],
      "name": "storedPayload",
      "outputs": [
        {
          "internalType": "uint64",
          "name": "payloadLength",
          "type": "uint64"
        },
        {
          "internalType": "address",
          "name": "dstAddress",
          "type": "address"
        },
        {
          "internalType": "bytes32",
          "name": "payloadHash",
          "type": "bytes32"
        }
      ],
      "stateMutability": "view",
      "type": "function"
    }
  ],
  "bytecode": {
    "object": "0x6080604052600c805461ffff19166101011790553480156200002057600080fd5b506040516200318e3803806200318e83398101604081905262000043916200013d565b6001805461ffff191661ffff83161781556040805160a0810182526402540be400808252602080830191909152678ac7230489e8000082840152606460608301526080909101929092527402540be400000000000000000000000002540be4006002557801000000000000006400000000000000008ac7230489e800006003558051808201909152670de0b6b3a76400008082526103e891909201819052600491909155600555662386f26fc100006006556200012662030d4060408051600160f01b602082015260228082019390935281518082039093018352604201905290565b60079062000135908262000211565b5050620002dd565b6000602082840312156200015057600080fd5b815161ffff811681146200016357600080fd5b9392505050565b634e487b7160e01b600052604160045260246000fd5b600181811c908216806200019557607f821691505b602082108103620001b657634e487b7160e01b600052602260045260246000fd5b50919050565b601f8211156200020c576000816000526020600020601f850160051c81016020861015620001e75750805b601f850160051c820191505b818110156200020857828155600101620001f3565b5050505b505050565b81516001600160401b038111156200022d576200022d6200016a565b62000245816200023e845462000180565b84620001bc565b602080601f8311600181146200027d5760008415620002645750858301515b600019600386901b1c1916600185901b17855562000208565b600085815260208120601f198616915b82811015620002ae578886015182559484019460019091019084016200028d565b5085821015620002cd5787850151600019600388901b60f8161c191681555b5050505050600190811b01905550565b612ea180620002ed6000396000f3fe60806040526004361061021a5760003560e01c80639924d33b11610123578063ca066b35116100ab578063e97a448a1161006f578063e97a448a1461080a578063f5ecbdbc14610826578063f9cd3ceb14610858578063fbba623b1461086e578063fdc07c701461088e57600080fd5b8063ca066b351461078a578063cbed8b9c146107ab578063d23104f1146107cc578063da1a7c9a14610274578063db14f305146107ef57600080fd5b8063b6d9ef60116100f2578063b6d9ef60146106b8578063c08f15a1146106d8578063c2fa481314610721578063c580310014610741578063c81b383a1461075457600080fd5b80639924d33b146106055780639c729da11461043e578063aaff5f1614610657578063b20864991461067757600080fd5b80633408e470116101a657806371ba2fd61161017557806371ba2fd61461043e57806376a386dc146104765780637a1457481461050f5780637f6df8e614610547578063907c5e7e1461057557600080fd5b80633408e470146103c55780633e0dd83e146103de57806340a7bb10146103fe57806342d65a8d1461041e57600080fd5b806310ddb137116101ed57806310ddb1371461025457806312a9ee6b146102d8578063240de27714610307578063272bd3841461032d5780632c365e251461034f57600080fd5b806307d3277f1461021f57806307e0db1714610254578063096568f6146102745780630eaf6ea6146102a8575b600080fd5b34801561022b57600080fd5b5060045460055461023a919082565b604080519283526020830191909152015b60405180910390f35b34801561026057600080fd5b5061027261026f3660046121bf565b50565b005b34801561028057600080fd5b5061029561028f3660046121ef565b50600190565b60405161ffff909116815260200161024b565b3480156102b457600080fd5b506102c86102c3366004612254565b6108ae565b604051901515815260200161024b565b3480156102e457600080fd5b506102f86102f3366004612348565b6108f4565b60405161024b939291906123e4565b34801561031357600080fd5b50610272610322366004612420565b600491909155600555565b34801561033957600080fd5b506103426109f1565b60405161024b9190612442565b34801561035b57600080fd5b5061027261036a366004612483565b6001600160801b03948516600160801b94861685021760025560038054939095166001600160c01b0319909316929092176001600160401b03918216909302929092176001600160c01b0316600160c01b9190921602179055565b3480156103d157600080fd5b5060015461ffff16610295565b3480156103ea57600080fd5b506001546102c89062010000900460ff1681565b34801561040a57600080fd5b5061023a6104193660046124e8565b610a7f565b34801561042a57600080fd5b50610272610439366004612254565b610b7e565b34801561044a57600080fd5b5061045e6104593660046121ef565b503090565b6040516001600160a01b03909116815260200161024b565b34801561048257600080fd5b506104e2610491366004612588565b600a6020908152600092835260409092208151808301840180519281529084019290930191909120915280546001909101546001600160401b03821691600160401b90046001600160a01b03169083565b604080516001600160401b0390941684526001600160a01b0390921660208401529082015260600161024b565b34801561051b57600080fd5b5061052f61052a3660046125d5565b610cc5565b6040516001600160401b03909116815260200161024b565b34801561055357600080fd5b50610567610562366004612254565b610cfd565b60405190815260200161024b565b34801561058157600080fd5b506002546003546105c1916001600160801b0380821692600160801b92839004821692918116916001600160401b03908204811691600160c01b90041685565b604080516001600160801b039687168152948616602086015292909416918301919091526001600160401b039081166060830152909116608082015260a00161024b565b34801561061157600080fd5b5061052f610620366004612588565b600860209081526000928352604090922081518083018401805192815290840192909301919091209152546001600160401b031681565b34801561066357600080fd5b5061027261067236600461260c565b610d39565b34801561068357600080fd5b5061052f6106923660046125d5565b60096020908152600092835260408084209091529082529020546001600160401b031681565b3480156106c457600080fd5b506102726106d336600461268c565b600655565b3480156106e457600080fd5b506102726106f33660046126a5565b6001600160a01b03918216600090815260208190526040902080546001600160a01b03191691909216179055565b34801561072d57600080fd5b5061027261073c3660046126c3565b610f4f565b61027261074f366004612772565b61167e565b34801561076057600080fd5b5061045e61076f3660046121ef565b6000602081905290815260409020546001600160a01b031681565b34801561079657600080fd5b506102c8600c54610100900460ff1660021490565b3480156107b757600080fd5b506102726107c6366004612839565b50505050565b3480156107d857600080fd5b506102726001805462ff0000191662010000179055565b3480156107fb57600080fd5b506001546102959061ffff1681565b34801561081657600080fd5b506102c8600c5460ff1660021490565b34801561083257600080fd5b506103426108413660046128a0565b604080516020810190915260008152949350505050565b34801561086457600080fd5b5061056760065481565b34801561087a57600080fd5b506102726108893660046128ed565b611c19565b34801561089a57600080fd5b5061052f6108a9366004612254565b611c29565b61ffff83166000908152600a602052604080822090518291906108d49086908690612929565b9081526040519081900360200190206001015415159150505b9392505050565b600b602090815260008481526040902083518085018301805192815290830192850192909220915280548290811061092b57600080fd5b6000918252602090912060029091020180546001820180546001600160a01b0383169650600160a01b9092046001600160401b0316945091925061096e90612939565b80601f016020809104026020016040519081016040528092919081815260200182805461099a90612939565b80156109e75780601f106109bc576101008083540402835291602001916109e7565b820191906000526020600020905b8154815290600101906020018083116109ca57829003601f168201915b5050505050905083565b600780546109fe90612939565b80601f0160208091040260200160405190810160405280929190818152602001828054610a2a90612939565b8015610a775780601f10610a4c57610100808354040283529160200191610a77565b820191906000526020600020905b815481529060010190602001808311610a5a57829003601f168201915b505050505081565b600080600080845111610b1c5760078054610a9990612939565b80601f0160208091040260200160405190810160405280929190818152602001828054610ac590612939565b8015610b125780601f10610ae757610100808354040283529160200191610b12565b820191906000526020600020905b815481529060010190602001808311610af557829003601f168201915b5050505050610b1e565b835b90506000610b318960018a8a5186611c6e565b90506000610b428783600654611e07565b905086610b525780945084610b57565b809350835b50600654610b658387612989565b610b6f9190612989565b94505050509550959350505050565b61ffff83166000908152600a60205260408082209051610ba19085908590612929565b9081526040519081900360200190206001810154909150610c095760405162461bcd60e51b815260206004820181905260248201527f4c617965725a65726f4d6f636b3a206e6f2073746f726564207061796c6f616460448201526064015b60405180910390fd5b8054600160401b90046001600160a01b03163314610c695760405162461bcd60e51b815260206004820152601d60248201527f4c617965725a65726f4d6f636b3a20696e76616c69642063616c6c65720000006044820152606401610c00565b80546001600160e01b0319168155600060018201556040517f23d2684f396e92a6e2ff2d16f98e6fea00d50cb27a64b531bc0748f730211f9890610cb2908690869086906129c5565b60405180910390a16107c6848484611e44565b61ffff821660009081526009602090815260408083206001600160a01b03851684529091529020546001600160401b03165b92915050565b61ffff83166000908152600b60205260408082209051610d209085908590612929565b9081526040519081900360200190205490509392505050565b61ffff85166000908152600a60205260408082209051610d5c9087908790612929565b9081526040519081900360200190206001810154909150610dbf5760405162461bcd60e51b815260206004820181905260248201527f4c617965725a65726f4d6f636b3a206e6f2073746f726564207061796c6f61646044820152606401610c00565b80546001600160401b031682148015610df2575080600101548383604051610de8929190612929565b6040518091039020145b610e3e5760405162461bcd60e51b815260206004820152601e60248201527f4c617965725a65726f4d6f636b3a20696e76616c6964207061796c6f616400006044820152606401610c00565b80546001600160e01b03198116825560006001830181905561ffff88168152600860205260408082209051600160401b9093046001600160a01b031692610e889089908990612929565b90815260405190819003602001812054621d356760e01b82526001600160401b031691506001600160a01b03831690621d356790610ed4908b908b908b9087908c908c906004016129e3565b600060405180830381600087803b158015610eee57600080fd5b505af1158015610f02573d6000803e3d6000fd5b505050507f612434f39581c8e7d99746c9c20c6eb0ce8c0eb99f007c5719d620841370957d8888888486604051610f3d959493929190612a30565b60405180910390a15050505050505050565b600c54610100900460ff16600114610fb55760405162461bcd60e51b8152602060048201526024808201527f4c617965725a65726f4d6f636b3a206e6f2072656365697665207265656e7472604482015263616e637960e01b6064820152608401610c00565b600c805461ff00191661020017905561ffff88166000908152600a60205260408082209051610fe7908a908a90612929565b90815260200160405180910390209050600860008a61ffff1661ffff1681526020019081526020016000208888604051611022929190612929565b9081526040519081900360200190208054600090611048906001600160401b0316612a79565b91906101000a8154816001600160401b0302191690836001600160401b0316021790556001600160401b0316856001600160401b0316146110cb5760405162461bcd60e51b815260206004820152601a60248201527f4c617965725a65726f4d6f636b3a2077726f6e67206e6f6e63650000000000006044820152606401610c00565b6001810154156113915761ffff89166000908152600b602052604080822090516110f8908b908b90612929565b9081526020016040518091039020905060006040518060600160405280896001600160a01b03168152602001886001600160401b0316815260200186868080601f016020809104026020016040519081016040528093929190818152602001838380828437600092019190915250505091525082549091501561132257815460018181018455600084815260209081902084516002909402018054918501516001600160401b0316600160a01b026001600160e01b03199092166001600160a01b039094169390931717825560408301518392918201906111d99082612af0565b50505060005b82546111ed90600190612baf565b8110156112a75782818154811061120657611206612bc2565b9060005260206000209060020201838260016112229190612989565b8154811061123257611232612bc2565b60009182526020909120825460029092020180546001600160a01b039092166001600160a01b031983168117825583546001600160e01b031990931617600160a01b928390046001600160401b031690920291909117815560018082019061129c90840182612bd8565b5050506001016111df565b5080826000815481106112bc576112bc612bc2565b600091825260209182902083516002909202018054928401516001600160401b0316600160a01b026001600160e01b03199093166001600160a01b0390921691909117919091178155604082015160018201906113199082612af0565b5090505061138a565b815460018181018455600084815260209081902084516002909402018054918501516001600160401b0316600160a01b026001600160e01b03199092166001600160a01b039094169390931717825560408301518392918201906113869082612af0565b5050505b5050611664565b60015462010000900460ff16156114bf576040518060600160405280848490506001600160401b03168152602001876001600160a01b0316815260200184846040516113de929190612929565b604080519182900390912090915261ffff8b166000908152600a602052819020905161140d908b908b90612929565b90815260408051918290036020908101832084518154868401516001600160a01b0316600160401b026001600160e01b03199091166001600160401b03909216919091171781559382015160019094019390935591810182526000815290517f0f9e4d95b62f08222d612b5ab92039cd8fbbbea550a95e8df9f927436bbdf5db916114a6918c918c918c918c918c918b918b9190612cb2565b60405180910390a16001805462ff000019169055611664565b604051621d356760e01b81526001600160a01b03871690621d35679086906114f5908d908d908d908c908b908b906004016129e3565b600060405180830381600088803b15801561150f57600080fd5b5087f193505050508015611521575060015b611664573d80801561154f576040519150601f19603f3d011682016040523d82523d6000602084013e611554565b606091505b506040518060600160405280858590506001600160401b03168152602001886001600160a01b031681526020018585604051611591929190612929565b604080519182900390912090915261ffff8c166000908152600a60205281902090516115c0908c908c90612929565b90815260408051918290036020908101832084518154928601516001600160a01b0316600160401b026001600160e01b03199093166001600160401b03909116179190911781559201516001909201919091557f0f9e4d95b62f08222d612b5ab92039cd8fbbbea550a95e8df9f927436bbdf5db9061164e908c908c908c908c908c908b908b908a90612cb2565b60405180910390a1506001805462ff0000191690555b5050600c805461ff00191661010017905550505050505050565b600c5460ff166001146116dd5760405162461bcd60e51b815260206004820152602160248201527f4c617965725a65726f4d6f636b3a206e6f2073656e64207265656e7472616e636044820152607960f81b6064820152608401610c00565b600c805460ff1916600217905585516028146117505760405162461bcd60e51b815260206004820152602c60248201527f4c617965725a65726f4d6f636b3a20696e636f72726563742072656d6f74652060448201526b616464726573732073697a6560a01b6064820152608401610c00565b60148601516001600160a01b0380821660009081526020819052604090205416806117e35760405162461bcd60e51b815260206004820152603760248201527f4c617965725a65726f4d6f636b3a2064657374696e6174696f6e204c6179657260448201527f5a65726f20456e64706f696e74206e6f7420666f756e640000000000000000006064820152608401610c00565b60008084511161187d57600780546117fa90612939565b80601f016020809104026020016040519081016040528092919081815260200182805461182690612939565b80156118735780601f1061184857610100808354040283529160200191611873565b820191906000526020600020905b81548152906001019060200180831161185657829003601f168201915b505050505061187f565b835b905060006118d08b338b8b8080601f0160208091040260200160405190810160405280939291908181526020018383808284376000920191909152505050506001600160a01b038a16151586610a7f565b509050803410156119355760405162461bcd60e51b815260206004820152602960248201527f4c617965725a65726f4d6f636b3a206e6f7420656e6f756768206e617469766560448201526820666f72206665657360b81b6064820152608401610c00565b61ffff8b166000908152600960209081526040808320338452909152812080548290611969906001600160401b0316612a79565b91906101000a8154816001600160401b0302191690836001600160401b03160217905590506000823461199c9190612baf565b90508015611a49576000896001600160a01b03168260405160006040518083038185875af1925050503d80600081146119f1576040519150601f19603f3d011682016040523d82523d6000602084013e6119f6565b606091505b5050905080611a475760405162461bcd60e51b815260206004820152601f60248201527f4c617965725a65726f4d6f636b3a206661696c656420746f20726566756e64006044820152606401610c00565b505b6000806000611a578761203b565b91955093509150508115611af9576000816001600160a01b03168360405160006040518083038185875af1925050503d8060008114611ab2576040519150601f19603f3d011682016040523d82523d6000602084013e611ab7565b606091505b5050905080611af75760405183906001600160a01b038416907f2c7a964ca3de5ec1d42d9822f9bbd0eb142a59cc9f855e9d93813b773192c7a390600090a35b505b6040516bffffffffffffffffffffffff1933606090811b821660208401528b901b166034820152600090604801604051602081830303815290604052905060008f8f8080601f016020809104026020016040519081016040528093929190818152602001838380828437600081840152601f19601f820116905080830192505050505050509050896001600160a01b031663c2fa4813600160009054906101000a900461ffff16848e8b8a876040518763ffffffff1660e01b8152600401611bc696959493929190612d24565b600060405180830381600087803b158015611be057600080fd5b505af1158015611bf4573d6000803e3d6000fd5b5050600c805460ff191660011790555050505050505050505050505050505050505050565b6007611c258282612af0565b5050565b61ffff83166000908152600860205260408082209051611c4c9085908590612929565b908152604051908190036020019020546001600160401b031690509392505050565b600080600080611c7d8561203b565b5092509250925060008361ffff16600203611d09576003546001600160801b0316821115611cfc5760405162461bcd60e51b815260206004820152602660248201527f4c617965725a65726f4d6f636b3a206473744e6174697665416d7420746f6f2060448201526503630b933b2960d51b6064820152608401610c00565b611d068282612989565b90505b600354600090611d2a908590600160801b90046001600160401b0316612989565b600254611d479190600160801b90046001600160801b0316612d78565b9050611d538183612989565b6002549092506000906402540be40090611d76906001600160801b031685612d78565b611d809190612da5565b6002546003549192506000916402540be400916001600160801b0380821692611dc392600160c01b9091046001600160401b031691600160801b90910416612db9565b611dcd9190612db9565b611dd79190612de4565b6001600160801b03169050611dec818b612d78565b611df69083612989565b9d9c50505050505050505050505050565b60008315611e1857506004546108ed565b60055461271090611e298486612989565b611e339190612d78565b611e3d9190612da5565b90506108ed565b61ffff83166000908152600b60205260408082209051611e679085908590612929565b908152602001604051809103902090505b8054156107c65780546000908290611e9290600190612baf565b81548110611ea257611ea2612bc2565b600091825260209182902060408051606081018252600290930290910180546001600160a01b03811684526001600160401b03600160a01b909104169383019390935260018301805492939291840191611efb90612939565b80601f0160208091040260200160405190810160405280929190818152602001828054611f2790612939565b8015611f745780601f10611f4957610100808354040283529160200191611f74565b820191906000526020600020905b815481529060010190602001808311611f5757829003601f168201915b505050505081525050905080600001516001600160a01b0316621d3567868686856020015186604001516040518663ffffffff1660e01b8152600401611fbe959493929190612e0a565b600060405180830381600087803b158015611fd857600080fd5b505af1158015611fec573d6000803e3d6000fd5b505050508180548061200057612000612e55565b60008281526020812060026000199093019283020180546001600160e01b031916815590612031600183018261215a565b5050905550611e78565b600080600080845160221480612052575060428551115b6120965760405162461bcd60e51b8152602060048201526015602482015274496e76616c69642061646170746572506172616d7360581b6044820152606401610c00565b60028501519350602285015192508361ffff16600114806120bb57508361ffff166002145b6120fc5760405162461bcd60e51b8152602060048201526012602482015271556e737570706f727465642074785479706560701b6044820152606401610c00565b6000831161213a5760405162461bcd60e51b815260206004820152600b60248201526a47617320746f6f206c6f7760a81b6044820152606401610c00565b8361ffff16600203612153575050604283015160568401515b9193509193565b50805461216690612939565b6000825580601f10612176575050565b601f01602090049060005260206000209081019061026f91905b808211156121a45760008155600101612190565b5090565b803561ffff811681146121ba57600080fd5b919050565b6000602082840312156121d157600080fd5b6108ed826121a8565b6001600160a01b038116811461026f57600080fd5b60006020828403121561220157600080fd5b81356108ed816121da565b60008083601f84011261221e57600080fd5b5081356001600160401b0381111561223557600080fd5b60208301915083602082850101111561224d57600080fd5b9250929050565b60008060006040848603121561226957600080fd5b612272846121a8565b925060208401356001600160401b0381111561228d57600080fd5b6122998682870161220c565b9497909650939450505050565b634e487b7160e01b600052604160045260246000fd5b600082601f8301126122cd57600080fd5b81356001600160401b03808211156122e7576122e76122a6565b604051601f8301601f19908116603f0116810190828211818310171561230f5761230f6122a6565b8160405283815286602085880101111561232857600080fd5b836020870160208301376000602085830101528094505050505092915050565b60008060006060848603121561235d57600080fd5b612366846121a8565b925060208401356001600160401b0381111561238157600080fd5b61238d868287016122bc565b925050604084013590509250925092565b6000815180845260005b818110156123c4576020818501810151868301820152016123a8565b506000602082860101526020601f19601f83011685010191505092915050565b6001600160a01b03841681526001600160401b03831660208201526060604082018190526000906124179083018461239e565b95945050505050565b6000806040838503121561243357600080fd5b50508035926020909101359150565b6020815260006108ed602083018461239e565b80356001600160801b03811681146121ba57600080fd5b80356001600160401b03811681146121ba57600080fd5b600080600080600060a0868803121561249b57600080fd5b6124a486612455565b94506124b260208701612455565b93506124c060408701612455565b92506124ce6060870161246c565b91506124dc6080870161246c565b90509295509295909350565b600080600080600060a0868803121561250057600080fd5b612509866121a8565b94506020860135612519816121da565b935060408601356001600160401b038082111561253557600080fd5b61254189838a016122bc565b945060608801359150811515821461255857600080fd5b9092506080870135908082111561256e57600080fd5b5061257b888289016122bc565b9150509295509295909350565b6000806040838503121561259b57600080fd5b6125a4836121a8565b915060208301356001600160401b038111156125bf57600080fd5b6125cb858286016122bc565b9150509250929050565b600080604083850312156125e857600080fd5b6125f1836121a8565b91506020830135612601816121da565b809150509250929050565b60008060008060006060868803121561262457600080fd5b61262d866121a8565b945060208601356001600160401b038082111561264957600080fd5b61265589838a0161220c565b9096509450604088013591508082111561266e57600080fd5b5061267b8882890161220c565b969995985093965092949392505050565b60006020828403121561269e57600080fd5b5035919050565b600080604083850312156126b857600080fd5b82356125f1816121da565b60008060008060008060008060c0898b0312156126df57600080fd5b6126e8896121a8565b975060208901356001600160401b038082111561270457600080fd5b6127108c838d0161220c565b909950975060408b01359150612725826121da565b81965061273460608c0161246c565b955060808b0135945060a08b013591508082111561275157600080fd5b5061275e8b828c0161220c565b999c989b5096995094979396929594505050565b600080600080600080600060c0888a03121561278d57600080fd5b612796886121a8565b965060208801356001600160401b03808211156127b257600080fd5b6127be8b838c016122bc565b975060408a01359150808211156127d457600080fd5b6127e08b838c0161220c565b909750955060608a013591506127f5826121da565b909350608089013590612807826121da565b90925060a0890135908082111561281d57600080fd5b5061282a8a828b016122bc565b91505092959891949750929550565b6000806000806080858703121561284f57600080fd5b612858856121a8565b9350612866602086016121a8565b92506040850135915060608501356001600160401b0381111561288857600080fd5b612894878288016122bc565b91505092959194509250565b600080600080608085870312156128b657600080fd5b6128bf856121a8565b93506128cd602086016121a8565b925060408501356128dd816121da565b9396929550929360600135925050565b6000602082840312156128ff57600080fd5b81356001600160401b0381111561291557600080fd5b612921848285016122bc565b949350505050565b8183823760009101908152919050565b600181811c9082168061294d57607f821691505b60208210810361296d57634e487b7160e01b600052602260045260246000fd5b50919050565b634e487b7160e01b600052601160045260246000fd5b80820180821115610cf757610cf7612973565b81835281816020850137506000828201602090810191909152601f909101601f19169091010190565b61ffff8416815260406020820152600061241760408301848661299c565b61ffff87168152608060208201526000612a0160808301878961299c565b6001600160401b03861660408401528281036060840152612a2381858761299c565b9998505050505050505050565b61ffff86168152608060208201526000612a4e60808301868861299c565b6001600160401b03949094166040830152506001600160a01b03919091166060909101529392505050565b60006001600160401b03808316818103612a9557612a95612973565b6001019392505050565b601f821115612aeb576000816000526020600020601f850160051c81016020861015612ac85750805b601f850160051c820191505b81811015612ae757828155600101612ad4565b5050505b505050565b81516001600160401b03811115612b0957612b096122a6565b612b1d81612b178454612939565b84612a9f565b602080601f831160018114612b525760008415612b3a5750858301515b600019600386901b1c1916600185901b178555612ae7565b600085815260208120601f198616915b82811015612b8157888601518255948401946001909101908401612b62565b5085821015612b9f5787850151600019600388901b60f8161c191681555b5050505050600190811b01905550565b81810381811115610cf757610cf7612973565b634e487b7160e01b600052603260045260246000fd5b818103612be3575050565b612bed8254612939565b6001600160401b03811115612c0457612c046122a6565b612c1281612b178454612939565b6000601f821160018114612c465760008315612c2e5750848201545b600019600385901b1c1916600184901b178455612cab565b600085815260209020601f19841690600086815260209020845b83811015612c805782860154825560019586019590910190602001612c60565b5085831015612c9e5781850154600019600388901b60f8161c191681555b50505060018360011b0184555b5050505050565b61ffff8916815260c060208201526000612cd060c08301898b61299c565b6001600160a01b03881660408401526001600160401b03871660608401528281036080840152612d0181868861299c565b905082810360a0840152612d15818561239e565b9b9a5050505050505050505050565b61ffff8716815260c060208201526000612d4160c083018861239e565b6001600160a01b03871660408401526001600160401b03861660608401526080830185905282810360a0840152612a23818561239e565b8082028115828204841417610cf757610cf7612973565b634e487b7160e01b600052601260045260246000fd5b600082612db457612db4612d8f565b500490565b6001600160801b03818116838216028082169190828114612ddc57612ddc612973565b505092915050565b60006001600160801b0380841680612dfe57612dfe612d8f565b92169190910492915050565b61ffff86168152608060208201526000612e2860808301868861299c565b6001600160401b03851660408401528281036060840152612e49818561239e565b98975050505050505050565b634e487b7160e01b600052603160045260246000fdfea264697066735822122005aaf1cc5402e9b5a34bb697145ec29d1a6f615a69041bb19e07b038686756b664736f6c63430008160033",
    "linkReferences": {}
  },
  "methodIdentifiers": {
    "blockNextMsg()": "d23104f1",
    "defaultAdapterParams()": "272bd384",
    "estimateFees(uint16,address,bytes,bool,bytes)": "40a7bb10",
    "forceResumeReceive(uint16,bytes)": "42d65a8d",
    "getChainId()": "3408e470",
    "getConfig(uint16,uint16,address,uint256)": "f5ecbdbc",
    "getInboundNonce(uint16,bytes)": "fdc07c70",
    "getLengthOfQueue(uint16,bytes)": "7f6df8e6",
    "getOutboundNonce(uint16,address)": "7a145748",
    "getReceiveLibraryAddress(address)": "71ba2fd6",
    "getReceiveVersion(address)": "da1a7c9a",
    "getSendLibraryAddress(address)": "9c729da1",
    "getSendVersion(address)": "096568f6",
    "hasStoredPayload(uint16,bytes)": "0eaf6ea6",
    "inboundNonce(uint16,bytes)": "9924d33b",
    "isReceivingPayload()": "ca066b35",
    "isSendingPayload()": "e97a448a",
    "lzEndpointLookup(address)": "c81b383a",
    "mockChainId()": "db14f305",
    "msgsToDeliver(uint16,bytes,uint256)": "12a9ee6b",
    "nextMsgBlocked()": "3e0dd83e",
    "oracleFee()": "f9cd3ceb",
    "outboundNonce(uint16,address)": "b2086499",
    "protocolFeeConfig()": "07d3277f",
    "receivePayload(uint16,bytes,address,uint64,uint256,bytes)": "c2fa4813",
    "relayerFeeConfig()": "907c5e7e",
    "retryPayload(uint16,bytes,bytes)": "aaff5f16",
    "send(uint16,bytes,bytes,address,address,bytes)": "c5803100",
    "setConfig(uint16,uint16,uint256,bytes)": "cbed8b9c",
    "setDefaultAdapterParams(bytes)": "fbba623b",
    "setDestLzEndpoint(address,address)": "c08f15a1",
    "setOracleFee(uint256)": "b6d9ef60",
    "setProtocolFee(uint256,uint256)": "240de277",
    "setReceiveVersion(uint16)": "10ddb137",
    "setRelayerPrice(uint128,uint128,uint128,uint64,uint64)": "2c365e25",
    "setSendVersion(uint16)": "07e0db17",
    "storedPayload(uint16,bytes)": "76a386dc"
  },
  "id": 11
}