{
  "abi": [
    {
      "inputs": [
        {
          "internalType": "string",
          "name": "_name",
          "type": "string"
        },
        {
          "internalType": "string",
          "name": "_symbol",
          "type": "string"
        },
        {
          "internalType": "uint256",
          "name": "_minGasToTransferAndStore",
          "type": "uint256"
        },
        {
          "internalType": "address",
          "name": "_lzEndpoint",
          "type": "address"
        }
      ],
      "stateMutability": "nonpayable",
      "type": "constructor"
    },
    {
      "inputs": [],
      "name": "ApprovalCallerNotOwnerNorApproved",
      "type": "error"
    },
    {
      "inputs": [],
      "name": "ApprovalQueryForNonexistentToken",
      "type": "error"
    },
    {
      "inputs": [],
      "name": "BalanceQueryForZeroAddress",
      "type": "error"
    },
    {
      "inputs": [],
      "name": "MintERC2309QuantityExceedsLimit",
      "type": "error"
    },
    {
      "inputs": [],
      "name": "MintToZeroAddress",
      "type": "error"
    },
    {
      "inputs": [],
      "name": "MintZeroQuantity",
      "type": "error"
    },
    {
      "inputs": [],
      "name": "OwnerQueryForNonexistentToken",
      "type": "error"
    },
    {
      "inputs": [],
      "name": "OwnershipNotInitializedForExtraData",
      "type": "error"
    },
    {
      "inputs": [],
      "name": "TransferCallerNotOwnerNorApproved",
      "type": "error"
    },
    {
      "inputs": [],
      "name": "TransferFromIncorrectOwner",
      "type": "error"
    },
    {
      "inputs": [],
      "name": "TransferToNonERC721ReceiverImplementer",
      "type": "error"
    },
    {
      "inputs": [],
      "name": "TransferToZeroAddress",
      "type": "error"
    },
    {
      "inputs": [],
      "name": "URIQueryForNonexistentToken",
      "type": "error"
    },
    {
      "anonymous": false,
      "inputs": [
        {
          "indexed": true,
          "internalType": "address",
          "name": "owner",
          "type": "address"
        },
        {
          "indexed": true,
          "internalType": "address",
          "name": "approved",
          "type": "address"
        },
        {
          "indexed": true,
          "internalType": "uint256",
          "name": "tokenId",
          "type": "uint256"
        }
      ],
      "name": "Approval",
      "type": "event"
    },
    {
      "anonymous": false,
      "inputs": [
        {
          "indexed": true,
          "internalType": "address",
          "name": "owner",
          "type": "address"
        },
        {
          "indexed": true,
          "internalType": "address",
          "name": "operator",
          "type": "address"
        },
        {
          "indexed": false,
          "internalType": "bool",
          "name": "approved",
          "type": "bool"
        }
      ],
      "name": "ApprovalForAll",
      "type": "event"
    },
    {
      "anonymous": false,
      "inputs": [
        {
          "indexed": true,
          "internalType": "uint256",
          "name": "fromTokenId",
          "type": "uint256"
        },
        {
          "indexed": false,
          "internalType": "uint256",
          "name": "toTokenId",
          "type": "uint256"
        },
        {
          "indexed": true,
          "internalType": "address",
          "name": "from",
          "type": "address"
        },
        {
          "indexed": true,
          "internalType": "address",
          "name": "to",
          "type": "address"
        }
      ],
      "name": "ConsecutiveTransfer",
      "type": "event"
    },
    {
      "anonymous": false,
      "inputs": [
        {
          "indexed": false,
          "internalType": "bytes32",
          "name": "_hashedPayload",
          "type": "bytes32"
        }
      ],
      "name": "CreditCleared",
      "type": "event"
    },
    {
      "anonymous": false,
      "inputs": [
        {
          "indexed": false,
          "internalType": "bytes32",
          "name": "_hashedPayload",
          "type": "bytes32"
        },
        {
          "indexed": false,
          "internalType": "bytes",
          "name": "_payload",
          "type": "bytes"
        }
      ],
      "name": "CreditStored",
      "type": "event"
    },
    {
      "anonymous": false,
      "inputs": [
        {
          "indexed": false,
          "internalType": "uint16",
          "name": "_srcChainId",
          "type": "uint16"
        },
        {
          "indexed": false,
          "internalType": "bytes",
          "name": "_srcAddress",
          "type": "bytes"
        },
        {
          "indexed": false,
          "internalType": "uint64",
          "name": "_nonce",
          "type": "uint64"
        },
        {
          "indexed": false,
          "internalType": "bytes",
          "name": "_payload",
          "type": "bytes"
        },
        {
          "indexed": false,
          "internalType": "bytes",
          "name": "_reason",
          "type": "bytes"
        }
      ],
      "name": "MessageFailed",
      "type": "event"
    },
    {
      "anonymous": false,
      "inputs": [
        {
          "indexed": true,
          "internalType": "address",
          "name": "previousOwner",
          "type": "address"
        },
        {
          "indexed": true,
          "internalType": "address",
          "name": "newOwner",
          "type": "address"
        }
      ],
      "name": "OwnershipTransferred",
      "type": "event"
    },
    {
      "anonymous": false,
      "inputs": [
        {
          "indexed": true,
          "internalType": "uint16",
          "name": "_srcChainId",
          "type": "uint16"
        },
        {
          "indexed": true,
          "internalType": "bytes",
          "name": "_srcAddress",
          "type": "bytes"
        },
        {
          "indexed": true,
          "internalType": "address",
          "name": "_toAddress",
          "type": "address"
        },
        {
          "indexed": false,
          "internalType": "uint256[]",
          "name": "_tokenIds",
          "type": "uint256[]"
        }
      ],
      "name": "ReceiveFromChain",
      "type": "event"
    },
    {
      "anonymous": false,
      "inputs": [
        {
          "indexed": false,
          "internalType": "uint16",
          "name": "_srcChainId",
          "type": "uint16"
        },
        {
          "indexed": false,
          "internalType": "bytes",
          "name": "_srcAddress",
          "type": "bytes"
        },
        {
          "indexed": false,
          "internalType": "uint64",
          "name": "_nonce",
          "type": "uint64"
        },
        {
          "indexed": false,
          "internalType": "bytes32",
          "name": "_payloadHash",
          "type": "bytes32"
        }
      ],
      "name": "RetryMessageSuccess",
      "type": "event"
    },
    {
      "anonymous": false,
      "inputs": [
        {
          "indexed": true,
          "internalType": "uint16",
          "name": "_dstChainId",
          "type": "uint16"
        },
        {
          "indexed": true,
          "internalType": "address",
          "name": "_from",
          "type": "address"
        },
        {
          "indexed": true,
          "internalType": "bytes",
          "name": "_toAddress",
          "type": "bytes"
        },
        {
          "indexed": false,
          "internalType": "uint256[]",
          "name": "_tokenIds",
          "type": "uint256[]"
        }
      ],
      "name": "SendToChain",
      "type": "event"
    },
    {
      "anonymous": false,
      "inputs": [
        {
          "indexed": false,
          "internalType": "uint16",
          "name": "_dstChainId",
          "type": "uint16"
        },
        {
          "indexed": false,
          "internalType": "uint256",
          "name": "_dstChainIdToBatchLimit",
          "type": "uint256"
        }
      ],
      "name": "SetDstChainIdToBatchLimit",
      "type": "event"
    },
    {
      "anonymous": false,
      "inputs": [
        {
          "indexed": false,
          "internalType": "uint16",
          "name": "_dstChainId",
          "type": "uint16"
        },
        {
          "indexed": false,
          "internalType": "uint256",
          "name": "_dstChainIdToTransferGas",
          "type": "uint256"
        }
      ],
      "name": "SetDstChainIdToTransferGas",
      "type": "event"
    },
    {
      "anonymous": false,
      "inputs": [
        {
          "indexed": false,
          "internalType": "uint16",
          "name": "_dstChainId",
          "type": "uint16"
        },
        {
          "indexed": false,
          "internalType": "uint16",
          "name": "_type",
          "type": "uint16"
        },
        {
          "indexed": false,
          "internalType": "uint256",
          "name": "_minDstGas",
          "type": "uint256"
        }
      ],
      "name": "SetMinDstGas",
      "type": "event"
    },
    {
      "anonymous": false,
      "inputs": [
        {
          "indexed": false,
          "internalType": "uint256",
          "name": "_minGasToTransferAndStore",
          "type": "uint256"
        }
      ],
      "name": "SetMinGasToTransferAndStore",
      "type": "event"
    },
    {
      "anonymous": false,
      "inputs": [
        {
          "indexed": false,
          "internalType": "address",
          "name": "precrime",
          "type": "address"
        }
      ],
      "name": "SetPrecrime",
      "type": "event"
    },
    {
      "anonymous": false,
      "inputs": [
        {
          "indexed": false,
          "internalType": "uint16",
          "name": "_remoteChainId",
          "type": "uint16"
        },
        {
          "indexed": false,
          "internalType": "bytes",
          "name": "_path",
          "type": "bytes"
        }
      ],
      "name": "SetTrustedRemote",
      "type": "event"
    },
    {
      "anonymous": false,
      "inputs": [
        {
          "indexed": false,
          "internalType": "uint16",
          "name": "_remoteChainId",
          "type": "uint16"
        },
        {
          "indexed": false,
          "internalType": "bytes",
          "name": "_remoteAddress",
          "type": "bytes"
        }
      ],
      "name": "SetTrustedRemoteAddress",
      "type": "event"
    },
    {
      "anonymous": false,
      "inputs": [
        {
          "indexed": true,
          "internalType": "address",
          "name": "from",
          "type": "address"
        },
        {
          "indexed": true,
          "internalType": "address",
          "name": "to",
          "type": "address"
        },
        {
          "indexed": true,
          "internalType": "uint256",
          "name": "tokenId",
          "type": "uint256"
        }
      ],
      "name": "Transfer",
      "type": "event"
    },
    {
      "inputs": [],
      "name": "DEFAULT_PAYLOAD_SIZE_LIMIT",
      "outputs": [
        {
          "internalType": "uint256",
          "name": "",
          "type": "uint256"
        }
      ],
      "stateMutability": "view",
      "type": "function"
    },
    {
      "inputs": [],
      "name": "FUNCTION_TYPE_SEND",
      "outputs": [
        {
          "internalType": "uint16",
          "name": "",
          "type": "uint16"
        }
      ],
      "stateMutability": "view",
      "type": "function"
    },
    {
      "inputs": [
        {
          "internalType": "address",
          "name": "to",
          "type": "address"
        },
        {
          "internalType": "uint256",
          "name": "tokenId",
          "type": "uint256"
        }
      ],
      "name": "approve",
      "outputs": [],
      "stateMutability": "payable",
      "type": "function"
    },
    {
      "inputs": [
        {
          "internalType": "address",
          "name": "owner",
          "type": "address"
        }
      ],
      "name": "balanceOf",
      "outputs": [
        {
          "internalType": "uint256",
          "name": "",
          "type": "uint256"
        }
      ],
      "stateMutability": "view",
      "type": "function"
    },
    {
      "inputs": [
        {
          "internalType": "bytes",
          "name": "_payload",
          "type": "bytes"
        }
      ],
      "name": "clearCredits",
      "outputs": [],
      "stateMutability": "nonpayable",
      "type": "function"
    },
    {
      "inputs": [
        {
          "internalType": "uint16",
          "name": "",
          "type": "uint16"
        }
      ],
      "name": "dstChainIdToBatchLimit",
      "outputs": [
        {
          "internalType": "uint256",
          "name": "",
          "type": "uint256"
        }
      ],
      "stateMutability": "view",
      "type": "function"
    },
    {
      "inputs": [
        {
          "internalType": "uint16",
          "name": "",
          "type": "uint16"
        }
      ],
      "name": "dstChainIdToTransferGas",
      "outputs": [
        {
          "internalType": "uint256",
          "name": "",
          "type": "uint256"
        }
      ],
      "stateMutability": "view",
      "type": "function"
    },
    {
      "inputs": [
        {
          "internalType": "uint16",
          "name": "_dstChainId",
          "type": "uint16"
        },
        {
          "internalType": "bytes",
          "name": "_toAddress",
          "type": "bytes"
        },
        {
          "internalType": "uint256[]",
          "name": "_tokenIds",
          "type": "uint256[]"
        },
        {
          "internalType": "bool",
          "name": "_useZro",
          "type": "bool"
        },
        {
          "internalType": "bytes",
          "name": "_adapterParams",
          "type": "bytes"
        }
      ],
      "name": "estimateSendBatchFee",
      "outputs": [
        {
          "internalType": "uint256",
          "name": "nativeFee",
          "type": "uint256"
        },
        {
          "internalType": "uint256",
          "name": "zroFee",
          "type": "uint256"
        }
      ],
      "stateMutability": "view",
      "type": "function"
    },
    {
      "inputs": [
        {
          "internalType": "uint16",
          "name": "_dstChainId",
          "type": "uint16"
        },
        {
          "internalType": "bytes",
          "name": "_toAddress",
          "type": "bytes"
        },
        {
          "internalType": "uint256",
          "name": "_tokenId",
          "type": "uint256"
        },
        {
          "internalType": "bool",
          "name": "_useZro",
          "type": "bool"
        },
        {
          "internalType": "bytes",
          "name": "_adapterParams",
          "type": "bytes"
        }
      ],
      "name": "estimateSendFee",
      "outputs": [
        {
          "internalType": "uint256",
          "name": "nativeFee",
          "type": "uint256"
        },
        {
          "internalType": "uint256",
          "name": "zroFee",
          "type": "uint256"
        }
      ],
      "stateMutability": "view",
      "type": "function"
    },
    {
      "inputs": [
        {
          "internalType": "uint16",
          "name": "",
          "type": "uint16"
        },
        {
          "internalType": "bytes",
          "name": "",
          "type": "bytes"
        },
        {
          "internalType": "uint64",
          "name": "",
          "type": "uint64"
        }
      ],
      "name": "failedMessages",
      "outputs": [
        {
          "internalType": "bytes32",
          "name": "",
          "type": "bytes32"
        }
      ],
      "stateMutability": "view",
      "type": "function"
    },
    {
      "inputs": [
        {
          "internalType": "uint16",
          "name": "_srcChainId",
          "type": "uint16"
        },
        {
          "internalType": "bytes",
          "name": "_srcAddress",
          "type": "bytes"
        }
      ],
      "name": "forceResumeReceive",
      "outputs": [],
      "stateMutability": "nonpayable",
      "type": "function"
    },
    {
      "inputs": [
        {
          "internalType": "uint256",
          "name": "tokenId",
          "type": "uint256"
        }
      ],
      "name": "getApproved",
      "outputs": [
        {
          "internalType": "address",
          "name": "",
          "type": "address"
        }
      ],
      "stateMutability": "view",
      "type": "function"
    },
    {
      "inputs": [
        {
          "internalType": "uint16",
          "name": "_version",
          "type": "uint16"
        },
        {
          "internalType": "uint16",
          "name": "_chainId",
          "type": "uint16"
        },
        {
          "internalType": "address",
          "name": "",
          "type": "address"
        },
        {
          "internalType": "uint256",
          "name": "_configType",
          "type": "uint256"
        }
      ],
      "name": "getConfig",
      "outputs": [
        {
          "internalType": "bytes",
          "name": "",
          "type": "bytes"
        }
      ],
      "stateMutability": "view",
      "type": "function"
    },
    {
      "inputs": [
        {
          "internalType": "uint16",
          "name": "_remoteChainId",
          "type": "uint16"
        }
      ],
      "name": "getTrustedRemoteAddress",
      "outputs": [
        {
          "internalType": "bytes",
          "name": "",
          "type": "bytes"
        }
      ],
      "stateMutability": "view",
      "type": "function"
    },
    {
      "inputs": [
        {
          "internalType": "address",
          "name": "owner",
          "type": "address"
        },
        {
          "internalType": "address",
          "name": "operator",
          "type": "address"
        }
      ],
      "name": "isApprovedForAll",
      "outputs": [
        {
          "internalType": "bool",
          "name": "",
          "type": "bool"
        }
      ],
      "stateMutability": "view",
      "type": "function"
    },
    {
      "inputs": [
        {
          "internalType": "uint16",
          "name": "_srcChainId",
          "type": "uint16"
        },
        {
          "internalType": "bytes",
          "name": "_srcAddress",
          "type": "bytes"
        }
      ],
      "name": "isTrustedRemote",
      "outputs": [
        {
          "internalType": "bool",
          "name": "",
          "type": "bool"
        }
      ],
      "stateMutability": "view",
      "type": "function"
    },
    {
      "inputs": [],
      "name": "lzEndpoint",
      "outputs": [
        {
          "internalType": "contract ILayerZeroEndpoint",
          "name": "",
          "type": "address"
        }
      ],
      "stateMutability": "view",
      "type": "function"
    },
    {
      "inputs": [
        {
          "internalType": "uint16",
          "name": "_srcChainId",
          "type": "uint16"
        },
        {
          "internalType": "bytes",
          "name": "_srcAddress",
          "type": "bytes"
        },
        {
          "internalType": "uint64",
          "name": "_nonce",
          "type": "uint64"
        },
        {
          "internalType": "bytes",
          "name": "_payload",
          "type": "bytes"
        }
      ],
      "name": "lzReceive",
      "outputs": [],
      "stateMutability": "nonpayable",
      "type": "function"
    },
    {
      "inputs": [
        {
          "internalType": "uint16",
          "name": "",
          "type": "uint16"
        },
        {
          "internalType": "uint16",
          "name": "",
          "type": "uint16"
        }
      ],
      "name": "minDstGasLookup",
      "outputs": [
        {
          "internalType": "uint256",
          "name": "",
          "type": "uint256"
        }
      ],
      "stateMutability": "view",
      "type": "function"
    },
    {
      "inputs": [],
      "name": "minGasToTransferAndStore",
      "outputs": [
        {
          "internalType": "uint256",
          "name": "",
          "type": "uint256"
        }
      ],
      "stateMutability": "view",
      "type": "function"
    },
    {
      "inputs": [],
      "name": "name",
      "outputs": [
        {
          "internalType": "string",
          "name": "",
          "type": "string"
        }
      ],
      "stateMutability": "view",
      "type": "function"
    },
    {
      "inputs": [
        {
          "internalType": "uint16",
          "name": "_srcChainId",
          "type": "uint16"
        },
        {
          "internalType": "bytes",
          "name": "_srcAddress",
          "type": "bytes"
        },
        {
          "internalType": "uint64",
          "name": "_nonce",
          "type": "uint64"
        },
        {
          "internalType": "bytes",
          "name": "_payload",
          "type": "bytes"
        }
      ],
      "name": "nonblockingLzReceive",
      "outputs": [],
      "stateMutability": "nonpayable",
      "type": "function"
    },
    {
      "inputs": [
        {
          "internalType": "address",
          "name": "",
          "type": "address"
        },
        {
          "internalType": "address",
          "name": "",
          "type": "address"
        },
        {
          "internalType": "uint256",
          "name": "",
          "type": "uint256"
        },
        {
          "internalType": "bytes",
          "name": "",
          "type": "bytes"
        }
      ],
      "name": "onERC721Received",
      "outputs": [
        {
          "internalType": "bytes4",
          "name": "",
          "type": "bytes4"
        }
      ],
      "stateMutability": "nonpayable",
      "type": "function"
    },
    {
      "inputs": [],
      "name": "owner",
      "outputs": [
        {
          "internalType": "address",
          "name": "",
          "type": "address"
        }
      ],
      "stateMutability": "view",
      "type": "function"
    },
    {
      "inputs": [
        {
          "internalType": "uint256",
          "name": "tokenId",
          "type": "uint256"
        }
      ],
      "name": "ownerOf",
      "outputs": [
        {
          "internalType": "address",
          "name": "",
          "type": "address"
        }
      ],
      "stateMutability": "view",
      "type": "function"
    },
    {
      "inputs": [
        {
          "internalType": "uint16",
          "name": "",
          "type": "uint16"
        }
      ],
      "name": "payloadSizeLimitLookup",
      "outputs": [
        {
          "internalType": "uint256",
          "name": "",
          "type": "uint256"
        }
      ],
      "stateMutability": "view",
      "type": "function"
    },
    {
      "inputs": [],
      "name": "precrime",
      "outputs": [
        {
          "internalType": "address",
          "name": "",
          "type": "address"
        }
      ],
      "stateMutability": "view",
      "type": "function"
    },
    {
      "inputs": [],
      "name": "renounceOwnership",
      "outputs": [],
      "stateMutability": "nonpayable",
      "type": "function"
    },
    {
      "inputs": [
        {
          "internalType": "uint16",
          "name": "_srcChainId",
          "type": "uint16"
        },
        {
          "internalType": "bytes",
          "name": "_srcAddress",
          "type": "bytes"
        },
        {
          "internalType": "uint64",
          "name": "_nonce",
          "type": "uint64"
        },
        {
          "internalType": "bytes",
          "name": "_payload",
          "type": "bytes"
        }
      ],
      "name": "retryMessage",
      "outputs": [],
      "stateMutability": "payable",
      "type": "function"
    },
    {
      "inputs": [
        {
          "internalType": "address",
          "name": "from",
          "type": "address"
        },
        {
          "internalType": "address",
          "name": "to",
          "type": "address"
        },
        {
          "internalType": "uint256",
          "name": "tokenId",
          "type": "uint256"
        }
      ],
      "name": "safeTransferFrom",
      "outputs": [],
      "stateMutability": "payable",
      "type": "function"
    },
    {
      "inputs": [
        {
          "internalType": "address",
          "name": "from",
          "type": "address"
        },
        {
          "internalType": "address",
          "name": "to",
          "type": "address"
        },
        {
          "internalType": "uint256",
          "name": "tokenId",
          "type": "uint256"
        },
        {
          "internalType": "bytes",
          "name": "_data",
          "type": "bytes"
        }
      ],
      "name": "safeTransferFrom",
      "outputs": [],
      "stateMutability": "payable",
      "type": "function"
    },
    {
      "inputs": [
        {
          "internalType": "address",
          "name": "_from",
          "type": "address"
        },
        {
          "internalType": "uint16",
          "name": "_dstChainId",
          "type": "uint16"
        },
        {
          "internalType": "bytes",
          "name": "_toAddress",
          "type": "bytes"
        },
        {
          "internalType": "uint256[]",
          "name": "_tokenIds",
          "type": "uint256[]"
        },
        {
          "internalType": "address payable",
          "name": "_refundAddress",
          "type": "address"
        },
        {
          "internalType": "address",
          "name": "_zroPaymentAddress",
          "type": "address"
        },
        {
          "internalType": "bytes",
          "name": "_adapterParams",
          "type": "bytes"
        }
      ],
      "name": "sendBatchFrom",
      "outputs": [],
      "stateMutability": "payable",
      "type": "function"
    },
    {
      "inputs": [
        {
          "internalType": "address",
          "name": "_from",
          "type": "address"
        },
        {
          "internalType": "uint16",
          "name": "_dstChainId",
          "type": "uint16"
        },
        {
          "internalType": "bytes",
          "name": "_toAddress",
          "type": "bytes"
        },
        {
          "internalType": "uint256",
          "name": "_tokenId",
          "type": "uint256"
        },
        {
          "internalType": "address payable",
          "name": "_refundAddress",
          "type": "address"
        },
        {
          "internalType": "address",
          "name": "_zroPaymentAddress",
          "type": "address"
        },
        {
          "internalType": "bytes",
          "name": "_adapterParams",
          "type": "bytes"
        }
      ],
      "name": "sendFrom",
      "outputs": [],
      "stateMutability": "payable",
      "type": "function"
    },
    {
      "inputs": [
        {
          "internalType": "address",
          "name": "operator",
          "type": "address"
        },
        {
          "internalType": "bool",
          "name": "approved",
          "type": "bool"
        }
      ],
      "name": "setApprovalForAll",
      "outputs": [],
      "stateMutability": "nonpayable",
      "type": "function"
    },
    {
      "inputs": [
        {
          "internalType": "uint16",
          "name": "_version",
          "type": "uint16"
        },
        {
          "internalType": "uint16",
          "name": "_chainId",
          "type": "uint16"
        },
        {
          "internalType": "uint256",
          "name": "_configType",
          "type": "uint256"
        },
        {
          "internalType": "bytes",
          "name": "_config",
          "type": "bytes"
        }
      ],
      "name": "setConfig",
      "outputs": [],
      "stateMutability": "nonpayable",
      "type": "function"
    },
    {
      "inputs": [
        {
          "internalType": "uint16",
          "name": "_dstChainId",
          "type": "uint16"
        },
        {
          "internalType": "uint256",
          "name": "_dstChainIdToBatchLimit",
          "type": "uint256"
        }
      ],
      "name": "setDstChainIdToBatchLimit",
      "outputs": [],
      "stateMutability": "nonpayable",
      "type": "function"
    },
    {
      "inputs": [
        {
          "internalType": "uint16",
          "name": "_dstChainId",
          "type": "uint16"
        },
        {
          "internalType": "uint256",
          "name": "_dstChainIdToTransferGas",
          "type": "uint256"
        }
      ],
      "name": "setDstChainIdToTransferGas",
      "outputs": [],
      "stateMutability": "nonpayable",
      "type": "function"
    },
    {
      "inputs": [
        {
          "internalType": "uint16",
          "name": "_dstChainId",
          "type": "uint16"
        },
        {
          "internalType": "uint16",
          "name": "_packetType",
          "type": "uint16"
        },
        {
          "internalType": "uint256",
          "name": "_minGas",
          "type": "uint256"
        }
      ],
      "name": "setMinDstGas",
      "outputs": [],
      "stateMutability": "nonpayable",
      "type": "function"
    },
    {
      "inputs": [
        {
          "internalType": "uint256",
          "name": "_minGasToTransferAndStore",
          "type": "uint256"
        }
      ],
      "name": "setMinGasToTransferAndStore",
      "outputs": [],
      "stateMutability": "nonpayable",
      "type": "function"
    },
    {
      "inputs": [
        {
          "internalType": "uint16",
          "name": "_dstChainId",
          "type": "uint16"
        },
        {
          "internalType": "uint256",
          "name": "_size",
          "type": "uint256"
        }
      ],
      "name": "setPayloadSizeLimit",
      "outputs": [],
      "stateMutability": "nonpayable",
      "type": "function"
    },
    {
      "inputs": [
        {
          "internalType": "address",
          "name": "_precrime",
          "type": "address"
        }
      ],
      "name": "setPrecrime",
      "outputs": [],
      "stateMutability": "nonpayable",
      "type": "function"
    },
    {
      "inputs": [
        {
          "internalType": "uint16",
          "name": "_version",
          "type": "uint16"
        }
      ],
      "name": "setReceiveVersion",
      "outputs": [],
      "stateMutability": "nonpayable",
      "type": "function"
    },
    {
      "inputs": [
        {
          "internalType": "uint16",
          "name": "_version",
          "type": "uint16"
        }
      ],
      "name": "setSendVersion",
      "outputs": [],
      "stateMutability": "nonpayable",
      "type": "function"
    },
    {
      "inputs": [
        {
          "internalType": "uint16",
          "name": "_remoteChainId",
          "type": "uint16"
        },
        {
          "internalType": "bytes",
          "name": "_path",
          "type": "bytes"
        }
      ],
      "name": "setTrustedRemote",
      "outputs": [],
      "stateMutability": "nonpayable",
      "type": "function"
    },
    {
      "inputs": [
        {
          "internalType": "uint16",
          "name": "_remoteChainId",
          "type": "uint16"
        },
        {
          "internalType": "bytes",
          "name": "_remoteAddress",
          "type": "bytes"
        }
      ],
      "name": "setTrustedRemoteAddress",
      "outputs": [],
      "stateMutability": "nonpayable",
      "type": "function"
    },
    {
      "inputs": [
        {
          "internalType": "bytes32",
          "name": "",
          "type": "bytes32"
        }
      ],
      "name": "storedCredits",
      "outputs": [
        {
          "internalType": "uint16",
          "name": "srcChainId",
          "type": "uint16"
        },
        {
          "internalType": "address",
          "name": "toAddress",
          "type": "address"
        },
        {
          "internalType": "uint256",
          "name": "index",
          "type": "uint256"
        },
        {
          "internalType": "bool",
          "name": "creditsRemain",
          "type": "bool"
        }
      ],
      "stateMutability": "view",
      "type": "function"
    },
    {
      "inputs": [
        {
          "internalType": "bytes4",
          "name": "interfaceId",
          "type": "bytes4"
        }
      ],
      "name": "supportsInterface",
      "outputs": [
        {
          "internalType": "bool",
          "name": "",
          "type": "bool"
        }
      ],
      "stateMutability": "view",
      "type": "function"
    },
    {
      "inputs": [],
      "name": "symbol",
      "outputs": [
        {
          "internalType": "string",
          "name": "",
          "type": "string"
        }
      ],
      "stateMutability": "view",
      "type": "function"
    },
    {
      "inputs": [
        {
          "internalType": "uint256",
          "name": "tokenId",
          "type": "uint256"
        }
      ],
      "name": "tokenURI",
      "outputs": [
        {
          "internalType": "string",
          "name": "",
          "type": "string"
        }
      ],
      "stateMutability": "view",
      "type": "function"
    },
    {
      "inputs": [],
      "name": "totalSupply",
      "outputs": [
        {
          "internalType": "uint256",
          "name": "",
          "type": "uint256"
        }
      ],
      "stateMutability": "view",
      "type": "function"
    },
    {
      "inputs": [
        {
          "internalType": "address",
          "name": "from",
          "type": "address"
        },
        {
          "internalType": "address",
          "name": "to",
          "type": "address"
        },
        {
          "internalType": "uint256",
          "name": "tokenId",
          "type": "uint256"
        }
      ],
      "name": "transferFrom",
      "outputs": [],
      "stateMutability": "payable",
      "type": "function"
    },
    {
      "inputs": [
        {
          "internalType": "address",
          "name": "newOwner",
          "type": "address"
        }
      ],
      "name": "transferOwnership",
      "outputs": [],
      "stateMutability": "nonpayable",
      "type": "function"
    },
    {
      "inputs": [
        {
          "internalType": "uint16",
          "name": "",
          "type": "uint16"
        }
      ],
      "name": "trustedRemoteLookup",
      "outputs": [
        {
          "internalType": "bytes",
          "name": "",
          "type": "bytes"
        }
      ],
      "stateMutability": "view",
      "type": "function"
    }
  ],
  "bytecode": {
    "object": "0x60a06040523480156200001157600080fd5b50604051620043d1380380620043d1833981016040819052620000349162000201565b8383838380806200004533620000e9565b6001600160a01b031660805250600160065581620000b55760405162461bcd60e51b8152602060048201526024808201527f6d696e476173546f5472616e73666572416e6453746f7265206d7573742062656044820152630203e20360e41b606482015260840160405180910390fd5b50600755600d620000c7838262000327565b50600e620000d6828262000327565b506000600b5550620003f3945050505050565b600080546001600160a01b038381166001600160a01b0319831681178455604051919092169283917f8be0079c531659141344cd1fd0a4f28419497f9722a3daafe3b4186f6b6457e09190a35050565b634e487b7160e01b600052604160045260246000fd5b600082601f8301126200016157600080fd5b81516001600160401b03808211156200017e576200017e62000139565b604051601f8301601f19908116603f01168101908282118183101715620001a957620001a962000139565b8160405283815260209250866020858801011115620001c757600080fd5b600091505b83821015620001eb5785820183015181830184015290820190620001cc565b6000602085830101528094505050505092915050565b600080600080608085870312156200021857600080fd5b84516001600160401b03808211156200023057600080fd5b6200023e888389016200014f565b955060208701519150808211156200025557600080fd5b5062000264878288016200014f565b60408701516060880151919550935090506001600160a01b03811681146200028b57600080fd5b939692955090935050565b600181811c90821680620002ab57607f821691505b602082108103620002cc57634e487b7160e01b600052602260045260246000fd5b50919050565b601f82111562000322576000816000526020600020601f850160051c81016020861015620002fd5750805b601f850160051c820191505b818110156200031e5782815560010162000309565b5050505b505050565b81516001600160401b0381111562000343576200034362000139565b6200035b8162000354845462000296565b84620002d2565b602080601f8311600181146200039357600084156200037a5750858301515b600019600386901b1c1916600185901b1785556200031e565b600085815260208120601f198616915b82811015620003c457888601518255948401946001909101908401620003a3565b5085821015620003e35787850151600019600388901b60f8161c191681555b5050505050600190811b01905550565b608051613f8a62000447600039600081816108bb01528181610a8901528181610d9501528181610fc1015281816112d301528181611ba601528181612013015281816121460152612d400152613f8a6000f3fe6080604052600436106103195760003560e01c80637533d788116101ab578063b88d4fde116100f7578063df2a5b3b11610095578063f23536411161006f578063f2353641146109f9578063f2fde38b14610a19578063f5ecbdbc14610a39578063fa25f9b614610a5957600080fd5b8063df2a5b3b14610999578063e985e9c5146109b9578063eb8d72b7146109d957600080fd5b8063c87b56dd116100d1578063c87b56dd14610926578063cbed8b9c14610946578063d12473a514610966578063d1deba1f1461098657600080fd5b8063b88d4fde146108dd578063baf3292d146108f0578063c44618341461091057600080fd5b80639ea5d6b111610164578063a6c3d1651161013e578063a6c3d1651461084e578063ab3ffb931461086e578063af3fb21c14610881578063b353aaa7146108a957600080fd5b80639ea5d6b1146107ee5780639f38369a1461080e578063a22cb4651461082e57600080fd5b80637533d788146107235780638cfd8f5c146107435780638da5cb5b1461077b5780638ffa1f2a14610799578063950c8a74146107b957806395d89b41146107d957600080fd5b80632a205e3d1161026a5780634ac3f4ff116102235780636352211e116101fd5780636352211e146106ae57806366ad5c8a146106ce57806370a08231146106ee578063715018a61461070e57600080fd5b80634ac3f4ff1461061f578063519056361461064c5780635b8c41e61461065f57600080fd5b80632a205e3d146105545780633d8b38f6146105895780633f1f4fa4146105a957806342842e0e146105d657806342d65a8d146105e9578063482881901461060957600080fd5b80630b4cad4c116102d7578063150b7a02116102b1578063150b7a021461046257806318160ddd1461049b57806322a3ecf9146104be57806323b872dd1461054157600080fd5b80630b4cad4c146104025780630df374831461042257806310ddb1371461044257600080fd5b80621d35671461031e57806301ffc9a71461034057806306fdde031461037557806307e0db1714610397578063081812fc146103b7578063095ea7b3146103ef575b600080fd5b34801561032a57600080fd5b5061033e610339366004612f38565b610a86565b005b34801561034c57600080fd5b5061036061035b366004612fe1565b610cb7565b60405190151581526020015b60405180910390f35b34801561038157600080fd5b5061038a610ce2565b60405161036c919061304e565b3480156103a357600080fd5b5061033e6103b2366004613061565b610d74565b3480156103c357600080fd5b506103d76103d236600461307c565b610dfd565b6040516001600160a01b03909116815260200161036c565b61033e6103fd3660046130b5565b610e41565b34801561040e57600080fd5b5061033e61041d36600461307c565b610ee1565b34801561042e57600080fd5b5061033e61043d3660046130e1565b610f81565b34801561044e57600080fd5b5061033e61045d366004613061565b610fa0565b34801561046e57600080fd5b5061048261047d3660046131c0565b610ff8565b6040516001600160e01b0319909116815260200161036c565b3480156104a757600080fd5b50600c54600b54035b60405190815260200161036c565b3480156104ca57600080fd5b506105126104d936600461307c565b600a6020526000908152604090208054600182015460029092015461ffff821692620100009092046001600160a01b0316919060ff1684565b6040805161ffff90951685526001600160a01b039093166020850152918301521515606082015260800161036c565b61033e61054f36600461322b565b611009565b34801561056057600080fd5b5061057461056f36600461327c565b6111a2565b6040805192835260208301919091520161036c565b34801561059557600080fd5b506103606105a436600461330a565b6111c8565b3480156105b557600080fd5b506104b06105c4366004613061565b60036020526000908152604090205481565b61033e6105e436600461322b565b611294565b3480156105f557600080fd5b5061033e61060436600461330a565b6112b4565b34801561061557600080fd5b506104b060075481565b34801561062b57600080fd5b506104b061063a366004613061565b60086020526000908152604090205481565b61033e61065a36600461335c565b61133a565b34801561066b57600080fd5b506104b061067a366004613415565b6005602090815260009384526040808520845180860184018051928152908401958401959095209452929052825290205481565b3480156106ba57600080fd5b506103d76106c936600461307c565b611351565b3480156106da57600080fd5b5061033e6106e9366004612f38565b61135c565b3480156106fa57600080fd5b506104b0610709366004613472565b611430565b34801561071a57600080fd5b5061033e61147e565b34801561072f57600080fd5b5061038a61073e366004613061565b611492565b34801561074f57600080fd5b506104b061075e36600461348f565b600260209081526000928352604080842090915290825290205481565b34801561078757600080fd5b506000546001600160a01b03166103d7565b3480156107a557600080fd5b5061033e6107b43660046134c2565b61152c565b3480156107c557600080fd5b506004546103d7906001600160a01b031681565b3480156107e557600080fd5b5061038a611777565b3480156107fa57600080fd5b5061033e6108093660046130e1565b611786565b34801561081a57600080fd5b5061038a610829366004613061565b61183d565b34801561083a57600080fd5b5061033e6108493660046134f6565b611953565b34801561085a57600080fd5b5061033e61086936600461330a565b6119bf565b61033e61087c3660046135af565b611a48565b34801561088d57600080fd5b50610896600181565b60405161ffff909116815260200161036c565b3480156108b557600080fd5b506103d77f000000000000000000000000000000000000000000000000000000000000000081565b61033e6108eb3660046131c0565b611a57565b3480156108fc57600080fd5b5061033e61090b366004613472565b611aa1565b34801561091c57600080fd5b506104b061271081565b34801561093257600080fd5b5061038a61094136600461307c565b611af7565b34801561095257600080fd5b5061033e610961366004613664565b611b87565b34801561097257600080fd5b5061033e6109813660046130e1565b611c1c565b61033e610994366004612f38565b611ccc565b3480156109a557600080fd5b5061033e6109b43660046136d2565b611ee2565b3480156109c557600080fd5b506103606109d436600461370e565b611f4c565b3480156109e557600080fd5b5061033e6109f436600461330a565b611f7a565b348015610a0557600080fd5b50610574610a14366004613747565b611fd4565b348015610a2557600080fd5b5061033e610a34366004613472565b61209f565b348015610a4557600080fd5b5061038a610a543660046137c0565b612115565b348015610a6557600080fd5b506104b0610a74366004613061565b60096020526000908152604090205481565b337f00000000000000000000000000000000000000000000000000000000000000006001600160a01b031614610b035760405162461bcd60e51b815260206004820152601e60248201527f4c7a4170703a20696e76616c696420656e64706f696e742063616c6c6572000060448201526064015b60405180910390fd5b61ffff861660009081526001602052604081208054610b219061380d565b80601f0160208091040260200160405190810160405280929190818152602001828054610b4d9061380d565b8015610b9a5780601f10610b6f57610100808354040283529160200191610b9a565b820191906000526020600020905b815481529060010190602001808311610b7d57829003601f168201915b50505050509050805186869050148015610bb5575060008151115b8015610bdd575080516020820120604051610bd39088908890613847565b6040518091039020145b610c385760405162461bcd60e51b815260206004820152602660248201527f4c7a4170703a20696e76616c696420736f757263652073656e64696e6720636f6044820152651b9d1c9858dd60d21b6064820152608401610afa565b610cae8787878080601f01602080910402602001604051908101604052809392919081815260200183838082843760009201919091525050604080516020601f8a018190048102820181019092528881528a9350915088908890819084018382808284376000920191909152506121c692505050565b50505050505050565b60006001600160e01b031982166322bac5d960e01b1480610cdc5750610cdc8261223f565b92915050565b6060600d8054610cf19061380d565b80601f0160208091040260200160405190810160405280929190818152602001828054610d1d9061380d565b8015610d6a5780601f10610d3f57610100808354040283529160200191610d6a565b820191906000526020600020905b815481529060010190602001808311610d4d57829003601f168201915b5050505050905090565b610d7c61228d565b6040516307e0db1760e01b815261ffff821660048201527f00000000000000000000000000000000000000000000000000000000000000006001600160a01b0316906307e0db17906024015b600060405180830381600087803b158015610de257600080fd5b505af1158015610df6573d6000803e3d6000fd5b5050505050565b6000610e08826122e7565b610e25576040516333d1c03960e21b815260040160405180910390fd5b506000908152601160205260409020546001600160a01b031690565b6000610e4c82611351565b9050336001600160a01b03821614610e8557610e688133611f4c565b610e85576040516367d9dca160e11b815260040160405180910390fd5b60008281526011602052604080822080546001600160a01b0319166001600160a01b0387811691821790925591518593918516917f8c5be1e5ebec7d5bd14f71427d1e84f3dd0314c0f7b2291e5b200ac8c7c3b92591a4505050565b610ee961228d565b60008111610f455760405162461bcd60e51b8152602060048201526024808201527f6d696e476173546f5472616e73666572416e6453746f7265206d7573742062656044820152630203e20360e41b6064820152608401610afa565b60078190556040518181527ffebbc4f8bb9ec2313950c718d43123124b15778efda4c1f1d529de2995b4f34d906020015b60405180910390a150565b610f8961228d565b61ffff909116600090815260036020526040902055565b610fa861228d565b6040516310ddb13760e01b815261ffff821660048201527f00000000000000000000000000000000000000000000000000000000000000006001600160a01b0316906310ddb13790602401610dc8565b630a85bd0160e11b5b949350505050565b60006110148261230f565b9050836001600160a01b0316816001600160a01b0316146110475760405162a1148160e81b815260040160405180910390fd5b60008281526011602052604090208054338082146001600160a01b03881690911417611094576110778633611f4c565b61109457604051632ce44b5f60e11b815260040160405180910390fd5b6001600160a01b0385166110bb57604051633a954ecd60e21b815260040160405180910390fd5b80156110c657600082555b6001600160a01b038681166000908152601060205260408082208054600019019055918716808252919020805460010190554260a01b17600160e11b176000858152600f6020526040812091909155600160e11b8416900361115857600184016000818152600f6020526040812054900361115657600b548114611156576000818152600f602052604090208490555b505b83856001600160a01b0316876001600160a01b03167fddf252ad1be2c89b69c2b068fc378daa952ba7f163c4a11628f55a4df523b3ef60405160405180910390a45b505050505050565b6000806111ba87876111b388612376565b8787611fd4565b915091509550959350505050565b61ffff8316600090815260016020526040812080548291906111e99061380d565b80601f01602080910402602001604051908101604052809291908181526020018280546112159061380d565b80156112625780601f1061123757610100808354040283529160200191611262565b820191906000526020600020905b81548152906001019060200180831161124557829003601f168201915b505050505090508383604051611279929190613847565b60405180910390208180519060200120149150509392505050565b6112af83838360405180602001604052806000815250611a57565b505050565b6112bc61228d565b6040516342d65a8d60e01b81526001600160a01b037f000000000000000000000000000000000000000000000000000000000000000016906342d65a8d9061130c90869086908690600401613880565b600060405180830381600087803b15801561132657600080fd5b505af1158015610cae573d6000803e3d6000fd5b610cae87878761134988612376565b8787876123c1565b6000610cdc8261230f565b3330146113ba5760405162461bcd60e51b815260206004820152602660248201527f4e6f6e626c6f636b696e674c7a4170703a2063616c6c6572206d7573742062656044820152650204c7a4170760d41b6064820152608401610afa565b61119a8686868080601f01602080910402602001604051908101604052809392919081815260200183838082843760009201919091525050604080516020601f89018190048102820181019092528781528993509150879087908190840183828082843760009201919091525061258b92505050565b60006001600160a01b038216611459576040516323d3ad8160e21b815260040160405180910390fd5b506001600160a01b03166000908152601060205260409020546001600160401b031690565b61148661228d565b61149060006126e2565b565b600160205260009081526040902080546114ab9061380d565b80601f01602080910402602001604051908101604052809291908181526020018280546114d79061380d565b80156115245780601f106114f957610100808354040283529160200191611524565b820191906000526020600020905b81548152906001019060200180831161150757829003601f168201915b505050505081565b611534612732565b80516020808301919091206000818152600a90925260409091206002015460ff166115955760405162461bcd60e51b81526020600482015260116024820152701b9bc818dc99591a5d1cc81cdd1bdc9959607a1b6044820152606401610afa565b6000828060200190518101906115ab91906138e3565b6000848152600a6020526040812080546001909101549294509092506115e79161ffff8216916201000090046001600160a01b0316908561278b565b6000848152600a6020526040902060010154909150811161165c5760405162461bcd60e51b815260206004820152602960248201527f6e6f7420656e6f7567682067617320746f2070726f6365737320637265646974604482015268103a3930b739b332b960b91b6064820152608401610afa565b815181036116d3576000838152600a602052604080822080546001600160b01b031916815560018101929092556002909101805460ff19169055517fd7be02b8dd0d27bd0517a9cb4d7469ce27df4313821ae5ec1ff69acc594ba233906116c69085815260200190565b60405180910390a1611767565b604080516080810182526000858152600a6020818152848320805461ffff80821687526001600160a01b03620100008084048216868a019081529989018b8152600160608b01818152998f90529790965297519851169096026001600160b01b03199091169690951695909517939093178455915191830191909155516002909101805491151560ff199092169190911790555b5050506117746001600655565b50565b6060600e8054610cf19061380d565b61178e61228d565b600081116117e95760405162461bcd60e51b815260206004820152602260248201527f647374436861696e4964546f42617463684c696d6974206d757374206265203e604482015261020360f41b6064820152608401610afa565b61ffff8216600081815260086020908152604091829020849055815192835282018390527f7315f7654d594ead24a30160ed9ba2d23247f543016b918343591e93d7afdb6d91015b60405180910390a15050565b61ffff81166000908152600160205260408120805460609291906118609061380d565b80601f016020809104026020016040519081016040528092919081815260200182805461188c9061380d565b80156118d95780601f106118ae576101008083540402835291602001916118d9565b820191906000526020600020905b8154815290600101906020018083116118bc57829003601f168201915b5050505050905080516000036119315760405162461bcd60e51b815260206004820152601d60248201527f4c7a4170703a206e6f20747275737465642070617468207265636f72640000006044820152606401610afa565b61194c60006014835161194491906139b3565b8391906127d7565b9392505050565b3360008181526012602090815260408083206001600160a01b03871680855290835292819020805460ff191686151590811790915590519081529192917f17307eab39ab6107e8899845ad3d59bd9653f200f220920489ca2b5937696c31910160405180910390a35050565b6119c761228d565b8181306040516020016119dc939291906139c6565b60408051601f1981840301815291815261ffff8516600090815260016020522090611a079082613a34565b507f8c0400cfe2d1199b1a725c78960bcc2a344d869b80590d0f2bd005db15a572ce838383604051611a3b93929190613880565b60405180910390a1505050565b610cae878787878787876123c1565b611a62848484611009565b6001600160a01b0383163b15611a9b57611a7e848484846128e4565b611a9b576040516368d2bf6b60e11b815260040160405180910390fd5b50505050565b611aa961228d565b600480546001600160a01b0319166001600160a01b0383169081179091556040519081527f5db758e995a17ec1ad84bdef7e8c3293a0bd6179bcce400dff5d4c3d87db726b90602001610f76565b6060611b02826122e7565b611b1f57604051630a14c4b560e41b815260040160405180910390fd5b6000611b3660408051602081019091526000815290565b90508051600003611b56576040518060200160405280600081525061194c565b80611b60846129cc565b604051602001611b71929190613af3565b6040516020818303038152906040529392505050565b611b8f61228d565b6040516332fb62e760e21b81526001600160a01b037f0000000000000000000000000000000000000000000000000000000000000000169063cbed8b9c90611be39088908890889088908890600401613b22565b600060405180830381600087803b158015611bfd57600080fd5b505af1158015611c11573d6000803e3d6000fd5b505050505050505050565b611c2461228d565b60008111611c805760405162461bcd60e51b815260206004820152602360248201527f647374436861696e4964546f5472616e73666572476173206d7573742062652060448201526203e20360ec1b6064820152608401610afa565b61ffff8216600081815260096020908152604091829020849055815192835282018390527fc46df2983228ac2d9754e94a0d565e6671665dc8ad38602bc8e544f0685a29fb9101611831565b61ffff86166000908152600560205260408082209051611cef9088908890613847565b90815260408051602092819003830190206001600160401b03871660009081529252902054905080611d6f5760405162461bcd60e51b815260206004820152602360248201527f4e6f6e626c6f636b696e674c7a4170703a206e6f2073746f726564206d65737360448201526261676560e81b6064820152608401610afa565b808383604051611d80929190613847565b604051809103902014611ddf5760405162461bcd60e51b815260206004820152602160248201527f4e6f6e626c6f636b696e674c7a4170703a20696e76616c6964207061796c6f616044820152601960fa1b6064820152608401610afa565b61ffff87166000908152600560205260408082209051611e029089908990613847565b90815260408051602092819003830181206001600160401b038916600090815290845282902093909355601f88018290048202830182019052868252611e9a918991899089908190840183828082843760009201919091525050604080516020601f8a018190048102820181019092528881528a93509150889088908190840183828082843760009201919091525061258b92505050565b7fc264d91f3adc5588250e1551f547752ca0cfa8f6b530d243b9f9f4cab10ea8e58787878785604051611ed1959493929190613b5b565b60405180910390a150505050505050565b611eea61228d565b61ffff83811660008181526002602090815260408083209487168084529482529182902085905581519283528201929092529081018290527f9d5c7c0b934da8fefa9c7760c98383778a12dfbfc0c3b3106518f43fb9508ac090606001611a3b565b6001600160a01b03918216600090815260126020908152604080832093909416825291909152205460ff1690565b611f8261228d565b61ffff83166000908152600160205260409020611fa0828483613b96565b507ffa41487ad5d6728f0b19276fa1eddc16558578f5109fc39d2dc33c3230470dab838383604051611a3b93929190613880565b60008060008686604051602001611fec929190613c91565b60408051601f198184030181529082905263040a7bb160e41b825291506001600160a01b037f000000000000000000000000000000000000000000000000000000000000000016906340a7bb1090612050908b90309086908b908b90600401613cb6565b6040805180830381865afa15801561206c573d6000803e3d6000fd5b505050506040513d601f19601f820116820180604052508101906120909190613d0a565b92509250509550959350505050565b6120a761228d565b6001600160a01b03811661210c5760405162461bcd60e51b815260206004820152602660248201527f4f776e61626c653a206e6577206f776e657220697320746865207a65726f206160448201526564647265737360d01b6064820152608401610afa565b611774816126e2565b604051633d7b2f6f60e21b815261ffff808616600483015284166024820152306044820152606481018290526060907f00000000000000000000000000000000000000000000000000000000000000006001600160a01b03169063f5ecbdbc90608401600060405180830381865afa158015612195573d6000803e3d6000fd5b505050506040513d6000823e601f3d908101601f191682016040526121bd9190810190613d2e565b95945050505050565b6000806122295a60966366ad5c8a60e01b898989896040516024016121ee9493929190613d62565b60408051601f198184030181529190526020810180516001600160e01b03166001600160e01b03199093169290921790915230929190612a10565b915091508161119a5761119a8686868685612a9a565b60006301ffc9a760e01b6001600160e01b03198316148061227057506380ac58cd60e01b6001600160e01b03198316145b80610cdc5750506001600160e01b031916635b5e139f60e01b1490565b6000546001600160a01b031633146114905760405162461bcd60e51b815260206004820181905260248201527f4f776e61626c653a2063616c6c6572206973206e6f7420746865206f776e65726044820152606401610afa565b6000600b5482108015610cdc5750506000908152600f6020526040902054600160e01b161590565b600081600b5481101561235d576000818152600f602052604081205490600160e01b8216900361235b575b8060000361194c5750600019016000818152600f602052604090205461233a565b505b604051636f96cda160e11b815260040160405180910390fd5b604080516001808252818301909252606091600091906020808301908036833701905050905082816000815181106123b0576123b0613da0565b602090810291909101015292915050565b60008451116124085760405162461bcd60e51b8152602060048201526013602482015272746f6b656e4964735b5d20697320656d70747960681b6044820152606401610afa565b83516001148061242c575061ffff8616600090815260086020526040902054845111155b6124835760405162461bcd60e51b815260206004820152602260248201527f62617463682073697a65206578636565647320647374206261746368206c696d6044820152611a5d60f21b6064820152608401610afa565b60005b84518110156124bc576124b48888888885815181106124a7576124a7613da0565b6020026020010151612b37565b600101612486565b50600085856040516020016124d2929190613c91565b6040516020818303038152906040529050612517876001848851600960008d61ffff1661ffff168152602001908152602001600020546125129190613db6565b612b42565b612525878286868634612c17565b856040516125339190613dcd565b6040518091039020886001600160a01b03168861ffff167fe1b87c47fdeb4f9cbadbca9df3af7aba453bb6e501075d0440d88125b711522a886040516125799190613de9565b60405180910390a45050505050505050565b600080828060200190518101906125a291906138e3565b6014820151919350915060006125ba8883838661278b565b9050825181101561268e5784516020808701919091206040805160808101825261ffff808d1682526001600160a01b038088168387019081528385018881526001606086018181526000898152600a909a529887902095518654935190941662010000026001600160b01b03199093169390941692909217178355519082015592516002909301805493151560ff199094169390931790925590517f10e0b70d256bccc84b7027506978bd8b68984a870788b93b479def144c839ad7906126849083908990613dfc565b60405180910390a1505b816001600160a01b0316876040516126a69190613dcd565b60405180910390208961ffff167f5b821db8a46f8ecbe1941ba2f51cfeea9643268b56631f70d45e2a745d990265866040516125799190613de9565b600080546001600160a01b038381166001600160a01b0319831681178455604051919092169283917f8be0079c531659141344cd1fd0a4f28419497f9722a3daafe3b4186f6b6457e09190a35050565b6002600654036127845760405162461bcd60e51b815260206004820152601f60248201527f5265656e7472616e637947756172643a207265656e7472616e742063616c6c006044820152606401610afa565b6002600655565b6000825b82518110156121bd576007545a106121bd576127c586868584815181106127b8576127b8613da0565b6020026020010151612dbc565b806127cf81613e15565b91505061278f565b6060816127e581601f613e2e565b10156128245760405162461bcd60e51b815260206004820152600e60248201526d736c6963655f6f766572666c6f7760901b6044820152606401610afa565b61282e8284613e2e565b845110156128725760405162461bcd60e51b8152602060048201526011602482015270736c6963655f6f75744f66426f756e647360781b6044820152606401610afa565b60608215801561289157604051915060008252602082016040526128db565b6040519150601f8416801560200281840101858101878315602002848b0101015b818310156128ca5780518352602092830192016128b2565b5050858452601f01601f1916604052505b50949350505050565b604051630a85bd0160e11b81526000906001600160a01b0385169063150b7a0290612919903390899088908890600401613e41565b6020604051808303816000875af1925050508015612954575060408051601f3d908101601f1916820190925261295191810190613e7e565b60015b6129b2573d808015612982576040519150601f19603f3d011682016040523d82523d6000602084013e612987565b606091505b5080516000036129aa576040516368d2bf6b60e11b815260040160405180910390fd5b805181602001fd5b6001600160e01b031916630a85bd0160e11b149050611001565b606060a06040510180604052602081039150506000815280825b600183039250600a81066030018353600a9004806129e65750819003601f19909101908152919050565b6000606060008060008661ffff166001600160401b03811115612a3557612a356130fd565b6040519080825280601f01601f191660200182016040528015612a5f576020820181803683370190505b50905060008087516020890160008d8df191503d925086831115612a81578692505b828152826000602083013e909890975095505050505050565b8180519060200120600560008761ffff1661ffff16815260200190815260200160002085604051612acb9190613dcd565b9081526040805191829003602090810183206001600160401b0388166000908152915220919091557fe183f33de2837795525b4792ca4cd60535bd77c53b7e7030060bfcf5734d6b0c90612b289087908790879087908790613e9b565b60405180910390a15050505050565b611a9b843083611294565b6000612b4d83612df5565b61ffff80871660009081526002602090815260408083209389168352929052205490915080612bbe5760405162461bcd60e51b815260206004820152601a60248201527f4c7a4170703a206d696e4761734c696d6974206e6f74207365740000000000006044820152606401610afa565b612bc88382613e2e565b82101561119a5760405162461bcd60e51b815260206004820152601b60248201527f4c7a4170703a20676173206c696d697420697320746f6f206c6f7700000000006044820152606401610afa565b61ffff861660009081526001602052604081208054612c359061380d565b80601f0160208091040260200160405190810160405280929190818152602001828054612c619061380d565b8015612cae5780601f10612c8357610100808354040283529160200191612cae565b820191906000526020600020905b815481529060010190602001808311612c9157829003601f168201915b505050505090508051600003612d1f5760405162461bcd60e51b815260206004820152603060248201527f4c7a4170703a2064657374696e6174696f6e20636861696e206973206e6f742060448201526f61207472757374656420736f7572636560801b6064820152608401610afa565b612d2a878751612e51565b60405162c5803160e81b81526001600160a01b037f0000000000000000000000000000000000000000000000000000000000000000169063c5803100908490612d81908b9086908c908c908c908c90600401613eed565b6000604051808303818588803b158015612d9a57600080fd5b505af1158015612dae573d6000803e3d6000fd5b505050505050505050505050565b612dc5816122e7565b8015612de1575030612dd682611351565b6001600160a01b0316145b612dea57600080fd5b6112af308383611294565b6000602282511015612e495760405162461bcd60e51b815260206004820152601c60248201527f4c7a4170703a20696e76616c69642061646170746572506172616d73000000006044820152606401610afa565b506022015190565b61ffff821660009081526003602052604081205490819003612e7257506127105b808211156112af5760405162461bcd60e51b815260206004820181905260248201527f4c7a4170703a207061796c6f61642073697a6520697320746f6f206c617267656044820152606401610afa565b803561ffff81168114612ed457600080fd5b919050565b60008083601f840112612eeb57600080fd5b5081356001600160401b03811115612f0257600080fd5b602083019150836020828501011115612f1a57600080fd5b9250929050565b80356001600160401b0381168114612ed457600080fd5b60008060008060008060808789031215612f5157600080fd5b612f5a87612ec2565b955060208701356001600160401b0380821115612f7657600080fd5b612f828a838b01612ed9565b9097509550859150612f9660408a01612f21565b94506060890135915080821115612fac57600080fd5b50612fb989828a01612ed9565b979a9699509497509295939492505050565b6001600160e01b03198116811461177457600080fd5b600060208284031215612ff357600080fd5b813561194c81612fcb565b60005b83811015613019578181015183820152602001613001565b50506000910152565b6000815180845261303a816020860160208601612ffe565b601f01601f19169290920160200192915050565b60208152600061194c6020830184613022565b60006020828403121561307357600080fd5b61194c82612ec2565b60006020828403121561308e57600080fd5b5035919050565b6001600160a01b038116811461177457600080fd5b8035612ed481613095565b600080604083850312156130c857600080fd5b82356130d381613095565b946020939093013593505050565b600080604083850312156130f457600080fd5b6130d383612ec2565b634e487b7160e01b600052604160045260246000fd5b604051601f8201601f191681016001600160401b038111828210171561313b5761313b6130fd565b604052919050565b60006001600160401b0382111561315c5761315c6130fd565b50601f01601f191660200190565b600082601f83011261317b57600080fd5b813561318e61318982613143565b613113565b8181528460208386010111156131a357600080fd5b816020850160208301376000918101602001919091529392505050565b600080600080608085870312156131d657600080fd5b84356131e181613095565b935060208501356131f181613095565b92506040850135915060608501356001600160401b0381111561321357600080fd5b61321f8782880161316a565b91505092959194509250565b60008060006060848603121561324057600080fd5b833561324b81613095565b9250602084013561325b81613095565b929592945050506040919091013590565b80358015158114612ed457600080fd5b600080600080600060a0868803121561329457600080fd5b61329d86612ec2565b945060208601356001600160401b03808211156132b957600080fd5b6132c589838a0161316a565b9550604088013594506132da6060890161326c565b935060808801359150808211156132f057600080fd5b506132fd8882890161316a565b9150509295509295909350565b60008060006040848603121561331f57600080fd5b61332884612ec2565b925060208401356001600160401b0381111561334357600080fd5b61334f86828701612ed9565b9497909650939450505050565b600080600080600080600060e0888a03121561337757600080fd5b873561338281613095565b965061339060208901612ec2565b955060408801356001600160401b03808211156133ac57600080fd5b6133b88b838c0161316a565b965060608a0135955060808a013591506133d182613095565b90935060a0890135906133e382613095565b90925060c089013590808211156133f957600080fd5b506134068a828b0161316a565b91505092959891949750929550565b60008060006060848603121561342a57600080fd5b61343384612ec2565b925060208401356001600160401b0381111561344e57600080fd5b61345a8682870161316a565b92505061346960408501612f21565b90509250925092565b60006020828403121561348457600080fd5b813561194c81613095565b600080604083850312156134a257600080fd5b6134ab83612ec2565b91506134b960208401612ec2565b90509250929050565b6000602082840312156134d457600080fd5b81356001600160401b038111156134ea57600080fd5b6110018482850161316a565b6000806040838503121561350957600080fd5b823561351481613095565b91506134b96020840161326c565b60006001600160401b0382111561353b5761353b6130fd565b5060051b60200190565b600082601f83011261355657600080fd5b8135602061356661318983613522565b8083825260208201915060208460051b87010193508684111561358857600080fd5b602086015b848110156135a4578035835291830191830161358d565b509695505050505050565b600080600080600080600060e0888a0312156135ca57600080fd5b87356135d581613095565b96506135e360208901612ec2565b955060408801356001600160401b03808211156135ff57600080fd5b61360b8b838c0161316a565b965060608a013591508082111561362157600080fd5b61362d8b838c01613545565b955060808a0135915061363f82613095565b81945061364e60a08b016130aa565b935060c08a01359150808211156133f957600080fd5b60008060008060006080868803121561367c57600080fd5b61368586612ec2565b945061369360208701612ec2565b93506040860135925060608601356001600160401b038111156136b557600080fd5b6136c188828901612ed9565b969995985093965092949392505050565b6000806000606084860312156136e757600080fd5b6136f084612ec2565b92506136fe60208501612ec2565b9150604084013590509250925092565b6000806040838503121561372157600080fd5b823561372c81613095565b9150602083013561373c81613095565b809150509250929050565b600080600080600060a0868803121561375f57600080fd5b61376886612ec2565b945060208601356001600160401b038082111561378457600080fd5b61379089838a0161316a565b955060408801359150808211156137a657600080fd5b6137b289838a01613545565b94506132da6060890161326c565b600080600080608085870312156137d657600080fd5b6137df85612ec2565b93506137ed60208601612ec2565b925060408501356137fd81613095565b9396929550929360600135925050565b600181811c9082168061382157607f821691505b60208210810361384157634e487b7160e01b600052602260045260246000fd5b50919050565b8183823760009101908152919050565b81835281816020850137506000828201602090810191909152601f909101601f19169091010190565b61ffff841681526040602082015260006121bd604083018486613857565b600082601f8301126138af57600080fd5b81516138bd61318982613143565b8181528460208386010111156138d257600080fd5b611001826020830160208701612ffe565b600080604083850312156138f657600080fd5b82516001600160401b038082111561390d57600080fd5b6139198683870161389e565b935060209150818501518181111561393057600080fd5b85019050601f8101861361394357600080fd5b805161395161318982613522565b81815260059190911b8201830190838101908883111561397057600080fd5b928401925b8284101561398e57835182529284019290840190613975565b80955050505050509250929050565b634e487b7160e01b600052601160045260246000fd5b81810381811115610cdc57610cdc61399d565b8284823760609190911b6bffffffffffffffffffffffff19169101908152601401919050565b601f8211156112af576000816000526020600020601f850160051c81016020861015613a155750805b601f850160051c820191505b8181101561119a57828155600101613a21565b81516001600160401b03811115613a4d57613a4d6130fd565b613a6181613a5b845461380d565b846139ec565b602080601f831160018114613a965760008415613a7e5750858301515b600019600386901b1c1916600185901b17855561119a565b600085815260208120601f198616915b82811015613ac557888601518255948401946001909101908401613aa6565b5085821015613ae35787850151600019600388901b60f8161c191681555b5050505050600190811b01905550565b60008351613b05818460208801612ffe565b835190830190613b19818360208801612ffe565b01949350505050565b600061ffff808816835280871660208401525084604083015260806060830152613b50608083018486613857565b979650505050505050565b61ffff86168152608060208201526000613b79608083018688613857565b6001600160401b0394909416604083015250606001529392505050565b6001600160401b03831115613bad57613bad6130fd565b613bc183613bbb835461380d565b836139ec565b6000601f841160018114613bf55760008515613bdd5750838201355b600019600387901b1c1916600186901b178355610df6565b600083815260209020601f19861690835b82811015613c265786850135825560209485019460019092019101613c06565b5086821015613c435760001960f88860031b161c19848701351681555b505060018560011b0183555050505050565b60008151808452602080850194506020840160005b83811015613c8657815187529582019590820190600101613c6a565b509495945050505050565b604081526000613ca46040830185613022565b82810360208401526121bd8185613c55565b61ffff861681526001600160a01b038516602082015260a060408201819052600090613ce490830186613022565b84151560608401528281036080840152613cfe8185613022565b98975050505050505050565b60008060408385031215613d1d57600080fd5b505080516020909101519092909150565b600060208284031215613d4057600080fd5b81516001600160401b03811115613d5657600080fd5b6110018482850161389e565b61ffff85168152608060208201526000613d7f6080830186613022565b6001600160401b03851660408401528281036060840152613b508185613022565b634e487b7160e01b600052603260045260246000fd5b8082028115828204841417610cdc57610cdc61399d565b60008251613ddf818460208701612ffe565b9190910192915050565b60208152600061194c6020830184613c55565b8281526040602082015260006110016040830184613022565b600060018201613e2757613e2761399d565b5060010190565b80820180821115610cdc57610cdc61399d565b6001600160a01b0385811682528416602082015260408101839052608060608201819052600090613e7490830184613022565b9695505050505050565b600060208284031215613e9057600080fd5b815161194c81612fcb565b61ffff8616815260a060208201526000613eb860a0830187613022565b6001600160401b03861660408401528281036060840152613ed98186613022565b90508281036080840152613cfe8185613022565b61ffff8716815260c060208201526000613f0a60c0830188613022565b8281036040840152613f1c8188613022565b6001600160a01b0387811660608601528616608085015283810360a08501529050613f478185613022565b999850505050505050505056fea2646970667358221220e6be71651e375bb58108fa8a15cd5f3c966fc618eeaf270cc070685edb11b15b64736f6c63430008160033",
    "linkReferences": {}
  },
  "methodIdentifiers": {
    "DEFAULT_PAYLOAD_SIZE_LIMIT()": "c4461834",
    "FUNCTION_TYPE_SEND()": "af3fb21c",
    "approve(address,uint256)": "095ea7b3",
    "balanceOf(address)": "70a08231",
    "clearCredits(bytes)": "8ffa1f2a",
    "dstChainIdToBatchLimit(uint16)": "4ac3f4ff",
    "dstChainIdToTransferGas(uint16)": "fa25f9b6",
    "estimateSendBatchFee(uint16,bytes,uint256[],bool,bytes)": "f2353641",
    "estimateSendFee(uint16,bytes,uint256,bool,bytes)": "2a205e3d",
    "failedMessages(uint16,bytes,uint64)": "5b8c41e6",
    "forceResumeReceive(uint16,bytes)": "42d65a8d",
    "getApproved(uint256)": "081812fc",
    "getConfig(uint16,uint16,address,uint256)": "f5ecbdbc",
    "getTrustedRemoteAddress(uint16)": "9f38369a",
    "isApprovedForAll(address,address)": "e985e9c5",
    "isTrustedRemote(uint16,bytes)": "3d8b38f6",
    "lzEndpoint()": "b353aaa7",
    "lzReceive(uint16,bytes,uint64,bytes)": "001d3567",
    "minDstGasLookup(uint16,uint16)": "8cfd8f5c",
    "minGasToTransferAndStore()": "48288190",
    "name()": "06fdde03",
    "nonblockingLzReceive(uint16,bytes,uint64,bytes)": "66ad5c8a",
    "onERC721Received(address,address,uint256,bytes)": "150b7a02",
    "owner()": "8da5cb5b",
    "ownerOf(uint256)": "6352211e",
    "payloadSizeLimitLookup(uint16)": "3f1f4fa4",
    "precrime()": "950c8a74",
    "renounceOwnership()": "715018a6",
    "retryMessage(uint16,bytes,uint64,bytes)": "d1deba1f",
    "safeTransferFrom(address,address,uint256)": "42842e0e",
    "safeTransferFrom(address,address,uint256,bytes)": "b88d4fde",
    "sendBatchFrom(address,uint16,bytes,uint256[],address,address,bytes)": "ab3ffb93",
    "sendFrom(address,uint16,bytes,uint256,address,address,bytes)": "51905636",
    "setApprovalForAll(address,bool)": "a22cb465",
    "setConfig(uint16,uint16,uint256,bytes)": "cbed8b9c",
    "setDstChainIdToBatchLimit(uint16,uint256)": "9ea5d6b1",
    "setDstChainIdToTransferGas(uint16,uint256)": "d12473a5",
    "setMinDstGas(uint16,uint16,uint256)": "df2a5b3b",
    "setMinGasToTransferAndStore(uint256)": "0b4cad4c",
    "setPayloadSizeLimit(uint16,uint256)": "0df37483",
    "setPrecrime(address)": "baf3292d",
    "setReceiveVersion(uint16)": "10ddb137",
    "setSendVersion(uint16)": "07e0db17",
    "setTrustedRemote(uint16,bytes)": "eb8d72b7",
    "setTrustedRemoteAddress(uint16,bytes)": "a6c3d165",
    "storedCredits(bytes32)": "22a3ecf9",
    "supportsInterface(bytes4)": "01ffc9a7",
    "symbol()": "95d89b41",
    "tokenURI(uint256)": "c87b56dd",
    "totalSupply()": "18160ddd",
    "transferFrom(address,address,uint256)": "23b872dd",
    "transferOwnership(address)": "f2fde38b",
    "trustedRemoteLookup(uint16)": "7533d788"
  },
  "id": 43
}