{
  "abi": [
    {
      "inputs": [
        {
          "internalType": "address",
          "name": "_endpoint",
          "type": "address"
        }
      ],
      "stateMutability": "nonpayable",
      "type": "constructor"
    },
    {
      "anonymous": false,
      "inputs": [
        {
          "indexed": false,
          "internalType": "uint16",
          "name": "_srcChainId",
          "type": "uint16"
        },
        {
          "indexed": false,
          "internalType": "bytes",
          "name": "_srcAddress",
          "type": "bytes"
        },
        {
          "indexed": false,
          "internalType": "uint64",
          "name": "_nonce",
          "type": "uint64"
        },
        {
          "indexed": false,
          "internalType": "bytes",
          "name": "_payload",
          "type": "bytes"
        },
        {
          "indexed": false,
          "internalType": "bytes",
          "name": "_reason",
          "type": "bytes"
        }
      ],
      "name": "MessageFailed",
      "type": "event"
    },
    {
      "anonymous": false,
      "inputs": [
        {
          "indexed": true,
          "internalType": "address",
          "name": "previousOwner",
          "type": "address"
        },
        {
          "indexed": true,
          "internalType": "address",
          "name": "newOwner",
          "type": "address"
        }
      ],
      "name": "OwnershipTransferred",
      "type": "event"
    },
    {
      "anonymous": false,
      "inputs": [
        {
          "indexed": true,
          "internalType": "uint16",
          "name": "_srcChainId",
          "type": "uint16"
        },
        {
          "indexed": true,
          "internalType": "address",
          "name": "_from",
          "type": "address"
        },
        {
          "indexed": true,
          "internalType": "bytes",
          "name": "_toAddress",
          "type": "bytes"
        },
        {
          "indexed": false,
          "internalType": "uint256",
          "name": "_amount",
          "type": "uint256"
        }
      ],
      "name": "ReceiveGasDrop",
      "type": "event"
    },
    {
      "anonymous": false,
      "inputs": [
        {
          "indexed": false,
          "internalType": "uint16",
          "name": "_srcChainId",
          "type": "uint16"
        },
        {
          "indexed": false,
          "internalType": "bytes",
          "name": "_srcAddress",
          "type": "bytes"
        },
        {
          "indexed": false,
          "internalType": "uint64",
          "name": "_nonce",
          "type": "uint64"
        },
        {
          "indexed": false,
          "internalType": "bytes32",
          "name": "_payloadHash",
          "type": "bytes32"
        }
      ],
      "name": "RetryMessageSuccess",
      "type": "event"
    },
    {
      "anonymous": false,
      "inputs": [
        {
          "indexed": true,
          "internalType": "uint16",
          "name": "_dstChainId",
          "type": "uint16"
        },
        {
          "indexed": true,
          "internalType": "address",
          "name": "_from",
          "type": "address"
        },
        {
          "indexed": true,
          "internalType": "bytes",
          "name": "_toAddress",
          "type": "bytes"
        },
        {
          "indexed": false,
          "internalType": "uint256",
          "name": "_amount",
          "type": "uint256"
        }
      ],
      "name": "SendGasDrop",
      "type": "event"
    },
    {
      "anonymous": false,
      "inputs": [
        {
          "indexed": false,
          "internalType": "uint256",
          "name": "dstGas",
          "type": "uint256"
        }
      ],
      "name": "SetDstGas",
      "type": "event"
    },
    {
      "anonymous": false,
      "inputs": [
        {
          "indexed": false,
          "internalType": "uint16",
          "name": "_dstChainId",
          "type": "uint16"
        },
        {
          "indexed": false,
          "internalType": "uint16",
          "name": "_type",
          "type": "uint16"
        },
        {
          "indexed": false,
          "internalType": "uint256",
          "name": "_minDstGas",
          "type": "uint256"
        }
      ],
      "name": "SetMinDstGas",
      "type": "event"
    },
    {
      "anonymous": false,
      "inputs": [
        {
          "indexed": false,
          "internalType": "address",
          "name": "precrime",
          "type": "address"
        }
      ],
      "name": "SetPrecrime",
      "type": "event"
    },
    {
      "anonymous": false,
      "inputs": [
        {
          "indexed": false,
          "internalType": "uint16",
          "name": "_remoteChainId",
          "type": "uint16"
        },
        {
          "indexed": false,
          "internalType": "bytes",
          "name": "_path",
          "type": "bytes"
        }
      ],
      "name": "SetTrustedRemote",
      "type": "event"
    },
    {
      "anonymous": false,
      "inputs": [
        {
          "indexed": false,
          "internalType": "uint16",
          "name": "_remoteChainId",
          "type": "uint16"
        },
        {
          "indexed": false,
          "internalType": "bytes",
          "name": "_remoteAddress",
          "type": "bytes"
        }
      ],
      "name": "SetTrustedRemoteAddress",
      "type": "event"
    },
    {
      "inputs": [],
      "name": "DEFAULT_PAYLOAD_SIZE_LIMIT",
      "outputs": [
        {
          "internalType": "uint256",
          "name": "",
          "type": "uint256"
        }
      ],
      "stateMutability": "view",
      "type": "function"
    },
    {
      "inputs": [],
      "name": "VERSION",
      "outputs": [
        {
          "internalType": "uint16",
          "name": "",
          "type": "uint16"
        }
      ],
      "stateMutability": "view",
      "type": "function"
    },
    {
      "inputs": [],
      "name": "dstGas",
      "outputs": [
        {
          "internalType": "uint256",
          "name": "",
          "type": "uint256"
        }
      ],
      "stateMutability": "view",
      "type": "function"
    },
    {
      "inputs": [
        {
          "internalType": "uint16[]",
          "name": "_dstChainId",
          "type": "uint16[]"
        },
        {
          "internalType": "bytes[]",
          "name": "_toAddress",
          "type": "bytes[]"
        },
        {
          "internalType": "uint256[]",
          "name": "_amount",
          "type": "uint256[]"
        },
        {
          "internalType": "bool",
          "name": "_useZro",
          "type": "bool"
        }
      ],
      "name": "estimateSendFee",
      "outputs": [
        {
          "internalType": "uint256",
          "name": "nativeFee",
          "type": "uint256"
        },
        {
          "internalType": "uint256",
          "name": "zroFee",
          "type": "uint256"
        }
      ],
      "stateMutability": "view",
      "type": "function"
    },
    {
      "inputs": [
        {
          "internalType": "uint16",
          "name": "",
          "type": "uint16"
        },
        {
          "internalType": "bytes",
          "name": "",
          "type": "bytes"
        },
        {
          "internalType": "uint64",
          "name": "",
          "type": "uint64"
        }
      ],
      "name": "failedMessages",
      "outputs": [
        {
          "internalType": "bytes32",
          "name": "",
          "type": "bytes32"
        }
      ],
      "stateMutability": "view",
      "type": "function"
    },
    {
      "inputs": [
        {
          "internalType": "uint16",
          "name": "_srcChainId",
          "type": "uint16"
        },
        {
          "internalType": "bytes",
          "name": "_srcAddress",
          "type": "bytes"
        }
      ],
      "name": "forceResumeReceive",
      "outputs": [],
      "stateMutability": "nonpayable",
      "type": "function"
    },
    {
      "inputs": [
        {
          "internalType": "uint16[]",
          "name": "_dstChainId",
          "type": "uint16[]"
        },
        {
          "internalType": "bytes[]",
          "name": "_toAddress",
          "type": "bytes[]"
        },
        {
          "internalType": "uint256[]",
          "name": "_amount",
          "type": "uint256[]"
        },
        {
          "internalType": "address payable",
          "name": "_refundAddress",
          "type": "address"
        },
        {
          "internalType": "address",
          "name": "_zroPaymentAddress",
          "type": "address"
        }
      ],
      "name": "gasDrop",
      "outputs": [],
      "stateMutability": "payable",
      "type": "function"
    },
    {
      "inputs": [
        {
          "internalType": "uint16",
          "name": "_version",
          "type": "uint16"
        },
        {
          "internalType": "uint16",
          "name": "_chainId",
          "type": "uint16"
        },
        {
          "internalType": "address",
          "name": "",
          "type": "address"
        },
        {
          "internalType": "uint256",
          "name": "_configType",
          "type": "uint256"
        }
      ],
      "name": "getConfig",
      "outputs": [
        {
          "internalType": "bytes",
          "name": "",
          "type": "bytes"
        }
      ],
      "stateMutability": "view",
      "type": "function"
    },
    {
      "inputs": [
        {
          "internalType": "uint16",
          "name": "_remoteChainId",
          "type": "uint16"
        }
      ],
      "name": "getTrustedRemoteAddress",
      "outputs": [
        {
          "internalType": "bytes",
          "name": "",
          "type": "bytes"
        }
      ],
      "stateMutability": "view",
      "type": "function"
    },
    {
      "inputs": [
        {
          "internalType": "uint16",
          "name": "_srcChainId",
          "type": "uint16"
        },
        {
          "internalType": "bytes",
          "name": "_srcAddress",
          "type": "bytes"
        }
      ],
      "name": "isTrustedRemote",
      "outputs": [
        {
          "internalType": "bool",
          "name": "",
          "type": "bool"
        }
      ],
      "stateMutability": "view",
      "type": "function"
    },
    {
      "inputs": [],
      "name": "lzEndpoint",
      "outputs": [
        {
          "internalType": "contract ILayerZeroEndpoint",
          "name": "",
          "type": "address"
        }
      ],
      "stateMutability": "view",
      "type": "function"
    },
    {
      "inputs": [
        {
          "internalType": "uint16",
          "name": "_srcChainId",
          "type": "uint16"
        },
        {
          "internalType": "bytes",
          "name": "_srcAddress",
          "type": "bytes"
        },
        {
          "internalType": "uint64",
          "name": "_nonce",
          "type": "uint64"
        },
        {
          "internalType": "bytes",
          "name": "_payload",
          "type": "bytes"
        }
      ],
      "name": "lzReceive",
      "outputs": [],
      "stateMutability": "nonpayable",
      "type": "function"
    },
    {
      "inputs": [
        {
          "internalType": "uint16",
          "name": "",
          "type": "uint16"
        },
        {
          "internalType": "uint16",
          "name": "",
          "type": "uint16"
        }
      ],
      "name": "minDstGasLookup",
      "outputs": [
        {
          "internalType": "uint256",
          "name": "",
          "type": "uint256"
        }
      ],
      "stateMutability": "view",
      "type": "function"
    },
    {
      "inputs": [
        {
          "internalType": "uint16",
          "name": "_srcChainId",
          "type": "uint16"
        },
        {
          "internalType": "bytes",
          "name": "_srcAddress",
          "type": "bytes"
        },
        {
          "internalType": "uint64",
          "name": "_nonce",
          "type": "uint64"
        },
        {
          "internalType": "bytes",
          "name": "_payload",
          "type": "bytes"
        }
      ],
      "name": "nonblockingLzReceive",
      "outputs": [],
      "stateMutability": "nonpayable",
      "type": "function"
    },
    {
      "inputs": [],
      "name": "owner",
      "outputs": [
        {
          "internalType": "address",
          "name": "",
          "type": "address"
        }
      ],
      "stateMutability": "view",
      "type": "function"
    },
    {
      "inputs": [
        {
          "internalType": "uint16",
          "name": "",
          "type": "uint16"
        }
      ],
      "name": "payloadSizeLimitLookup",
      "outputs": [
        {
          "internalType": "uint256",
          "name": "",
          "type": "uint256"
        }
      ],
      "stateMutability": "view",
      "type": "function"
    },
    {
      "inputs": [],
      "name": "precrime",
      "outputs": [
        {
          "internalType": "address",
          "name": "",
          "type": "address"
        }
      ],
      "stateMutability": "view",
      "type": "function"
    },
    {
      "inputs": [],
      "name": "renounceOwnership",
      "outputs": [],
      "stateMutability": "nonpayable",
      "type": "function"
    },
    {
      "inputs": [
        {
          "internalType": "uint16",
          "name": "_srcChainId",
          "type": "uint16"
        },
        {
          "internalType": "bytes",
          "name": "_srcAddress",
          "type": "bytes"
        },
        {
          "internalType": "uint64",
          "name": "_nonce",
          "type": "uint64"
        },
        {
          "internalType": "bytes",
          "name": "_payload",
          "type": "bytes"
        }
      ],
      "name": "retryMessage",
      "outputs": [],
      "stateMutability": "payable",
      "type": "function"
    },
    {
      "inputs": [
        {
          "internalType": "uint16",
          "name": "_version",
          "type": "uint16"
        },
        {
          "internalType": "uint16",
          "name": "_chainId",
          "type": "uint16"
        },
        {
          "internalType": "uint256",
          "name": "_configType",
          "type": "uint256"
        },
        {
          "internalType": "bytes",
          "name": "_config",
          "type": "bytes"
        }
      ],
      "name": "setConfig",
      "outputs": [],
      "stateMutability": "nonpayable",
      "type": "function"
    },
    {
      "inputs": [
        {
          "internalType": "uint256",
          "name": "_dstGas",
          "type": "uint256"
        }
      ],
      "name": "setDstGas",
      "outputs": [],
      "stateMutability": "nonpayable",
      "type": "function"
    },
    {
      "inputs": [
        {
          "internalType": "uint16",
          "name": "_dstChainId",
          "type": "uint16"
        },
        {
          "internalType": "uint16",
          "name": "_packetType",
          "type": "uint16"
        },
        {
          "internalType": "uint256",
          "name": "_minGas",
          "type": "uint256"
        }
      ],
      "name": "setMinDstGas",
      "outputs": [],
      "stateMutability": "nonpayable",
      "type": "function"
    },
    {
      "inputs": [
        {
          "internalType": "uint16",
          "name": "_dstChainId",
          "type": "uint16"
        },
        {
          "internalType": "uint256",
          "name": "_size",
          "type": "uint256"
        }
      ],
      "name": "setPayloadSizeLimit",
      "outputs": [],
      "stateMutability": "nonpayable",
      "type": "function"
    },
    {
      "inputs": [
        {
          "internalType": "address",
          "name": "_precrime",
          "type": "address"
        }
      ],
      "name": "setPrecrime",
      "outputs": [],
      "stateMutability": "nonpayable",
      "type": "function"
    },
    {
      "inputs": [
        {
          "internalType": "uint16",
          "name": "_version",
          "type": "uint16"
        }
      ],
      "name": "setReceiveVersion",
      "outputs": [],
      "stateMutability": "nonpayable",
      "type": "function"
    },
    {
      "inputs": [
        {
          "internalType": "uint16",
          "name": "_version",
          "type": "uint16"
        }
      ],
      "name": "setSendVersion",
      "outputs": [],
      "stateMutability": "nonpayable",
      "type": "function"
    },
    {
      "inputs": [
        {
          "internalType": "uint16",
          "name": "_remoteChainId",
          "type": "uint16"
        },
        {
          "internalType": "bytes",
          "name": "_path",
          "type": "bytes"
        }
      ],
      "name": "setTrustedRemote",
      "outputs": [],
      "stateMutability": "nonpayable",
      "type": "function"
    },
    {
      "inputs": [
        {
          "internalType": "uint16",
          "name": "_remoteChainId",
          "type": "uint16"
        },
        {
          "internalType": "bytes",
          "name": "_remoteAddress",
          "type": "bytes"
        }
      ],
      "name": "setTrustedRemoteAddress",
      "outputs": [],
      "stateMutability": "nonpayable",
      "type": "function"
    },
    {
      "inputs": [
        {
          "internalType": "address",
          "name": "newOwner",
          "type": "address"
        }
      ],
      "name": "transferOwnership",
      "outputs": [],
      "stateMutability": "nonpayable",
      "type": "function"
    },
    {
      "inputs": [
        {
          "internalType": "uint16",
          "name": "",
          "type": "uint16"
        }
      ],
      "name": "trustedRemoteLookup",
      "outputs": [
        {
          "internalType": "bytes",
          "name": "",
          "type": "bytes"
        }
      ],
      "stateMutability": "view",
      "type": "function"
    },
    {
      "stateMutability": "payable",
      "type": "receive"
    }
  ],
  "bytecode": {
    "object": "0x60a06040526161a86006553480156200001757600080fd5b5060405162002bdc38038062002bdc8339810160408190526200003a91620000ac565b808062000047336200005c565b6001600160a01b031660805250620000de9050565b600080546001600160a01b038381166001600160a01b0319831681178455604051919092169283917f8be0079c531659141344cd1fd0a4f28419497f9722a3daafe3b4186f6b6457e09190a35050565b600060208284031215620000bf57600080fd5b81516001600160a01b0381168114620000d757600080fd5b9392505050565b608051612aaa62000132600039600081816104f90152818161062f0152818161087e0152818161092601528181610a8c01528181610d9b015281816112d9015281816116d30152611a250152612aaa6000f3fe6080604052600436106101d05760003560e01c80638cfd8f5c116100f7578063c446183411610095578063eb8d72b711610064578063eb8d72b7146105a4578063f2fde38b146105c4578063f5ecbdbc146105e4578063ffa1ad741461060457600080fd5b8063c44618341461053b578063cbed8b9c14610551578063d1deba1f14610571578063df2a5b3b1461058457600080fd5b80639f38369a116100d15780639f38369a146104a7578063a6c3d165146104c7578063b353aaa7146104e7578063baf3292d1461051b57600080fd5b80638cfd8f5c1461041d5780638da5cb5b14610455578063950c8a741461048757600080fd5b80633f1f4fa41161016f578063715018a61161013e578063715018a6146103935780637533d788146103a85780637eec463b146103d557806389be3eb61461040a57600080fd5b80633f1f4fa4146102d757806342d65a8d146103045780635b8c41e61461032457806366ad5c8a1461037357600080fd5b806310ddb137116101ab57806310ddb1371461023e5780633b4592f21461025e5780633d8b38f61461027e5780633e1be1f8146102b357600080fd5b80621d3567146101dc57806307e0db17146101fe5780630df374831461021e57600080fd5b366101d757005b600080fd5b3480156101e857600080fd5b506101fc6101f7366004611dc1565b61062c565b005b34801561020a57600080fd5b506101fc610219366004611e54565b61085d565b34801561022a57600080fd5b506101fc610239366004611e6f565b6108e6565b34801561024a57600080fd5b506101fc610259366004611e54565b610905565b34801561026a57600080fd5b506101fc610279366004611e99565b61095d565b34801561028a57600080fd5b5061029e610299366004611eb2565b6109a1565b60405190151581526020015b60405180910390f35b3480156102bf57600080fd5b506102c960065481565b6040519081526020016102aa565b3480156102e357600080fd5b506102c96102f2366004611e54565b60036020526000908152604090205481565b34801561031057600080fd5b506101fc61031f366004611eb2565b610a6d565b34801561033057600080fd5b506102c961033f366004611f71565b6005602090815260009384526040808520845180860184018051928152908401958401959095209452929052825290205481565b34801561037f57600080fd5b506101fc61038e366004611dc1565b610af3565b34801561039f57600080fd5b506101fc610bcf565b3480156103b457600080fd5b506103c86103c3366004611e54565b610be3565b6040516102aa9190612061565b3480156103e157600080fd5b506103f56103f03660046120b8565b610c7d565b604080519283526020830191909152016102aa565b6101fc61041836600461217f565b610e8d565b34801561042957600080fd5b506102c961043836600461223e565b600260209081526000928352604080842090915290825290205481565b34801561046157600080fd5b506000546001600160a01b03165b6040516001600160a01b0390911681526020016102aa565b34801561049357600080fd5b5060045461046f906001600160a01b031681565b3480156104b357600080fd5b506103c86104c2366004611e54565b6110c5565b3480156104d357600080fd5b506101fc6104e2366004611eb2565b6111db565b3480156104f357600080fd5b5061046f7f000000000000000000000000000000000000000000000000000000000000000081565b34801561052757600080fd5b506101fc610536366004612271565b611264565b34801561054757600080fd5b506102c961271081565b34801561055d57600080fd5b506101fc61056c36600461228e565b6112ba565b6101fc61057f366004611dc1565b61134f565b34801561059057600080fd5b506101fc61059f3660046122fc565b611565565b3480156105b057600080fd5b506101fc6105bf366004611eb2565b6115cf565b3480156105d057600080fd5b506101fc6105df366004612271565b611629565b3480156105f057600080fd5b506103c86105ff366004612338565b6116a2565b34801561061057600080fd5b50610619600281565b60405161ffff90911681526020016102aa565b337f00000000000000000000000000000000000000000000000000000000000000006001600160a01b0316146106a95760405162461bcd60e51b815260206004820152601e60248201527f4c7a4170703a20696e76616c696420656e64706f696e742063616c6c6572000060448201526064015b60405180910390fd5b61ffff8616600090815260016020526040812080546106c790612385565b80601f01602080910402602001604051908101604052809291908181526020018280546106f390612385565b80156107405780601f1061071557610100808354040283529160200191610740565b820191906000526020600020905b81548152906001019060200180831161072357829003601f168201915b5050505050905080518686905014801561075b575060008151115b801561078357508051602082012060405161077990889088906123bf565b6040518091039020145b6107de5760405162461bcd60e51b815260206004820152602660248201527f4c7a4170703a20696e76616c696420736f757263652073656e64696e6720636f6044820152651b9d1c9858dd60d21b60648201526084016106a0565b6108548787878080601f01602080910402602001604051908101604052809392919081815260200183838082843760009201919091525050604080516020601f8a018190048102820181019092528881528a93509150889088908190840183828082843760009201919091525061175392505050565b50505050505050565b6108656117cc565b6040516307e0db1760e01b815261ffff821660048201527f00000000000000000000000000000000000000000000000000000000000000006001600160a01b0316906307e0db17906024015b600060405180830381600087803b1580156108cb57600080fd5b505af11580156108df573d6000803e3d6000fd5b5050505050565b6108ee6117cc565b61ffff909116600090815260036020526040902055565b61090d6117cc565b6040516310ddb13760e01b815261ffff821660048201527f00000000000000000000000000000000000000000000000000000000000000006001600160a01b0316906310ddb137906024016108b1565b6109656117cc565b60068190556040518181527f7bfd08fd7185d9222890bac34cd076b2979d23b63958f0bd23de374549a947bd906020015b60405180910390a150565b61ffff8316600090815260016020526040812080548291906109c290612385565b80601f01602080910402602001604051908101604052809291908181526020018280546109ee90612385565b8015610a3b5780601f10610a1057610100808354040283529160200191610a3b565b820191906000526020600020905b815481529060010190602001808311610a1e57829003601f168201915b505050505090508383604051610a529291906123bf565b60405180910390208180519060200120149150509392505050565b610a756117cc565b6040516342d65a8d60e01b81526001600160a01b037f000000000000000000000000000000000000000000000000000000000000000016906342d65a8d90610ac5908690869086906004016123f8565b600060405180830381600087803b158015610adf57600080fd5b505af1158015610854573d6000803e3d6000fd5b333014610b515760405162461bcd60e51b815260206004820152602660248201527f4e6f6e626c6f636b696e674c7a4170703a2063616c6c6572206d7573742062656044820152650204c7a4170760d41b60648201526084016106a0565b610bc78686868080601f01602080910402602001604051908101604052809392919081815260200183838082843760009201919091525050604080516020601f89018190048102820181019092528781528993509150879087908190840183828082843760009201919091525061182692505050565b505050505050565b610bd76117cc565b610be160006118ac565b565b60016020526000908152604090208054610bfc90612385565b80601f0160208091040260200160405190810160405280929190818152602001828054610c2890612385565b8015610c755780601f10610c4a57610100808354040283529160200191610c75565b820191906000526020600020905b815481529060010190602001808311610c5857829003601f168201915b505050505081565b600080878614610c9f5760405162461bcd60e51b81526004016106a090612416565b858414610cbe5760405162461bcd60e51b81526004016106a090612462565b60005b88811015610e805760006002600654888885818110610ce257610ce26124aa565b905060200201358b8b86818110610cfb57610cfb6124aa565b9050602002810190610d0d91906124c0565b604051602001610d21959493929190612506565b60405160208183030381529060405290506000878784818110610d4657610d466124aa565b90506020020135338b8b86818110610d6057610d606124aa565b9050602002810190610d7291906124c0565b604051602001610d859493929190612538565b60405160208183030381529060405290506000807f00000000000000000000000000000000000000000000000000000000000000006001600160a01b03166340a7bb108f8f88818110610dda57610dda6124aa565b9050602002016020810190610def9190611e54565b30868c896040518663ffffffff1660e01b8152600401610e1395949392919061256d565b6040805180830381865afa158015610e2f573d6000803e3d6000fd5b505050506040513d601f19601f82011682018060405250810190610e5391906125c1565b9092509050610e6282886125fb565b9650610e6e81876125fb565b95505060019093019250610cc1915050565b5097509795505050505050565b868514610eac5760405162461bcd60e51b81526004016106a090612416565b848314610ecb5760405162461bcd60e51b81526004016106a090612462565b60065460005b888110156110b9576000600283888885818110610ef057610ef06124aa565b905060200201358b8b86818110610f0957610f096124aa565b9050602002810190610f1b91906124c0565b604051602001610f2f959493929190612506565b60405160208183030381529060405290506000878784818110610f5457610f546124aa565b90506020020135338b8b86818110610f6e57610f6e6124aa565b9050602002810190610f8091906124c0565b604051602001610f939493929190612538565b60408051601f1981840301815291905290506000610fb260018d612614565b8414610fbe5730610fc0565b865b9050610ff68d8d86818110610fd757610fd76124aa565b9050602002016020810190610fec9190611e54565b83838987476118fc565b8a8a85818110611008576110086124aa565b905060200281019061101a91906124c0565b6040516110289291906123bf565b604051908190039020338e8e87818110611044576110446124aa565b90506020020160208101906110599190611e54565b61ffff167f61f260f3550ed2f4f577ac21fb33baf5257f44da023d19ce285b7139a65f239a8c8c89818110611090576110906124aa565b905060200201356040516110a691815260200190565b60405180910390a4505050600101610ed1565b50505050505050505050565b61ffff81166000908152600160205260408120805460609291906110e890612385565b80601f016020809104026020016040519081016040528092919081815260200182805461111490612385565b80156111615780601f1061113657610100808354040283529160200191611161565b820191906000526020600020905b81548152906001019060200180831161114457829003601f168201915b5050505050905080516000036111b95760405162461bcd60e51b815260206004820152601d60248201527f4c7a4170703a206e6f20747275737465642070617468207265636f726400000060448201526064016106a0565b6111d46000601483516111cc9190612614565b839190611aa1565b9392505050565b6111e36117cc565b8181306040516020016111f893929190612627565b60408051601f1981840301815291815261ffff85166000908152600160205220906112239082612695565b507f8c0400cfe2d1199b1a725c78960bcc2a344d869b80590d0f2bd005db15a572ce838383604051611257939291906123f8565b60405180910390a1505050565b61126c6117cc565b600480546001600160a01b0319166001600160a01b0383169081179091556040519081527f5db758e995a17ec1ad84bdef7e8c3293a0bd6179bcce400dff5d4c3d87db726b90602001610996565b6112c26117cc565b6040516332fb62e760e21b81526001600160a01b037f0000000000000000000000000000000000000000000000000000000000000000169063cbed8b9c906113169088908890889088908890600401612754565b600060405180830381600087803b15801561133057600080fd5b505af1158015611344573d6000803e3d6000fd5b505050505050505050565b61ffff8616600090815260056020526040808220905161137290889088906123bf565b90815260408051602092819003830190206001600160401b038716600090815292529020549050806113f25760405162461bcd60e51b815260206004820152602360248201527f4e6f6e626c6f636b696e674c7a4170703a206e6f2073746f726564206d65737360448201526261676560e81b60648201526084016106a0565b8083836040516114039291906123bf565b6040518091039020146114625760405162461bcd60e51b815260206004820152602160248201527f4e6f6e626c6f636b696e674c7a4170703a20696e76616c6964207061796c6f616044820152601960fa1b60648201526084016106a0565b61ffff8716600090815260056020526040808220905161148590899089906123bf565b90815260408051602092819003830181206001600160401b038916600090815290845282902093909355601f8801829004820283018201905286825261151d918991899089908190840183828082843760009201919091525050604080516020601f8a018190048102820181019092528881528a93509150889088908190840183828082843760009201919091525061182692505050565b7fc264d91f3adc5588250e1551f547752ca0cfa8f6b530d243b9f9f4cab10ea8e5878787878560405161155495949392919061278d565b60405180910390a150505050505050565b61156d6117cc565b61ffff83811660008181526002602090815260408083209487168084529482529182902085905581519283528201929092529081018290527f9d5c7c0b934da8fefa9c7760c98383778a12dfbfc0c3b3106518f43fb9508ac090606001611257565b6115d76117cc565b61ffff831660009081526001602052604090206115f58284836127c8565b507ffa41487ad5d6728f0b19276fa1eddc16558578f5109fc39d2dc33c3230470dab838383604051611257939291906123f8565b6116316117cc565b6001600160a01b0381166116965760405162461bcd60e51b815260206004820152602660248201527f4f776e61626c653a206e6577206f776e657220697320746865207a65726f206160448201526564647265737360d01b60648201526084016106a0565b61169f816118ac565b50565b604051633d7b2f6f60e21b815261ffff808616600483015284166024820152306044820152606481018290526060907f00000000000000000000000000000000000000000000000000000000000000006001600160a01b03169063f5ecbdbc90608401600060405180830381865afa158015611722573d6000803e3d6000fd5b505050506040513d6000823e601f3d908101601f1916820160405261174a91908101906128d4565b95945050505050565b6000806117b65a60966366ad5c8a60e01b8989898960405160240161177b9493929190612908565b60408051601f198184030181529190526020810180516001600160e01b03166001600160e01b03199093169290921790915230929190611bae565b9150915081610bc757610bc78686868685611c38565b6000546001600160a01b03163314610be15760405162461bcd60e51b815260206004820181905260248201527f4f776e61626c653a2063616c6c6572206973206e6f7420746865206f776e657260448201526064016106a0565b60008060008380602001905181019061183f9190612946565b92509250925080604051611853919061299f565b6040518091039020826001600160a01b03168861ffff167f72b2a62c1045e48221f301d9352d5773acbb1f5e6d6e7657b2622fef3f00446b8660405161189b91815260200190565b60405180910390a450505050505050565b600080546001600160a01b038381166001600160a01b0319831681178455604051919092169283917f8be0079c531659141344cd1fd0a4f28419497f9722a3daafe3b4186f6b6457e09190a35050565b61ffff86166000908152600160205260408120805461191a90612385565b80601f016020809104026020016040519081016040528092919081815260200182805461194690612385565b80156119935780601f1061196857610100808354040283529160200191611993565b820191906000526020600020905b81548152906001019060200180831161197657829003601f168201915b505050505090508051600003611a045760405162461bcd60e51b815260206004820152603060248201527f4c7a4170703a2064657374696e6174696f6e20636861696e206973206e6f742060448201526f61207472757374656420736f7572636560801b60648201526084016106a0565b611a0f878751611cd5565b60405162c5803160e81b81526001600160a01b037f0000000000000000000000000000000000000000000000000000000000000000169063c5803100908490611a66908b9086908c908c908c908c906004016129bb565b6000604051808303818588803b158015611a7f57600080fd5b505af1158015611a93573d6000803e3d6000fd5b505050505050505050505050565b606081611aaf81601f6125fb565b1015611aee5760405162461bcd60e51b815260206004820152600e60248201526d736c6963655f6f766572666c6f7760901b60448201526064016106a0565b611af882846125fb565b84511015611b3c5760405162461bcd60e51b8152602060048201526011602482015270736c6963655f6f75744f66426f756e647360781b60448201526064016106a0565b606082158015611b5b5760405191506000825260208201604052611ba5565b6040519150601f8416801560200281840101858101878315602002848b0101015b81831015611b94578051835260209283019201611b7c565b5050858452601f01601f1916604052505b50949350505050565b6000606060008060008661ffff166001600160401b03811115611bd357611bd3611f04565b6040519080825280601f01601f191660200182016040528015611bfd576020820181803683370190505b50905060008087516020890160008d8df191503d925086831115611c1f578692505b828152826000602083013e909890975095505050505050565b8180519060200120600560008761ffff1661ffff16815260200190815260200160002085604051611c69919061299f565b9081526040805191829003602090810183206001600160401b0388166000908152915220919091557fe183f33de2837795525b4792ca4cd60535bd77c53b7e7030060bfcf5734d6b0c90611cc69087908790879087908790612a22565b60405180910390a15050505050565b61ffff821660009081526003602052604081205490819003611cf657506127105b80821115611d465760405162461bcd60e51b815260206004820181905260248201527f4c7a4170703a207061796c6f61642073697a6520697320746f6f206c6172676560448201526064016106a0565b505050565b803561ffff81168114611d5d57600080fd5b919050565b60008083601f840112611d7457600080fd5b5081356001600160401b03811115611d8b57600080fd5b602083019150836020828501011115611da357600080fd5b9250929050565b80356001600160401b0381168114611d5d57600080fd5b60008060008060008060808789031215611dda57600080fd5b611de387611d4b565b955060208701356001600160401b0380821115611dff57600080fd5b611e0b8a838b01611d62565b9097509550859150611e1f60408a01611daa565b94506060890135915080821115611e3557600080fd5b50611e4289828a01611d62565b979a9699509497509295939492505050565b600060208284031215611e6657600080fd5b6111d482611d4b565b60008060408385031215611e8257600080fd5b611e8b83611d4b565b946020939093013593505050565b600060208284031215611eab57600080fd5b5035919050565b600080600060408486031215611ec757600080fd5b611ed084611d4b565b925060208401356001600160401b03811115611eeb57600080fd5b611ef786828701611d62565b9497909650939450505050565b634e487b7160e01b600052604160045260246000fd5b604051601f8201601f191681016001600160401b0381118282101715611f4257611f42611f04565b604052919050565b60006001600160401b03821115611f6357611f63611f04565b50601f01601f191660200190565b600080600060608486031215611f8657600080fd5b611f8f84611d4b565b925060208401356001600160401b03811115611faa57600080fd5b8401601f81018613611fbb57600080fd5b8035611fce611fc982611f4a565b611f1a565b818152876020838501011115611fe357600080fd5b8160208401602083013760006020838301015280945050505061200860408501611daa565b90509250925092565b60005b8381101561202c578181015183820152602001612014565b50506000910152565b6000815180845261204d816020860160208601612011565b601f01601f19169290920160200192915050565b6020815260006111d46020830184612035565b60008083601f84011261208657600080fd5b5081356001600160401b0381111561209d57600080fd5b6020830191508360208260051b8501011115611da357600080fd5b60008060008060008060006080888a0312156120d357600080fd5b87356001600160401b03808211156120ea57600080fd5b6120f68b838c01612074565b909950975060208a013591508082111561210f57600080fd5b61211b8b838c01612074565b909750955060408a013591508082111561213457600080fd5b506121418a828b01612074565b9094509250506060880135801515811461215a57600080fd5b8091505092959891949750929550565b6001600160a01b038116811461169f57600080fd5b60008060008060008060008060a0898b03121561219b57600080fd5b88356001600160401b03808211156121b257600080fd5b6121be8c838d01612074565b909a50985060208b01359150808211156121d757600080fd5b6121e38c838d01612074565b909850965060408b01359150808211156121fc57600080fd5b506122098b828c01612074565b909550935050606089013561221d8161216a565b9150608089013561222d8161216a565b809150509295985092959890939650565b6000806040838503121561225157600080fd5b61225a83611d4b565b915061226860208401611d4b565b90509250929050565b60006020828403121561228357600080fd5b81356111d48161216a565b6000806000806000608086880312156122a657600080fd5b6122af86611d4b565b94506122bd60208701611d4b565b93506040860135925060608601356001600160401b038111156122df57600080fd5b6122eb88828901611d62565b969995985093965092949392505050565b60008060006060848603121561231157600080fd5b61231a84611d4b565b925061232860208501611d4b565b9150604084013590509250925092565b6000806000806080858703121561234e57600080fd5b61235785611d4b565b935061236560208601611d4b565b925060408501356123758161216a565b9396929550929360600135925050565b600181811c9082168061239957607f821691505b6020821081036123b957634e487b7160e01b600052602260045260246000fd5b50919050565b8183823760009101908152919050565b81835281816020850137506000828201602090810191909152601f909101601f19169091010190565b61ffff8416815260406020820152600061174a6040830184866123cf565b6020808252602c908201527f5f647374436861696e496420616e64205f746f41646472657373206d7573742060408201526b62652073616d652073697a6560a01b606082015260800190565b60208082526028908201527f5f746f4164647265737320616e64205f616d6f756e74206d7573742062652073604082015267616d652073697a6560c01b606082015260800190565b634e487b7160e01b600052603260045260246000fd5b6000808335601e198436030181126124d757600080fd5b8301803591506001600160401b038211156124f157600080fd5b602001915036819003821315611da357600080fd5b61ffff60f01b8660f01b1681528460028201528360228201528183604283013760009101604201908152949350505050565b8481526001600160a01b038416602082015260606040820181905260009061256390830184866123cf565b9695505050505050565b61ffff861681526001600160a01b038516602082015260a06040820181905260009061259b90830186612035565b841515606084015282810360808401526125b58185612035565b98975050505050505050565b600080604083850312156125d457600080fd5b505080516020909101519092909150565b634e487b7160e01b600052601160045260246000fd5b8082018082111561260e5761260e6125e5565b92915050565b8181038181111561260e5761260e6125e5565b8284823760609190911b6bffffffffffffffffffffffff19169101908152601401919050565b601f821115611d46576000816000526020600020601f850160051c810160208610156126765750805b601f850160051c820191505b81811015610bc757828155600101612682565b81516001600160401b038111156126ae576126ae611f04565b6126c2816126bc8454612385565b8461264d565b602080601f8311600181146126f757600084156126df5750858301515b600019600386901b1c1916600185901b178555610bc7565b600085815260208120601f198616915b8281101561272657888601518255948401946001909101908401612707565b50858210156127445787850151600019600388901b60f8161c191681555b5050505050600190811b01905550565b600061ffff8088168352808716602084015250846040830152608060608301526127826080830184866123cf565b979650505050505050565b61ffff861681526080602082015260006127ab6080830186886123cf565b6001600160401b0394909416604083015250606001529392505050565b6001600160401b038311156127df576127df611f04565b6127f3836127ed8354612385565b8361264d565b6000601f841160018114612827576000851561280f5750838201355b600019600387901b1c1916600186901b1783556108df565b600083815260209020601f19861690835b828110156128585786850135825560209485019460019092019101612838565b50868210156128755760001960f88860031b161c19848701351681555b505060018560011b0183555050505050565b600082601f83011261289857600080fd5b81516128a6611fc982611f4a565b8181528460208386010111156128bb57600080fd5b6128cc826020830160208701612011565b949350505050565b6000602082840312156128e657600080fd5b81516001600160401b038111156128fc57600080fd5b6128cc84828501612887565b61ffff851681526080602082015260006129256080830186612035565b6001600160401b038516604084015282810360608401526127828185612035565b60008060006060848603121561295b57600080fd5b83519250602084015161296d8161216a565b60408501519092506001600160401b0381111561298957600080fd5b61299586828701612887565b9150509250925092565b600082516129b1818460208701612011565b9190910192915050565b61ffff8716815260c0602082015260006129d860c0830188612035565b82810360408401526129ea8188612035565b6001600160a01b0387811660608601528616608085015283810360a08501529050612a158185612035565b9998505050505050505050565b61ffff8616815260a060208201526000612a3f60a0830187612035565b6001600160401b03861660408401528281036060840152612a608186612035565b905082810360808401526125b5818561203556fea26469706673582212207604d7b07901db0c5b64ee188be4dcee8d18efe0000161c65e5f70d33fb7d4fa64736f6c63430008160033",
    "linkReferences": {}
  },
  "methodIdentifiers": {
    "DEFAULT_PAYLOAD_SIZE_LIMIT()": "c4461834",
    "VERSION()": "ffa1ad74",
    "dstGas()": "3e1be1f8",
    "estimateSendFee(uint16[],bytes[],uint256[],bool)": "7eec463b",
    "failedMessages(uint16,bytes,uint64)": "5b8c41e6",
    "forceResumeReceive(uint16,bytes)": "42d65a8d",
    "gasDrop(uint16[],bytes[],uint256[],address,address)": "89be3eb6",
    "getConfig(uint16,uint16,address,uint256)": "f5ecbdbc",
    "getTrustedRemoteAddress(uint16)": "9f38369a",
    "isTrustedRemote(uint16,bytes)": "3d8b38f6",
    "lzEndpoint()": "b353aaa7",
    "lzReceive(uint16,bytes,uint64,bytes)": "001d3567",
    "minDstGasLookup(uint16,uint16)": "8cfd8f5c",
    "nonblockingLzReceive(uint16,bytes,uint64,bytes)": "66ad5c8a",
    "owner()": "8da5cb5b",
    "payloadSizeLimitLookup(uint16)": "3f1f4fa4",
    "precrime()": "950c8a74",
    "renounceOwnership()": "715018a6",
    "retryMessage(uint16,bytes,uint64,bytes)": "d1deba1f",
    "setConfig(uint16,uint16,uint256,bytes)": "cbed8b9c",
    "setDstGas(uint256)": "3b4592f2",
    "setMinDstGas(uint16,uint16,uint256)": "df2a5b3b",
    "setPayloadSizeLimit(uint16,uint256)": "0df37483",
    "setPrecrime(address)": "baf3292d",
    "setReceiveVersion(uint16)": "10ddb137",
    "setSendVersion(uint16)": "07e0db17",
    "setTrustedRemote(uint16,bytes)": "eb8d72b7",
    "setTrustedRemoteAddress(uint16,bytes)": "a6c3d165",
    "transferOwnership(address)": "f2fde38b",
    "trustedRemoteLookup(uint16)": "7533d788"
  },
  "id": 0
}