{
  "abi": [
    {
      "inputs": [
        {
          "internalType": "address",
          "name": "_token",
          "type": "address"
        },
        {
          "internalType": "uint8",
          "name": "_sharedDecimals",
          "type": "uint8"
        },
        {
          "internalType": "address",
          "name": "_lzEndpoint",
          "type": "address"
        }
      ],
      "stateMutability": "nonpayable",
      "type": "constructor"
    },
    {
      "anonymous": false,
      "inputs": [
        {
          "indexed": true,
          "internalType": "uint16",
          "name": "_srcChainId",
          "type": "uint16"
        },
        {
          "indexed": false,
          "internalType": "bytes",
          "name": "_srcAddress",
          "type": "bytes"
        },
        {
          "indexed": false,
          "internalType": "uint64",
          "name": "_nonce",
          "type": "uint64"
        },
        {
          "indexed": false,
          "internalType": "bytes32",
          "name": "_hash",
          "type": "bytes32"
        }
      ],
      "name": "CallOFTReceivedSuccess",
      "type": "event"
    },
    {
      "anonymous": false,
      "inputs": [
        {
          "indexed": false,
          "internalType": "uint16",
          "name": "_srcChainId",
          "type": "uint16"
        },
        {
          "indexed": false,
          "internalType": "bytes",
          "name": "_srcAddress",
          "type": "bytes"
        },
        {
          "indexed": false,
          "internalType": "uint64",
          "name": "_nonce",
          "type": "uint64"
        },
        {
          "indexed": false,
          "internalType": "bytes",
          "name": "_payload",
          "type": "bytes"
        },
        {
          "indexed": false,
          "internalType": "bytes",
          "name": "_reason",
          "type": "bytes"
        }
      ],
      "name": "MessageFailed",
      "type": "event"
    },
    {
      "anonymous": false,
      "inputs": [
        {
          "indexed": false,
          "internalType": "address",
          "name": "_address",
          "type": "address"
        }
      ],
      "name": "NonContractAddress",
      "type": "event"
    },
    {
      "anonymous": false,
      "inputs": [
        {
          "indexed": true,
          "internalType": "address",
          "name": "previousOwner",
          "type": "address"
        },
        {
          "indexed": true,
          "internalType": "address",
          "name": "newOwner",
          "type": "address"
        }
      ],
      "name": "OwnershipTransferred",
      "type": "event"
    },
    {
      "anonymous": false,
      "inputs": [
        {
          "indexed": true,
          "internalType": "uint16",
          "name": "_srcChainId",
          "type": "uint16"
        },
        {
          "indexed": true,
          "internalType": "address",
          "name": "_to",
          "type": "address"
        },
        {
          "indexed": false,
          "internalType": "uint256",
          "name": "_amount",
          "type": "uint256"
        }
      ],
      "name": "ReceiveFromChain",
      "type": "event"
    },
    {
      "anonymous": false,
      "inputs": [
        {
          "indexed": false,
          "internalType": "uint16",
          "name": "_srcChainId",
          "type": "uint16"
        },
        {
          "indexed": false,
          "internalType": "bytes",
          "name": "_srcAddress",
          "type": "bytes"
        },
        {
          "indexed": false,
          "internalType": "uint64",
          "name": "_nonce",
          "type": "uint64"
        },
        {
          "indexed": false,
          "internalType": "bytes32",
          "name": "_payloadHash",
          "type": "bytes32"
        }
      ],
      "name": "RetryMessageSuccess",
      "type": "event"
    },
    {
      "anonymous": false,
      "inputs": [
        {
          "indexed": true,
          "internalType": "uint16",
          "name": "_dstChainId",
          "type": "uint16"
        },
        {
          "indexed": true,
          "internalType": "address",
          "name": "_from",
          "type": "address"
        },
        {
          "indexed": true,
          "internalType": "bytes32",
          "name": "_toAddress",
          "type": "bytes32"
        },
        {
          "indexed": false,
          "internalType": "uint256",
          "name": "_amount",
          "type": "uint256"
        }
      ],
      "name": "SendToChain",
      "type": "event"
    },
    {
      "anonymous": false,
      "inputs": [
        {
          "indexed": false,
          "internalType": "uint16",
          "name": "feeBp",
          "type": "uint16"
        }
      ],
      "name": "SetDefaultFeeBp",
      "type": "event"
    },
    {
      "anonymous": false,
      "inputs": [
        {
          "indexed": false,
          "internalType": "uint16",
          "name": "dstchainId",
          "type": "uint16"
        },
        {
          "indexed": false,
          "internalType": "bool",
          "name": "enabled",
          "type": "bool"
        },
        {
          "indexed": false,
          "internalType": "uint16",
          "name": "feeBp",
          "type": "uint16"
        }
      ],
      "name": "SetFeeBp",
      "type": "event"
    },
    {
      "anonymous": false,
      "inputs": [
        {
          "indexed": false,
          "internalType": "address",
          "name": "feeOwner",
          "type": "address"
        }
      ],
      "name": "SetFeeOwner",
      "type": "event"
    },
    {
      "anonymous": false,
      "inputs": [
        {
          "indexed": false,
          "internalType": "uint16",
          "name": "_dstChainId",
          "type": "uint16"
        },
        {
          "indexed": false,
          "internalType": "uint16",
          "name": "_type",
          "type": "uint16"
        },
        {
          "indexed": false,
          "internalType": "uint256",
          "name": "_minDstGas",
          "type": "uint256"
        }
      ],
      "name": "SetMinDstGas",
      "type": "event"
    },
    {
      "anonymous": false,
      "inputs": [
        {
          "indexed": false,
          "internalType": "address",
          "name": "precrime",
          "type": "address"
        }
      ],
      "name": "SetPrecrime",
      "type": "event"
    },
    {
      "anonymous": false,
      "inputs": [
        {
          "indexed": false,
          "internalType": "uint16",
          "name": "_remoteChainId",
          "type": "uint16"
        },
        {
          "indexed": false,
          "internalType": "bytes",
          "name": "_path",
          "type": "bytes"
        }
      ],
      "name": "SetTrustedRemote",
      "type": "event"
    },
    {
      "anonymous": false,
      "inputs": [
        {
          "indexed": false,
          "internalType": "uint16",
          "name": "_remoteChainId",
          "type": "uint16"
        },
        {
          "indexed": false,
          "internalType": "bytes",
          "name": "_remoteAddress",
          "type": "bytes"
        }
      ],
      "name": "SetTrustedRemoteAddress",
      "type": "event"
    },
    {
      "inputs": [],
      "name": "BP_DENOMINATOR",
      "outputs": [
        {
          "internalType": "uint256",
          "name": "",
          "type": "uint256"
        }
      ],
      "stateMutability": "view",
      "type": "function"
    },
    {
      "inputs": [],
      "name": "DEFAULT_PAYLOAD_SIZE_LIMIT",
      "outputs": [
        {
          "internalType": "uint256",
          "name": "",
          "type": "uint256"
        }
      ],
      "stateMutability": "view",
      "type": "function"
    },
    {
      "inputs": [],
      "name": "NO_EXTRA_GAS",
      "outputs": [
        {
          "internalType": "uint256",
          "name": "",
          "type": "uint256"
        }
      ],
      "stateMutability": "view",
      "type": "function"
    },
    {
      "inputs": [],
      "name": "PT_SEND",
      "outputs": [
        {
          "internalType": "uint8",
          "name": "",
          "type": "uint8"
        }
      ],
      "stateMutability": "view",
      "type": "function"
    },
    {
      "inputs": [],
      "name": "PT_SEND_AND_CALL",
      "outputs": [
        {
          "internalType": "uint8",
          "name": "",
          "type": "uint8"
        }
      ],
      "stateMutability": "view",
      "type": "function"
    },
    {
      "inputs": [
        {
          "internalType": "uint16",
          "name": "_srcChainId",
          "type": "uint16"
        },
        {
          "internalType": "bytes",
          "name": "_srcAddress",
          "type": "bytes"
        },
        {
          "internalType": "uint64",
          "name": "_nonce",
          "type": "uint64"
        },
        {
          "internalType": "bytes32",
          "name": "_from",
          "type": "bytes32"
        },
        {
          "internalType": "address",
          "name": "_to",
          "type": "address"
        },
        {
          "internalType": "uint256",
          "name": "_amount",
          "type": "uint256"
        },
        {
          "internalType": "bytes",
          "name": "_payload",
          "type": "bytes"
        },
        {
          "internalType": "uint256",
          "name": "_gasForCall",
          "type": "uint256"
        }
      ],
      "name": "callOnOFTReceived",
      "outputs": [],
      "stateMutability": "nonpayable",
      "type": "function"
    },
    {
      "inputs": [
        {
          "internalType": "uint16",
          "name": "",
          "type": "uint16"
        }
      ],
      "name": "chainIdToFeeBps",
      "outputs": [
        {
          "internalType": "uint16",
          "name": "feeBP",
          "type": "uint16"
        },
        {
          "internalType": "bool",
          "name": "enabled",
          "type": "bool"
        }
      ],
      "stateMutability": "view",
      "type": "function"
    },
    {
      "inputs": [],
      "name": "circulatingSupply",
      "outputs": [
        {
          "internalType": "uint256",
          "name": "",
          "type": "uint256"
        }
      ],
      "stateMutability": "view",
      "type": "function"
    },
    {
      "inputs": [
        {
          "internalType": "uint16",
          "name": "",
          "type": "uint16"
        },
        {
          "internalType": "bytes",
          "name": "",
          "type": "bytes"
        },
        {
          "internalType": "uint64",
          "name": "",
          "type": "uint64"
        }
      ],
      "name": "creditedPackets",
      "outputs": [
        {
          "internalType": "bool",
          "name": "",
          "type": "bool"
        }
      ],
      "stateMutability": "view",
      "type": "function"
    },
    {
      "inputs": [],
      "name": "defaultFeeBp",
      "outputs": [
        {
          "internalType": "uint16",
          "name": "",
          "type": "uint16"
        }
      ],
      "stateMutability": "view",
      "type": "function"
    },
    {
      "inputs": [
        {
          "internalType": "uint16",
          "name": "_dstChainId",
          "type": "uint16"
        },
        {
          "internalType": "bytes32",
          "name": "_toAddress",
          "type": "bytes32"
        },
        {
          "internalType": "uint256",
          "name": "_amount",
          "type": "uint256"
        },
        {
          "internalType": "bytes",
          "name": "_payload",
          "type": "bytes"
        },
        {
          "internalType": "uint64",
          "name": "_dstGasForCall",
          "type": "uint64"
        },
        {
          "internalType": "bool",
          "name": "_useZro",
          "type": "bool"
        },
        {
          "internalType": "bytes",
          "name": "_adapterParams",
          "type": "bytes"
        }
      ],
      "name": "estimateSendAndCallFee",
      "outputs": [
        {
          "internalType": "uint256",
          "name": "nativeFee",
          "type": "uint256"
        },
        {
          "internalType": "uint256",
          "name": "zroFee",
          "type": "uint256"
        }
      ],
      "stateMutability": "view",
      "type": "function"
    },
    {
      "inputs": [
        {
          "internalType": "uint16",
          "name": "_dstChainId",
          "type": "uint16"
        },
        {
          "internalType": "bytes32",
          "name": "_toAddress",
          "type": "bytes32"
        },
        {
          "internalType": "uint256",
          "name": "_amount",
          "type": "uint256"
        },
        {
          "internalType": "bool",
          "name": "_useZro",
          "type": "bool"
        },
        {
          "internalType": "bytes",
          "name": "_adapterParams",
          "type": "bytes"
        }
      ],
      "name": "estimateSendFee",
      "outputs": [
        {
          "internalType": "uint256",
          "name": "nativeFee",
          "type": "uint256"
        },
        {
          "internalType": "uint256",
          "name": "zroFee",
          "type": "uint256"
        }
      ],
      "stateMutability": "view",
      "type": "function"
    },
    {
      "inputs": [
        {
          "internalType": "uint16",
          "name": "",
          "type": "uint16"
        },
        {
          "internalType": "bytes",
          "name": "",
          "type": "bytes"
        },
        {
          "internalType": "uint64",
          "name": "",
          "type": "uint64"
        }
      ],
      "name": "failedMessages",
      "outputs": [
        {
          "internalType": "bytes32",
          "name": "",
          "type": "bytes32"
        }
      ],
      "stateMutability": "view",
      "type": "function"
    },
    {
      "inputs": [],
      "name": "feeOwner",
      "outputs": [
        {
          "internalType": "address",
          "name": "",
          "type": "address"
        }
      ],
      "stateMutability": "view",
      "type": "function"
    },
    {
      "inputs": [
        {
          "internalType": "uint16",
          "name": "_srcChainId",
          "type": "uint16"
        },
        {
          "internalType": "bytes",
          "name": "_srcAddress",
          "type": "bytes"
        }
      ],
      "name": "forceResumeReceive",
      "outputs": [],
      "stateMutability": "nonpayable",
      "type": "function"
    },
    {
      "inputs": [
        {
          "internalType": "uint16",
          "name": "_version",
          "type": "uint16"
        },
        {
          "internalType": "uint16",
          "name": "_chainId",
          "type": "uint16"
        },
        {
          "internalType": "address",
          "name": "",
          "type": "address"
        },
        {
          "internalType": "uint256",
          "name": "_configType",
          "type": "uint256"
        }
      ],
      "name": "getConfig",
      "outputs": [
        {
          "internalType": "bytes",
          "name": "",
          "type": "bytes"
        }
      ],
      "stateMutability": "view",
      "type": "function"
    },
    {
      "inputs": [
        {
          "internalType": "uint16",
          "name": "_remoteChainId",
          "type": "uint16"
        }
      ],
      "name": "getTrustedRemoteAddress",
      "outputs": [
        {
          "internalType": "bytes",
          "name": "",
          "type": "bytes"
        }
      ],
      "stateMutability": "view",
      "type": "function"
    },
    {
      "inputs": [
        {
          "internalType": "uint16",
          "name": "_srcChainId",
          "type": "uint16"
        },
        {
          "internalType": "bytes",
          "name": "_srcAddress",
          "type": "bytes"
        }
      ],
      "name": "isTrustedRemote",
      "outputs": [
        {
          "internalType": "bool",
          "name": "",
          "type": "bool"
        }
      ],
      "stateMutability": "view",
      "type": "function"
    },
    {
      "inputs": [],
      "name": "lzEndpoint",
      "outputs": [
        {
          "internalType": "contract ILayerZeroEndpoint",
          "name": "",
          "type": "address"
        }
      ],
      "stateMutability": "view",
      "type": "function"
    },
    {
      "inputs": [
        {
          "internalType": "uint16",
          "name": "_srcChainId",
          "type": "uint16"
        },
        {
          "internalType": "bytes",
          "name": "_srcAddress",
          "type": "bytes"
        },
        {
          "internalType": "uint64",
          "name": "_nonce",
          "type": "uint64"
        },
        {
          "internalType": "bytes",
          "name": "_payload",
          "type": "bytes"
        }
      ],
      "name": "lzReceive",
      "outputs": [],
      "stateMutability": "nonpayable",
      "type": "function"
    },
    {
      "inputs": [
        {
          "internalType": "uint16",
          "name": "",
          "type": "uint16"
        },
        {
          "internalType": "uint16",
          "name": "",
          "type": "uint16"
        }
      ],
      "name": "minDstGasLookup",
      "outputs": [
        {
          "internalType": "uint256",
          "name": "",
          "type": "uint256"
        }
      ],
      "stateMutability": "view",
      "type": "function"
    },
    {
      "inputs": [
        {
          "internalType": "uint16",
          "name": "_srcChainId",
          "type": "uint16"
        },
        {
          "internalType": "bytes",
          "name": "_srcAddress",
          "type": "bytes"
        },
        {
          "internalType": "uint64",
          "name": "_nonce",
          "type": "uint64"
        },
        {
          "internalType": "bytes",
          "name": "_payload",
          "type": "bytes"
        }
      ],
      "name": "nonblockingLzReceive",
      "outputs": [],
      "stateMutability": "nonpayable",
      "type": "function"
    },
    {
      "inputs": [],
      "name": "outboundAmount",
      "outputs": [
        {
          "internalType": "uint256",
          "name": "",
          "type": "uint256"
        }
      ],
      "stateMutability": "view",
      "type": "function"
    },
    {
      "inputs": [],
      "name": "owner",
      "outputs": [
        {
          "internalType": "address",
          "name": "",
          "type": "address"
        }
      ],
      "stateMutability": "view",
      "type": "function"
    },
    {
      "inputs": [
        {
          "internalType": "uint16",
          "name": "",
          "type": "uint16"
        }
      ],
      "name": "payloadSizeLimitLookup",
      "outputs": [
        {
          "internalType": "uint256",
          "name": "",
          "type": "uint256"
        }
      ],
      "stateMutability": "view",
      "type": "function"
    },
    {
      "inputs": [],
      "name": "precrime",
      "outputs": [
        {
          "internalType": "address",
          "name": "",
          "type": "address"
        }
      ],
      "stateMutability": "view",
      "type": "function"
    },
    {
      "inputs": [
        {
          "internalType": "uint16",
          "name": "_dstChainId",
          "type": "uint16"
        },
        {
          "internalType": "uint256",
          "name": "_amount",
          "type": "uint256"
        }
      ],
      "name": "quoteOFTFee",
      "outputs": [
        {
          "internalType": "uint256",
          "name": "fee",
          "type": "uint256"
        }
      ],
      "stateMutability": "view",
      "type": "function"
    },
    {
      "inputs": [],
      "name": "renounceOwnership",
      "outputs": [],
      "stateMutability": "nonpayable",
      "type": "function"
    },
    {
      "inputs": [
        {
          "internalType": "uint16",
          "name": "_srcChainId",
          "type": "uint16"
        },
        {
          "internalType": "bytes",
          "name": "_srcAddress",
          "type": "bytes"
        },
        {
          "internalType": "uint64",
          "name": "_nonce",
          "type": "uint64"
        },
        {
          "internalType": "bytes",
          "name": "_payload",
          "type": "bytes"
        }
      ],
      "name": "retryMessage",
      "outputs": [],
      "stateMutability": "payable",
      "type": "function"
    },
    {
      "inputs": [
        {
          "internalType": "address",
          "name": "_from",
          "type": "address"
        },
        {
          "internalType": "uint16",
          "name": "_dstChainId",
          "type": "uint16"
        },
        {
          "internalType": "bytes32",
          "name": "_toAddress",
          "type": "bytes32"
        },
        {
          "internalType": "uint256",
          "name": "_amount",
          "type": "uint256"
        },
        {
          "internalType": "uint256",
          "name": "_minAmount",
          "type": "uint256"
        },
        {
          "internalType": "bytes",
          "name": "_payload",
          "type": "bytes"
        },
        {
          "internalType": "uint64",
          "name": "_dstGasForCall",
          "type": "uint64"
        },
        {
          "components": [
            {
              "internalType": "address payable",
              "name": "refundAddress",
              "type": "address"
            },
            {
              "internalType": "address",
              "name": "zroPaymentAddress",
              "type": "address"
            },
            {
              "internalType": "bytes",
              "name": "adapterParams",
              "type": "bytes"
            }
          ],
          "internalType": "struct ICommonOFT.LzCallParams",
          "name": "_callParams",
          "type": "tuple"
        }
      ],
      "name": "sendAndCall",
      "outputs": [],
      "stateMutability": "payable",
      "type": "function"
    },
    {
      "inputs": [
        {
          "internalType": "address",
          "name": "_from",
          "type": "address"
        },
        {
          "internalType": "uint16",
          "name": "_dstChainId",
          "type": "uint16"
        },
        {
          "internalType": "bytes32",
          "name": "_toAddress",
          "type": "bytes32"
        },
        {
          "internalType": "uint256",
          "name": "_amount",
          "type": "uint256"
        },
        {
          "internalType": "uint256",
          "name": "_minAmount",
          "type": "uint256"
        },
        {
          "components": [
            {
              "internalType": "address payable",
              "name": "refundAddress",
              "type": "address"
            },
            {
              "internalType": "address",
              "name": "zroPaymentAddress",
              "type": "address"
            },
            {
              "internalType": "bytes",
              "name": "adapterParams",
              "type": "bytes"
            }
          ],
          "internalType": "struct ICommonOFT.LzCallParams",
          "name": "_callParams",
          "type": "tuple"
        }
      ],
      "name": "sendFrom",
      "outputs": [],
      "stateMutability": "payable",
      "type": "function"
    },
    {
      "inputs": [
        {
          "internalType": "uint16",
          "name": "_version",
          "type": "uint16"
        },
        {
          "internalType": "uint16",
          "name": "_chainId",
          "type": "uint16"
        },
        {
          "internalType": "uint256",
          "name": "_configType",
          "type": "uint256"
        },
        {
          "internalType": "bytes",
          "name": "_config",
          "type": "bytes"
        }
      ],
      "name": "setConfig",
      "outputs": [],
      "stateMutability": "nonpayable",
      "type": "function"
    },
    {
      "inputs": [
        {
          "internalType": "uint16",
          "name": "_feeBp",
          "type": "uint16"
        }
      ],
      "name": "setDefaultFeeBp",
      "outputs": [],
      "stateMutability": "nonpayable",
      "type": "function"
    },
    {
      "inputs": [
        {
          "internalType": "uint16",
          "name": "_dstChainId",
          "type": "uint16"
        },
        {
          "internalType": "bool",
          "name": "_enabled",
          "type": "bool"
        },
        {
          "internalType": "uint16",
          "name": "_feeBp",
          "type": "uint16"
        }
      ],
      "name": "setFeeBp",
      "outputs": [],
      "stateMutability": "nonpayable",
      "type": "function"
    },
    {
      "inputs": [
        {
          "internalType": "address",
          "name": "_feeOwner",
          "type": "address"
        }
      ],
      "name": "setFeeOwner",
      "outputs": [],
      "stateMutability": "nonpayable",
      "type": "function"
    },
    {
      "inputs": [
        {
          "internalType": "uint16",
          "name": "_dstChainId",
          "type": "uint16"
        },
        {
          "internalType": "uint16",
          "name": "_packetType",
          "type": "uint16"
        },
        {
          "internalType": "uint256",
          "name": "_minGas",
          "type": "uint256"
        }
      ],
      "name": "setMinDstGas",
      "outputs": [],
      "stateMutability": "nonpayable",
      "type": "function"
    },
    {
      "inputs": [
        {
          "internalType": "uint16",
          "name": "_dstChainId",
          "type": "uint16"
        },
        {
          "internalType": "uint256",
          "name": "_size",
          "type": "uint256"
        }
      ],
      "name": "setPayloadSizeLimit",
      "outputs": [],
      "stateMutability": "nonpayable",
      "type": "function"
    },
    {
      "inputs": [
        {
          "internalType": "address",
          "name": "_precrime",
          "type": "address"
        }
      ],
      "name": "setPrecrime",
      "outputs": [],
      "stateMutability": "nonpayable",
      "type": "function"
    },
    {
      "inputs": [
        {
          "internalType": "uint16",
          "name": "_version",
          "type": "uint16"
        }
      ],
      "name": "setReceiveVersion",
      "outputs": [],
      "stateMutability": "nonpayable",
      "type": "function"
    },
    {
      "inputs": [
        {
          "internalType": "uint16",
          "name": "_version",
          "type": "uint16"
        }
      ],
      "name": "setSendVersion",
      "outputs": [],
      "stateMutability": "nonpayable",
      "type": "function"
    },
    {
      "inputs": [
        {
          "internalType": "uint16",
          "name": "_remoteChainId",
          "type": "uint16"
        },
        {
          "internalType": "bytes",
          "name": "_path",
          "type": "bytes"
        }
      ],
      "name": "setTrustedRemote",
      "outputs": [],
      "stateMutability": "nonpayable",
      "type": "function"
    },
    {
      "inputs": [
        {
          "internalType": "uint16",
          "name": "_remoteChainId",
          "type": "uint16"
        },
        {
          "internalType": "bytes",
          "name": "_remoteAddress",
          "type": "bytes"
        }
      ],
      "name": "setTrustedRemoteAddress",
      "outputs": [],
      "stateMutability": "nonpayable",
      "type": "function"
    },
    {
      "inputs": [],
      "name": "sharedDecimals",
      "outputs": [
        {
          "internalType": "uint8",
          "name": "",
          "type": "uint8"
        }
      ],
      "stateMutability": "view",
      "type": "function"
    },
    {
      "inputs": [
        {
          "internalType": "bytes4",
          "name": "interfaceId",
          "type": "bytes4"
        }
      ],
      "name": "supportsInterface",
      "outputs": [
        {
          "internalType": "bool",
          "name": "",
          "type": "bool"
        }
      ],
      "stateMutability": "view",
      "type": "function"
    },
    {
      "inputs": [],
      "name": "token",
      "outputs": [
        {
          "internalType": "address",
          "name": "",
          "type": "address"
        }
      ],
      "stateMutability": "view",
      "type": "function"
    },
    {
      "inputs": [
        {
          "internalType": "address",
          "name": "newOwner",
          "type": "address"
        }
      ],
      "name": "transferOwnership",
      "outputs": [],
      "stateMutability": "nonpayable",
      "type": "function"
    },
    {
      "inputs": [
        {
          "internalType": "uint16",
          "name": "",
          "type": "uint16"
        }
      ],
      "name": "trustedRemoteLookup",
      "outputs": [
        {
          "internalType": "bytes",
          "name": "",
          "type": "bytes"
        }
      ],
      "stateMutability": "view",
      "type": "function"
    }
  ],
  "bytecode": {
    "object": "0x6101006040523480156200001257600080fd5b5060405162004991380380620049918339810160408190526200003591620002c6565b818181818080620000463362000247565b6001600160a01b0316608052505060ff1660a0526200006d6000546001600160a01b031690565b600880546001600160a01b03928316620100000262010000600160b01b0319909116179055851660c081905260408051600481526024810182526020810180516001600160e01b031663313ce56760e01b179052905160009450849350620000d6919062000310565b600060405180830381855afa9150503d806000811462000113576040519150601f19603f3d011682016040523d82523d6000602084013e62000118565b606091505b509150915081620001865760405162461bcd60e51b815260206004820152602d60248201527f50726f78794f4654576974684665653a206661696c656420746f20676574207460448201526c6f6b656e20646563696d616c7360981b60648201526084015b60405180910390fd5b6000818060200190518101906200019e919062000341565b90508060ff168560ff1611156200021e5760405162461bcd60e51b815260206004820152603360248201527f50726f78794f4654576974684665653a20736861726564446563696d616c732060448201527f6d757374206265203c3d20646563696d616c730000000000000000000000000060648201526084016200017d565b6200022a85826200037c565b6200023790600a6200049b565b60e05250620004ac945050505050565b600080546001600160a01b038381166001600160a01b0319831681178455604051919092169283917f8be0079c531659141344cd1fd0a4f28419497f9722a3daafe3b4186f6b6457e09190a35050565b80516001600160a01b0381168114620002af57600080fd5b919050565b805160ff81168114620002af57600080fd5b600080600060608486031215620002dc57600080fd5b620002e78462000297565b9250620002f760208501620002b4565b9150620003076040850162000297565b90509250925092565b6000825160005b8181101562000333576020818601810151858301520162000317565b506000920191825250919050565b6000602082840312156200035457600080fd5b6200035f82620002b4565b9392505050565b634e487b7160e01b600052601160045260246000fd5b60ff828116828216039081111562000398576200039862000366565b92915050565b600181815b80851115620003df578160001904821115620003c357620003c362000366565b80851615620003d157918102915b93841c9390800290620003a3565b509250929050565b600082620003f85750600162000398565b81620004075750600062000398565b81600181146200042057600281146200042b576200044b565b600191505062000398565b60ff8411156200043f576200043f62000366565b50506001821b62000398565b5060208310610133831016604e8410600b841016171562000470575081810a62000398565b6200047c83836200039e565b806000190482111562000493576200049362000366565b029392505050565b60006200035f60ff841683620003e7565b60805160a05160c05160e0516144346200055d600039600081816126df0152818161287e0152612ee001526000818161092c015281816113580152818161234f015281816123d9015281816124120152818161245b01526127b4015260006105780152600081816107290152818161095301528181610bd901528181610c8101528181610e9c0152818161167601528181611c1601528181611f040152818161229d0152612a2501526144346000f3fe6080604052600436106102875760003560e01c80639358928b1161015a578063c83330ce116100c1578063eaffd49a1161007a578063eaffd49a1461087d578063eb8d72b71461089d578063ecd8f212146108bd578063f2fde38b146108dd578063f5ecbdbc146108fd578063fc0c546a1461091d57600080fd5b8063c83330ce14610791578063cbed8b9c146107e7578063d1deba1f14610807578063d88829681461081a578063df2a5b3b14610848578063e6a20ae61461086857600080fd5b8063a6c3d16511610113578063a6c3d165146106e1578063abe685cd14610701578063b353aaa714610717578063b9818be11461074b578063baf3292d14610771578063c44618341461070157600080fd5b80639358928b14610604578063950c8a74146106195780639689cb05146106395780639bdb98121461064f5780639f38369a146106a1578063a4c51df5146106c157600080fd5b8063455ba27d116101fe578063715018a6116101b7578063715018a6146105045780637533d7881461051957806379c0ad4b14610546578063857749b0146105665780638cfd8f5c1461059a5780638da5cb5b146105d257600080fd5b8063455ba27d1461041b5780634b104eff1461042e5780634c42899a1461044e5780635a359dc5146104755780635b8c41e61461049557806366ad5c8a146104e457600080fd5b80632cdf0b95116102505780632cdf0b9514610343578063365260b4146103565780633d8b38f61461038b5780633f1f4fa4146103ab57806342d65a8d146103e6578063447705151461040657600080fd5b80621d35671461028c57806301ffc9a7146102ae57806307e0db17146102e35780630df374831461030357806310ddb13714610323575b600080fd5b34801561029857600080fd5b506102ac6102a7366004613484565b610950565b005b3480156102ba57600080fd5b506102ce6102c9366004613517565b610b81565b60405190151581526020015b60405180910390f35b3480156102ef57600080fd5b506102ac6102fe366004613541565b610bb8565b34801561030f57600080fd5b506102ac61031e36600461355c565b610c41565b34801561032f57600080fd5b506102ac61033e366004613541565b610c60565b6102ac6103513660046135b3565b610cb8565b34801561036257600080fd5b5061037661037136600461363c565b610d5b565b604080519283526020830191909152016102da565b34801561039757600080fd5b506102ce6103a63660046136a3565b610db0565b3480156103b757600080fd5b506103d86103c6366004613541565b60036020526000908152604090205481565b6040519081526020016102da565b3480156103f257600080fd5b506102ac6104013660046136a3565b610e7d565b34801561041257600080fd5b506103d8600081565b6102ac6104293660046136f5565b610f03565b34801561043a57600080fd5b506102ac6104493660046137b1565b610fe4565b34801561045a57600080fd5b50610463600081565b60405160ff90911681526020016102da565b34801561048157600080fd5b506102ac610490366004613541565b6110a1565b3480156104a157600080fd5b506103d86104b036600461383b565b6005602090815260009384526040808520845180860184018051928152908401958401959095209452929052825290205481565b3480156104f057600080fd5b506102ac6104ff366004613484565b611113565b34801561051057600080fd5b506102ac6111e7565b34801561052557600080fd5b50610539610534366004613541565b6111fb565b6040516102da919061392b565b34801561055257600080fd5b506102ac61056136600461393e565b611295565b34801561057257600080fd5b506104637f000000000000000000000000000000000000000000000000000000000000000081565b3480156105a657600080fd5b506103d86105b536600461397a565b600260209081526000928352604080842090915290825290205481565b3480156105de57600080fd5b506000546001600160a01b03165b6040516001600160a01b0390911681526020016102da565b34801561061057600080fd5b506103d8611351565b34801561062557600080fd5b506004546105ec906001600160a01b031681565b34801561064557600080fd5b506103d860095481565b34801561065b57600080fd5b506102ce61066a36600461383b565b6006602090815260009384526040808520845180860184018051928152908401958401959095209452929052825290205460ff1681565b3480156106ad57600080fd5b506105396106bc366004613541565b6113e7565b3480156106cd57600080fd5b506103766106dc3660046139ad565b6114f6565b3480156106ed57600080fd5b506102ac6106fc3660046136a3565b611585565b34801561070d57600080fd5b506103d861271081565b34801561072357600080fd5b506105ec7f000000000000000000000000000000000000000000000000000000000000000081565b34801561075757600080fd5b506008546105ec906201000090046001600160a01b031681565b34801561077d57600080fd5b506102ac61078c3660046137b1565b611601565b34801561079d57600080fd5b506107cd6107ac366004613541565b60076020526000908152604090205461ffff81169062010000900460ff1682565b6040805161ffff90931683529015156020830152016102da565b3480156107f357600080fd5b506102ac610802366004613a6a565b611657565b6102ac610815366004613484565b6116e1565b34801561082657600080fd5b506008546108359061ffff1681565b60405161ffff90911681526020016102da565b34801561085457600080fd5b506102ac610863366004613ad8565b6118f7565b34801561087457600080fd5b50610463600181565b34801561088957600080fd5b506102ac610898366004613b14565b611961565b3480156108a957600080fd5b506102ac6108b83660046136a3565b611a80565b3480156108c957600080fd5b506103d86108d836600461355c565b611ada565b3480156108e957600080fd5b506102ac6108f83660046137b1565b611b6c565b34801561090957600080fd5b50610539610918366004613bdc565b611be5565b34801561092957600080fd5b507f00000000000000000000000000000000000000000000000000000000000000006105ec565b337f00000000000000000000000000000000000000000000000000000000000000006001600160a01b0316146109cd5760405162461bcd60e51b815260206004820152601e60248201527f4c7a4170703a20696e76616c696420656e64706f696e742063616c6c6572000060448201526064015b60405180910390fd5b61ffff8616600090815260016020526040812080546109eb90613c29565b80601f0160208091040260200160405190810160405280929190818152602001828054610a1790613c29565b8015610a645780601f10610a3957610100808354040283529160200191610a64565b820191906000526020600020905b815481529060010190602001808311610a4757829003601f168201915b50505050509050805186869050148015610a7f575060008151115b8015610aa7575080516020820120604051610a9d9088908890613c5d565b6040518091039020145b610b025760405162461bcd60e51b815260206004820152602660248201527f4c7a4170703a20696e76616c696420736f757263652073656e64696e6720636f6044820152651b9d1c9858dd60d21b60648201526084016109c4565b610b788787878080601f01602080910402602001604051908101604052809392919081815260200183838082843760009201919091525050604080516020601f8a018190048102820181019092528881528a935091508890889081908401838280828437600092019190915250611c9892505050565b50505050505050565b60006001600160e01b03198216630d30953d60e31b1480610bb257506301ffc9a760e01b6001600160e01b03198316145b92915050565b610bc0611d11565b6040516307e0db1760e01b815261ffff821660048201527f00000000000000000000000000000000000000000000000000000000000000006001600160a01b0316906307e0db17906024015b600060405180830381600087803b158015610c2657600080fd5b505af1158015610c3a573d6000803e3d6000fd5b5050505050565b610c49611d11565b61ffff909116600090815260036020526040902055565b610c68611d11565b6040516310ddb13760e01b815261ffff821660048201527f00000000000000000000000000000000000000000000000000000000000000006001600160a01b0316906310ddb13790602401610c0c565b610cc3868685611d6b565b509250610d3186868686610cda60208701876137b1565b610cea60408801602089016137b1565b610cf76040890189613c6d565b8080601f016020809104026020016040519081016040528093929190818152602001838380828437600092019190915250611db492505050565b925081831015610d535760405162461bcd60e51b81526004016109c490613cb3565b505050505050565b600080610da18888888888888080601f016020809104026020016040519081016040528093929190818152602001838380828437600092019190915250611ed892505050565b91509150965096945050505050565b61ffff831660009081526001602052604081208054829190610dd190613c29565b80601f0160208091040260200160405190810160405280929190818152602001828054610dfd90613c29565b8015610e4a5780601f10610e1f57610100808354040283529160200191610e4a565b820191906000526020600020905b815481529060010190602001808311610e2d57829003601f168201915b505050505090508383604051610e61929190613c5d565b60405180910390208180519060200120149150505b9392505050565b610e85611d11565b6040516342d65a8d60e01b81526001600160a01b037f000000000000000000000000000000000000000000000000000000000000000016906342d65a8d90610ed590869086908690600401613d29565b600060405180830381600087803b158015610eef57600080fd5b505af1158015610b78573d6000803e3d6000fd5b610f0e898988611d6b565b5080965050610fb78989898988888080601f0160208091040260200160405190810160405280939291908181526020018383808284376000920191909152508a9250610f6091505060208901896137b1565b610f7060408a0160208b016137b1565b610f7d60408b018b613c6d565b8080601f016020809104026020016040519081016040528093929190818152602001838380828437600092019190915250611f9092505050565b955084861015610fd95760405162461bcd60e51b81526004016109c490613cb3565b505050505050505050565b610fec611d11565b6001600160a01b0381166110425760405162461bcd60e51b815260206004820152601a60248201527f4665653a206665654f776e65722063616e6e6f7420626520307800000000000060448201526064016109c4565b6008805462010000600160b01b031916620100006001600160a01b038416908102919091179091556040519081527f047912631afa564eebd3db2efe191a0dec62da1fede6bbbc1ffc89d87845b1b5906020015b60405180910390a150565b6110a9611d11565b6127108161ffff1611156110cf5760405162461bcd60e51b81526004016109c490613d47565b6008805461ffff191661ffff83169081179091556040519081527fd26030ef4a8c225ee12b646eb4466acb41fb96b6cd4660b22d0ba0124e7bdc7490602001611096565b3330146111715760405162461bcd60e51b815260206004820152602660248201527f4e6f6e626c6f636b696e674c7a4170703a2063616c6c6572206d7573742062656044820152650204c7a4170760d41b60648201526084016109c4565b610d538686868080601f01602080910402602001604051908101604052809392919081815260200183838082843760009201919091525050604080516020601f89018190048102820181019092528781528993509150879087908190840183828082843760009201919091525061208c92505050565b6111ef611d11565b6111f96000612113565b565b6001602052600090815260409020805461121490613c29565b80601f016020809104026020016040519081016040528092919081815260200182805461124090613c29565b801561128d5780601f106112625761010080835404028352916020019161128d565b820191906000526020600020905b81548152906001019060200180831161127057829003601f168201915b505050505081565b61129d611d11565b6127108161ffff1611156112c35760405162461bcd60e51b81526004016109c490613d47565b60408051808201825261ffff83811680835285151560208085018281528985166000818152600784528890209651875492511515620100000262ffffff1990931696169590951717909455845192835292820192909252918201527fdd9c9685af3e6dcb56d8f4b88d2595d4add6837a150034e7781c46b6dcf8aaab906060015b60405180910390a1505050565b60006009547f00000000000000000000000000000000000000000000000000000000000000006001600160a01b03166318160ddd6040518163ffffffff1660e01b8152600401602060405180830381865afa1580156113b4573d6000803e3d6000fd5b505050506040513d601f19601f820116820180604052508101906113d89190613d8c565b6113e29190613dbb565b905090565b61ffff811660009081526001602052604081208054606092919061140a90613c29565b80601f016020809104026020016040519081016040528092919081815260200182805461143690613c29565b80156114835780601f1061145857610100808354040283529160200191611483565b820191906000526020600020905b81548152906001019060200180831161146657829003601f168201915b5050505050905080516000036114db5760405162461bcd60e51b815260206004820152601d60248201527f4c7a4170703a206e6f20747275737465642070617468207265636f726400000060448201526064016109c4565b610e766000601483516114ee9190613dbb565b839190612163565b6000806115738b8b8b8b8b8080601f01602080910402602001604051908101604052809392919081815260200183838082843760009201919091525050604080516020601f8d018190048102820181019092528b81528e93508d9250908c908c908190840183828082843760009201919091525061227092505050565b91509150995099975050505050505050565b61158d611d11565b8181306040516020016115a293929190613dce565b60408051601f1981840301815291815261ffff85166000908152600160205220906115cd9082613e3c565b507f8c0400cfe2d1199b1a725c78960bcc2a344d869b80590d0f2bd005db15a572ce83838360405161134493929190613d29565b611609611d11565b600480546001600160a01b0319166001600160a01b0383169081179091556040519081527f5db758e995a17ec1ad84bdef7e8c3293a0bd6179bcce400dff5d4c3d87db726b90602001611096565b61165f611d11565b6040516332fb62e760e21b81526001600160a01b037f0000000000000000000000000000000000000000000000000000000000000000169063cbed8b9c906116b39088908890889088908890600401613efb565b600060405180830381600087803b1580156116cd57600080fd5b505af1158015610fd9573d6000803e3d6000fd5b61ffff861660009081526005602052604080822090516117049088908890613c5d565b90815260408051602092819003830190206001600160401b038716600090815292529020549050806117845760405162461bcd60e51b815260206004820152602360248201527f4e6f6e626c6f636b696e674c7a4170703a206e6f2073746f726564206d65737360448201526261676560e81b60648201526084016109c4565b808383604051611795929190613c5d565b6040518091039020146117f45760405162461bcd60e51b815260206004820152602160248201527f4e6f6e626c6f636b696e674c7a4170703a20696e76616c6964207061796c6f616044820152601960fa1b60648201526084016109c4565b61ffff871660009081526005602052604080822090516118179089908990613c5d565b90815260408051602092819003830181206001600160401b038916600090815290845282902093909355601f880182900482028301820190528682526118af918991899089908190840183828082843760009201919091525050604080516020601f8a018190048102820181019092528881528a93509150889088908190840183828082843760009201919091525061208c92505050565b7fc264d91f3adc5588250e1551f547752ca0cfa8f6b530d243b9f9f4cab10ea8e587878787856040516118e6959493929190613f29565b60405180910390a150505050505050565b6118ff611d11565b61ffff83811660008181526002602090815260408083209487168084529482529182902085905581519283528201929092529081018290527f9d5c7c0b934da8fefa9c7760c98383778a12dfbfc0c3b3106518f43fb9508ac090606001611344565b3330146119b05760405162461bcd60e51b815260206004820152601f60248201527f4f4654436f72653a2063616c6c6572206d757374206265204f4654436f72650060448201526064016109c4565b6119bb30868661232b565b9350846001600160a01b03168a61ffff167fbf551ec93859b170f9b2141bd9298bf3f64322c6f7beb2543a0cb669834118bf866040516119fd91815260200190565b60405180910390a3604051633fe79aed60e11b81526001600160a01b03861690637fcf35da908390611a41908e908e908e908e908e908d908d908d90600401613f64565b600060405180830381600088803b158015611a5b57600080fd5b5087f1158015611a6f573d6000803e3d6000fd5b505050505050505050505050505050565b611a88611d11565b61ffff83166000908152600160205260409020611aa6828483613fbf565b507ffa41487ad5d6728f0b19276fa1eddc16558578f5109fc39d2dc33c3230470dab83838360405161134493929190613d29565b61ffff828116600090815260076020908152604080832081518083019092525493841681526201000090930460ff1615801591840191909152909190611b3f57805161271090611b2e9061ffff168561407e565b611b3891906140ab565b9150611b65565b60085461ffff1615611b605760085461271090611b2e9061ffff168561407e565b600091505b5092915050565b611b74611d11565b6001600160a01b038116611bd95760405162461bcd60e51b815260206004820152602660248201527f4f776e61626c653a206e6577206f776e657220697320746865207a65726f206160448201526564647265737360d01b60648201526084016109c4565b611be281612113565b50565b604051633d7b2f6f60e21b815261ffff808616600483015284166024820152306044820152606481018290526060907f00000000000000000000000000000000000000000000000000000000000000006001600160a01b03169063f5ecbdbc90608401600060405180830381865afa158015611c65573d6000803e3d6000fd5b505050506040513d6000823e601f3d908101601f19168201604052611c8d91908101906140bf565b90505b949350505050565b600080611cfb5a60966366ad5c8a60e01b89898989604051602401611cc0949392919061412c565b60408051601f198184030181529190526020810180516001600160e01b03166001600160e01b031990931692909217909152309291906124db565b9150915081610d5357610d538686868685612565565b6000546001600160a01b031633146111f95760405162461bcd60e51b815260206004820181905260248201527f4f776e61626c653a2063616c6c6572206973206e6f7420746865206f776e657260448201526064016109c4565b600080611d788484611ada565b9050611d848184613dbb565b91508015611dac57600854611daa9086906201000090046001600160a01b03168361232b565b505b935093915050565b6000611dc287828481612602565b611dcb856126d7565b509050611dda88888884612717565b905060008111611e285760405162461bcd60e51b815260206004820152601960248201527813d19510dbdc994e88185b5bdd5b9d081d1bdbc81cdb585b1b603a1b60448201526064016109c4565b6000611e7387611e3784612876565b6040805160006020820152602181019390935260c09190911b6001600160c01b0319166041830152805160298184030181526049909201905290565b9050611e838882878787346128fc565b86896001600160a01b03168961ffff167fd81fc9b8523134ed613870ed029d6170cbb73aa6a6bc311b9a642689fb9df59a85604051611ec491815260200190565b60405180910390a450979650505050505050565b6000806000611eea87611e3788612876565b60405163040a7bb160e41b81529091506001600160a01b037f000000000000000000000000000000000000000000000000000000000000000016906340a7bb1090611f41908b90309086908b908b9060040161416a565b6040805180830381865afa158015611f5d573d6000803e3d6000fd5b505050506040513d601f19601f82011682018060405250810190611f8191906141be565b92509250509550959350505050565b6000611fa8896001846001600160401b038916612602565b611fb1876126d7565b509050611fc08a8a8a84612717565b90506000811161200e5760405162461bcd60e51b815260206004820152601960248201527813d19510dbdc994e88185b5bdd5b9d081d1bdbc81cdb585b1b603a1b60448201526064016109c4565b6000612025338a61201e85612876565b8a8a612aa1565b90506120358a82878787346128fc565b888b6001600160a01b03168b61ffff167fd81fc9b8523134ed613870ed029d6170cbb73aa6a6bc311b9a642689fb9df59a8560405161207691815260200190565b60405180910390a4509998505050505050505050565b60006120988282612ae2565b905060ff81166120b3576120ae85858585612b3e565b610c3a565b60001960ff8216016120cb576120ae85858585612bce565b60405162461bcd60e51b815260206004820152601c60248201527f4f4654436f72653a20756e6b6e6f776e207061636b657420747970650000000060448201526064016109c4565b600080546001600160a01b038381166001600160a01b0319831681178455604051919092169283917f8be0079c531659141344cd1fd0a4f28419497f9722a3daafe3b4186f6b6457e09190a35050565b60608161217181601f6141e2565b10156121b05760405162461bcd60e51b815260206004820152600e60248201526d736c6963655f6f766572666c6f7760901b60448201526064016109c4565b6121ba82846141e2565b845110156121fe5760405162461bcd60e51b8152602060048201526011602482015270736c6963655f6f75744f66426f756e647360781b60448201526064016109c4565b60608215801561221d5760405191506000825260208201604052612267565b6040519150601f8416801560200281840101858101878315602002848b0101015b8183101561225657805183526020928301920161223e565b5050858452601f01601f1916604052505b50949350505050565b6000806000612283338a61201e8b612876565b60405163040a7bb160e41b81529091506001600160a01b037f000000000000000000000000000000000000000000000000000000000000000016906340a7bb10906122da908d90309086908b908b9060040161416a565b6040805180830381865afa1580156122f6573d6000803e3d6000fd5b505050506040513d601f19601f8201168201806040525081019061231a91906141be565b925092505097509795505050505050565b6040516370a0823160e01b81526001600160a01b03838116600483015260009182917f000000000000000000000000000000000000000000000000000000000000000016906370a0823190602401602060405180830381865afa158015612396573d6000803e3d6000fd5b505050506040513d601f19601f820116820180604052508101906123ba9190613d8c565b9050306001600160a01b03861603612405576124006001600160a01b037f0000000000000000000000000000000000000000000000000000000000000000168585612ddd565b61243a565b61243a6001600160a01b037f000000000000000000000000000000000000000000000000000000000000000016868686612e45565b6040516370a0823160e01b81526001600160a01b03858116600483015282917f0000000000000000000000000000000000000000000000000000000000000000909116906370a0823190602401602060405180830381865afa1580156124a4573d6000803e3d6000fd5b505050506040513d601f19601f820116820180604052508101906124c89190613d8c565b6124d29190613dbb565b95945050505050565b6000606060008060008661ffff166001600160401b03811115612500576125006137ce565b6040519080825280601f01601f19166020018201604052801561252a576020820181803683370190505b50905060008087516020890160008d8df191503d92508683111561254c578692505b828152826000602083013e909890975095505050505050565b8180519060200120600560008761ffff1661ffff1681526020019081526020016000208560405161259691906141f5565b9081526040805191829003602090810183206001600160401b0388166000908152915220919091557fe183f33de2837795525b4792ca4cd60535bd77c53b7e7030060bfcf5734d6b0c906125f39087908790879087908790614211565b60405180910390a15050505050565b600061260d83612e7d565b61ffff8087166000908152600260209081526040808320938916835292905220549091508061267e5760405162461bcd60e51b815260206004820152601a60248201527f4c7a4170703a206d696e4761734c696d6974206e6f742073657400000000000060448201526064016109c4565b61268883826141e2565b821015610d535760405162461bcd60e51b815260206004820152601b60248201527f4c7a4170703a20676173206c696d697420697320746f6f206c6f77000000000060448201526064016109c4565b6000806127047f000000000000000000000000000000000000000000000000000000000000000084614263565b90506127108184613dbb565b9150915091565b60006001600160a01b03851633146127835760405162461bcd60e51b815260206004820152602960248201527f50726f78794f4654576974684665653a206f776e6572206973206e6f7420736560448201526837321031b0b63632b960b91b60648201526084016109c4565b61278e85308461232b565b915060008061279c846126d7565b909250905080156127db576127db6001600160a01b037f0000000000000000000000000000000000000000000000000000000000000000168883612ddd565b81600960008282546127ed91906141e2565b90915550600090506128056001600160401b03612ed9565b905060095481101561286a5760405162461bcd60e51b815260206004820152602860248201527f50726f78794f4654576974684665653a206f7574626f756e64416d6f756e74206044820152676f766572666c6f7760c01b60648201526084016109c4565b50909695505050505050565b6000806128a37f0000000000000000000000000000000000000000000000000000000000000000846140ab565b90506001600160401b03811115610bb25760405162461bcd60e51b815260206004820152601a60248201527f4f4654436f72653a20616d6f756e745344206f766572666c6f7700000000000060448201526064016109c4565b61ffff86166000908152600160205260408120805461291a90613c29565b80601f016020809104026020016040519081016040528092919081815260200182805461294690613c29565b80156129935780601f1061296857610100808354040283529160200191612993565b820191906000526020600020905b81548152906001019060200180831161297657829003601f168201915b505050505090508051600003612a045760405162461bcd60e51b815260206004820152603060248201527f4c7a4170703a2064657374696e6174696f6e20636861696e206973206e6f742060448201526f61207472757374656420736f7572636560801b60648201526084016109c4565b612a0f878751612f0e565b60405162c5803160e81b81526001600160a01b037f0000000000000000000000000000000000000000000000000000000000000000169063c5803100908490612a66908b9086908c908c908c908c90600401614277565b6000604051808303818588803b158015612a7f57600080fd5b505af1158015612a93573d6000803e3d6000fd5b505050505050505050505050565b6060600185856001600160a01b0389168587604051602001612ac8969594939291906142de565b604051602081830303815290604052905095945050505050565b6000612aef8260016141e2565b83511015612b355760405162461bcd60e51b8152602060048201526013602482015272746f55696e74385f6f75744f66426f756e647360681b60448201526064016109c4565b50016001015190565b600080612b4a83612f7f565b90925090506001600160a01b038216612b635761dead91505b6000612b6e82612ed9565b9050612b7b878483613004565b9050826001600160a01b03168761ffff167fbf551ec93859b170f9b2141bd9298bf3f64322c6f7beb2543a0cb669834118bf83604051612bbd91815260200190565b60405180910390a350505050505050565b6000806000806000612bdf8661303f565b945094509450945094506000600660008b61ffff1661ffff16815260200190815260200160002089604051612c1491906141f5565b90815260408051602092819003830190206001600160401b038b166000908152925281205460ff169150612c4785612ed9565b905081612cb557612c598b3083613004565b61ffff8c16600090815260066020526040908190209051919250600191612c81908d906141f5565b90815260408051602092819003830190206001600160401b038d16600090815292529020805460ff19169115159190911790555b6001600160a01b0386163b612d0c576040516001600160a01b03871681527f9aedf5fdba8716db3b6705ca00150643309995d4f818a249ed6dde6677e7792d9060200160405180910390a150505050505050612dd7565b8a8a8a8a8a8a868a60008a612d2a578b6001600160401b0316612d2c565b5a5b9050600080612d5e5a609663eaffd49a60e01b8e8e8e8d8d8d8d8d604051602401611cc098979695949392919061433f565b915091508115612db7578751602089012060405161ffff8d16907fb8890edbfc1c74692f527444645f95489c3703cc2df42e4a366f5d06fa6cd88490612da9908e908e9086906143b3565b60405180910390a250612dc4565b612dc48b8b8b8b85612565565b5050505050505050505050505050505050505b50505050565b6040516001600160a01b038316602482015260448101829052612e4090849063a9059cbb60e01b906064015b60408051601f198184030181529190526020810180516001600160e01b03166001600160e01b0319909316929092179091526130f6565b505050565b6040516001600160a01b0380851660248301528316604482015260648101829052612dd79085906323b872dd60e01b90608401612e09565b6000602282511015612ed15760405162461bcd60e51b815260206004820152601c60248201527f4c7a4170703a20696e76616c69642061646170746572506172616d730000000060448201526064016109c4565b506022015190565b6000610bb27f00000000000000000000000000000000000000000000000000000000000000006001600160401b03841661407e565b61ffff821660009081526003602052604081205490819003612f2f57506127105b80821115612e405760405162461bcd60e51b815260206004820181905260248201527f4c7a4170703a207061796c6f61642073697a6520697320746f6f206c6172676560448201526064016109c4565b60008080612f8d8482612ae2565b60ff16148015612f9e575082516029145b612fe55760405162461bcd60e51b815260206004820152601860248201527713d19510dbdc994e881a5b9d985b1a59081c185e5b1bd85960421b60448201526064016109c4565b612ff083600d6131cb565b9150612ffd836021613230565b9050915091565b600081600960008282546130189190613dbb565b9091555050306001600160a01b03841603613034575080610e76565b611c9030848461232b565b6000808060608160016130528783612ae2565b60ff161461309d5760405162461bcd60e51b815260206004820152601860248201527713d19510dbdc994e881a5b9d985b1a59081c185e5b1bd85960421b60448201526064016109c4565b6130a886600d6131cb565b93506130b5866021613230565b92506130c286602961328d565b94506130cf866049613230565b90506130eb60518088516130e39190613dbb565b889190612163565b915091939590929450565b600061314b826040518060400160405280602081526020017f5361666545524332303a206c6f772d6c6576656c2063616c6c206661696c6564815250856001600160a01b03166132eb9092919063ffffffff16565b905080516000148061316c57508080602001905181019061316c91906143e1565b612e405760405162461bcd60e51b815260206004820152602a60248201527f5361666545524332303a204552433230206f7065726174696f6e20646964206e6044820152691bdd081cdd58d8d9595960b21b60648201526084016109c4565b60006131d88260146141e2565b835110156132205760405162461bcd60e51b8152602060048201526015602482015274746f416464726573735f6f75744f66426f756e647360581b60448201526064016109c4565b500160200151600160601b900490565b600061323d8260086141e2565b835110156132845760405162461bcd60e51b8152602060048201526014602482015273746f55696e7436345f6f75744f66426f756e647360601b60448201526064016109c4565b50016008015190565b600061329a8260206141e2565b835110156132e25760405162461bcd60e51b8152602060048201526015602482015274746f427974657333325f6f75744f66426f756e647360581b60448201526064016109c4565b50016020015190565b6060611c90848460008585600080866001600160a01b0316858760405161331291906141f5565b60006040518083038185875af1925050503d806000811461334f576040519150601f19603f3d011682016040523d82523d6000602084013e613354565b606091505b509150915061336587838387613370565b979650505050505050565b606083156133df5782516000036133d8576001600160a01b0385163b6133d85760405162461bcd60e51b815260206004820152601d60248201527f416464726573733a2063616c6c20746f206e6f6e2d636f6e747261637400000060448201526064016109c4565b5081611c90565b611c9083838151156133f45781518083602001fd5b8060405162461bcd60e51b81526004016109c4919061392b565b803561ffff8116811461342057600080fd5b919050565b60008083601f84011261343757600080fd5b5081356001600160401b0381111561344e57600080fd5b60208301915083602082850101111561346657600080fd5b9250929050565b80356001600160401b038116811461342057600080fd5b6000806000806000806080878903121561349d57600080fd5b6134a68761340e565b955060208701356001600160401b03808211156134c257600080fd5b6134ce8a838b01613425565b90975095508591506134e260408a0161346d565b945060608901359150808211156134f857600080fd5b5061350589828a01613425565b979a9699509497509295939492505050565b60006020828403121561352957600080fd5b81356001600160e01b031981168114610e7657600080fd5b60006020828403121561355357600080fd5b610e768261340e565b6000806040838503121561356f57600080fd5b6135788361340e565b946020939093013593505050565b6001600160a01b0381168114611be257600080fd5b6000606082840312156135ad57600080fd5b50919050565b60008060008060008060c087890312156135cc57600080fd5b86356135d781613586565b95506135e56020880161340e565b945060408701359350606087013592506080870135915060a08701356001600160401b0381111561361557600080fd5b61362189828a0161359b565b9150509295509295509295565b8015158114611be257600080fd5b60008060008060008060a0878903121561365557600080fd5b61365e8761340e565b95506020870135945060408701359350606087013561367c8161362e565b925060808701356001600160401b0381111561369757600080fd5b61350589828a01613425565b6000806000604084860312156136b857600080fd5b6136c18461340e565b925060208401356001600160401b038111156136dc57600080fd5b6136e886828701613425565b9497909650939450505050565b60008060008060008060008060006101008a8c03121561371457600080fd5b893561371f81613586565b985061372d60208b0161340e565b975060408a0135965060608a0135955060808a0135945060a08a01356001600160401b038082111561375e57600080fd5b61376a8d838e01613425565b909650945084915061377e60c08d0161346d565b935060e08c013591508082111561379457600080fd5b506137a18c828d0161359b565b9150509295985092959850929598565b6000602082840312156137c357600080fd5b8135610e7681613586565b634e487b7160e01b600052604160045260246000fd5b604051601f8201601f191681016001600160401b038111828210171561380c5761380c6137ce565b604052919050565b60006001600160401b0382111561382d5761382d6137ce565b50601f01601f191660200190565b60008060006060848603121561385057600080fd5b6138598461340e565b925060208401356001600160401b0381111561387457600080fd5b8401601f8101861361388557600080fd5b803561389861389382613814565b6137e4565b8181528760208385010111156138ad57600080fd5b816020840160208301376000602083830101528094505050506138d26040850161346d565b90509250925092565b60005b838110156138f65781810151838201526020016138de565b50506000910152565b600081518084526139178160208601602086016138db565b601f01601f19169290920160200192915050565b602081526000610e7660208301846138ff565b60008060006060848603121561395357600080fd5b61395c8461340e565b9250602084013561396c8161362e565b91506138d26040850161340e565b6000806040838503121561398d57600080fd5b6139968361340e565b91506139a46020840161340e565b90509250929050565b600080600080600080600080600060e08a8c0312156139cb57600080fd5b6139d48a61340e565b985060208a0135975060408a0135965060608a01356001600160401b03808211156139fe57600080fd5b613a0a8d838e01613425565b9098509650869150613a1e60808d0161346d565b955060a08c01359150613a308261362e565b90935060c08b01359080821115613a4657600080fd5b50613a538c828d01613425565b915080935050809150509295985092959850929598565b600080600080600060808688031215613a8257600080fd5b613a8b8661340e565b9450613a996020870161340e565b93506040860135925060608601356001600160401b03811115613abb57600080fd5b613ac788828901613425565b969995985093965092949392505050565b600080600060608486031215613aed57600080fd5b613af68461340e565b9250613b046020850161340e565b9150604084013590509250925092565b6000806000806000806000806000806101008b8d031215613b3457600080fd5b613b3d8b61340e565b995060208b01356001600160401b0380821115613b5957600080fd5b613b658e838f01613425565b909b509950899150613b7960408e0161346d565b985060608d0135975060808d01359150613b9282613586565b90955060a08c0135945060c08c01359080821115613baf57600080fd5b50613bbc8d828e01613425565b9150809450508092505060e08b013590509295989b9194979a5092959850565b60008060008060808587031215613bf257600080fd5b613bfb8561340e565b9350613c096020860161340e565b92506040850135613c1981613586565b9396929550929360600135925050565b600181811c90821680613c3d57607f821691505b6020821081036135ad57634e487b7160e01b600052602260045260246000fd5b8183823760009101908152919050565b6000808335601e19843603018112613c8457600080fd5b8301803591506001600160401b03821115613c9e57600080fd5b60200191503681900382131561346657600080fd5b6020808252602d908201527f426173654f4654576974684665653a20616d6f756e74206973206c657373207460408201526c1a185b881b5a5b905b5bdd5b9d609a1b606082015260800190565b81835281816020850137506000828201602090810191909152601f909101601f19169091010190565b61ffff84168152604060208201526000611c8d604083018486613d00565b60208082526025908201527f4665653a20666565206270206d757374206265203c3d2042505f44454e4f4d496040820152642720aa27a960d91b606082015260800190565b600060208284031215613d9e57600080fd5b5051919050565b634e487b7160e01b600052601160045260246000fd5b81810381811115610bb257610bb2613da5565b8284823760609190911b6bffffffffffffffffffffffff19169101908152601401919050565b601f821115612e40576000816000526020600020601f850160051c81016020861015613e1d5750805b601f850160051c820191505b81811015610d5357828155600101613e29565b81516001600160401b03811115613e5557613e556137ce565b613e6981613e638454613c29565b84613df4565b602080601f831160018114613e9e5760008415613e865750858301515b600019600386901b1c1916600185901b178555610d53565b600085815260208120601f198616915b82811015613ecd57888601518255948401946001909101908401613eae565b5085821015613eeb5787850151600019600388901b60f8161c191681555b5050505050600190811b01905550565b600061ffff808816835280871660208401525084604083015260806060830152613365608083018486613d00565b61ffff86168152608060208201526000613f47608083018688613d00565b6001600160401b0394909416604083015250606001529392505050565b61ffff8916815260c060208201526000613f8260c08301898b613d00565b6001600160401b038816604084015286606084015285608084015282810360a0840152613fb0818587613d00565b9b9a5050505050505050505050565b6001600160401b03831115613fd657613fd66137ce565b613fea83613fe48354613c29565b83613df4565b6000601f84116001811461401e57600085156140065750838201355b600019600387901b1c1916600186901b178355610c3a565b600083815260209020601f19861690835b8281101561404f578685013582556020948501946001909201910161402f565b508682101561406c5760001960f88860031b161c19848701351681555b505060018560011b0183555050505050565b8082028115828204841417610bb257610bb2613da5565b634e487b7160e01b600052601260045260246000fd5b6000826140ba576140ba614095565b500490565b6000602082840312156140d157600080fd5b81516001600160401b038111156140e757600080fd5b8201601f810184136140f857600080fd5b805161410661389382613814565b81815285602083850101111561411b57600080fd5b6124d28260208301602086016138db565b61ffff8516815260806020820152600061414960808301866138ff565b6001600160401b0385166040840152828103606084015261336581856138ff565b61ffff861681526001600160a01b038516602082015260a060408201819052600090614198908301866138ff565b841515606084015282810360808401526141b281856138ff565b98975050505050505050565b600080604083850312156141d157600080fd5b505080516020909101519092909150565b80820180821115610bb257610bb2613da5565b600082516142078184602087016138db565b9190910192915050565b61ffff8616815260a06020820152600061422e60a08301876138ff565b6001600160401b0386166040840152828103606084015261424f81866138ff565b905082810360808401526141b281856138ff565b60008261427257614272614095565b500690565b61ffff8716815260c06020820152600061429460c08301886138ff565b82810360408401526142a681886138ff565b6001600160a01b0387811660608601528616608085015283810360a085015290506142d181856138ff565b9998505050505050505050565b60ff60f81b8760f81b16815285600182015260006001600160401b0360c01b808760c01b166021840152856029840152808560c01b16604984015250825161432d8160518501602087016138db565b91909101605101979650505050505050565b600061010061ffff8b16835280602084015261435d8184018b6138ff565b6001600160401b038a166040850152606084018990526001600160a01b038816608085015260a0840187905283810360c0850152905061439d81866138ff565b9150508260e08301529998505050505050505050565b6060815260006143c660608301866138ff565b6001600160401b039490941660208301525060400152919050565b6000602082840312156143f357600080fd5b8151610e768161362e56fea264697066735822122080e9c1bcbf391c369cab319d3bf6983f79d8ef4974c137d4070857d97012ead064736f6c63430008160033",
    "linkReferences": {}
  },
  "methodIdentifiers": {
    "BP_DENOMINATOR()": "abe685cd",
    "DEFAULT_PAYLOAD_SIZE_LIMIT()": "c4461834",
    "NO_EXTRA_GAS()": "44770515",
    "PT_SEND()": "4c42899a",
    "PT_SEND_AND_CALL()": "e6a20ae6",
    "callOnOFTReceived(uint16,bytes,uint64,bytes32,address,uint256,bytes,uint256)": "eaffd49a",
    "chainIdToFeeBps(uint16)": "c83330ce",
    "circulatingSupply()": "9358928b",
    "creditedPackets(uint16,bytes,uint64)": "9bdb9812",
    "defaultFeeBp()": "d8882968",
    "estimateSendAndCallFee(uint16,bytes32,uint256,bytes,uint64,bool,bytes)": "a4c51df5",
    "estimateSendFee(uint16,bytes32,uint256,bool,bytes)": "365260b4",
    "failedMessages(uint16,bytes,uint64)": "5b8c41e6",
    "feeOwner()": "b9818be1",
    "forceResumeReceive(uint16,bytes)": "42d65a8d",
    "getConfig(uint16,uint16,address,uint256)": "f5ecbdbc",
    "getTrustedRemoteAddress(uint16)": "9f38369a",
    "isTrustedRemote(uint16,bytes)": "3d8b38f6",
    "lzEndpoint()": "b353aaa7",
    "lzReceive(uint16,bytes,uint64,bytes)": "001d3567",
    "minDstGasLookup(uint16,uint16)": "8cfd8f5c",
    "nonblockingLzReceive(uint16,bytes,uint64,bytes)": "66ad5c8a",
    "outboundAmount()": "9689cb05",
    "owner()": "8da5cb5b",
    "payloadSizeLimitLookup(uint16)": "3f1f4fa4",
    "precrime()": "950c8a74",
    "quoteOFTFee(uint16,uint256)": "ecd8f212",
    "renounceOwnership()": "715018a6",
    "retryMessage(uint16,bytes,uint64,bytes)": "d1deba1f",
    "sendAndCall(address,uint16,bytes32,uint256,uint256,bytes,uint64,(address,address,bytes))": "455ba27d",
    "sendFrom(address,uint16,bytes32,uint256,uint256,(address,address,bytes))": "2cdf0b95",
    "setConfig(uint16,uint16,uint256,bytes)": "cbed8b9c",
    "setDefaultFeeBp(uint16)": "5a359dc5",
    "setFeeBp(uint16,bool,uint16)": "79c0ad4b",
    "setFeeOwner(address)": "4b104eff",
    "setMinDstGas(uint16,uint16,uint256)": "df2a5b3b",
    "setPayloadSizeLimit(uint16,uint256)": "0df37483",
    "setPrecrime(address)": "baf3292d",
    "setReceiveVersion(uint16)": "10ddb137",
    "setSendVersion(uint16)": "07e0db17",
    "setTrustedRemote(uint16,bytes)": "eb8d72b7",
    "setTrustedRemoteAddress(uint16,bytes)": "a6c3d165",
    "sharedDecimals()": "857749b0",
    "supportsInterface(bytes4)": "01ffc9a7",
    "token()": "fc0c546a",
    "transferOwnership(address)": "f2fde38b",
    "trustedRemoteLookup(uint16)": "7533d788"
  },
  "id": 30
}