{
  "abi": [
    {
      "inputs": [
        {
          "internalType": "address",
          "name": "_endpoint",
          "type": "address"
        }
      ],
      "stateMutability": "nonpayable",
      "type": "constructor"
    },
    {
      "anonymous": false,
      "inputs": [
        {
          "indexed": false,
          "internalType": "uint16",
          "name": "_srcChainId",
          "type": "uint16"
        },
        {
          "indexed": false,
          "internalType": "bytes",
          "name": "_srcAddress",
          "type": "bytes"
        },
        {
          "indexed": false,
          "internalType": "uint64",
          "name": "_nonce",
          "type": "uint64"
        },
        {
          "indexed": false,
          "internalType": "bytes",
          "name": "_payload",
          "type": "bytes"
        },
        {
          "indexed": false,
          "internalType": "bytes",
          "name": "_reason",
          "type": "bytes"
        }
      ],
      "name": "MessageFailed",
      "type": "event"
    },
    {
      "anonymous": false,
      "inputs": [
        {
          "indexed": true,
          "internalType": "address",
          "name": "previousOwner",
          "type": "address"
        },
        {
          "indexed": true,
          "internalType": "address",
          "name": "newOwner",
          "type": "address"
        }
      ],
      "name": "OwnershipTransferred",
      "type": "event"
    },
    {
      "anonymous": false,
      "inputs": [
        {
          "indexed": false,
          "internalType": "uint256",
          "name": "pingCount",
          "type": "uint256"
        }
      ],
      "name": "Ping",
      "type": "event"
    },
    {
      "anonymous": false,
      "inputs": [
        {
          "indexed": false,
          "internalType": "uint16",
          "name": "_srcChainId",
          "type": "uint16"
        },
        {
          "indexed": false,
          "internalType": "bytes",
          "name": "_srcAddress",
          "type": "bytes"
        },
        {
          "indexed": false,
          "internalType": "uint64",
          "name": "_nonce",
          "type": "uint64"
        },
        {
          "indexed": false,
          "internalType": "bytes32",
          "name": "_payloadHash",
          "type": "bytes32"
        }
      ],
      "name": "RetryMessageSuccess",
      "type": "event"
    },
    {
      "anonymous": false,
      "inputs": [
        {
          "indexed": false,
          "internalType": "uint16",
          "name": "_dstChainId",
          "type": "uint16"
        },
        {
          "indexed": false,
          "internalType": "uint16",
          "name": "_type",
          "type": "uint16"
        },
        {
          "indexed": false,
          "internalType": "uint256",
          "name": "_minDstGas",
          "type": "uint256"
        }
      ],
      "name": "SetMinDstGas",
      "type": "event"
    },
    {
      "anonymous": false,
      "inputs": [
        {
          "indexed": false,
          "internalType": "address",
          "name": "precrime",
          "type": "address"
        }
      ],
      "name": "SetPrecrime",
      "type": "event"
    },
    {
      "anonymous": false,
      "inputs": [
        {
          "indexed": false,
          "internalType": "uint16",
          "name": "_remoteChainId",
          "type": "uint16"
        },
        {
          "indexed": false,
          "internalType": "bytes",
          "name": "_path",
          "type": "bytes"
        }
      ],
      "name": "SetTrustedRemote",
      "type": "event"
    },
    {
      "anonymous": false,
      "inputs": [
        {
          "indexed": false,
          "internalType": "uint16",
          "name": "_remoteChainId",
          "type": "uint16"
        },
        {
          "indexed": false,
          "internalType": "bytes",
          "name": "_remoteAddress",
          "type": "bytes"
        }
      ],
      "name": "SetTrustedRemoteAddress",
      "type": "event"
    },
    {
      "inputs": [],
      "name": "DEFAULT_PAYLOAD_SIZE_LIMIT",
      "outputs": [
        {
          "internalType": "uint256",
          "name": "",
          "type": "uint256"
        }
      ],
      "stateMutability": "view",
      "type": "function"
    },
    {
      "inputs": [
        {
          "internalType": "uint16",
          "name": "",
          "type": "uint16"
        },
        {
          "internalType": "bytes",
          "name": "",
          "type": "bytes"
        },
        {
          "internalType": "uint64",
          "name": "",
          "type": "uint64"
        }
      ],
      "name": "failedMessages",
      "outputs": [
        {
          "internalType": "bytes32",
          "name": "",
          "type": "bytes32"
        }
      ],
      "stateMutability": "view",
      "type": "function"
    },
    {
      "inputs": [
        {
          "internalType": "uint16",
          "name": "_srcChainId",
          "type": "uint16"
        },
        {
          "internalType": "bytes",
          "name": "_srcAddress",
          "type": "bytes"
        }
      ],
      "name": "forceResumeReceive",
      "outputs": [],
      "stateMutability": "nonpayable",
      "type": "function"
    },
    {
      "inputs": [
        {
          "internalType": "uint16",
          "name": "_version",
          "type": "uint16"
        },
        {
          "internalType": "uint16",
          "name": "_chainId",
          "type": "uint16"
        },
        {
          "internalType": "address",
          "name": "",
          "type": "address"
        },
        {
          "internalType": "uint256",
          "name": "_configType",
          "type": "uint256"
        }
      ],
      "name": "getConfig",
      "outputs": [
        {
          "internalType": "bytes",
          "name": "",
          "type": "bytes"
        }
      ],
      "stateMutability": "view",
      "type": "function"
    },
    {
      "inputs": [
        {
          "internalType": "uint16",
          "name": "_remoteChainId",
          "type": "uint16"
        }
      ],
      "name": "getTrustedRemoteAddress",
      "outputs": [
        {
          "internalType": "bytes",
          "name": "",
          "type": "bytes"
        }
      ],
      "stateMutability": "view",
      "type": "function"
    },
    {
      "inputs": [
        {
          "internalType": "uint16",
          "name": "_srcChainId",
          "type": "uint16"
        },
        {
          "internalType": "bytes",
          "name": "_srcAddress",
          "type": "bytes"
        }
      ],
      "name": "isTrustedRemote",
      "outputs": [
        {
          "internalType": "bool",
          "name": "",
          "type": "bool"
        }
      ],
      "stateMutability": "view",
      "type": "function"
    },
    {
      "inputs": [],
      "name": "lzEndpoint",
      "outputs": [
        {
          "internalType": "contract ILayerZeroEndpoint",
          "name": "",
          "type": "address"
        }
      ],
      "stateMutability": "view",
      "type": "function"
    },
    {
      "inputs": [
        {
          "internalType": "uint16",
          "name": "_srcChainId",
          "type": "uint16"
        },
        {
          "internalType": "bytes",
          "name": "_srcAddress",
          "type": "bytes"
        },
        {
          "internalType": "uint64",
          "name": "_nonce",
          "type": "uint64"
        },
        {
          "internalType": "bytes",
          "name": "_payload",
          "type": "bytes"
        }
      ],
      "name": "lzReceive",
      "outputs": [],
      "stateMutability": "nonpayable",
      "type": "function"
    },
    {
      "inputs": [
        {
          "internalType": "uint16",
          "name": "",
          "type": "uint16"
        },
        {
          "internalType": "uint16",
          "name": "",
          "type": "uint16"
        }
      ],
      "name": "minDstGasLookup",
      "outputs": [
        {
          "internalType": "uint256",
          "name": "",
          "type": "uint256"
        }
      ],
      "stateMutability": "view",
      "type": "function"
    },
    {
      "inputs": [
        {
          "internalType": "uint16",
          "name": "_srcChainId",
          "type": "uint16"
        },
        {
          "internalType": "bytes",
          "name": "_srcAddress",
          "type": "bytes"
        },
        {
          "internalType": "uint64",
          "name": "_nonce",
          "type": "uint64"
        },
        {
          "internalType": "bytes",
          "name": "_payload",
          "type": "bytes"
        }
      ],
      "name": "nonblockingLzReceive",
      "outputs": [],
      "stateMutability": "nonpayable",
      "type": "function"
    },
    {
      "inputs": [],
      "name": "owner",
      "outputs": [
        {
          "internalType": "address",
          "name": "",
          "type": "address"
        }
      ],
      "stateMutability": "view",
      "type": "function"
    },
    {
      "inputs": [
        {
          "internalType": "uint16",
          "name": "",
          "type": "uint16"
        }
      ],
      "name": "payloadSizeLimitLookup",
      "outputs": [
        {
          "internalType": "uint256",
          "name": "",
          "type": "uint256"
        }
      ],
      "stateMutability": "view",
      "type": "function"
    },
    {
      "inputs": [
        {
          "internalType": "uint16",
          "name": "_dstChainId",
          "type": "uint16"
        },
        {
          "internalType": "uint256",
          "name": "_totalPings",
          "type": "uint256"
        }
      ],
      "name": "ping",
      "outputs": [],
      "stateMutability": "nonpayable",
      "type": "function"
    },
    {
      "inputs": [],
      "name": "precrime",
      "outputs": [
        {
          "internalType": "address",
          "name": "",
          "type": "address"
        }
      ],
      "stateMutability": "view",
      "type": "function"
    },
    {
      "inputs": [],
      "name": "renounceOwnership",
      "outputs": [],
      "stateMutability": "nonpayable",
      "type": "function"
    },
    {
      "inputs": [
        {
          "internalType": "uint16",
          "name": "_srcChainId",
          "type": "uint16"
        },
        {
          "internalType": "bytes",
          "name": "_srcAddress",
          "type": "bytes"
        },
        {
          "internalType": "uint64",
          "name": "_nonce",
          "type": "uint64"
        },
        {
          "internalType": "bytes",
          "name": "_payload",
          "type": "bytes"
        }
      ],
      "name": "retryMessage",
      "outputs": [],
      "stateMutability": "payable",
      "type": "function"
    },
    {
      "inputs": [
        {
          "internalType": "uint16",
          "name": "_version",
          "type": "uint16"
        },
        {
          "internalType": "uint16",
          "name": "_chainId",
          "type": "uint16"
        },
        {
          "internalType": "uint256",
          "name": "_configType",
          "type": "uint256"
        },
        {
          "internalType": "bytes",
          "name": "_config",
          "type": "bytes"
        }
      ],
      "name": "setConfig",
      "outputs": [],
      "stateMutability": "nonpayable",
      "type": "function"
    },
    {
      "inputs": [
        {
          "internalType": "uint16",
          "name": "_dstChainId",
          "type": "uint16"
        },
        {
          "internalType": "uint16",
          "name": "_packetType",
          "type": "uint16"
        },
        {
          "internalType": "uint256",
          "name": "_minGas",
          "type": "uint256"
        }
      ],
      "name": "setMinDstGas",
      "outputs": [],
      "stateMutability": "nonpayable",
      "type": "function"
    },
    {
      "inputs": [
        {
          "internalType": "uint16",
          "name": "_dstChainId",
          "type": "uint16"
        },
        {
          "internalType": "uint256",
          "name": "_size",
          "type": "uint256"
        }
      ],
      "name": "setPayloadSizeLimit",
      "outputs": [],
      "stateMutability": "nonpayable",
      "type": "function"
    },
    {
      "inputs": [
        {
          "internalType": "address",
          "name": "_precrime",
          "type": "address"
        }
      ],
      "name": "setPrecrime",
      "outputs": [],
      "stateMutability": "nonpayable",
      "type": "function"
    },
    {
      "inputs": [
        {
          "internalType": "uint16",
          "name": "_version",
          "type": "uint16"
        }
      ],
      "name": "setReceiveVersion",
      "outputs": [],
      "stateMutability": "nonpayable",
      "type": "function"
    },
    {
      "inputs": [
        {
          "internalType": "uint16",
          "name": "_version",
          "type": "uint16"
        }
      ],
      "name": "setSendVersion",
      "outputs": [],
      "stateMutability": "nonpayable",
      "type": "function"
    },
    {
      "inputs": [
        {
          "internalType": "uint16",
          "name": "_remoteChainId",
          "type": "uint16"
        },
        {
          "internalType": "bytes",
          "name": "_path",
          "type": "bytes"
        }
      ],
      "name": "setTrustedRemote",
      "outputs": [],
      "stateMutability": "nonpayable",
      "type": "function"
    },
    {
      "inputs": [
        {
          "internalType": "uint16",
          "name": "_remoteChainId",
          "type": "uint16"
        },
        {
          "internalType": "bytes",
          "name": "_remoteAddress",
          "type": "bytes"
        }
      ],
      "name": "setTrustedRemoteAddress",
      "outputs": [],
      "stateMutability": "nonpayable",
      "type": "function"
    },
    {
      "inputs": [
        {
          "internalType": "address",
          "name": "newOwner",
          "type": "address"
        }
      ],
      "name": "transferOwnership",
      "outputs": [],
      "stateMutability": "nonpayable",
      "type": "function"
    },
    {
      "inputs": [
        {
          "internalType": "uint16",
          "name": "",
          "type": "uint16"
        }
      ],
      "name": "trustedRemoteLookup",
      "outputs": [
        {
          "internalType": "bytes",
          "name": "",
          "type": "bytes"
        }
      ],
      "stateMutability": "view",
      "type": "function"
    },
    {
      "stateMutability": "payable",
      "type": "receive"
    }
  ],
  "bytecode": {
    "object": "0x60a06040523480156200001157600080fd5b506040516200235c3803806200235c8339810160408190526200003491620000a6565b8080620000413362000056565b6001600160a01b031660805250620000d89050565b600080546001600160a01b038381166001600160a01b0319831681178455604051919092169283917f8be0079c531659141344cd1fd0a4f28419497f9722a3daafe3b4186f6b6457e09190a35050565b600060208284031215620000b957600080fd5b81516001600160a01b0381168114620000d157600080fd5b9392505050565b608051612237620001256000396000818161042f0152818161055d015281816107ac015281816108540152818161097601528181610d910152818161118b01526117a901526122376000f3fe6080604052600436106101845760003560e01c8063950c8a74116100d1578063c44618341161008a578063df2a5b3b11610064578063df2a5b3b146104da578063eb8d72b7146104fa578063f2fde38b1461051a578063f5ecbdbc1461053a57600080fd5b8063c446183414610491578063cbed8b9c146104a7578063d1deba1f146104c757600080fd5b8063950c8a74146103bd5780639f38369a146103dd578063a6c3d165146103fd578063b353aaa71461041d578063baf3292d14610451578063bf148da11461047157600080fd5b806342d65a8d1161013e578063715018a611610118578063715018a6146103115780637533d788146103265780638cfd8f5c146103535780638da5cb5b1461038b57600080fd5b806342d65a8d146102825780635b8c41e6146102a257806366ad5c8a146102f157600080fd5b80621d35671461019057806307e0db17146101b25780630df37483146101d257806310ddb137146101f25780633d8b38f6146102125780633f1f4fa41461024757600080fd5b3661018b57005b600080fd5b34801561019c57600080fd5b506101b06101ab366004611911565b61055a565b005b3480156101be57600080fd5b506101b06101cd3660046119a4565b61078b565b3480156101de57600080fd5b506101b06101ed3660046119bf565b610814565b3480156101fe57600080fd5b506101b061020d3660046119a4565b610833565b34801561021e57600080fd5b5061023261022d3660046119e9565b61088b565b60405190151581526020015b60405180910390f35b34801561025357600080fd5b506102746102623660046119a4565b60036020526000908152604090205481565b60405190815260200161023e565b34801561028e57600080fd5b506101b061029d3660046119e9565b610957565b3480156102ae57600080fd5b506102746102bd366004611aa8565b6005602090815260009384526040808520845180860184018051928152908401958401959095209452929052825290205481565b3480156102fd57600080fd5b506101b061030c366004611911565b6109dd565b34801561031d57600080fd5b506101b0610ab9565b34801561033257600080fd5b506103466103413660046119a4565b610acd565b60405161023e9190611b98565b34801561035f57600080fd5b5061027461036e366004611bab565b600260209081526000928352604080842090915290825290205481565b34801561039757600080fd5b506000546001600160a01b03165b6040516001600160a01b03909116815260200161023e565b3480156103c957600080fd5b506004546103a5906001600160a01b031681565b3480156103e957600080fd5b506103466103f83660046119a4565b610b67565b34801561040957600080fd5b506101b06104183660046119e9565b610c7d565b34801561042957600080fd5b506103a57f000000000000000000000000000000000000000000000000000000000000000081565b34801561045d57600080fd5b506101b061046c366004611bf5565b610d06565b34801561047d57600080fd5b506101b061048c3660046119bf565b610d62565b34801561049d57600080fd5b5061027461271081565b3480156104b357600080fd5b506101b06104c2366004611c10565b610d72565b6101b06104d5366004611911565b610e07565b3480156104e657600080fd5b506101b06104f5366004611c7e565b61101d565b34801561050657600080fd5b506101b06105153660046119e9565b611087565b34801561052657600080fd5b506101b0610535366004611bf5565b6110e1565b34801561054657600080fd5b50610346610555366004611cba565b61115a565b337f00000000000000000000000000000000000000000000000000000000000000006001600160a01b0316146105d75760405162461bcd60e51b815260206004820152601e60248201527f4c7a4170703a20696e76616c696420656e64706f696e742063616c6c6572000060448201526064015b60405180910390fd5b61ffff8616600090815260016020526040812080546105f590611d05565b80601f016020809104026020016040519081016040528092919081815260200182805461062190611d05565b801561066e5780601f106106435761010080835404028352916020019161066e565b820191906000526020600020905b81548152906001019060200180831161065157829003601f168201915b50505050509050805186869050148015610689575060008151115b80156106b15750805160208201206040516106a79088908890611d3f565b6040518091039020145b61070c5760405162461bcd60e51b815260206004820152602660248201527f4c7a4170703a20696e76616c696420736f757263652073656e64696e6720636f6044820152651b9d1c9858dd60d21b60648201526084016105ce565b6107828787878080601f01602080910402602001604051908101604052809392919081815260200183838082843760009201919091525050604080516020601f8a018190048102820181019092528881528a93509150889088908190840183828082843760009201919091525061120b92505050565b50505050505050565b610793611284565b6040516307e0db1760e01b815261ffff821660048201527f00000000000000000000000000000000000000000000000000000000000000006001600160a01b0316906307e0db17906024015b600060405180830381600087803b1580156107f957600080fd5b505af115801561080d573d6000803e3d6000fd5b5050505050565b61081c611284565b61ffff909116600090815260036020526040902055565b61083b611284565b6040516310ddb13760e01b815261ffff821660048201527f00000000000000000000000000000000000000000000000000000000000000006001600160a01b0316906310ddb137906024016107df565b61ffff8316600090815260016020526040812080548291906108ac90611d05565b80601f01602080910402602001604051908101604052809291908181526020018280546108d890611d05565b80156109255780601f106108fa57610100808354040283529160200191610925565b820191906000526020600020905b81548152906001019060200180831161090857829003601f168201915b50505050509050838360405161093c929190611d3f565b60405180910390208180519060200120149150509392505050565b61095f611284565b6040516342d65a8d60e01b81526001600160a01b037f000000000000000000000000000000000000000000000000000000000000000016906342d65a8d906109af90869086908690600401611d78565b600060405180830381600087803b1580156109c957600080fd5b505af1158015610782573d6000803e3d6000fd5b333014610a3b5760405162461bcd60e51b815260206004820152602660248201527f4e6f6e626c6f636b696e674c7a4170703a2063616c6c6572206d7573742062656044820152650204c7a4170760d41b60648201526084016105ce565b610ab18686868080601f01602080910402602001604051908101604052809392919081815260200183838082843760009201919091525050604080516020601f8901819004810282018101909252878152899350915087908790819084018382808284376000920191909152506112de92505050565b505050505050565b610ac1611284565b610acb6000611351565b565b60016020526000908152604090208054610ae690611d05565b80601f0160208091040260200160405190810160405280929190818152602001828054610b1290611d05565b8015610b5f5780601f10610b3457610100808354040283529160200191610b5f565b820191906000526020600020905b815481529060010190602001808311610b4257829003601f168201915b505050505081565b61ffff8116600090815260016020526040812080546060929190610b8a90611d05565b80601f0160208091040260200160405190810160405280929190818152602001828054610bb690611d05565b8015610c035780601f10610bd857610100808354040283529160200191610c03565b820191906000526020600020905b815481529060010190602001808311610be657829003601f168201915b505050505090508051600003610c5b5760405162461bcd60e51b815260206004820152601d60248201527f4c7a4170703a206e6f20747275737465642070617468207265636f726400000060448201526064016105ce565b610c76600060148351610c6e9190611dac565b8391906113a1565b9392505050565b610c85611284565b818130604051602001610c9a93929190611dc5565b60408051601f1981840301815291815261ffff8516600090815260016020522090610cc59082611e33565b507f8c0400cfe2d1199b1a725c78960bcc2a344d869b80590d0f2bd005db15a572ce838383604051610cf993929190611d78565b60405180910390a1505050565b610d0e611284565b600480546001600160a01b0319166001600160a01b0383169081179091556040519081527f5db758e995a17ec1ad84bdef7e8c3293a0bd6179bcce400dff5d4c3d87db726b9060200160405180910390a150565b610d6e826000836114ae565b5050565b610d7a611284565b6040516332fb62e760e21b81526001600160a01b037f0000000000000000000000000000000000000000000000000000000000000000169063cbed8b9c90610dce9088908890889088908890600401611ef2565b600060405180830381600087803b158015610de857600080fd5b505af1158015610dfc573d6000803e3d6000fd5b505050505050505050565b61ffff86166000908152600560205260408082209051610e2a9088908890611d3f565b90815260408051602092819003830190206001600160401b03871660009081529252902054905080610eaa5760405162461bcd60e51b815260206004820152602360248201527f4e6f6e626c6f636b696e674c7a4170703a206e6f2073746f726564206d65737360448201526261676560e81b60648201526084016105ce565b808383604051610ebb929190611d3f565b604051809103902014610f1a5760405162461bcd60e51b815260206004820152602160248201527f4e6f6e626c6f636b696e674c7a4170703a20696e76616c6964207061796c6f616044820152601960fa1b60648201526084016105ce565b61ffff87166000908152600560205260408082209051610f3d9089908990611d3f565b90815260408051602092819003830181206001600160401b038916600090815290845282902093909355601f88018290048202830182019052868252610fd5918991899089908190840183828082843760009201919091525050604080516020601f8a018190048102820181019092528881528a9350915088908890819084018382808284376000920191909152506112de92505050565b7fc264d91f3adc5588250e1551f547752ca0cfa8f6b530d243b9f9f4cab10ea8e5878787878560405161100c959493929190611f2b565b60405180910390a150505050505050565b611025611284565b61ffff83811660008181526002602090815260408083209487168084529482529182902085905581519283528201929092529081018290527f9d5c7c0b934da8fefa9c7760c98383778a12dfbfc0c3b3106518f43fb9508ac090606001610cf9565b61108f611284565b61ffff831660009081526001602052604090206110ad828483611f66565b507ffa41487ad5d6728f0b19276fa1eddc16558578f5109fc39d2dc33c3230470dab838383604051610cf993929190611d78565b6110e9611284565b6001600160a01b03811661114e5760405162461bcd60e51b815260206004820152602660248201527f4f776e61626c653a206e6577206f776e657220697320746865207a65726f206160448201526564647265737360d01b60648201526084016105ce565b61115781611351565b50565b604051633d7b2f6f60e21b815261ffff808616600483015284166024820152306044820152606481018290526060907f00000000000000000000000000000000000000000000000000000000000000006001600160a01b03169063f5ecbdbc90608401600060405180830381865afa1580156111da573d6000803e3d6000fd5b505050506040513d6000823e601f3d908101601f191682016040526112029190810190612025565b95945050505050565b60008061126e5a60966366ad5c8a60e01b898989896040516024016112339493929190612092565b60408051601f198184030181529190526020810180516001600160e01b03166001600160e01b03199093169290921790915230929190611559565b9150915081610ab157610ab186868686856115e3565b6000546001600160a01b03163314610acb5760405162461bcd60e51b815260206004820181905260248201527f4f776e61626c653a2063616c6c6572206973206e6f7420746865206f776e657260448201526064016105ce565b600080828060200190518101906112f591906120d0565b9150915081611303906120f4565b91507f48257dc961b6f792c2b78a080dacfed693b660960a702de21cee364e20270e2f8260405161133691815260200190565b60405180910390a180821015610ab157610ab18683836114ae565b600080546001600160a01b038381166001600160a01b0319831681178455604051919092169283917f8be0079c531659141344cd1fd0a4f28419497f9722a3daafe3b4186f6b6457e09190a35050565b6060816113af81601f61210d565b10156113ee5760405162461bcd60e51b815260206004820152600e60248201526d736c6963655f6f766572666c6f7760901b60448201526064016105ce565b6113f8828461210d565b8451101561143c5760405162461bcd60e51b8152602060048201526011602482015270736c6963655f6f75744f66426f756e647360781b60448201526064016105ce565b60608215801561145b57604051915060008252602082016040526114a5565b6040519150601f8416801560200281840101858101878315602002848b0101015b8183101561149457805183526020928301920161147c565b5050858452601f01601f1916604052505b50949350505050565b600047116114fe5760405162461bcd60e51b815260206004820152601f60248201527f5468697320636f6e74726163742072616e206f7574206f66206d6f6e65792e0060448201526064016105ce565b6040805160208101849052808201839052815180820383018152606082018352600160f01b60808301526205573060828084018290528451808503909101815260a29093019093529160019161078287853060008547611680565b6000606060008060008661ffff166001600160401b0381111561157e5761157e611a3b565b6040519080825280601f01601f1916602001820160405280156115a8576020820181803683370190505b50905060008087516020890160008d8df191503d9250868311156115ca578692505b828152826000602083013e909890975095505050505050565b8180519060200120600560008761ffff1661ffff168152602001908152602001600020856040516116149190612120565b9081526040805191829003602090810183206001600160401b0388166000908152915220919091557fe183f33de2837795525b4792ca4cd60535bd77c53b7e7030060bfcf5734d6b0c90611671908790879087908790879061213c565b60405180910390a15050505050565b61ffff86166000908152600160205260408120805461169e90611d05565b80601f01602080910402602001604051908101604052809291908181526020018280546116ca90611d05565b80156117175780601f106116ec57610100808354040283529160200191611717565b820191906000526020600020905b8154815290600101906020018083116116fa57829003601f168201915b5050505050905080516000036117885760405162461bcd60e51b815260206004820152603060248201527f4c7a4170703a2064657374696e6174696f6e20636861696e206973206e6f742060448201526f61207472757374656420736f7572636560801b60648201526084016105ce565b611793878751611825565b60405162c5803160e81b81526001600160a01b037f0000000000000000000000000000000000000000000000000000000000000000169063c58031009084906117ea908b9086908c908c908c908c9060040161219a565b6000604051808303818588803b15801561180357600080fd5b505af1158015611817573d6000803e3d6000fd5b505050505050505050505050565b61ffff82166000908152600360205260408120549081900361184657506127105b808211156118965760405162461bcd60e51b815260206004820181905260248201527f4c7a4170703a207061796c6f61642073697a6520697320746f6f206c6172676560448201526064016105ce565b505050565b803561ffff811681146118ad57600080fd5b919050565b60008083601f8401126118c457600080fd5b5081356001600160401b038111156118db57600080fd5b6020830191508360208285010111156118f357600080fd5b9250929050565b80356001600160401b03811681146118ad57600080fd5b6000806000806000806080878903121561192a57600080fd5b6119338761189b565b955060208701356001600160401b038082111561194f57600080fd5b61195b8a838b016118b2565b909750955085915061196f60408a016118fa565b9450606089013591508082111561198557600080fd5b5061199289828a016118b2565b979a9699509497509295939492505050565b6000602082840312156119b657600080fd5b610c768261189b565b600080604083850312156119d257600080fd5b6119db8361189b565b946020939093013593505050565b6000806000604084860312156119fe57600080fd5b611a078461189b565b925060208401356001600160401b03811115611a2257600080fd5b611a2e868287016118b2565b9497909650939450505050565b634e487b7160e01b600052604160045260246000fd5b604051601f8201601f191681016001600160401b0381118282101715611a7957611a79611a3b565b604052919050565b60006001600160401b03821115611a9a57611a9a611a3b565b50601f01601f191660200190565b600080600060608486031215611abd57600080fd5b611ac68461189b565b925060208401356001600160401b03811115611ae157600080fd5b8401601f81018613611af257600080fd5b8035611b05611b0082611a81565b611a51565b818152876020838501011115611b1a57600080fd5b81602084016020830137600060208383010152809450505050611b3f604085016118fa565b90509250925092565b60005b83811015611b63578181015183820152602001611b4b565b50506000910152565b60008151808452611b84816020860160208601611b48565b601f01601f19169290920160200192915050565b602081526000610c766020830184611b6c565b60008060408385031215611bbe57600080fd5b611bc78361189b565b9150611bd56020840161189b565b90509250929050565b80356001600160a01b03811681146118ad57600080fd5b600060208284031215611c0757600080fd5b610c7682611bde565b600080600080600060808688031215611c2857600080fd5b611c318661189b565b9450611c3f6020870161189b565b93506040860135925060608601356001600160401b03811115611c6157600080fd5b611c6d888289016118b2565b969995985093965092949392505050565b600080600060608486031215611c9357600080fd5b611c9c8461189b565b9250611caa6020850161189b565b9150604084013590509250925092565b60008060008060808587031215611cd057600080fd5b611cd98561189b565b9350611ce76020860161189b565b9250611cf560408601611bde565b9396929550929360600135925050565b600181811c90821680611d1957607f821691505b602082108103611d3957634e487b7160e01b600052602260045260246000fd5b50919050565b8183823760009101908152919050565b81835281816020850137506000828201602090810191909152601f909101601f19169091010190565b61ffff84168152604060208201526000611202604083018486611d4f565b634e487b7160e01b600052601160045260246000fd5b81810381811115611dbf57611dbf611d96565b92915050565b8284823760609190911b6bffffffffffffffffffffffff19169101908152601401919050565b601f821115611896576000816000526020600020601f850160051c81016020861015611e145750805b601f850160051c820191505b81811015610ab157828155600101611e20565b81516001600160401b03811115611e4c57611e4c611a3b565b611e6081611e5a8454611d05565b84611deb565b602080601f831160018114611e955760008415611e7d5750858301515b600019600386901b1c1916600185901b178555610ab1565b600085815260208120601f198616915b82811015611ec457888601518255948401946001909101908401611ea5565b5085821015611ee25787850151600019600388901b60f8161c191681555b5050505050600190811b01905550565b600061ffff808816835280871660208401525084604083015260806060830152611f20608083018486611d4f565b979650505050505050565b61ffff86168152608060208201526000611f49608083018688611d4f565b6001600160401b0394909416604083015250606001529392505050565b6001600160401b03831115611f7d57611f7d611a3b565b611f9183611f8b8354611d05565b83611deb565b6000601f841160018114611fc55760008515611fad5750838201355b600019600387901b1c1916600186901b17835561080d565b600083815260209020601f19861690835b82811015611ff65786850135825560209485019460019092019101611fd6565b50868210156120135760001960f88860031b161c19848701351681555b505060018560011b0183555050505050565b60006020828403121561203757600080fd5b81516001600160401b0381111561204d57600080fd5b8201601f8101841361205e57600080fd5b805161206c611b0082611a81565b81815285602083850101111561208157600080fd5b611202826020830160208601611b48565b61ffff851681526080602082015260006120af6080830186611b6c565b6001600160401b03851660408401528281036060840152611f208185611b6c565b600080604083850312156120e357600080fd5b505080516020909101519092909150565b60006001820161210657612106611d96565b5060010190565b80820180821115611dbf57611dbf611d96565b60008251612132818460208701611b48565b9190910192915050565b61ffff8616815260a06020820152600061215960a0830187611b6c565b6001600160401b0386166040840152828103606084015261217a8186611b6c565b9050828103608084015261218e8185611b6c565b98975050505050505050565b61ffff8716815260c0602082015260006121b760c0830188611b6c565b82810360408401526121c98188611b6c565b6001600160a01b0387811660608601528616608085015283810360a085015290506121f48185611b6c565b999850505050505050505056fea264697066735822122060ac26272fd27a813d1caab99b3521e97e083f8283b0831b9b3054153894dcec64736f6c63430008160033",
    "linkReferences": {}
  },
  "methodIdentifiers": {
    "DEFAULT_PAYLOAD_SIZE_LIMIT()": "c4461834",
    "failedMessages(uint16,bytes,uint64)": "5b8c41e6",
    "forceResumeReceive(uint16,bytes)": "42d65a8d",
    "getConfig(uint16,uint16,address,uint256)": "f5ecbdbc",
    "getTrustedRemoteAddress(uint16)": "9f38369a",
    "isTrustedRemote(uint16,bytes)": "3d8b38f6",
    "lzEndpoint()": "b353aaa7",
    "lzReceive(uint16,bytes,uint64,bytes)": "001d3567",
    "minDstGasLookup(uint16,uint16)": "8cfd8f5c",
    "nonblockingLzReceive(uint16,bytes,uint64,bytes)": "66ad5c8a",
    "owner()": "8da5cb5b",
    "payloadSizeLimitLookup(uint16)": "3f1f4fa4",
    "ping(uint16,uint256)": "bf148da1",
    "precrime()": "950c8a74",
    "renounceOwnership()": "715018a6",
    "retryMessage(uint16,bytes,uint64,bytes)": "d1deba1f",
    "setConfig(uint16,uint16,uint256,bytes)": "cbed8b9c",
    "setMinDstGas(uint16,uint16,uint256)": "df2a5b3b",
    "setPayloadSizeLimit(uint16,uint256)": "0df37483",
    "setPrecrime(address)": "baf3292d",
    "setReceiveVersion(uint16)": "10ddb137",
    "setSendVersion(uint16)": "07e0db17",
    "setTrustedRemote(uint16,bytes)": "eb8d72b7",
    "setTrustedRemoteAddress(uint16,bytes)": "a6c3d165",
    "transferOwnership(address)": "f2fde38b",
    "trustedRemoteLookup(uint16)": "7533d788"
  },
  "id": 2
}