{
  "abi": [
    {
      "inputs": [
        {
          "internalType": "string",
          "name": "_uri",
          "type": "string"
        },
        {
          "internalType": "address",
          "name": "_lzEndpoint",
          "type": "address"
        }
      ],
      "stateMutability": "nonpayable",
      "type": "constructor"
    },
    {
      "anonymous": false,
      "inputs": [
        {
          "indexed": true,
          "internalType": "address",
          "name": "account",
          "type": "address"
        },
        {
          "indexed": true,
          "internalType": "address",
          "name": "operator",
          "type": "address"
        },
        {
          "indexed": false,
          "internalType": "bool",
          "name": "approved",
          "type": "bool"
        }
      ],
      "name": "ApprovalForAll",
      "type": "event"
    },
    {
      "anonymous": false,
      "inputs": [
        {
          "indexed": false,
          "internalType": "uint16",
          "name": "_srcChainId",
          "type": "uint16"
        },
        {
          "indexed": false,
          "internalType": "bytes",
          "name": "_srcAddress",
          "type": "bytes"
        },
        {
          "indexed": false,
          "internalType": "uint64",
          "name": "_nonce",
          "type": "uint64"
        },
        {
          "indexed": false,
          "internalType": "bytes",
          "name": "_payload",
          "type": "bytes"
        },
        {
          "indexed": false,
          "internalType": "bytes",
          "name": "_reason",
          "type": "bytes"
        }
      ],
      "name": "MessageFailed",
      "type": "event"
    },
    {
      "anonymous": false,
      "inputs": [
        {
          "indexed": true,
          "internalType": "address",
          "name": "previousOwner",
          "type": "address"
        },
        {
          "indexed": true,
          "internalType": "address",
          "name": "newOwner",
          "type": "address"
        }
      ],
      "name": "OwnershipTransferred",
      "type": "event"
    },
    {
      "anonymous": false,
      "inputs": [
        {
          "indexed": true,
          "internalType": "uint16",
          "name": "_srcChainId",
          "type": "uint16"
        },
        {
          "indexed": true,
          "internalType": "bytes",
          "name": "_srcAddress",
          "type": "bytes"
        },
        {
          "indexed": true,
          "internalType": "address",
          "name": "_toAddress",
          "type": "address"
        },
        {
          "indexed": false,
          "internalType": "uint256[]",
          "name": "_tokenIds",
          "type": "uint256[]"
        },
        {
          "indexed": false,
          "internalType": "uint256[]",
          "name": "_amounts",
          "type": "uint256[]"
        }
      ],
      "name": "ReceiveBatchFromChain",
      "type": "event"
    },
    {
      "anonymous": false,
      "inputs": [
        {
          "indexed": true,
          "internalType": "uint16",
          "name": "_srcChainId",
          "type": "uint16"
        },
        {
          "indexed": true,
          "internalType": "bytes",
          "name": "_srcAddress",
          "type": "bytes"
        },
        {
          "indexed": true,
          "internalType": "address",
          "name": "_toAddress",
          "type": "address"
        },
        {
          "indexed": false,
          "internalType": "uint256",
          "name": "_tokenId",
          "type": "uint256"
        },
        {
          "indexed": false,
          "internalType": "uint256",
          "name": "_amount",
          "type": "uint256"
        }
      ],
      "name": "ReceiveFromChain",
      "type": "event"
    },
    {
      "anonymous": false,
      "inputs": [
        {
          "indexed": false,
          "internalType": "uint16",
          "name": "_srcChainId",
          "type": "uint16"
        },
        {
          "indexed": false,
          "internalType": "bytes",
          "name": "_srcAddress",
          "type": "bytes"
        },
        {
          "indexed": false,
          "internalType": "uint64",
          "name": "_nonce",
          "type": "uint64"
        },
        {
          "indexed": false,
          "internalType": "bytes32",
          "name": "_payloadHash",
          "type": "bytes32"
        }
      ],
      "name": "RetryMessageSuccess",
      "type": "event"
    },
    {
      "anonymous": false,
      "inputs": [
        {
          "indexed": true,
          "internalType": "uint16",
          "name": "_dstChainId",
          "type": "uint16"
        },
        {
          "indexed": true,
          "internalType": "address",
          "name": "_from",
          "type": "address"
        },
        {
          "indexed": true,
          "internalType": "bytes",
          "name": "_toAddress",
          "type": "bytes"
        },
        {
          "indexed": false,
          "internalType": "uint256[]",
          "name": "_tokenIds",
          "type": "uint256[]"
        },
        {
          "indexed": false,
          "internalType": "uint256[]",
          "name": "_amounts",
          "type": "uint256[]"
        }
      ],
      "name": "SendBatchToChain",
      "type": "event"
    },
    {
      "anonymous": false,
      "inputs": [
        {
          "indexed": true,
          "internalType": "uint16",
          "name": "_dstChainId",
          "type": "uint16"
        },
        {
          "indexed": true,
          "internalType": "address",
          "name": "_from",
          "type": "address"
        },
        {
          "indexed": true,
          "internalType": "bytes",
          "name": "_toAddress",
          "type": "bytes"
        },
        {
          "indexed": false,
          "internalType": "uint256",
          "name": "_tokenId",
          "type": "uint256"
        },
        {
          "indexed": false,
          "internalType": "uint256",
          "name": "_amount",
          "type": "uint256"
        }
      ],
      "name": "SendToChain",
      "type": "event"
    },
    {
      "anonymous": false,
      "inputs": [
        {
          "indexed": false,
          "internalType": "uint16",
          "name": "_dstChainId",
          "type": "uint16"
        },
        {
          "indexed": false,
          "internalType": "uint16",
          "name": "_type",
          "type": "uint16"
        },
        {
          "indexed": false,
          "internalType": "uint256",
          "name": "_minDstGas",
          "type": "uint256"
        }
      ],
      "name": "SetMinDstGas",
      "type": "event"
    },
    {
      "anonymous": false,
      "inputs": [
        {
          "indexed": false,
          "internalType": "address",
          "name": "precrime",
          "type": "address"
        }
      ],
      "name": "SetPrecrime",
      "type": "event"
    },
    {
      "anonymous": false,
      "inputs": [
        {
          "indexed": false,
          "internalType": "uint16",
          "name": "_remoteChainId",
          "type": "uint16"
        },
        {
          "indexed": false,
          "internalType": "bytes",
          "name": "_path",
          "type": "bytes"
        }
      ],
      "name": "SetTrustedRemote",
      "type": "event"
    },
    {
      "anonymous": false,
      "inputs": [
        {
          "indexed": false,
          "internalType": "uint16",
          "name": "_remoteChainId",
          "type": "uint16"
        },
        {
          "indexed": false,
          "internalType": "bytes",
          "name": "_remoteAddress",
          "type": "bytes"
        }
      ],
      "name": "SetTrustedRemoteAddress",
      "type": "event"
    },
    {
      "anonymous": false,
      "inputs": [
        {
          "indexed": false,
          "internalType": "bool",
          "name": "_useCustomAdapterParams",
          "type": "bool"
        }
      ],
      "name": "SetUseCustomAdapterParams",
      "type": "event"
    },
    {
      "anonymous": false,
      "inputs": [
        {
          "indexed": true,
          "internalType": "address",
          "name": "operator",
          "type": "address"
        },
        {
          "indexed": true,
          "internalType": "address",
          "name": "from",
          "type": "address"
        },
        {
          "indexed": true,
          "internalType": "address",
          "name": "to",
          "type": "address"
        },
        {
          "indexed": false,
          "internalType": "uint256[]",
          "name": "ids",
          "type": "uint256[]"
        },
        {
          "indexed": false,
          "internalType": "uint256[]",
          "name": "values",
          "type": "uint256[]"
        }
      ],
      "name": "TransferBatch",
      "type": "event"
    },
    {
      "anonymous": false,
      "inputs": [
        {
          "indexed": true,
          "internalType": "address",
          "name": "operator",
          "type": "address"
        },
        {
          "indexed": true,
          "internalType": "address",
          "name": "from",
          "type": "address"
        },
        {
          "indexed": true,
          "internalType": "address",
          "name": "to",
          "type": "address"
        },
        {
          "indexed": false,
          "internalType": "uint256",
          "name": "id",
          "type": "uint256"
        },
        {
          "indexed": false,
          "internalType": "uint256",
          "name": "value",
          "type": "uint256"
        }
      ],
      "name": "TransferSingle",
      "type": "event"
    },
    {
      "anonymous": false,
      "inputs": [
        {
          "indexed": false,
          "internalType": "string",
          "name": "value",
          "type": "string"
        },
        {
          "indexed": true,
          "internalType": "uint256",
          "name": "id",
          "type": "uint256"
        }
      ],
      "name": "URI",
      "type": "event"
    },
    {
      "inputs": [],
      "name": "DEFAULT_PAYLOAD_SIZE_LIMIT",
      "outputs": [
        {
          "internalType": "uint256",
          "name": "",
          "type": "uint256"
        }
      ],
      "stateMutability": "view",
      "type": "function"
    },
    {
      "inputs": [],
      "name": "FUNCTION_TYPE_SEND",
      "outputs": [
        {
          "internalType": "uint16",
          "name": "",
          "type": "uint16"
        }
      ],
      "stateMutability": "view",
      "type": "function"
    },
    {
      "inputs": [],
      "name": "FUNCTION_TYPE_SEND_BATCH",
      "outputs": [
        {
          "internalType": "uint16",
          "name": "",
          "type": "uint16"
        }
      ],
      "stateMutability": "view",
      "type": "function"
    },
    {
      "inputs": [],
      "name": "NO_EXTRA_GAS",
      "outputs": [
        {
          "internalType": "uint256",
          "name": "",
          "type": "uint256"
        }
      ],
      "stateMutability": "view",
      "type": "function"
    },
    {
      "inputs": [
        {
          "internalType": "address",
          "name": "account",
          "type": "address"
        },
        {
          "internalType": "uint256",
          "name": "id",
          "type": "uint256"
        }
      ],
      "name": "balanceOf",
      "outputs": [
        {
          "internalType": "uint256",
          "name": "",
          "type": "uint256"
        }
      ],
      "stateMutability": "view",
      "type": "function"
    },
    {
      "inputs": [
        {
          "internalType": "address[]",
          "name": "accounts",
          "type": "address[]"
        },
        {
          "internalType": "uint256[]",
          "name": "ids",
          "type": "uint256[]"
        }
      ],
      "name": "balanceOfBatch",
      "outputs": [
        {
          "internalType": "uint256[]",
          "name": "",
          "type": "uint256[]"
        }
      ],
      "stateMutability": "view",
      "type": "function"
    },
    {
      "inputs": [
        {
          "internalType": "uint16",
          "name": "_dstChainId",
          "type": "uint16"
        },
        {
          "internalType": "bytes",
          "name": "_toAddress",
          "type": "bytes"
        },
        {
          "internalType": "uint256[]",
          "name": "_tokenIds",
          "type": "uint256[]"
        },
        {
          "internalType": "uint256[]",
          "name": "_amounts",
          "type": "uint256[]"
        },
        {
          "internalType": "bool",
          "name": "_useZro",
          "type": "bool"
        },
        {
          "internalType": "bytes",
          "name": "_adapterParams",
          "type": "bytes"
        }
      ],
      "name": "estimateSendBatchFee",
      "outputs": [
        {
          "internalType": "uint256",
          "name": "nativeFee",
          "type": "uint256"
        },
        {
          "internalType": "uint256",
          "name": "zroFee",
          "type": "uint256"
        }
      ],
      "stateMutability": "view",
      "type": "function"
    },
    {
      "inputs": [
        {
          "internalType": "uint16",
          "name": "_dstChainId",
          "type": "uint16"
        },
        {
          "internalType": "bytes",
          "name": "_toAddress",
          "type": "bytes"
        },
        {
          "internalType": "uint256",
          "name": "_tokenId",
          "type": "uint256"
        },
        {
          "internalType": "uint256",
          "name": "_amount",
          "type": "uint256"
        },
        {
          "internalType": "bool",
          "name": "_useZro",
          "type": "bool"
        },
        {
          "internalType": "bytes",
          "name": "_adapterParams",
          "type": "bytes"
        }
      ],
      "name": "estimateSendFee",
      "outputs": [
        {
          "internalType": "uint256",
          "name": "nativeFee",
          "type": "uint256"
        },
        {
          "internalType": "uint256",
          "name": "zroFee",
          "type": "uint256"
        }
      ],
      "stateMutability": "view",
      "type": "function"
    },
    {
      "inputs": [
        {
          "internalType": "uint16",
          "name": "",
          "type": "uint16"
        },
        {
          "internalType": "bytes",
          "name": "",
          "type": "bytes"
        },
        {
          "internalType": "uint64",
          "name": "",
          "type": "uint64"
        }
      ],
      "name": "failedMessages",
      "outputs": [
        {
          "internalType": "bytes32",
          "name": "",
          "type": "bytes32"
        }
      ],
      "stateMutability": "view",
      "type": "function"
    },
    {
      "inputs": [
        {
          "internalType": "uint16",
          "name": "_srcChainId",
          "type": "uint16"
        },
        {
          "internalType": "bytes",
          "name": "_srcAddress",
          "type": "bytes"
        }
      ],
      "name": "forceResumeReceive",
      "outputs": [],
      "stateMutability": "nonpayable",
      "type": "function"
    },
    {
      "inputs": [
        {
          "internalType": "uint16",
          "name": "_version",
          "type": "uint16"
        },
        {
          "internalType": "uint16",
          "name": "_chainId",
          "type": "uint16"
        },
        {
          "internalType": "address",
          "name": "",
          "type": "address"
        },
        {
          "internalType": "uint256",
          "name": "_configType",
          "type": "uint256"
        }
      ],
      "name": "getConfig",
      "outputs": [
        {
          "internalType": "bytes",
          "name": "",
          "type": "bytes"
        }
      ],
      "stateMutability": "view",
      "type": "function"
    },
    {
      "inputs": [
        {
          "internalType": "uint16",
          "name": "_remoteChainId",
          "type": "uint16"
        }
      ],
      "name": "getTrustedRemoteAddress",
      "outputs": [
        {
          "internalType": "bytes",
          "name": "",
          "type": "bytes"
        }
      ],
      "stateMutability": "view",
      "type": "function"
    },
    {
      "inputs": [
        {
          "internalType": "address",
          "name": "account",
          "type": "address"
        },
        {
          "internalType": "address",
          "name": "operator",
          "type": "address"
        }
      ],
      "name": "isApprovedForAll",
      "outputs": [
        {
          "internalType": "bool",
          "name": "",
          "type": "bool"
        }
      ],
      "stateMutability": "view",
      "type": "function"
    },
    {
      "inputs": [
        {
          "internalType": "uint16",
          "name": "_srcChainId",
          "type": "uint16"
        },
        {
          "internalType": "bytes",
          "name": "_srcAddress",
          "type": "bytes"
        }
      ],
      "name": "isTrustedRemote",
      "outputs": [
        {
          "internalType": "bool",
          "name": "",
          "type": "bool"
        }
      ],
      "stateMutability": "view",
      "type": "function"
    },
    {
      "inputs": [],
      "name": "lzEndpoint",
      "outputs": [
        {
          "internalType": "contract ILayerZeroEndpoint",
          "name": "",
          "type": "address"
        }
      ],
      "stateMutability": "view",
      "type": "function"
    },
    {
      "inputs": [
        {
          "internalType": "uint16",
          "name": "_srcChainId",
          "type": "uint16"
        },
        {
          "internalType": "bytes",
          "name": "_srcAddress",
          "type": "bytes"
        },
        {
          "internalType": "uint64",
          "name": "_nonce",
          "type": "uint64"
        },
        {
          "internalType": "bytes",
          "name": "_payload",
          "type": "bytes"
        }
      ],
      "name": "lzReceive",
      "outputs": [],
      "stateMutability": "nonpayable",
      "type": "function"
    },
    {
      "inputs": [
        {
          "internalType": "uint16",
          "name": "",
          "type": "uint16"
        },
        {
          "internalType": "uint16",
          "name": "",
          "type": "uint16"
        }
      ],
      "name": "minDstGasLookup",
      "outputs": [
        {
          "internalType": "uint256",
          "name": "",
          "type": "uint256"
        }
      ],
      "stateMutability": "view",
      "type": "function"
    },
    {
      "inputs": [
        {
          "internalType": "uint16",
          "name": "_srcChainId",
          "type": "uint16"
        },
        {
          "internalType": "bytes",
          "name": "_srcAddress",
          "type": "bytes"
        },
        {
          "internalType": "uint64",
          "name": "_nonce",
          "type": "uint64"
        },
        {
          "internalType": "bytes",
          "name": "_payload",
          "type": "bytes"
        }
      ],
      "name": "nonblockingLzReceive",
      "outputs": [],
      "stateMutability": "nonpayable",
      "type": "function"
    },
    {
      "inputs": [],
      "name": "owner",
      "outputs": [
        {
          "internalType": "address",
          "name": "",
          "type": "address"
        }
      ],
      "stateMutability": "view",
      "type": "function"
    },
    {
      "inputs": [
        {
          "internalType": "uint16",
          "name": "",
          "type": "uint16"
        }
      ],
      "name": "payloadSizeLimitLookup",
      "outputs": [
        {
          "internalType": "uint256",
          "name": "",
          "type": "uint256"
        }
      ],
      "stateMutability": "view",
      "type": "function"
    },
    {
      "inputs": [],
      "name": "precrime",
      "outputs": [
        {
          "internalType": "address",
          "name": "",
          "type": "address"
        }
      ],
      "stateMutability": "view",
      "type": "function"
    },
    {
      "inputs": [],
      "name": "renounceOwnership",
      "outputs": [],
      "stateMutability": "nonpayable",
      "type": "function"
    },
    {
      "inputs": [
        {
          "internalType": "uint16",
          "name": "_srcChainId",
          "type": "uint16"
        },
        {
          "internalType": "bytes",
          "name": "_srcAddress",
          "type": "bytes"
        },
        {
          "internalType": "uint64",
          "name": "_nonce",
          "type": "uint64"
        },
        {
          "internalType": "bytes",
          "name": "_payload",
          "type": "bytes"
        }
      ],
      "name": "retryMessage",
      "outputs": [],
      "stateMutability": "payable",
      "type": "function"
    },
    {
      "inputs": [
        {
          "internalType": "address",
          "name": "from",
          "type": "address"
        },
        {
          "internalType": "address",
          "name": "to",
          "type": "address"
        },
        {
          "internalType": "uint256[]",
          "name": "ids",
          "type": "uint256[]"
        },
        {
          "internalType": "uint256[]",
          "name": "amounts",
          "type": "uint256[]"
        },
        {
          "internalType": "bytes",
          "name": "data",
          "type": "bytes"
        }
      ],
      "name": "safeBatchTransferFrom",
      "outputs": [],
      "stateMutability": "nonpayable",
      "type": "function"
    },
    {
      "inputs": [
        {
          "internalType": "address",
          "name": "from",
          "type": "address"
        },
        {
          "internalType": "address",
          "name": "to",
          "type": "address"
        },
        {
          "internalType": "uint256",
          "name": "id",
          "type": "uint256"
        },
        {
          "internalType": "uint256",
          "name": "amount",
          "type": "uint256"
        },
        {
          "internalType": "bytes",
          "name": "data",
          "type": "bytes"
        }
      ],
      "name": "safeTransferFrom",
      "outputs": [],
      "stateMutability": "nonpayable",
      "type": "function"
    },
    {
      "inputs": [
        {
          "internalType": "address",
          "name": "_from",
          "type": "address"
        },
        {
          "internalType": "uint16",
          "name": "_dstChainId",
          "type": "uint16"
        },
        {
          "internalType": "bytes",
          "name": "_toAddress",
          "type": "bytes"
        },
        {
          "internalType": "uint256[]",
          "name": "_tokenIds",
          "type": "uint256[]"
        },
        {
          "internalType": "uint256[]",
          "name": "_amounts",
          "type": "uint256[]"
        },
        {
          "internalType": "address payable",
          "name": "_refundAddress",
          "type": "address"
        },
        {
          "internalType": "address",
          "name": "_zroPaymentAddress",
          "type": "address"
        },
        {
          "internalType": "bytes",
          "name": "_adapterParams",
          "type": "bytes"
        }
      ],
      "name": "sendBatchFrom",
      "outputs": [],
      "stateMutability": "payable",
      "type": "function"
    },
    {
      "inputs": [
        {
          "internalType": "address",
          "name": "_from",
          "type": "address"
        },
        {
          "internalType": "uint16",
          "name": "_dstChainId",
          "type": "uint16"
        },
        {
          "internalType": "bytes",
          "name": "_toAddress",
          "type": "bytes"
        },
        {
          "internalType": "uint256",
          "name": "_tokenId",
          "type": "uint256"
        },
        {
          "internalType": "uint256",
          "name": "_amount",
          "type": "uint256"
        },
        {
          "internalType": "address payable",
          "name": "_refundAddress",
          "type": "address"
        },
        {
          "internalType": "address",
          "name": "_zroPaymentAddress",
          "type": "address"
        },
        {
          "internalType": "bytes",
          "name": "_adapterParams",
          "type": "bytes"
        }
      ],
      "name": "sendFrom",
      "outputs": [],
      "stateMutability": "payable",
      "type": "function"
    },
    {
      "inputs": [
        {
          "internalType": "address",
          "name": "operator",
          "type": "address"
        },
        {
          "internalType": "bool",
          "name": "approved",
          "type": "bool"
        }
      ],
      "name": "setApprovalForAll",
      "outputs": [],
      "stateMutability": "nonpayable",
      "type": "function"
    },
    {
      "inputs": [
        {
          "internalType": "uint16",
          "name": "_version",
          "type": "uint16"
        },
        {
          "internalType": "uint16",
          "name": "_chainId",
          "type": "uint16"
        },
        {
          "internalType": "uint256",
          "name": "_configType",
          "type": "uint256"
        },
        {
          "internalType": "bytes",
          "name": "_config",
          "type": "bytes"
        }
      ],
      "name": "setConfig",
      "outputs": [],
      "stateMutability": "nonpayable",
      "type": "function"
    },
    {
      "inputs": [
        {
          "internalType": "uint16",
          "name": "_dstChainId",
          "type": "uint16"
        },
        {
          "internalType": "uint16",
          "name": "_packetType",
          "type": "uint16"
        },
        {
          "internalType": "uint256",
          "name": "_minGas",
          "type": "uint256"
        }
      ],
      "name": "setMinDstGas",
      "outputs": [],
      "stateMutability": "nonpayable",
      "type": "function"
    },
    {
      "inputs": [
        {
          "internalType": "uint16",
          "name": "_dstChainId",
          "type": "uint16"
        },
        {
          "internalType": "uint256",
          "name": "_size",
          "type": "uint256"
        }
      ],
      "name": "setPayloadSizeLimit",
      "outputs": [],
      "stateMutability": "nonpayable",
      "type": "function"
    },
    {
      "inputs": [
        {
          "internalType": "address",
          "name": "_precrime",
          "type": "address"
        }
      ],
      "name": "setPrecrime",
      "outputs": [],
      "stateMutability": "nonpayable",
      "type": "function"
    },
    {
      "inputs": [
        {
          "internalType": "uint16",
          "name": "_version",
          "type": "uint16"
        }
      ],
      "name": "setReceiveVersion",
      "outputs": [],
      "stateMutability": "nonpayable",
      "type": "function"
    },
    {
      "inputs": [
        {
          "internalType": "uint16",
          "name": "_version",
          "type": "uint16"
        }
      ],
      "name": "setSendVersion",
      "outputs": [],
      "stateMutability": "nonpayable",
      "type": "function"
    },
    {
      "inputs": [
        {
          "internalType": "uint16",
          "name": "_remoteChainId",
          "type": "uint16"
        },
        {
          "internalType": "bytes",
          "name": "_path",
          "type": "bytes"
        }
      ],
      "name": "setTrustedRemote",
      "outputs": [],
      "stateMutability": "nonpayable",
      "type": "function"
    },
    {
      "inputs": [
        {
          "internalType": "uint16",
          "name": "_remoteChainId",
          "type": "uint16"
        },
        {
          "internalType": "bytes",
          "name": "_remoteAddress",
          "type": "bytes"
        }
      ],
      "name": "setTrustedRemoteAddress",
      "outputs": [],
      "stateMutability": "nonpayable",
      "type": "function"
    },
    {
      "inputs": [
        {
          "internalType": "bool",
          "name": "_useCustomAdapterParams",
          "type": "bool"
        }
      ],
      "name": "setUseCustomAdapterParams",
      "outputs": [],
      "stateMutability": "nonpayable",
      "type": "function"
    },
    {
      "inputs": [
        {
          "internalType": "bytes4",
          "name": "interfaceId",
          "type": "bytes4"
        }
      ],
      "name": "supportsInterface",
      "outputs": [
        {
          "internalType": "bool",
          "name": "",
          "type": "bool"
        }
      ],
      "stateMutability": "view",
      "type": "function"
    },
    {
      "inputs": [
        {
          "internalType": "address",
          "name": "newOwner",
          "type": "address"
        }
      ],
      "name": "transferOwnership",
      "outputs": [],
      "stateMutability": "nonpayable",
      "type": "function"
    },
    {
      "inputs": [
        {
          "internalType": "uint16",
          "name": "",
          "type": "uint16"
        }
      ],
      "name": "trustedRemoteLookup",
      "outputs": [
        {
          "internalType": "bytes",
          "name": "",
          "type": "bytes"
        }
      ],
      "stateMutability": "view",
      "type": "function"
    },
    {
      "inputs": [
        {
          "internalType": "uint256",
          "name": "",
          "type": "uint256"
        }
      ],
      "name": "uri",
      "outputs": [
        {
          "internalType": "string",
          "name": "",
          "type": "string"
        }
      ],
      "stateMutability": "view",
      "type": "function"
    },
    {
      "inputs": [],
      "name": "useCustomAdapterParams",
      "outputs": [
        {
          "internalType": "bool",
          "name": "",
          "type": "bool"
        }
      ],
      "stateMutability": "view",
      "type": "function"
    }
  ],
  "bytecode": {
    "object": "0x60a06040523480156200001157600080fd5b5060405162004640380380620046408339810160408190526200003491620000fb565b81818080620000433362000066565b6001600160a01b0316608052506200005d905081620000b6565b50505062000340565b600080546001600160a01b038381166001600160a01b0319831681178455604051919092169283917f8be0079c531659141344cd1fd0a4f28419497f9722a3daafe3b4186f6b6457e09190a35050565b6009620000c4828262000274565b5050565b634e487b7160e01b600052604160045260246000fd5b80516001600160a01b0381168114620000f657600080fd5b919050565b600080604083850312156200010f57600080fd5b82516001600160401b03808211156200012757600080fd5b818501915085601f8301126200013c57600080fd5b815181811115620001515762000151620000c8565b604051601f8201601f19908116603f011681019083821181831017156200017c576200017c620000c8565b816040528281526020935088848487010111156200019957600080fd5b600091505b82821015620001bd57848201840151818301850152908301906200019e565b6000848483010152809650505050620001d8818601620000de565b925050509250929050565b600181811c90821680620001f857607f821691505b6020821081036200021957634e487b7160e01b600052602260045260246000fd5b50919050565b601f8211156200026f576000816000526020600020601f850160051c810160208610156200024a5750805b601f850160051c820191505b818110156200026b5782815560010162000256565b5050505b505050565b81516001600160401b03811115620002905762000290620000c8565b620002a881620002a18454620001e3565b846200021f565b602080601f831160018114620002e05760008415620002c75750858301515b600019600386901b1c1916600185901b1785556200026b565b600085815260208120601f198616915b828110156200031157888601518255948401946001909101908401620002f0565b5085821015620003305787850151600019600388901b60f8161c191681555b5050505050600190811b01905550565b6080516142ac620003946000396000818161068d0152818161083e01528181610b4001528181610c7c01528181610de30152818161134e01528181611457015281816118df015261282201526142ac6000f3fe60806040526004361061024f5760003560e01c80638cfd8f5c11610139578063c4461834116100b6578063eab45d9c1161007a578063eab45d9c14610781578063eb8d72b7146107a1578063ed629c5c146107c1578063f242432a146107db578063f2fde38b146107fb578063f5ecbdbc1461081b57600080fd5b8063c4461834146106cf578063cbed8b9c146106e5578063d1deba1f14610705578063df2a5b3b14610718578063e985e9c51461073857600080fd5b8063a6c3d165116100fd578063a6c3d16514610626578063af3fb21c14610646578063b25356631461065b578063b353aaa71461067b578063baf3292d146106af57600080fd5b80638cfd8f5c1461055c5780638da5cb5b14610594578063950c8a74146105c65780639f38369a146105e6578063a22cb4651461060657600080fd5b80633f1f4fa4116101d25780634e1273f4116101965780634e1273f4146104565780635b8c41e61461048357806366ad5c8a146104d2578063715018a6146104f25780637533d788146105075780638608e5f81461052757600080fd5b80633f1f4fa4146103ce57806342d65a8d146103fb578063447705151461041b5780634ab4e687146104305780634db8226a1461044357600080fd5b80630e89341c116102195780630e89341c1461031957806310ddb13714610346578063149e3e1f146103665780632eb2c2d61461038e5780633d8b38f6146103ae57600080fd5b80621d356714610254578062fdd58e1461027657806301ffc9a7146102a957806307e0db17146102d95780630df37483146102f9575b600080fd5b34801561026057600080fd5b5061027461026f366004612e38565b61083b565b005b34801561028257600080fd5b50610296610291366004612eeb565b610a6c565b6040519081526020015b60405180910390f35b3480156102b557600080fd5b506102c96102c4366004612f2d565b610b02565b60405190151581526020016102a0565b3480156102e557600080fd5b506102746102f4366004612f4a565b610b1f565b34801561030557600080fd5b50610274610314366004612f65565b610ba8565b34801561032557600080fd5b50610339610334366004612f81565b610bc7565b6040516102a09190612fea565b34801561035257600080fd5b50610274610361366004612f4a565b610c5b565b34801561037257600080fd5b5061037b600281565b60405161ffff90911681526020016102a0565b34801561039a57600080fd5b506102746103a936600461315b565b610cb3565b3480156103ba57600080fd5b506102c96103c9366004613208565b610cf8565b3480156103da57600080fd5b506102966103e9366004612f4a565b60036020526000908152604090205481565b34801561040757600080fd5b50610274610416366004613208565b610dc4565b34801561042757600080fd5b50610296600081565b61027461043e36600461325a565b610e4a565b610274610451366004613349565b610e64565b34801561046257600080fd5b506104766104713660046133ef565b610e84565b6040516102a091906134f7565b34801561048f57600080fd5b5061029661049e36600461350a565b6005602090815260009384526040808520845180860184018051928152908401958401959095209452929052825290205481565b3480156104de57600080fd5b506102746104ed366004612e38565b610fa5565b3480156104fe57600080fd5b50610274611081565b34801561051357600080fd5b50610339610522366004612f4a565b611095565b34801561053357600080fd5b50610547610542366004613577565b61112f565b604080519283526020830191909152016102a0565b34801561056857600080fd5b5061029661057736600461360d565b600260209081526000928352604080842090915290825290205481565b3480156105a057600080fd5b506000546001600160a01b03165b6040516001600160a01b0390911681526020016102a0565b3480156105d257600080fd5b506004546105ae906001600160a01b031681565b3480156105f257600080fd5b50610339610601366004612f4a565b61115f565b34801561061257600080fd5b50610274610621366004613640565b611275565b34801561063257600080fd5b50610274610641366004613208565b611284565b34801561065257600080fd5b5061037b600181565b34801561066757600080fd5b5061054761067636600461366c565b61130d565b34801561068757600080fd5b506105ae7f000000000000000000000000000000000000000000000000000000000000000081565b3480156106bb57600080fd5b506102746106ca366004613708565b6113db565b3480156106db57600080fd5b5061029661271081565b3480156106f157600080fd5b50610274610700366004613725565b611438565b610274610713366004612e38565b6114cd565b34801561072457600080fd5b50610274610733366004613793565b6116e3565b34801561074457600080fd5b506102c96107533660046137cf565b6001600160a01b03918216600090815260086020908152604080832093909416825291909152205460ff1690565b34801561078d57600080fd5b5061027461079c366004613808565b61174d565b3480156107ad57600080fd5b506102746107bc366004613208565b611796565b3480156107cd57600080fd5b506006546102c99060ff1681565b3480156107e757600080fd5b506102746107f6366004613823565b6117f0565b34801561080757600080fd5b50610274610816366004613708565b611835565b34801561082757600080fd5b5061033961083636600461388b565b6118ae565b337f00000000000000000000000000000000000000000000000000000000000000006001600160a01b0316146108b85760405162461bcd60e51b815260206004820152601e60248201527f4c7a4170703a20696e76616c696420656e64706f696e742063616c6c6572000060448201526064015b60405180910390fd5b61ffff8616600090815260016020526040812080546108d6906138d8565b80601f0160208091040260200160405190810160405280929190818152602001828054610902906138d8565b801561094f5780601f106109245761010080835404028352916020019161094f565b820191906000526020600020905b81548152906001019060200180831161093257829003601f168201915b5050505050905080518686905014801561096a575060008151115b80156109925750805160208201206040516109889088908890613912565b6040518091039020145b6109ed5760405162461bcd60e51b815260206004820152602660248201527f4c7a4170703a20696e76616c696420736f757263652073656e64696e6720636f6044820152651b9d1c9858dd60d21b60648201526084016108af565b610a638787878080601f01602080910402602001604051908101604052809392919081815260200183838082843760009201919091525050604080516020601f8a018190048102820181019092528881528a93509150889088908190840183828082843760009201919091525061195f92505050565b50505050505050565b60006001600160a01b038316610ad75760405162461bcd60e51b815260206004820152602a60248201527f455243313135353a2061646472657373207a65726f206973206e6f742061207660448201526930b634b21037bbb732b960b11b60648201526084016108af565b5060008181526007602090815260408083206001600160a01b03861684529091529020545b92915050565b60006001600160e01b031982161580610afc5750610afc826119d8565b610b27611a18565b6040516307e0db1760e01b815261ffff821660048201527f00000000000000000000000000000000000000000000000000000000000000006001600160a01b0316906307e0db17906024015b600060405180830381600087803b158015610b8d57600080fd5b505af1158015610ba1573d6000803e3d6000fd5b5050505050565b610bb0611a18565b61ffff909116600090815260036020526040902055565b606060098054610bd6906138d8565b80601f0160208091040260200160405190810160405280929190818152602001828054610c02906138d8565b8015610c4f5780601f10610c2457610100808354040283529160200191610c4f565b820191906000526020600020905b815481529060010190602001808311610c3257829003601f168201915b50505050509050919050565b610c63611a18565b6040516310ddb13760e01b815261ffff821660048201527f00000000000000000000000000000000000000000000000000000000000000006001600160a01b0316906310ddb13790602401610b73565b6001600160a01b038516331480610ccf5750610ccf8533610753565b610ceb5760405162461bcd60e51b81526004016108af90613922565b610ba18585858585611a72565b61ffff831660009081526001602052604081208054829190610d19906138d8565b80601f0160208091040260200160405190810160405280929190818152602001828054610d45906138d8565b8015610d925780601f10610d6757610100808354040283529160200191610d92565b820191906000526020600020905b815481529060010190602001808311610d7557829003601f168201915b505050505090508383604051610da9929190613912565b60405180910390208180519060200120149150509392505050565b610dcc611a18565b6040516342d65a8d60e01b81526001600160a01b037f000000000000000000000000000000000000000000000000000000000000000016906342d65a8d90610e1c90869086908690600401613999565b600060405180830381600087803b158015610e3657600080fd5b505af1158015610a63573d6000803e3d6000fd5b610e5a8888888888888888611c02565b5050505050505050565b610e5a888888610e7389611de9565b610e7c89611de9565b888888611c02565b60608151835114610ee95760405162461bcd60e51b815260206004820152602960248201527f455243313135353a206163636f756e747320616e6420696473206c656e677468604482015268040dad2e6dac2e8c6d60bb1b60648201526084016108af565b600083516001600160401b03811115610f0457610f04612ffd565b604051908082528060200260200182016040528015610f2d578160200160208202803683370190505b50905060005b8451811015610f9d57610f78858281518110610f5157610f516139b7565b6020026020010151858381518110610f6b57610f6b6139b7565b6020026020010151610a6c565b828281518110610f8a57610f8a6139b7565b6020908102919091010152600101610f33565b509392505050565b3330146110035760405162461bcd60e51b815260206004820152602660248201527f4e6f6e626c6f636b696e674c7a4170703a2063616c6c6572206d7573742062656044820152650204c7a4170760d41b60648201526084016108af565b6110798686868080601f01602080910402602001604051908101604052809392919081815260200183838082843760009201919091525050604080516020601f890181900481028201810190925287815289935091508790879081908401838280828437600092019190915250611e3492505050565b505050505050565b611089611a18565b6110936000611f81565b565b600160205260009081526040902080546110ae906138d8565b80601f01602080910402602001604051908101604052809291908181526020018280546110da906138d8565b80156111275780601f106110fc57610100808354040283529160200191611127565b820191906000526020600020905b81548152906001019060200180831161110a57829003601f168201915b505050505081565b600080611150888861114089611de9565b61114989611de9565b888861130d565b91509150965096945050505050565b61ffff8116600090815260016020526040812080546060929190611182906138d8565b80601f01602080910402602001604051908101604052809291908181526020018280546111ae906138d8565b80156111fb5780601f106111d0576101008083540402835291602001916111fb565b820191906000526020600020905b8154815290600101906020018083116111de57829003601f168201915b5050505050905080516000036112535760405162461bcd60e51b815260206004820152601d60248201527f4c7a4170703a206e6f20747275737465642070617468207265636f726400000060448201526064016108af565b61126e60006014835161126691906139e3565b839190611fd1565b9392505050565b6112803383836120de565b5050565b61128c611a18565b8181306040516020016112a1939291906139f6565b60408051601f1981840301815291815261ffff85166000908152600160205220906112cc9082613a64565b507f8c0400cfe2d1199b1a725c78960bcc2a344d869b80590d0f2bd005db15a572ce83838360405161130093929190613999565b60405180910390a1505050565b600080600087878760405160200161132793929190613b23565b60408051601f198184030181529082905263040a7bb160e41b825291506001600160a01b037f000000000000000000000000000000000000000000000000000000000000000016906340a7bb109061138b908c90309086908b908b90600401613b66565b6040805180830381865afa1580156113a7573d6000803e3d6000fd5b505050506040513d601f19601f820116820180604052508101906113cb9190613bba565b9250925050965096945050505050565b6113e3611a18565b600480546001600160a01b0319166001600160a01b0383169081179091556040519081527f5db758e995a17ec1ad84bdef7e8c3293a0bd6179bcce400dff5d4c3d87db726b906020015b60405180910390a150565b611440611a18565b6040516332fb62e760e21b81526001600160a01b037f0000000000000000000000000000000000000000000000000000000000000000169063cbed8b9c906114949088908890889088908890600401613bde565b600060405180830381600087803b1580156114ae57600080fd5b505af11580156114c2573d6000803e3d6000fd5b505050505050505050565b61ffff861660009081526005602052604080822090516114f09088908890613912565b90815260408051602092819003830190206001600160401b038716600090815292529020549050806115705760405162461bcd60e51b815260206004820152602360248201527f4e6f6e626c6f636b696e674c7a4170703a206e6f2073746f726564206d65737360448201526261676560e81b60648201526084016108af565b808383604051611581929190613912565b6040518091039020146115e05760405162461bcd60e51b815260206004820152602160248201527f4e6f6e626c6f636b696e674c7a4170703a20696e76616c6964207061796c6f616044820152601960fa1b60648201526084016108af565b61ffff871660009081526005602052604080822090516116039089908990613912565b90815260408051602092819003830181206001600160401b038916600090815290845282902093909355601f8801829004820283018201905286825261169b918991899089908190840183828082843760009201919091525050604080516020601f8a018190048102820181019092528881528a935091508890889081908401838280828437600092019190915250611e3492505050565b7fc264d91f3adc5588250e1551f547752ca0cfa8f6b530d243b9f9f4cab10ea8e587878787856040516116d2959493929190613c17565b60405180910390a150505050505050565b6116eb611a18565b61ffff83811660008181526002602090815260408083209487168084529482529182902085905581519283528201929092529081018290527f9d5c7c0b934da8fefa9c7760c98383778a12dfbfc0c3b3106518f43fb9508ac090606001611300565b611755611a18565b6006805460ff19168215159081179091556040519081527f1584ad594a70cbe1e6515592e1272a987d922b097ead875069cebe8b40c004a49060200161142d565b61179e611a18565b61ffff831660009081526001602052604090206117bc828483613c52565b507ffa41487ad5d6728f0b19276fa1eddc16558578f5109fc39d2dc33c3230470dab83838360405161130093929190613999565b6001600160a01b03851633148061180c575061180c8533610753565b6118285760405162461bcd60e51b81526004016108af90613922565b610ba185858585856121be565b61183d611a18565b6001600160a01b0381166118a25760405162461bcd60e51b815260206004820152602660248201527f4f776e61626c653a206e6577206f776e657220697320746865207a65726f206160448201526564647265737360d01b60648201526084016108af565b6118ab81611f81565b50565b604051633d7b2f6f60e21b815261ffff808616600483015284166024820152306044820152606481018290526060907f00000000000000000000000000000000000000000000000000000000000000006001600160a01b03169063f5ecbdbc90608401600060405180830381865afa15801561192e573d6000803e3d6000fd5b505050506040513d6000823e601f3d908101601f191682016040526119569190810190613d60565b95945050505050565b6000806119c25a60966366ad5c8a60e01b898989896040516024016119879493929190613d9c565b60408051601f198184030181529190526020810180516001600160e01b03166001600160e01b031990931692909217909152309291906122e1565b915091508161107957611079868686868561236b565b60006001600160e01b03198216636cdb3d1360e11b1480611a0957506001600160e01b031982166303a24d0760e21b145b80610afc5750610afc82612408565b6000546001600160a01b031633146110935760405162461bcd60e51b815260206004820181905260248201527f4f776e61626c653a2063616c6c6572206973206e6f7420746865206f776e657260448201526064016108af565b8151835114611a935760405162461bcd60e51b81526004016108af90613dda565b6001600160a01b038416611ab95760405162461bcd60e51b81526004016108af90613e22565b3360005b8451811015611b9c576000858281518110611ada57611ada6139b7565b602002602001015190506000858381518110611af857611af86139b7565b60209081029190910181015160008481526007835260408082206001600160a01b038e168352909352919091205490915081811015611b495760405162461bcd60e51b81526004016108af90613e67565b60008381526007602090815260408083206001600160a01b038e8116855292528083208585039055908b16825281208054849290611b88908490613eb1565b909155505060019093019250611abd915050565b50846001600160a01b0316866001600160a01b0316826001600160a01b03167f4a39dc06d4c0dbc64b70af90fd698a233a518aa5d07e595d983b8c0526c8f7fb8787604051611bec929190613ec4565b60405180910390a461107981878787878761243d565b611c0f8888888888612598565b6000868686604051602001611c2693929190613b23565b60405160208183030381529060405290508551600103611d2b5760065460ff1615611c5e57611c59886001846000612624565b611c7d565b815115611c7d5760405162461bcd60e51b81526004016108af90613ee9565b611c8b8882868686346126f9565b86604051611c999190613f2d565b6040518091039020896001600160a01b03168961ffff167f968b0d61ebcf43e5d76ed87bd2c4ee2f22b4969b9f4ca49e3373c025eddd5eeb89600081518110611ce457611ce46139b7565b602002602001015189600081518110611cff57611cff6139b7565b6020026020010151604051611d1e929190918252602082015260400190565b60405180910390a46114c2565b6001865111156114c25760065460ff1615611d5357611d4e886002846000612624565b611d72565b815115611d725760405162461bcd60e51b81526004016108af90613ee9565b611d808882868686346126f9565b86604051611d8e9190613f2d565b6040518091039020896001600160a01b03168961ffff167fddd15f7cfbd674ac2096d598f1650367f8a8bd72b4e3abd85591099ea3b57e338989604051611dd6929190613ec4565b60405180910390a4505050505050505050565b60408051600180825281830190925260609160009190602080830190803683370190505090508281600081518110611e2357611e236139b7565b602090810291909101015292915050565b600080600083806020019051810190611e4d9190613fb4565b60148301519295509093509150611e668882858561289e565b8251600103611f0f57806001600160a01b031687604051611e879190613f2d565b60405180910390208961ffff167f1bf64e58d19fc43de4c44b3d1bb1fae313979af831a7a39f3297564294329f0f86600081518110611ec857611ec86139b7565b602002602001015186600081518110611ee357611ee36139b7565b6020026020010151604051611f02929190918252602082015260400190565b60405180910390a4610e5a565b600183511115610e5a57806001600160a01b031687604051611f319190613f2d565b60405180910390208961ffff167f1ae08edbbcd7baa8d064835de8593ce16b313414525ac89534e349f4da7926e48686604051611f6f929190613ec4565b60405180910390a45050505050505050565b600080546001600160a01b038381166001600160a01b0319831681178455604051919092169283917f8be0079c531659141344cd1fd0a4f28419497f9722a3daafe3b4186f6b6457e09190a35050565b606081611fdf81601f613eb1565b101561201e5760405162461bcd60e51b815260206004820152600e60248201526d736c6963655f6f766572666c6f7760901b60448201526064016108af565b6120288284613eb1565b8451101561206c5760405162461bcd60e51b8152602060048201526011602482015270736c6963655f6f75744f66426f756e647360781b60448201526064016108af565b60608215801561208b57604051915060008252602082016040526120d5565b6040519150601f8416801560200281840101858101878315602002848b0101015b818310156120c45780518352602092830192016120ac565b5050858452601f01601f1916604052505b50949350505050565b816001600160a01b0316836001600160a01b0316036121515760405162461bcd60e51b815260206004820152602960248201527f455243313135353a2073657474696e6720617070726f76616c20737461747573604482015268103337b91039b2b63360b91b60648201526084016108af565b6001600160a01b03838116600081815260086020908152604080832094871680845294825291829020805460ff191686151590811790915591519182527f17307eab39ab6107e8899845ad3d59bd9653f200f220920489ca2b5937696c31910160405180910390a3505050565b6001600160a01b0384166121e45760405162461bcd60e51b81526004016108af90613e22565b3360006121f085611de9565b905060006121fd85611de9565b905060008681526007602090815260408083206001600160a01b038c168452909152902054858110156122425760405162461bcd60e51b81526004016108af90613e67565b60008781526007602090815260408083206001600160a01b038d8116855292528083208985039055908a16825281208054889290612281908490613eb1565b909155505060408051888152602081018890526001600160a01b03808b16928c821692918816917fc3d58168c5ae7397731d063d5bbf3d657854427343f4c083240f7aacaa2d0f62910160405180910390a46114c2848a8a8a8a8a6128bf565b6000606060008060008661ffff166001600160401b0381111561230657612306612ffd565b6040519080825280601f01601f191660200182016040528015612330576020820181803683370190505b50905060008087516020890160008d8df191503d925086831115612352578692505b828152826000602083013e909890975095505050505050565b8180519060200120600560008761ffff1661ffff1681526020019081526020016000208560405161239c9190613f2d565b9081526040805191829003602090810183206001600160401b0388166000908152915220919091557fe183f33de2837795525b4792ca4cd60535bd77c53b7e7030060bfcf5734d6b0c906123f9908790879087908790879061403b565b60405180910390a15050505050565b60006001600160e01b031982166319abbbbb60e11b1480610afc57506301ffc9a760e01b6001600160e01b0319831614610afc565b6001600160a01b0384163b156110795760405163bc197c8160e01b81526001600160a01b0385169063bc197c8190612481908990899088908890889060040161408d565b6020604051808303816000875af19250505080156124bc575060408051601f3d908101601f191682019092526124b9918101906140cb565b60015b612568576124c86140e8565b806308c379a00361250157506124dc614104565b806124e75750612503565b8060405162461bcd60e51b81526004016108af9190612fea565b505b60405162461bcd60e51b815260206004820152603460248201527f455243313135353a207472616e7366657220746f206e6f6e2d455243313135356044820152732932b1b2b4bb32b91034b6b83632b6b2b73a32b960611b60648201526084016108af565b6001600160e01b0319811663bc197c8160e01b14610a635760405162461bcd60e51b81526004016108af9061418d565b336001600160a01b0386168114806125b557506125b58682610753565b6126195760405162461bcd60e51b815260206004820152602f60248201527f4f4e4654313135353a2073656e642063616c6c6572206973206e6f74206f776e60448201526e195c881b9bdc88185c1c1c9bdd9959608a1b60648201526084016108af565b61107986848461297a565b600061262f83612b75565b61ffff808716600090815260026020908152604080832093891683529290522054909150806126a05760405162461bcd60e51b815260206004820152601a60248201527f4c7a4170703a206d696e4761734c696d6974206e6f742073657400000000000060448201526064016108af565b6126aa8382613eb1565b8210156110795760405162461bcd60e51b815260206004820152601b60248201527f4c7a4170703a20676173206c696d697420697320746f6f206c6f77000000000060448201526064016108af565b61ffff861660009081526001602052604081208054612717906138d8565b80601f0160208091040260200160405190810160405280929190818152602001828054612743906138d8565b80156127905780601f1061276557610100808354040283529160200191612790565b820191906000526020600020905b81548152906001019060200180831161277357829003601f168201915b5050505050905080516000036128015760405162461bcd60e51b815260206004820152603060248201527f4c7a4170703a2064657374696e6174696f6e20636861696e206973206e6f742060448201526f61207472757374656420736f7572636560801b60648201526084016108af565b61280c878751612bd1565b60405162c5803160e81b81526001600160a01b037f0000000000000000000000000000000000000000000000000000000000000000169063c5803100908490612863908b9086908c908c908c908c906004016141d5565b6000604051808303818588803b15801561287c57600080fd5b505af1158015612890573d6000803e3d6000fd5b505050505050505050505050565b6128b983838360405180602001604052806000815250612c47565b50505050565b6001600160a01b0384163b156110795760405163f23a6e6160e01b81526001600160a01b0385169063f23a6e6190612903908990899088908890889060040161423c565b6020604051808303816000875af192505050801561293e575060408051601f3d908101601f1916820190925261293b918101906140cb565b60015b61294a576124c86140e8565b6001600160e01b0319811663f23a6e6160e01b14610a635760405162461bcd60e51b81526004016108af9061418d565b6001600160a01b0383166129dc5760405162461bcd60e51b815260206004820152602360248201527f455243313135353a206275726e2066726f6d20746865207a65726f206164647260448201526265737360e81b60648201526084016108af565b80518251146129fd5760405162461bcd60e51b81526004016108af90613dda565b604080516020810190915260009081905233905b8351811015612b08576000848281518110612a2e57612a2e6139b7565b602002602001015190506000848381518110612a4c57612a4c6139b7565b60209081029190910181015160008481526007835260408082206001600160a01b038c168352909352919091205490915081811015612ad95760405162461bcd60e51b8152602060048201526024808201527f455243313135353a206275726e20616d6f756e7420657863656564732062616c604482015263616e636560e01b60648201526084016108af565b60009283526007602090815260408085206001600160a01b038b16865290915290922091039055600101612a11565b5060006001600160a01b0316846001600160a01b0316826001600160a01b03167f4a39dc06d4c0dbc64b70af90fd698a233a518aa5d07e595d983b8c0526c8f7fb8686604051612b59929190613ec4565b60405180910390a46040805160208101909152600090526128b9565b6000602282511015612bc95760405162461bcd60e51b815260206004820152601c60248201527f4c7a4170703a20696e76616c69642061646170746572506172616d730000000060448201526064016108af565b506022015190565b61ffff821660009081526003602052604081205490819003612bf257506127105b80821115612c425760405162461bcd60e51b815260206004820181905260248201527f4c7a4170703a207061796c6f61642073697a6520697320746f6f206c6172676560448201526064016108af565b505050565b6001600160a01b038416612ca75760405162461bcd60e51b815260206004820152602160248201527f455243313135353a206d696e7420746f20746865207a65726f206164647265736044820152607360f81b60648201526084016108af565b8151835114612cc85760405162461bcd60e51b81526004016108af90613dda565b3360005b8451811015612d5a57838181518110612ce757612ce76139b7565b602002602001015160076000878481518110612d0557612d056139b7565b602002602001015181526020019081526020016000206000886001600160a01b03166001600160a01b031681526020019081526020016000206000828254612d4d9190613eb1565b9091555050600101612ccc565b50846001600160a01b031660006001600160a01b0316826001600160a01b03167f4a39dc06d4c0dbc64b70af90fd698a233a518aa5d07e595d983b8c0526c8f7fb8787604051612dab929190613ec4565b60405180910390a4610ba18160008787878761243d565b803561ffff81168114612dd457600080fd5b919050565b60008083601f840112612deb57600080fd5b5081356001600160401b03811115612e0257600080fd5b602083019150836020828501011115612e1a57600080fd5b9250929050565b80356001600160401b0381168114612dd457600080fd5b60008060008060008060808789031215612e5157600080fd5b612e5a87612dc2565b955060208701356001600160401b0380821115612e7657600080fd5b612e828a838b01612dd9565b9097509550859150612e9660408a01612e21565b94506060890135915080821115612eac57600080fd5b50612eb989828a01612dd9565b979a9699509497509295939492505050565b6001600160a01b03811681146118ab57600080fd5b8035612dd481612ecb565b60008060408385031215612efe57600080fd5b8235612f0981612ecb565b946020939093013593505050565b6001600160e01b0319811681146118ab57600080fd5b600060208284031215612f3f57600080fd5b813561126e81612f17565b600060208284031215612f5c57600080fd5b61126e82612dc2565b60008060408385031215612f7857600080fd5b612f0983612dc2565b600060208284031215612f9357600080fd5b5035919050565b60005b83811015612fb5578181015183820152602001612f9d565b50506000910152565b60008151808452612fd6816020860160208601612f9a565b601f01601f19169290920160200192915050565b60208152600061126e6020830184612fbe565b634e487b7160e01b600052604160045260246000fd5b601f8201601f191681016001600160401b038111828210171561303857613038612ffd565b6040525050565b60006001600160401b0382111561305857613058612ffd565b5060051b60200190565b600082601f83011261307357600080fd5b813560206130808261303f565b60405161308d8282613013565b80915083815260208101915060208460051b8701019350868411156130b157600080fd5b602086015b848110156130cd57803583529183019183016130b6565b509695505050505050565b60006001600160401b038211156130f1576130f1612ffd565b50601f01601f191660200190565b600082601f83011261311057600080fd5b813561311b816130d8565b6040516131288282613013565b82815285602084870101111561313d57600080fd5b82602086016020830137600092810160200192909252509392505050565b600080600080600060a0868803121561317357600080fd5b853561317e81612ecb565b9450602086013561318e81612ecb565b935060408601356001600160401b03808211156131aa57600080fd5b6131b689838a01613062565b945060608801359150808211156131cc57600080fd5b6131d889838a01613062565b935060808801359150808211156131ee57600080fd5b506131fb888289016130ff565b9150509295509295909350565b60008060006040848603121561321d57600080fd5b61322684612dc2565b925060208401356001600160401b0381111561324157600080fd5b61324d86828701612dd9565b9497909650939450505050565b600080600080600080600080610100898b03121561327757600080fd5b61328089612ee0565b975061328e60208a01612dc2565b965060408901356001600160401b03808211156132aa57600080fd5b6132b68c838d016130ff565b975060608b01359150808211156132cc57600080fd5b6132d88c838d01613062565b965060808b01359150808211156132ee57600080fd5b6132fa8c838d01613062565b955061330860a08c01612ee0565b945061331660c08c01612ee0565b935060e08b013591508082111561332c57600080fd5b506133398b828c016130ff565b9150509295985092959890939650565b600080600080600080600080610100898b03121561336657600080fd5b883561337181612ecb565b975061337f60208a01612dc2565b965060408901356001600160401b038082111561339b57600080fd5b6133a78c838d016130ff565b975060608b0135965060808b0135955060a08b013591506133c782612ecb565b90935060c08a0135906133d982612ecb565b90925060e08a0135908082111561332c57600080fd5b6000806040838503121561340257600080fd5b82356001600160401b038082111561341957600080fd5b818501915085601f83011261342d57600080fd5b8135602061343a8261303f565b6040516134478282613013565b83815260059390931b850182019282810191508984111561346757600080fd5b948201945b8386101561348e57853561347f81612ecb565b8252948201949082019061346c565b965050860135925050808211156134a457600080fd5b506134b185828601613062565b9150509250929050565b60008151808452602080850194506020840160005b838110156134ec578151875295820195908201906001016134d0565b509495945050505050565b60208152600061126e60208301846134bb565b60008060006060848603121561351f57600080fd5b61352884612dc2565b925060208401356001600160401b0381111561354357600080fd5b61354f868287016130ff565b92505061355e60408501612e21565b90509250925092565b80358015158114612dd457600080fd5b60008060008060008060c0878903121561359057600080fd5b61359987612dc2565b955060208701356001600160401b03808211156135b557600080fd5b6135c18a838b016130ff565b965060408901359550606089013594506135dd60808a01613567565b935060a08901359150808211156135f357600080fd5b5061360089828a016130ff565b9150509295509295509295565b6000806040838503121561362057600080fd5b61362983612dc2565b915061363760208401612dc2565b90509250929050565b6000806040838503121561365357600080fd5b823561365e81612ecb565b915061363760208401613567565b60008060008060008060c0878903121561368557600080fd5b61368e87612dc2565b955060208701356001600160401b03808211156136aa57600080fd5b6136b68a838b016130ff565b965060408901359150808211156136cc57600080fd5b6136d88a838b01613062565b955060608901359150808211156136ee57600080fd5b6136fa8a838b01613062565b94506135dd60808a01613567565b60006020828403121561371a57600080fd5b813561126e81612ecb565b60008060008060006080868803121561373d57600080fd5b61374686612dc2565b945061375460208701612dc2565b93506040860135925060608601356001600160401b0381111561377657600080fd5b61378288828901612dd9565b969995985093965092949392505050565b6000806000606084860312156137a857600080fd5b6137b184612dc2565b92506137bf60208501612dc2565b9150604084013590509250925092565b600080604083850312156137e257600080fd5b82356137ed81612ecb565b915060208301356137fd81612ecb565b809150509250929050565b60006020828403121561381a57600080fd5b61126e82613567565b600080600080600060a0868803121561383b57600080fd5b853561384681612ecb565b9450602086013561385681612ecb565b9350604086013592506060860135915060808601356001600160401b0381111561387f57600080fd5b6131fb888289016130ff565b600080600080608085870312156138a157600080fd5b6138aa85612dc2565b93506138b860208601612dc2565b925060408501356138c881612ecb565b9396929550929360600135925050565b600181811c908216806138ec57607f821691505b60208210810361390c57634e487b7160e01b600052602260045260246000fd5b50919050565b8183823760009101908152919050565b6020808252602e908201527f455243313135353a2063616c6c6572206973206e6f7420746f6b656e206f776e60408201526d195c881bdc88185c1c1c9bdd995960921b606082015260800190565b81835281816020850137506000828201602090810191909152601f909101601f19169091010190565b61ffff84168152604060208201526000611956604083018486613970565b634e487b7160e01b600052603260045260246000fd5b634e487b7160e01b600052601160045260246000fd5b81810381811115610afc57610afc6139cd565b8284823760609190911b6bffffffffffffffffffffffff19169101908152601401919050565b601f821115612c42576000816000526020600020601f850160051c81016020861015613a455750805b601f850160051c820191505b8181101561107957828155600101613a51565b81516001600160401b03811115613a7d57613a7d612ffd565b613a9181613a8b84546138d8565b84613a1c565b602080601f831160018114613ac65760008415613aae5750858301515b600019600386901b1c1916600185901b178555611079565b600085815260208120601f198616915b82811015613af557888601518255948401946001909101908401613ad6565b5085821015613b135787850151600019600388901b60f8161c191681555b5050505050600190811b01905550565b606081526000613b366060830186612fbe565b8281036020840152613b4881866134bb565b90508281036040840152613b5c81856134bb565b9695505050505050565b61ffff861681526001600160a01b038516602082015260a060408201819052600090613b9490830186612fbe565b84151560608401528281036080840152613bae8185612fbe565b98975050505050505050565b60008060408385031215613bcd57600080fd5b505080516020909101519092909150565b600061ffff808816835280871660208401525084604083015260806060830152613c0c608083018486613970565b979650505050505050565b61ffff86168152608060208201526000613c35608083018688613970565b6001600160401b0394909416604083015250606001529392505050565b6001600160401b03831115613c6957613c69612ffd565b613c7d83613c7783546138d8565b83613a1c565b6000601f841160018114613cb15760008515613c995750838201355b600019600387901b1c1916600186901b178355610ba1565b600083815260209020601f19861690835b82811015613ce25786850135825560209485019460019092019101613cc2565b5086821015613cff5760001960f88860031b161c19848701351681555b505060018560011b0183555050505050565b600082601f830112613d2257600080fd5b8151613d2d816130d8565b604051613d3a8282613013565b828152856020848701011115613d4f57600080fd5b611956836020830160208801612f9a565b600060208284031215613d7257600080fd5b81516001600160401b03811115613d8857600080fd5b613d9484828501613d11565b949350505050565b61ffff85168152608060208201526000613db96080830186612fbe565b6001600160401b03851660408401528281036060840152613c0c8185612fbe565b60208082526028908201527f455243313135353a2069647320616e6420616d6f756e7473206c656e677468206040820152670dad2e6dac2e8c6d60c31b606082015260800190565b60208082526025908201527f455243313135353a207472616e7366657220746f20746865207a65726f206164604082015264647265737360d81b606082015260800190565b6020808252602a908201527f455243313135353a20696e73756666696369656e742062616c616e636520666f60408201526939103a3930b739b332b960b11b606082015260800190565b80820180821115610afc57610afc6139cd565b604081526000613ed760408301856134bb565b828103602084015261195681856134bb565b60208082526024908201527f4c7a4170703a205f61646170746572506172616d73206d75737420626520656d604082015263383a3c9760e11b606082015260800190565b60008251613f3f818460208701612f9a565b9190910192915050565b600082601f830112613f5a57600080fd5b81516020613f678261303f565b604051613f748282613013565b80915083815260208101915060208460051b870101935086841115613f9857600080fd5b602086015b848110156130cd5780518352918301918301613f9d565b600080600060608486031215613fc957600080fd5b83516001600160401b0380821115613fe057600080fd5b613fec87838801613d11565b9450602086015191508082111561400257600080fd5b61400e87838801613f49565b9350604086015191508082111561402457600080fd5b5061403186828701613f49565b9150509250925092565b61ffff8616815260a06020820152600061405860a0830187612fbe565b6001600160401b038616604084015282810360608401526140798186612fbe565b90508281036080840152613bae8185612fbe565b6001600160a01b0386811682528516602082015260a0604082018190526000906140b9908301866134bb565b828103606084015261407981866134bb565b6000602082840312156140dd57600080fd5b815161126e81612f17565b600060033d11156141015760046000803e5060005160e01c5b90565b600060443d10156141125790565b6040516003193d81016004833e81513d6001600160401b03816024840111818411171561414157505050505090565b82850191508151818111156141595750505050505090565b843d87010160208285010111156141735750505050505090565b61418260208286010187613013565b509095945050505050565b60208082526028908201527f455243313135353a204552433131353552656365697665722072656a656374656040820152676420746f6b656e7360c01b606082015260800190565b61ffff8716815260c0602082015260006141f260c0830188612fbe565b82810360408401526142048188612fbe565b6001600160a01b0387811660608601528616608085015283810360a0850152905061422f8185612fbe565b9998505050505050505050565b6001600160a01b03868116825285166020820152604081018490526060810183905260a060808201819052600090613c0c90830184612fbe56fea26469706673582212202355088cc8c2a5206d40e869fa098e7fa953f52d5d872db021cec065ee6674ef64736f6c63430008160033",
    "linkReferences": {}
  },
  "methodIdentifiers": {
    "DEFAULT_PAYLOAD_SIZE_LIMIT()": "c4461834",
    "FUNCTION_TYPE_SEND()": "af3fb21c",
    "FUNCTION_TYPE_SEND_BATCH()": "149e3e1f",
    "NO_EXTRA_GAS()": "44770515",
    "balanceOf(address,uint256)": "00fdd58e",
    "balanceOfBatch(address[],uint256[])": "4e1273f4",
    "estimateSendBatchFee(uint16,bytes,uint256[],uint256[],bool,bytes)": "b2535663",
    "estimateSendFee(uint16,bytes,uint256,uint256,bool,bytes)": "8608e5f8",
    "failedMessages(uint16,bytes,uint64)": "5b8c41e6",
    "forceResumeReceive(uint16,bytes)": "42d65a8d",
    "getConfig(uint16,uint16,address,uint256)": "f5ecbdbc",
    "getTrustedRemoteAddress(uint16)": "9f38369a",
    "isApprovedForAll(address,address)": "e985e9c5",
    "isTrustedRemote(uint16,bytes)": "3d8b38f6",
    "lzEndpoint()": "b353aaa7",
    "lzReceive(uint16,bytes,uint64,bytes)": "001d3567",
    "minDstGasLookup(uint16,uint16)": "8cfd8f5c",
    "nonblockingLzReceive(uint16,bytes,uint64,bytes)": "66ad5c8a",
    "owner()": "8da5cb5b",
    "payloadSizeLimitLookup(uint16)": "3f1f4fa4",
    "precrime()": "950c8a74",
    "renounceOwnership()": "715018a6",
    "retryMessage(uint16,bytes,uint64,bytes)": "d1deba1f",
    "safeBatchTransferFrom(address,address,uint256[],uint256[],bytes)": "2eb2c2d6",
    "safeTransferFrom(address,address,uint256,uint256,bytes)": "f242432a",
    "sendBatchFrom(address,uint16,bytes,uint256[],uint256[],address,address,bytes)": "4ab4e687",
    "sendFrom(address,uint16,bytes,uint256,uint256,address,address,bytes)": "4db8226a",
    "setApprovalForAll(address,bool)": "a22cb465",
    "setConfig(uint16,uint16,uint256,bytes)": "cbed8b9c",
    "setMinDstGas(uint16,uint16,uint256)": "df2a5b3b",
    "setPayloadSizeLimit(uint16,uint256)": "0df37483",
    "setPrecrime(address)": "baf3292d",
    "setReceiveVersion(uint16)": "10ddb137",
    "setSendVersion(uint16)": "07e0db17",
    "setTrustedRemote(uint16,bytes)": "eb8d72b7",
    "setTrustedRemoteAddress(uint16,bytes)": "a6c3d165",
    "setUseCustomAdapterParams(bool)": "eab45d9c",
    "supportsInterface(bytes4)": "01ffc9a7",
    "transferOwnership(address)": "f2fde38b",
    "trustedRemoteLookup(uint16)": "7533d788",
    "uri(uint256)": "0e89341c",
    "useCustomAdapterParams()": "ed629c5c"
  },
  "id": 36
}