{
  "abi": [
    {
      "inputs": [
        {
          "internalType": "address",
          "name": "_layerZeroEndpoint",
          "type": "address"
        }
      ],
      "stateMutability": "nonpayable",
      "type": "constructor"
    },
    {
      "anonymous": false,
      "inputs": [
        {
          "indexed": true,
          "internalType": "address",
          "name": "owner",
          "type": "address"
        },
        {
          "indexed": true,
          "internalType": "address",
          "name": "spender",
          "type": "address"
        },
        {
          "indexed": false,
          "internalType": "uint256",
          "name": "value",
          "type": "uint256"
        }
      ],
      "name": "Approval",
      "type": "event"
    },
    {
      "anonymous": false,
      "inputs": [
        {
          "indexed": false,
          "internalType": "uint16",
          "name": "_srcChainId",
          "type": "uint16"
        },
        {
          "indexed": false,
          "internalType": "bytes",
          "name": "_srcAddress",
          "type": "bytes"
        },
        {
          "indexed": false,
          "internalType": "uint64",
          "name": "_nonce",
          "type": "uint64"
        },
        {
          "indexed": false,
          "internalType": "bytes",
          "name": "_payload",
          "type": "bytes"
        },
        {
          "indexed": false,
          "internalType": "bytes",
          "name": "_reason",
          "type": "bytes"
        }
      ],
      "name": "MessageFailed",
      "type": "event"
    },
    {
      "anonymous": false,
      "inputs": [
        {
          "indexed": true,
          "internalType": "address",
          "name": "previousOwner",
          "type": "address"
        },
        {
          "indexed": true,
          "internalType": "address",
          "name": "newOwner",
          "type": "address"
        }
      ],
      "name": "OwnershipTransferred",
      "type": "event"
    },
    {
      "anonymous": false,
      "inputs": [
        {
          "indexed": true,
          "internalType": "uint16",
          "name": "_srcChainId",
          "type": "uint16"
        },
        {
          "indexed": true,
          "internalType": "address",
          "name": "_to",
          "type": "address"
        },
        {
          "indexed": false,
          "internalType": "uint256",
          "name": "_amount",
          "type": "uint256"
        }
      ],
      "name": "ReceiveFromChain",
      "type": "event"
    },
    {
      "anonymous": false,
      "inputs": [
        {
          "indexed": false,
          "internalType": "uint16",
          "name": "_srcChainId",
          "type": "uint16"
        },
        {
          "indexed": false,
          "internalType": "bytes",
          "name": "_srcAddress",
          "type": "bytes"
        },
        {
          "indexed": false,
          "internalType": "uint64",
          "name": "_nonce",
          "type": "uint64"
        },
        {
          "indexed": false,
          "internalType": "bytes32",
          "name": "_payloadHash",
          "type": "bytes32"
        }
      ],
      "name": "RetryMessageSuccess",
      "type": "event"
    },
    {
      "anonymous": false,
      "inputs": [
        {
          "indexed": true,
          "internalType": "uint16",
          "name": "_dstChainId",
          "type": "uint16"
        },
        {
          "indexed": true,
          "internalType": "address",
          "name": "_from",
          "type": "address"
        },
        {
          "indexed": false,
          "internalType": "bytes",
          "name": "_toAddress",
          "type": "bytes"
        },
        {
          "indexed": false,
          "internalType": "uint256",
          "name": "_amount",
          "type": "uint256"
        }
      ],
      "name": "SendToChain",
      "type": "event"
    },
    {
      "anonymous": false,
      "inputs": [
        {
          "indexed": false,
          "internalType": "uint16",
          "name": "_dstChainId",
          "type": "uint16"
        },
        {
          "indexed": false,
          "internalType": "uint16",
          "name": "_type",
          "type": "uint16"
        },
        {
          "indexed": false,
          "internalType": "uint256",
          "name": "_minDstGas",
          "type": "uint256"
        }
      ],
      "name": "SetMinDstGas",
      "type": "event"
    },
    {
      "anonymous": false,
      "inputs": [
        {
          "indexed": false,
          "internalType": "address",
          "name": "precrime",
          "type": "address"
        }
      ],
      "name": "SetPrecrime",
      "type": "event"
    },
    {
      "anonymous": false,
      "inputs": [
        {
          "indexed": false,
          "internalType": "uint16",
          "name": "_remoteChainId",
          "type": "uint16"
        },
        {
          "indexed": false,
          "internalType": "bytes",
          "name": "_path",
          "type": "bytes"
        }
      ],
      "name": "SetTrustedRemote",
      "type": "event"
    },
    {
      "anonymous": false,
      "inputs": [
        {
          "indexed": false,
          "internalType": "uint16",
          "name": "_remoteChainId",
          "type": "uint16"
        },
        {
          "indexed": false,
          "internalType": "bytes",
          "name": "_remoteAddress",
          "type": "bytes"
        }
      ],
      "name": "SetTrustedRemoteAddress",
      "type": "event"
    },
    {
      "anonymous": false,
      "inputs": [
        {
          "indexed": false,
          "internalType": "bool",
          "name": "_useCustomAdapterParams",
          "type": "bool"
        }
      ],
      "name": "SetUseCustomAdapterParams",
      "type": "event"
    },
    {
      "anonymous": false,
      "inputs": [
        {
          "indexed": true,
          "internalType": "address",
          "name": "from",
          "type": "address"
        },
        {
          "indexed": true,
          "internalType": "address",
          "name": "to",
          "type": "address"
        },
        {
          "indexed": false,
          "internalType": "uint256",
          "name": "value",
          "type": "uint256"
        }
      ],
      "name": "Transfer",
      "type": "event"
    },
    {
      "inputs": [],
      "name": "DEFAULT_PAYLOAD_SIZE_LIMIT",
      "outputs": [
        {
          "internalType": "uint256",
          "name": "",
          "type": "uint256"
        }
      ],
      "stateMutability": "view",
      "type": "function"
    },
    {
      "inputs": [],
      "name": "NO_EXTRA_GAS",
      "outputs": [
        {
          "internalType": "uint256",
          "name": "",
          "type": "uint256"
        }
      ],
      "stateMutability": "view",
      "type": "function"
    },
    {
      "inputs": [],
      "name": "PT_SEND",
      "outputs": [
        {
          "internalType": "uint16",
          "name": "",
          "type": "uint16"
        }
      ],
      "stateMutability": "view",
      "type": "function"
    },
    {
      "inputs": [
        {
          "internalType": "address",
          "name": "owner",
          "type": "address"
        },
        {
          "internalType": "address",
          "name": "spender",
          "type": "address"
        }
      ],
      "name": "allowance",
      "outputs": [
        {
          "internalType": "uint256",
          "name": "",
          "type": "uint256"
        }
      ],
      "stateMutability": "view",
      "type": "function"
    },
    {
      "inputs": [
        {
          "internalType": "address",
          "name": "spender",
          "type": "address"
        },
        {
          "internalType": "uint256",
          "name": "amount",
          "type": "uint256"
        }
      ],
      "name": "approve",
      "outputs": [
        {
          "internalType": "bool",
          "name": "",
          "type": "bool"
        }
      ],
      "stateMutability": "nonpayable",
      "type": "function"
    },
    {
      "inputs": [
        {
          "internalType": "address",
          "name": "account",
          "type": "address"
        }
      ],
      "name": "balanceOf",
      "outputs": [
        {
          "internalType": "uint256",
          "name": "",
          "type": "uint256"
        }
      ],
      "stateMutability": "view",
      "type": "function"
    },
    {
      "inputs": [],
      "name": "circulatingSupply",
      "outputs": [
        {
          "internalType": "uint256",
          "name": "",
          "type": "uint256"
        }
      ],
      "stateMutability": "view",
      "type": "function"
    },
    {
      "inputs": [],
      "name": "decimals",
      "outputs": [
        {
          "internalType": "uint8",
          "name": "",
          "type": "uint8"
        }
      ],
      "stateMutability": "view",
      "type": "function"
    },
    {
      "inputs": [
        {
          "internalType": "address",
          "name": "spender",
          "type": "address"
        },
        {
          "internalType": "uint256",
          "name": "subtractedValue",
          "type": "uint256"
        }
      ],
      "name": "decreaseAllowance",
      "outputs": [
        {
          "internalType": "bool",
          "name": "",
          "type": "bool"
        }
      ],
      "stateMutability": "nonpayable",
      "type": "function"
    },
    {
      "inputs": [
        {
          "internalType": "uint16",
          "name": "_dstChainId",
          "type": "uint16"
        },
        {
          "internalType": "bytes",
          "name": "_toAddress",
          "type": "bytes"
        },
        {
          "internalType": "uint256",
          "name": "_amount",
          "type": "uint256"
        },
        {
          "internalType": "bool",
          "name": "_useZro",
          "type": "bool"
        },
        {
          "internalType": "bytes",
          "name": "_adapterParams",
          "type": "bytes"
        }
      ],
      "name": "estimateSendFee",
      "outputs": [
        {
          "internalType": "uint256",
          "name": "nativeFee",
          "type": "uint256"
        },
        {
          "internalType": "uint256",
          "name": "zroFee",
          "type": "uint256"
        }
      ],
      "stateMutability": "view",
      "type": "function"
    },
    {
      "inputs": [
        {
          "internalType": "uint16",
          "name": "",
          "type": "uint16"
        },
        {
          "internalType": "bytes",
          "name": "",
          "type": "bytes"
        },
        {
          "internalType": "uint64",
          "name": "",
          "type": "uint64"
        }
      ],
      "name": "failedMessages",
      "outputs": [
        {
          "internalType": "bytes32",
          "name": "",
          "type": "bytes32"
        }
      ],
      "stateMutability": "view",
      "type": "function"
    },
    {
      "inputs": [
        {
          "internalType": "uint16",
          "name": "_srcChainId",
          "type": "uint16"
        },
        {
          "internalType": "bytes",
          "name": "_srcAddress",
          "type": "bytes"
        }
      ],
      "name": "forceResumeReceive",
      "outputs": [],
      "stateMutability": "nonpayable",
      "type": "function"
    },
    {
      "inputs": [
        {
          "internalType": "uint16",
          "name": "_version",
          "type": "uint16"
        },
        {
          "internalType": "uint16",
          "name": "_chainId",
          "type": "uint16"
        },
        {
          "internalType": "address",
          "name": "",
          "type": "address"
        },
        {
          "internalType": "uint256",
          "name": "_configType",
          "type": "uint256"
        }
      ],
      "name": "getConfig",
      "outputs": [
        {
          "internalType": "bytes",
          "name": "",
          "type": "bytes"
        }
      ],
      "stateMutability": "view",
      "type": "function"
    },
    {
      "inputs": [
        {
          "internalType": "uint16",
          "name": "_remoteChainId",
          "type": "uint16"
        }
      ],
      "name": "getTrustedRemoteAddress",
      "outputs": [
        {
          "internalType": "bytes",
          "name": "",
          "type": "bytes"
        }
      ],
      "stateMutability": "view",
      "type": "function"
    },
    {
      "inputs": [
        {
          "internalType": "address",
          "name": "spender",
          "type": "address"
        },
        {
          "internalType": "uint256",
          "name": "addedValue",
          "type": "uint256"
        }
      ],
      "name": "increaseAllowance",
      "outputs": [
        {
          "internalType": "bool",
          "name": "",
          "type": "bool"
        }
      ],
      "stateMutability": "nonpayable",
      "type": "function"
    },
    {
      "inputs": [
        {
          "internalType": "uint16",
          "name": "_srcChainId",
          "type": "uint16"
        },
        {
          "internalType": "bytes",
          "name": "_srcAddress",
          "type": "bytes"
        }
      ],
      "name": "isTrustedRemote",
      "outputs": [
        {
          "internalType": "bool",
          "name": "",
          "type": "bool"
        }
      ],
      "stateMutability": "view",
      "type": "function"
    },
    {
      "inputs": [],
      "name": "lzEndpoint",
      "outputs": [
        {
          "internalType": "contract ILayerZeroEndpoint",
          "name": "",
          "type": "address"
        }
      ],
      "stateMutability": "view",
      "type": "function"
    },
    {
      "inputs": [
        {
          "internalType": "uint16",
          "name": "_srcChainId",
          "type": "uint16"
        },
        {
          "internalType": "bytes",
          "name": "_srcAddress",
          "type": "bytes"
        },
        {
          "internalType": "uint64",
          "name": "_nonce",
          "type": "uint64"
        },
        {
          "internalType": "bytes",
          "name": "_payload",
          "type": "bytes"
        }
      ],
      "name": "lzReceive",
      "outputs": [],
      "stateMutability": "nonpayable",
      "type": "function"
    },
    {
      "inputs": [
        {
          "internalType": "uint16",
          "name": "",
          "type": "uint16"
        },
        {
          "internalType": "uint16",
          "name": "",
          "type": "uint16"
        }
      ],
      "name": "minDstGasLookup",
      "outputs": [
        {
          "internalType": "uint256",
          "name": "",
          "type": "uint256"
        }
      ],
      "stateMutability": "view",
      "type": "function"
    },
    {
      "inputs": [
        {
          "internalType": "address",
          "name": "_to",
          "type": "address"
        },
        {
          "internalType": "uint256",
          "name": "_amount",
          "type": "uint256"
        }
      ],
      "name": "mintTokens",
      "outputs": [],
      "stateMutability": "nonpayable",
      "type": "function"
    },
    {
      "inputs": [],
      "name": "name",
      "outputs": [
        {
          "internalType": "string",
          "name": "",
          "type": "string"
        }
      ],
      "stateMutability": "view",
      "type": "function"
    },
    {
      "inputs": [
        {
          "internalType": "uint16",
          "name": "_srcChainId",
          "type": "uint16"
        },
        {
          "internalType": "bytes",
          "name": "_srcAddress",
          "type": "bytes"
        },
        {
          "internalType": "uint64",
          "name": "_nonce",
          "type": "uint64"
        },
        {
          "internalType": "bytes",
          "name": "_payload",
          "type": "bytes"
        }
      ],
      "name": "nonblockingLzReceive",
      "outputs": [],
      "stateMutability": "nonpayable",
      "type": "function"
    },
    {
      "inputs": [],
      "name": "owner",
      "outputs": [
        {
          "internalType": "address",
          "name": "",
          "type": "address"
        }
      ],
      "stateMutability": "view",
      "type": "function"
    },
    {
      "inputs": [
        {
          "internalType": "uint16",
          "name": "",
          "type": "uint16"
        }
      ],
      "name": "payloadSizeLimitLookup",
      "outputs": [
        {
          "internalType": "uint256",
          "name": "",
          "type": "uint256"
        }
      ],
      "stateMutability": "view",
      "type": "function"
    },
    {
      "inputs": [],
      "name": "precrime",
      "outputs": [
        {
          "internalType": "address",
          "name": "",
          "type": "address"
        }
      ],
      "stateMutability": "view",
      "type": "function"
    },
    {
      "inputs": [],
      "name": "renounceOwnership",
      "outputs": [],
      "stateMutability": "nonpayable",
      "type": "function"
    },
    {
      "inputs": [
        {
          "internalType": "uint16",
          "name": "_srcChainId",
          "type": "uint16"
        },
        {
          "internalType": "bytes",
          "name": "_srcAddress",
          "type": "bytes"
        },
        {
          "internalType": "uint64",
          "name": "_nonce",
          "type": "uint64"
        },
        {
          "internalType": "bytes",
          "name": "_payload",
          "type": "bytes"
        }
      ],
      "name": "retryMessage",
      "outputs": [],
      "stateMutability": "payable",
      "type": "function"
    },
    {
      "inputs": [
        {
          "internalType": "address",
          "name": "_from",
          "type": "address"
        },
        {
          "internalType": "uint16",
          "name": "_dstChainId",
          "type": "uint16"
        },
        {
          "internalType": "bytes",
          "name": "_toAddress",
          "type": "bytes"
        },
        {
          "internalType": "uint256",
          "name": "_amount",
          "type": "uint256"
        },
        {
          "internalType": "address payable",
          "name": "_refundAddress",
          "type": "address"
        },
        {
          "internalType": "address",
          "name": "_zroPaymentAddress",
          "type": "address"
        },
        {
          "internalType": "bytes",
          "name": "_adapterParams",
          "type": "bytes"
        }
      ],
      "name": "sendFrom",
      "outputs": [],
      "stateMutability": "payable",
      "type": "function"
    },
    {
      "inputs": [
        {
          "internalType": "uint16",
          "name": "_version",
          "type": "uint16"
        },
        {
          "internalType": "uint16",
          "name": "_chainId",
          "type": "uint16"
        },
        {
          "internalType": "uint256",
          "name": "_configType",
          "type": "uint256"
        },
        {
          "internalType": "bytes",
          "name": "_config",
          "type": "bytes"
        }
      ],
      "name": "setConfig",
      "outputs": [],
      "stateMutability": "nonpayable",
      "type": "function"
    },
    {
      "inputs": [
        {
          "internalType": "uint16",
          "name": "_dstChainId",
          "type": "uint16"
        },
        {
          "internalType": "uint16",
          "name": "_packetType",
          "type": "uint16"
        },
        {
          "internalType": "uint256",
          "name": "_minGas",
          "type": "uint256"
        }
      ],
      "name": "setMinDstGas",
      "outputs": [],
      "stateMutability": "nonpayable",
      "type": "function"
    },
    {
      "inputs": [
        {
          "internalType": "uint16",
          "name": "_dstChainId",
          "type": "uint16"
        },
        {
          "internalType": "uint256",
          "name": "_size",
          "type": "uint256"
        }
      ],
      "name": "setPayloadSizeLimit",
      "outputs": [],
      "stateMutability": "nonpayable",
      "type": "function"
    },
    {
      "inputs": [
        {
          "internalType": "address",
          "name": "_precrime",
          "type": "address"
        }
      ],
      "name": "setPrecrime",
      "outputs": [],
      "stateMutability": "nonpayable",
      "type": "function"
    },
    {
      "inputs": [
        {
          "internalType": "uint16",
          "name": "_version",
          "type": "uint16"
        }
      ],
      "name": "setReceiveVersion",
      "outputs": [],
      "stateMutability": "nonpayable",
      "type": "function"
    },
    {
      "inputs": [
        {
          "internalType": "uint16",
          "name": "_version",
          "type": "uint16"
        }
      ],
      "name": "setSendVersion",
      "outputs": [],
      "stateMutability": "nonpayable",
      "type": "function"
    },
    {
      "inputs": [
        {
          "internalType": "uint16",
          "name": "_remoteChainId",
          "type": "uint16"
        },
        {
          "internalType": "bytes",
          "name": "_path",
          "type": "bytes"
        }
      ],
      "name": "setTrustedRemote",
      "outputs": [],
      "stateMutability": "nonpayable",
      "type": "function"
    },
    {
      "inputs": [
        {
          "internalType": "uint16",
          "name": "_remoteChainId",
          "type": "uint16"
        },
        {
          "internalType": "bytes",
          "name": "_remoteAddress",
          "type": "bytes"
        }
      ],
      "name": "setTrustedRemoteAddress",
      "outputs": [],
      "stateMutability": "nonpayable",
      "type": "function"
    },
    {
      "inputs": [
        {
          "internalType": "bool",
          "name": "_useCustomAdapterParams",
          "type": "bool"
        }
      ],
      "name": "setUseCustomAdapterParams",
      "outputs": [],
      "stateMutability": "nonpayable",
      "type": "function"
    },
    {
      "inputs": [
        {
          "internalType": "bytes4",
          "name": "interfaceId",
          "type": "bytes4"
        }
      ],
      "name": "supportsInterface",
      "outputs": [
        {
          "internalType": "bool",
          "name": "",
          "type": "bool"
        }
      ],
      "stateMutability": "view",
      "type": "function"
    },
    {
      "inputs": [],
      "name": "symbol",
      "outputs": [
        {
          "internalType": "string",
          "name": "",
          "type": "string"
        }
      ],
      "stateMutability": "view",
      "type": "function"
    },
    {
      "inputs": [],
      "name": "token",
      "outputs": [
        {
          "internalType": "address",
          "name": "",
          "type": "address"
        }
      ],
      "stateMutability": "view",
      "type": "function"
    },
    {
      "inputs": [],
      "name": "totalSupply",
      "outputs": [
        {
          "internalType": "uint256",
          "name": "",
          "type": "uint256"
        }
      ],
      "stateMutability": "view",
      "type": "function"
    },
    {
      "inputs": [
        {
          "internalType": "address",
          "name": "to",
          "type": "address"
        },
        {
          "internalType": "uint256",
          "name": "amount",
          "type": "uint256"
        }
      ],
      "name": "transfer",
      "outputs": [
        {
          "internalType": "bool",
          "name": "",
          "type": "bool"
        }
      ],
      "stateMutability": "nonpayable",
      "type": "function"
    },
    {
      "inputs": [
        {
          "internalType": "address",
          "name": "from",
          "type": "address"
        },
        {
          "internalType": "address",
          "name": "to",
          "type": "address"
        },
        {
          "internalType": "uint256",
          "name": "amount",
          "type": "uint256"
        }
      ],
      "name": "transferFrom",
      "outputs": [
        {
          "internalType": "bool",
          "name": "",
          "type": "bool"
        }
      ],
      "stateMutability": "nonpayable",
      "type": "function"
    },
    {
      "inputs": [
        {
          "internalType": "address",
          "name": "newOwner",
          "type": "address"
        }
      ],
      "name": "transferOwnership",
      "outputs": [],
      "stateMutability": "nonpayable",
      "type": "function"
    },
    {
      "inputs": [
        {
          "internalType": "uint16",
          "name": "",
          "type": "uint16"
        }
      ],
      "name": "trustedRemoteLookup",
      "outputs": [
        {
          "internalType": "bytes",
          "name": "",
          "type": "bytes"
        }
      ],
      "stateMutability": "view",
      "type": "function"
    },
    {
      "inputs": [],
      "name": "useCustomAdapterParams",
      "outputs": [
        {
          "internalType": "bool",
          "name": "",
          "type": "bool"
        }
      ],
      "stateMutability": "view",
      "type": "function"
    }
  ],
  "bytecode": {
    "object": "0x60a06040523480156200001157600080fd5b50604051620037d5380380620037d583398101604081905262000034916200011d565b60405180604001604052806007815260200166135bd8dad3d19560ca1b8152506040518060400160405280600381526020016213d19560ea1b815250828282828080620000906200008a620000c960201b60201c565b620000cd565b6001600160a01b031660805250600a9050620000ad8382620001f6565b50600b620000bc8282620001f6565b50505050505050620002c2565b3390565b600080546001600160a01b038381166001600160a01b0319831681178455604051919092169283917f8be0079c531659141344cd1fd0a4f28419497f9722a3daafe3b4186f6b6457e09190a35050565b6000602082840312156200013057600080fd5b81516001600160a01b03811681146200014857600080fd5b9392505050565b634e487b7160e01b600052604160045260246000fd5b600181811c908216806200017a57607f821691505b6020821081036200019b57634e487b7160e01b600052602260045260246000fd5b50919050565b601f821115620001f1576000816000526020600020601f850160051c81016020861015620001cc5750805b601f850160051c820191505b81811015620001ed57828155600101620001d8565b5050505b505050565b81516001600160401b038111156200021257620002126200014f565b6200022a8162000223845462000165565b84620001a1565b602080601f831160018114620002625760008415620002495750858301515b600019600386901b1c1916600185901b178555620001ed565b600085815260208120601f198616915b82811015620002935788860151825594840194600190910190840162000272565b5085821015620002b25787850151600019600388901b60f8161c191681555b5050505050600190811b01905550565b6080516134bf6200031660003960008181610707015281816108a201528181610bc101528181610c8101528181610d1f01528181610ebc015281816113f501528181611866015261236401526134bf6000f3fe60806040526004361061027c5760003560e01c80638cfd8f5c1161014f578063c4461834116100c1578063eb8d72b71161007a578063eb8d72b7146107f2578063ed629c5c14610812578063f0dda65c1461082c578063f2fde38b1461084c578063f5ecbdbc1461086c578063fc0c546a1461088c57600080fd5b8063c446183414610749578063cbed8b9c1461075f578063d1deba1f1461077f578063dd62ed3e14610792578063df2a5b3b146107b2578063eab45d9c146107d257600080fd5b80639f38369a116101135780639f38369a14610675578063a457c2d714610695578063a6c3d165146106b5578063a9059cbb146106d5578063b353aaa7146106f5578063baf3292d1461072957600080fd5b80638cfd8f5c146105c15780638da5cb5b146105f95780639358928b1461062b578063950c8a741461064057806395d89b411461066057600080fd5b806339509351116101f357806351905636116101ac57806351905636146104d45780635b8c41e6146104e757806366ad5c8a1461053657806370a0823114610556578063715018a61461058c5780637533d788146105a157600080fd5b8063395093511461040a5780633d8b38f61461042a5780633f1f4fa41461044a57806342d65a8d1461047757806344770515146104975780634c42899a146104ac57600080fd5b80630df37483116102455780630df374831461033a57806310ddb1371461035a57806318160ddd1461037a57806323b872dd146103995780632a205e3d146103b9578063313ce567146103ee57600080fd5b80621d35671461028157806301ffc9a7146102a357806306fdde03146102d857806307e0db17146102fa578063095ea7b31461031a575b600080fd5b34801561028d57600080fd5b506102a161029c36600461282c565b61089f565b005b3480156102af57600080fd5b506102c36102be3660046128c1565b610ad0565b60405190151581526020015b60405180910390f35b3480156102e457600080fd5b506102ed610b0e565b6040516102cf919061293b565b34801561030657600080fd5b506102a161031536600461294e565b610ba0565b34801561032657600080fd5b506102c3610335366004612980565b610c29565b34801561034657600080fd5b506102a16103553660046129ac565b610c41565b34801561036657600080fd5b506102a161037536600461294e565b610c60565b34801561038657600080fd5b506009545b6040519081526020016102cf565b3480156103a557600080fd5b506102c36103b43660046129ca565b610cb8565b3480156103c557600080fd5b506103d96103d4366004612a1b565b610cdc565b604080519283526020830191909152016102cf565b3480156103fa57600080fd5b50604051601281526020016102cf565b34801561041657600080fd5b506102c3610425366004612980565b610daf565b34801561043657600080fd5b506102c3610445366004612aba565b610dd1565b34801561045657600080fd5b5061038b61046536600461294e565b60036020526000908152604090205481565b34801561048357600080fd5b506102a1610492366004612aba565b610e9d565b3480156104a357600080fd5b5061038b600081565b3480156104b857600080fd5b506104c1600081565b60405161ffff90911681526020016102cf565b6102a16104e2366004612b0e565b610f23565b3480156104f357600080fd5b5061038b610502366004612c44565b6005602090815260009384526040808520845180860184018051928152908401958401959095209452929052825290205481565b34801561054257600080fd5b506102a161055136600461282c565b610fa8565b34801561056257600080fd5b5061038b610571366004612ce6565b6001600160a01b031660009081526007602052604090205490565b34801561059857600080fd5b506102a1611084565b3480156105ad57600080fd5b506102ed6105bc36600461294e565b611098565b3480156105cd57600080fd5b5061038b6105dc366004612d03565b600260209081526000928352604080842090915290825290205481565b34801561060557600080fd5b506000546001600160a01b03165b6040516001600160a01b0390911681526020016102cf565b34801561063757600080fd5b5061038b611132565b34801561064c57600080fd5b50600454610613906001600160a01b031681565b34801561066c57600080fd5b506102ed611142565b34801561068157600080fd5b506102ed61069036600461294e565b611151565b3480156106a157600080fd5b506102c36106b0366004612980565b611267565b3480156106c157600080fd5b506102a16106d0366004612aba565b6112e2565b3480156106e157600080fd5b506102c36106f0366004612980565b61136b565b34801561070157600080fd5b506106137f000000000000000000000000000000000000000000000000000000000000000081565b34801561073557600080fd5b506102a1610744366004612ce6565b611379565b34801561075557600080fd5b5061038b61271081565b34801561076b57600080fd5b506102a161077a366004612d3c565b6113d6565b6102a161078d36600461282c565b611460565b34801561079e57600080fd5b5061038b6107ad366004612dae565b611676565b3480156107be57600080fd5b506102a16107cd366004612ddc565b6116a1565b3480156107de57600080fd5b506102a16107ed366004612e0c565b61170b565b3480156107fe57600080fd5b506102a161080d366004612aba565b611754565b34801561081e57600080fd5b506006546102c39060ff1681565b34801561083857600080fd5b506102a1610847366004612980565b6117ae565b34801561085857600080fd5b506102a1610867366004612ce6565b6117bc565b34801561087857600080fd5b506102ed610887366004612e27565b611835565b34801561089857600080fd5b5030610613565b337f00000000000000000000000000000000000000000000000000000000000000006001600160a01b03161461091c5760405162461bcd60e51b815260206004820152601e60248201527f4c7a4170703a20696e76616c696420656e64706f696e742063616c6c6572000060448201526064015b60405180910390fd5b61ffff86166000908152600160205260408120805461093a90612e78565b80601f016020809104026020016040519081016040528092919081815260200182805461096690612e78565b80156109b35780601f10610988576101008083540402835291602001916109b3565b820191906000526020600020905b81548152906001019060200180831161099657829003601f168201915b505050505090508051868690501480156109ce575060008151115b80156109f65750805160208201206040516109ec9088908890612eb2565b6040518091039020145b610a515760405162461bcd60e51b815260206004820152602660248201527f4c7a4170703a20696e76616c696420736f757263652073656e64696e6720636f6044820152651b9d1c9858dd60d21b6064820152608401610913565b610ac78787878080601f01602080910402602001604051908101604052809392919081815260200183838082843760009201919091525050604080516020601f8a018190048102820181019092528881528a9350915088908890819084018382808284376000920191909152506118e692505050565b50505050505050565b60006001600160e01b031982161580610af957506001600160e01b031982166336372b0760e01b145b80610b085750610b088261195f565b92915050565b6060600a8054610b1d90612e78565b80601f0160208091040260200160405190810160405280929190818152602001828054610b4990612e78565b8015610b965780601f10610b6b57610100808354040283529160200191610b96565b820191906000526020600020905b815481529060010190602001808311610b7957829003601f168201915b5050505050905090565b610ba8611994565b6040516307e0db1760e01b815261ffff821660048201527f00000000000000000000000000000000000000000000000000000000000000006001600160a01b0316906307e0db17906024015b600060405180830381600087803b158015610c0e57600080fd5b505af1158015610c22573d6000803e3d6000fd5b5050505050565b600033610c378185856119ee565b5060019392505050565b610c49611994565b61ffff909116600090815260036020526040902055565b610c68611994565b6040516310ddb13760e01b815261ffff821660048201527f00000000000000000000000000000000000000000000000000000000000000006001600160a01b0316906310ddb13790602401610bf4565b600033610cc6858285611b12565b610cd1858585611b8c565b506001949350505050565b600080600080898989604051602001610cf89493929190612eeb565b60408051601f198184030181529082905263040a7bb160e41b825291506001600160a01b037f000000000000000000000000000000000000000000000000000000000000000016906340a7bb1090610d5e908d90309086908c908c908c90600401612f1a565b6040805180830381865afa158015610d7a573d6000803e3d6000fd5b505050506040513d601f19601f82011682018060405250810190610d9e9190612f70565b925092505097509795505050505050565b600033610c37818585610dc28383611676565b610dcc9190612faa565b6119ee565b61ffff831660009081526001602052604081208054829190610df290612e78565b80601f0160208091040260200160405190810160405280929190818152602001828054610e1e90612e78565b8015610e6b5780601f10610e4057610100808354040283529160200191610e6b565b820191906000526020600020905b815481529060010190602001808311610e4e57829003601f168201915b505050505090508383604051610e82929190612eb2565b60405180910390208180519060200120149150509392505050565b610ea5611994565b6040516342d65a8d60e01b81526001600160a01b037f000000000000000000000000000000000000000000000000000000000000000016906342d65a8d90610ef590869086908690600401612fbd565b600060405180830381600087803b158015610f0f57600080fd5b505af1158015610ac7573d6000803e3d6000fd5b610f9d898989898080601f01602080910402602001604051908101604052809392919081815260200183838082843760009201919091525050604080516020601f8a018190048102820181019092528881528c93508b92508a918a908a9081908401838280828437600092019190915250611d3792505050565b505050505050505050565b3330146110065760405162461bcd60e51b815260206004820152602660248201527f4e6f6e626c6f636b696e674c7a4170703a2063616c6c6572206d7573742062656044820152650204c7a4170760d41b6064820152608401610913565b61107c8686868080601f01602080910402602001604051908101604052809392919081815260200183838082843760009201919091525050604080516020601f890181900481028201810190925287815289935091508790879081908401838280828437600092019190915250611dde92505050565b505050505050565b61108c611994565b6110966000611e45565b565b600160205260009081526040902080546110b190612e78565b80601f01602080910402602001604051908101604052809291908181526020018280546110dd90612e78565b801561112a5780601f106110ff5761010080835404028352916020019161112a565b820191906000526020600020905b81548152906001019060200180831161110d57829003601f168201915b505050505081565b600061113d60095490565b905090565b6060600b8054610b1d90612e78565b61ffff811660009081526001602052604081208054606092919061117490612e78565b80601f01602080910402602001604051908101604052809291908181526020018280546111a090612e78565b80156111ed5780601f106111c2576101008083540402835291602001916111ed565b820191906000526020600020905b8154815290600101906020018083116111d057829003601f168201915b5050505050905080516000036112455760405162461bcd60e51b815260206004820152601d60248201527f4c7a4170703a206e6f20747275737465642070617468207265636f72640000006044820152606401610913565b6112606000601483516112589190612fdb565b839190611e95565b9392505050565b600033816112758286611676565b9050838110156112d55760405162461bcd60e51b815260206004820152602560248201527f45524332303a2064656372656173656420616c6c6f77616e63652062656c6f77604482015264207a65726f60d81b6064820152608401610913565b610cd182868684036119ee565b6112ea611994565b8181306040516020016112ff93929190612fee565b60408051601f1981840301815291815261ffff851660009081526001602052209061132a908261305c565b507f8c0400cfe2d1199b1a725c78960bcc2a344d869b80590d0f2bd005db15a572ce83838360405161135e93929190612fbd565b60405180910390a1505050565b600033610c37818585611b8c565b611381611994565b600480546001600160a01b0319166001600160a01b0383169081179091556040519081527f5db758e995a17ec1ad84bdef7e8c3293a0bd6179bcce400dff5d4c3d87db726b906020015b60405180910390a150565b6113de611994565b6040516332fb62e760e21b81526001600160a01b037f0000000000000000000000000000000000000000000000000000000000000000169063cbed8b9c90611432908890889088908890889060040161311b565b600060405180830381600087803b15801561144c57600080fd5b505af1158015610f9d573d6000803e3d6000fd5b61ffff861660009081526005602052604080822090516114839088908890612eb2565b90815260408051602092819003830190206001600160401b038716600090815292529020549050806115035760405162461bcd60e51b815260206004820152602360248201527f4e6f6e626c6f636b696e674c7a4170703a206e6f2073746f726564206d65737360448201526261676560e81b6064820152608401610913565b808383604051611514929190612eb2565b6040518091039020146115735760405162461bcd60e51b815260206004820152602160248201527f4e6f6e626c6f636b696e674c7a4170703a20696e76616c6964207061796c6f616044820152601960fa1b6064820152608401610913565b61ffff871660009081526005602052604080822090516115969089908990612eb2565b90815260408051602092819003830181206001600160401b038916600090815290845282902093909355601f8801829004820283018201905286825261162e918991899089908190840183828082843760009201919091525050604080516020601f8a018190048102820181019092528881528a935091508890889081908401838280828437600092019190915250611dde92505050565b7fc264d91f3adc5588250e1551f547752ca0cfa8f6b530d243b9f9f4cab10ea8e58787878785604051611665959493929190613154565b60405180910390a150505050505050565b6001600160a01b03918216600090815260086020908152604080832093909416825291909152205490565b6116a9611994565b61ffff83811660008181526002602090815260408083209487168084529482529182902085905581519283528201929092529081018290527f9d5c7c0b934da8fefa9c7760c98383778a12dfbfc0c3b3106518f43fb9508ac09060600161135e565b611713611994565b6006805460ff19168215159081179091556040519081527f1584ad594a70cbe1e6515592e1272a987d922b097ead875069cebe8b40c004a4906020016113cb565b61175c611994565b61ffff8316600090815260016020526040902061177a82848361318f565b507ffa41487ad5d6728f0b19276fa1eddc16558578f5109fc39d2dc33c3230470dab83838360405161135e93929190612fbd565b6117b88282611fa2565b5050565b6117c4611994565b6001600160a01b0381166118295760405162461bcd60e51b815260206004820152602660248201527f4f776e61626c653a206e6577206f776e657220697320746865207a65726f206160448201526564647265737360d01b6064820152608401610913565b61183281611e45565b50565b604051633d7b2f6f60e21b815261ffff808616600483015284166024820152306044820152606481018290526060907f00000000000000000000000000000000000000000000000000000000000000006001600160a01b03169063f5ecbdbc90608401600060405180830381865afa1580156118b5573d6000803e3d6000fd5b505050506040513d6000823e601f3d908101601f191682016040526118dd919081019061329b565b95945050505050565b6000806119495a60966366ad5c8a60e01b8989898960405160240161190e94939291906132cf565b60408051601f198184030181529190526020810180516001600160e01b03166001600160e01b03199093169290921790915230929190612063565b915091508161107c5761107c86868686856120ed565b60006001600160e01b03198216630a72677560e11b1480610b0857506301ffc9a760e01b6001600160e01b0319831614610b08565b6000546001600160a01b031633146110965760405162461bcd60e51b815260206004820181905260248201527f4f776e61626c653a2063616c6c6572206973206e6f7420746865206f776e65726044820152606401610913565b6001600160a01b038316611a505760405162461bcd60e51b8152602060048201526024808201527f45524332303a20617070726f76652066726f6d20746865207a65726f206164646044820152637265737360e01b6064820152608401610913565b6001600160a01b038216611ab15760405162461bcd60e51b815260206004820152602260248201527f45524332303a20617070726f766520746f20746865207a65726f206164647265604482015261737360f01b6064820152608401610913565b6001600160a01b0383811660008181526008602090815260408083209487168084529482529182902085905590518481527f8c5be1e5ebec7d5bd14f71427d1e84f3dd0314c0f7b2291e5b200ac8c7c3b925910160405180910390a3505050565b6000611b1e8484611676565b90506000198114611b865781811015611b795760405162461bcd60e51b815260206004820152601d60248201527f45524332303a20696e73756666696369656e7420616c6c6f77616e63650000006044820152606401610913565b611b8684848484036119ee565b50505050565b6001600160a01b038316611bf05760405162461bcd60e51b815260206004820152602560248201527f45524332303a207472616e736665722066726f6d20746865207a65726f206164604482015264647265737360d81b6064820152608401610913565b6001600160a01b038216611c525760405162461bcd60e51b815260206004820152602360248201527f45524332303a207472616e7366657220746f20746865207a65726f206164647260448201526265737360e81b6064820152608401610913565b6001600160a01b03831660009081526007602052604090205481811015611cca5760405162461bcd60e51b815260206004820152602660248201527f45524332303a207472616e7366657220616d6f756e7420657863656564732062604482015265616c616e636560d01b6064820152608401610913565b6001600160a01b0380851660008181526007602052604080822086860390559286168082529083902080548601905591517fddf252ad1be2c89b69c2b068fc378daa952ba7f163c4a11628f55a4df523b3ef90611d2a9086815260200190565b60405180910390a3611b86565b611d4586600083600061218f565b6000611d5388888888612209565b90506000808783604051602001611d6c9392919061330d565b6040516020818303038152906040529050611d8b88828787873461223b565b886001600160a01b03168861ffff167f39a4c66499bcf4b56d79f0dde8ed7a9d4925a0df55825206b2b8531e202be0d08985604051611dcb92919061333a565b60405180910390a3505050505050505050565b602081015161ffff8116611dfd57611df8858585856123e0565b610c22565b60405162461bcd60e51b815260206004820152601c60248201527f4f4654436f72653a20756e6b6e6f776e207061636b65742074797065000000006044820152606401610913565b600080546001600160a01b038381166001600160a01b0319831681178455604051919092169283917f8be0079c531659141344cd1fd0a4f28419497f9722a3daafe3b4186f6b6457e09190a35050565b606081611ea381601f612faa565b1015611ee25760405162461bcd60e51b815260206004820152600e60248201526d736c6963655f6f766572666c6f7760901b6044820152606401610913565b611eec8284612faa565b84511015611f305760405162461bcd60e51b8152602060048201526011602482015270736c6963655f6f75744f66426f756e647360781b6044820152606401610913565b606082158015611f4f5760405191506000825260208201604052611f99565b6040519150601f8416801560200281840101858101878315602002848b0101015b81831015611f88578051835260209283019201611f70565b5050858452601f01601f1916604052505b50949350505050565b6001600160a01b038216611ff85760405162461bcd60e51b815260206004820152601f60248201527f45524332303a206d696e7420746f20746865207a65726f2061646472657373006044820152606401610913565b806009600082825461200a9190612faa565b90915550506001600160a01b0382166000818152600760209081526040808320805486019055518481527fddf252ad1be2c89b69c2b068fc378daa952ba7f163c4a11628f55a4df523b3ef910160405180910390a35050565b6000606060008060008661ffff166001600160401b0381111561208857612088612bd7565b6040519080825280601f01601f1916602001820160405280156120b2576020820181803683370190505b50905060008087516020890160008d8df191503d9250868311156120d4578692505b828152826000602083013e909890975095505050505050565b8180519060200120600560008761ffff1661ffff1681526020019081526020016000208560405161211e919061335c565b9081526040805191829003602090810183206001600160401b0388166000908152915220919091557fe183f33de2837795525b4792ca4cd60535bd77c53b7e7030060bfcf5734d6b0c9061217b9087908790879087908790613378565b60405180910390a15050505050565b505050565b60065460ff16156121ab576121a68484848461246a565b611b86565b815115611b865760405162461bcd60e51b815260206004820152602660248201527f4f4654436f72653a205f61646170746572506172616d73206d7573742062652060448201526532b6b83a3c9760d11b6064820152608401610913565b6000336001600160a01b038616811461222757612227868285611b12565b612231868461253f565b5090949350505050565b61ffff86166000908152600160205260408120805461225990612e78565b80601f016020809104026020016040519081016040528092919081815260200182805461228590612e78565b80156122d25780601f106122a7576101008083540402835291602001916122d2565b820191906000526020600020905b8154815290600101906020018083116122b557829003601f168201915b5050505050905080516000036123435760405162461bcd60e51b815260206004820152603060248201527f4c7a4170703a2064657374696e6174696f6e20636861696e206973206e6f742060448201526f61207472757374656420736f7572636560801b6064820152608401610913565b61234e878751612673565b60405162c5803160e81b81526001600160a01b037f0000000000000000000000000000000000000000000000000000000000000000169063c58031009084906123a5908b9086908c908c908c908c906004016133d6565b6000604051808303818588803b1580156123be57600080fd5b505af11580156123d2573d6000803e3d6000fd5b505050505050505050505050565b600080828060200190518101906123f79190613430565b90935091506000905061240a83826126e4565b9050612417878284612749565b9150806001600160a01b03168761ffff167fbf551ec93859b170f9b2141bd9298bf3f64322c6f7beb2543a0cb669834118bf8460405161245991815260200190565b60405180910390a350505050505050565b60006124758361275c565b61ffff808716600090815260026020908152604080832093891683529290522054909150806124e65760405162461bcd60e51b815260206004820152601a60248201527f4c7a4170703a206d696e4761734c696d6974206e6f74207365740000000000006044820152606401610913565b6124f08382612faa565b82101561107c5760405162461bcd60e51b815260206004820152601b60248201527f4c7a4170703a20676173206c696d697420697320746f6f206c6f7700000000006044820152606401610913565b6001600160a01b03821661259f5760405162461bcd60e51b815260206004820152602160248201527f45524332303a206275726e2066726f6d20746865207a65726f206164647265736044820152607360f81b6064820152608401610913565b6001600160a01b038216600090815260076020526040902054818110156126135760405162461bcd60e51b815260206004820152602260248201527f45524332303a206275726e20616d6f756e7420657863656564732062616c616e604482015261636560f01b6064820152608401610913565b6001600160a01b03831660008181526007602090815260408083208686039055600980548790039055518581529192917fddf252ad1be2c89b69c2b068fc378daa952ba7f163c4a11628f55a4df523b3ef910160405180910390a3505050565b61ffff82166000908152600360205260408120549081900361269457506127105b8082111561218a5760405162461bcd60e51b815260206004820181905260248201527f4c7a4170703a207061796c6f61642073697a6520697320746f6f206c617267656044820152606401610913565b60006126f1826014612faa565b835110156127395760405162461bcd60e51b8152602060048201526015602482015274746f416464726573735f6f75744f66426f756e647360581b6044820152606401610913565b500160200151600160601b900490565b60006127558383611fa2565b5092915050565b60006022825110156127b05760405162461bcd60e51b815260206004820152601c60248201527f4c7a4170703a20696e76616c69642061646170746572506172616d73000000006044820152606401610913565b506022015190565b61ffff8116811461183257600080fd5b60008083601f8401126127da57600080fd5b5081356001600160401b038111156127f157600080fd5b60208301915083602082850101111561280957600080fd5b9250929050565b80356001600160401b038116811461282757600080fd5b919050565b6000806000806000806080878903121561284557600080fd5b8635612850816127b8565b955060208701356001600160401b038082111561286c57600080fd5b6128788a838b016127c8565b909750955085915061288c60408a01612810565b945060608901359150808211156128a257600080fd5b506128af89828a016127c8565b979a9699509497509295939492505050565b6000602082840312156128d357600080fd5b81356001600160e01b03198116811461126057600080fd5b60005b838110156129065781810151838201526020016128ee565b50506000910152565b600081518084526129278160208601602086016128eb565b601f01601f19169290920160200192915050565b602081526000611260602083018461290f565b60006020828403121561296057600080fd5b8135611260816127b8565b6001600160a01b038116811461183257600080fd5b6000806040838503121561299357600080fd5b823561299e8161296b565b946020939093013593505050565b600080604083850312156129bf57600080fd5b823561299e816127b8565b6000806000606084860312156129df57600080fd5b83356129ea8161296b565b925060208401356129fa8161296b565b929592945050506040919091013590565b8035801515811461282757600080fd5b600080600080600080600060a0888a031215612a3657600080fd5b8735612a41816127b8565b965060208801356001600160401b0380821115612a5d57600080fd5b612a698b838c016127c8565b909850965060408a01359550869150612a8460608b01612a0b565b945060808a0135915080821115612a9a57600080fd5b50612aa78a828b016127c8565b989b979a50959850939692959293505050565b600080600060408486031215612acf57600080fd5b8335612ada816127b8565b925060208401356001600160401b03811115612af557600080fd5b612b01868287016127c8565b9497909650939450505050565b600080600080600080600080600060e08a8c031215612b2c57600080fd5b8935612b378161296b565b985060208a0135612b47816127b8565b975060408a01356001600160401b0380821115612b6357600080fd5b612b6f8d838e016127c8565b909950975060608c0135965060808c01359150612b8b8261296b565b90945060a08b013590612b9d8261296b565b90935060c08b01359080821115612bb357600080fd5b50612bc08c828d016127c8565b915080935050809150509295985092959850929598565b634e487b7160e01b600052604160045260246000fd5b604051601f8201601f191681016001600160401b0381118282101715612c1557612c15612bd7565b604052919050565b60006001600160401b03821115612c3657612c36612bd7565b50601f01601f191660200190565b600080600060608486031215612c5957600080fd5b8335612c64816127b8565b925060208401356001600160401b03811115612c7f57600080fd5b8401601f81018613612c9057600080fd5b8035612ca3612c9e82612c1d565b612bed565b818152876020838501011115612cb857600080fd5b81602084016020830137600060208383010152809450505050612cdd60408501612810565b90509250925092565b600060208284031215612cf857600080fd5b81356112608161296b565b60008060408385031215612d1657600080fd5b8235612d21816127b8565b91506020830135612d31816127b8565b809150509250929050565b600080600080600060808688031215612d5457600080fd5b8535612d5f816127b8565b94506020860135612d6f816127b8565b93506040860135925060608601356001600160401b03811115612d9157600080fd5b612d9d888289016127c8565b969995985093965092949392505050565b60008060408385031215612dc157600080fd5b8235612dcc8161296b565b91506020830135612d318161296b565b600080600060608486031215612df157600080fd5b8335612dfc816127b8565b925060208401356129fa816127b8565b600060208284031215612e1e57600080fd5b61126082612a0b565b60008060008060808587031215612e3d57600080fd5b8435612e48816127b8565b93506020850135612e58816127b8565b92506040850135612e688161296b565b9396929550929360600135925050565b600181811c90821680612e8c57607f821691505b602082108103612eac57634e487b7160e01b600052602260045260246000fd5b50919050565b8183823760009101908152919050565b81835281816020850137506000828201602090810191909152601f909101601f19169091010190565b61ffff85168152606060208201526000612f09606083018587612ec2565b905082604083015295945050505050565b61ffff871681526001600160a01b038616602082015260a060408201819052600090612f489083018761290f565b85151560608401528281036080840152612f63818587612ec2565b9998505050505050505050565b60008060408385031215612f8357600080fd5b505080516020909101519092909150565b634e487b7160e01b600052601160045260246000fd5b80820180821115610b0857610b08612f94565b61ffff841681526040602082015260006118dd604083018486612ec2565b81810381811115610b0857610b08612f94565b8284823760609190911b6bffffffffffffffffffffffff19169101908152601401919050565b601f82111561218a576000816000526020600020601f850160051c8101602086101561303d5750805b601f850160051c820191505b8181101561107c57828155600101613049565b81516001600160401b0381111561307557613075612bd7565b613089816130838454612e78565b84613014565b602080601f8311600181146130be57600084156130a65750858301515b600019600386901b1c1916600185901b17855561107c565b600085815260208120601f198616915b828110156130ed578886015182559484019460019091019084016130ce565b508582101561310b5787850151600019600388901b60f8161c191681555b5050505050600190811b01905550565b600061ffff808816835280871660208401525084604083015260806060830152613149608083018486612ec2565b979650505050505050565b61ffff86168152608060208201526000613172608083018688612ec2565b6001600160401b0394909416604083015250606001529392505050565b6001600160401b038311156131a6576131a6612bd7565b6131ba836131b48354612e78565b83613014565b6000601f8411600181146131ee57600085156131d65750838201355b600019600387901b1c1916600186901b178355610c22565b600083815260209020601f19861690835b8281101561321f57868501358255602094850194600190920191016131ff565b508682101561323c5760001960f88860031b161c19848701351681555b505060018560011b0183555050505050565b600082601f83011261325f57600080fd5b815161326d612c9e82612c1d565b81815284602083860101111561328257600080fd5b6132938260208301602087016128eb565b949350505050565b6000602082840312156132ad57600080fd5b81516001600160401b038111156132c357600080fd5b6132938482850161324e565b61ffff851681526080602082015260006132ec608083018661290f565b6001600160401b03851660408401528281036060840152613149818561290f565b61ffff8416815260606020820152600061332a606083018561290f565b9050826040830152949350505050565b60408152600061334d604083018561290f565b90508260208301529392505050565b6000825161336e8184602087016128eb565b9190910192915050565b61ffff8616815260a06020820152600061339560a083018761290f565b6001600160401b038616604084015282810360608401526133b6818661290f565b905082810360808401526133ca818561290f565b98975050505050505050565b61ffff8716815260c0602082015260006133f360c083018861290f565b8281036040840152613405818861290f565b6001600160a01b0387811660608601528616608085015283810360a08501529050612f63818561290f565b60008060006060848603121561344557600080fd5b8351613450816127b8565b60208501519093506001600160401b0381111561346c57600080fd5b6134788682870161324e565b92505060408401519050925092509256fea2646970667358221220145536d8c6723420993c641da727106a82cd43233cd80571f6878bc3d753533b64736f6c63430008160033",
    "linkReferences": {}
  },
  "methodIdentifiers": {
    "DEFAULT_PAYLOAD_SIZE_LIMIT()": "c4461834",
    "NO_EXTRA_GAS()": "44770515",
    "PT_SEND()": "4c42899a",
    "allowance(address,address)": "dd62ed3e",
    "approve(address,uint256)": "095ea7b3",
    "balanceOf(address)": "70a08231",
    "circulatingSupply()": "9358928b",
    "decimals()": "313ce567",
    "decreaseAllowance(address,uint256)": "a457c2d7",
    "estimateSendFee(uint16,bytes,uint256,bool,bytes)": "2a205e3d",
    "failedMessages(uint16,bytes,uint64)": "5b8c41e6",
    "forceResumeReceive(uint16,bytes)": "42d65a8d",
    "getConfig(uint16,uint16,address,uint256)": "f5ecbdbc",
    "getTrustedRemoteAddress(uint16)": "9f38369a",
    "increaseAllowance(address,uint256)": "39509351",
    "isTrustedRemote(uint16,bytes)": "3d8b38f6",
    "lzEndpoint()": "b353aaa7",
    "lzReceive(uint16,bytes,uint64,bytes)": "001d3567",
    "minDstGasLookup(uint16,uint16)": "8cfd8f5c",
    "mintTokens(address,uint256)": "f0dda65c",
    "name()": "06fdde03",
    "nonblockingLzReceive(uint16,bytes,uint64,bytes)": "66ad5c8a",
    "owner()": "8da5cb5b",
    "payloadSizeLimitLookup(uint16)": "3f1f4fa4",
    "precrime()": "950c8a74",
    "renounceOwnership()": "715018a6",
    "retryMessage(uint16,bytes,uint64,bytes)": "d1deba1f",
    "sendFrom(address,uint16,bytes,uint256,address,address,bytes)": "51905636",
    "setConfig(uint16,uint16,uint256,bytes)": "cbed8b9c",
    "setMinDstGas(uint16,uint16,uint256)": "df2a5b3b",
    "setPayloadSizeLimit(uint16,uint256)": "0df37483",
    "setPrecrime(address)": "baf3292d",
    "setReceiveVersion(uint16)": "10ddb137",
    "setSendVersion(uint16)": "07e0db17",
    "setTrustedRemote(uint16,bytes)": "eb8d72b7",
    "setTrustedRemoteAddress(uint16,bytes)": "a6c3d165",
    "setUseCustomAdapterParams(bool)": "eab45d9c",
    "supportsInterface(bytes4)": "01ffc9a7",
    "symbol()": "95d89b41",
    "token()": "fc0c546a",
    "totalSupply()": "18160ddd",
    "transfer(address,uint256)": "a9059cbb",
    "transferFrom(address,address,uint256)": "23b872dd",
    "transferOwnership(address)": "f2fde38b",
    "trustedRemoteLookup(uint16)": "7533d788",
    "useCustomAdapterParams()": "ed629c5c"
  },
  "id": 19
}