{
  "abi": [
    {
      "inputs": [
        {
          "internalType": "uint256",
          "name": "_minGasToTransfer",
          "type": "uint256"
        },
        {
          "internalType": "address",
          "name": "_lzEndpoint",
          "type": "address"
        },
        {
          "internalType": "address",
          "name": "_proxyToken",
          "type": "address"
        }
      ],
      "stateMutability": "nonpayable",
      "type": "constructor"
    },
    {
      "anonymous": false,
      "inputs": [
        {
          "indexed": false,
          "internalType": "bytes32",
          "name": "_hashedPayload",
          "type": "bytes32"
        }
      ],
      "name": "CreditCleared",
      "type": "event"
    },
    {
      "anonymous": false,
      "inputs": [
        {
          "indexed": false,
          "internalType": "bytes32",
          "name": "_hashedPayload",
          "type": "bytes32"
        },
        {
          "indexed": false,
          "internalType": "bytes",
          "name": "_payload",
          "type": "bytes"
        }
      ],
      "name": "CreditStored",
      "type": "event"
    },
    {
      "anonymous": false,
      "inputs": [
        {
          "indexed": false,
          "internalType": "uint16",
          "name": "_srcChainId",
          "type": "uint16"
        },
        {
          "indexed": false,
          "internalType": "bytes",
          "name": "_srcAddress",
          "type": "bytes"
        },
        {
          "indexed": false,
          "internalType": "uint64",
          "name": "_nonce",
          "type": "uint64"
        },
        {
          "indexed": false,
          "internalType": "bytes",
          "name": "_payload",
          "type": "bytes"
        },
        {
          "indexed": false,
          "internalType": "bytes",
          "name": "_reason",
          "type": "bytes"
        }
      ],
      "name": "MessageFailed",
      "type": "event"
    },
    {
      "anonymous": false,
      "inputs": [
        {
          "indexed": true,
          "internalType": "address",
          "name": "previousOwner",
          "type": "address"
        },
        {
          "indexed": true,
          "internalType": "address",
          "name": "newOwner",
          "type": "address"
        }
      ],
      "name": "OwnershipTransferred",
      "type": "event"
    },
    {
      "anonymous": false,
      "inputs": [
        {
          "indexed": true,
          "internalType": "uint16",
          "name": "_srcChainId",
          "type": "uint16"
        },
        {
          "indexed": true,
          "internalType": "bytes",
          "name": "_srcAddress",
          "type": "bytes"
        },
        {
          "indexed": true,
          "internalType": "address",
          "name": "_toAddress",
          "type": "address"
        },
        {
          "indexed": false,
          "internalType": "uint256[]",
          "name": "_tokenIds",
          "type": "uint256[]"
        }
      ],
      "name": "ReceiveFromChain",
      "type": "event"
    },
    {
      "anonymous": false,
      "inputs": [
        {
          "indexed": false,
          "internalType": "uint16",
          "name": "_srcChainId",
          "type": "uint16"
        },
        {
          "indexed": false,
          "internalType": "bytes",
          "name": "_srcAddress",
          "type": "bytes"
        },
        {
          "indexed": false,
          "internalType": "uint64",
          "name": "_nonce",
          "type": "uint64"
        },
        {
          "indexed": false,
          "internalType": "bytes32",
          "name": "_payloadHash",
          "type": "bytes32"
        }
      ],
      "name": "RetryMessageSuccess",
      "type": "event"
    },
    {
      "anonymous": false,
      "inputs": [
        {
          "indexed": true,
          "internalType": "uint16",
          "name": "_dstChainId",
          "type": "uint16"
        },
        {
          "indexed": true,
          "internalType": "address",
          "name": "_from",
          "type": "address"
        },
        {
          "indexed": true,
          "internalType": "bytes",
          "name": "_toAddress",
          "type": "bytes"
        },
        {
          "indexed": false,
          "internalType": "uint256[]",
          "name": "_tokenIds",
          "type": "uint256[]"
        }
      ],
      "name": "SendToChain",
      "type": "event"
    },
    {
      "anonymous": false,
      "inputs": [
        {
          "indexed": false,
          "internalType": "uint16",
          "name": "_dstChainId",
          "type": "uint16"
        },
        {
          "indexed": false,
          "internalType": "uint256",
          "name": "_dstChainIdToBatchLimit",
          "type": "uint256"
        }
      ],
      "name": "SetDstChainIdToBatchLimit",
      "type": "event"
    },
    {
      "anonymous": false,
      "inputs": [
        {
          "indexed": false,
          "internalType": "uint16",
          "name": "_dstChainId",
          "type": "uint16"
        },
        {
          "indexed": false,
          "internalType": "uint256",
          "name": "_dstChainIdToTransferGas",
          "type": "uint256"
        }
      ],
      "name": "SetDstChainIdToTransferGas",
      "type": "event"
    },
    {
      "anonymous": false,
      "inputs": [
        {
          "indexed": false,
          "internalType": "uint16",
          "name": "_dstChainId",
          "type": "uint16"
        },
        {
          "indexed": false,
          "internalType": "uint16",
          "name": "_type",
          "type": "uint16"
        },
        {
          "indexed": false,
          "internalType": "uint256",
          "name": "_minDstGas",
          "type": "uint256"
        }
      ],
      "name": "SetMinDstGas",
      "type": "event"
    },
    {
      "anonymous": false,
      "inputs": [
        {
          "indexed": false,
          "internalType": "uint256",
          "name": "_minGasToTransferAndStore",
          "type": "uint256"
        }
      ],
      "name": "SetMinGasToTransferAndStore",
      "type": "event"
    },
    {
      "anonymous": false,
      "inputs": [
        {
          "indexed": false,
          "internalType": "address",
          "name": "precrime",
          "type": "address"
        }
      ],
      "name": "SetPrecrime",
      "type": "event"
    },
    {
      "anonymous": false,
      "inputs": [
        {
          "indexed": false,
          "internalType": "uint16",
          "name": "_remoteChainId",
          "type": "uint16"
        },
        {
          "indexed": false,
          "internalType": "bytes",
          "name": "_path",
          "type": "bytes"
        }
      ],
      "name": "SetTrustedRemote",
      "type": "event"
    },
    {
      "anonymous": false,
      "inputs": [
        {
          "indexed": false,
          "internalType": "uint16",
          "name": "_remoteChainId",
          "type": "uint16"
        },
        {
          "indexed": false,
          "internalType": "bytes",
          "name": "_remoteAddress",
          "type": "bytes"
        }
      ],
      "name": "SetTrustedRemoteAddress",
      "type": "event"
    },
    {
      "inputs": [],
      "name": "DEFAULT_PAYLOAD_SIZE_LIMIT",
      "outputs": [
        {
          "internalType": "uint256",
          "name": "",
          "type": "uint256"
        }
      ],
      "stateMutability": "view",
      "type": "function"
    },
    {
      "inputs": [],
      "name": "FUNCTION_TYPE_SEND",
      "outputs": [
        {
          "internalType": "uint16",
          "name": "",
          "type": "uint16"
        }
      ],
      "stateMutability": "view",
      "type": "function"
    },
    {
      "inputs": [
        {
          "internalType": "bytes",
          "name": "_payload",
          "type": "bytes"
        }
      ],
      "name": "clearCredits",
      "outputs": [],
      "stateMutability": "nonpayable",
      "type": "function"
    },
    {
      "inputs": [
        {
          "internalType": "uint16",
          "name": "",
          "type": "uint16"
        }
      ],
      "name": "dstChainIdToBatchLimit",
      "outputs": [
        {
          "internalType": "uint256",
          "name": "",
          "type": "uint256"
        }
      ],
      "stateMutability": "view",
      "type": "function"
    },
    {
      "inputs": [
        {
          "internalType": "uint16",
          "name": "",
          "type": "uint16"
        }
      ],
      "name": "dstChainIdToTransferGas",
      "outputs": [
        {
          "internalType": "uint256",
          "name": "",
          "type": "uint256"
        }
      ],
      "stateMutability": "view",
      "type": "function"
    },
    {
      "inputs": [
        {
          "internalType": "uint16",
          "name": "_dstChainId",
          "type": "uint16"
        },
        {
          "internalType": "bytes",
          "name": "_toAddress",
          "type": "bytes"
        },
        {
          "internalType": "uint256[]",
          "name": "_tokenIds",
          "type": "uint256[]"
        },
        {
          "internalType": "bool",
          "name": "_useZro",
          "type": "bool"
        },
        {
          "internalType": "bytes",
          "name": "_adapterParams",
          "type": "bytes"
        }
      ],
      "name": "estimateSendBatchFee",
      "outputs": [
        {
          "internalType": "uint256",
          "name": "nativeFee",
          "type": "uint256"
        },
        {
          "internalType": "uint256",
          "name": "zroFee",
          "type": "uint256"
        }
      ],
      "stateMutability": "view",
      "type": "function"
    },
    {
      "inputs": [
        {
          "internalType": "uint16",
          "name": "_dstChainId",
          "type": "uint16"
        },
        {
          "internalType": "bytes",
          "name": "_toAddress",
          "type": "bytes"
        },
        {
          "internalType": "uint256",
          "name": "_tokenId",
          "type": "uint256"
        },
        {
          "internalType": "bool",
          "name": "_useZro",
          "type": "bool"
        },
        {
          "internalType": "bytes",
          "name": "_adapterParams",
          "type": "bytes"
        }
      ],
      "name": "estimateSendFee",
      "outputs": [
        {
          "internalType": "uint256",
          "name": "nativeFee",
          "type": "uint256"
        },
        {
          "internalType": "uint256",
          "name": "zroFee",
          "type": "uint256"
        }
      ],
      "stateMutability": "view",
      "type": "function"
    },
    {
      "inputs": [
        {
          "internalType": "uint16",
          "name": "",
          "type": "uint16"
        },
        {
          "internalType": "bytes",
          "name": "",
          "type": "bytes"
        },
        {
          "internalType": "uint64",
          "name": "",
          "type": "uint64"
        }
      ],
      "name": "failedMessages",
      "outputs": [
        {
          "internalType": "bytes32",
          "name": "",
          "type": "bytes32"
        }
      ],
      "stateMutability": "view",
      "type": "function"
    },
    {
      "inputs": [
        {
          "internalType": "uint16",
          "name": "_srcChainId",
          "type": "uint16"
        },
        {
          "internalType": "bytes",
          "name": "_srcAddress",
          "type": "bytes"
        }
      ],
      "name": "forceResumeReceive",
      "outputs": [],
      "stateMutability": "nonpayable",
      "type": "function"
    },
    {
      "inputs": [
        {
          "internalType": "uint16",
          "name": "_version",
          "type": "uint16"
        },
        {
          "internalType": "uint16",
          "name": "_chainId",
          "type": "uint16"
        },
        {
          "internalType": "address",
          "name": "",
          "type": "address"
        },
        {
          "internalType": "uint256",
          "name": "_configType",
          "type": "uint256"
        }
      ],
      "name": "getConfig",
      "outputs": [
        {
          "internalType": "bytes",
          "name": "",
          "type": "bytes"
        }
      ],
      "stateMutability": "view",
      "type": "function"
    },
    {
      "inputs": [
        {
          "internalType": "uint16",
          "name": "_remoteChainId",
          "type": "uint16"
        }
      ],
      "name": "getTrustedRemoteAddress",
      "outputs": [
        {
          "internalType": "bytes",
          "name": "",
          "type": "bytes"
        }
      ],
      "stateMutability": "view",
      "type": "function"
    },
    {
      "inputs": [
        {
          "internalType": "uint16",
          "name": "_srcChainId",
          "type": "uint16"
        },
        {
          "internalType": "bytes",
          "name": "_srcAddress",
          "type": "bytes"
        }
      ],
      "name": "isTrustedRemote",
      "outputs": [
        {
          "internalType": "bool",
          "name": "",
          "type": "bool"
        }
      ],
      "stateMutability": "view",
      "type": "function"
    },
    {
      "inputs": [],
      "name": "lzEndpoint",
      "outputs": [
        {
          "internalType": "contract ILayerZeroEndpoint",
          "name": "",
          "type": "address"
        }
      ],
      "stateMutability": "view",
      "type": "function"
    },
    {
      "inputs": [
        {
          "internalType": "uint16",
          "name": "_srcChainId",
          "type": "uint16"
        },
        {
          "internalType": "bytes",
          "name": "_srcAddress",
          "type": "bytes"
        },
        {
          "internalType": "uint64",
          "name": "_nonce",
          "type": "uint64"
        },
        {
          "internalType": "bytes",
          "name": "_payload",
          "type": "bytes"
        }
      ],
      "name": "lzReceive",
      "outputs": [],
      "stateMutability": "nonpayable",
      "type": "function"
    },
    {
      "inputs": [
        {
          "internalType": "uint16",
          "name": "",
          "type": "uint16"
        },
        {
          "internalType": "uint16",
          "name": "",
          "type": "uint16"
        }
      ],
      "name": "minDstGasLookup",
      "outputs": [
        {
          "internalType": "uint256",
          "name": "",
          "type": "uint256"
        }
      ],
      "stateMutability": "view",
      "type": "function"
    },
    {
      "inputs": [],
      "name": "minGasToTransferAndStore",
      "outputs": [
        {
          "internalType": "uint256",
          "name": "",
          "type": "uint256"
        }
      ],
      "stateMutability": "view",
      "type": "function"
    },
    {
      "inputs": [
        {
          "internalType": "uint16",
          "name": "_srcChainId",
          "type": "uint16"
        },
        {
          "internalType": "bytes",
          "name": "_srcAddress",
          "type": "bytes"
        },
        {
          "internalType": "uint64",
          "name": "_nonce",
          "type": "uint64"
        },
        {
          "internalType": "bytes",
          "name": "_payload",
          "type": "bytes"
        }
      ],
      "name": "nonblockingLzReceive",
      "outputs": [],
      "stateMutability": "nonpayable",
      "type": "function"
    },
    {
      "inputs": [
        {
          "internalType": "address",
          "name": "_operator",
          "type": "address"
        },
        {
          "internalType": "address",
          "name": "",
          "type": "address"
        },
        {
          "internalType": "uint256",
          "name": "",
          "type": "uint256"
        },
        {
          "internalType": "bytes",
          "name": "",
          "type": "bytes"
        }
      ],
      "name": "onERC721Received",
      "outputs": [
        {
          "internalType": "bytes4",
          "name": "",
          "type": "bytes4"
        }
      ],
      "stateMutability": "nonpayable",
      "type": "function"
    },
    {
      "inputs": [],
      "name": "owner",
      "outputs": [
        {
          "internalType": "address",
          "name": "",
          "type": "address"
        }
      ],
      "stateMutability": "view",
      "type": "function"
    },
    {
      "inputs": [
        {
          "internalType": "uint16",
          "name": "",
          "type": "uint16"
        }
      ],
      "name": "payloadSizeLimitLookup",
      "outputs": [
        {
          "internalType": "uint256",
          "name": "",
          "type": "uint256"
        }
      ],
      "stateMutability": "view",
      "type": "function"
    },
    {
      "inputs": [],
      "name": "precrime",
      "outputs": [
        {
          "internalType": "address",
          "name": "",
          "type": "address"
        }
      ],
      "stateMutability": "view",
      "type": "function"
    },
    {
      "inputs": [],
      "name": "renounceOwnership",
      "outputs": [],
      "stateMutability": "nonpayable",
      "type": "function"
    },
    {
      "inputs": [
        {
          "internalType": "uint16",
          "name": "_srcChainId",
          "type": "uint16"
        },
        {
          "internalType": "bytes",
          "name": "_srcAddress",
          "type": "bytes"
        },
        {
          "internalType": "uint64",
          "name": "_nonce",
          "type": "uint64"
        },
        {
          "internalType": "bytes",
          "name": "_payload",
          "type": "bytes"
        }
      ],
      "name": "retryMessage",
      "outputs": [],
      "stateMutability": "payable",
      "type": "function"
    },
    {
      "inputs": [
        {
          "internalType": "address",
          "name": "_from",
          "type": "address"
        },
        {
          "internalType": "uint16",
          "name": "_dstChainId",
          "type": "uint16"
        },
        {
          "internalType": "bytes",
          "name": "_toAddress",
          "type": "bytes"
        },
        {
          "internalType": "uint256[]",
          "name": "_tokenIds",
          "type": "uint256[]"
        },
        {
          "internalType": "address payable",
          "name": "_refundAddress",
          "type": "address"
        },
        {
          "internalType": "address",
          "name": "_zroPaymentAddress",
          "type": "address"
        },
        {
          "internalType": "bytes",
          "name": "_adapterParams",
          "type": "bytes"
        }
      ],
      "name": "sendBatchFrom",
      "outputs": [],
      "stateMutability": "payable",
      "type": "function"
    },
    {
      "inputs": [
        {
          "internalType": "address",
          "name": "_from",
          "type": "address"
        },
        {
          "internalType": "uint16",
          "name": "_dstChainId",
          "type": "uint16"
        },
        {
          "internalType": "bytes",
          "name": "_toAddress",
          "type": "bytes"
        },
        {
          "internalType": "uint256",
          "name": "_tokenId",
          "type": "uint256"
        },
        {
          "internalType": "address payable",
          "name": "_refundAddress",
          "type": "address"
        },
        {
          "internalType": "address",
          "name": "_zroPaymentAddress",
          "type": "address"
        },
        {
          "internalType": "bytes",
          "name": "_adapterParams",
          "type": "bytes"
        }
      ],
      "name": "sendFrom",
      "outputs": [],
      "stateMutability": "payable",
      "type": "function"
    },
    {
      "inputs": [
        {
          "internalType": "uint16",
          "name": "_version",
          "type": "uint16"
        },
        {
          "internalType": "uint16",
          "name": "_chainId",
          "type": "uint16"
        },
        {
          "internalType": "uint256",
          "name": "_configType",
          "type": "uint256"
        },
        {
          "internalType": "bytes",
          "name": "_config",
          "type": "bytes"
        }
      ],
      "name": "setConfig",
      "outputs": [],
      "stateMutability": "nonpayable",
      "type": "function"
    },
    {
      "inputs": [
        {
          "internalType": "uint16",
          "name": "_dstChainId",
          "type": "uint16"
        },
        {
          "internalType": "uint256",
          "name": "_dstChainIdToBatchLimit",
          "type": "uint256"
        }
      ],
      "name": "setDstChainIdToBatchLimit",
      "outputs": [],
      "stateMutability": "nonpayable",
      "type": "function"
    },
    {
      "inputs": [
        {
          "internalType": "uint16",
          "name": "_dstChainId",
          "type": "uint16"
        },
        {
          "internalType": "uint256",
          "name": "_dstChainIdToTransferGas",
          "type": "uint256"
        }
      ],
      "name": "setDstChainIdToTransferGas",
      "outputs": [],
      "stateMutability": "nonpayable",
      "type": "function"
    },
    {
      "inputs": [
        {
          "internalType": "uint16",
          "name": "_dstChainId",
          "type": "uint16"
        },
        {
          "internalType": "uint16",
          "name": "_packetType",
          "type": "uint16"
        },
        {
          "internalType": "uint256",
          "name": "_minGas",
          "type": "uint256"
        }
      ],
      "name": "setMinDstGas",
      "outputs": [],
      "stateMutability": "nonpayable",
      "type": "function"
    },
    {
      "inputs": [
        {
          "internalType": "uint256",
          "name": "_minGasToTransferAndStore",
          "type": "uint256"
        }
      ],
      "name": "setMinGasToTransferAndStore",
      "outputs": [],
      "stateMutability": "nonpayable",
      "type": "function"
    },
    {
      "inputs": [
        {
          "internalType": "uint16",
          "name": "_dstChainId",
          "type": "uint16"
        },
        {
          "internalType": "uint256",
          "name": "_size",
          "type": "uint256"
        }
      ],
      "name": "setPayloadSizeLimit",
      "outputs": [],
      "stateMutability": "nonpayable",
      "type": "function"
    },
    {
      "inputs": [
        {
          "internalType": "address",
          "name": "_precrime",
          "type": "address"
        }
      ],
      "name": "setPrecrime",
      "outputs": [],
      "stateMutability": "nonpayable",
      "type": "function"
    },
    {
      "inputs": [
        {
          "internalType": "uint16",
          "name": "_version",
          "type": "uint16"
        }
      ],
      "name": "setReceiveVersion",
      "outputs": [],
      "stateMutability": "nonpayable",
      "type": "function"
    },
    {
      "inputs": [
        {
          "internalType": "uint16",
          "name": "_version",
          "type": "uint16"
        }
      ],
      "name": "setSendVersion",
      "outputs": [],
      "stateMutability": "nonpayable",
      "type": "function"
    },
    {
      "inputs": [
        {
          "internalType": "uint16",
          "name": "_remoteChainId",
          "type": "uint16"
        },
        {
          "internalType": "bytes",
          "name": "_path",
          "type": "bytes"
        }
      ],
      "name": "setTrustedRemote",
      "outputs": [],
      "stateMutability": "nonpayable",
      "type": "function"
    },
    {
      "inputs": [
        {
          "internalType": "uint16",
          "name": "_remoteChainId",
          "type": "uint16"
        },
        {
          "internalType": "bytes",
          "name": "_remoteAddress",
          "type": "bytes"
        }
      ],
      "name": "setTrustedRemoteAddress",
      "outputs": [],
      "stateMutability": "nonpayable",
      "type": "function"
    },
    {
      "inputs": [
        {
          "internalType": "bytes32",
          "name": "",
          "type": "bytes32"
        }
      ],
      "name": "storedCredits",
      "outputs": [
        {
          "internalType": "uint16",
          "name": "srcChainId",
          "type": "uint16"
        },
        {
          "internalType": "address",
          "name": "toAddress",
          "type": "address"
        },
        {
          "internalType": "uint256",
          "name": "index",
          "type": "uint256"
        },
        {
          "internalType": "bool",
          "name": "creditsRemain",
          "type": "bool"
        }
      ],
      "stateMutability": "view",
      "type": "function"
    },
    {
      "inputs": [
        {
          "internalType": "bytes4",
          "name": "interfaceId",
          "type": "bytes4"
        }
      ],
      "name": "supportsInterface",
      "outputs": [
        {
          "internalType": "bool",
          "name": "",
          "type": "bool"
        }
      ],
      "stateMutability": "view",
      "type": "function"
    },
    {
      "inputs": [],
      "name": "token",
      "outputs": [
        {
          "internalType": "contract IERC721",
          "name": "",
          "type": "address"
        }
      ],
      "stateMutability": "view",
      "type": "function"
    },
    {
      "inputs": [
        {
          "internalType": "address",
          "name": "newOwner",
          "type": "address"
        }
      ],
      "name": "transferOwnership",
      "outputs": [],
      "stateMutability": "nonpayable",
      "type": "function"
    },
    {
      "inputs": [
        {
          "internalType": "uint16",
          "name": "",
          "type": "uint16"
        }
      ],
      "name": "trustedRemoteLookup",
      "outputs": [
        {
          "internalType": "bytes",
          "name": "",
          "type": "bytes"
        }
      ],
      "stateMutability": "view",
      "type": "function"
    }
  ],
  "bytecode": {
    "object": "0x60c06040523480156200001157600080fd5b50604051620039e2380380620039e283398101604081905262000034916200029b565b82828080620000433362000142565b6001600160a01b031660805250600160065581620000b45760405162461bcd60e51b8152602060048201526024808201527f6d696e476173546f5472616e73666572416e6453746f7265206d7573742062656044820152630203e20360e41b60648201526084015b60405180910390fd5b50600755620000d46001600160a01b0382166380ac58cd60e01b62000192565b6200012d5760405162461bcd60e51b815260206004820152602260248201527f50726f78794f4e46543732313a20696e76616c69642045524337323120746f6b60448201526132b760f11b6064820152608401620000ab565b6001600160a01b031660a05250620002dc9050565b600080546001600160a01b038381166001600160a01b0319831681178455604051919092169283917f8be0079c531659141344cd1fd0a4f28419497f9722a3daafe3b4186f6b6457e09190a35050565b60006200019f83620001ba565b8015620001b35750620001b38383620001f3565b9392505050565b6000620001cf826301ffc9a760e01b620001f3565b8015620001ed5750620001eb826001600160e01b0319620001f3565b155b92915050565b604080516001600160e01b03198316602480830191909152825180830390910181526044909101909152602080820180516001600160e01b03166301ffc9a760e01b178152825160009392849283928392918391908a617530fa92503d9150600051905082801562000266575060208210155b8015620002735750600081115b979650505050505050565b80516001600160a01b03811681146200029657600080fd5b919050565b600080600060608486031215620002b157600080fd5b83519250620002c3602085016200027e565b9150620002d3604085016200027e565b90509250925092565b60805160a05161369a62000348600039600081816108750152818161231f01526126270152600081816106eb0152818161089a01528181610b1401528181610c5c01528181610dd0015281816114fd0152818161193c01528181611a6f015261257f015261369a6000f3fe6080604052600436106102455760003560e01c80638da5cb5b11610139578063c4461834116100b6578063eb8d72b71161007a578063eb8d72b7146107b6578063f2353641146107d6578063f2fde38b146107f6578063f5ecbdbc14610816578063fa25f9b614610836578063fc0c546a1461086357600080fd5b8063c44618341461072d578063cbed8b9c14610743578063d12473a514610763578063d1deba1f14610783578063df2a5b3b1461079657600080fd5b8063a6c3d165116100fd578063a6c3d1651461067e578063ab3ffb931461069e578063af3fb21c146106b1578063b353aaa7146106d9578063baf3292d1461070d57600080fd5b80638da5cb5b146105cc5780638ffa1f2a146105fe578063950c8a741461061e5780639ea5d6b11461063e5780639f38369a1461065e57600080fd5b80633f1f4fa4116101c75780635b8c41e61161018b5780635b8c41e6146104e357806366ad5c8a14610532578063715018a6146105525780637533d788146105675780638cfd8f5c1461059457600080fd5b80633f1f4fa41461043257806342d65a8d1461046d578063482881901461048d5780634ac3f4ff146104a357806351905636146104d057600080fd5b806310ddb1371161020e57806310ddb13714610301578063150b7a021461032157806322a3ecf91461035a5780632a205e3d146103dd5780633d8b38f61461041257600080fd5b80621d35671461024a57806301ffc9a71461026c57806307e0db17146102a15780630b4cad4c146102c15780630df37483146102e1575b600080fd5b34801561025657600080fd5b5061026a61026536600461279e565b610897565b005b34801561027857600080fd5b5061028c610287366004612831565b610ac8565b60405190151581526020015b60405180910390f35b3480156102ad57600080fd5b5061026a6102bc36600461285b565b610af3565b3480156102cd57600080fd5b5061026a6102dc366004612876565b610b7c565b3480156102ed57600080fd5b5061026a6102fc36600461288f565b610c1c565b34801561030d57600080fd5b5061026a61031c36600461285b565b610c3b565b34801561032d57600080fd5b5061034161033c36600461299c565b610c93565b6040516001600160e01b03199091168152602001610298565b34801561036657600080fd5b506103ae610375366004612876565b600a6020526000908152604090208054600182015460029092015461ffff821692620100009092046001600160a01b0316919060ff1684565b6040805161ffff90951685526001600160a01b0390931660208501529183015215156060820152608001610298565b3480156103e957600080fd5b506103fd6103f8366004612a17565b610cbf565b60408051928352602083019190915201610298565b34801561041e57600080fd5b5061028c61042d366004612aa5565b610ce5565b34801561043e57600080fd5b5061045f61044d36600461285b565b60036020526000908152604090205481565b604051908152602001610298565b34801561047957600080fd5b5061026a610488366004612aa5565b610db1565b34801561049957600080fd5b5061045f60075481565b3480156104af57600080fd5b5061045f6104be36600461285b565b60086020526000908152604090205481565b61026a6104de366004612af7565b610e37565b3480156104ef57600080fd5b5061045f6104fe366004612bb0565b6005602090815260009384526040808520845180860184018051928152908401958401959095209452929052825290205481565b34801561053e57600080fd5b5061026a61054d36600461279e565b610e4e565b34801561055e57600080fd5b5061026a610f2a565b34801561057357600080fd5b5061058761058236600461285b565b610f3e565b6040516102989190612c5d565b3480156105a057600080fd5b5061045f6105af366004612c70565b600260209081526000928352604080842090915290825290205481565b3480156105d857600080fd5b506000546001600160a01b03165b6040516001600160a01b039091168152602001610298565b34801561060a57600080fd5b5061026a610619366004612ca3565b610fd8565b34801561062a57600080fd5b506004546105e6906001600160a01b031681565b34801561064a57600080fd5b5061026a61065936600461288f565b611223565b34801561066a57600080fd5b5061058761067936600461285b565b6112da565b34801561068a57600080fd5b5061026a610699366004612aa5565b6113f0565b61026a6106ac366004612d64565b611479565b3480156106bd57600080fd5b506106c6600181565b60405161ffff9091168152602001610298565b3480156106e557600080fd5b506105e67f000000000000000000000000000000000000000000000000000000000000000081565b34801561071957600080fd5b5061026a610728366004612e19565b611488565b34801561073957600080fd5b5061045f61271081565b34801561074f57600080fd5b5061026a61075e366004612e36565b6114de565b34801561076f57600080fd5b5061026a61077e36600461288f565b611573565b61026a61079136600461279e565b611623565b3480156107a257600080fd5b5061026a6107b1366004612ea4565b611839565b3480156107c257600080fd5b5061026a6107d1366004612aa5565b6118a3565b3480156107e257600080fd5b506103fd6107f1366004612ee0565b6118fd565b34801561080257600080fd5b5061026a610811366004612e19565b6119c8565b34801561082257600080fd5b50610587610831366004612f59565b611a3e565b34801561084257600080fd5b5061045f61085136600461285b565b60096020526000908152604090205481565b34801561086f57600080fd5b506105e67f000000000000000000000000000000000000000000000000000000000000000081565b337f00000000000000000000000000000000000000000000000000000000000000006001600160a01b0316146109145760405162461bcd60e51b815260206004820152601e60248201527f4c7a4170703a20696e76616c696420656e64706f696e742063616c6c6572000060448201526064015b60405180910390fd5b61ffff86166000908152600160205260408120805461093290612fa6565b80601f016020809104026020016040519081016040528092919081815260200182805461095e90612fa6565b80156109ab5780601f10610980576101008083540402835291602001916109ab565b820191906000526020600020905b81548152906001019060200180831161098e57829003601f168201915b505050505090508051868690501480156109c6575060008151115b80156109ee5750805160208201206040516109e49088908890612fe0565b6040518091039020145b610a495760405162461bcd60e51b815260206004820152602660248201527f4c7a4170703a20696e76616c696420736f757263652073656e64696e6720636f6044820152651b9d1c9858dd60d21b606482015260840161090b565b610abf8787878080601f01602080910402602001604051908101604052809392919081815260200183838082843760009201919091525050604080516020601f8a018190048102820181019092528881528a935091508890889081908401838280828437600092019190915250611aef92505050565b50505050505050565b60006001600160e01b03198216630a85bd0160e11b1480610aed5750610aed82611b68565b92915050565b610afb611b9d565b6040516307e0db1760e01b815261ffff821660048201527f00000000000000000000000000000000000000000000000000000000000000006001600160a01b0316906307e0db17906024015b600060405180830381600087803b158015610b6157600080fd5b505af1158015610b75573d6000803e3d6000fd5b5050505050565b610b84611b9d565b60008111610be05760405162461bcd60e51b8152602060048201526024808201527f6d696e476173546f5472616e73666572416e6453746f7265206d7573742062656044820152630203e20360e41b606482015260840161090b565b60078190556040518181527ffebbc4f8bb9ec2313950c718d43123124b15778efda4c1f1d529de2995b4f34d906020015b60405180910390a150565b610c24611b9d565b61ffff909116600090815260036020526040902055565b610c43611b9d565b6040516310ddb13760e01b815261ffff821660048201527f00000000000000000000000000000000000000000000000000000000000000006001600160a01b0316906310ddb13790602401610b47565b60006001600160a01b0385163014610cad57506000610cb7565b50630a85bd0160e11b5b949350505050565b600080610cd78787610cd088611bf7565b87876118fd565b915091509550959350505050565b61ffff831660009081526001602052604081208054829190610d0690612fa6565b80601f0160208091040260200160405190810160405280929190818152602001828054610d3290612fa6565b8015610d7f5780601f10610d5457610100808354040283529160200191610d7f565b820191906000526020600020905b815481529060010190602001808311610d6257829003601f168201915b505050505090508383604051610d96929190612fe0565b60405180910390208180519060200120149150509392505050565b610db9611b9d565b6040516342d65a8d60e01b81526001600160a01b037f000000000000000000000000000000000000000000000000000000000000000016906342d65a8d90610e0990869086908690600401613019565b600060405180830381600087803b158015610e2357600080fd5b505af1158015610abf573d6000803e3d6000fd5b610abf878787610e4688611bf7565b878787611c42565b333014610eac5760405162461bcd60e51b815260206004820152602660248201527f4e6f6e626c6f636b696e674c7a4170703a2063616c6c6572206d7573742062656044820152650204c7a4170760d41b606482015260840161090b565b610f228686868080601f01602080910402602001604051908101604052809392919081815260200183838082843760009201919091525050604080516020601f890181900481028201810190925287815289935091508790879081908401838280828437600092019190915250611e0c92505050565b505050505050565b610f32611b9d565b610f3c6000611f63565b565b60016020526000908152604090208054610f5790612fa6565b80601f0160208091040260200160405190810160405280929190818152602001828054610f8390612fa6565b8015610fd05780601f10610fa557610100808354040283529160200191610fd0565b820191906000526020600020905b815481529060010190602001808311610fb357829003601f168201915b505050505081565b610fe0611fb3565b80516020808301919091206000818152600a90925260409091206002015460ff166110415760405162461bcd60e51b81526020600482015260116024820152701b9bc818dc99591a5d1cc81cdd1bdc9959607a1b604482015260640161090b565b600082806020019051810190611057919061307c565b6000848152600a6020526040812080546001909101549294509092506110939161ffff8216916201000090046001600160a01b0316908561200c565b6000848152600a602052604090206001015490915081116111085760405162461bcd60e51b815260206004820152602960248201527f6e6f7420656e6f7567682067617320746f2070726f6365737320637265646974604482015268103a3930b739b332b960b91b606482015260840161090b565b8151810361117f576000838152600a602052604080822080546001600160b01b031916815560018101929092556002909101805460ff19169055517fd7be02b8dd0d27bd0517a9cb4d7469ce27df4313821ae5ec1ff69acc594ba233906111729085815260200190565b60405180910390a1611213565b604080516080810182526000858152600a6020818152848320805461ffff80821687526001600160a01b03620100008084048216868a019081529989018b8152600160608b01818152998f90529790965297519851169096026001600160b01b03199091169690951695909517939093178455915191830191909155516002909101805491151560ff199092169190911790555b5050506112206001600655565b50565b61122b611b9d565b600081116112865760405162461bcd60e51b815260206004820152602260248201527f647374436861696e4964546f42617463684c696d6974206d757374206265203e604482015261020360f41b606482015260840161090b565b61ffff8216600081815260086020908152604091829020849055815192835282018390527f7315f7654d594ead24a30160ed9ba2d23247f543016b918343591e93d7afdb6d91015b60405180910390a15050565b61ffff81166000908152600160205260408120805460609291906112fd90612fa6565b80601f016020809104026020016040519081016040528092919081815260200182805461132990612fa6565b80156113765780601f1061134b57610100808354040283529160200191611376565b820191906000526020600020905b81548152906001019060200180831161135957829003601f168201915b5050505050905080516000036113ce5760405162461bcd60e51b815260206004820152601d60248201527f4c7a4170703a206e6f20747275737465642070617468207265636f7264000000604482015260640161090b565b6113e96000601483516113e1919061314c565b839190612058565b9392505050565b6113f8611b9d565b81813060405160200161140d9392919061315f565b60408051601f1981840301815291815261ffff851660009081526001602052209061143890826131cd565b507f8c0400cfe2d1199b1a725c78960bcc2a344d869b80590d0f2bd005db15a572ce83838360405161146c93929190613019565b60405180910390a1505050565b610abf87878787878787611c42565b611490611b9d565b600480546001600160a01b0319166001600160a01b0383169081179091556040519081527f5db758e995a17ec1ad84bdef7e8c3293a0bd6179bcce400dff5d4c3d87db726b90602001610c11565b6114e6611b9d565b6040516332fb62e760e21b81526001600160a01b037f0000000000000000000000000000000000000000000000000000000000000000169063cbed8b9c9061153a908890889088908890889060040161328c565b600060405180830381600087803b15801561155457600080fd5b505af1158015611568573d6000803e3d6000fd5b505050505050505050565b61157b611b9d565b600081116115d75760405162461bcd60e51b815260206004820152602360248201527f647374436861696e4964546f5472616e73666572476173206d7573742062652060448201526203e20360ec1b606482015260840161090b565b61ffff8216600081815260096020908152604091829020849055815192835282018390527fc46df2983228ac2d9754e94a0d565e6671665dc8ad38602bc8e544f0685a29fb91016112ce565b61ffff861660009081526005602052604080822090516116469088908890612fe0565b90815260408051602092819003830190206001600160401b038716600090815292529020549050806116c65760405162461bcd60e51b815260206004820152602360248201527f4e6f6e626c6f636b696e674c7a4170703a206e6f2073746f726564206d65737360448201526261676560e81b606482015260840161090b565b8083836040516116d7929190612fe0565b6040518091039020146117365760405162461bcd60e51b815260206004820152602160248201527f4e6f6e626c6f636b696e674c7a4170703a20696e76616c6964207061796c6f616044820152601960fa1b606482015260840161090b565b61ffff871660009081526005602052604080822090516117599089908990612fe0565b90815260408051602092819003830181206001600160401b038916600090815290845282902093909355601f880182900482028301820190528682526117f1918991899089908190840183828082843760009201919091525050604080516020601f8a018190048102820181019092528881528a935091508890889081908401838280828437600092019190915250611e0c92505050565b7fc264d91f3adc5588250e1551f547752ca0cfa8f6b530d243b9f9f4cab10ea8e587878787856040516118289594939291906132c5565b60405180910390a150505050505050565b611841611b9d565b61ffff83811660008181526002602090815260408083209487168084529482529182902085905581519283528201929092529081018290527f9d5c7c0b934da8fefa9c7760c98383778a12dfbfc0c3b3106518f43fb9508ac09060600161146c565b6118ab611b9d565b61ffff831660009081526001602052604090206118c9828483613300565b507ffa41487ad5d6728f0b19276fa1eddc16558578f5109fc39d2dc33c3230470dab83838360405161146c93929190613019565b600080600086866040516020016119159291906133fb565b60408051601f198184030181529082905263040a7bb160e41b825291506001600160a01b037f000000000000000000000000000000000000000000000000000000000000000016906340a7bb1090611979908b90309086908b908b90600401613420565b6040805180830381865afa158015611995573d6000803e3d6000fd5b505050506040513d601f19601f820116820180604052508101906119b99190613474565b92509250509550959350505050565b6119d0611b9d565b6001600160a01b038116611a355760405162461bcd60e51b815260206004820152602660248201527f4f776e61626c653a206e6577206f776e657220697320746865207a65726f206160448201526564647265737360d01b606482015260840161090b565b61122081611f63565b604051633d7b2f6f60e21b815261ffff808616600483015284166024820152306044820152606481018290526060907f00000000000000000000000000000000000000000000000000000000000000006001600160a01b03169063f5ecbdbc90608401600060405180830381865afa158015611abe573d6000803e3d6000fd5b505050506040513d6000823e601f3d908101601f19168201604052611ae69190810190613498565b95945050505050565b600080611b525a60966366ad5c8a60e01b89898989604051602401611b1794939291906134cc565b60408051601f198184030181529190526020810180516001600160e01b03166001600160e01b03199093169290921790915230929190612165565b9150915081610f2257610f2286868686856121ef565b60006001600160e01b031982166322bac5d960e01b1480610aed57506301ffc9a760e01b6001600160e01b0319831614610aed565b6000546001600160a01b03163314610f3c5760405162461bcd60e51b815260206004820181905260248201527f4f776e61626c653a2063616c6c6572206973206e6f7420746865206f776e6572604482015260640161090b565b60408051600180825281830190925260609160009190602080830190803683370190505090508281600081518110611c3157611c3161350a565b602090810291909101015292915050565b6000845111611c895760405162461bcd60e51b8152602060048201526013602482015272746f6b656e4964735b5d20697320656d70747960681b604482015260640161090b565b835160011480611cad575061ffff8616600090815260086020526040902054845111155b611d045760405162461bcd60e51b815260206004820152602260248201527f62617463682073697a65206578636565647320647374206261746368206c696d6044820152611a5d60f21b606482015260840161090b565b60005b8451811015611d3d57611d35888888888581518110611d2857611d2861350a565b602002602001015161228c565b600101611d07565b5060008585604051602001611d539291906133fb565b6040516020818303038152906040529050611d98876001848851600960008d61ffff1661ffff16815260200190815260200160002054611d939190613520565b612381565b611da6878286868634612456565b85604051611db49190613537565b6040518091039020886001600160a01b03168861ffff167fe1b87c47fdeb4f9cbadbca9df3af7aba453bb6e501075d0440d88125b711522a88604051611dfa9190613553565b60405180910390a45050505050505050565b60008082806020019051810190611e23919061307c565b601482015191935091506000611e3b8883838661200c565b90508251811015611f0f5784516020808701919091206040805160808101825261ffff808d1682526001600160a01b038088168387019081528385018881526001606086018181526000898152600a909a529887902095518654935190941662010000026001600160b01b03199093169390941692909217178355519082015592516002909301805493151560ff199094169390931790925590517f10e0b70d256bccc84b7027506978bd8b68984a870788b93b479def144c839ad790611f059083908990613566565b60405180910390a1505b816001600160a01b031687604051611f279190613537565b60405180910390208961ffff167f5b821db8a46f8ecbe1941ba2f51cfeea9643268b56631f70d45e2a745d99026586604051611dfa9190613553565b600080546001600160a01b038381166001600160a01b0319831681178455604051919092169283917f8be0079c531659141344cd1fd0a4f28419497f9722a3daafe3b4186f6b6457e09190a35050565b6002600654036120055760405162461bcd60e51b815260206004820152601f60248201527f5265656e7472616e637947756172643a207265656e7472616e742063616c6c00604482015260640161090b565b6002600655565b6000825b8251811015611ae6576007545a10611ae65761204686868584815181106120395761203961350a565b60200260200101516125fb565b806120508161357f565b915050612010565b60608161206681601f613598565b10156120a55760405162461bcd60e51b815260206004820152600e60248201526d736c6963655f6f766572666c6f7760901b604482015260640161090b565b6120af8284613598565b845110156120f35760405162461bcd60e51b8152602060048201526011602482015270736c6963655f6f75744f66426f756e647360781b604482015260640161090b565b606082158015612112576040519150600082526020820160405261215c565b6040519150601f8416801560200281840101858101878315602002848b0101015b8183101561214b578051835260209283019201612133565b5050858452601f01601f1916604052505b50949350505050565b6000606060008060008661ffff166001600160401b0381111561218a5761218a6128d9565b6040519080825280601f01601f1916602001820160405280156121b4576020820181803683370190505b50905060008087516020890160008d8df191503d9250868311156121d6578692505b828152826000602083013e909890975095505050505050565b8180519060200120600560008761ffff1661ffff168152602001908152602001600020856040516122209190613537565b9081526040805191829003602090810183206001600160401b0388166000908152915220919091557fe183f33de2837795525b4792ca4cd60535bd77c53b7e7030060bfcf5734d6b0c9061227d90879087908790879087906135ab565b60405180910390a15050505050565b6001600160a01b03841633146122f35760405162461bcd60e51b815260206004820152602660248201527f50726f78794f4e46543732313a206f776e6572206973206e6f742073656e642060448201526531b0b63632b960d11b606482015260840161090b565b604051632142170760e11b81526001600160a01b038581166004830152306024830152604482018390527f000000000000000000000000000000000000000000000000000000000000000016906342842e0e90606401600060405180830381600087803b15801561236357600080fd5b505af1158015612377573d6000803e3d6000fd5b5050505050505050565b600061238c83612656565b61ffff808716600090815260026020908152604080832093891683529290522054909150806123fd5760405162461bcd60e51b815260206004820152601a60248201527f4c7a4170703a206d696e4761734c696d6974206e6f7420736574000000000000604482015260640161090b565b6124078382613598565b821015610f225760405162461bcd60e51b815260206004820152601b60248201527f4c7a4170703a20676173206c696d697420697320746f6f206c6f770000000000604482015260640161090b565b61ffff86166000908152600160205260408120805461247490612fa6565b80601f01602080910402602001604051908101604052809291908181526020018280546124a090612fa6565b80156124ed5780601f106124c2576101008083540402835291602001916124ed565b820191906000526020600020905b8154815290600101906020018083116124d057829003601f168201915b50505050509050805160000361255e5760405162461bcd60e51b815260206004820152603060248201527f4c7a4170703a2064657374696e6174696f6e20636861696e206973206e6f742060448201526f61207472757374656420736f7572636560801b606482015260840161090b565b6125698787516126b2565b60405162c5803160e81b81526001600160a01b037f0000000000000000000000000000000000000000000000000000000000000000169063c58031009084906125c0908b9086908c908c908c908c906004016135fd565b6000604051808303818588803b1580156125d957600080fd5b505af11580156125ed573d6000803e3d6000fd5b505050505050505050505050565b604051632142170760e11b81523060048201526001600160a01b038381166024830152604482018390527f000000000000000000000000000000000000000000000000000000000000000016906342842e0e90606401610e09565b60006022825110156126aa5760405162461bcd60e51b815260206004820152601c60248201527f4c7a4170703a20696e76616c69642061646170746572506172616d7300000000604482015260640161090b565b506022015190565b61ffff8216600090815260036020526040812054908190036126d357506127105b808211156127235760405162461bcd60e51b815260206004820181905260248201527f4c7a4170703a207061796c6f61642073697a6520697320746f6f206c61726765604482015260640161090b565b505050565b803561ffff8116811461273a57600080fd5b919050565b60008083601f84011261275157600080fd5b5081356001600160401b0381111561276857600080fd5b60208301915083602082850101111561278057600080fd5b9250929050565b80356001600160401b038116811461273a57600080fd5b600080600080600080608087890312156127b757600080fd5b6127c087612728565b955060208701356001600160401b03808211156127dc57600080fd5b6127e88a838b0161273f565b90975095508591506127fc60408a01612787565b9450606089013591508082111561281257600080fd5b5061281f89828a0161273f565b979a9699509497509295939492505050565b60006020828403121561284357600080fd5b81356001600160e01b0319811681146113e957600080fd5b60006020828403121561286d57600080fd5b6113e982612728565b60006020828403121561288857600080fd5b5035919050565b600080604083850312156128a257600080fd5b6128ab83612728565b946020939093013593505050565b6001600160a01b038116811461122057600080fd5b803561273a816128b9565b634e487b7160e01b600052604160045260246000fd5b604051601f8201601f191681016001600160401b0381118282101715612917576129176128d9565b604052919050565b60006001600160401b03821115612938576129386128d9565b50601f01601f191660200190565b600082601f83011261295757600080fd5b813561296a6129658261291f565b6128ef565b81815284602083860101111561297f57600080fd5b816020850160208301376000918101602001919091529392505050565b600080600080608085870312156129b257600080fd5b84356129bd816128b9565b935060208501356129cd816128b9565b92506040850135915060608501356001600160401b038111156129ef57600080fd5b6129fb87828801612946565b91505092959194509250565b8035801515811461273a57600080fd5b600080600080600060a08688031215612a2f57600080fd5b612a3886612728565b945060208601356001600160401b0380821115612a5457600080fd5b612a6089838a01612946565b955060408801359450612a7560608901612a07565b93506080880135915080821115612a8b57600080fd5b50612a9888828901612946565b9150509295509295909350565b600080600060408486031215612aba57600080fd5b612ac384612728565b925060208401356001600160401b03811115612ade57600080fd5b612aea8682870161273f565b9497909650939450505050565b600080600080600080600060e0888a031215612b1257600080fd5b8735612b1d816128b9565b9650612b2b60208901612728565b955060408801356001600160401b0380821115612b4757600080fd5b612b538b838c01612946565b965060608a0135955060808a01359150612b6c826128b9565b90935060a089013590612b7e826128b9565b90925060c08901359080821115612b9457600080fd5b50612ba18a828b01612946565b91505092959891949750929550565b600080600060608486031215612bc557600080fd5b612bce84612728565b925060208401356001600160401b03811115612be957600080fd5b612bf586828701612946565b925050612c0460408501612787565b90509250925092565b60005b83811015612c28578181015183820152602001612c10565b50506000910152565b60008151808452612c49816020860160208601612c0d565b601f01601f19169290920160200192915050565b6020815260006113e96020830184612c31565b60008060408385031215612c8357600080fd5b612c8c83612728565b9150612c9a60208401612728565b90509250929050565b600060208284031215612cb557600080fd5b81356001600160401b03811115612ccb57600080fd5b610cb784828501612946565b60006001600160401b03821115612cf057612cf06128d9565b5060051b60200190565b600082601f830112612d0b57600080fd5b81356020612d1b61296583612cd7565b8083825260208201915060208460051b870101935086841115612d3d57600080fd5b602086015b84811015612d595780358352918301918301612d42565b509695505050505050565b600080600080600080600060e0888a031215612d7f57600080fd5b8735612d8a816128b9565b9650612d9860208901612728565b955060408801356001600160401b0380821115612db457600080fd5b612dc08b838c01612946565b965060608a0135915080821115612dd657600080fd5b612de28b838c01612cfa565b955060808a01359150612df4826128b9565b819450612e0360a08b016128ce565b935060c08a0135915080821115612b9457600080fd5b600060208284031215612e2b57600080fd5b81356113e9816128b9565b600080600080600060808688031215612e4e57600080fd5b612e5786612728565b9450612e6560208701612728565b93506040860135925060608601356001600160401b03811115612e8757600080fd5b612e938882890161273f565b969995985093965092949392505050565b600080600060608486031215612eb957600080fd5b612ec284612728565b9250612ed060208501612728565b9150604084013590509250925092565b600080600080600060a08688031215612ef857600080fd5b612f0186612728565b945060208601356001600160401b0380821115612f1d57600080fd5b612f2989838a01612946565b95506040880135915080821115612f3f57600080fd5b612f4b89838a01612cfa565b9450612a7560608901612a07565b60008060008060808587031215612f6f57600080fd5b612f7885612728565b9350612f8660208601612728565b92506040850135612f96816128b9565b9396929550929360600135925050565b600181811c90821680612fba57607f821691505b602082108103612fda57634e487b7160e01b600052602260045260246000fd5b50919050565b8183823760009101908152919050565b81835281816020850137506000828201602090810191909152601f909101601f19169091010190565b61ffff84168152604060208201526000611ae6604083018486612ff0565b600082601f83011261304857600080fd5b81516130566129658261291f565b81815284602083860101111561306b57600080fd5b610cb7826020830160208701612c0d565b6000806040838503121561308f57600080fd5b82516001600160401b03808211156130a657600080fd5b6130b286838701613037565b93506020915081850151818111156130c957600080fd5b85019050601f810186136130dc57600080fd5b80516130ea61296582612cd7565b81815260059190911b8201830190838101908883111561310957600080fd5b928401925b828410156131275783518252928401929084019061310e565b80955050505050509250929050565b634e487b7160e01b600052601160045260246000fd5b81810381811115610aed57610aed613136565b8284823760609190911b6bffffffffffffffffffffffff19169101908152601401919050565b601f821115612723576000816000526020600020601f850160051c810160208610156131ae5750805b601f850160051c820191505b81811015610f22578281556001016131ba565b81516001600160401b038111156131e6576131e66128d9565b6131fa816131f48454612fa6565b84613185565b602080601f83116001811461322f57600084156132175750858301515b600019600386901b1c1916600185901b178555610f22565b600085815260208120601f198616915b8281101561325e5788860151825594840194600190910190840161323f565b508582101561327c5787850151600019600388901b60f8161c191681555b5050505050600190811b01905550565b600061ffff8088168352808716602084015250846040830152608060608301526132ba608083018486612ff0565b979650505050505050565b61ffff861681526080602082015260006132e3608083018688612ff0565b6001600160401b0394909416604083015250606001529392505050565b6001600160401b03831115613317576133176128d9565b61332b836133258354612fa6565b83613185565b6000601f84116001811461335f57600085156133475750838201355b600019600387901b1c1916600186901b178355610b75565b600083815260209020601f19861690835b828110156133905786850135825560209485019460019092019101613370565b50868210156133ad5760001960f88860031b161c19848701351681555b505060018560011b0183555050505050565b60008151808452602080850194506020840160005b838110156133f0578151875295820195908201906001016133d4565b509495945050505050565b60408152600061340e6040830185612c31565b8281036020840152611ae681856133bf565b61ffff861681526001600160a01b038516602082015260a06040820181905260009061344e90830186612c31565b841515606084015282810360808401526134688185612c31565b98975050505050505050565b6000806040838503121561348757600080fd5b505080516020909101519092909150565b6000602082840312156134aa57600080fd5b81516001600160401b038111156134c057600080fd5b610cb784828501613037565b61ffff851681526080602082015260006134e96080830186612c31565b6001600160401b038516604084015282810360608401526132ba8185612c31565b634e487b7160e01b600052603260045260246000fd5b8082028115828204841417610aed57610aed613136565b60008251613549818460208701612c0d565b9190910192915050565b6020815260006113e960208301846133bf565b828152604060208201526000610cb76040830184612c31565b60006001820161359157613591613136565b5060010190565b80820180821115610aed57610aed613136565b61ffff8616815260a0602082015260006135c860a0830187612c31565b6001600160401b038616604084015282810360608401526135e98186612c31565b905082810360808401526134688185612c31565b61ffff8716815260c06020820152600061361a60c0830188612c31565b828103604084015261362c8188612c31565b6001600160a01b0387811660608601528616608085015283810360a085015290506136578185612c31565b999850505050505050505056fea2646970667358221220b4df2831a16ef27e24b4a9a4838e5d456ecab09be80e31fe0fb98139d668ad9664736f6c63430008160033",
    "linkReferences": {}
  },
  "methodIdentifiers": {
    "DEFAULT_PAYLOAD_SIZE_LIMIT()": "c4461834",
    "FUNCTION_TYPE_SEND()": "af3fb21c",
    "clearCredits(bytes)": "8ffa1f2a",
    "dstChainIdToBatchLimit(uint16)": "4ac3f4ff",
    "dstChainIdToTransferGas(uint16)": "fa25f9b6",
    "estimateSendBatchFee(uint16,bytes,uint256[],bool,bytes)": "f2353641",
    "estimateSendFee(uint16,bytes,uint256,bool,bytes)": "2a205e3d",
    "failedMessages(uint16,bytes,uint64)": "5b8c41e6",
    "forceResumeReceive(uint16,bytes)": "42d65a8d",
    "getConfig(uint16,uint16,address,uint256)": "f5ecbdbc",
    "getTrustedRemoteAddress(uint16)": "9f38369a",
    "isTrustedRemote(uint16,bytes)": "3d8b38f6",
    "lzEndpoint()": "b353aaa7",
    "lzReceive(uint16,bytes,uint64,bytes)": "001d3567",
    "minDstGasLookup(uint16,uint16)": "8cfd8f5c",
    "minGasToTransferAndStore()": "48288190",
    "nonblockingLzReceive(uint16,bytes,uint64,bytes)": "66ad5c8a",
    "onERC721Received(address,address,uint256,bytes)": "150b7a02",
    "owner()": "8da5cb5b",
    "payloadSizeLimitLookup(uint16)": "3f1f4fa4",
    "precrime()": "950c8a74",
    "renounceOwnership()": "715018a6",
    "retryMessage(uint16,bytes,uint64,bytes)": "d1deba1f",
    "sendBatchFrom(address,uint16,bytes,uint256[],address,address,bytes)": "ab3ffb93",
    "sendFrom(address,uint16,bytes,uint256,address,address,bytes)": "51905636",
    "setConfig(uint16,uint16,uint256,bytes)": "cbed8b9c",
    "setDstChainIdToBatchLimit(uint16,uint256)": "9ea5d6b1",
    "setDstChainIdToTransferGas(uint16,uint256)": "d12473a5",
    "setMinDstGas(uint16,uint16,uint256)": "df2a5b3b",
    "setMinGasToTransferAndStore(uint256)": "0b4cad4c",
    "setPayloadSizeLimit(uint16,uint256)": "0df37483",
    "setPrecrime(address)": "baf3292d",
    "setReceiveVersion(uint16)": "10ddb137",
    "setSendVersion(uint16)": "07e0db17",
    "setTrustedRemote(uint16,bytes)": "eb8d72b7",
    "setTrustedRemoteAddress(uint16,bytes)": "a6c3d165",
    "storedCredits(bytes32)": "22a3ecf9",
    "supportsInterface(bytes4)": "01ffc9a7",
    "token()": "fc0c546a",
    "transferOwnership(address)": "f2fde38b",
    "trustedRemoteLookup(uint16)": "7533d788"
  },
  "id": 45
}