{
  "abi": [
    {
      "inputs": [
        {
          "internalType": "address",
          "name": "_lzEndpoint",
          "type": "address"
        },
        {
          "internalType": "address",
          "name": "_proxyToken",
          "type": "address"
        }
      ],
      "stateMutability": "nonpayable",
      "type": "constructor"
    },
    {
      "anonymous": false,
      "inputs": [
        {
          "indexed": false,
          "internalType": "uint16",
          "name": "_srcChainId",
          "type": "uint16"
        },
        {
          "indexed": false,
          "internalType": "bytes",
          "name": "_srcAddress",
          "type": "bytes"
        },
        {
          "indexed": false,
          "internalType": "uint64",
          "name": "_nonce",
          "type": "uint64"
        },
        {
          "indexed": false,
          "internalType": "bytes",
          "name": "_payload",
          "type": "bytes"
        },
        {
          "indexed": false,
          "internalType": "bytes",
          "name": "_reason",
          "type": "bytes"
        }
      ],
      "name": "MessageFailed",
      "type": "event"
    },
    {
      "anonymous": false,
      "inputs": [
        {
          "indexed": true,
          "internalType": "address",
          "name": "previousOwner",
          "type": "address"
        },
        {
          "indexed": true,
          "internalType": "address",
          "name": "newOwner",
          "type": "address"
        }
      ],
      "name": "OwnershipTransferred",
      "type": "event"
    },
    {
      "anonymous": false,
      "inputs": [
        {
          "indexed": true,
          "internalType": "uint16",
          "name": "_srcChainId",
          "type": "uint16"
        },
        {
          "indexed": true,
          "internalType": "bytes",
          "name": "_srcAddress",
          "type": "bytes"
        },
        {
          "indexed": true,
          "internalType": "address",
          "name": "_toAddress",
          "type": "address"
        },
        {
          "indexed": false,
          "internalType": "uint256[]",
          "name": "_tokenIds",
          "type": "uint256[]"
        },
        {
          "indexed": false,
          "internalType": "uint256[]",
          "name": "_amounts",
          "type": "uint256[]"
        }
      ],
      "name": "ReceiveBatchFromChain",
      "type": "event"
    },
    {
      "anonymous": false,
      "inputs": [
        {
          "indexed": true,
          "internalType": "uint16",
          "name": "_srcChainId",
          "type": "uint16"
        },
        {
          "indexed": true,
          "internalType": "bytes",
          "name": "_srcAddress",
          "type": "bytes"
        },
        {
          "indexed": true,
          "internalType": "address",
          "name": "_toAddress",
          "type": "address"
        },
        {
          "indexed": false,
          "internalType": "uint256",
          "name": "_tokenId",
          "type": "uint256"
        },
        {
          "indexed": false,
          "internalType": "uint256",
          "name": "_amount",
          "type": "uint256"
        }
      ],
      "name": "ReceiveFromChain",
      "type": "event"
    },
    {
      "anonymous": false,
      "inputs": [
        {
          "indexed": false,
          "internalType": "uint16",
          "name": "_srcChainId",
          "type": "uint16"
        },
        {
          "indexed": false,
          "internalType": "bytes",
          "name": "_srcAddress",
          "type": "bytes"
        },
        {
          "indexed": false,
          "internalType": "uint64",
          "name": "_nonce",
          "type": "uint64"
        },
        {
          "indexed": false,
          "internalType": "bytes32",
          "name": "_payloadHash",
          "type": "bytes32"
        }
      ],
      "name": "RetryMessageSuccess",
      "type": "event"
    },
    {
      "anonymous": false,
      "inputs": [
        {
          "indexed": true,
          "internalType": "uint16",
          "name": "_dstChainId",
          "type": "uint16"
        },
        {
          "indexed": true,
          "internalType": "address",
          "name": "_from",
          "type": "address"
        },
        {
          "indexed": true,
          "internalType": "bytes",
          "name": "_toAddress",
          "type": "bytes"
        },
        {
          "indexed": false,
          "internalType": "uint256[]",
          "name": "_tokenIds",
          "type": "uint256[]"
        },
        {
          "indexed": false,
          "internalType": "uint256[]",
          "name": "_amounts",
          "type": "uint256[]"
        }
      ],
      "name": "SendBatchToChain",
      "type": "event"
    },
    {
      "anonymous": false,
      "inputs": [
        {
          "indexed": true,
          "internalType": "uint16",
          "name": "_dstChainId",
          "type": "uint16"
        },
        {
          "indexed": true,
          "internalType": "address",
          "name": "_from",
          "type": "address"
        },
        {
          "indexed": true,
          "internalType": "bytes",
          "name": "_toAddress",
          "type": "bytes"
        },
        {
          "indexed": false,
          "internalType": "uint256",
          "name": "_tokenId",
          "type": "uint256"
        },
        {
          "indexed": false,
          "internalType": "uint256",
          "name": "_amount",
          "type": "uint256"
        }
      ],
      "name": "SendToChain",
      "type": "event"
    },
    {
      "anonymous": false,
      "inputs": [
        {
          "indexed": false,
          "internalType": "uint16",
          "name": "_dstChainId",
          "type": "uint16"
        },
        {
          "indexed": false,
          "internalType": "uint16",
          "name": "_type",
          "type": "uint16"
        },
        {
          "indexed": false,
          "internalType": "uint256",
          "name": "_minDstGas",
          "type": "uint256"
        }
      ],
      "name": "SetMinDstGas",
      "type": "event"
    },
    {
      "anonymous": false,
      "inputs": [
        {
          "indexed": false,
          "internalType": "address",
          "name": "precrime",
          "type": "address"
        }
      ],
      "name": "SetPrecrime",
      "type": "event"
    },
    {
      "anonymous": false,
      "inputs": [
        {
          "indexed": false,
          "internalType": "uint16",
          "name": "_remoteChainId",
          "type": "uint16"
        },
        {
          "indexed": false,
          "internalType": "bytes",
          "name": "_path",
          "type": "bytes"
        }
      ],
      "name": "SetTrustedRemote",
      "type": "event"
    },
    {
      "anonymous": false,
      "inputs": [
        {
          "indexed": false,
          "internalType": "uint16",
          "name": "_remoteChainId",
          "type": "uint16"
        },
        {
          "indexed": false,
          "internalType": "bytes",
          "name": "_remoteAddress",
          "type": "bytes"
        }
      ],
      "name": "SetTrustedRemoteAddress",
      "type": "event"
    },
    {
      "anonymous": false,
      "inputs": [
        {
          "indexed": false,
          "internalType": "bool",
          "name": "_useCustomAdapterParams",
          "type": "bool"
        }
      ],
      "name": "SetUseCustomAdapterParams",
      "type": "event"
    },
    {
      "inputs": [],
      "name": "DEFAULT_PAYLOAD_SIZE_LIMIT",
      "outputs": [
        {
          "internalType": "uint256",
          "name": "",
          "type": "uint256"
        }
      ],
      "stateMutability": "view",
      "type": "function"
    },
    {
      "inputs": [],
      "name": "FUNCTION_TYPE_SEND",
      "outputs": [
        {
          "internalType": "uint16",
          "name": "",
          "type": "uint16"
        }
      ],
      "stateMutability": "view",
      "type": "function"
    },
    {
      "inputs": [],
      "name": "FUNCTION_TYPE_SEND_BATCH",
      "outputs": [
        {
          "internalType": "uint16",
          "name": "",
          "type": "uint16"
        }
      ],
      "stateMutability": "view",
      "type": "function"
    },
    {
      "inputs": [],
      "name": "NO_EXTRA_GAS",
      "outputs": [
        {
          "internalType": "uint256",
          "name": "",
          "type": "uint256"
        }
      ],
      "stateMutability": "view",
      "type": "function"
    },
    {
      "inputs": [
        {
          "internalType": "uint16",
          "name": "_dstChainId",
          "type": "uint16"
        },
        {
          "internalType": "bytes",
          "name": "_toAddress",
          "type": "bytes"
        },
        {
          "internalType": "uint256[]",
          "name": "_tokenIds",
          "type": "uint256[]"
        },
        {
          "internalType": "uint256[]",
          "name": "_amounts",
          "type": "uint256[]"
        },
        {
          "internalType": "bool",
          "name": "_useZro",
          "type": "bool"
        },
        {
          "internalType": "bytes",
          "name": "_adapterParams",
          "type": "bytes"
        }
      ],
      "name": "estimateSendBatchFee",
      "outputs": [
        {
          "internalType": "uint256",
          "name": "nativeFee",
          "type": "uint256"
        },
        {
          "internalType": "uint256",
          "name": "zroFee",
          "type": "uint256"
        }
      ],
      "stateMutability": "view",
      "type": "function"
    },
    {
      "inputs": [
        {
          "internalType": "uint16",
          "name": "_dstChainId",
          "type": "uint16"
        },
        {
          "internalType": "bytes",
          "name": "_toAddress",
          "type": "bytes"
        },
        {
          "internalType": "uint256",
          "name": "_tokenId",
          "type": "uint256"
        },
        {
          "internalType": "uint256",
          "name": "_amount",
          "type": "uint256"
        },
        {
          "internalType": "bool",
          "name": "_useZro",
          "type": "bool"
        },
        {
          "internalType": "bytes",
          "name": "_adapterParams",
          "type": "bytes"
        }
      ],
      "name": "estimateSendFee",
      "outputs": [
        {
          "internalType": "uint256",
          "name": "nativeFee",
          "type": "uint256"
        },
        {
          "internalType": "uint256",
          "name": "zroFee",
          "type": "uint256"
        }
      ],
      "stateMutability": "view",
      "type": "function"
    },
    {
      "inputs": [
        {
          "internalType": "uint16",
          "name": "",
          "type": "uint16"
        },
        {
          "internalType": "bytes",
          "name": "",
          "type": "bytes"
        },
        {
          "internalType": "uint64",
          "name": "",
          "type": "uint64"
        }
      ],
      "name": "failedMessages",
      "outputs": [
        {
          "internalType": "bytes32",
          "name": "",
          "type": "bytes32"
        }
      ],
      "stateMutability": "view",
      "type": "function"
    },
    {
      "inputs": [
        {
          "internalType": "uint16",
          "name": "_srcChainId",
          "type": "uint16"
        },
        {
          "internalType": "bytes",
          "name": "_srcAddress",
          "type": "bytes"
        }
      ],
      "name": "forceResumeReceive",
      "outputs": [],
      "stateMutability": "nonpayable",
      "type": "function"
    },
    {
      "inputs": [
        {
          "internalType": "uint16",
          "name": "_version",
          "type": "uint16"
        },
        {
          "internalType": "uint16",
          "name": "_chainId",
          "type": "uint16"
        },
        {
          "internalType": "address",
          "name": "",
          "type": "address"
        },
        {
          "internalType": "uint256",
          "name": "_configType",
          "type": "uint256"
        }
      ],
      "name": "getConfig",
      "outputs": [
        {
          "internalType": "bytes",
          "name": "",
          "type": "bytes"
        }
      ],
      "stateMutability": "view",
      "type": "function"
    },
    {
      "inputs": [
        {
          "internalType": "uint16",
          "name": "_remoteChainId",
          "type": "uint16"
        }
      ],
      "name": "getTrustedRemoteAddress",
      "outputs": [
        {
          "internalType": "bytes",
          "name": "",
          "type": "bytes"
        }
      ],
      "stateMutability": "view",
      "type": "function"
    },
    {
      "inputs": [
        {
          "internalType": "uint16",
          "name": "_srcChainId",
          "type": "uint16"
        },
        {
          "internalType": "bytes",
          "name": "_srcAddress",
          "type": "bytes"
        }
      ],
      "name": "isTrustedRemote",
      "outputs": [
        {
          "internalType": "bool",
          "name": "",
          "type": "bool"
        }
      ],
      "stateMutability": "view",
      "type": "function"
    },
    {
      "inputs": [],
      "name": "lzEndpoint",
      "outputs": [
        {
          "internalType": "contract ILayerZeroEndpoint",
          "name": "",
          "type": "address"
        }
      ],
      "stateMutability": "view",
      "type": "function"
    },
    {
      "inputs": [
        {
          "internalType": "uint16",
          "name": "_srcChainId",
          "type": "uint16"
        },
        {
          "internalType": "bytes",
          "name": "_srcAddress",
          "type": "bytes"
        },
        {
          "internalType": "uint64",
          "name": "_nonce",
          "type": "uint64"
        },
        {
          "internalType": "bytes",
          "name": "_payload",
          "type": "bytes"
        }
      ],
      "name": "lzReceive",
      "outputs": [],
      "stateMutability": "nonpayable",
      "type": "function"
    },
    {
      "inputs": [
        {
          "internalType": "uint16",
          "name": "",
          "type": "uint16"
        },
        {
          "internalType": "uint16",
          "name": "",
          "type": "uint16"
        }
      ],
      "name": "minDstGasLookup",
      "outputs": [
        {
          "internalType": "uint256",
          "name": "",
          "type": "uint256"
        }
      ],
      "stateMutability": "view",
      "type": "function"
    },
    {
      "inputs": [
        {
          "internalType": "uint16",
          "name": "_srcChainId",
          "type": "uint16"
        },
        {
          "internalType": "bytes",
          "name": "_srcAddress",
          "type": "bytes"
        },
        {
          "internalType": "uint64",
          "name": "_nonce",
          "type": "uint64"
        },
        {
          "internalType": "bytes",
          "name": "_payload",
          "type": "bytes"
        }
      ],
      "name": "nonblockingLzReceive",
      "outputs": [],
      "stateMutability": "nonpayable",
      "type": "function"
    },
    {
      "inputs": [
        {
          "internalType": "address",
          "name": "_operator",
          "type": "address"
        },
        {
          "internalType": "address",
          "name": "",
          "type": "address"
        },
        {
          "internalType": "uint256[]",
          "name": "",
          "type": "uint256[]"
        },
        {
          "internalType": "uint256[]",
          "name": "",
          "type": "uint256[]"
        },
        {
          "internalType": "bytes",
          "name": "",
          "type": "bytes"
        }
      ],
      "name": "onERC1155BatchReceived",
      "outputs": [
        {
          "internalType": "bytes4",
          "name": "",
          "type": "bytes4"
        }
      ],
      "stateMutability": "nonpayable",
      "type": "function"
    },
    {
      "inputs": [
        {
          "internalType": "address",
          "name": "_operator",
          "type": "address"
        },
        {
          "internalType": "address",
          "name": "",
          "type": "address"
        },
        {
          "internalType": "uint256",
          "name": "",
          "type": "uint256"
        },
        {
          "internalType": "uint256",
          "name": "",
          "type": "uint256"
        },
        {
          "internalType": "bytes",
          "name": "",
          "type": "bytes"
        }
      ],
      "name": "onERC1155Received",
      "outputs": [
        {
          "internalType": "bytes4",
          "name": "",
          "type": "bytes4"
        }
      ],
      "stateMutability": "nonpayable",
      "type": "function"
    },
    {
      "inputs": [],
      "name": "owner",
      "outputs": [
        {
          "internalType": "address",
          "name": "",
          "type": "address"
        }
      ],
      "stateMutability": "view",
      "type": "function"
    },
    {
      "inputs": [
        {
          "internalType": "uint16",
          "name": "",
          "type": "uint16"
        }
      ],
      "name": "payloadSizeLimitLookup",
      "outputs": [
        {
          "internalType": "uint256",
          "name": "",
          "type": "uint256"
        }
      ],
      "stateMutability": "view",
      "type": "function"
    },
    {
      "inputs": [],
      "name": "precrime",
      "outputs": [
        {
          "internalType": "address",
          "name": "",
          "type": "address"
        }
      ],
      "stateMutability": "view",
      "type": "function"
    },
    {
      "inputs": [],
      "name": "renounceOwnership",
      "outputs": [],
      "stateMutability": "nonpayable",
      "type": "function"
    },
    {
      "inputs": [
        {
          "internalType": "uint16",
          "name": "_srcChainId",
          "type": "uint16"
        },
        {
          "internalType": "bytes",
          "name": "_srcAddress",
          "type": "bytes"
        },
        {
          "internalType": "uint64",
          "name": "_nonce",
          "type": "uint64"
        },
        {
          "internalType": "bytes",
          "name": "_payload",
          "type": "bytes"
        }
      ],
      "name": "retryMessage",
      "outputs": [],
      "stateMutability": "payable",
      "type": "function"
    },
    {
      "inputs": [
        {
          "internalType": "address",
          "name": "_from",
          "type": "address"
        },
        {
          "internalType": "uint16",
          "name": "_dstChainId",
          "type": "uint16"
        },
        {
          "internalType": "bytes",
          "name": "_toAddress",
          "type": "bytes"
        },
        {
          "internalType": "uint256[]",
          "name": "_tokenIds",
          "type": "uint256[]"
        },
        {
          "internalType": "uint256[]",
          "name": "_amounts",
          "type": "uint256[]"
        },
        {
          "internalType": "address payable",
          "name": "_refundAddress",
          "type": "address"
        },
        {
          "internalType": "address",
          "name": "_zroPaymentAddress",
          "type": "address"
        },
        {
          "internalType": "bytes",
          "name": "_adapterParams",
          "type": "bytes"
        }
      ],
      "name": "sendBatchFrom",
      "outputs": [],
      "stateMutability": "payable",
      "type": "function"
    },
    {
      "inputs": [
        {
          "internalType": "address",
          "name": "_from",
          "type": "address"
        },
        {
          "internalType": "uint16",
          "name": "_dstChainId",
          "type": "uint16"
        },
        {
          "internalType": "bytes",
          "name": "_toAddress",
          "type": "bytes"
        },
        {
          "internalType": "uint256",
          "name": "_tokenId",
          "type": "uint256"
        },
        {
          "internalType": "uint256",
          "name": "_amount",
          "type": "uint256"
        },
        {
          "internalType": "address payable",
          "name": "_refundAddress",
          "type": "address"
        },
        {
          "internalType": "address",
          "name": "_zroPaymentAddress",
          "type": "address"
        },
        {
          "internalType": "bytes",
          "name": "_adapterParams",
          "type": "bytes"
        }
      ],
      "name": "sendFrom",
      "outputs": [],
      "stateMutability": "payable",
      "type": "function"
    },
    {
      "inputs": [
        {
          "internalType": "uint16",
          "name": "_version",
          "type": "uint16"
        },
        {
          "internalType": "uint16",
          "name": "_chainId",
          "type": "uint16"
        },
        {
          "internalType": "uint256",
          "name": "_configType",
          "type": "uint256"
        },
        {
          "internalType": "bytes",
          "name": "_config",
          "type": "bytes"
        }
      ],
      "name": "setConfig",
      "outputs": [],
      "stateMutability": "nonpayable",
      "type": "function"
    },
    {
      "inputs": [
        {
          "internalType": "uint16",
          "name": "_dstChainId",
          "type": "uint16"
        },
        {
          "internalType": "uint16",
          "name": "_packetType",
          "type": "uint16"
        },
        {
          "internalType": "uint256",
          "name": "_minGas",
          "type": "uint256"
        }
      ],
      "name": "setMinDstGas",
      "outputs": [],
      "stateMutability": "nonpayable",
      "type": "function"
    },
    {
      "inputs": [
        {
          "internalType": "uint16",
          "name": "_dstChainId",
          "type": "uint16"
        },
        {
          "internalType": "uint256",
          "name": "_size",
          "type": "uint256"
        }
      ],
      "name": "setPayloadSizeLimit",
      "outputs": [],
      "stateMutability": "nonpayable",
      "type": "function"
    },
    {
      "inputs": [
        {
          "internalType": "address",
          "name": "_precrime",
          "type": "address"
        }
      ],
      "name": "setPrecrime",
      "outputs": [],
      "stateMutability": "nonpayable",
      "type": "function"
    },
    {
      "inputs": [
        {
          "internalType": "uint16",
          "name": "_version",
          "type": "uint16"
        }
      ],
      "name": "setReceiveVersion",
      "outputs": [],
      "stateMutability": "nonpayable",
      "type": "function"
    },
    {
      "inputs": [
        {
          "internalType": "uint16",
          "name": "_version",
          "type": "uint16"
        }
      ],
      "name": "setSendVersion",
      "outputs": [],
      "stateMutability": "nonpayable",
      "type": "function"
    },
    {
      "inputs": [
        {
          "internalType": "uint16",
          "name": "_remoteChainId",
          "type": "uint16"
        },
        {
          "internalType": "bytes",
          "name": "_path",
          "type": "bytes"
        }
      ],
      "name": "setTrustedRemote",
      "outputs": [],
      "stateMutability": "nonpayable",
      "type": "function"
    },
    {
      "inputs": [
        {
          "internalType": "uint16",
          "name": "_remoteChainId",
          "type": "uint16"
        },
        {
          "internalType": "bytes",
          "name": "_remoteAddress",
          "type": "bytes"
        }
      ],
      "name": "setTrustedRemoteAddress",
      "outputs": [],
      "stateMutability": "nonpayable",
      "type": "function"
    },
    {
      "inputs": [
        {
          "internalType": "bool",
          "name": "_useCustomAdapterParams",
          "type": "bool"
        }
      ],
      "name": "setUseCustomAdapterParams",
      "outputs": [],
      "stateMutability": "nonpayable",
      "type": "function"
    },
    {
      "inputs": [
        {
          "internalType": "bytes4",
          "name": "interfaceId",
          "type": "bytes4"
        }
      ],
      "name": "supportsInterface",
      "outputs": [
        {
          "internalType": "bool",
          "name": "",
          "type": "bool"
        }
      ],
      "stateMutability": "view",
      "type": "function"
    },
    {
      "inputs": [],
      "name": "token",
      "outputs": [
        {
          "internalType": "contract IERC1155",
          "name": "",
          "type": "address"
        }
      ],
      "stateMutability": "view",
      "type": "function"
    },
    {
      "inputs": [
        {
          "internalType": "address",
          "name": "newOwner",
          "type": "address"
        }
      ],
      "name": "transferOwnership",
      "outputs": [],
      "stateMutability": "nonpayable",
      "type": "function"
    },
    {
      "inputs": [
        {
          "internalType": "uint16",
          "name": "",
          "type": "uint16"
        }
      ],
      "name": "trustedRemoteLookup",
      "outputs": [
        {
          "internalType": "bytes",
          "name": "",
          "type": "bytes"
        }
      ],
      "stateMutability": "view",
      "type": "function"
    },
    {
      "inputs": [],
      "name": "useCustomAdapterParams",
      "outputs": [
        {
          "internalType": "bool",
          "name": "",
          "type": "bool"
        }
      ],
      "stateMutability": "view",
      "type": "function"
    }
  ],
  "bytecode": {
    "object": "0x60c06040523480156200001157600080fd5b506040516200358138038062003581833981016040819052620000349162000231565b8180806200004233620000d8565b6001600160a01b0390811660805262000068925083169050636cdb3d1360e11b62000128565b620000c55760405162461bcd60e51b8152602060048201526024808201527f50726f78794f4e4654313135353a20696e76616c69642045524331313535207460448201526337b5b2b760e11b606482015260840160405180910390fd5b6001600160a01b031660a0525062000269565b600080546001600160a01b038381166001600160a01b0319831681178455604051919092169283917f8be0079c531659141344cd1fd0a4f28419497f9722a3daafe3b4186f6b6457e09190a35050565b6000620001358362000150565b801562000149575062000149838362000189565b9392505050565b600062000165826301ffc9a760e01b62000189565b801562000183575062000181826001600160e01b031962000189565b155b92915050565b604080516001600160e01b03198316602480830191909152825180830390910181526044909101909152602080820180516001600160e01b03166301ffc9a760e01b178152825160009392849283928392918391908a617530fa92503d91506000519050828015620001fc575060208210155b8015620002095750600081115b979650505050505050565b80516001600160a01b03811681146200022c57600080fd5b919050565b600080604083850312156200024557600080fd5b620002508362000214565b9150620002606020840162000214565b90509250929050565b60805160a0516132ac620002d56000396000818161076501528181611daf015261207b0152600081816105b50152818161078a01528181610a0401528181610aac01528181610bce015281816110090152818161113f015281816115ae0152611fe801526132ac6000f3fe6080604052600436106102245760003560e01c8063950c8a7411610123578063cbed8b9c116100ab578063ed629c5c1161006f578063ed629c5c146106d9578063f23a6e61146106f3578063f2fde38b14610713578063f5ecbdbc14610733578063fc0c546a1461075357600080fd5b8063cbed8b9c14610646578063d1deba1f14610666578063df2a5b3b14610679578063eab45d9c14610699578063eb8d72b7146106b957600080fd5b8063b2535663116100f2578063b253566314610583578063b353aaa7146105a3578063baf3292d146105d7578063bc197c81146105f7578063c44618341461063057600080fd5b8063950c8a741461050e5780639f38369a1461052e578063a6c3d1651461054e578063af3fb21c1461056e57600080fd5b806344770515116101b1578063715018a611610175578063715018a61461042d5780637533d788146104425780638608e5f81461046f5780638cfd8f5c146104a45780638da5cb5b146104dc57600080fd5b806344770515146103835780634ab4e687146103985780634db8226a146103ab5780635b8c41e6146103be57806366ad5c8a1461040d57600080fd5b806310ddb137116101f857806310ddb137146102c0578063149e3e1f146102e05780633d8b38f6146103085780633f1f4fa41461032857806342d65a8d1461036357600080fd5b80621d35671461022957806301ffc9a71461024b57806307e0db17146102805780630df37483146102a0575b600080fd5b34801561023557600080fd5b5061024961024436600461222c565b610787565b005b34801561025757600080fd5b5061026b6102663660046122bf565b6109b8565b60405190151581526020015b60405180910390f35b34801561028c57600080fd5b5061024961029b3660046122e9565b6109e3565b3480156102ac57600080fd5b506102496102bb366004612304565b610a6c565b3480156102cc57600080fd5b506102496102db3660046122e9565b610a8b565b3480156102ec57600080fd5b506102f5600281565b60405161ffff9091168152602001610277565b34801561031457600080fd5b5061026b61032336600461232e565b610ae3565b34801561033457600080fd5b506103556103433660046122e9565b60036020526000908152604090205481565b604051908152602001610277565b34801561036f57600080fd5b5061024961037e36600461232e565b610baf565b34801561038f57600080fd5b50610355600081565b6102496103a63660046124f0565b610c35565b6102496103b93660046125df565b610c4f565b3480156103ca57600080fd5b506103556103d9366004612685565b6005602090815260009384526040808520845180860184018051928152908401958401959095209452929052825290205481565b34801561041957600080fd5b5061024961042836600461222c565b610c6f565b34801561043957600080fd5b50610249610d4b565b34801561044e57600080fd5b5061046261045d3660046122e9565b610d5f565b6040516102779190612732565b34801561047b57600080fd5b5061048f61048a366004612755565b610df9565b60408051928352602083019190915201610277565b3480156104b057600080fd5b506103556104bf3660046127eb565b600260209081526000928352604080842090915290825290205481565b3480156104e857600080fd5b506000546001600160a01b03165b6040516001600160a01b039091168152602001610277565b34801561051a57600080fd5b506004546104f6906001600160a01b031681565b34801561053a57600080fd5b506104626105493660046122e9565b610e29565b34801561055a57600080fd5b5061024961056936600461232e565b610f3f565b34801561057a57600080fd5b506102f5600181565b34801561058f57600080fd5b5061048f61059e36600461281e565b610fc8565b3480156105af57600080fd5b506104f67f000000000000000000000000000000000000000000000000000000000000000081565b3480156105e357600080fd5b506102496105f23660046128ba565b611096565b34801561060357600080fd5b506106176106123660046128d7565b6110f3565b6040516001600160e01b03199091168152602001610277565b34801561063c57600080fd5b5061035561271081565b34801561065257600080fd5b50610249610661366004612984565b611120565b61024961067436600461222c565b6111b5565b34801561068557600080fd5b506102496106943660046129f2565b6113cb565b3480156106a557600080fd5b506102496106b4366004612a2e565b611435565b3480156106c557600080fd5b506102496106d436600461232e565b61147e565b3480156106e557600080fd5b5060065461026b9060ff1681565b3480156106ff57600080fd5b5061061761070e366004612a49565b6114d8565b34801561071f57600080fd5b5061024961072e3660046128ba565b611504565b34801561073f57600080fd5b5061046261074e366004612ab1565b61157d565b34801561075f57600080fd5b506104f67f000000000000000000000000000000000000000000000000000000000000000081565b337f00000000000000000000000000000000000000000000000000000000000000006001600160a01b0316146108045760405162461bcd60e51b815260206004820152601e60248201527f4c7a4170703a20696e76616c696420656e64706f696e742063616c6c6572000060448201526064015b60405180910390fd5b61ffff86166000908152600160205260408120805461082290612afe565b80601f016020809104026020016040519081016040528092919081815260200182805461084e90612afe565b801561089b5780601f106108705761010080835404028352916020019161089b565b820191906000526020600020905b81548152906001019060200180831161087e57829003601f168201915b505050505090508051868690501480156108b6575060008151115b80156108de5750805160208201206040516108d49088908890612b38565b6040518091039020145b6109395760405162461bcd60e51b815260206004820152602660248201527f4c7a4170703a20696e76616c696420736f757263652073656e64696e6720636f6044820152651b9d1c9858dd60d21b60648201526084016107fb565b6109af8787878080601f01602080910402602001604051908101604052809392919081815260200183838082843760009201919091525050604080516020601f8a018190048102820181019092528881528a93509150889088908190840183828082843760009201919091525061162592505050565b50505050505050565b60006001600160e01b03198216630271189760e51b14806109dd57506109dd8261169e565b92915050565b6109eb6116d3565b6040516307e0db1760e01b815261ffff821660048201527f00000000000000000000000000000000000000000000000000000000000000006001600160a01b0316906307e0db17906024015b600060405180830381600087803b158015610a5157600080fd5b505af1158015610a65573d6000803e3d6000fd5b5050505050565b610a746116d3565b61ffff909116600090815260036020526040902055565b610a936116d3565b6040516310ddb13760e01b815261ffff821660048201527f00000000000000000000000000000000000000000000000000000000000000006001600160a01b0316906310ddb13790602401610a37565b61ffff831660009081526001602052604081208054829190610b0490612afe565b80601f0160208091040260200160405190810160405280929190818152602001828054610b3090612afe565b8015610b7d5780601f10610b5257610100808354040283529160200191610b7d565b820191906000526020600020905b815481529060010190602001808311610b6057829003601f168201915b505050505090508383604051610b94929190612b38565b60405180910390208180519060200120149150509392505050565b610bb76116d3565b6040516342d65a8d60e01b81526001600160a01b037f000000000000000000000000000000000000000000000000000000000000000016906342d65a8d90610c0790869086908690600401612b71565b600060405180830381600087803b158015610c2157600080fd5b505af11580156109af573d6000803e3d6000fd5b610c45888888888888888861172d565b5050505050505050565b610c45888888610c5e89611914565b610c6789611914565b88888861172d565b333014610ccd5760405162461bcd60e51b815260206004820152602660248201527f4e6f6e626c6f636b696e674c7a4170703a2063616c6c6572206d7573742062656044820152650204c7a4170760d41b60648201526084016107fb565b610d438686868080601f01602080910402602001604051908101604052809392919081815260200183838082843760009201919091525050604080516020601f89018190048102820181019092528781528993509150879087908190840183828082843760009201919091525061195f92505050565b505050505050565b610d536116d3565b610d5d6000611aac565b565b60016020526000908152604090208054610d7890612afe565b80601f0160208091040260200160405190810160405280929190818152602001828054610da490612afe565b8015610df15780601f10610dc657610100808354040283529160200191610df1565b820191906000526020600020905b815481529060010190602001808311610dd457829003601f168201915b505050505081565b600080610e1a8888610e0a89611914565b610e1389611914565b8888610fc8565b91509150965096945050505050565b61ffff8116600090815260016020526040812080546060929190610e4c90612afe565b80601f0160208091040260200160405190810160405280929190818152602001828054610e7890612afe565b8015610ec55780601f10610e9a57610100808354040283529160200191610ec5565b820191906000526020600020905b815481529060010190602001808311610ea857829003601f168201915b505050505090508051600003610f1d5760405162461bcd60e51b815260206004820152601d60248201527f4c7a4170703a206e6f20747275737465642070617468207265636f726400000060448201526064016107fb565b610f38600060148351610f309190612ba5565b839190611afc565b9392505050565b610f476116d3565b818130604051602001610f5c93929190612bb8565b60408051601f1981840301815291815261ffff8516600090815260016020522090610f879082612c26565b507f8c0400cfe2d1199b1a725c78960bcc2a344d869b80590d0f2bd005db15a572ce838383604051610fbb93929190612b71565b60405180910390a1505050565b6000806000878787604051602001610fe293929190612d21565b60408051601f198184030181529082905263040a7bb160e41b825291506001600160a01b037f000000000000000000000000000000000000000000000000000000000000000016906340a7bb1090611046908c90309086908b908b90600401612d64565b6040805180830381865afa158015611062573d6000803e3d6000fd5b505050506040513d601f19601f820116820180604052508101906110869190612db8565b9250925050965096945050505050565b61109e6116d3565b600480546001600160a01b0319166001600160a01b0383169081179091556040519081527f5db758e995a17ec1ad84bdef7e8c3293a0bd6179bcce400dff5d4c3d87db726b906020015b60405180910390a150565b60006001600160a01b038616301461110d57506000611117565b5063bc197c8160e01b5b95945050505050565b6111286116d3565b6040516332fb62e760e21b81526001600160a01b037f0000000000000000000000000000000000000000000000000000000000000000169063cbed8b9c9061117c9088908890889088908890600401612ddc565b600060405180830381600087803b15801561119657600080fd5b505af11580156111aa573d6000803e3d6000fd5b505050505050505050565b61ffff861660009081526005602052604080822090516111d89088908890612b38565b90815260408051602092819003830190206001600160401b038716600090815292529020549050806112585760405162461bcd60e51b815260206004820152602360248201527f4e6f6e626c6f636b696e674c7a4170703a206e6f2073746f726564206d65737360448201526261676560e81b60648201526084016107fb565b808383604051611269929190612b38565b6040518091039020146112c85760405162461bcd60e51b815260206004820152602160248201527f4e6f6e626c6f636b696e674c7a4170703a20696e76616c6964207061796c6f616044820152601960fa1b60648201526084016107fb565b61ffff871660009081526005602052604080822090516112eb9089908990612b38565b90815260408051602092819003830181206001600160401b038916600090815290845282902093909355601f88018290048202830182019052868252611383918991899089908190840183828082843760009201919091525050604080516020601f8a018190048102820181019092528881528a93509150889088908190840183828082843760009201919091525061195f92505050565b7fc264d91f3adc5588250e1551f547752ca0cfa8f6b530d243b9f9f4cab10ea8e587878787856040516113ba959493929190612e15565b60405180910390a150505050505050565b6113d36116d3565b61ffff83811660008181526002602090815260408083209487168084529482529182902085905581519283528201929092529081018290527f9d5c7c0b934da8fefa9c7760c98383778a12dfbfc0c3b3106518f43fb9508ac090606001610fbb565b61143d6116d3565b6006805460ff19168215159081179091556040519081527f1584ad594a70cbe1e6515592e1272a987d922b097ead875069cebe8b40c004a4906020016110e8565b6114866116d3565b61ffff831660009081526001602052604090206114a4828483612e50565b507ffa41487ad5d6728f0b19276fa1eddc16558578f5109fc39d2dc33c3230470dab838383604051610fbb93929190612b71565b60006001600160a01b03861630146114f257506000611117565b5063f23a6e6160e01b95945050505050565b61150c6116d3565b6001600160a01b0381166115715760405162461bcd60e51b815260206004820152602660248201527f4f776e61626c653a206e6577206f776e657220697320746865207a65726f206160448201526564647265737360d01b60648201526084016107fb565b61157a81611aac565b50565b604051633d7b2f6f60e21b815261ffff808616600483015284166024820152306044820152606481018290526060907f00000000000000000000000000000000000000000000000000000000000000006001600160a01b03169063f5ecbdbc90608401600060405180830381865afa1580156115fd573d6000803e3d6000fd5b505050506040513d6000823e601f3d908101601f191682016040526111179190810190612f5c565b6000806116885a60966366ad5c8a60e01b8989898960405160240161164d9493929190612f90565b60408051601f198184030181529190526020810180516001600160e01b03166001600160e01b03199093169290921790915230929190611c09565b9150915081610d4357610d438686868685611c93565b60006001600160e01b031982166319abbbbb60e11b14806109dd57506301ffc9a760e01b6001600160e01b03198316146109dd565b6000546001600160a01b03163314610d5d5760405162461bcd60e51b815260206004820181905260248201527f4f776e61626c653a2063616c6c6572206973206e6f7420746865206f776e657260448201526064016107fb565b61173a8888888888611d30565b600086868660405160200161175193929190612d21565b604051602081830303815290604052905085516001036118565760065460ff161561178957611784886001846000611dea565b6117a8565b8151156117a85760405162461bcd60e51b81526004016107fb90612fce565b6117b6888286868634611ebf565b866040516117c49190613012565b6040518091039020896001600160a01b03168961ffff167f968b0d61ebcf43e5d76ed87bd2c4ee2f22b4969b9f4ca49e3373c025eddd5eeb8960008151811061180f5761180f61302e565b60200260200101518960008151811061182a5761182a61302e565b6020026020010151604051611849929190918252602082015260400190565b60405180910390a46111aa565b6001865111156111aa5760065460ff161561187e57611879886002846000611dea565b61189d565b81511561189d5760405162461bcd60e51b81526004016107fb90612fce565b6118ab888286868634611ebf565b866040516118b99190613012565b6040518091039020896001600160a01b03168961ffff167fddd15f7cfbd674ac2096d598f1650367f8a8bd72b4e3abd85591099ea3b57e338989604051611901929190613044565b60405180910390a4505050505050505050565b6040805160018082528183019092526060916000919060208083019080368337019050509050828160008151811061194e5761194e61302e565b602090810291909101015292915050565b60008060008380602001905181019061197891906130c8565b6014830151929550909350915061199188828585612064565b8251600103611a3a57806001600160a01b0316876040516119b29190613012565b60405180910390208961ffff167f1bf64e58d19fc43de4c44b3d1bb1fae313979af831a7a39f3297564294329f0f866000815181106119f3576119f361302e565b602002602001015186600081518110611a0e57611a0e61302e565b6020026020010151604051611a2d929190918252602082015260400190565b60405180910390a4610c45565b600183511115610c4557806001600160a01b031687604051611a5c9190613012565b60405180910390208961ffff167f1ae08edbbcd7baa8d064835de8593ce16b313414525ac89534e349f4da7926e48686604051611a9a929190613044565b60405180910390a45050505050505050565b600080546001600160a01b038381166001600160a01b0319831681178455604051919092169283917f8be0079c531659141344cd1fd0a4f28419497f9722a3daafe3b4186f6b6457e09190a35050565b606081611b0a81601f61314f565b1015611b495760405162461bcd60e51b815260206004820152600e60248201526d736c6963655f6f766572666c6f7760901b60448201526064016107fb565b611b53828461314f565b84511015611b975760405162461bcd60e51b8152602060048201526011602482015270736c6963655f6f75744f66426f756e647360781b60448201526064016107fb565b606082158015611bb65760405191506000825260208201604052611c00565b6040519150601f8416801560200281840101858101878315602002848b0101015b81831015611bef578051835260209283019201611bd7565b5050858452601f01601f1916604052505b50949350505050565b6000606060008060008661ffff166001600160401b03811115611c2e57611c2e6123a0565b6040519080825280601f01601f191660200182016040528015611c58576020820181803683370190505b50905060008087516020890160008d8df191503d925086831115611c7a578692505b828152826000602083013e909890975095505050505050565b8180519060200120600560008761ffff1661ffff16815260200190815260200160002085604051611cc49190613012565b9081526040805191829003602090810183206001600160401b0388166000908152915220919091557fe183f33de2837795525b4792ca4cd60535bd77c53b7e7030060bfcf5734d6b0c90611d219087908790879087908790613162565b60405180910390a15050505050565b6001600160a01b0385163314611d985760405162461bcd60e51b815260206004820152602760248201527f50726f78794f4e4654313135353a206f776e6572206973206e6f742073656e646044820152661031b0b63632b960c91b60648201526084016107fb565b604051631759616b60e11b81526001600160a01b037f00000000000000000000000000000000000000000000000000000000000000001690632eb2c2d69061117c9088903090879087906004016131b4565b6000611df5836120e4565b61ffff80871660009081526002602090815260408083209389168352929052205490915080611e665760405162461bcd60e51b815260206004820152601a60248201527f4c7a4170703a206d696e4761734c696d6974206e6f742073657400000000000060448201526064016107fb565b611e70838261314f565b821015610d435760405162461bcd60e51b815260206004820152601b60248201527f4c7a4170703a20676173206c696d697420697320746f6f206c6f77000000000060448201526064016107fb565b61ffff861660009081526001602052604081208054611edd90612afe565b80601f0160208091040260200160405190810160405280929190818152602001828054611f0990612afe565b8015611f565780601f10611f2b57610100808354040283529160200191611f56565b820191906000526020600020905b815481529060010190602001808311611f3957829003601f168201915b505050505090508051600003611fc75760405162461bcd60e51b815260206004820152603060248201527f4c7a4170703a2064657374696e6174696f6e20636861696e206973206e6f742060448201526f61207472757374656420736f7572636560801b60648201526084016107fb565b611fd2878751612140565b60405162c5803160e81b81526001600160a01b037f0000000000000000000000000000000000000000000000000000000000000000169063c5803100908490612029908b9086908c908c908c908c9060040161320f565b6000604051808303818588803b15801561204257600080fd5b505af1158015612056573d6000803e3d6000fd5b505050505050505050505050565b604051631759616b60e11b81526001600160a01b037f00000000000000000000000000000000000000000000000000000000000000001690632eb2c2d6906120b69030908790879087906004016131b4565b600060405180830381600087803b1580156120d057600080fd5b505af1158015610c45573d6000803e3d6000fd5b60006022825110156121385760405162461bcd60e51b815260206004820152601c60248201527f4c7a4170703a20696e76616c69642061646170746572506172616d730000000060448201526064016107fb565b506022015190565b61ffff82166000908152600360205260408120549081900361216157506127105b808211156121b15760405162461bcd60e51b815260206004820181905260248201527f4c7a4170703a207061796c6f61642073697a6520697320746f6f206c6172676560448201526064016107fb565b505050565b803561ffff811681146121c857600080fd5b919050565b60008083601f8401126121df57600080fd5b5081356001600160401b038111156121f657600080fd5b60208301915083602082850101111561220e57600080fd5b9250929050565b80356001600160401b03811681146121c857600080fd5b6000806000806000806080878903121561224557600080fd5b61224e876121b6565b955060208701356001600160401b038082111561226a57600080fd5b6122768a838b016121cd565b909750955085915061228a60408a01612215565b945060608901359150808211156122a057600080fd5b506122ad89828a016121cd565b979a9699509497509295939492505050565b6000602082840312156122d157600080fd5b81356001600160e01b031981168114610f3857600080fd5b6000602082840312156122fb57600080fd5b610f38826121b6565b6000806040838503121561231757600080fd5b612320836121b6565b946020939093013593505050565b60008060006040848603121561234357600080fd5b61234c846121b6565b925060208401356001600160401b0381111561236757600080fd5b612373868287016121cd565b9497909650939450505050565b6001600160a01b038116811461157a57600080fd5b80356121c881612380565b634e487b7160e01b600052604160045260246000fd5b604051601f8201601f191681016001600160401b03811182821017156123de576123de6123a0565b604052919050565b60006001600160401b038211156123ff576123ff6123a0565b50601f01601f191660200190565b600082601f83011261241e57600080fd5b813561243161242c826123e6565b6123b6565b81815284602083860101111561244657600080fd5b816020850160208301376000918101602001919091529392505050565b60006001600160401b0382111561247c5761247c6123a0565b5060051b60200190565b600082601f83011261249757600080fd5b813560206124a761242c83612463565b8083825260208201915060208460051b8701019350868411156124c957600080fd5b602086015b848110156124e557803583529183019183016124ce565b509695505050505050565b600080600080600080600080610100898b03121561250d57600080fd5b61251689612395565b975061252460208a016121b6565b965060408901356001600160401b038082111561254057600080fd5b61254c8c838d0161240d565b975060608b013591508082111561256257600080fd5b61256e8c838d01612486565b965060808b013591508082111561258457600080fd5b6125908c838d01612486565b955061259e60a08c01612395565b94506125ac60c08c01612395565b935060e08b01359150808211156125c257600080fd5b506125cf8b828c0161240d565b9150509295985092959890939650565b600080600080600080600080610100898b0312156125fc57600080fd5b883561260781612380565b975061261560208a016121b6565b965060408901356001600160401b038082111561263157600080fd5b61263d8c838d0161240d565b975060608b0135965060808b0135955060a08b0135915061265d82612380565b90935060c08a01359061266f82612380565b90925060e08a013590808211156125c257600080fd5b60008060006060848603121561269a57600080fd5b6126a3846121b6565b925060208401356001600160401b038111156126be57600080fd5b6126ca8682870161240d565b9250506126d960408501612215565b90509250925092565b60005b838110156126fd5781810151838201526020016126e5565b50506000910152565b6000815180845261271e8160208601602086016126e2565b601f01601f19169290920160200192915050565b602081526000610f386020830184612706565b803580151581146121c857600080fd5b60008060008060008060c0878903121561276e57600080fd5b612777876121b6565b955060208701356001600160401b038082111561279357600080fd5b61279f8a838b0161240d565b965060408901359550606089013594506127bb60808a01612745565b935060a08901359150808211156127d157600080fd5b506127de89828a0161240d565b9150509295509295509295565b600080604083850312156127fe57600080fd5b612807836121b6565b9150612815602084016121b6565b90509250929050565b60008060008060008060c0878903121561283757600080fd5b612840876121b6565b955060208701356001600160401b038082111561285c57600080fd5b6128688a838b0161240d565b9650604089013591508082111561287e57600080fd5b61288a8a838b01612486565b955060608901359150808211156128a057600080fd5b6128ac8a838b01612486565b94506127bb60808a01612745565b6000602082840312156128cc57600080fd5b8135610f3881612380565b600080600080600060a086880312156128ef57600080fd5b85356128fa81612380565b9450602086013561290a81612380565b935060408601356001600160401b038082111561292657600080fd5b61293289838a01612486565b9450606088013591508082111561294857600080fd5b61295489838a01612486565b9350608088013591508082111561296a57600080fd5b506129778882890161240d565b9150509295509295909350565b60008060008060006080868803121561299c57600080fd5b6129a5866121b6565b94506129b3602087016121b6565b93506040860135925060608601356001600160401b038111156129d557600080fd5b6129e1888289016121cd565b969995985093965092949392505050565b600080600060608486031215612a0757600080fd5b612a10846121b6565b9250612a1e602085016121b6565b9150604084013590509250925092565b600060208284031215612a4057600080fd5b610f3882612745565b600080600080600060a08688031215612a6157600080fd5b8535612a6c81612380565b94506020860135612a7c81612380565b9350604086013592506060860135915060808601356001600160401b03811115612aa557600080fd5b6129778882890161240d565b60008060008060808587031215612ac757600080fd5b612ad0856121b6565b9350612ade602086016121b6565b92506040850135612aee81612380565b9396929550929360600135925050565b600181811c90821680612b1257607f821691505b602082108103612b3257634e487b7160e01b600052602260045260246000fd5b50919050565b8183823760009101908152919050565b81835281816020850137506000828201602090810191909152601f909101601f19169091010190565b61ffff84168152604060208201526000611117604083018486612b48565b634e487b7160e01b600052601160045260246000fd5b818103818111156109dd576109dd612b8f565b8284823760609190911b6bffffffffffffffffffffffff19169101908152601401919050565b601f8211156121b1576000816000526020600020601f850160051c81016020861015612c075750805b601f850160051c820191505b81811015610d4357828155600101612c13565b81516001600160401b03811115612c3f57612c3f6123a0565b612c5381612c4d8454612afe565b84612bde565b602080601f831160018114612c885760008415612c705750858301515b600019600386901b1c1916600185901b178555610d43565b600085815260208120601f198616915b82811015612cb757888601518255948401946001909101908401612c98565b5085821015612cd55787850151600019600388901b60f8161c191681555b5050505050600190811b01905550565b60008151808452602080850194506020840160005b83811015612d1657815187529582019590820190600101612cfa565b509495945050505050565b606081526000612d346060830186612706565b8281036020840152612d468186612ce5565b90508281036040840152612d5a8185612ce5565b9695505050505050565b61ffff861681526001600160a01b038516602082015260a060408201819052600090612d9290830186612706565b84151560608401528281036080840152612dac8185612706565b98975050505050505050565b60008060408385031215612dcb57600080fd5b505080516020909101519092909150565b600061ffff808816835280871660208401525084604083015260806060830152612e0a608083018486612b48565b979650505050505050565b61ffff86168152608060208201526000612e33608083018688612b48565b6001600160401b0394909416604083015250606001529392505050565b6001600160401b03831115612e6757612e676123a0565b612e7b83612e758354612afe565b83612bde565b6000601f841160018114612eaf5760008515612e975750838201355b600019600387901b1c1916600186901b178355610a65565b600083815260209020601f19861690835b82811015612ee05786850135825560209485019460019092019101612ec0565b5086821015612efd5760001960f88860031b161c19848701351681555b505060018560011b0183555050505050565b600082601f830112612f2057600080fd5b8151612f2e61242c826123e6565b818152846020838601011115612f4357600080fd5b612f548260208301602087016126e2565b949350505050565b600060208284031215612f6e57600080fd5b81516001600160401b03811115612f8457600080fd5b612f5484828501612f0f565b61ffff85168152608060208201526000612fad6080830186612706565b6001600160401b03851660408401528281036060840152612e0a8185612706565b60208082526024908201527f4c7a4170703a205f61646170746572506172616d73206d75737420626520656d604082015263383a3c9760e11b606082015260800190565b600082516130248184602087016126e2565b9190910192915050565b634e487b7160e01b600052603260045260246000fd5b6040815260006130576040830185612ce5565b82810360208401526111178185612ce5565b600082601f83011261307a57600080fd5b8151602061308a61242c83612463565b8083825260208201915060208460051b8701019350868411156130ac57600080fd5b602086015b848110156124e557805183529183019183016130b1565b6000806000606084860312156130dd57600080fd5b83516001600160401b03808211156130f457600080fd5b61310087838801612f0f565b9450602086015191508082111561311657600080fd5b61312287838801613069565b9350604086015191508082111561313857600080fd5b5061314586828701613069565b9150509250925092565b808201808211156109dd576109dd612b8f565b61ffff8616815260a06020820152600061317f60a0830187612706565b6001600160401b038616604084015282810360608401526131a08186612706565b90508281036080840152612dac8185612706565b6001600160a01b0385811682528416602082015260a0604082018190526000906131e090830185612ce5565b82810360608401526131f28185612ce5565b838103608090940193909352505060008152602001949350505050565b61ffff8716815260c06020820152600061322c60c0830188612706565b828103604084015261323e8188612706565b6001600160a01b0387811660608601528616608085015283810360a085015290506132698185612706565b999850505050505050505056fea264697066735822122071988665aa98d9c73edba6010f667a50e68e3caf3527e4e209dd3621ceeb145b64736f6c63430008160033",
    "linkReferences": {}
  },
  "methodIdentifiers": {
    "DEFAULT_PAYLOAD_SIZE_LIMIT()": "c4461834",
    "FUNCTION_TYPE_SEND()": "af3fb21c",
    "FUNCTION_TYPE_SEND_BATCH()": "149e3e1f",
    "NO_EXTRA_GAS()": "44770515",
    "estimateSendBatchFee(uint16,bytes,uint256[],uint256[],bool,bytes)": "b2535663",
    "estimateSendFee(uint16,bytes,uint256,uint256,bool,bytes)": "8608e5f8",
    "failedMessages(uint16,bytes,uint64)": "5b8c41e6",
    "forceResumeReceive(uint16,bytes)": "42d65a8d",
    "getConfig(uint16,uint16,address,uint256)": "f5ecbdbc",
    "getTrustedRemoteAddress(uint16)": "9f38369a",
    "isTrustedRemote(uint16,bytes)": "3d8b38f6",
    "lzEndpoint()": "b353aaa7",
    "lzReceive(uint16,bytes,uint64,bytes)": "001d3567",
    "minDstGasLookup(uint16,uint16)": "8cfd8f5c",
    "nonblockingLzReceive(uint16,bytes,uint64,bytes)": "66ad5c8a",
    "onERC1155BatchReceived(address,address,uint256[],uint256[],bytes)": "bc197c81",
    "onERC1155Received(address,address,uint256,uint256,bytes)": "f23a6e61",
    "owner()": "8da5cb5b",
    "payloadSizeLimitLookup(uint16)": "3f1f4fa4",
    "precrime()": "950c8a74",
    "renounceOwnership()": "715018a6",
    "retryMessage(uint16,bytes,uint64,bytes)": "d1deba1f",
    "sendBatchFrom(address,uint16,bytes,uint256[],uint256[],address,address,bytes)": "4ab4e687",
    "sendFrom(address,uint16,bytes,uint256,uint256,address,address,bytes)": "4db8226a",
    "setConfig(uint16,uint16,uint256,bytes)": "cbed8b9c",
    "setMinDstGas(uint16,uint16,uint256)": "df2a5b3b",
    "setPayloadSizeLimit(uint16,uint256)": "0df37483",
    "setPrecrime(address)": "baf3292d",
    "setReceiveVersion(uint16)": "10ddb137",
    "setSendVersion(uint16)": "07e0db17",
    "setTrustedRemote(uint16,bytes)": "eb8d72b7",
    "setTrustedRemoteAddress(uint16,bytes)": "a6c3d165",
    "setUseCustomAdapterParams(bool)": "eab45d9c",
    "supportsInterface(bytes4)": "01ffc9a7",
    "token()": "fc0c546a",
    "transferOwnership(address)": "f2fde38b",
    "trustedRemoteLookup(uint16)": "7533d788",
    "useCustomAdapterParams()": "ed629c5c"
  },
  "id": 38
}