{
  "abi": [
    {
      "inputs": [
        {
          "internalType": "string",
          "name": "_name",
          "type": "string"
        },
        {
          "internalType": "string",
          "name": "_symbol",
          "type": "string"
        },
        {
          "internalType": "address",
          "name": "_lzEndpoint",
          "type": "address"
        }
      ],
      "stateMutability": "nonpayable",
      "type": "constructor"
    },
    {
      "anonymous": false,
      "inputs": [
        {
          "indexed": true,
          "internalType": "address",
          "name": "owner",
          "type": "address"
        },
        {
          "indexed": true,
          "internalType": "address",
          "name": "spender",
          "type": "address"
        },
        {
          "indexed": false,
          "internalType": "uint256",
          "name": "value",
          "type": "uint256"
        }
      ],
      "name": "Approval",
      "type": "event"
    },
    {
      "anonymous": false,
      "inputs": [
        {
          "indexed": false,
          "internalType": "uint16",
          "name": "_srcChainId",
          "type": "uint16"
        },
        {
          "indexed": false,
          "internalType": "bytes",
          "name": "_srcAddress",
          "type": "bytes"
        },
        {
          "indexed": false,
          "internalType": "uint64",
          "name": "_nonce",
          "type": "uint64"
        },
        {
          "indexed": false,
          "internalType": "bytes",
          "name": "_payload",
          "type": "bytes"
        },
        {
          "indexed": false,
          "internalType": "bytes",
          "name": "_reason",
          "type": "bytes"
        }
      ],
      "name": "MessageFailed",
      "type": "event"
    },
    {
      "anonymous": false,
      "inputs": [
        {
          "indexed": true,
          "internalType": "address",
          "name": "previousOwner",
          "type": "address"
        },
        {
          "indexed": true,
          "internalType": "address",
          "name": "newOwner",
          "type": "address"
        }
      ],
      "name": "OwnershipTransferred",
      "type": "event"
    },
    {
      "anonymous": false,
      "inputs": [
        {
          "indexed": true,
          "internalType": "uint16",
          "name": "_srcChainId",
          "type": "uint16"
        },
        {
          "indexed": true,
          "internalType": "address",
          "name": "_to",
          "type": "address"
        },
        {
          "indexed": false,
          "internalType": "uint256",
          "name": "_amount",
          "type": "uint256"
        }
      ],
      "name": "ReceiveFromChain",
      "type": "event"
    },
    {
      "anonymous": false,
      "inputs": [
        {
          "indexed": false,
          "internalType": "uint16",
          "name": "_srcChainId",
          "type": "uint16"
        },
        {
          "indexed": false,
          "internalType": "bytes",
          "name": "_srcAddress",
          "type": "bytes"
        },
        {
          "indexed": false,
          "internalType": "uint64",
          "name": "_nonce",
          "type": "uint64"
        },
        {
          "indexed": false,
          "internalType": "bytes32",
          "name": "_payloadHash",
          "type": "bytes32"
        }
      ],
      "name": "RetryMessageSuccess",
      "type": "event"
    },
    {
      "anonymous": false,
      "inputs": [
        {
          "indexed": true,
          "internalType": "uint16",
          "name": "_dstChainId",
          "type": "uint16"
        },
        {
          "indexed": true,
          "internalType": "address",
          "name": "_from",
          "type": "address"
        },
        {
          "indexed": false,
          "internalType": "bytes",
          "name": "_toAddress",
          "type": "bytes"
        },
        {
          "indexed": false,
          "internalType": "uint256",
          "name": "_amount",
          "type": "uint256"
        }
      ],
      "name": "SendToChain",
      "type": "event"
    },
    {
      "anonymous": false,
      "inputs": [
        {
          "indexed": false,
          "internalType": "uint16",
          "name": "_dstChainId",
          "type": "uint16"
        },
        {
          "indexed": false,
          "internalType": "uint16",
          "name": "_type",
          "type": "uint16"
        },
        {
          "indexed": false,
          "internalType": "uint256",
          "name": "_minDstGas",
          "type": "uint256"
        }
      ],
      "name": "SetMinDstGas",
      "type": "event"
    },
    {
      "anonymous": false,
      "inputs": [
        {
          "indexed": false,
          "internalType": "address",
          "name": "precrime",
          "type": "address"
        }
      ],
      "name": "SetPrecrime",
      "type": "event"
    },
    {
      "anonymous": false,
      "inputs": [
        {
          "indexed": false,
          "internalType": "uint16",
          "name": "_remoteChainId",
          "type": "uint16"
        },
        {
          "indexed": false,
          "internalType": "bytes",
          "name": "_path",
          "type": "bytes"
        }
      ],
      "name": "SetTrustedRemote",
      "type": "event"
    },
    {
      "anonymous": false,
      "inputs": [
        {
          "indexed": false,
          "internalType": "uint16",
          "name": "_remoteChainId",
          "type": "uint16"
        },
        {
          "indexed": false,
          "internalType": "bytes",
          "name": "_remoteAddress",
          "type": "bytes"
        }
      ],
      "name": "SetTrustedRemoteAddress",
      "type": "event"
    },
    {
      "anonymous": false,
      "inputs": [
        {
          "indexed": false,
          "internalType": "bool",
          "name": "_useCustomAdapterParams",
          "type": "bool"
        }
      ],
      "name": "SetUseCustomAdapterParams",
      "type": "event"
    },
    {
      "anonymous": false,
      "inputs": [
        {
          "indexed": true,
          "internalType": "address",
          "name": "from",
          "type": "address"
        },
        {
          "indexed": true,
          "internalType": "address",
          "name": "to",
          "type": "address"
        },
        {
          "indexed": false,
          "internalType": "uint256",
          "name": "value",
          "type": "uint256"
        }
      ],
      "name": "Transfer",
      "type": "event"
    },
    {
      "inputs": [],
      "name": "DEFAULT_PAYLOAD_SIZE_LIMIT",
      "outputs": [
        {
          "internalType": "uint256",
          "name": "",
          "type": "uint256"
        }
      ],
      "stateMutability": "view",
      "type": "function"
    },
    {
      "inputs": [],
      "name": "NO_EXTRA_GAS",
      "outputs": [
        {
          "internalType": "uint256",
          "name": "",
          "type": "uint256"
        }
      ],
      "stateMutability": "view",
      "type": "function"
    },
    {
      "inputs": [],
      "name": "PT_SEND",
      "outputs": [
        {
          "internalType": "uint16",
          "name": "",
          "type": "uint16"
        }
      ],
      "stateMutability": "view",
      "type": "function"
    },
    {
      "inputs": [
        {
          "internalType": "address",
          "name": "owner",
          "type": "address"
        },
        {
          "internalType": "address",
          "name": "spender",
          "type": "address"
        }
      ],
      "name": "allowance",
      "outputs": [
        {
          "internalType": "uint256",
          "name": "",
          "type": "uint256"
        }
      ],
      "stateMutability": "view",
      "type": "function"
    },
    {
      "inputs": [
        {
          "internalType": "address",
          "name": "spender",
          "type": "address"
        },
        {
          "internalType": "uint256",
          "name": "amount",
          "type": "uint256"
        }
      ],
      "name": "approve",
      "outputs": [
        {
          "internalType": "bool",
          "name": "",
          "type": "bool"
        }
      ],
      "stateMutability": "nonpayable",
      "type": "function"
    },
    {
      "inputs": [
        {
          "internalType": "address",
          "name": "account",
          "type": "address"
        }
      ],
      "name": "balanceOf",
      "outputs": [
        {
          "internalType": "uint256",
          "name": "",
          "type": "uint256"
        }
      ],
      "stateMutability": "view",
      "type": "function"
    },
    {
      "inputs": [],
      "name": "circulatingSupply",
      "outputs": [
        {
          "internalType": "uint256",
          "name": "",
          "type": "uint256"
        }
      ],
      "stateMutability": "view",
      "type": "function"
    },
    {
      "inputs": [],
      "name": "decimals",
      "outputs": [
        {
          "internalType": "uint8",
          "name": "",
          "type": "uint8"
        }
      ],
      "stateMutability": "view",
      "type": "function"
    },
    {
      "inputs": [
        {
          "internalType": "address",
          "name": "spender",
          "type": "address"
        },
        {
          "internalType": "uint256",
          "name": "subtractedValue",
          "type": "uint256"
        }
      ],
      "name": "decreaseAllowance",
      "outputs": [
        {
          "internalType": "bool",
          "name": "",
          "type": "bool"
        }
      ],
      "stateMutability": "nonpayable",
      "type": "function"
    },
    {
      "inputs": [
        {
          "internalType": "uint16",
          "name": "_dstChainId",
          "type": "uint16"
        },
        {
          "internalType": "bytes",
          "name": "_toAddress",
          "type": "bytes"
        },
        {
          "internalType": "uint256",
          "name": "_amount",
          "type": "uint256"
        },
        {
          "internalType": "bool",
          "name": "_useZro",
          "type": "bool"
        },
        {
          "internalType": "bytes",
          "name": "_adapterParams",
          "type": "bytes"
        }
      ],
      "name": "estimateSendFee",
      "outputs": [
        {
          "internalType": "uint256",
          "name": "nativeFee",
          "type": "uint256"
        },
        {
          "internalType": "uint256",
          "name": "zroFee",
          "type": "uint256"
        }
      ],
      "stateMutability": "view",
      "type": "function"
    },
    {
      "inputs": [
        {
          "internalType": "uint16",
          "name": "",
          "type": "uint16"
        },
        {
          "internalType": "bytes",
          "name": "",
          "type": "bytes"
        },
        {
          "internalType": "uint64",
          "name": "",
          "type": "uint64"
        }
      ],
      "name": "failedMessages",
      "outputs": [
        {
          "internalType": "bytes32",
          "name": "",
          "type": "bytes32"
        }
      ],
      "stateMutability": "view",
      "type": "function"
    },
    {
      "inputs": [
        {
          "internalType": "uint16",
          "name": "_srcChainId",
          "type": "uint16"
        },
        {
          "internalType": "bytes",
          "name": "_srcAddress",
          "type": "bytes"
        }
      ],
      "name": "forceResumeReceive",
      "outputs": [],
      "stateMutability": "nonpayable",
      "type": "function"
    },
    {
      "inputs": [
        {
          "internalType": "uint16",
          "name": "_version",
          "type": "uint16"
        },
        {
          "internalType": "uint16",
          "name": "_chainId",
          "type": "uint16"
        },
        {
          "internalType": "address",
          "name": "",
          "type": "address"
        },
        {
          "internalType": "uint256",
          "name": "_configType",
          "type": "uint256"
        }
      ],
      "name": "getConfig",
      "outputs": [
        {
          "internalType": "bytes",
          "name": "",
          "type": "bytes"
        }
      ],
      "stateMutability": "view",
      "type": "function"
    },
    {
      "inputs": [
        {
          "internalType": "uint16",
          "name": "_remoteChainId",
          "type": "uint16"
        }
      ],
      "name": "getTrustedRemoteAddress",
      "outputs": [
        {
          "internalType": "bytes",
          "name": "",
          "type": "bytes"
        }
      ],
      "stateMutability": "view",
      "type": "function"
    },
    {
      "inputs": [
        {
          "internalType": "address",
          "name": "spender",
          "type": "address"
        },
        {
          "internalType": "uint256",
          "name": "addedValue",
          "type": "uint256"
        }
      ],
      "name": "increaseAllowance",
      "outputs": [
        {
          "internalType": "bool",
          "name": "",
          "type": "bool"
        }
      ],
      "stateMutability": "nonpayable",
      "type": "function"
    },
    {
      "inputs": [
        {
          "internalType": "uint16",
          "name": "_srcChainId",
          "type": "uint16"
        },
        {
          "internalType": "bytes",
          "name": "_srcAddress",
          "type": "bytes"
        }
      ],
      "name": "isTrustedRemote",
      "outputs": [
        {
          "internalType": "bool",
          "name": "",
          "type": "bool"
        }
      ],
      "stateMutability": "view",
      "type": "function"
    },
    {
      "inputs": [],
      "name": "lzEndpoint",
      "outputs": [
        {
          "internalType": "contract ILayerZeroEndpoint",
          "name": "",
          "type": "address"
        }
      ],
      "stateMutability": "view",
      "type": "function"
    },
    {
      "inputs": [
        {
          "internalType": "uint16",
          "name": "_srcChainId",
          "type": "uint16"
        },
        {
          "internalType": "bytes",
          "name": "_srcAddress",
          "type": "bytes"
        },
        {
          "internalType": "uint64",
          "name": "_nonce",
          "type": "uint64"
        },
        {
          "internalType": "bytes",
          "name": "_payload",
          "type": "bytes"
        }
      ],
      "name": "lzReceive",
      "outputs": [],
      "stateMutability": "nonpayable",
      "type": "function"
    },
    {
      "inputs": [
        {
          "internalType": "uint16",
          "name": "",
          "type": "uint16"
        },
        {
          "internalType": "uint16",
          "name": "",
          "type": "uint16"
        }
      ],
      "name": "minDstGasLookup",
      "outputs": [
        {
          "internalType": "uint256",
          "name": "",
          "type": "uint256"
        }
      ],
      "stateMutability": "view",
      "type": "function"
    },
    {
      "inputs": [],
      "name": "name",
      "outputs": [
        {
          "internalType": "string",
          "name": "",
          "type": "string"
        }
      ],
      "stateMutability": "view",
      "type": "function"
    },
    {
      "inputs": [
        {
          "internalType": "uint16",
          "name": "_srcChainId",
          "type": "uint16"
        },
        {
          "internalType": "bytes",
          "name": "_srcAddress",
          "type": "bytes"
        },
        {
          "internalType": "uint64",
          "name": "_nonce",
          "type": "uint64"
        },
        {
          "internalType": "bytes",
          "name": "_payload",
          "type": "bytes"
        }
      ],
      "name": "nonblockingLzReceive",
      "outputs": [],
      "stateMutability": "nonpayable",
      "type": "function"
    },
    {
      "inputs": [],
      "name": "owner",
      "outputs": [
        {
          "internalType": "address",
          "name": "",
          "type": "address"
        }
      ],
      "stateMutability": "view",
      "type": "function"
    },
    {
      "inputs": [
        {
          "internalType": "uint16",
          "name": "",
          "type": "uint16"
        }
      ],
      "name": "payloadSizeLimitLookup",
      "outputs": [
        {
          "internalType": "uint256",
          "name": "",
          "type": "uint256"
        }
      ],
      "stateMutability": "view",
      "type": "function"
    },
    {
      "inputs": [],
      "name": "precrime",
      "outputs": [
        {
          "internalType": "address",
          "name": "",
          "type": "address"
        }
      ],
      "stateMutability": "view",
      "type": "function"
    },
    {
      "inputs": [],
      "name": "renounceOwnership",
      "outputs": [],
      "stateMutability": "nonpayable",
      "type": "function"
    },
    {
      "inputs": [
        {
          "internalType": "uint16",
          "name": "_srcChainId",
          "type": "uint16"
        },
        {
          "internalType": "bytes",
          "name": "_srcAddress",
          "type": "bytes"
        },
        {
          "internalType": "uint64",
          "name": "_nonce",
          "type": "uint64"
        },
        {
          "internalType": "bytes",
          "name": "_payload",
          "type": "bytes"
        }
      ],
      "name": "retryMessage",
      "outputs": [],
      "stateMutability": "payable",
      "type": "function"
    },
    {
      "inputs": [
        {
          "internalType": "address",
          "name": "_from",
          "type": "address"
        },
        {
          "internalType": "uint16",
          "name": "_dstChainId",
          "type": "uint16"
        },
        {
          "internalType": "bytes",
          "name": "_toAddress",
          "type": "bytes"
        },
        {
          "internalType": "uint256",
          "name": "_amount",
          "type": "uint256"
        },
        {
          "internalType": "address payable",
          "name": "_refundAddress",
          "type": "address"
        },
        {
          "internalType": "address",
          "name": "_zroPaymentAddress",
          "type": "address"
        },
        {
          "internalType": "bytes",
          "name": "_adapterParams",
          "type": "bytes"
        }
      ],
      "name": "sendFrom",
      "outputs": [],
      "stateMutability": "payable",
      "type": "function"
    },
    {
      "inputs": [
        {
          "internalType": "uint16",
          "name": "_version",
          "type": "uint16"
        },
        {
          "internalType": "uint16",
          "name": "_chainId",
          "type": "uint16"
        },
        {
          "internalType": "uint256",
          "name": "_configType",
          "type": "uint256"
        },
        {
          "internalType": "bytes",
          "name": "_config",
          "type": "bytes"
        }
      ],
      "name": "setConfig",
      "outputs": [],
      "stateMutability": "nonpayable",
      "type": "function"
    },
    {
      "inputs": [
        {
          "internalType": "uint16",
          "name": "_dstChainId",
          "type": "uint16"
        },
        {
          "internalType": "uint16",
          "name": "_packetType",
          "type": "uint16"
        },
        {
          "internalType": "uint256",
          "name": "_minGas",
          "type": "uint256"
        }
      ],
      "name": "setMinDstGas",
      "outputs": [],
      "stateMutability": "nonpayable",
      "type": "function"
    },
    {
      "inputs": [
        {
          "internalType": "uint16",
          "name": "_dstChainId",
          "type": "uint16"
        },
        {
          "internalType": "uint256",
          "name": "_size",
          "type": "uint256"
        }
      ],
      "name": "setPayloadSizeLimit",
      "outputs": [],
      "stateMutability": "nonpayable",
      "type": "function"
    },
    {
      "inputs": [
        {
          "internalType": "address",
          "name": "_precrime",
          "type": "address"
        }
      ],
      "name": "setPrecrime",
      "outputs": [],
      "stateMutability": "nonpayable",
      "type": "function"
    },
    {
      "inputs": [
        {
          "internalType": "uint16",
          "name": "_version",
          "type": "uint16"
        }
      ],
      "name": "setReceiveVersion",
      "outputs": [],
      "stateMutability": "nonpayable",
      "type": "function"
    },
    {
      "inputs": [
        {
          "internalType": "uint16",
          "name": "_version",
          "type": "uint16"
        }
      ],
      "name": "setSendVersion",
      "outputs": [],
      "stateMutability": "nonpayable",
      "type": "function"
    },
    {
      "inputs": [
        {
          "internalType": "uint16",
          "name": "_remoteChainId",
          "type": "uint16"
        },
        {
          "internalType": "bytes",
          "name": "_path",
          "type": "bytes"
        }
      ],
      "name": "setTrustedRemote",
      "outputs": [],
      "stateMutability": "nonpayable",
      "type": "function"
    },
    {
      "inputs": [
        {
          "internalType": "uint16",
          "name": "_remoteChainId",
          "type": "uint16"
        },
        {
          "internalType": "bytes",
          "name": "_remoteAddress",
          "type": "bytes"
        }
      ],
      "name": "setTrustedRemoteAddress",
      "outputs": [],
      "stateMutability": "nonpayable",
      "type": "function"
    },
    {
      "inputs": [
        {
          "internalType": "bool",
          "name": "_useCustomAdapterParams",
          "type": "bool"
        }
      ],
      "name": "setUseCustomAdapterParams",
      "outputs": [],
      "stateMutability": "nonpayable",
      "type": "function"
    },
    {
      "inputs": [
        {
          "internalType": "bytes4",
          "name": "interfaceId",
          "type": "bytes4"
        }
      ],
      "name": "supportsInterface",
      "outputs": [
        {
          "internalType": "bool",
          "name": "",
          "type": "bool"
        }
      ],
      "stateMutability": "view",
      "type": "function"
    },
    {
      "inputs": [],
      "name": "symbol",
      "outputs": [
        {
          "internalType": "string",
          "name": "",
          "type": "string"
        }
      ],
      "stateMutability": "view",
      "type": "function"
    },
    {
      "inputs": [],
      "name": "token",
      "outputs": [
        {
          "internalType": "address",
          "name": "",
          "type": "address"
        }
      ],
      "stateMutability": "view",
      "type": "function"
    },
    {
      "inputs": [],
      "name": "totalSupply",
      "outputs": [
        {
          "internalType": "uint256",
          "name": "",
          "type": "uint256"
        }
      ],
      "stateMutability": "view",
      "type": "function"
    },
    {
      "inputs": [
        {
          "internalType": "address",
          "name": "to",
          "type": "address"
        },
        {
          "internalType": "uint256",
          "name": "amount",
          "type": "uint256"
        }
      ],
      "name": "transfer",
      "outputs": [
        {
          "internalType": "bool",
          "name": "",
          "type": "bool"
        }
      ],
      "stateMutability": "nonpayable",
      "type": "function"
    },
    {
      "inputs": [
        {
          "internalType": "address",
          "name": "from",
          "type": "address"
        },
        {
          "internalType": "address",
          "name": "to",
          "type": "address"
        },
        {
          "internalType": "uint256",
          "name": "amount",
          "type": "uint256"
        }
      ],
      "name": "transferFrom",
      "outputs": [
        {
          "internalType": "bool",
          "name": "",
          "type": "bool"
        }
      ],
      "stateMutability": "nonpayable",
      "type": "function"
    },
    {
      "inputs": [
        {
          "internalType": "address",
          "name": "newOwner",
          "type": "address"
        }
      ],
      "name": "transferOwnership",
      "outputs": [],
      "stateMutability": "nonpayable",
      "type": "function"
    },
    {
      "inputs": [
        {
          "internalType": "uint16",
          "name": "",
          "type": "uint16"
        }
      ],
      "name": "trustedRemoteLookup",
      "outputs": [
        {
          "internalType": "bytes",
          "name": "",
          "type": "bytes"
        }
      ],
      "stateMutability": "view",
      "type": "function"
    },
    {
      "inputs": [],
      "name": "useCustomAdapterParams",
      "outputs": [
        {
          "internalType": "bool",
          "name": "",
          "type": "bool"
        }
      ],
      "stateMutability": "view",
      "type": "function"
    }
  ],
  "bytecode": {
    "object": "0x60a06040523480156200001157600080fd5b506040516200385838038062003858833981016040819052620000349162000194565b828282808062000044336200007c565b6001600160a01b031660805250600a9050620000618382620002b2565b50600b620000708282620002b2565b5050505050506200037e565b600080546001600160a01b038381166001600160a01b0319831681178455604051919092169283917f8be0079c531659141344cd1fd0a4f28419497f9722a3daafe3b4186f6b6457e09190a35050565b634e487b7160e01b600052604160045260246000fd5b600082601f830112620000f457600080fd5b81516001600160401b0380821115620001115762000111620000cc565b604051601f8301601f19908116603f011681019082821181831017156200013c576200013c620000cc565b81604052838152602092508660208588010111156200015a57600080fd5b600091505b838210156200017e57858201830151818301840152908201906200015f565b6000602085830101528094505050505092915050565b600080600060608486031215620001aa57600080fd5b83516001600160401b0380821115620001c257600080fd5b620001d087838801620000e2565b94506020860151915080821115620001e757600080fd5b50620001f686828701620000e2565b604086015190935090506001600160a01b03811681146200021657600080fd5b809150509250925092565b600181811c908216806200023657607f821691505b6020821081036200025757634e487b7160e01b600052602260045260246000fd5b50919050565b601f821115620002ad576000816000526020600020601f850160051c81016020861015620002885750805b601f850160051c820191505b81811015620002a95782815560010162000294565b5050505b505050565b81516001600160401b03811115620002ce57620002ce620000cc565b620002e681620002df845462000221565b846200025d565b602080601f8311600181146200031e5760008415620003055750858301515b600019600386901b1c1916600185901b178555620002a9565b600085815260208120601f198616915b828110156200034f578886015182559484019460019091019084016200032e565b50858210156200036e5787850151600019600388901b60f8161c191681555b5050505050600190811b01905550565b608051613486620003d2600039600081816106fc0152818161087701528181610b9601528181610c5601528181610cf401528181610e91015281816113ca0152818161182d015261226a01526134866000f3fe6080604052600436106102715760003560e01c80637533d7881161014f578063baf3292d116100c1578063eab45d9c1161007a578063eab45d9c146107c7578063eb8d72b7146107e7578063ed629c5c14610807578063f2fde38b14610821578063f5ecbdbc14610841578063fc0c546a1461086157600080fd5b8063baf3292d1461071e578063c44618341461073e578063cbed8b9c14610754578063d1deba1f14610774578063dd62ed3e14610787578063df2a5b3b146107a757600080fd5b806395d89b411161011357806395d89b41146106555780639f38369a1461066a578063a457c2d71461068a578063a6c3d165146106aa578063a9059cbb146106ca578063b353aaa7146106ea57600080fd5b80637533d788146105965780638cfd8f5c146105b65780638da5cb5b146105ee5780639358928b14610620578063950c8a741461063557600080fd5b806339509351116101e85780634c42899a116101ac5780634c42899a146104a157806351905636146104c95780635b8c41e6146104dc57806366ad5c8a1461052b57806370a082311461054b578063715018a61461058157600080fd5b806339509351146103ff5780633d8b38f61461041f5780633f1f4fa41461043f57806342d65a8d1461046c578063447705151461048c57600080fd5b80630df374831161023a5780630df374831461032f57806310ddb1371461034f57806318160ddd1461036f57806323b872dd1461038e5780632a205e3d146103ae578063313ce567146103e357600080fd5b80621d35671461027657806301ffc9a71461029857806306fdde03146102cd57806307e0db17146102ef578063095ea7b31461030f575b600080fd5b34801561028257600080fd5b506102966102913660046127f3565b610874565b005b3480156102a457600080fd5b506102b86102b3366004612888565b610aa5565b60405190151581526020015b60405180910390f35b3480156102d957600080fd5b506102e2610ae3565b6040516102c49190612902565b3480156102fb57600080fd5b5061029661030a366004612915565b610b75565b34801561031b57600080fd5b506102b861032a366004612947565b610bfe565b34801561033b57600080fd5b5061029661034a366004612973565b610c16565b34801561035b57600080fd5b5061029661036a366004612915565b610c35565b34801561037b57600080fd5b506009545b6040519081526020016102c4565b34801561039a57600080fd5b506102b86103a9366004612991565b610c8d565b3480156103ba57600080fd5b506103ce6103c93660046129e2565b610cb1565b604080519283526020830191909152016102c4565b3480156103ef57600080fd5b50604051601281526020016102c4565b34801561040b57600080fd5b506102b861041a366004612947565b610d84565b34801561042b57600080fd5b506102b861043a366004612a81565b610da6565b34801561044b57600080fd5b5061038061045a366004612915565b60036020526000908152604090205481565b34801561047857600080fd5b50610296610487366004612a81565b610e72565b34801561049857600080fd5b50610380600081565b3480156104ad57600080fd5b506104b6600081565b60405161ffff90911681526020016102c4565b6102966104d7366004612ad5565b610ef8565b3480156104e857600080fd5b506103806104f7366004612c0b565b6005602090815260009384526040808520845180860184018051928152908401958401959095209452929052825290205481565b34801561053757600080fd5b506102966105463660046127f3565b610f7d565b34801561055757600080fd5b50610380610566366004612cad565b6001600160a01b031660009081526007602052604090205490565b34801561058d57600080fd5b50610296611059565b3480156105a257600080fd5b506102e26105b1366004612915565b61106d565b3480156105c257600080fd5b506103806105d1366004612cca565b600260209081526000928352604080842090915290825290205481565b3480156105fa57600080fd5b506000546001600160a01b03165b6040516001600160a01b0390911681526020016102c4565b34801561062c57600080fd5b50610380611107565b34801561064157600080fd5b50600454610608906001600160a01b031681565b34801561066157600080fd5b506102e2611117565b34801561067657600080fd5b506102e2610685366004612915565b611126565b34801561069657600080fd5b506102b86106a5366004612947565b61123c565b3480156106b657600080fd5b506102966106c5366004612a81565b6112b7565b3480156106d657600080fd5b506102b86106e5366004612947565b611340565b3480156106f657600080fd5b506106087f000000000000000000000000000000000000000000000000000000000000000081565b34801561072a57600080fd5b50610296610739366004612cad565b61134e565b34801561074a57600080fd5b5061038061271081565b34801561076057600080fd5b5061029661076f366004612d03565b6113ab565b6102966107823660046127f3565b611435565b34801561079357600080fd5b506103806107a2366004612d75565b61164b565b3480156107b357600080fd5b506102966107c2366004612da3565b611676565b3480156107d357600080fd5b506102966107e2366004612dd3565b6116e0565b3480156107f357600080fd5b50610296610802366004612a81565b611729565b34801561081357600080fd5b506006546102b89060ff1681565b34801561082d57600080fd5b5061029661083c366004612cad565b611783565b34801561084d57600080fd5b506102e261085c366004612dee565b6117fc565b34801561086d57600080fd5b5030610608565b337f00000000000000000000000000000000000000000000000000000000000000006001600160a01b0316146108f15760405162461bcd60e51b815260206004820152601e60248201527f4c7a4170703a20696e76616c696420656e64706f696e742063616c6c6572000060448201526064015b60405180910390fd5b61ffff86166000908152600160205260408120805461090f90612e3f565b80601f016020809104026020016040519081016040528092919081815260200182805461093b90612e3f565b80156109885780601f1061095d57610100808354040283529160200191610988565b820191906000526020600020905b81548152906001019060200180831161096b57829003601f168201915b505050505090508051868690501480156109a3575060008151115b80156109cb5750805160208201206040516109c19088908890612e79565b6040518091039020145b610a265760405162461bcd60e51b815260206004820152602660248201527f4c7a4170703a20696e76616c696420736f757263652073656e64696e6720636f6044820152651b9d1c9858dd60d21b60648201526084016108e8565b610a9c8787878080601f01602080910402602001604051908101604052809392919081815260200183838082843760009201919091525050604080516020601f8a018190048102820181019092528881528a9350915088908890819084018382808284376000920191909152506118ad92505050565b50505050505050565b60006001600160e01b031982161580610ace57506001600160e01b031982166336372b0760e01b145b80610add5750610add82611926565b92915050565b6060600a8054610af290612e3f565b80601f0160208091040260200160405190810160405280929190818152602001828054610b1e90612e3f565b8015610b6b5780601f10610b4057610100808354040283529160200191610b6b565b820191906000526020600020905b815481529060010190602001808311610b4e57829003601f168201915b5050505050905090565b610b7d61195b565b6040516307e0db1760e01b815261ffff821660048201527f00000000000000000000000000000000000000000000000000000000000000006001600160a01b0316906307e0db17906024015b600060405180830381600087803b158015610be357600080fd5b505af1158015610bf7573d6000803e3d6000fd5b5050505050565b600033610c0c8185856119b5565b5060019392505050565b610c1e61195b565b61ffff909116600090815260036020526040902055565b610c3d61195b565b6040516310ddb13760e01b815261ffff821660048201527f00000000000000000000000000000000000000000000000000000000000000006001600160a01b0316906310ddb13790602401610bc9565b600033610c9b858285611ad9565b610ca6858585611b53565b506001949350505050565b600080600080898989604051602001610ccd9493929190612eb2565b60408051601f198184030181529082905263040a7bb160e41b825291506001600160a01b037f000000000000000000000000000000000000000000000000000000000000000016906340a7bb1090610d33908d90309086908c908c908c90600401612ee1565b6040805180830381865afa158015610d4f573d6000803e3d6000fd5b505050506040513d601f19601f82011682018060405250810190610d739190612f37565b925092505097509795505050505050565b600033610c0c818585610d97838361164b565b610da19190612f71565b6119b5565b61ffff831660009081526001602052604081208054829190610dc790612e3f565b80601f0160208091040260200160405190810160405280929190818152602001828054610df390612e3f565b8015610e405780601f10610e1557610100808354040283529160200191610e40565b820191906000526020600020905b815481529060010190602001808311610e2357829003601f168201915b505050505090508383604051610e57929190612e79565b60405180910390208180519060200120149150509392505050565b610e7a61195b565b6040516342d65a8d60e01b81526001600160a01b037f000000000000000000000000000000000000000000000000000000000000000016906342d65a8d90610eca90869086908690600401612f84565b600060405180830381600087803b158015610ee457600080fd5b505af1158015610a9c573d6000803e3d6000fd5b610f72898989898080601f01602080910402602001604051908101604052809392919081815260200183838082843760009201919091525050604080516020601f8a018190048102820181019092528881528c93508b92508a918a908a9081908401838280828437600092019190915250611cfe92505050565b505050505050505050565b333014610fdb5760405162461bcd60e51b815260206004820152602660248201527f4e6f6e626c6f636b696e674c7a4170703a2063616c6c6572206d7573742062656044820152650204c7a4170760d41b60648201526084016108e8565b6110518686868080601f01602080910402602001604051908101604052809392919081815260200183838082843760009201919091525050604080516020601f890181900481028201810190925287815289935091508790879081908401838280828437600092019190915250611da592505050565b505050505050565b61106161195b565b61106b6000611e0c565b565b6001602052600090815260409020805461108690612e3f565b80601f01602080910402602001604051908101604052809291908181526020018280546110b290612e3f565b80156110ff5780601f106110d4576101008083540402835291602001916110ff565b820191906000526020600020905b8154815290600101906020018083116110e257829003601f168201915b505050505081565b600061111260095490565b905090565b6060600b8054610af290612e3f565b61ffff811660009081526001602052604081208054606092919061114990612e3f565b80601f016020809104026020016040519081016040528092919081815260200182805461117590612e3f565b80156111c25780601f10611197576101008083540402835291602001916111c2565b820191906000526020600020905b8154815290600101906020018083116111a557829003601f168201915b50505050509050805160000361121a5760405162461bcd60e51b815260206004820152601d60248201527f4c7a4170703a206e6f20747275737465642070617468207265636f726400000060448201526064016108e8565b61123560006014835161122d9190612fa2565b839190611e5c565b9392505050565b6000338161124a828661164b565b9050838110156112aa5760405162461bcd60e51b815260206004820152602560248201527f45524332303a2064656372656173656420616c6c6f77616e63652062656c6f77604482015264207a65726f60d81b60648201526084016108e8565b610ca682868684036119b5565b6112bf61195b565b8181306040516020016112d493929190612fb5565b60408051601f1981840301815291815261ffff85166000908152600160205220906112ff9082613023565b507f8c0400cfe2d1199b1a725c78960bcc2a344d869b80590d0f2bd005db15a572ce83838360405161133393929190612f84565b60405180910390a1505050565b600033610c0c818585611b53565b61135661195b565b600480546001600160a01b0319166001600160a01b0383169081179091556040519081527f5db758e995a17ec1ad84bdef7e8c3293a0bd6179bcce400dff5d4c3d87db726b906020015b60405180910390a150565b6113b361195b565b6040516332fb62e760e21b81526001600160a01b037f0000000000000000000000000000000000000000000000000000000000000000169063cbed8b9c9061140790889088908890889088906004016130e2565b600060405180830381600087803b15801561142157600080fd5b505af1158015610f72573d6000803e3d6000fd5b61ffff861660009081526005602052604080822090516114589088908890612e79565b90815260408051602092819003830190206001600160401b038716600090815292529020549050806114d85760405162461bcd60e51b815260206004820152602360248201527f4e6f6e626c6f636b696e674c7a4170703a206e6f2073746f726564206d65737360448201526261676560e81b60648201526084016108e8565b8083836040516114e9929190612e79565b6040518091039020146115485760405162461bcd60e51b815260206004820152602160248201527f4e6f6e626c6f636b696e674c7a4170703a20696e76616c6964207061796c6f616044820152601960fa1b60648201526084016108e8565b61ffff8716600090815260056020526040808220905161156b9089908990612e79565b90815260408051602092819003830181206001600160401b038916600090815290845282902093909355601f88018290048202830182019052868252611603918991899089908190840183828082843760009201919091525050604080516020601f8a018190048102820181019092528881528a935091508890889081908401838280828437600092019190915250611da592505050565b7fc264d91f3adc5588250e1551f547752ca0cfa8f6b530d243b9f9f4cab10ea8e5878787878560405161163a95949392919061311b565b60405180910390a150505050505050565b6001600160a01b03918216600090815260086020908152604080832093909416825291909152205490565b61167e61195b565b61ffff83811660008181526002602090815260408083209487168084529482529182902085905581519283528201929092529081018290527f9d5c7c0b934da8fefa9c7760c98383778a12dfbfc0c3b3106518f43fb9508ac090606001611333565b6116e861195b565b6006805460ff19168215159081179091556040519081527f1584ad594a70cbe1e6515592e1272a987d922b097ead875069cebe8b40c004a4906020016113a0565b61173161195b565b61ffff8316600090815260016020526040902061174f828483613156565b507ffa41487ad5d6728f0b19276fa1eddc16558578f5109fc39d2dc33c3230470dab83838360405161133393929190612f84565b61178b61195b565b6001600160a01b0381166117f05760405162461bcd60e51b815260206004820152602660248201527f4f776e61626c653a206e6577206f776e657220697320746865207a65726f206160448201526564647265737360d01b60648201526084016108e8565b6117f981611e0c565b50565b604051633d7b2f6f60e21b815261ffff808616600483015284166024820152306044820152606481018290526060907f00000000000000000000000000000000000000000000000000000000000000006001600160a01b03169063f5ecbdbc90608401600060405180830381865afa15801561187c573d6000803e3d6000fd5b505050506040513d6000823e601f3d908101601f191682016040526118a49190810190613262565b95945050505050565b6000806119105a60966366ad5c8a60e01b898989896040516024016118d59493929190613296565b60408051601f198184030181529190526020810180516001600160e01b03166001600160e01b03199093169290921790915230929190611f69565b9150915081611051576110518686868685611ff3565b60006001600160e01b03198216630a72677560e11b1480610add57506301ffc9a760e01b6001600160e01b0319831614610add565b6000546001600160a01b0316331461106b5760405162461bcd60e51b815260206004820181905260248201527f4f776e61626c653a2063616c6c6572206973206e6f7420746865206f776e657260448201526064016108e8565b6001600160a01b038316611a175760405162461bcd60e51b8152602060048201526024808201527f45524332303a20617070726f76652066726f6d20746865207a65726f206164646044820152637265737360e01b60648201526084016108e8565b6001600160a01b038216611a785760405162461bcd60e51b815260206004820152602260248201527f45524332303a20617070726f766520746f20746865207a65726f206164647265604482015261737360f01b60648201526084016108e8565b6001600160a01b0383811660008181526008602090815260408083209487168084529482529182902085905590518481527f8c5be1e5ebec7d5bd14f71427d1e84f3dd0314c0f7b2291e5b200ac8c7c3b925910160405180910390a3505050565b6000611ae5848461164b565b90506000198114611b4d5781811015611b405760405162461bcd60e51b815260206004820152601d60248201527f45524332303a20696e73756666696369656e7420616c6c6f77616e636500000060448201526064016108e8565b611b4d84848484036119b5565b50505050565b6001600160a01b038316611bb75760405162461bcd60e51b815260206004820152602560248201527f45524332303a207472616e736665722066726f6d20746865207a65726f206164604482015264647265737360d81b60648201526084016108e8565b6001600160a01b038216611c195760405162461bcd60e51b815260206004820152602360248201527f45524332303a207472616e7366657220746f20746865207a65726f206164647260448201526265737360e81b60648201526084016108e8565b6001600160a01b03831660009081526007602052604090205481811015611c915760405162461bcd60e51b815260206004820152602660248201527f45524332303a207472616e7366657220616d6f756e7420657863656564732062604482015265616c616e636560d01b60648201526084016108e8565b6001600160a01b0380851660008181526007602052604080822086860390559286168082529083902080548601905591517fddf252ad1be2c89b69c2b068fc378daa952ba7f163c4a11628f55a4df523b3ef90611cf19086815260200190565b60405180910390a3611b4d565b611d0c866000836000612095565b6000611d1a8888888861210f565b90506000808783604051602001611d33939291906132d4565b6040516020818303038152906040529050611d52888287878734612141565b886001600160a01b03168861ffff167f39a4c66499bcf4b56d79f0dde8ed7a9d4925a0df55825206b2b8531e202be0d08985604051611d92929190613301565b60405180910390a3505050505050505050565b602081015161ffff8116611dc457611dbf858585856122e6565b610bf7565b60405162461bcd60e51b815260206004820152601c60248201527f4f4654436f72653a20756e6b6e6f776e207061636b657420747970650000000060448201526064016108e8565b600080546001600160a01b038381166001600160a01b0319831681178455604051919092169283917f8be0079c531659141344cd1fd0a4f28419497f9722a3daafe3b4186f6b6457e09190a35050565b606081611e6a81601f612f71565b1015611ea95760405162461bcd60e51b815260206004820152600e60248201526d736c6963655f6f766572666c6f7760901b60448201526064016108e8565b611eb38284612f71565b84511015611ef75760405162461bcd60e51b8152602060048201526011602482015270736c6963655f6f75744f66426f756e647360781b60448201526064016108e8565b606082158015611f165760405191506000825260208201604052611f60565b6040519150601f8416801560200281840101858101878315602002848b0101015b81831015611f4f578051835260209283019201611f37565b5050858452601f01601f1916604052505b50949350505050565b6000606060008060008661ffff166001600160401b03811115611f8e57611f8e612b9e565b6040519080825280601f01601f191660200182016040528015611fb8576020820181803683370190505b50905060008087516020890160008d8df191503d925086831115611fda578692505b828152826000602083013e909890975095505050505050565b8180519060200120600560008761ffff1661ffff168152602001908152602001600020856040516120249190613323565b9081526040805191829003602090810183206001600160401b0388166000908152915220919091557fe183f33de2837795525b4792ca4cd60535bd77c53b7e7030060bfcf5734d6b0c90612081908790879087908790879061333f565b60405180910390a15050505050565b505050565b60065460ff16156120b1576120ac84848484612370565b611b4d565b815115611b4d5760405162461bcd60e51b815260206004820152602660248201527f4f4654436f72653a205f61646170746572506172616d73206d7573742062652060448201526532b6b83a3c9760d11b60648201526084016108e8565b6000336001600160a01b038616811461212d5761212d868285611ad9565b6121378684612445565b5090949350505050565b61ffff86166000908152600160205260408120805461215f90612e3f565b80601f016020809104026020016040519081016040528092919081815260200182805461218b90612e3f565b80156121d85780601f106121ad576101008083540402835291602001916121d8565b820191906000526020600020905b8154815290600101906020018083116121bb57829003601f168201915b5050505050905080516000036122495760405162461bcd60e51b815260206004820152603060248201527f4c7a4170703a2064657374696e6174696f6e20636861696e206973206e6f742060448201526f61207472757374656420736f7572636560801b60648201526084016108e8565b612254878751612579565b60405162c5803160e81b81526001600160a01b037f0000000000000000000000000000000000000000000000000000000000000000169063c58031009084906122ab908b9086908c908c908c908c9060040161339d565b6000604051808303818588803b1580156122c457600080fd5b505af11580156122d8573d6000803e3d6000fd5b505050505050505050505050565b600080828060200190518101906122fd91906133f7565b90935091506000905061231083826125ea565b905061231d87828461264f565b9150806001600160a01b03168761ffff167fbf551ec93859b170f9b2141bd9298bf3f64322c6f7beb2543a0cb669834118bf8460405161235f91815260200190565b60405180910390a350505050505050565b600061237b83612662565b61ffff808716600090815260026020908152604080832093891683529290522054909150806123ec5760405162461bcd60e51b815260206004820152601a60248201527f4c7a4170703a206d696e4761734c696d6974206e6f742073657400000000000060448201526064016108e8565b6123f68382612f71565b8210156110515760405162461bcd60e51b815260206004820152601b60248201527f4c7a4170703a20676173206c696d697420697320746f6f206c6f77000000000060448201526064016108e8565b6001600160a01b0382166124a55760405162461bcd60e51b815260206004820152602160248201527f45524332303a206275726e2066726f6d20746865207a65726f206164647265736044820152607360f81b60648201526084016108e8565b6001600160a01b038216600090815260076020526040902054818110156125195760405162461bcd60e51b815260206004820152602260248201527f45524332303a206275726e20616d6f756e7420657863656564732062616c616e604482015261636560f01b60648201526084016108e8565b6001600160a01b03831660008181526007602090815260408083208686039055600980548790039055518581529192917fddf252ad1be2c89b69c2b068fc378daa952ba7f163c4a11628f55a4df523b3ef910160405180910390a3505050565b61ffff82166000908152600360205260408120549081900361259a57506127105b808211156120905760405162461bcd60e51b815260206004820181905260248201527f4c7a4170703a207061796c6f61642073697a6520697320746f6f206c6172676560448201526064016108e8565b60006125f7826014612f71565b8351101561263f5760405162461bcd60e51b8152602060048201526015602482015274746f416464726573735f6f75744f66426f756e647360581b60448201526064016108e8565b500160200151600160601b900490565b600061265b83836126be565b5092915050565b60006022825110156126b65760405162461bcd60e51b815260206004820152601c60248201527f4c7a4170703a20696e76616c69642061646170746572506172616d730000000060448201526064016108e8565b506022015190565b6001600160a01b0382166127145760405162461bcd60e51b815260206004820152601f60248201527f45524332303a206d696e7420746f20746865207a65726f20616464726573730060448201526064016108e8565b80600960008282546127269190612f71565b90915550506001600160a01b0382166000818152600760209081526040808320805486019055518481527fddf252ad1be2c89b69c2b068fc378daa952ba7f163c4a11628f55a4df523b3ef910160405180910390a35050565b61ffff811681146117f957600080fd5b60008083601f8401126127a157600080fd5b5081356001600160401b038111156127b857600080fd5b6020830191508360208285010111156127d057600080fd5b9250929050565b80356001600160401b03811681146127ee57600080fd5b919050565b6000806000806000806080878903121561280c57600080fd5b86356128178161277f565b955060208701356001600160401b038082111561283357600080fd5b61283f8a838b0161278f565b909750955085915061285360408a016127d7565b9450606089013591508082111561286957600080fd5b5061287689828a0161278f565b979a9699509497509295939492505050565b60006020828403121561289a57600080fd5b81356001600160e01b03198116811461123557600080fd5b60005b838110156128cd5781810151838201526020016128b5565b50506000910152565b600081518084526128ee8160208601602086016128b2565b601f01601f19169290920160200192915050565b60208152600061123560208301846128d6565b60006020828403121561292757600080fd5b81356112358161277f565b6001600160a01b03811681146117f957600080fd5b6000806040838503121561295a57600080fd5b823561296581612932565b946020939093013593505050565b6000806040838503121561298657600080fd5b82356129658161277f565b6000806000606084860312156129a657600080fd5b83356129b181612932565b925060208401356129c181612932565b929592945050506040919091013590565b803580151581146127ee57600080fd5b600080600080600080600060a0888a0312156129fd57600080fd5b8735612a088161277f565b965060208801356001600160401b0380821115612a2457600080fd5b612a308b838c0161278f565b909850965060408a01359550869150612a4b60608b016129d2565b945060808a0135915080821115612a6157600080fd5b50612a6e8a828b0161278f565b989b979a50959850939692959293505050565b600080600060408486031215612a9657600080fd5b8335612aa18161277f565b925060208401356001600160401b03811115612abc57600080fd5b612ac88682870161278f565b9497909650939450505050565b600080600080600080600080600060e08a8c031215612af357600080fd5b8935612afe81612932565b985060208a0135612b0e8161277f565b975060408a01356001600160401b0380821115612b2a57600080fd5b612b368d838e0161278f565b909950975060608c0135965060808c01359150612b5282612932565b90945060a08b013590612b6482612932565b90935060c08b01359080821115612b7a57600080fd5b50612b878c828d0161278f565b915080935050809150509295985092959850929598565b634e487b7160e01b600052604160045260246000fd5b604051601f8201601f191681016001600160401b0381118282101715612bdc57612bdc612b9e565b604052919050565b60006001600160401b03821115612bfd57612bfd612b9e565b50601f01601f191660200190565b600080600060608486031215612c2057600080fd5b8335612c2b8161277f565b925060208401356001600160401b03811115612c4657600080fd5b8401601f81018613612c5757600080fd5b8035612c6a612c6582612be4565b612bb4565b818152876020838501011115612c7f57600080fd5b81602084016020830137600060208383010152809450505050612ca4604085016127d7565b90509250925092565b600060208284031215612cbf57600080fd5b813561123581612932565b60008060408385031215612cdd57600080fd5b8235612ce88161277f565b91506020830135612cf88161277f565b809150509250929050565b600080600080600060808688031215612d1b57600080fd5b8535612d268161277f565b94506020860135612d368161277f565b93506040860135925060608601356001600160401b03811115612d5857600080fd5b612d648882890161278f565b969995985093965092949392505050565b60008060408385031215612d8857600080fd5b8235612d9381612932565b91506020830135612cf881612932565b600080600060608486031215612db857600080fd5b8335612dc38161277f565b925060208401356129c18161277f565b600060208284031215612de557600080fd5b611235826129d2565b60008060008060808587031215612e0457600080fd5b8435612e0f8161277f565b93506020850135612e1f8161277f565b92506040850135612e2f81612932565b9396929550929360600135925050565b600181811c90821680612e5357607f821691505b602082108103612e7357634e487b7160e01b600052602260045260246000fd5b50919050565b8183823760009101908152919050565b81835281816020850137506000828201602090810191909152601f909101601f19169091010190565b61ffff85168152606060208201526000612ed0606083018587612e89565b905082604083015295945050505050565b61ffff871681526001600160a01b038616602082015260a060408201819052600090612f0f908301876128d6565b85151560608401528281036080840152612f2a818587612e89565b9998505050505050505050565b60008060408385031215612f4a57600080fd5b505080516020909101519092909150565b634e487b7160e01b600052601160045260246000fd5b80820180821115610add57610add612f5b565b61ffff841681526040602082015260006118a4604083018486612e89565b81810381811115610add57610add612f5b565b8284823760609190911b6bffffffffffffffffffffffff19169101908152601401919050565b601f821115612090576000816000526020600020601f850160051c810160208610156130045750805b601f850160051c820191505b8181101561105157828155600101613010565b81516001600160401b0381111561303c5761303c612b9e565b6130508161304a8454612e3f565b84612fdb565b602080601f831160018114613085576000841561306d5750858301515b600019600386901b1c1916600185901b178555611051565b600085815260208120601f198616915b828110156130b457888601518255948401946001909101908401613095565b50858210156130d25787850151600019600388901b60f8161c191681555b5050505050600190811b01905550565b600061ffff808816835280871660208401525084604083015260806060830152613110608083018486612e89565b979650505050505050565b61ffff86168152608060208201526000613139608083018688612e89565b6001600160401b0394909416604083015250606001529392505050565b6001600160401b0383111561316d5761316d612b9e565b6131818361317b8354612e3f565b83612fdb565b6000601f8411600181146131b5576000851561319d5750838201355b600019600387901b1c1916600186901b178355610bf7565b600083815260209020601f19861690835b828110156131e657868501358255602094850194600190920191016131c6565b50868210156132035760001960f88860031b161c19848701351681555b505060018560011b0183555050505050565b600082601f83011261322657600080fd5b8151613234612c6582612be4565b81815284602083860101111561324957600080fd5b61325a8260208301602087016128b2565b949350505050565b60006020828403121561327457600080fd5b81516001600160401b0381111561328a57600080fd5b61325a84828501613215565b61ffff851681526080602082015260006132b360808301866128d6565b6001600160401b0385166040840152828103606084015261311081856128d6565b61ffff841681526060602082015260006132f160608301856128d6565b9050826040830152949350505050565b60408152600061331460408301856128d6565b90508260208301529392505050565b600082516133358184602087016128b2565b9190910192915050565b61ffff8616815260a06020820152600061335c60a08301876128d6565b6001600160401b0386166040840152828103606084015261337d81866128d6565b9050828103608084015261339181856128d6565b98975050505050505050565b61ffff8716815260c0602082015260006133ba60c08301886128d6565b82810360408401526133cc81886128d6565b6001600160a01b0387811660608601528616608085015283810360a08501529050612f2a81856128d6565b60008060006060848603121561340c57600080fd5b83516134178161277f565b60208501519093506001600160401b0381111561343357600080fd5b61343f86828701613215565b92505060408401519050925092509256fea2646970667358221220ea0727e0743cecf1a3a0b040a186b3ec99aeabad455d0fa480f22234b4ac0d7664736f6c63430008160033",
    "linkReferences": {}
  },
  "methodIdentifiers": {
    "DEFAULT_PAYLOAD_SIZE_LIMIT()": "c4461834",
    "NO_EXTRA_GAS()": "44770515",
    "PT_SEND()": "4c42899a",
    "allowance(address,address)": "dd62ed3e",
    "approve(address,uint256)": "095ea7b3",
    "balanceOf(address)": "70a08231",
    "circulatingSupply()": "9358928b",
    "decimals()": "313ce567",
    "decreaseAllowance(address,uint256)": "a457c2d7",
    "estimateSendFee(uint16,bytes,uint256,bool,bytes)": "2a205e3d",
    "failedMessages(uint16,bytes,uint64)": "5b8c41e6",
    "forceResumeReceive(uint16,bytes)": "42d65a8d",
    "getConfig(uint16,uint16,address,uint256)": "f5ecbdbc",
    "getTrustedRemoteAddress(uint16)": "9f38369a",
    "increaseAllowance(address,uint256)": "39509351",
    "isTrustedRemote(uint16,bytes)": "3d8b38f6",
    "lzEndpoint()": "b353aaa7",
    "lzReceive(uint16,bytes,uint64,bytes)": "001d3567",
    "minDstGasLookup(uint16,uint16)": "8cfd8f5c",
    "name()": "06fdde03",
    "nonblockingLzReceive(uint16,bytes,uint64,bytes)": "66ad5c8a",
    "owner()": "8da5cb5b",
    "payloadSizeLimitLookup(uint16)": "3f1f4fa4",
    "precrime()": "950c8a74",
    "renounceOwnership()": "715018a6",
    "retryMessage(uint16,bytes,uint64,bytes)": "d1deba1f",
    "sendFrom(address,uint16,bytes,uint256,address,address,bytes)": "51905636",
    "setConfig(uint16,uint16,uint256,bytes)": "cbed8b9c",
    "setMinDstGas(uint16,uint16,uint256)": "df2a5b3b",
    "setPayloadSizeLimit(uint16,uint256)": "0df37483",
    "setPrecrime(address)": "baf3292d",
    "setReceiveVersion(uint16)": "10ddb137",
    "setSendVersion(uint16)": "07e0db17",
    "setTrustedRemote(uint16,bytes)": "eb8d72b7",
    "setTrustedRemoteAddress(uint16,bytes)": "a6c3d165",
    "setUseCustomAdapterParams(bool)": "eab45d9c",
    "supportsInterface(bytes4)": "01ffc9a7",
    "symbol()": "95d89b41",
    "token()": "fc0c546a",
    "totalSupply()": "18160ddd",
    "transfer(address,uint256)": "a9059cbb",
    "transferFrom(address,address,uint256)": "23b872dd",
    "transferOwnership(address)": "f2fde38b",
    "trustedRemoteLookup(uint16)": "7533d788",
    "useCustomAdapterParams()": "ed629c5c"
  },
  "id": 14
}