{
  "abi": [
    {
      "inputs": [
        {
          "internalType": "string",
          "name": "_name",
          "type": "string"
        },
        {
          "internalType": "string",
          "name": "_symbol",
          "type": "string"
        },
        {
          "internalType": "uint8",
          "name": "_sharedDecimals",
          "type": "uint8"
        },
        {
          "internalType": "address",
          "name": "_lzEndpoint",
          "type": "address"
        }
      ],
      "stateMutability": "nonpayable",
      "type": "constructor"
    },
    {
      "anonymous": false,
      "inputs": [
        {
          "indexed": true,
          "internalType": "address",
          "name": "owner",
          "type": "address"
        },
        {
          "indexed": true,
          "internalType": "address",
          "name": "spender",
          "type": "address"
        },
        {
          "indexed": false,
          "internalType": "uint256",
          "name": "value",
          "type": "uint256"
        }
      ],
      "name": "Approval",
      "type": "event"
    },
    {
      "anonymous": false,
      "inputs": [
        {
          "indexed": true,
          "internalType": "uint16",
          "name": "_srcChainId",
          "type": "uint16"
        },
        {
          "indexed": false,
          "internalType": "bytes",
          "name": "_srcAddress",
          "type": "bytes"
        },
        {
          "indexed": false,
          "internalType": "uint64",
          "name": "_nonce",
          "type": "uint64"
        },
        {
          "indexed": false,
          "internalType": "bytes32",
          "name": "_hash",
          "type": "bytes32"
        }
      ],
      "name": "CallOFTReceivedSuccess",
      "type": "event"
    },
    {
      "anonymous": false,
      "inputs": [
        {
          "indexed": true,
          "internalType": "address",
          "name": "_dst",
          "type": "address"
        },
        {
          "indexed": false,
          "internalType": "uint256",
          "name": "_amount",
          "type": "uint256"
        }
      ],
      "name": "Deposit",
      "type": "event"
    },
    {
      "anonymous": false,
      "inputs": [
        {
          "indexed": false,
          "internalType": "uint16",
          "name": "_srcChainId",
          "type": "uint16"
        },
        {
          "indexed": false,
          "internalType": "bytes",
          "name": "_srcAddress",
          "type": "bytes"
        },
        {
          "indexed": false,
          "internalType": "uint64",
          "name": "_nonce",
          "type": "uint64"
        },
        {
          "indexed": false,
          "internalType": "bytes",
          "name": "_payload",
          "type": "bytes"
        },
        {
          "indexed": false,
          "internalType": "bytes",
          "name": "_reason",
          "type": "bytes"
        }
      ],
      "name": "MessageFailed",
      "type": "event"
    },
    {
      "anonymous": false,
      "inputs": [
        {
          "indexed": false,
          "internalType": "address",
          "name": "_address",
          "type": "address"
        }
      ],
      "name": "NonContractAddress",
      "type": "event"
    },
    {
      "anonymous": false,
      "inputs": [
        {
          "indexed": true,
          "internalType": "address",
          "name": "previousOwner",
          "type": "address"
        },
        {
          "indexed": true,
          "internalType": "address",
          "name": "newOwner",
          "type": "address"
        }
      ],
      "name": "OwnershipTransferred",
      "type": "event"
    },
    {
      "anonymous": false,
      "inputs": [
        {
          "indexed": true,
          "internalType": "uint16",
          "name": "_srcChainId",
          "type": "uint16"
        },
        {
          "indexed": true,
          "internalType": "address",
          "name": "_to",
          "type": "address"
        },
        {
          "indexed": false,
          "internalType": "uint256",
          "name": "_amount",
          "type": "uint256"
        }
      ],
      "name": "ReceiveFromChain",
      "type": "event"
    },
    {
      "anonymous": false,
      "inputs": [
        {
          "indexed": false,
          "internalType": "uint16",
          "name": "_srcChainId",
          "type": "uint16"
        },
        {
          "indexed": false,
          "internalType": "bytes",
          "name": "_srcAddress",
          "type": "bytes"
        },
        {
          "indexed": false,
          "internalType": "uint64",
          "name": "_nonce",
          "type": "uint64"
        },
        {
          "indexed": false,
          "internalType": "bytes32",
          "name": "_payloadHash",
          "type": "bytes32"
        }
      ],
      "name": "RetryMessageSuccess",
      "type": "event"
    },
    {
      "anonymous": false,
      "inputs": [
        {
          "indexed": true,
          "internalType": "uint16",
          "name": "_dstChainId",
          "type": "uint16"
        },
        {
          "indexed": true,
          "internalType": "address",
          "name": "_from",
          "type": "address"
        },
        {
          "indexed": true,
          "internalType": "bytes32",
          "name": "_toAddress",
          "type": "bytes32"
        },
        {
          "indexed": false,
          "internalType": "uint256",
          "name": "_amount",
          "type": "uint256"
        }
      ],
      "name": "SendToChain",
      "type": "event"
    },
    {
      "anonymous": false,
      "inputs": [
        {
          "indexed": false,
          "internalType": "uint16",
          "name": "_dstChainId",
          "type": "uint16"
        },
        {
          "indexed": false,
          "internalType": "uint16",
          "name": "_type",
          "type": "uint16"
        },
        {
          "indexed": false,
          "internalType": "uint256",
          "name": "_minDstGas",
          "type": "uint256"
        }
      ],
      "name": "SetMinDstGas",
      "type": "event"
    },
    {
      "anonymous": false,
      "inputs": [
        {
          "indexed": false,
          "internalType": "address",
          "name": "precrime",
          "type": "address"
        }
      ],
      "name": "SetPrecrime",
      "type": "event"
    },
    {
      "anonymous": false,
      "inputs": [
        {
          "indexed": false,
          "internalType": "uint16",
          "name": "_remoteChainId",
          "type": "uint16"
        },
        {
          "indexed": false,
          "internalType": "bytes",
          "name": "_path",
          "type": "bytes"
        }
      ],
      "name": "SetTrustedRemote",
      "type": "event"
    },
    {
      "anonymous": false,
      "inputs": [
        {
          "indexed": false,
          "internalType": "uint16",
          "name": "_remoteChainId",
          "type": "uint16"
        },
        {
          "indexed": false,
          "internalType": "bytes",
          "name": "_remoteAddress",
          "type": "bytes"
        }
      ],
      "name": "SetTrustedRemoteAddress",
      "type": "event"
    },
    {
      "anonymous": false,
      "inputs": [
        {
          "indexed": true,
          "internalType": "address",
          "name": "from",
          "type": "address"
        },
        {
          "indexed": true,
          "internalType": "address",
          "name": "to",
          "type": "address"
        },
        {
          "indexed": false,
          "internalType": "uint256",
          "name": "value",
          "type": "uint256"
        }
      ],
      "name": "Transfer",
      "type": "event"
    },
    {
      "anonymous": false,
      "inputs": [
        {
          "indexed": true,
          "internalType": "address",
          "name": "_src",
          "type": "address"
        },
        {
          "indexed": false,
          "internalType": "uint256",
          "name": "_amount",
          "type": "uint256"
        }
      ],
      "name": "Withdrawal",
      "type": "event"
    },
    {
      "inputs": [],
      "name": "DEFAULT_PAYLOAD_SIZE_LIMIT",
      "outputs": [
        {
          "internalType": "uint256",
          "name": "",
          "type": "uint256"
        }
      ],
      "stateMutability": "view",
      "type": "function"
    },
    {
      "inputs": [],
      "name": "NO_EXTRA_GAS",
      "outputs": [
        {
          "internalType": "uint256",
          "name": "",
          "type": "uint256"
        }
      ],
      "stateMutability": "view",
      "type": "function"
    },
    {
      "inputs": [],
      "name": "PT_SEND",
      "outputs": [
        {
          "internalType": "uint8",
          "name": "",
          "type": "uint8"
        }
      ],
      "stateMutability": "view",
      "type": "function"
    },
    {
      "inputs": [],
      "name": "PT_SEND_AND_CALL",
      "outputs": [
        {
          "internalType": "uint8",
          "name": "",
          "type": "uint8"
        }
      ],
      "stateMutability": "view",
      "type": "function"
    },
    {
      "inputs": [
        {
          "internalType": "address",
          "name": "owner",
          "type": "address"
        },
        {
          "internalType": "address",
          "name": "spender",
          "type": "address"
        }
      ],
      "name": "allowance",
      "outputs": [
        {
          "internalType": "uint256",
          "name": "",
          "type": "uint256"
        }
      ],
      "stateMutability": "view",
      "type": "function"
    },
    {
      "inputs": [
        {
          "internalType": "address",
          "name": "spender",
          "type": "address"
        },
        {
          "internalType": "uint256",
          "name": "amount",
          "type": "uint256"
        }
      ],
      "name": "approve",
      "outputs": [
        {
          "internalType": "bool",
          "name": "",
          "type": "bool"
        }
      ],
      "stateMutability": "nonpayable",
      "type": "function"
    },
    {
      "inputs": [
        {
          "internalType": "address",
          "name": "account",
          "type": "address"
        }
      ],
      "name": "balanceOf",
      "outputs": [
        {
          "internalType": "uint256",
          "name": "",
          "type": "uint256"
        }
      ],
      "stateMutability": "view",
      "type": "function"
    },
    {
      "inputs": [
        {
          "internalType": "uint16",
          "name": "_srcChainId",
          "type": "uint16"
        },
        {
          "internalType": "bytes",
          "name": "_srcAddress",
          "type": "bytes"
        },
        {
          "internalType": "uint64",
          "name": "_nonce",
          "type": "uint64"
        },
        {
          "internalType": "bytes32",
          "name": "_from",
          "type": "bytes32"
        },
        {
          "internalType": "address",
          "name": "_to",
          "type": "address"
        },
        {
          "internalType": "uint256",
          "name": "_amount",
          "type": "uint256"
        },
        {
          "internalType": "bytes",
          "name": "_payload",
          "type": "bytes"
        },
        {
          "internalType": "uint256",
          "name": "_gasForCall",
          "type": "uint256"
        }
      ],
      "name": "callOnOFTReceived",
      "outputs": [],
      "stateMutability": "nonpayable",
      "type": "function"
    },
    {
      "inputs": [],
      "name": "circulatingSupply",
      "outputs": [
        {
          "internalType": "uint256",
          "name": "",
          "type": "uint256"
        }
      ],
      "stateMutability": "view",
      "type": "function"
    },
    {
      "inputs": [
        {
          "internalType": "uint16",
          "name": "",
          "type": "uint16"
        },
        {
          "internalType": "bytes",
          "name": "",
          "type": "bytes"
        },
        {
          "internalType": "uint64",
          "name": "",
          "type": "uint64"
        }
      ],
      "name": "creditedPackets",
      "outputs": [
        {
          "internalType": "bool",
          "name": "",
          "type": "bool"
        }
      ],
      "stateMutability": "view",
      "type": "function"
    },
    {
      "inputs": [],
      "name": "decimals",
      "outputs": [
        {
          "internalType": "uint8",
          "name": "",
          "type": "uint8"
        }
      ],
      "stateMutability": "view",
      "type": "function"
    },
    {
      "inputs": [
        {
          "internalType": "address",
          "name": "spender",
          "type": "address"
        },
        {
          "internalType": "uint256",
          "name": "subtractedValue",
          "type": "uint256"
        }
      ],
      "name": "decreaseAllowance",
      "outputs": [
        {
          "internalType": "bool",
          "name": "",
          "type": "bool"
        }
      ],
      "stateMutability": "nonpayable",
      "type": "function"
    },
    {
      "inputs": [],
      "name": "deposit",
      "outputs": [],
      "stateMutability": "payable",
      "type": "function"
    },
    {
      "inputs": [
        {
          "internalType": "uint16",
          "name": "_dstChainId",
          "type": "uint16"
        },
        {
          "internalType": "bytes32",
          "name": "_toAddress",
          "type": "bytes32"
        },
        {
          "internalType": "uint256",
          "name": "_amount",
          "type": "uint256"
        },
        {
          "internalType": "bytes",
          "name": "_payload",
          "type": "bytes"
        },
        {
          "internalType": "uint64",
          "name": "_dstGasForCall",
          "type": "uint64"
        },
        {
          "internalType": "bool",
          "name": "_useZro",
          "type": "bool"
        },
        {
          "internalType": "bytes",
          "name": "_adapterParams",
          "type": "bytes"
        }
      ],
      "name": "estimateSendAndCallFee",
      "outputs": [
        {
          "internalType": "uint256",
          "name": "nativeFee",
          "type": "uint256"
        },
        {
          "internalType": "uint256",
          "name": "zroFee",
          "type": "uint256"
        }
      ],
      "stateMutability": "view",
      "type": "function"
    },
    {
      "inputs": [
        {
          "internalType": "uint16",
          "name": "_dstChainId",
          "type": "uint16"
        },
        {
          "internalType": "bytes32",
          "name": "_toAddress",
          "type": "bytes32"
        },
        {
          "internalType": "uint256",
          "name": "_amount",
          "type": "uint256"
        },
        {
          "internalType": "bool",
          "name": "_useZro",
          "type": "bool"
        },
        {
          "internalType": "bytes",
          "name": "_adapterParams",
          "type": "bytes"
        }
      ],
      "name": "estimateSendFee",
      "outputs": [
        {
          "internalType": "uint256",
          "name": "nativeFee",
          "type": "uint256"
        },
        {
          "internalType": "uint256",
          "name": "zroFee",
          "type": "uint256"
        }
      ],
      "stateMutability": "view",
      "type": "function"
    },
    {
      "inputs": [
        {
          "internalType": "uint16",
          "name": "",
          "type": "uint16"
        },
        {
          "internalType": "bytes",
          "name": "",
          "type": "bytes"
        },
        {
          "internalType": "uint64",
          "name": "",
          "type": "uint64"
        }
      ],
      "name": "failedMessages",
      "outputs": [
        {
          "internalType": "bytes32",
          "name": "",
          "type": "bytes32"
        }
      ],
      "stateMutability": "view",
      "type": "function"
    },
    {
      "inputs": [
        {
          "internalType": "uint16",
          "name": "_srcChainId",
          "type": "uint16"
        },
        {
          "internalType": "bytes",
          "name": "_srcAddress",
          "type": "bytes"
        }
      ],
      "name": "forceResumeReceive",
      "outputs": [],
      "stateMutability": "nonpayable",
      "type": "function"
    },
    {
      "inputs": [
        {
          "internalType": "uint16",
          "name": "_version",
          "type": "uint16"
        },
        {
          "internalType": "uint16",
          "name": "_chainId",
          "type": "uint16"
        },
        {
          "internalType": "address",
          "name": "",
          "type": "address"
        },
        {
          "internalType": "uint256",
          "name": "_configType",
          "type": "uint256"
        }
      ],
      "name": "getConfig",
      "outputs": [
        {
          "internalType": "bytes",
          "name": "",
          "type": "bytes"
        }
      ],
      "stateMutability": "view",
      "type": "function"
    },
    {
      "inputs": [
        {
          "internalType": "uint16",
          "name": "_remoteChainId",
          "type": "uint16"
        }
      ],
      "name": "getTrustedRemoteAddress",
      "outputs": [
        {
          "internalType": "bytes",
          "name": "",
          "type": "bytes"
        }
      ],
      "stateMutability": "view",
      "type": "function"
    },
    {
      "inputs": [
        {
          "internalType": "address",
          "name": "spender",
          "type": "address"
        },
        {
          "internalType": "uint256",
          "name": "addedValue",
          "type": "uint256"
        }
      ],
      "name": "increaseAllowance",
      "outputs": [
        {
          "internalType": "bool",
          "name": "",
          "type": "bool"
        }
      ],
      "stateMutability": "nonpayable",
      "type": "function"
    },
    {
      "inputs": [
        {
          "internalType": "uint16",
          "name": "_srcChainId",
          "type": "uint16"
        },
        {
          "internalType": "bytes",
          "name": "_srcAddress",
          "type": "bytes"
        }
      ],
      "name": "isTrustedRemote",
      "outputs": [
        {
          "internalType": "bool",
          "name": "",
          "type": "bool"
        }
      ],
      "stateMutability": "view",
      "type": "function"
    },
    {
      "inputs": [],
      "name": "lzEndpoint",
      "outputs": [
        {
          "internalType": "contract ILayerZeroEndpoint",
          "name": "",
          "type": "address"
        }
      ],
      "stateMutability": "view",
      "type": "function"
    },
    {
      "inputs": [
        {
          "internalType": "uint16",
          "name": "_srcChainId",
          "type": "uint16"
        },
        {
          "internalType": "bytes",
          "name": "_srcAddress",
          "type": "bytes"
        },
        {
          "internalType": "uint64",
          "name": "_nonce",
          "type": "uint64"
        },
        {
          "internalType": "bytes",
          "name": "_payload",
          "type": "bytes"
        }
      ],
      "name": "lzReceive",
      "outputs": [],
      "stateMutability": "nonpayable",
      "type": "function"
    },
    {
      "inputs": [
        {
          "internalType": "uint16",
          "name": "",
          "type": "uint16"
        },
        {
          "internalType": "uint16",
          "name": "",
          "type": "uint16"
        }
      ],
      "name": "minDstGasLookup",
      "outputs": [
        {
          "internalType": "uint256",
          "name": "",
          "type": "uint256"
        }
      ],
      "stateMutability": "view",
      "type": "function"
    },
    {
      "inputs": [],
      "name": "name",
      "outputs": [
        {
          "internalType": "string",
          "name": "",
          "type": "string"
        }
      ],
      "stateMutability": "view",
      "type": "function"
    },
    {
      "inputs": [
        {
          "internalType": "uint16",
          "name": "_srcChainId",
          "type": "uint16"
        },
        {
          "internalType": "bytes",
          "name": "_srcAddress",
          "type": "bytes"
        },
        {
          "internalType": "uint64",
          "name": "_nonce",
          "type": "uint64"
        },
        {
          "internalType": "bytes",
          "name": "_payload",
          "type": "bytes"
        }
      ],
      "name": "nonblockingLzReceive",
      "outputs": [],
      "stateMutability": "nonpayable",
      "type": "function"
    },
    {
      "inputs": [],
      "name": "outboundAmount",
      "outputs": [
        {
          "internalType": "uint256",
          "name": "",
          "type": "uint256"
        }
      ],
      "stateMutability": "view",
      "type": "function"
    },
    {
      "inputs": [],
      "name": "owner",
      "outputs": [
        {
          "internalType": "address",
          "name": "",
          "type": "address"
        }
      ],
      "stateMutability": "view",
      "type": "function"
    },
    {
      "inputs": [
        {
          "internalType": "uint16",
          "name": "",
          "type": "uint16"
        }
      ],
      "name": "payloadSizeLimitLookup",
      "outputs": [
        {
          "internalType": "uint256",
          "name": "",
          "type": "uint256"
        }
      ],
      "stateMutability": "view",
      "type": "function"
    },
    {
      "inputs": [],
      "name": "precrime",
      "outputs": [
        {
          "internalType": "address",
          "name": "",
          "type": "address"
        }
      ],
      "stateMutability": "view",
      "type": "function"
    },
    {
      "inputs": [],
      "name": "renounceOwnership",
      "outputs": [],
      "stateMutability": "nonpayable",
      "type": "function"
    },
    {
      "inputs": [
        {
          "internalType": "uint16",
          "name": "_srcChainId",
          "type": "uint16"
        },
        {
          "internalType": "bytes",
          "name": "_srcAddress",
          "type": "bytes"
        },
        {
          "internalType": "uint64",
          "name": "_nonce",
          "type": "uint64"
        },
        {
          "internalType": "bytes",
          "name": "_payload",
          "type": "bytes"
        }
      ],
      "name": "retryMessage",
      "outputs": [],
      "stateMutability": "payable",
      "type": "function"
    },
    {
      "inputs": [
        {
          "internalType": "address",
          "name": "_from",
          "type": "address"
        },
        {
          "internalType": "uint16",
          "name": "_dstChainId",
          "type": "uint16"
        },
        {
          "internalType": "bytes32",
          "name": "_toAddress",
          "type": "bytes32"
        },
        {
          "internalType": "uint256",
          "name": "_amount",
          "type": "uint256"
        },
        {
          "internalType": "bytes",
          "name": "_payload",
          "type": "bytes"
        },
        {
          "internalType": "uint64",
          "name": "_dstGasForCall",
          "type": "uint64"
        },
        {
          "components": [
            {
              "internalType": "address payable",
              "name": "refundAddress",
              "type": "address"
            },
            {
              "internalType": "address",
              "name": "zroPaymentAddress",
              "type": "address"
            },
            {
              "internalType": "bytes",
              "name": "adapterParams",
              "type": "bytes"
            }
          ],
          "internalType": "struct ICommonOFT.LzCallParams",
          "name": "_callParams",
          "type": "tuple"
        }
      ],
      "name": "sendAndCall",
      "outputs": [],
      "stateMutability": "payable",
      "type": "function"
    },
    {
      "inputs": [
        {
          "internalType": "address",
          "name": "_from",
          "type": "address"
        },
        {
          "internalType": "uint16",
          "name": "_dstChainId",
          "type": "uint16"
        },
        {
          "internalType": "bytes32",
          "name": "_toAddress",
          "type": "bytes32"
        },
        {
          "internalType": "uint256",
          "name": "_amount",
          "type": "uint256"
        },
        {
          "components": [
            {
              "internalType": "address payable",
              "name": "refundAddress",
              "type": "address"
            },
            {
              "internalType": "address",
              "name": "zroPaymentAddress",
              "type": "address"
            },
            {
              "internalType": "bytes",
              "name": "adapterParams",
              "type": "bytes"
            }
          ],
          "internalType": "struct ICommonOFT.LzCallParams",
          "name": "_callParams",
          "type": "tuple"
        }
      ],
      "name": "sendFrom",
      "outputs": [],
      "stateMutability": "payable",
      "type": "function"
    },
    {
      "inputs": [
        {
          "internalType": "uint16",
          "name": "_version",
          "type": "uint16"
        },
        {
          "internalType": "uint16",
          "name": "_chainId",
          "type": "uint16"
        },
        {
          "internalType": "uint256",
          "name": "_configType",
          "type": "uint256"
        },
        {
          "internalType": "bytes",
          "name": "_config",
          "type": "bytes"
        }
      ],
      "name": "setConfig",
      "outputs": [],
      "stateMutability": "nonpayable",
      "type": "function"
    },
    {
      "inputs": [
        {
          "internalType": "uint16",
          "name": "_dstChainId",
          "type": "uint16"
        },
        {
          "internalType": "uint16",
          "name": "_packetType",
          "type": "uint16"
        },
        {
          "internalType": "uint256",
          "name": "_minGas",
          "type": "uint256"
        }
      ],
      "name": "setMinDstGas",
      "outputs": [],
      "stateMutability": "nonpayable",
      "type": "function"
    },
    {
      "inputs": [
        {
          "internalType": "uint16",
          "name": "_dstChainId",
          "type": "uint16"
        },
        {
          "internalType": "uint256",
          "name": "_size",
          "type": "uint256"
        }
      ],
      "name": "setPayloadSizeLimit",
      "outputs": [],
      "stateMutability": "nonpayable",
      "type": "function"
    },
    {
      "inputs": [
        {
          "internalType": "address",
          "name": "_precrime",
          "type": "address"
        }
      ],
      "name": "setPrecrime",
      "outputs": [],
      "stateMutability": "nonpayable",
      "type": "function"
    },
    {
      "inputs": [
        {
          "internalType": "uint16",
          "name": "_version",
          "type": "uint16"
        }
      ],
      "name": "setReceiveVersion",
      "outputs": [],
      "stateMutability": "nonpayable",
      "type": "function"
    },
    {
      "inputs": [
        {
          "internalType": "uint16",
          "name": "_version",
          "type": "uint16"
        }
      ],
      "name": "setSendVersion",
      "outputs": [],
      "stateMutability": "nonpayable",
      "type": "function"
    },
    {
      "inputs": [
        {
          "internalType": "uint16",
          "name": "_remoteChainId",
          "type": "uint16"
        },
        {
          "internalType": "bytes",
          "name": "_path",
          "type": "bytes"
        }
      ],
      "name": "setTrustedRemote",
      "outputs": [],
      "stateMutability": "nonpayable",
      "type": "function"
    },
    {
      "inputs": [
        {
          "internalType": "uint16",
          "name": "_remoteChainId",
          "type": "uint16"
        },
        {
          "internalType": "bytes",
          "name": "_remoteAddress",
          "type": "bytes"
        }
      ],
      "name": "setTrustedRemoteAddress",
      "outputs": [],
      "stateMutability": "nonpayable",
      "type": "function"
    },
    {
      "inputs": [],
      "name": "sharedDecimals",
      "outputs": [
        {
          "internalType": "uint8",
          "name": "",
          "type": "uint8"
        }
      ],
      "stateMutability": "view",
      "type": "function"
    },
    {
      "inputs": [
        {
          "internalType": "bytes4",
          "name": "interfaceId",
          "type": "bytes4"
        }
      ],
      "name": "supportsInterface",
      "outputs": [
        {
          "internalType": "bool",
          "name": "",
          "type": "bool"
        }
      ],
      "stateMutability": "view",
      "type": "function"
    },
    {
      "inputs": [],
      "name": "symbol",
      "outputs": [
        {
          "internalType": "string",
          "name": "",
          "type": "string"
        }
      ],
      "stateMutability": "view",
      "type": "function"
    },
    {
      "inputs": [],
      "name": "token",
      "outputs": [
        {
          "internalType": "address",
          "name": "",
          "type": "address"
        }
      ],
      "stateMutability": "view",
      "type": "function"
    },
    {
      "inputs": [],
      "name": "totalSupply",
      "outputs": [
        {
          "internalType": "uint256",
          "name": "",
          "type": "uint256"
        }
      ],
      "stateMutability": "view",
      "type": "function"
    },
    {
      "inputs": [
        {
          "internalType": "address",
          "name": "to",
          "type": "address"
        },
        {
          "internalType": "uint256",
          "name": "amount",
          "type": "uint256"
        }
      ],
      "name": "transfer",
      "outputs": [
        {
          "internalType": "bool",
          "name": "",
          "type": "bool"
        }
      ],
      "stateMutability": "nonpayable",
      "type": "function"
    },
    {
      "inputs": [
        {
          "internalType": "address",
          "name": "from",
          "type": "address"
        },
        {
          "internalType": "address",
          "name": "to",
          "type": "address"
        },
        {
          "internalType": "uint256",
          "name": "amount",
          "type": "uint256"
        }
      ],
      "name": "transferFrom",
      "outputs": [
        {
          "internalType": "bool",
          "name": "",
          "type": "bool"
        }
      ],
      "stateMutability": "nonpayable",
      "type": "function"
    },
    {
      "inputs": [
        {
          "internalType": "address",
          "name": "newOwner",
          "type": "address"
        }
      ],
      "name": "transferOwnership",
      "outputs": [],
      "stateMutability": "nonpayable",
      "type": "function"
    },
    {
      "inputs": [
        {
          "internalType": "uint16",
          "name": "",
          "type": "uint16"
        }
      ],
      "name": "trustedRemoteLookup",
      "outputs": [
        {
          "internalType": "bytes",
          "name": "",
          "type": "bytes"
        }
      ],
      "stateMutability": "view",
      "type": "function"
    },
    {
      "inputs": [
        {
          "internalType": "uint256",
          "name": "_amount",
          "type": "uint256"
        }
      ],
      "name": "withdraw",
      "outputs": [],
      "stateMutability": "nonpayable",
      "type": "function"
    },
    {
      "stateMutability": "payable",
      "type": "receive"
    }
  ],
  "bytecode": {
    "object": "0x60e06040523480156200001157600080fd5b5060405162004cc138038062004cc183398101604081905262000034916200024f565b8383838383838383818180806200004b3362000132565b6001600160a01b0316608052505060ff1660a05250600a905062000070838262000384565b50600b6200007f828262000384565b5050506000620000946200018260201b60201c565b90508060ff168360ff161115620001015760405162461bcd60e51b815260206004820152602760248201527f4f46543a20736861726564446563696d616c73206d757374206265203c3d20646044820152666563696d616c7360c81b606482015260840160405180910390fd5b6200010d838262000466565b6200011a90600a62000585565b60c05250506001600c55506200059d95505050505050565b600080546001600160a01b038381166001600160a01b0319831681178455604051919092169283917f8be0079c531659141344cd1fd0a4f28419497f9722a3daafe3b4186f6b6457e09190a35050565b601290565b634e487b7160e01b600052604160045260246000fd5b600082601f830112620001af57600080fd5b81516001600160401b0380821115620001cc57620001cc62000187565b604051601f8301601f19908116603f01168101908282118183101715620001f757620001f762000187565b81604052838152602092508660208588010111156200021557600080fd5b600091505b838210156200023957858201830151818301840152908201906200021a565b6000602085830101528094505050505092915050565b600080600080608085870312156200026657600080fd5b84516001600160401b03808211156200027e57600080fd5b6200028c888389016200019d565b95506020870151915080821115620002a357600080fd5b50620002b2878288016200019d565b935050604085015160ff81168114620002ca57600080fd5b60608601519092506001600160a01b0381168114620002e857600080fd5b939692955090935050565b600181811c908216806200030857607f821691505b6020821081036200032957634e487b7160e01b600052602260045260246000fd5b50919050565b601f8211156200037f576000816000526020600020601f850160051c810160208610156200035a5750805b601f850160051c820191505b818110156200037b5782815560010162000366565b5050505b505050565b81516001600160401b03811115620003a057620003a062000187565b620003b881620003b18454620002f3565b846200032f565b602080601f831160018114620003f05760008415620003d75750858301515b600019600386901b1c1916600185901b1785556200037b565b600085815260208120601f198616915b82811015620004215788860151825594840194600190910190840162000400565b5085821015620004405787850151600019600388901b60f8161c191681555b5050505050600190811b01905550565b634e487b7160e01b600052601160045260246000fd5b60ff828116828216039081111562000482576200048262000450565b92915050565b600181815b80851115620004c9578160001904821115620004ad57620004ad62000450565b80851615620004bb57918102915b93841c93908002906200048d565b509250929050565b600082620004e25750600162000482565b81620004f15750600062000482565b81600181146200050a5760028114620005155762000535565b600191505062000482565b60ff84111562000529576200052962000450565b50506001821b62000482565b5060208310610133831016604e8410600b84101617156200055a575081810a62000482565b62000566838362000488565b80600019048211156200057d576200057d62000450565b029392505050565b60006200059660ff841683620004d1565b9392505050565b60805160a05160c0516146a76200061a60003960008181612aa401528181612ef901526131e40152600061068c01526000818161087c01528181610a3b01528181610d5301528181610e13015281816111270152818161178301528181611cb90152818161240901528181612895015261309b01526146a76000f3fe6080604052600436106103025760003560e01c80638cfd8f5c11610190578063baf3292d116100dc578063df2a5b3b11610095578063eb8d72b71161006f578063eb8d72b714610984578063f2fde38b146109a4578063f5ecbdbc146109c4578063fc0c546a146109e457600080fd5b8063df2a5b3b1461092f578063e6a20ae61461094f578063eaffd49a1461096457600080fd5b8063baf3292d1461089e578063c4461834146108be578063cbed8b9c146108d4578063d0e30db0146108f4578063d1deba1f146108fc578063dd62ed3e1461090f57600080fd5b80639bdb981211610149578063a4c51df511610123578063a4c51df51461080a578063a6c3d1651461082a578063a9059cbb1461084a578063b353aaa71461086a57600080fd5b80639bdb9812146107785780639f38369a146107ca578063a457c2d7146107ea57600080fd5b80638cfd8f5c146106ae5780638da5cb5b146106e65780639358928b14610718578063950c8a741461072d57806395d89b411461074d5780639689cb051461076257600080fd5b80633d8b38f61161024f57806366ad5c8a11610208578063715018a6116101e2578063715018a6146106325780637533d7881461064757806376203b4814610667578063857749b01461067a57600080fd5b806366ad5c8a146105c9578063695ef6bf146105e957806370a08231146105fc57600080fd5b80633d8b38f6146104e35780633f1f4fa41461050357806342d65a8d1461053057806344770515146105505780634c42899a146105655780635b8c41e61461057a57600080fd5b806310ddb137116102bc5780632e1a7d4d116102965780632e1a7d4d1461044c578063313ce5671461046c578063365260b41461048e57806339509351146104c357600080fd5b806310ddb137146103ed57806318160ddd1461040d57806323b872dd1461042c57600080fd5b80621d35671461031657806301ffc9a71461033657806306fdde031461036b57806307e0db171461038d578063095ea7b3146103ad5780630df37483146103cd57600080fd5b366103115761030f6109f7565b005b600080fd5b34801561032257600080fd5b5061030f610331366004613718565b610a38565b34801561034257600080fd5b506103566103513660046137ab565b610c69565b60405190151581526020015b60405180910390f35b34801561037757600080fd5b50610380610ca0565b6040516103629190613825565b34801561039957600080fd5b5061030f6103a8366004613838565b610d32565b3480156103b957600080fd5b506103566103c8366004613868565b610dbb565b3480156103d957600080fd5b5061030f6103e8366004613894565b610dd3565b3480156103f957600080fd5b5061030f610408366004613838565b610df2565b34801561041957600080fd5b506009545b604051908152602001610362565b34801561043857600080fd5b506103566104473660046138b0565b610e4a565b34801561045857600080fd5b5061030f6104673660046138f1565b610e6e565b34801561047857600080fd5b5060125b60405160ff9091168152602001610362565b34801561049a57600080fd5b506104ae6104a936600461391a565b610fc5565b60408051928352602083019190915201610362565b3480156104cf57600080fd5b506103566104de366004613868565b61101a565b3480156104ef57600080fd5b506103566104fe36600461397f565b61103c565b34801561050f57600080fd5b5061041e61051e366004613838565b60036020526000908152604090205481565b34801561053c57600080fd5b5061030f61054b36600461397f565b611108565b34801561055c57600080fd5b5061041e600081565b34801561057157600080fd5b5061047c600081565b34801561058657600080fd5b5061041e610595366004613a3e565b6005602090815260009384526040808520845180860184018051928152908401958401959095209452929052825290205481565b3480156105d557600080fd5b5061030f6105e4366004613718565b61118e565b61030f6105f7366004613af0565b61126a565b34801561060857600080fd5b5061041e610617366004613b63565b6001600160a01b031660009081526007602052604090205490565b34801561063e57600080fd5b5061030f6112d5565b34801561065357600080fd5b50610380610662366004613838565b6112e9565b61030f610675366004613b80565b611383565b34801561068657600080fd5b5061047c7f000000000000000000000000000000000000000000000000000000000000000081565b3480156106ba57600080fd5b5061041e6106c9366004613c32565b600260209081526000928352604080842090915290825290205481565b3480156106f257600080fd5b506000546001600160a01b03165b6040516001600160a01b039091168152602001610362565b34801561072457600080fd5b5061041e611432565b34801561073957600080fd5b50600454610700906001600160a01b031681565b34801561075957600080fd5b50610380611442565b34801561076e57600080fd5b5061041e600d5481565b34801561078457600080fd5b50610356610793366004613a3e565b6006602090815260009384526040808520845180860184018051928152908401958401959095209452929052825290205460ff1681565b3480156107d657600080fd5b506103806107e5366004613838565b611451565b3480156107f657600080fd5b50610356610805366004613868565b611567565b34801561081657600080fd5b506104ae610825366004613c65565b6115e2565b34801561083657600080fd5b5061030f61084536600461397f565b611671565b34801561085657600080fd5b50610356610865366004613868565b6116fa565b34801561087657600080fd5b506107007f000000000000000000000000000000000000000000000000000000000000000081565b3480156108aa57600080fd5b5061030f6108b9366004613b63565b611708565b3480156108ca57600080fd5b5061041e61271081565b3480156108e057600080fd5b5061030f6108ef366004613d1e565b611764565b61030f6109f7565b61030f61090a366004613718565b6117ee565b34801561091b57600080fd5b5061041e61092a366004613d8c565b611a04565b34801561093b57600080fd5b5061030f61094a366004613dc5565b611a2f565b34801561095b57600080fd5b5061047c600181565b34801561097057600080fd5b5061030f61097f366004613e01565b611a99565b34801561099057600080fd5b5061030f61099f36600461397f565b611bb8565b3480156109b057600080fd5b5061030f6109bf366004613b63565b611c12565b3480156109d057600080fd5b506103806109df366004613ec9565b611c88565b3480156109f057600080fd5b5030610700565b610a013334611d39565b60405134815233907fe1fffcc4923d04b559f4d29a8bfc6cda04eb5b0d3c460751c2402c5c5cc9109c9060200160405180910390a2565b337f00000000000000000000000000000000000000000000000000000000000000006001600160a01b031614610ab55760405162461bcd60e51b815260206004820152601e60248201527f4c7a4170703a20696e76616c696420656e64706f696e742063616c6c6572000060448201526064015b60405180910390fd5b61ffff861660009081526001602052604081208054610ad390613f16565b80601f0160208091040260200160405190810160405280929190818152602001828054610aff90613f16565b8015610b4c5780601f10610b2157610100808354040283529160200191610b4c565b820191906000526020600020905b815481529060010190602001808311610b2f57829003601f168201915b50505050509050805186869050148015610b67575060008151115b8015610b8f575080516020820120604051610b859088908890613f4a565b6040518091039020145b610bea5760405162461bcd60e51b815260206004820152602660248201527f4c7a4170703a20696e76616c696420736f757263652073656e64696e6720636f6044820152651b9d1c9858dd60d21b6064820152608401610aac565b610c608787878080601f01602080910402602001604051908101604052809392919081815260200183838082843760009201919091525050604080516020601f8a018190048102820181019092528881528a935091508890889081908401838280828437600092019190915250611dfa92505050565b50505050505050565b60006001600160e01b03198216631f7ecdf760e01b1480610c9a57506301ffc9a760e01b6001600160e01b03198316145b92915050565b6060600a8054610caf90613f16565b80601f0160208091040260200160405190810160405280929190818152602001828054610cdb90613f16565b8015610d285780601f10610cfd57610100808354040283529160200191610d28565b820191906000526020600020905b815481529060010190602001808311610d0b57829003601f168201915b5050505050905090565b610d3a611e73565b6040516307e0db1760e01b815261ffff821660048201527f00000000000000000000000000000000000000000000000000000000000000006001600160a01b0316906307e0db17906024015b600060405180830381600087803b158015610da057600080fd5b505af1158015610db4573d6000803e3d6000fd5b5050505050565b600033610dc9818585611ecd565b5060019392505050565b610ddb611e73565b61ffff909116600090815260036020526040902055565b610dfa611e73565b6040516310ddb13760e01b815261ffff821660048201527f00000000000000000000000000000000000000000000000000000000000000006001600160a01b0316906310ddb13790602401610d86565b600033610e58858285611ff2565b610e6385858561206c565b506001949350505050565b610e76612217565b33600090815260076020526040902054811115610ee05760405162461bcd60e51b815260206004820152602260248201527f4e61746976654f465456323a20496e73756666696369656e742062616c616e63604482015261329760f11b6064820152608401610aac565b610eea3382612270565b604051600090339083908381818185875af1925050503d8060008114610f2c576040519150601f19603f3d011682016040523d82523d6000602084013e610f31565b606091505b5050905080610f825760405162461bcd60e51b815260206004820152601d60248201527f4e61746976654f465456323a206661696c656420746f20756e777261700000006044820152606401610aac565b60405182815233907f7fcf532c15f0a6db0bd6d0e038bea71d30d808c7d98cb3bf7268a95bf5081b659060200160405180910390a250610fc26001600c55565b50565b60008061100b8888888888888080601f0160208091040260200160405190810160405280939291908181526020018383808284376000920191909152506123a192505050565b91509150965096945050505050565b600033610dc981858561102d8383611a04565b6110379190613f70565b611ecd565b61ffff83166000908152600160205260408120805482919061105d90613f16565b80601f016020809104026020016040519081016040528092919081815260200182805461108990613f16565b80156110d65780601f106110ab576101008083540402835291602001916110d6565b820191906000526020600020905b8154815290600101906020018083116110b957829003601f168201915b5050505050905083836040516110ed929190613f4a565b60405180910390208180519060200120149150509392505050565b611110611e73565b6040516342d65a8d60e01b81526001600160a01b037f000000000000000000000000000000000000000000000000000000000000000016906342d65a8d9061116090869086908690600401613fac565b600060405180830381600087803b15801561117a57600080fd5b505af1158015610c60573d6000803e3d6000fd5b3330146111ec5760405162461bcd60e51b815260206004820152602660248201527f4e6f6e626c6f636b696e674c7a4170703a2063616c6c6572206d7573742062656044820152650204c7a4170760d41b6064820152608401610aac565b6112628686868080601f01602080910402602001604051908101604052809392919081815260200183838082843760009201919091525050604080516020601f89018190048102820181019092528781528993509150879087908190840183828082843760009201919091525061249592505050565b505050505050565b6112628585858561127e6020870187613b63565b61128e6040880160208901613b63565b61129b6040890189613fca565b8080601f01602080910402602001604051908101604052809392919081815260200183838082843760009201919091525061251c92505050565b6112dd611e73565b6112e76000612606565b565b6001602052600090815260409020805461130290613f16565b80601f016020809104026020016040519081016040528092919081815260200182805461132e90613f16565b801561137b5780601f106113505761010080835404028352916020019161137b565b820191906000526020600020905b81548152906001019060200180831161135e57829003601f168201915b505050505081565b6114278888888888888080601f0160208091040260200160405190810160405280939291908181526020018383808284376000920191909152508a92506113d09150506020890189613b63565b6113e060408a0160208b01613b63565b6113ed60408b018b613fca565b8080601f01602080910402602001604051908101604052809392919081815260200183838082843760009201919091525061265692505050565b505050505050505050565b600061143d60095490565b905090565b6060600b8054610caf90613f16565b61ffff811660009081526001602052604081208054606092919061147490613f16565b80601f01602080910402602001604051908101604052809291908181526020018280546114a090613f16565b80156114ed5780601f106114c2576101008083540402835291602001916114ed565b820191906000526020600020905b8154815290600101906020018083116114d057829003601f168201915b5050505050905080516000036115455760405162461bcd60e51b815260206004820152601d60248201527f4c7a4170703a206e6f20747275737465642070617468207265636f72640000006044820152606401610aac565b6115606000601483516115589190614010565b839190612754565b9392505050565b600033816115758286611a04565b9050838110156115d55760405162461bcd60e51b815260206004820152602560248201527f45524332303a2064656372656173656420616c6c6f77616e63652062656c6f77604482015264207a65726f60d81b6064820152608401610aac565b610e638286868403611ecd565b60008061165f8b8b8b8b8b8080601f01602080910402602001604051908101604052809392919081815260200183838082843760009201919091525050604080516020601f8d018190048102820181019092528b81528e93508d9250908c908c908190840183828082843760009201919091525061286192505050565b91509150995099975050505050505050565b611679611e73565b81813060405160200161168e93929190614023565b60408051601f1981840301815291815261ffff85166000908152600160205220906116b99082614091565b507f8c0400cfe2d1199b1a725c78960bcc2a344d869b80590d0f2bd005db15a572ce8383836040516116ed93929190613fac565b60405180910390a1505050565b600033610dc981858561206c565b611710611e73565b600480546001600160a01b0319166001600160a01b0383169081179091556040519081527f5db758e995a17ec1ad84bdef7e8c3293a0bd6179bcce400dff5d4c3d87db726b9060200160405180910390a150565b61176c611e73565b6040516332fb62e760e21b81526001600160a01b037f0000000000000000000000000000000000000000000000000000000000000000169063cbed8b9c906117c09088908890889088908890600401614150565b600060405180830381600087803b1580156117da57600080fd5b505af1158015611427573d6000803e3d6000fd5b61ffff861660009081526005602052604080822090516118119088908890613f4a565b90815260408051602092819003830190206001600160401b038716600090815292529020549050806118915760405162461bcd60e51b815260206004820152602360248201527f4e6f6e626c6f636b696e674c7a4170703a206e6f2073746f726564206d65737360448201526261676560e81b6064820152608401610aac565b8083836040516118a2929190613f4a565b6040518091039020146119015760405162461bcd60e51b815260206004820152602160248201527f4e6f6e626c6f636b696e674c7a4170703a20696e76616c6964207061796c6f616044820152601960fa1b6064820152608401610aac565b61ffff871660009081526005602052604080822090516119249089908990613f4a565b90815260408051602092819003830181206001600160401b038916600090815290845282902093909355601f880182900482028301820190528682526119bc918991899089908190840183828082843760009201919091525050604080516020601f8a018190048102820181019092528881528a93509150889088908190840183828082843760009201919091525061249592505050565b7fc264d91f3adc5588250e1551f547752ca0cfa8f6b530d243b9f9f4cab10ea8e587878787856040516119f3959493929190614189565b60405180910390a150505050505050565b6001600160a01b03918216600090815260086020908152604080832093909416825291909152205490565b611a37611e73565b61ffff83811660008181526002602090815260408083209487168084529482529182902085905581519283528201929092529081018290527f9d5c7c0b934da8fefa9c7760c98383778a12dfbfc0c3b3106518f43fb9508ac0906060016116ed565b333014611ae85760405162461bcd60e51b815260206004820152601f60248201527f4f4654436f72653a2063616c6c6572206d757374206265204f4654436f7265006044820152606401610aac565b611af3308686612923565b9350846001600160a01b03168a61ffff167fbf551ec93859b170f9b2141bd9298bf3f64322c6f7beb2543a0cb669834118bf86604051611b3591815260200190565b60405180910390a3604051633fe79aed60e11b81526001600160a01b03861690637fcf35da908390611b79908e908e908e908e908e908d908d908d906004016141c4565b600060405180830381600088803b158015611b9357600080fd5b5087f1158015611ba7573d6000803e3d6000fd5b505050505050505050505050505050565b611bc0611e73565b61ffff83166000908152600160205260409020611bde82848361421f565b507ffa41487ad5d6728f0b19276fa1eddc16558578f5109fc39d2dc33c3230470dab8383836040516116ed93929190613fac565b611c1a611e73565b6001600160a01b038116611c7f5760405162461bcd60e51b815260206004820152602660248201527f4f776e61626c653a206e6577206f776e657220697320746865207a65726f206160448201526564647265737360d01b6064820152608401610aac565b610fc281612606565b604051633d7b2f6f60e21b815261ffff808616600483015284166024820152306044820152606481018290526060907f00000000000000000000000000000000000000000000000000000000000000006001600160a01b03169063f5ecbdbc90608401600060405180830381865afa158015611d08573d6000803e3d6000fd5b505050506040513d6000823e601f3d908101601f19168201604052611d3091908101906142de565b95945050505050565b6001600160a01b038216611d8f5760405162461bcd60e51b815260206004820152601f60248201527f45524332303a206d696e7420746f20746865207a65726f2061646472657373006044820152606401610aac565b8060096000828254611da19190613f70565b90915550506001600160a01b0382166000818152600760209081526040808320805486019055518481527fddf252ad1be2c89b69c2b068fc378daa952ba7f163c4a11628f55a4df523b3ef910160405180910390a35050565b600080611e5d5a60966366ad5c8a60e01b89898989604051602401611e22949392919061434b565b60408051601f198184030181529190526020810180516001600160e01b03166001600160e01b03199093169290921790915230929190612975565b91509150816112625761126286868686856129ff565b6000546001600160a01b031633146112e75760405162461bcd60e51b815260206004820181905260248201527f4f776e61626c653a2063616c6c6572206973206e6f7420746865206f776e65726044820152606401610aac565b6001600160a01b038316611f2f5760405162461bcd60e51b8152602060048201526024808201527f45524332303a20617070726f76652066726f6d20746865207a65726f206164646044820152637265737360e01b6064820152608401610aac565b6001600160a01b038216611f905760405162461bcd60e51b815260206004820152602260248201527f45524332303a20617070726f766520746f20746865207a65726f206164647265604482015261737360f01b6064820152608401610aac565b6001600160a01b0383811660008181526008602090815260408083209487168084529482529182902085905590518481527f8c5be1e5ebec7d5bd14f71427d1e84f3dd0314c0f7b2291e5b200ac8c7c3b92591015b60405180910390a3505050565b6000611ffe8484611a04565b9050600019811461206657818110156120595760405162461bcd60e51b815260206004820152601d60248201527f45524332303a20696e73756666696369656e7420616c6c6f77616e63650000006044820152606401610aac565b6120668484848403611ecd565b50505050565b6001600160a01b0383166120d05760405162461bcd60e51b815260206004820152602560248201527f45524332303a207472616e736665722066726f6d20746865207a65726f206164604482015264647265737360d81b6064820152608401610aac565b6001600160a01b0382166121325760405162461bcd60e51b815260206004820152602360248201527f45524332303a207472616e7366657220746f20746865207a65726f206164647260448201526265737360e81b6064820152608401610aac565b6001600160a01b038316600090815260076020526040902054818110156121aa5760405162461bcd60e51b815260206004820152602660248201527f45524332303a207472616e7366657220616d6f756e7420657863656564732062604482015265616c616e636560d01b6064820152608401610aac565b6001600160a01b0380851660008181526007602052604080822086860390559286168082529083902080548601905591517fddf252ad1be2c89b69c2b068fc378daa952ba7f163c4a11628f55a4df523b3ef9061220a9086815260200190565b60405180910390a3612066565b6002600c54036122695760405162461bcd60e51b815260206004820152601f60248201527f5265656e7472616e637947756172643a207265656e7472616e742063616c6c006044820152606401610aac565b6002600c55565b6001600160a01b0382166122d05760405162461bcd60e51b815260206004820152602160248201527f45524332303a206275726e2066726f6d20746865207a65726f206164647265736044820152607360f81b6064820152608401610aac565b6001600160a01b038216600090815260076020526040902054818110156123445760405162461bcd60e51b815260206004820152602260248201527f45524332303a206275726e20616d6f756e7420657863656564732062616c616e604482015261636560f01b6064820152608401610aac565b6001600160a01b03831660008181526007602090815260408083208686039055600980548790039055518581529192917fddf252ad1be2c89b69c2b068fc378daa952ba7f163c4a11628f55a4df523b3ef9101611fe5565b505050565b60008060006123ef876123b388612a9c565b6040805160006020820152602181019390935260c09190911b6001600160c01b0319166041830152805160298184030181526049909201905290565b60405163040a7bb160e41b81529091506001600160a01b037f000000000000000000000000000000000000000000000000000000000000000016906340a7bb1090612446908b90309086908b908b90600401614389565b6040805180830381865afa158015612462573d6000803e3d6000fd5b505050506040513d601f19601f8201168201806040525081019061248691906143dd565b92509250509550959350505050565b60006124a18282612b22565b905060ff81166124bc576124b785858585612b7e565b610db4565b60001960ff8216016124d4576124b785858585612c0e565b60405162461bcd60e51b815260206004820152601c60248201527f4f4654436f72653a20756e6b6e6f776e207061636b65742074797065000000006044820152606401610aac565b600061252a87828481612e1c565b61253385612ef1565b509050806125835760405162461bcd60e51b815260206004820152601d60248201527f4e61746976654f465456323a20616d6f756e7420746f6f20736d616c6c0000006044820152606401610aac565b600061258f8983612f31565b905060006125a0886123b385612a9c565b90506125b0898288888887612f72565b878a6001600160a01b03168a61ffff167fd81fc9b8523134ed613870ed029d6170cbb73aa6a6bc311b9a642689fb9df59a866040516125f191815260200190565b60405180910390a45050979650505050505050565b600080546001600160a01b038381166001600160a01b0319831681178455604051919092169283917f8be0079c531659141344cd1fd0a4f28419497f9722a3daafe3b4186f6b6457e09190a35050565b600061266e896001846001600160401b038916612e1c565b61267787612ef1565b509050806126c75760405162461bcd60e51b815260206004820152601d60248201527f4e61746976654f465456323a20616d6f756e7420746f6f20736d616c6c0000006044820152606401610aac565b60006126d38b83612f31565b905060006126ec338b6126e586612a9c565b8b8b613117565b90506126fc8b8288888887612f72565b898c6001600160a01b03168c61ffff167fd81fc9b8523134ed613870ed029d6170cbb73aa6a6bc311b9a642689fb9df59a8660405161273d91815260200190565b60405180910390a450509998505050505050505050565b60608161276281601f613f70565b10156127a15760405162461bcd60e51b815260206004820152600e60248201526d736c6963655f6f766572666c6f7760901b6044820152606401610aac565b6127ab8284613f70565b845110156127ef5760405162461bcd60e51b8152602060048201526011602482015270736c6963655f6f75744f66426f756e647360781b6044820152606401610aac565b60608215801561280e5760405191506000825260208201604052612858565b6040519150601f8416801560200281840101858101878315602002848b0101015b8183101561284757805183526020928301920161282f565b5050858452601f01601f1916604052505b50949350505050565b600080600061287b338a6128748b612a9c565b8a8a613117565b60405163040a7bb160e41b81529091506001600160a01b037f000000000000000000000000000000000000000000000000000000000000000016906340a7bb10906128d2908d90309086908b908b90600401614389565b6040805180830381865afa1580156128ee573d6000803e3d6000fd5b505050506040513d601f19601f8201168201806040525081019061291291906143dd565b925092505097509795505050505050565b600033306001600160a01b038616148015906129515750806001600160a01b0316856001600160a01b031614155b1561296157612961858285611ff2565b61296c85858561206c565b50909392505050565b6000606060008060008661ffff166001600160401b0381111561299a5761299a6139d1565b6040519080825280601f01601f1916602001820160405280156129c4576020820181803683370190505b50905060008087516020890160008d8df191503d9250868311156129e6578692505b828152826000602083013e909890975095505050505050565b8180519060200120600560008761ffff1661ffff16815260200190815260200160002085604051612a309190614401565b9081526040805191829003602090810183206001600160401b0388166000908152915220919091557fe183f33de2837795525b4792ca4cd60535bd77c53b7e7030060bfcf5734d6b0c90612a8d908790879087908790879061441d565b60405180910390a15050505050565b600080612ac97f000000000000000000000000000000000000000000000000000000000000000084614485565b90506001600160401b03811115610c9a5760405162461bcd60e51b815260206004820152601a60248201527f4f4654436f72653a20616d6f756e745344206f766572666c6f770000000000006044820152606401610aac565b6000612b2f826001613f70565b83511015612b755760405162461bcd60e51b8152602060048201526013602482015272746f55696e74385f6f75744f66426f756e647360681b6044820152606401610aac565b50016001015190565b600080612b8a83613158565b90925090506001600160a01b038216612ba35761dead91505b6000612bae826131dd565b9050612bbb878483613212565b9050826001600160a01b03168761ffff167fbf551ec93859b170f9b2141bd9298bf3f64322c6f7beb2543a0cb669834118bf83604051612bfd91815260200190565b60405180910390a350505050505050565b6000806000806000612c1f866132d9565b945094509450945094506000600660008b61ffff1661ffff16815260200190815260200160002089604051612c549190614401565b90815260408051602092819003830190206001600160401b038b166000908152925281205460ff169150612c87856131dd565b905081612cf557612c998b3083613212565b61ffff8c16600090815260066020526040908190209051919250600191612cc1908d90614401565b90815260408051602092819003830190206001600160401b038d16600090815292529020805460ff19169115159190911790555b6001600160a01b0386163b612d4c576040516001600160a01b03871681527f9aedf5fdba8716db3b6705ca00150643309995d4f818a249ed6dde6677e7792d9060200160405180910390a150505050505050612066565b8a8a8a8a8a8a868a60008a612d6a578b6001600160401b0316612d6c565b5a5b9050600080612d9e5a609663eaffd49a60e01b8e8e8e8d8d8d8d8d604051602401611e22989796959493929190614499565b915091508115612df7578751602089012060405161ffff8d16907fb8890edbfc1c74692f527444645f95489c3703cc2df42e4a366f5d06fa6cd88490612de9908e908e90869061450d565b60405180910390a250612e04565b612e048b8b8b8b856129ff565b50505050505050505050505050505050505050505050565b6000612e2783613390565b61ffff80871660009081526002602090815260408083209389168352929052205490915080612e985760405162461bcd60e51b815260206004820152601a60248201527f4c7a4170703a206d696e4761734c696d6974206e6f74207365740000000000006044820152606401610aac565b612ea28382613f70565b8210156112625760405162461bcd60e51b815260206004820152601b60248201527f4c7a4170703a20676173206c696d697420697320746f6f206c6f7700000000006044820152606401610aac565b600080612f1e7f00000000000000000000000000000000000000000000000000000000000000008461453b565b9050612f2a8184614010565b9150915091565b600081600d6000828254612f459190613f70565b9091555050336001600160a01b03841614612f6957612f6483836133ec565b611560565b61156082613491565b61ffff861660009081526001602052604081208054612f9090613f16565b80601f0160208091040260200160405190810160405280929190818152602001828054612fbc90613f16565b80156130095780601f10612fde57610100808354040283529160200191613009565b820191906000526020600020905b815481529060010190602001808311612fec57829003601f168201915b50505050509050805160000361307a5760405162461bcd60e51b815260206004820152603060248201527f4c7a4170703a2064657374696e6174696f6e20636861696e206973206e6f742060448201526f61207472757374656420736f7572636560801b6064820152608401610aac565b613085878751613511565b60405162c5803160e81b81526001600160a01b037f0000000000000000000000000000000000000000000000000000000000000000169063c58031009084906130dc908b9086908c908c908c908c9060040161454f565b6000604051808303818588803b1580156130f557600080fd5b505af1158015613109573d6000803e3d6000fd5b505050505050505050505050565b6060600185856001600160a01b038916858760405160200161313e969594939291906145b6565b604051602081830303815290604052905095945050505050565b600080806131668482612b22565b60ff16148015613177575082516029145b6131be5760405162461bcd60e51b815260206004820152601860248201527713d19510dbdc994e881a5b9d985b1a59081c185e5b1bd85960421b6044820152606401610aac565b6131c983600d613582565b91506131d68360216135e7565b9050915091565b6000610c9a7f00000000000000000000000000000000000000000000000000000000000000006001600160401b038416614617565b600081600d60008282546132269190614010565b9091555061323690503083612270565b6000836001600160a01b03168360405160006040518083038185875af1925050503d8060008114613283576040519150601f19603f3d011682016040523d82523d6000602084013e613288565b606091505b505090508061296c5760405162461bcd60e51b815260206004820181905260248201527f4e61746976654f465456323a206661696c656420746f205f637265646974546f6044820152606401610aac565b6000808060608160016132ec8783612b22565b60ff16146133375760405162461bcd60e51b815260206004820152601860248201527713d19510dbdc994e881a5b9d985b1a59081c185e5b1bd85960421b6044820152606401610aac565b61334286600d613582565b935061334f8660216135e7565b925061335c866029613644565b94506133698660496135e7565b9050613385605180885161337d9190614010565b889190612754565b915091939590929450565b60006022825110156133e45760405162461bcd60e51b815260206004820152601c60248201527f4c7a4170703a20696e76616c69642061646170746572506172616d73000000006044820152606401610aac565b506022015190565b6001600160a01b0382166000908152600760205260408120548281101561347057826134183483613f70565b10156134365760405162461bcd60e51b8152600401610aac9061462e565b60006134428285614010565b905061344e3382611d39565b61345933308361206c565b81935080346134689190614010565b925050613474565b3491505b61347f843385611ff2565b61348a84308561206c565b5092915050565b33600090815260076020526040812054828110156134fc57826134b43483613f70565b10156134d25760405162461bcd60e51b8152600401610aac9061462e565b60006134de8285614010565b90506134ea3382611d39565b6134f48134614010565b925050613500565b3491505b61350b33308561206c565b50919050565b61ffff82166000908152600360205260408120549081900361353257506127105b8082111561239c5760405162461bcd60e51b815260206004820181905260248201527f4c7a4170703a207061796c6f61642073697a6520697320746f6f206c617267656044820152606401610aac565b600061358f826014613f70565b835110156135d75760405162461bcd60e51b8152602060048201526015602482015274746f416464726573735f6f75744f66426f756e647360581b6044820152606401610aac565b500160200151600160601b900490565b60006135f4826008613f70565b8351101561363b5760405162461bcd60e51b8152602060048201526014602482015273746f55696e7436345f6f75744f66426f756e647360601b6044820152606401610aac565b50016008015190565b6000613651826020613f70565b835110156136995760405162461bcd60e51b8152602060048201526015602482015274746f427974657333325f6f75744f66426f756e647360581b6044820152606401610aac565b50016020015190565b803561ffff811681146136b457600080fd5b919050565b60008083601f8401126136cb57600080fd5b5081356001600160401b038111156136e257600080fd5b6020830191508360208285010111156136fa57600080fd5b9250929050565b80356001600160401b03811681146136b457600080fd5b6000806000806000806080878903121561373157600080fd5b61373a876136a2565b955060208701356001600160401b038082111561375657600080fd5b6137628a838b016136b9565b909750955085915061377660408a01613701565b9450606089013591508082111561378c57600080fd5b5061379989828a016136b9565b979a9699509497509295939492505050565b6000602082840312156137bd57600080fd5b81356001600160e01b03198116811461156057600080fd5b60005b838110156137f05781810151838201526020016137d8565b50506000910152565b600081518084526138118160208601602086016137d5565b601f01601f19169290920160200192915050565b60208152600061156060208301846137f9565b60006020828403121561384a57600080fd5b611560826136a2565b6001600160a01b0381168114610fc257600080fd5b6000806040838503121561387b57600080fd5b823561388681613853565b946020939093013593505050565b600080604083850312156138a757600080fd5b613886836136a2565b6000806000606084860312156138c557600080fd5b83356138d081613853565b925060208401356138e081613853565b929592945050506040919091013590565b60006020828403121561390357600080fd5b5035919050565b803580151581146136b457600080fd5b60008060008060008060a0878903121561393357600080fd5b61393c876136a2565b955060208701359450604087013593506139586060880161390a565b925060808701356001600160401b0381111561397357600080fd5b61379989828a016136b9565b60008060006040848603121561399457600080fd5b61399d846136a2565b925060208401356001600160401b038111156139b857600080fd5b6139c4868287016136b9565b9497909650939450505050565b634e487b7160e01b600052604160045260246000fd5b604051601f8201601f191681016001600160401b0381118282101715613a0f57613a0f6139d1565b604052919050565b60006001600160401b03821115613a3057613a306139d1565b50601f01601f191660200190565b600080600060608486031215613a5357600080fd5b613a5c846136a2565b925060208401356001600160401b03811115613a7757600080fd5b8401601f81018613613a8857600080fd5b8035613a9b613a9682613a17565b6139e7565b818152876020838501011115613ab057600080fd5b81602084016020830137600060208383010152809450505050613ad560408501613701565b90509250925092565b60006060828403121561350b57600080fd5b600080600080600060a08688031215613b0857600080fd5b8535613b1381613853565b9450613b21602087016136a2565b9350604086013592506060860135915060808601356001600160401b03811115613b4a57600080fd5b613b5688828901613ade565b9150509295509295909350565b600060208284031215613b7557600080fd5b813561156081613853565b60008060008060008060008060e0898b031215613b9c57600080fd5b8835613ba781613853565b9750613bb560208a016136a2565b9650604089013595506060890135945060808901356001600160401b0380821115613bdf57600080fd5b613beb8c838d016136b9565b9096509450849150613bff60a08c01613701565b935060c08b0135915080821115613c1557600080fd5b50613c228b828c01613ade565b9150509295985092959890939650565b60008060408385031215613c4557600080fd5b613c4e836136a2565b9150613c5c602084016136a2565b90509250929050565b600080600080600080600080600060e08a8c031215613c8357600080fd5b613c8c8a6136a2565b985060208a0135975060408a0135965060608a01356001600160401b0380821115613cb657600080fd5b613cc28d838e016136b9565b9098509650869150613cd660808d01613701565b9550613ce460a08d0161390a565b945060c08c0135915080821115613cfa57600080fd5b50613d078c828d016136b9565b915080935050809150509295985092959850929598565b600080600080600060808688031215613d3657600080fd5b613d3f866136a2565b9450613d4d602087016136a2565b93506040860135925060608601356001600160401b03811115613d6f57600080fd5b613d7b888289016136b9565b969995985093965092949392505050565b60008060408385031215613d9f57600080fd5b8235613daa81613853565b91506020830135613dba81613853565b809150509250929050565b600080600060608486031215613dda57600080fd5b613de3846136a2565b9250613df1602085016136a2565b9150604084013590509250925092565b6000806000806000806000806000806101008b8d031215613e2157600080fd5b613e2a8b6136a2565b995060208b01356001600160401b0380821115613e4657600080fd5b613e528e838f016136b9565b909b509950899150613e6660408e01613701565b985060608d0135975060808d01359150613e7f82613853565b90955060a08c0135945060c08c01359080821115613e9c57600080fd5b50613ea98d828e016136b9565b9150809450508092505060e08b013590509295989b9194979a5092959850565b60008060008060808587031215613edf57600080fd5b613ee8856136a2565b9350613ef6602086016136a2565b92506040850135613f0681613853565b9396929550929360600135925050565b600181811c90821680613f2a57607f821691505b60208210810361350b57634e487b7160e01b600052602260045260246000fd5b8183823760009101908152919050565b634e487b7160e01b600052601160045260246000fd5b80820180821115610c9a57610c9a613f5a565b81835281816020850137506000828201602090810191909152601f909101601f19169091010190565b61ffff84168152604060208201526000611d30604083018486613f83565b6000808335601e19843603018112613fe157600080fd5b8301803591506001600160401b03821115613ffb57600080fd5b6020019150368190038213156136fa57600080fd5b81810381811115610c9a57610c9a613f5a565b8284823760609190911b6bffffffffffffffffffffffff19169101908152601401919050565b601f82111561239c576000816000526020600020601f850160051c810160208610156140725750805b601f850160051c820191505b818110156112625782815560010161407e565b81516001600160401b038111156140aa576140aa6139d1565b6140be816140b88454613f16565b84614049565b602080601f8311600181146140f357600084156140db5750858301515b600019600386901b1c1916600185901b178555611262565b600085815260208120601f198616915b8281101561412257888601518255948401946001909101908401614103565b50858210156141405787850151600019600388901b60f8161c191681555b5050505050600190811b01905550565b600061ffff80881683528087166020840152508460408301526080606083015261417e608083018486613f83565b979650505050505050565b61ffff861681526080602082015260006141a7608083018688613f83565b6001600160401b0394909416604083015250606001529392505050565b61ffff8916815260c0602082015260006141e260c08301898b613f83565b6001600160401b038816604084015286606084015285608084015282810360a0840152614210818587613f83565b9b9a5050505050505050505050565b6001600160401b03831115614236576142366139d1565b61424a836142448354613f16565b83614049565b6000601f84116001811461427e57600085156142665750838201355b600019600387901b1c1916600186901b178355610db4565b600083815260209020601f19861690835b828110156142af578685013582556020948501946001909201910161428f565b50868210156142cc5760001960f88860031b161c19848701351681555b505060018560011b0183555050505050565b6000602082840312156142f057600080fd5b81516001600160401b0381111561430657600080fd5b8201601f8101841361431757600080fd5b8051614325613a9682613a17565b81815285602083850101111561433a57600080fd5b611d308260208301602086016137d5565b61ffff8516815260806020820152600061436860808301866137f9565b6001600160401b0385166040840152828103606084015261417e81856137f9565b61ffff861681526001600160a01b038516602082015260a0604082018190526000906143b7908301866137f9565b841515606084015282810360808401526143d181856137f9565b98975050505050505050565b600080604083850312156143f057600080fd5b505080516020909101519092909150565b600082516144138184602087016137d5565b9190910192915050565b61ffff8616815260a06020820152600061443a60a08301876137f9565b6001600160401b0386166040840152828103606084015261445b81866137f9565b905082810360808401526143d181856137f9565b634e487b7160e01b600052601260045260246000fd5b6000826144945761449461446f565b500490565b600061010061ffff8b1683528060208401526144b78184018b6137f9565b6001600160401b038a166040850152606084018990526001600160a01b038816608085015260a0840187905283810360c085015290506144f781866137f9565b9150508260e08301529998505050505050505050565b60608152600061452060608301866137f9565b6001600160401b039490941660208301525060400152919050565b60008261454a5761454a61446f565b500690565b61ffff8716815260c06020820152600061456c60c08301886137f9565b828103604084015261457e81886137f9565b6001600160a01b0387811660608601528616608085015283810360a085015290506145a981856137f9565b9998505050505050505050565b60ff60f81b8760f81b16815285600182015260006001600160401b0360c01b808760c01b166021840152856029840152808560c01b1660498401525082516146058160518501602087016137d5565b91909101605101979650505050505050565b8082028115828204841417610c9a57610c9a613f5a565b60208082526023908201527f4e61746976654f465456323a20496e73756666696369656e74206d73672e76616040820152626c756560e81b60608201526080019056fea2646970667358221220c1c6dc564b3069bf54e38cecf3d951ce2a56374a79aee8bdb970d1849f6e648e64736f6c63430008160033",
    "linkReferences": {}
  },
  "methodIdentifiers": {
    "DEFAULT_PAYLOAD_SIZE_LIMIT()": "c4461834",
    "NO_EXTRA_GAS()": "44770515",
    "PT_SEND()": "4c42899a",
    "PT_SEND_AND_CALL()": "e6a20ae6",
    "allowance(address,address)": "dd62ed3e",
    "approve(address,uint256)": "095ea7b3",
    "balanceOf(address)": "70a08231",
    "callOnOFTReceived(uint16,bytes,uint64,bytes32,address,uint256,bytes,uint256)": "eaffd49a",
    "circulatingSupply()": "9358928b",
    "creditedPackets(uint16,bytes,uint64)": "9bdb9812",
    "decimals()": "313ce567",
    "decreaseAllowance(address,uint256)": "a457c2d7",
    "deposit()": "d0e30db0",
    "estimateSendAndCallFee(uint16,bytes32,uint256,bytes,uint64,bool,bytes)": "a4c51df5",
    "estimateSendFee(uint16,bytes32,uint256,bool,bytes)": "365260b4",
    "failedMessages(uint16,bytes,uint64)": "5b8c41e6",
    "forceResumeReceive(uint16,bytes)": "42d65a8d",
    "getConfig(uint16,uint16,address,uint256)": "f5ecbdbc",
    "getTrustedRemoteAddress(uint16)": "9f38369a",
    "increaseAllowance(address,uint256)": "39509351",
    "isTrustedRemote(uint16,bytes)": "3d8b38f6",
    "lzEndpoint()": "b353aaa7",
    "lzReceive(uint16,bytes,uint64,bytes)": "001d3567",
    "minDstGasLookup(uint16,uint16)": "8cfd8f5c",
    "name()": "06fdde03",
    "nonblockingLzReceive(uint16,bytes,uint64,bytes)": "66ad5c8a",
    "outboundAmount()": "9689cb05",
    "owner()": "8da5cb5b",
    "payloadSizeLimitLookup(uint16)": "3f1f4fa4",
    "precrime()": "950c8a74",
    "renounceOwnership()": "715018a6",
    "retryMessage(uint16,bytes,uint64,bytes)": "d1deba1f",
    "sendAndCall(address,uint16,bytes32,uint256,bytes,uint64,(address,address,bytes))": "76203b48",
    "sendFrom(address,uint16,bytes32,uint256,(address,address,bytes))": "695ef6bf",
    "setConfig(uint16,uint16,uint256,bytes)": "cbed8b9c",
    "setMinDstGas(uint16,uint16,uint256)": "df2a5b3b",
    "setPayloadSizeLimit(uint16,uint256)": "0df37483",
    "setPrecrime(address)": "baf3292d",
    "setReceiveVersion(uint16)": "10ddb137",
    "setSendVersion(uint16)": "07e0db17",
    "setTrustedRemote(uint16,bytes)": "eb8d72b7",
    "setTrustedRemoteAddress(uint16,bytes)": "a6c3d165",
    "sharedDecimals()": "857749b0",
    "supportsInterface(bytes4)": "01ffc9a7",
    "symbol()": "95d89b41",
    "token()": "fc0c546a",
    "totalSupply()": "18160ddd",
    "transfer(address,uint256)": "a9059cbb",
    "transferFrom(address,address,uint256)": "23b872dd",
    "transferOwnership(address)": "f2fde38b",
    "trustedRemoteLookup(uint16)": "7533d788",
    "withdraw(uint256)": "2e1a7d4d"
  },
  "id": 21
}