{
  "abi": [
    {
      "inputs": [
        {
          "internalType": "address",
          "name": "_lzEndpoint",
          "type": "address"
        },
        {
          "internalType": "address",
          "name": "_token",
          "type": "address"
        }
      ],
      "stateMutability": "nonpayable",
      "type": "constructor"
    },
    {
      "anonymous": false,
      "inputs": [
        {
          "indexed": false,
          "internalType": "uint16",
          "name": "_srcChainId",
          "type": "uint16"
        },
        {
          "indexed": false,
          "internalType": "bytes",
          "name": "_srcAddress",
          "type": "bytes"
        },
        {
          "indexed": false,
          "internalType": "uint64",
          "name": "_nonce",
          "type": "uint64"
        },
        {
          "indexed": false,
          "internalType": "bytes",
          "name": "_payload",
          "type": "bytes"
        },
        {
          "indexed": false,
          "internalType": "bytes",
          "name": "_reason",
          "type": "bytes"
        }
      ],
      "name": "MessageFailed",
      "type": "event"
    },
    {
      "anonymous": false,
      "inputs": [
        {
          "indexed": true,
          "internalType": "address",
          "name": "previousOwner",
          "type": "address"
        },
        {
          "indexed": true,
          "internalType": "address",
          "name": "newOwner",
          "type": "address"
        }
      ],
      "name": "OwnershipTransferred",
      "type": "event"
    },
    {
      "anonymous": false,
      "inputs": [
        {
          "indexed": true,
          "internalType": "uint16",
          "name": "_srcChainId",
          "type": "uint16"
        },
        {
          "indexed": true,
          "internalType": "address",
          "name": "_to",
          "type": "address"
        },
        {
          "indexed": false,
          "internalType": "uint256",
          "name": "_amount",
          "type": "uint256"
        }
      ],
      "name": "ReceiveFromChain",
      "type": "event"
    },
    {
      "anonymous": false,
      "inputs": [
        {
          "indexed": false,
          "internalType": "uint16",
          "name": "_srcChainId",
          "type": "uint16"
        },
        {
          "indexed": false,
          "internalType": "bytes",
          "name": "_srcAddress",
          "type": "bytes"
        },
        {
          "indexed": false,
          "internalType": "uint64",
          "name": "_nonce",
          "type": "uint64"
        },
        {
          "indexed": false,
          "internalType": "bytes32",
          "name": "_payloadHash",
          "type": "bytes32"
        }
      ],
      "name": "RetryMessageSuccess",
      "type": "event"
    },
    {
      "anonymous": false,
      "inputs": [
        {
          "indexed": true,
          "internalType": "uint16",
          "name": "_dstChainId",
          "type": "uint16"
        },
        {
          "indexed": true,
          "internalType": "address",
          "name": "_from",
          "type": "address"
        },
        {
          "indexed": false,
          "internalType": "bytes",
          "name": "_toAddress",
          "type": "bytes"
        },
        {
          "indexed": false,
          "internalType": "uint256",
          "name": "_amount",
          "type": "uint256"
        }
      ],
      "name": "SendToChain",
      "type": "event"
    },
    {
      "anonymous": false,
      "inputs": [
        {
          "indexed": false,
          "internalType": "uint16",
          "name": "_dstChainId",
          "type": "uint16"
        },
        {
          "indexed": false,
          "internalType": "uint16",
          "name": "_type",
          "type": "uint16"
        },
        {
          "indexed": false,
          "internalType": "uint256",
          "name": "_minDstGas",
          "type": "uint256"
        }
      ],
      "name": "SetMinDstGas",
      "type": "event"
    },
    {
      "anonymous": false,
      "inputs": [
        {
          "indexed": false,
          "internalType": "address",
          "name": "precrime",
          "type": "address"
        }
      ],
      "name": "SetPrecrime",
      "type": "event"
    },
    {
      "anonymous": false,
      "inputs": [
        {
          "indexed": false,
          "internalType": "uint16",
          "name": "_remoteChainId",
          "type": "uint16"
        },
        {
          "indexed": false,
          "internalType": "bytes",
          "name": "_path",
          "type": "bytes"
        }
      ],
      "name": "SetTrustedRemote",
      "type": "event"
    },
    {
      "anonymous": false,
      "inputs": [
        {
          "indexed": false,
          "internalType": "uint16",
          "name": "_remoteChainId",
          "type": "uint16"
        },
        {
          "indexed": false,
          "internalType": "bytes",
          "name": "_remoteAddress",
          "type": "bytes"
        }
      ],
      "name": "SetTrustedRemoteAddress",
      "type": "event"
    },
    {
      "anonymous": false,
      "inputs": [
        {
          "indexed": false,
          "internalType": "bool",
          "name": "_useCustomAdapterParams",
          "type": "bool"
        }
      ],
      "name": "SetUseCustomAdapterParams",
      "type": "event"
    },
    {
      "inputs": [],
      "name": "DEFAULT_PAYLOAD_SIZE_LIMIT",
      "outputs": [
        {
          "internalType": "uint256",
          "name": "",
          "type": "uint256"
        }
      ],
      "stateMutability": "view",
      "type": "function"
    },
    {
      "inputs": [],
      "name": "NO_EXTRA_GAS",
      "outputs": [
        {
          "internalType": "uint256",
          "name": "",
          "type": "uint256"
        }
      ],
      "stateMutability": "view",
      "type": "function"
    },
    {
      "inputs": [],
      "name": "PT_SEND",
      "outputs": [
        {
          "internalType": "uint16",
          "name": "",
          "type": "uint16"
        }
      ],
      "stateMutability": "view",
      "type": "function"
    },
    {
      "inputs": [],
      "name": "circulatingSupply",
      "outputs": [
        {
          "internalType": "uint256",
          "name": "",
          "type": "uint256"
        }
      ],
      "stateMutability": "view",
      "type": "function"
    },
    {
      "inputs": [
        {
          "internalType": "uint16",
          "name": "_dstChainId",
          "type": "uint16"
        },
        {
          "internalType": "bytes",
          "name": "_toAddress",
          "type": "bytes"
        },
        {
          "internalType": "uint256",
          "name": "_amount",
          "type": "uint256"
        },
        {
          "internalType": "bool",
          "name": "_useZro",
          "type": "bool"
        },
        {
          "internalType": "bytes",
          "name": "_adapterParams",
          "type": "bytes"
        }
      ],
      "name": "estimateSendFee",
      "outputs": [
        {
          "internalType": "uint256",
          "name": "nativeFee",
          "type": "uint256"
        },
        {
          "internalType": "uint256",
          "name": "zroFee",
          "type": "uint256"
        }
      ],
      "stateMutability": "view",
      "type": "function"
    },
    {
      "inputs": [
        {
          "internalType": "uint16",
          "name": "",
          "type": "uint16"
        },
        {
          "internalType": "bytes",
          "name": "",
          "type": "bytes"
        },
        {
          "internalType": "uint64",
          "name": "",
          "type": "uint64"
        }
      ],
      "name": "failedMessages",
      "outputs": [
        {
          "internalType": "bytes32",
          "name": "",
          "type": "bytes32"
        }
      ],
      "stateMutability": "view",
      "type": "function"
    },
    {
      "inputs": [
        {
          "internalType": "uint16",
          "name": "_srcChainId",
          "type": "uint16"
        },
        {
          "internalType": "bytes",
          "name": "_srcAddress",
          "type": "bytes"
        }
      ],
      "name": "forceResumeReceive",
      "outputs": [],
      "stateMutability": "nonpayable",
      "type": "function"
    },
    {
      "inputs": [
        {
          "internalType": "uint16",
          "name": "_version",
          "type": "uint16"
        },
        {
          "internalType": "uint16",
          "name": "_chainId",
          "type": "uint16"
        },
        {
          "internalType": "address",
          "name": "",
          "type": "address"
        },
        {
          "internalType": "uint256",
          "name": "_configType",
          "type": "uint256"
        }
      ],
      "name": "getConfig",
      "outputs": [
        {
          "internalType": "bytes",
          "name": "",
          "type": "bytes"
        }
      ],
      "stateMutability": "view",
      "type": "function"
    },
    {
      "inputs": [
        {
          "internalType": "uint16",
          "name": "_remoteChainId",
          "type": "uint16"
        }
      ],
      "name": "getTrustedRemoteAddress",
      "outputs": [
        {
          "internalType": "bytes",
          "name": "",
          "type": "bytes"
        }
      ],
      "stateMutability": "view",
      "type": "function"
    },
    {
      "inputs": [
        {
          "internalType": "uint16",
          "name": "_srcChainId",
          "type": "uint16"
        },
        {
          "internalType": "bytes",
          "name": "_srcAddress",
          "type": "bytes"
        }
      ],
      "name": "isTrustedRemote",
      "outputs": [
        {
          "internalType": "bool",
          "name": "",
          "type": "bool"
        }
      ],
      "stateMutability": "view",
      "type": "function"
    },
    {
      "inputs": [],
      "name": "lzEndpoint",
      "outputs": [
        {
          "internalType": "contract ILayerZeroEndpoint",
          "name": "",
          "type": "address"
        }
      ],
      "stateMutability": "view",
      "type": "function"
    },
    {
      "inputs": [
        {
          "internalType": "uint16",
          "name": "_srcChainId",
          "type": "uint16"
        },
        {
          "internalType": "bytes",
          "name": "_srcAddress",
          "type": "bytes"
        },
        {
          "internalType": "uint64",
          "name": "_nonce",
          "type": "uint64"
        },
        {
          "internalType": "bytes",
          "name": "_payload",
          "type": "bytes"
        }
      ],
      "name": "lzReceive",
      "outputs": [],
      "stateMutability": "nonpayable",
      "type": "function"
    },
    {
      "inputs": [
        {
          "internalType": "uint16",
          "name": "",
          "type": "uint16"
        },
        {
          "internalType": "uint16",
          "name": "",
          "type": "uint16"
        }
      ],
      "name": "minDstGasLookup",
      "outputs": [
        {
          "internalType": "uint256",
          "name": "",
          "type": "uint256"
        }
      ],
      "stateMutability": "view",
      "type": "function"
    },
    {
      "inputs": [
        {
          "internalType": "uint16",
          "name": "_srcChainId",
          "type": "uint16"
        },
        {
          "internalType": "bytes",
          "name": "_srcAddress",
          "type": "bytes"
        },
        {
          "internalType": "uint64",
          "name": "_nonce",
          "type": "uint64"
        },
        {
          "internalType": "bytes",
          "name": "_payload",
          "type": "bytes"
        }
      ],
      "name": "nonblockingLzReceive",
      "outputs": [],
      "stateMutability": "nonpayable",
      "type": "function"
    },
    {
      "inputs": [],
      "name": "owner",
      "outputs": [
        {
          "internalType": "address",
          "name": "",
          "type": "address"
        }
      ],
      "stateMutability": "view",
      "type": "function"
    },
    {
      "inputs": [
        {
          "internalType": "uint16",
          "name": "",
          "type": "uint16"
        }
      ],
      "name": "payloadSizeLimitLookup",
      "outputs": [
        {
          "internalType": "uint256",
          "name": "",
          "type": "uint256"
        }
      ],
      "stateMutability": "view",
      "type": "function"
    },
    {
      "inputs": [],
      "name": "precrime",
      "outputs": [
        {
          "internalType": "address",
          "name": "",
          "type": "address"
        }
      ],
      "stateMutability": "view",
      "type": "function"
    },
    {
      "inputs": [],
      "name": "renounceOwnership",
      "outputs": [],
      "stateMutability": "nonpayable",
      "type": "function"
    },
    {
      "inputs": [
        {
          "internalType": "uint16",
          "name": "_srcChainId",
          "type": "uint16"
        },
        {
          "internalType": "bytes",
          "name": "_srcAddress",
          "type": "bytes"
        },
        {
          "internalType": "uint64",
          "name": "_nonce",
          "type": "uint64"
        },
        {
          "internalType": "bytes",
          "name": "_payload",
          "type": "bytes"
        }
      ],
      "name": "retryMessage",
      "outputs": [],
      "stateMutability": "payable",
      "type": "function"
    },
    {
      "inputs": [
        {
          "internalType": "address",
          "name": "_from",
          "type": "address"
        },
        {
          "internalType": "uint16",
          "name": "_dstChainId",
          "type": "uint16"
        },
        {
          "internalType": "bytes",
          "name": "_toAddress",
          "type": "bytes"
        },
        {
          "internalType": "uint256",
          "name": "_amount",
          "type": "uint256"
        },
        {
          "internalType": "address payable",
          "name": "_refundAddress",
          "type": "address"
        },
        {
          "internalType": "address",
          "name": "_zroPaymentAddress",
          "type": "address"
        },
        {
          "internalType": "bytes",
          "name": "_adapterParams",
          "type": "bytes"
        }
      ],
      "name": "sendFrom",
      "outputs": [],
      "stateMutability": "payable",
      "type": "function"
    },
    {
      "inputs": [
        {
          "internalType": "uint16",
          "name": "_version",
          "type": "uint16"
        },
        {
          "internalType": "uint16",
          "name": "_chainId",
          "type": "uint16"
        },
        {
          "internalType": "uint256",
          "name": "_configType",
          "type": "uint256"
        },
        {
          "internalType": "bytes",
          "name": "_config",
          "type": "bytes"
        }
      ],
      "name": "setConfig",
      "outputs": [],
      "stateMutability": "nonpayable",
      "type": "function"
    },
    {
      "inputs": [
        {
          "internalType": "uint16",
          "name": "_dstChainId",
          "type": "uint16"
        },
        {
          "internalType": "uint16",
          "name": "_packetType",
          "type": "uint16"
        },
        {
          "internalType": "uint256",
          "name": "_minGas",
          "type": "uint256"
        }
      ],
      "name": "setMinDstGas",
      "outputs": [],
      "stateMutability": "nonpayable",
      "type": "function"
    },
    {
      "inputs": [
        {
          "internalType": "uint16",
          "name": "_dstChainId",
          "type": "uint16"
        },
        {
          "internalType": "uint256",
          "name": "_size",
          "type": "uint256"
        }
      ],
      "name": "setPayloadSizeLimit",
      "outputs": [],
      "stateMutability": "nonpayable",
      "type": "function"
    },
    {
      "inputs": [
        {
          "internalType": "address",
          "name": "_precrime",
          "type": "address"
        }
      ],
      "name": "setPrecrime",
      "outputs": [],
      "stateMutability": "nonpayable",
      "type": "function"
    },
    {
      "inputs": [
        {
          "internalType": "uint16",
          "name": "_version",
          "type": "uint16"
        }
      ],
      "name": "setReceiveVersion",
      "outputs": [],
      "stateMutability": "nonpayable",
      "type": "function"
    },
    {
      "inputs": [
        {
          "internalType": "uint16",
          "name": "_version",
          "type": "uint16"
        }
      ],
      "name": "setSendVersion",
      "outputs": [],
      "stateMutability": "nonpayable",
      "type": "function"
    },
    {
      "inputs": [
        {
          "internalType": "uint16",
          "name": "_remoteChainId",
          "type": "uint16"
        },
        {
          "internalType": "bytes",
          "name": "_path",
          "type": "bytes"
        }
      ],
      "name": "setTrustedRemote",
      "outputs": [],
      "stateMutability": "nonpayable",
      "type": "function"
    },
    {
      "inputs": [
        {
          "internalType": "uint16",
          "name": "_remoteChainId",
          "type": "uint16"
        },
        {
          "internalType": "bytes",
          "name": "_remoteAddress",
          "type": "bytes"
        }
      ],
      "name": "setTrustedRemoteAddress",
      "outputs": [],
      "stateMutability": "nonpayable",
      "type": "function"
    },
    {
      "inputs": [
        {
          "internalType": "bool",
          "name": "_useCustomAdapterParams",
          "type": "bool"
        }
      ],
      "name": "setUseCustomAdapterParams",
      "outputs": [],
      "stateMutability": "nonpayable",
      "type": "function"
    },
    {
      "inputs": [
        {
          "internalType": "bytes4",
          "name": "interfaceId",
          "type": "bytes4"
        }
      ],
      "name": "supportsInterface",
      "outputs": [
        {
          "internalType": "bool",
          "name": "",
          "type": "bool"
        }
      ],
      "stateMutability": "view",
      "type": "function"
    },
    {
      "inputs": [],
      "name": "token",
      "outputs": [
        {
          "internalType": "address",
          "name": "",
          "type": "address"
        }
      ],
      "stateMutability": "view",
      "type": "function"
    },
    {
      "inputs": [
        {
          "internalType": "address",
          "name": "newOwner",
          "type": "address"
        }
      ],
      "name": "transferOwnership",
      "outputs": [],
      "stateMutability": "nonpayable",
      "type": "function"
    },
    {
      "inputs": [
        {
          "internalType": "uint16",
          "name": "",
          "type": "uint16"
        }
      ],
      "name": "trustedRemoteLookup",
      "outputs": [
        {
          "internalType": "bytes",
          "name": "",
          "type": "bytes"
        }
      ],
      "stateMutability": "view",
      "type": "function"
    },
    {
      "inputs": [],
      "name": "useCustomAdapterParams",
      "outputs": [
        {
          "internalType": "bool",
          "name": "",
          "type": "bool"
        }
      ],
      "stateMutability": "view",
      "type": "function"
    }
  ],
  "bytecode": {
    "object": "0x60c06040523480156200001157600080fd5b506040516200337b3803806200337b8339810160408190526200003491620000ce565b818080620000423362000061565b6001600160a01b039081166080529290921660a0525062000106915050565b600080546001600160a01b038381166001600160a01b0319831681178455604051919092169283917f8be0079c531659141344cd1fd0a4f28419497f9722a3daafe3b4186f6b6457e09190a35050565b80516001600160a01b0381168114620000c957600080fd5b919050565b60008060408385031215620000e257600080fd5b620000ed83620000b1565b9150620000fd60208401620000b1565b90509250929050565b60805160a0516131df6200019c600039600081816106aa01528181610e8201528181610ef701528181611bb401528181611c3601528181611c750152818161216a015281816121e4015261222c015260008181610556015281816106d101528181610957015281816109ff01528181610a7901528181610bf401528181611198015281816115d00152611e2501526131df6000f3fe6080604052600436106101f85760003560e01c80638da5cb5b1161010d578063cbed8b9c116100a0578063eb8d72b71161006f578063eb8d72b714610621578063ed629c5c14610641578063f2fde38b1461065b578063f5ecbdbc1461067b578063fc0c546a1461069b57600080fd5b8063cbed8b9c146105ae578063d1deba1f146105ce578063df2a5b3b146105e1578063eab45d9c1461060157600080fd5b8063a6c3d165116100dc578063a6c3d16514610524578063b353aaa714610544578063baf3292d14610578578063c44618341461059857600080fd5b80638da5cb5b1461049d5780639358928b146104cf578063950c8a74146104e45780639f38369a1461050457600080fd5b806342d65a8d116101905780635b8c41e61161015f5780635b8c41e6146103b457806366ad5c8a14610403578063715018a6146104235780637533d788146104385780638cfd8f5c1461046557600080fd5b806342d65a8d1461034457806344770515146103645780634c42899a1461037957806351905636146103a157600080fd5b806310ddb137116101cc57806310ddb137146102945780632a205e3d146102b45780633d8b38f6146102e95780633f1f4fa41461030957600080fd5b80621d3567146101fd57806301ffc9a71461021f57806307e0db17146102545780630df3748314610274575b600080fd5b34801561020957600080fd5b5061021d6102183660046125a4565b6106ce565b005b34801561022b57600080fd5b5061023f61023a366004612639565b6108ff565b60405190151581526020015b60405180910390f35b34801561026057600080fd5b5061021d61026f366004612663565b610936565b34801561028057600080fd5b5061021d61028f366004612680565b6109bf565b3480156102a057600080fd5b5061021d6102af366004612663565b6109de565b3480156102c057600080fd5b506102d46102cf3660046126ba565b610a36565b6040805192835260208301919091520161024b565b3480156102f557600080fd5b5061023f61030436600461275a565b610b09565b34801561031557600080fd5b50610336610324366004612663565b60036020526000908152604090205481565b60405190815260200161024b565b34801561035057600080fd5b5061021d61035f36600461275a565b610bd5565b34801561037057600080fd5b50610336600081565b34801561038557600080fd5b5061038e600081565b60405161ffff909116815260200161024b565b61021d6103af3660046127c3565b610c5b565b3480156103c057600080fd5b506103366103cf3660046128f9565b6005602090815260009384526040808520845180860184018051928152908401958401959095209452929052825290205481565b34801561040f57600080fd5b5061021d61041e3660046125a4565b610ce0565b34801561042f57600080fd5b5061021d610dbc565b34801561044457600080fd5b50610458610453366004612663565b610dd0565b60405161024b91906129eb565b34801561047157600080fd5b506103366104803660046129fe565b600260209081526000928352604080842090915290825290205481565b3480156104a957600080fd5b506000546001600160a01b03165b6040516001600160a01b03909116815260200161024b565b3480156104db57600080fd5b50610336610e6a565b3480156104f057600080fd5b506004546104b7906001600160a01b031681565b34801561051057600080fd5b5061045861051f366004612663565b610f7d565b34801561053057600080fd5b5061021d61053f36600461275a565b611093565b34801561055057600080fd5b506104b77f000000000000000000000000000000000000000000000000000000000000000081565b34801561058457600080fd5b5061021d610593366004612a37565b61111c565b3480156105a457600080fd5b5061033661271081565b3480156105ba57600080fd5b5061021d6105c9366004612a54565b611179565b61021d6105dc3660046125a4565b611203565b3480156105ed57600080fd5b5061021d6105fc366004612ac6565b611419565b34801561060d57600080fd5b5061021d61061c366004612b07565b611483565b34801561062d57600080fd5b5061021d61063c36600461275a565b6114cc565b34801561064d57600080fd5b5060065461023f9060ff1681565b34801561066757600080fd5b5061021d610676366004612a37565b611526565b34801561068757600080fd5b50610458610696366004612b24565b61159f565b3480156106a757600080fd5b507f00000000000000000000000000000000000000000000000000000000000000006104b7565b337f00000000000000000000000000000000000000000000000000000000000000006001600160a01b03161461074b5760405162461bcd60e51b815260206004820152601e60248201527f4c7a4170703a20696e76616c696420656e64706f696e742063616c6c6572000060448201526064015b60405180910390fd5b61ffff86166000908152600160205260408120805461076990612b75565b80601f016020809104026020016040519081016040528092919081815260200182805461079590612b75565b80156107e25780601f106107b7576101008083540402835291602001916107e2565b820191906000526020600020905b8154815290600101906020018083116107c557829003601f168201915b505050505090508051868690501480156107fd575060008151115b801561082557508051602082012060405161081b9088908890612baf565b6040518091039020145b6108805760405162461bcd60e51b815260206004820152602660248201527f4c7a4170703a20696e76616c696420736f757263652073656e64696e6720636f6044820152651b9d1c9858dd60d21b6064820152608401610742565b6108f68787878080601f01602080910402602001604051908101604052809392919081815260200183838082843760009201919091525050604080516020601f8a018190048102820181019092528881528a93509150889088908190840183828082843760009201919091525061165292505050565b50505050505050565b60006001600160e01b03198216630a72677560e11b148061093057506301ffc9a760e01b6001600160e01b03198316145b92915050565b61093e6116cb565b6040516307e0db1760e01b815261ffff821660048201527f00000000000000000000000000000000000000000000000000000000000000006001600160a01b0316906307e0db17906024015b600060405180830381600087803b1580156109a457600080fd5b505af11580156109b8573d6000803e3d6000fd5b5050505050565b6109c76116cb565b61ffff909116600090815260036020526040902055565b6109e66116cb565b6040516310ddb13760e01b815261ffff821660048201527f00000000000000000000000000000000000000000000000000000000000000006001600160a01b0316906310ddb1379060240161098a565b600080600080898989604051602001610a529493929190612be8565b60408051601f198184030181529082905263040a7bb160e41b825291506001600160a01b037f000000000000000000000000000000000000000000000000000000000000000016906340a7bb1090610ab8908d90309086908c908c908c90600401612c17565b6040805180830381865afa158015610ad4573d6000803e3d6000fd5b505050506040513d601f19601f82011682018060405250810190610af89190612c6d565b925092505097509795505050505050565b61ffff831660009081526001602052604081208054829190610b2a90612b75565b80601f0160208091040260200160405190810160405280929190818152602001828054610b5690612b75565b8015610ba35780601f10610b7857610100808354040283529160200191610ba3565b820191906000526020600020905b815481529060010190602001808311610b8657829003601f168201915b505050505090508383604051610bba929190612baf565b60405180910390208180519060200120149150509392505050565b610bdd6116cb565b6040516342d65a8d60e01b81526001600160a01b037f000000000000000000000000000000000000000000000000000000000000000016906342d65a8d90610c2d90869086908690600401612c91565b600060405180830381600087803b158015610c4757600080fd5b505af11580156108f6573d6000803e3d6000fd5b610cd5898989898080601f01602080910402602001604051908101604052809392919081815260200183838082843760009201919091525050604080516020601f8a018190048102820181019092528881528c93508b92508a918a908a908190840183828082843760009201919091525061172592505050565b505050505050505050565b333014610d3e5760405162461bcd60e51b815260206004820152602660248201527f4e6f6e626c6f636b696e674c7a4170703a2063616c6c6572206d7573742062656044820152650204c7a4170760d41b6064820152608401610742565b610db48686868080601f01602080910402602001604051908101604052809392919081815260200183838082843760009201919091525050604080516020601f8901819004810282018101909252878152899350915087908790819084018382808284376000920191909152506117cc92505050565b505050505050565b610dc46116cb565b610dce6000611833565b565b60016020526000908152604090208054610de990612b75565b80601f0160208091040260200160405190810160405280929190818152602001828054610e1590612b75565b8015610e625780601f10610e3757610100808354040283529160200191610e62565b820191906000526020600020905b815481529060010190602001808311610e4557829003601f168201915b505050505081565b6040516370a0823160e01b81523060048201526000907f00000000000000000000000000000000000000000000000000000000000000006001600160a01b0316906370a0823190602401602060405180830381865afa158015610ed1573d6000803e3d6000fd5b505050506040513d601f19601f82011682018060405250810190610ef59190612caf565b7f00000000000000000000000000000000000000000000000000000000000000006001600160a01b03166318160ddd6040518163ffffffff1660e01b8152600401602060405180830381865afa158015610f53573d6000803e3d6000fd5b505050506040513d601f19601f82011682018060405250810190610f779190612caf565b03905090565b61ffff8116600090815260016020526040812080546060929190610fa090612b75565b80601f0160208091040260200160405190810160405280929190818152602001828054610fcc90612b75565b80156110195780601f10610fee57610100808354040283529160200191611019565b820191906000526020600020905b815481529060010190602001808311610ffc57829003601f168201915b5050505050905080516000036110715760405162461bcd60e51b815260206004820152601d60248201527f4c7a4170703a206e6f20747275737465642070617468207265636f72640000006044820152606401610742565b61108c6000601483516110849190612cde565b839190611883565b9392505050565b61109b6116cb565b8181306040516020016110b093929190612cf1565b60408051601f1981840301815291815261ffff85166000908152600160205220906110db9082612d5f565b507f8c0400cfe2d1199b1a725c78960bcc2a344d869b80590d0f2bd005db15a572ce83838360405161110f93929190612c91565b60405180910390a1505050565b6111246116cb565b600480546001600160a01b0319166001600160a01b0383169081179091556040519081527f5db758e995a17ec1ad84bdef7e8c3293a0bd6179bcce400dff5d4c3d87db726b906020015b60405180910390a150565b6111816116cb565b6040516332fb62e760e21b81526001600160a01b037f0000000000000000000000000000000000000000000000000000000000000000169063cbed8b9c906111d59088908890889088908890600401612e1e565b600060405180830381600087803b1580156111ef57600080fd5b505af1158015610cd5573d6000803e3d6000fd5b61ffff861660009081526005602052604080822090516112269088908890612baf565b90815260408051602092819003830190206001600160401b038716600090815292529020549050806112a65760405162461bcd60e51b815260206004820152602360248201527f4e6f6e626c6f636b696e674c7a4170703a206e6f2073746f726564206d65737360448201526261676560e81b6064820152608401610742565b8083836040516112b7929190612baf565b6040518091039020146113165760405162461bcd60e51b815260206004820152602160248201527f4e6f6e626c6f636b696e674c7a4170703a20696e76616c6964207061796c6f616044820152601960fa1b6064820152608401610742565b61ffff871660009081526005602052604080822090516113399089908990612baf565b90815260408051602092819003830181206001600160401b038916600090815290845282902093909355601f880182900482028301820190528682526113d1918991899089908190840183828082843760009201919091525050604080516020601f8a018190048102820181019092528881528a9350915088908890819084018382808284376000920191909152506117cc92505050565b7fc264d91f3adc5588250e1551f547752ca0cfa8f6b530d243b9f9f4cab10ea8e58787878785604051611408959493929190612e4c565b60405180910390a150505050505050565b6114216116cb565b61ffff83811660008181526002602090815260408083209487168084529482529182902085905581519283528201929092529081018290527f9d5c7c0b934da8fefa9c7760c98383778a12dfbfc0c3b3106518f43fb9508ac09060600161110f565b61148b6116cb565b6006805460ff19168215159081179091556040519081527f1584ad594a70cbe1e6515592e1272a987d922b097ead875069cebe8b40c004a49060200161116e565b6114d46116cb565b61ffff831660009081526001602052604090206114f2828483612e87565b507ffa41487ad5d6728f0b19276fa1eddc16558578f5109fc39d2dc33c3230470dab83838360405161110f93929190612c91565b61152e6116cb565b6001600160a01b0381166115935760405162461bcd60e51b815260206004820152602660248201527f4f776e61626c653a206e6577206f776e657220697320746865207a65726f206160448201526564647265737360d01b6064820152608401610742565b61159c81611833565b50565b604051633d7b2f6f60e21b815261ffff808616600483015284166024820152306044820152606481018290526060907f00000000000000000000000000000000000000000000000000000000000000006001600160a01b03169063f5ecbdbc90608401600060405180830381865afa15801561161f573d6000803e3d6000fd5b505050506040513d6000823e601f3d908101601f191682016040526116479190810190612f8b565b90505b949350505050565b6000806116b55a60966366ad5c8a60e01b8989898960405160240161167a9493929190612fbf565b60408051601f198184030181529190526020810180516001600160e01b03166001600160e01b03199093169290921790915230929190611990565b9150915081610db457610db48686868685611a1a565b6000546001600160a01b03163314610dce5760405162461bcd60e51b815260206004820181905260248201527f4f776e61626c653a2063616c6c6572206973206e6f7420746865206f776e65726044820152606401610742565b611733866000836000611ab7565b600061174188888888611b37565b9050600080878360405160200161175a93929190612ffd565b6040516020818303038152906040529050611779888287878734611cfc565b886001600160a01b03168861ffff167f39a4c66499bcf4b56d79f0dde8ed7a9d4925a0df55825206b2b8531e202be0d089856040516117b992919061302a565b60405180910390a3505050505050505050565b602081015161ffff81166117eb576117e685858585611ea1565b6109b8565b60405162461bcd60e51b815260206004820152601c60248201527f4f4654436f72653a20756e6b6e6f776e207061636b65742074797065000000006044820152606401610742565b600080546001600160a01b038381166001600160a01b0319831681178455604051919092169283917f8be0079c531659141344cd1fd0a4f28419497f9722a3daafe3b4186f6b6457e09190a35050565b60608161189181601f61304c565b10156118d05760405162461bcd60e51b815260206004820152600e60248201526d736c6963655f6f766572666c6f7760901b6044820152606401610742565b6118da828461304c565b8451101561191e5760405162461bcd60e51b8152602060048201526011602482015270736c6963655f6f75744f66426f756e647360781b6044820152606401610742565b60608215801561193d5760405191506000825260208201604052611987565b6040519150601f8416801560200281840101858101878315602002848b0101015b8183101561197657805183526020928301920161195e565b5050858452601f01601f1916604052505b50949350505050565b6000606060008060008661ffff166001600160401b038111156119b5576119b561288c565b6040519080825280601f01601f1916602001820160405280156119df576020820181803683370190505b50905060008087516020890160008d8df191503d925086831115611a01578692505b828152826000602083013e909890975095505050505050565b8180519060200120600560008761ffff1661ffff16815260200190815260200160002085604051611a4b919061305f565b9081526040805191829003602090810183206001600160401b0388166000908152915220919091557fe183f33de2837795525b4792ca4cd60535bd77c53b7e7030060bfcf5734d6b0c90611aa8908790879087908790879061307b565b60405180910390a15050505050565b60065460ff1615611ad357611ace84848484611f2b565b611b31565b815115611b315760405162461bcd60e51b815260206004820152602660248201527f4f4654436f72653a205f61646170746572506172616d73206d7573742062652060448201526532b6b83a3c9760d11b6064820152608401610742565b50505050565b60006001600160a01b0385163314611b9c5760405162461bcd60e51b815260206004820152602260248201527f50726f78794f46543a206f776e6572206973206e6f742073656e642063616c6c60448201526132b960f11b6064820152608401610742565b6040516370a0823160e01b81523060048201526000907f00000000000000000000000000000000000000000000000000000000000000006001600160a01b0316906370a0823190602401602060405180830381865afa158015611c03573d6000803e3d6000fd5b505050506040513d601f19601f82011682018060405250810190611c279190612caf565b9050611c5e6001600160a01b037f000000000000000000000000000000000000000000000000000000000000000016873086612000565b6040516370a0823160e01b815230600482015281907f00000000000000000000000000000000000000000000000000000000000000006001600160a01b0316906370a0823190602401602060405180830381865afa158015611cc4573d6000803e3d6000fd5b505050506040513d601f19601f82011682018060405250810190611ce89190612caf565b611cf29190612cde565b9695505050505050565b61ffff861660009081526001602052604081208054611d1a90612b75565b80601f0160208091040260200160405190810160405280929190818152602001828054611d4690612b75565b8015611d935780601f10611d6857610100808354040283529160200191611d93565b820191906000526020600020905b815481529060010190602001808311611d7657829003601f168201915b505050505090508051600003611e045760405162461bcd60e51b815260206004820152603060248201527f4c7a4170703a2064657374696e6174696f6e20636861696e206973206e6f742060448201526f61207472757374656420736f7572636560801b6064820152608401610742565b611e0f87875161206b565b60405162c5803160e81b81526001600160a01b037f0000000000000000000000000000000000000000000000000000000000000000169063c5803100908490611e66908b9086908c908c908c908c906004016130d9565b6000604051808303818588803b158015611e7f57600080fd5b505af1158015611e93573d6000803e3d6000fd5b505050505050505050505050565b60008082806020019051810190611eb89190613133565b909350915060009050611ecb83826120e1565b9050611ed8878284612146565b9150806001600160a01b03168761ffff167fbf551ec93859b170f9b2141bd9298bf3f64322c6f7beb2543a0cb669834118bf84604051611f1a91815260200190565b60405180910390a350505050505050565b6000611f36836122ac565b61ffff80871660009081526002602090815260408083209389168352929052205490915080611fa75760405162461bcd60e51b815260206004820152601a60248201527f4c7a4170703a206d696e4761734c696d6974206e6f74207365740000000000006044820152606401610742565b611fb1838261304c565b821015610db45760405162461bcd60e51b815260206004820152601b60248201527f4c7a4170703a20676173206c696d697420697320746f6f206c6f7700000000006044820152606401610742565b6040516001600160a01b0380851660248301528316604482015260648101829052611b319085906323b872dd60e01b906084015b60408051601f198184030181529190526020810180516001600160e01b03166001600160e01b031990931692909217909152612308565b61ffff82166000908152600360205260408120549081900361208c57506127105b808211156120dc5760405162461bcd60e51b815260206004820181905260248201527f4c7a4170703a207061796c6f61642073697a6520697320746f6f206c617267656044820152606401610742565b505050565b60006120ee82601461304c565b835110156121365760405162461bcd60e51b8152602060048201526015602482015274746f416464726573735f6f75744f66426f756e647360581b6044820152606401610742565b500160200151600160601b900490565b6040516370a0823160e01b81526001600160a01b03838116600483015260009182917f000000000000000000000000000000000000000000000000000000000000000016906370a0823190602401602060405180830381865afa1580156121b1573d6000803e3d6000fd5b505050506040513d601f19601f820116820180604052508101906121d59190612caf565b905061220b6001600160a01b037f00000000000000000000000000000000000000000000000000000000000000001685856123dd565b6040516370a0823160e01b81526001600160a01b03858116600483015282917f0000000000000000000000000000000000000000000000000000000000000000909116906370a0823190602401602060405180830381865afa158015612275573d6000803e3d6000fd5b505050506040513d601f19601f820116820180604052508101906122999190612caf565b6122a39190612cde565b95945050505050565b60006022825110156123005760405162461bcd60e51b815260206004820152601c60248201527f4c7a4170703a20696e76616c69642061646170746572506172616d73000000006044820152606401610742565b506022015190565b600061235d826040518060400160405280602081526020017f5361666545524332303a206c6f772d6c6576656c2063616c6c206661696c6564815250856001600160a01b031661240d9092919063ffffffff16565b905080516000148061237e57508080602001905181019061237e919061318c565b6120dc5760405162461bcd60e51b815260206004820152602a60248201527f5361666545524332303a204552433230206f7065726174696f6e20646964206e6044820152691bdd081cdd58d8d9595960b21b6064820152608401610742565b6040516001600160a01b0383166024820152604481018290526120dc90849063a9059cbb60e01b90606401612034565b606061164a848460008585600080866001600160a01b03168587604051612434919061305f565b60006040518083038185875af1925050503d8060008114612471576040519150601f19603f3d011682016040523d82523d6000602084013e612476565b606091505b509150915061248787838387612492565b979650505050505050565b606083156125015782516000036124fa576001600160a01b0385163b6124fa5760405162461bcd60e51b815260206004820152601d60248201527f416464726573733a2063616c6c20746f206e6f6e2d636f6e74726163740000006044820152606401610742565b508161164a565b61164a83838151156125165781518083602001fd5b8060405162461bcd60e51b815260040161074291906129eb565b61ffff8116811461159c57600080fd5b60008083601f84011261255257600080fd5b5081356001600160401b0381111561256957600080fd5b60208301915083602082850101111561258157600080fd5b9250929050565b80356001600160401b038116811461259f57600080fd5b919050565b600080600080600080608087890312156125bd57600080fd5b86356125c881612530565b955060208701356001600160401b03808211156125e457600080fd5b6125f08a838b01612540565b909750955085915061260460408a01612588565b9450606089013591508082111561261a57600080fd5b5061262789828a01612540565b979a9699509497509295939492505050565b60006020828403121561264b57600080fd5b81356001600160e01b03198116811461108c57600080fd5b60006020828403121561267557600080fd5b813561108c81612530565b6000806040838503121561269357600080fd5b823561269e81612530565b946020939093013593505050565b801515811461159c57600080fd5b600080600080600080600060a0888a0312156126d557600080fd5b87356126e081612530565b965060208801356001600160401b03808211156126fc57600080fd5b6127088b838c01612540565b909850965060408a0135955060608a01359150612724826126ac565b9093506080890135908082111561273a57600080fd5b506127478a828b01612540565b989b979a50959850939692959293505050565b60008060006040848603121561276f57600080fd5b833561277a81612530565b925060208401356001600160401b0381111561279557600080fd5b6127a186828701612540565b9497909650939450505050565b6001600160a01b038116811461159c57600080fd5b600080600080600080600080600060e08a8c0312156127e157600080fd5b89356127ec816127ae565b985060208a01356127fc81612530565b975060408a01356001600160401b038082111561281857600080fd5b6128248d838e01612540565b909950975060608c0135965060808c01359150612840826127ae565b90945060a08b013590612852826127ae565b90935060c08b0135908082111561286857600080fd5b506128758c828d01612540565b915080935050809150509295985092959850929598565b634e487b7160e01b600052604160045260246000fd5b604051601f8201601f191681016001600160401b03811182821017156128ca576128ca61288c565b604052919050565b60006001600160401b038211156128eb576128eb61288c565b50601f01601f191660200190565b60008060006060848603121561290e57600080fd5b833561291981612530565b925060208401356001600160401b0381111561293457600080fd5b8401601f8101861361294557600080fd5b8035612958612953826128d2565b6128a2565b81815287602083850101111561296d57600080fd5b8160208401602083013760006020838301015280945050505061299260408501612588565b90509250925092565b60005b838110156129b657818101518382015260200161299e565b50506000910152565b600081518084526129d781602086016020860161299b565b601f01601f19169290920160200192915050565b60208152600061108c60208301846129bf565b60008060408385031215612a1157600080fd5b8235612a1c81612530565b91506020830135612a2c81612530565b809150509250929050565b600060208284031215612a4957600080fd5b813561108c816127ae565b600080600080600060808688031215612a6c57600080fd5b8535612a7781612530565b94506020860135612a8781612530565b93506040860135925060608601356001600160401b03811115612aa957600080fd5b612ab588828901612540565b969995985093965092949392505050565b600080600060608486031215612adb57600080fd5b8335612ae681612530565b92506020840135612af681612530565b929592945050506040919091013590565b600060208284031215612b1957600080fd5b813561108c816126ac565b60008060008060808587031215612b3a57600080fd5b8435612b4581612530565b93506020850135612b5581612530565b92506040850135612b65816127ae565b9396929550929360600135925050565b600181811c90821680612b8957607f821691505b602082108103612ba957634e487b7160e01b600052602260045260246000fd5b50919050565b8183823760009101908152919050565b81835281816020850137506000828201602090810191909152601f909101601f19169091010190565b61ffff85168152606060208201526000612c06606083018587612bbf565b905082604083015295945050505050565b61ffff871681526001600160a01b038616602082015260a060408201819052600090612c45908301876129bf565b85151560608401528281036080840152612c60818587612bbf565b9998505050505050505050565b60008060408385031215612c8057600080fd5b505080516020909101519092909150565b61ffff84168152604060208201526000611647604083018486612bbf565b600060208284031215612cc157600080fd5b5051919050565b634e487b7160e01b600052601160045260246000fd5b8181038181111561093057610930612cc8565b8284823760609190911b6bffffffffffffffffffffffff19169101908152601401919050565b601f8211156120dc576000816000526020600020601f850160051c81016020861015612d405750805b601f850160051c820191505b81811015610db457828155600101612d4c565b81516001600160401b03811115612d7857612d7861288c565b612d8c81612d868454612b75565b84612d17565b602080601f831160018114612dc15760008415612da95750858301515b600019600386901b1c1916600185901b178555610db4565b600085815260208120601f198616915b82811015612df057888601518255948401946001909101908401612dd1565b5085821015612e0e5787850151600019600388901b60f8161c191681555b5050505050600190811b01905550565b600061ffff808816835280871660208401525084604083015260806060830152612487608083018486612bbf565b61ffff86168152608060208201526000612e6a608083018688612bbf565b6001600160401b0394909416604083015250606001529392505050565b6001600160401b03831115612e9e57612e9e61288c565b612eb283612eac8354612b75565b83612d17565b6000601f841160018114612ee65760008515612ece5750838201355b600019600387901b1c1916600186901b1783556109b8565b600083815260209020601f19861690835b82811015612f175786850135825560209485019460019092019101612ef7565b5086821015612f345760001960f88860031b161c19848701351681555b505060018560011b0183555050505050565b600082601f830112612f5757600080fd5b8151612f65612953826128d2565b818152846020838601011115612f7a57600080fd5b61164a82602083016020870161299b565b600060208284031215612f9d57600080fd5b81516001600160401b03811115612fb357600080fd5b61164a84828501612f46565b61ffff85168152608060208201526000612fdc60808301866129bf565b6001600160401b0385166040840152828103606084015261248781856129bf565b61ffff8416815260606020820152600061301a60608301856129bf565b9050826040830152949350505050565b60408152600061303d60408301856129bf565b90508260208301529392505050565b8082018082111561093057610930612cc8565b6000825161307181846020870161299b565b9190910192915050565b61ffff8616815260a06020820152600061309860a08301876129bf565b6001600160401b038616604084015282810360608401526130b981866129bf565b905082810360808401526130cd81856129bf565b98975050505050505050565b61ffff8716815260c0602082015260006130f660c08301886129bf565b828103604084015261310881886129bf565b6001600160a01b0387811660608601528616608085015283810360a08501529050612c6081856129bf565b60008060006060848603121561314857600080fd5b835161315381612530565b60208501519093506001600160401b0381111561316f57600080fd5b61317b86828701612f46565b925050604084015190509250925092565b60006020828403121561319e57600080fd5b815161108c816126ac56fea2646970667358221220e3dcb161a0032cd49b94cd0bca312ffd5b6aa69633be7748faef1f228699e40764736f6c63430008160033",
    "linkReferences": {}
  },
  "methodIdentifiers": {
    "DEFAULT_PAYLOAD_SIZE_LIMIT()": "c4461834",
    "NO_EXTRA_GAS()": "44770515",
    "PT_SEND()": "4c42899a",
    "circulatingSupply()": "9358928b",
    "estimateSendFee(uint16,bytes,uint256,bool,bytes)": "2a205e3d",
    "failedMessages(uint16,bytes,uint64)": "5b8c41e6",
    "forceResumeReceive(uint16,bytes)": "42d65a8d",
    "getConfig(uint16,uint16,address,uint256)": "f5ecbdbc",
    "getTrustedRemoteAddress(uint16)": "9f38369a",
    "isTrustedRemote(uint16,bytes)": "3d8b38f6",
    "lzEndpoint()": "b353aaa7",
    "lzReceive(uint16,bytes,uint64,bytes)": "001d3567",
    "minDstGasLookup(uint16,uint16)": "8cfd8f5c",
    "nonblockingLzReceive(uint16,bytes,uint64,bytes)": "66ad5c8a",
    "owner()": "8da5cb5b",
    "payloadSizeLimitLookup(uint16)": "3f1f4fa4",
    "precrime()": "950c8a74",
    "renounceOwnership()": "715018a6",
    "retryMessage(uint16,bytes,uint64,bytes)": "d1deba1f",
    "sendFrom(address,uint16,bytes,uint256,address,address,bytes)": "51905636",
    "setConfig(uint16,uint16,uint256,bytes)": "cbed8b9c",
    "setMinDstGas(uint16,uint16,uint256)": "df2a5b3b",
    "setPayloadSizeLimit(uint16,uint256)": "0df37483",
    "setPrecrime(address)": "baf3292d",
    "setReceiveVersion(uint16)": "10ddb137",
    "setSendVersion(uint16)": "07e0db17",
    "setTrustedRemote(uint16,bytes)": "eb8d72b7",
    "setTrustedRemoteAddress(uint16,bytes)": "a6c3d165",
    "setUseCustomAdapterParams(bool)": "eab45d9c",
    "supportsInterface(bytes4)": "01ffc9a7",
    "token()": "fc0c546a",
    "transferOwnership(address)": "f2fde38b",
    "trustedRemoteLookup(uint16)": "7533d788",
    "useCustomAdapterParams()": "ed629c5c"
  },
  "id": 16
}