{
  "abi": [
    {
      "inputs": [
        {
          "internalType": "string",
          "name": "_name",
          "type": "string"
        },
        {
          "internalType": "string",
          "name": "_symbol",
          "type": "string"
        },
        {
          "internalType": "uint8",
          "name": "_sharedDecimals",
          "type": "uint8"
        },
        {
          "internalType": "address",
          "name": "_lzEndpoint",
          "type": "address"
        }
      ],
      "stateMutability": "nonpayable",
      "type": "constructor"
    },
    {
      "anonymous": false,
      "inputs": [
        {
          "indexed": true,
          "internalType": "address",
          "name": "owner",
          "type": "address"
        },
        {
          "indexed": true,
          "internalType": "address",
          "name": "spender",
          "type": "address"
        },
        {
          "indexed": false,
          "internalType": "uint256",
          "name": "value",
          "type": "uint256"
        }
      ],
      "name": "Approval",
      "type": "event"
    },
    {
      "anonymous": false,
      "inputs": [
        {
          "indexed": true,
          "internalType": "uint16",
          "name": "_srcChainId",
          "type": "uint16"
        },
        {
          "indexed": false,
          "internalType": "bytes",
          "name": "_srcAddress",
          "type": "bytes"
        },
        {
          "indexed": false,
          "internalType": "uint64",
          "name": "_nonce",
          "type": "uint64"
        },
        {
          "indexed": false,
          "internalType": "bytes32",
          "name": "_hash",
          "type": "bytes32"
        }
      ],
      "name": "CallOFTReceivedSuccess",
      "type": "event"
    },
    {
      "anonymous": false,
      "inputs": [
        {
          "indexed": false,
          "internalType": "uint16",
          "name": "_srcChainId",
          "type": "uint16"
        },
        {
          "indexed": false,
          "internalType": "bytes",
          "name": "_srcAddress",
          "type": "bytes"
        },
        {
          "indexed": false,
          "internalType": "uint64",
          "name": "_nonce",
          "type": "uint64"
        },
        {
          "indexed": false,
          "internalType": "bytes",
          "name": "_payload",
          "type": "bytes"
        },
        {
          "indexed": false,
          "internalType": "bytes",
          "name": "_reason",
          "type": "bytes"
        }
      ],
      "name": "MessageFailed",
      "type": "event"
    },
    {
      "anonymous": false,
      "inputs": [
        {
          "indexed": false,
          "internalType": "address",
          "name": "_address",
          "type": "address"
        }
      ],
      "name": "NonContractAddress",
      "type": "event"
    },
    {
      "anonymous": false,
      "inputs": [
        {
          "indexed": true,
          "internalType": "address",
          "name": "previousOwner",
          "type": "address"
        },
        {
          "indexed": true,
          "internalType": "address",
          "name": "newOwner",
          "type": "address"
        }
      ],
      "name": "OwnershipTransferred",
      "type": "event"
    },
    {
      "anonymous": false,
      "inputs": [
        {
          "indexed": true,
          "internalType": "uint16",
          "name": "_srcChainId",
          "type": "uint16"
        },
        {
          "indexed": true,
          "internalType": "address",
          "name": "_to",
          "type": "address"
        },
        {
          "indexed": false,
          "internalType": "uint256",
          "name": "_amount",
          "type": "uint256"
        }
      ],
      "name": "ReceiveFromChain",
      "type": "event"
    },
    {
      "anonymous": false,
      "inputs": [
        {
          "indexed": false,
          "internalType": "uint16",
          "name": "_srcChainId",
          "type": "uint16"
        },
        {
          "indexed": false,
          "internalType": "bytes",
          "name": "_srcAddress",
          "type": "bytes"
        },
        {
          "indexed": false,
          "internalType": "uint64",
          "name": "_nonce",
          "type": "uint64"
        },
        {
          "indexed": false,
          "internalType": "bytes32",
          "name": "_payloadHash",
          "type": "bytes32"
        }
      ],
      "name": "RetryMessageSuccess",
      "type": "event"
    },
    {
      "anonymous": false,
      "inputs": [
        {
          "indexed": true,
          "internalType": "uint16",
          "name": "_dstChainId",
          "type": "uint16"
        },
        {
          "indexed": true,
          "internalType": "address",
          "name": "_from",
          "type": "address"
        },
        {
          "indexed": true,
          "internalType": "bytes32",
          "name": "_toAddress",
          "type": "bytes32"
        },
        {
          "indexed": false,
          "internalType": "uint256",
          "name": "_amount",
          "type": "uint256"
        }
      ],
      "name": "SendToChain",
      "type": "event"
    },
    {
      "anonymous": false,
      "inputs": [
        {
          "indexed": false,
          "internalType": "uint16",
          "name": "_dstChainId",
          "type": "uint16"
        },
        {
          "indexed": false,
          "internalType": "uint16",
          "name": "_type",
          "type": "uint16"
        },
        {
          "indexed": false,
          "internalType": "uint256",
          "name": "_minDstGas",
          "type": "uint256"
        }
      ],
      "name": "SetMinDstGas",
      "type": "event"
    },
    {
      "anonymous": false,
      "inputs": [
        {
          "indexed": false,
          "internalType": "address",
          "name": "precrime",
          "type": "address"
        }
      ],
      "name": "SetPrecrime",
      "type": "event"
    },
    {
      "anonymous": false,
      "inputs": [
        {
          "indexed": false,
          "internalType": "uint16",
          "name": "_remoteChainId",
          "type": "uint16"
        },
        {
          "indexed": false,
          "internalType": "bytes",
          "name": "_path",
          "type": "bytes"
        }
      ],
      "name": "SetTrustedRemote",
      "type": "event"
    },
    {
      "anonymous": false,
      "inputs": [
        {
          "indexed": false,
          "internalType": "uint16",
          "name": "_remoteChainId",
          "type": "uint16"
        },
        {
          "indexed": false,
          "internalType": "bytes",
          "name": "_remoteAddress",
          "type": "bytes"
        }
      ],
      "name": "SetTrustedRemoteAddress",
      "type": "event"
    },
    {
      "anonymous": false,
      "inputs": [
        {
          "indexed": true,
          "internalType": "address",
          "name": "from",
          "type": "address"
        },
        {
          "indexed": true,
          "internalType": "address",
          "name": "to",
          "type": "address"
        },
        {
          "indexed": false,
          "internalType": "uint256",
          "name": "value",
          "type": "uint256"
        }
      ],
      "name": "Transfer",
      "type": "event"
    },
    {
      "inputs": [],
      "name": "DEFAULT_PAYLOAD_SIZE_LIMIT",
      "outputs": [
        {
          "internalType": "uint256",
          "name": "",
          "type": "uint256"
        }
      ],
      "stateMutability": "view",
      "type": "function"
    },
    {
      "inputs": [],
      "name": "NO_EXTRA_GAS",
      "outputs": [
        {
          "internalType": "uint256",
          "name": "",
          "type": "uint256"
        }
      ],
      "stateMutability": "view",
      "type": "function"
    },
    {
      "inputs": [],
      "name": "PT_SEND",
      "outputs": [
        {
          "internalType": "uint8",
          "name": "",
          "type": "uint8"
        }
      ],
      "stateMutability": "view",
      "type": "function"
    },
    {
      "inputs": [],
      "name": "PT_SEND_AND_CALL",
      "outputs": [
        {
          "internalType": "uint8",
          "name": "",
          "type": "uint8"
        }
      ],
      "stateMutability": "view",
      "type": "function"
    },
    {
      "inputs": [
        {
          "internalType": "address",
          "name": "owner",
          "type": "address"
        },
        {
          "internalType": "address",
          "name": "spender",
          "type": "address"
        }
      ],
      "name": "allowance",
      "outputs": [
        {
          "internalType": "uint256",
          "name": "",
          "type": "uint256"
        }
      ],
      "stateMutability": "view",
      "type": "function"
    },
    {
      "inputs": [
        {
          "internalType": "address",
          "name": "spender",
          "type": "address"
        },
        {
          "internalType": "uint256",
          "name": "amount",
          "type": "uint256"
        }
      ],
      "name": "approve",
      "outputs": [
        {
          "internalType": "bool",
          "name": "",
          "type": "bool"
        }
      ],
      "stateMutability": "nonpayable",
      "type": "function"
    },
    {
      "inputs": [
        {
          "internalType": "address",
          "name": "account",
          "type": "address"
        }
      ],
      "name": "balanceOf",
      "outputs": [
        {
          "internalType": "uint256",
          "name": "",
          "type": "uint256"
        }
      ],
      "stateMutability": "view",
      "type": "function"
    },
    {
      "inputs": [
        {
          "internalType": "uint16",
          "name": "_srcChainId",
          "type": "uint16"
        },
        {
          "internalType": "bytes",
          "name": "_srcAddress",
          "type": "bytes"
        },
        {
          "internalType": "uint64",
          "name": "_nonce",
          "type": "uint64"
        },
        {
          "internalType": "bytes32",
          "name": "_from",
          "type": "bytes32"
        },
        {
          "internalType": "address",
          "name": "_to",
          "type": "address"
        },
        {
          "internalType": "uint256",
          "name": "_amount",
          "type": "uint256"
        },
        {
          "internalType": "bytes",
          "name": "_payload",
          "type": "bytes"
        },
        {
          "internalType": "uint256",
          "name": "_gasForCall",
          "type": "uint256"
        }
      ],
      "name": "callOnOFTReceived",
      "outputs": [],
      "stateMutability": "nonpayable",
      "type": "function"
    },
    {
      "inputs": [],
      "name": "circulatingSupply",
      "outputs": [
        {
          "internalType": "uint256",
          "name": "",
          "type": "uint256"
        }
      ],
      "stateMutability": "view",
      "type": "function"
    },
    {
      "inputs": [
        {
          "internalType": "uint16",
          "name": "",
          "type": "uint16"
        },
        {
          "internalType": "bytes",
          "name": "",
          "type": "bytes"
        },
        {
          "internalType": "uint64",
          "name": "",
          "type": "uint64"
        }
      ],
      "name": "creditedPackets",
      "outputs": [
        {
          "internalType": "bool",
          "name": "",
          "type": "bool"
        }
      ],
      "stateMutability": "view",
      "type": "function"
    },
    {
      "inputs": [],
      "name": "decimals",
      "outputs": [
        {
          "internalType": "uint8",
          "name": "",
          "type": "uint8"
        }
      ],
      "stateMutability": "view",
      "type": "function"
    },
    {
      "inputs": [
        {
          "internalType": "address",
          "name": "spender",
          "type": "address"
        },
        {
          "internalType": "uint256",
          "name": "subtractedValue",
          "type": "uint256"
        }
      ],
      "name": "decreaseAllowance",
      "outputs": [
        {
          "internalType": "bool",
          "name": "",
          "type": "bool"
        }
      ],
      "stateMutability": "nonpayable",
      "type": "function"
    },
    {
      "inputs": [
        {
          "internalType": "uint16",
          "name": "_dstChainId",
          "type": "uint16"
        },
        {
          "internalType": "bytes32",
          "name": "_toAddress",
          "type": "bytes32"
        },
        {
          "internalType": "uint256",
          "name": "_amount",
          "type": "uint256"
        },
        {
          "internalType": "bytes",
          "name": "_payload",
          "type": "bytes"
        },
        {
          "internalType": "uint64",
          "name": "_dstGasForCall",
          "type": "uint64"
        },
        {
          "internalType": "bool",
          "name": "_useZro",
          "type": "bool"
        },
        {
          "internalType": "bytes",
          "name": "_adapterParams",
          "type": "bytes"
        }
      ],
      "name": "estimateSendAndCallFee",
      "outputs": [
        {
          "internalType": "uint256",
          "name": "nativeFee",
          "type": "uint256"
        },
        {
          "internalType": "uint256",
          "name": "zroFee",
          "type": "uint256"
        }
      ],
      "stateMutability": "view",
      "type": "function"
    },
    {
      "inputs": [
        {
          "internalType": "uint16",
          "name": "_dstChainId",
          "type": "uint16"
        },
        {
          "internalType": "bytes32",
          "name": "_toAddress",
          "type": "bytes32"
        },
        {
          "internalType": "uint256",
          "name": "_amount",
          "type": "uint256"
        },
        {
          "internalType": "bool",
          "name": "_useZro",
          "type": "bool"
        },
        {
          "internalType": "bytes",
          "name": "_adapterParams",
          "type": "bytes"
        }
      ],
      "name": "estimateSendFee",
      "outputs": [
        {
          "internalType": "uint256",
          "name": "nativeFee",
          "type": "uint256"
        },
        {
          "internalType": "uint256",
          "name": "zroFee",
          "type": "uint256"
        }
      ],
      "stateMutability": "view",
      "type": "function"
    },
    {
      "inputs": [
        {
          "internalType": "uint16",
          "name": "",
          "type": "uint16"
        },
        {
          "internalType": "bytes",
          "name": "",
          "type": "bytes"
        },
        {
          "internalType": "uint64",
          "name": "",
          "type": "uint64"
        }
      ],
      "name": "failedMessages",
      "outputs": [
        {
          "internalType": "bytes32",
          "name": "",
          "type": "bytes32"
        }
      ],
      "stateMutability": "view",
      "type": "function"
    },
    {
      "inputs": [
        {
          "internalType": "uint16",
          "name": "_srcChainId",
          "type": "uint16"
        },
        {
          "internalType": "bytes",
          "name": "_srcAddress",
          "type": "bytes"
        }
      ],
      "name": "forceResumeReceive",
      "outputs": [],
      "stateMutability": "nonpayable",
      "type": "function"
    },
    {
      "inputs": [
        {
          "internalType": "uint16",
          "name": "_version",
          "type": "uint16"
        },
        {
          "internalType": "uint16",
          "name": "_chainId",
          "type": "uint16"
        },
        {
          "internalType": "address",
          "name": "",
          "type": "address"
        },
        {
          "internalType": "uint256",
          "name": "_configType",
          "type": "uint256"
        }
      ],
      "name": "getConfig",
      "outputs": [
        {
          "internalType": "bytes",
          "name": "",
          "type": "bytes"
        }
      ],
      "stateMutability": "view",
      "type": "function"
    },
    {
      "inputs": [
        {
          "internalType": "uint16",
          "name": "_remoteChainId",
          "type": "uint16"
        }
      ],
      "name": "getTrustedRemoteAddress",
      "outputs": [
        {
          "internalType": "bytes",
          "name": "",
          "type": "bytes"
        }
      ],
      "stateMutability": "view",
      "type": "function"
    },
    {
      "inputs": [
        {
          "internalType": "address",
          "name": "spender",
          "type": "address"
        },
        {
          "internalType": "uint256",
          "name": "addedValue",
          "type": "uint256"
        }
      ],
      "name": "increaseAllowance",
      "outputs": [
        {
          "internalType": "bool",
          "name": "",
          "type": "bool"
        }
      ],
      "stateMutability": "nonpayable",
      "type": "function"
    },
    {
      "inputs": [
        {
          "internalType": "uint16",
          "name": "_srcChainId",
          "type": "uint16"
        },
        {
          "internalType": "bytes",
          "name": "_srcAddress",
          "type": "bytes"
        }
      ],
      "name": "isTrustedRemote",
      "outputs": [
        {
          "internalType": "bool",
          "name": "",
          "type": "bool"
        }
      ],
      "stateMutability": "view",
      "type": "function"
    },
    {
      "inputs": [],
      "name": "lzEndpoint",
      "outputs": [
        {
          "internalType": "contract ILayerZeroEndpoint",
          "name": "",
          "type": "address"
        }
      ],
      "stateMutability": "view",
      "type": "function"
    },
    {
      "inputs": [
        {
          "internalType": "uint16",
          "name": "_srcChainId",
          "type": "uint16"
        },
        {
          "internalType": "bytes",
          "name": "_srcAddress",
          "type": "bytes"
        },
        {
          "internalType": "uint64",
          "name": "_nonce",
          "type": "uint64"
        },
        {
          "internalType": "bytes",
          "name": "_payload",
          "type": "bytes"
        }
      ],
      "name": "lzReceive",
      "outputs": [],
      "stateMutability": "nonpayable",
      "type": "function"
    },
    {
      "inputs": [
        {
          "internalType": "uint16",
          "name": "",
          "type": "uint16"
        },
        {
          "internalType": "uint16",
          "name": "",
          "type": "uint16"
        }
      ],
      "name": "minDstGasLookup",
      "outputs": [
        {
          "internalType": "uint256",
          "name": "",
          "type": "uint256"
        }
      ],
      "stateMutability": "view",
      "type": "function"
    },
    {
      "inputs": [],
      "name": "name",
      "outputs": [
        {
          "internalType": "string",
          "name": "",
          "type": "string"
        }
      ],
      "stateMutability": "view",
      "type": "function"
    },
    {
      "inputs": [
        {
          "internalType": "uint16",
          "name": "_srcChainId",
          "type": "uint16"
        },
        {
          "internalType": "bytes",
          "name": "_srcAddress",
          "type": "bytes"
        },
        {
          "internalType": "uint64",
          "name": "_nonce",
          "type": "uint64"
        },
        {
          "internalType": "bytes",
          "name": "_payload",
          "type": "bytes"
        }
      ],
      "name": "nonblockingLzReceive",
      "outputs": [],
      "stateMutability": "nonpayable",
      "type": "function"
    },
    {
      "inputs": [],
      "name": "owner",
      "outputs": [
        {
          "internalType": "address",
          "name": "",
          "type": "address"
        }
      ],
      "stateMutability": "view",
      "type": "function"
    },
    {
      "inputs": [
        {
          "internalType": "uint16",
          "name": "",
          "type": "uint16"
        }
      ],
      "name": "payloadSizeLimitLookup",
      "outputs": [
        {
          "internalType": "uint256",
          "name": "",
          "type": "uint256"
        }
      ],
      "stateMutability": "view",
      "type": "function"
    },
    {
      "inputs": [],
      "name": "precrime",
      "outputs": [
        {
          "internalType": "address",
          "name": "",
          "type": "address"
        }
      ],
      "stateMutability": "view",
      "type": "function"
    },
    {
      "inputs": [],
      "name": "renounceOwnership",
      "outputs": [],
      "stateMutability": "nonpayable",
      "type": "function"
    },
    {
      "inputs": [
        {
          "internalType": "uint16",
          "name": "_srcChainId",
          "type": "uint16"
        },
        {
          "internalType": "bytes",
          "name": "_srcAddress",
          "type": "bytes"
        },
        {
          "internalType": "uint64",
          "name": "_nonce",
          "type": "uint64"
        },
        {
          "internalType": "bytes",
          "name": "_payload",
          "type": "bytes"
        }
      ],
      "name": "retryMessage",
      "outputs": [],
      "stateMutability": "payable",
      "type": "function"
    },
    {
      "inputs": [
        {
          "internalType": "address",
          "name": "_from",
          "type": "address"
        },
        {
          "internalType": "uint16",
          "name": "_dstChainId",
          "type": "uint16"
        },
        {
          "internalType": "bytes32",
          "name": "_toAddress",
          "type": "bytes32"
        },
        {
          "internalType": "uint256",
          "name": "_amount",
          "type": "uint256"
        },
        {
          "internalType": "bytes",
          "name": "_payload",
          "type": "bytes"
        },
        {
          "internalType": "uint64",
          "name": "_dstGasForCall",
          "type": "uint64"
        },
        {
          "components": [
            {
              "internalType": "address payable",
              "name": "refundAddress",
              "type": "address"
            },
            {
              "internalType": "address",
              "name": "zroPaymentAddress",
              "type": "address"
            },
            {
              "internalType": "bytes",
              "name": "adapterParams",
              "type": "bytes"
            }
          ],
          "internalType": "struct ICommonOFT.LzCallParams",
          "name": "_callParams",
          "type": "tuple"
        }
      ],
      "name": "sendAndCall",
      "outputs": [],
      "stateMutability": "payable",
      "type": "function"
    },
    {
      "inputs": [
        {
          "internalType": "address",
          "name": "_from",
          "type": "address"
        },
        {
          "internalType": "uint16",
          "name": "_dstChainId",
          "type": "uint16"
        },
        {
          "internalType": "bytes32",
          "name": "_toAddress",
          "type": "bytes32"
        },
        {
          "internalType": "uint256",
          "name": "_amount",
          "type": "uint256"
        },
        {
          "components": [
            {
              "internalType": "address payable",
              "name": "refundAddress",
              "type": "address"
            },
            {
              "internalType": "address",
              "name": "zroPaymentAddress",
              "type": "address"
            },
            {
              "internalType": "bytes",
              "name": "adapterParams",
              "type": "bytes"
            }
          ],
          "internalType": "struct ICommonOFT.LzCallParams",
          "name": "_callParams",
          "type": "tuple"
        }
      ],
      "name": "sendFrom",
      "outputs": [],
      "stateMutability": "payable",
      "type": "function"
    },
    {
      "inputs": [
        {
          "internalType": "uint16",
          "name": "_version",
          "type": "uint16"
        },
        {
          "internalType": "uint16",
          "name": "_chainId",
          "type": "uint16"
        },
        {
          "internalType": "uint256",
          "name": "_configType",
          "type": "uint256"
        },
        {
          "internalType": "bytes",
          "name": "_config",
          "type": "bytes"
        }
      ],
      "name": "setConfig",
      "outputs": [],
      "stateMutability": "nonpayable",
      "type": "function"
    },
    {
      "inputs": [
        {
          "internalType": "uint16",
          "name": "_dstChainId",
          "type": "uint16"
        },
        {
          "internalType": "uint16",
          "name": "_packetType",
          "type": "uint16"
        },
        {
          "internalType": "uint256",
          "name": "_minGas",
          "type": "uint256"
        }
      ],
      "name": "setMinDstGas",
      "outputs": [],
      "stateMutability": "nonpayable",
      "type": "function"
    },
    {
      "inputs": [
        {
          "internalType": "uint16",
          "name": "_dstChainId",
          "type": "uint16"
        },
        {
          "internalType": "uint256",
          "name": "_size",
          "type": "uint256"
        }
      ],
      "name": "setPayloadSizeLimit",
      "outputs": [],
      "stateMutability": "nonpayable",
      "type": "function"
    },
    {
      "inputs": [
        {
          "internalType": "address",
          "name": "_precrime",
          "type": "address"
        }
      ],
      "name": "setPrecrime",
      "outputs": [],
      "stateMutability": "nonpayable",
      "type": "function"
    },
    {
      "inputs": [
        {
          "internalType": "uint16",
          "name": "_version",
          "type": "uint16"
        }
      ],
      "name": "setReceiveVersion",
      "outputs": [],
      "stateMutability": "nonpayable",
      "type": "function"
    },
    {
      "inputs": [
        {
          "internalType": "uint16",
          "name": "_version",
          "type": "uint16"
        }
      ],
      "name": "setSendVersion",
      "outputs": [],
      "stateMutability": "nonpayable",
      "type": "function"
    },
    {
      "inputs": [
        {
          "internalType": "uint16",
          "name": "_remoteChainId",
          "type": "uint16"
        },
        {
          "internalType": "bytes",
          "name": "_path",
          "type": "bytes"
        }
      ],
      "name": "setTrustedRemote",
      "outputs": [],
      "stateMutability": "nonpayable",
      "type": "function"
    },
    {
      "inputs": [
        {
          "internalType": "uint16",
          "name": "_remoteChainId",
          "type": "uint16"
        },
        {
          "internalType": "bytes",
          "name": "_remoteAddress",
          "type": "bytes"
        }
      ],
      "name": "setTrustedRemoteAddress",
      "outputs": [],
      "stateMutability": "nonpayable",
      "type": "function"
    },
    {
      "inputs": [],
      "name": "sharedDecimals",
      "outputs": [
        {
          "internalType": "uint8",
          "name": "",
          "type": "uint8"
        }
      ],
      "stateMutability": "view",
      "type": "function"
    },
    {
      "inputs": [
        {
          "internalType": "bytes4",
          "name": "interfaceId",
          "type": "bytes4"
        }
      ],
      "name": "supportsInterface",
      "outputs": [
        {
          "internalType": "bool",
          "name": "",
          "type": "bool"
        }
      ],
      "stateMutability": "view",
      "type": "function"
    },
    {
      "inputs": [],
      "name": "symbol",
      "outputs": [
        {
          "internalType": "string",
          "name": "",
          "type": "string"
        }
      ],
      "stateMutability": "view",
      "type": "function"
    },
    {
      "inputs": [],
      "name": "token",
      "outputs": [
        {
          "internalType": "address",
          "name": "",
          "type": "address"
        }
      ],
      "stateMutability": "view",
      "type": "function"
    },
    {
      "inputs": [],
      "name": "totalSupply",
      "outputs": [
        {
          "internalType": "uint256",
          "name": "",
          "type": "uint256"
        }
      ],
      "stateMutability": "view",
      "type": "function"
    },
    {
      "inputs": [
        {
          "internalType": "address",
          "name": "to",
          "type": "address"
        },
        {
          "internalType": "uint256",
          "name": "amount",
          "type": "uint256"
        }
      ],
      "name": "transfer",
      "outputs": [
        {
          "internalType": "bool",
          "name": "",
          "type": "bool"
        }
      ],
      "stateMutability": "nonpayable",
      "type": "function"
    },
    {
      "inputs": [
        {
          "internalType": "address",
          "name": "from",
          "type": "address"
        },
        {
          "internalType": "address",
          "name": "to",
          "type": "address"
        },
        {
          "internalType": "uint256",
          "name": "amount",
          "type": "uint256"
        }
      ],
      "name": "transferFrom",
      "outputs": [
        {
          "internalType": "bool",
          "name": "",
          "type": "bool"
        }
      ],
      "stateMutability": "nonpayable",
      "type": "function"
    },
    {
      "inputs": [
        {
          "internalType": "address",
          "name": "newOwner",
          "type": "address"
        }
      ],
      "name": "transferOwnership",
      "outputs": [],
      "stateMutability": "nonpayable",
      "type": "function"
    },
    {
      "inputs": [
        {
          "internalType": "uint16",
          "name": "",
          "type": "uint16"
        }
      ],
      "name": "trustedRemoteLookup",
      "outputs": [
        {
          "internalType": "bytes",
          "name": "",
          "type": "bytes"
        }
      ],
      "stateMutability": "view",
      "type": "function"
    }
  ],
  "bytecode": {
    "object": "0x60e06040523480156200001157600080fd5b50604051620047e4380380620047e4833981016040819052620000349162000242565b8383838381818080620000473362000125565b6001600160a01b0316608052505060ff1660a05250600a90506200006c838262000377565b50600b6200007b828262000377565b5050506000620000906200017560201b60201c565b90508060ff168360ff161115620000fd5760405162461bcd60e51b815260206004820152602760248201527f4f46543a20736861726564446563696d616c73206d757374206265203c3d20646044820152666563696d616c7360c81b606482015260840160405180910390fd5b62000109838262000459565b6200011690600a62000578565b60c05250620005909350505050565b600080546001600160a01b038381166001600160a01b0319831681178455604051919092169283917f8be0079c531659141344cd1fd0a4f28419497f9722a3daafe3b4186f6b6457e09190a35050565b601290565b634e487b7160e01b600052604160045260246000fd5b600082601f830112620001a257600080fd5b81516001600160401b0380821115620001bf57620001bf6200017a565b604051601f8301601f19908116603f01168101908282118183101715620001ea57620001ea6200017a565b81604052838152602092508660208588010111156200020857600080fd5b600091505b838210156200022c57858201830151818301840152908201906200020d565b6000602085830101528094505050505092915050565b600080600080608085870312156200025957600080fd5b84516001600160401b03808211156200027157600080fd5b6200027f8883890162000190565b955060208701519150808211156200029657600080fd5b50620002a58782880162000190565b935050604085015160ff81168114620002bd57600080fd5b60608601519092506001600160a01b0381168114620002db57600080fd5b939692955090935050565b600181811c90821680620002fb57607f821691505b6020821081036200031c57634e487b7160e01b600052602260045260246000fd5b50919050565b601f82111562000372576000816000526020600020601f850160051c810160208610156200034d5750805b601f850160051c820191505b818110156200036e5782815560010162000359565b5050505b505050565b81516001600160401b038111156200039357620003936200017a565b620003ab81620003a48454620002e6565b8462000322565b602080601f831160018114620003e35760008415620003ca5750858301515b600019600386901b1c1916600185901b1785556200036e565b600085815260208120601f198616915b828110156200041457888601518255948401946001909101908401620003f3565b5085821015620004335787850151600019600388901b60f8161c191681555b5050505050600190811b01905550565b634e487b7160e01b600052601160045260246000fd5b60ff828116828216039081111562000475576200047562000443565b92915050565b600181815b80851115620004bc578160001904821115620004a057620004a062000443565b80851615620004ae57918102915b93841c939080029062000480565b509250929050565b600082620004d55750600162000475565b81620004e45750600062000475565b8160018114620004fd5760028114620005085762000528565b600191505062000475565b60ff8411156200051c576200051c62000443565b50506001821b62000475565b5060208310610133831016604e8410600b84101617156200054d575081810a62000475565b6200055983836200047b565b806000190482111562000570576200057062000443565b029392505050565b60006200058960ff841683620004c4565b9392505050565b60805160a05160c0516141d76200060d6000396000818161261d01528181612a720152612d4e0152600061060a0152600081816107e40152818161095a01528181610c7201528181610d3201528181610eef0152818161154b01528181611a8401528181611f88015281816124090152612c0501526141d76000f3fe6080604052600436106102ad5760003560e01c8063857749b011610175578063b353aaa7116100dc578063df2a5b3b11610095578063eb8d72b71161006f578063eb8d72b7146108e4578063f2fde38b14610904578063f5ecbdbc14610924578063fc0c546a1461094457600080fd5b8063df2a5b3b1461088f578063e6a20ae6146108af578063eaffd49a146108c457600080fd5b8063b353aaa7146107d2578063baf3292d14610806578063c446183414610826578063cbed8b9c1461083c578063d1deba1f1461085c578063dd62ed3e1461086f57600080fd5b80639bdb98121161012e5780639bdb9812146106e05780639f38369a14610732578063a457c2d714610752578063a4c51df514610772578063a6c3d16514610792578063a9059cbb146107b257600080fd5b8063857749b0146105f85780638cfd8f5c1461062c5780638da5cb5b146106645780639358928b14610696578063950c8a74146106ab57806395d89b41146106cb57600080fd5b80633d8b38f61161021957806366ad5c8a116101d257806366ad5c8a14610547578063695ef6bf1461056757806370a082311461057a578063715018a6146105b05780637533d788146105c557806376203b48146105e557600080fd5b80633d8b38f6146104615780633f1f4fa41461048157806342d65a8d146104ae57806344770515146104ce5780634c42899a146104e35780635b8c41e6146104f857600080fd5b806310ddb1371161026b57806310ddb1371461038b57806318160ddd146103ab57806323b872dd146103ca578063313ce567146103ea578063365260b41461040c578063395093511461044157600080fd5b80621d3567146102b257806301ffc9a7146102d457806306fdde031461030957806307e0db171461032b578063095ea7b31461034b5780630df374831461036b575b600080fd5b3480156102be57600080fd5b506102d26102cd36600461329e565b610957565b005b3480156102e057600080fd5b506102f46102ef366004613331565b610b88565b60405190151581526020015b60405180910390f35b34801561031557600080fd5b5061031e610bbf565b60405161030091906133ab565b34801561033757600080fd5b506102d26103463660046133be565b610c51565b34801561035757600080fd5b506102f46103663660046133ee565b610cda565b34801561037757600080fd5b506102d261038636600461341a565b610cf2565b34801561039757600080fd5b506102d26103a63660046133be565b610d11565b3480156103b757600080fd5b506009545b604051908152602001610300565b3480156103d657600080fd5b506102f46103e5366004613436565b610d69565b3480156103f657600080fd5b5060125b60405160ff9091168152602001610300565b34801561041857600080fd5b5061042c610427366004613487565b610d8d565b60408051928352602083019190915201610300565b34801561044d57600080fd5b506102f461045c3660046133ee565b610de2565b34801561046d57600080fd5b506102f461047c3660046134ec565b610e04565b34801561048d57600080fd5b506103bc61049c3660046133be565b60036020526000908152604090205481565b3480156104ba57600080fd5b506102d26104c93660046134ec565b610ed0565b3480156104da57600080fd5b506103bc600081565b3480156104ef57600080fd5b506103fa600081565b34801561050457600080fd5b506103bc6105133660046135ab565b6005602090815260009384526040808520845180860184018051928152908401958401959095209452929052825290205481565b34801561055357600080fd5b506102d261056236600461329e565b610f56565b6102d2610575366004613663565b611032565b34801561058657600080fd5b506103bc6105953660046136d6565b6001600160a01b031660009081526007602052604090205490565b3480156105bc57600080fd5b506102d261109d565b3480156105d157600080fd5b5061031e6105e03660046133be565b6110b1565b6102d26105f33660046136f3565b61114b565b34801561060457600080fd5b506103fa7f000000000000000000000000000000000000000000000000000000000000000081565b34801561063857600080fd5b506103bc6106473660046137a5565b600260209081526000928352604080842090915290825290205481565b34801561067057600080fd5b506000546001600160a01b03165b6040516001600160a01b039091168152602001610300565b3480156106a257600080fd5b506103bc6111fa565b3480156106b757600080fd5b5060045461067e906001600160a01b031681565b3480156106d757600080fd5b5061031e61120a565b3480156106ec57600080fd5b506102f46106fb3660046135ab565b6006602090815260009384526040808520845180860184018051928152908401958401959095209452929052825290205460ff1681565b34801561073e57600080fd5b5061031e61074d3660046133be565b611219565b34801561075e57600080fd5b506102f461076d3660046133ee565b61132f565b34801561077e57600080fd5b5061042c61078d3660046137d8565b6113aa565b34801561079e57600080fd5b506102d26107ad3660046134ec565b611439565b3480156107be57600080fd5b506102f46107cd3660046133ee565b6114c2565b3480156107de57600080fd5b5061067e7f000000000000000000000000000000000000000000000000000000000000000081565b34801561081257600080fd5b506102d26108213660046136d6565b6114d0565b34801561083257600080fd5b506103bc61271081565b34801561084857600080fd5b506102d2610857366004613891565b61152c565b6102d261086a36600461329e565b6115b6565b34801561087b57600080fd5b506103bc61088a3660046138ff565b6117cc565b34801561089b57600080fd5b506102d26108aa366004613938565b6117f7565b3480156108bb57600080fd5b506103fa600181565b3480156108d057600080fd5b506102d26108df366004613974565b611861565b3480156108f057600080fd5b506102d26108ff3660046134ec565b611980565b34801561091057600080fd5b506102d261091f3660046136d6565b6119da565b34801561093057600080fd5b5061031e61093f366004613a3c565b611a53565b34801561095057600080fd5b503061067e565b337f00000000000000000000000000000000000000000000000000000000000000006001600160a01b0316146109d45760405162461bcd60e51b815260206004820152601e60248201527f4c7a4170703a20696e76616c696420656e64706f696e742063616c6c6572000060448201526064015b60405180910390fd5b61ffff8616600090815260016020526040812080546109f290613a89565b80601f0160208091040260200160405190810160405280929190818152602001828054610a1e90613a89565b8015610a6b5780601f10610a4057610100808354040283529160200191610a6b565b820191906000526020600020905b815481529060010190602001808311610a4e57829003601f168201915b50505050509050805186869050148015610a86575060008151115b8015610aae575080516020820120604051610aa49088908890613abd565b6040518091039020145b610b095760405162461bcd60e51b815260206004820152602660248201527f4c7a4170703a20696e76616c696420736f757263652073656e64696e6720636f6044820152651b9d1c9858dd60d21b60648201526084016109cb565b610b7f8787878080601f01602080910402602001604051908101604052809392919081815260200183838082843760009201919091525050604080516020601f8a018190048102820181019092528881528a935091508890889081908401838280828437600092019190915250611b0492505050565b50505050505050565b60006001600160e01b03198216631f7ecdf760e01b1480610bb957506301ffc9a760e01b6001600160e01b03198316145b92915050565b6060600a8054610bce90613a89565b80601f0160208091040260200160405190810160405280929190818152602001828054610bfa90613a89565b8015610c475780601f10610c1c57610100808354040283529160200191610c47565b820191906000526020600020905b815481529060010190602001808311610c2a57829003601f168201915b5050505050905090565b610c59611b7d565b6040516307e0db1760e01b815261ffff821660048201527f00000000000000000000000000000000000000000000000000000000000000006001600160a01b0316906307e0db17906024015b600060405180830381600087803b158015610cbf57600080fd5b505af1158015610cd3573d6000803e3d6000fd5b5050505050565b600033610ce8818585611bd7565b5060019392505050565b610cfa611b7d565b61ffff909116600090815260036020526040902055565b610d19611b7d565b6040516310ddb13760e01b815261ffff821660048201527f00000000000000000000000000000000000000000000000000000000000000006001600160a01b0316906310ddb13790602401610ca5565b600033610d77858285611cfb565b610d82858585611d75565b506001949350505050565b600080610dd38888888888888080601f016020809104026020016040519081016040528093929190818152602001838380828437600092019190915250611f2092505050565b91509150965096945050505050565b600033610ce8818585610df583836117cc565b610dff9190613ae3565b611bd7565b61ffff831660009081526001602052604081208054829190610e2590613a89565b80601f0160208091040260200160405190810160405280929190818152602001828054610e5190613a89565b8015610e9e5780601f10610e7357610100808354040283529160200191610e9e565b820191906000526020600020905b815481529060010190602001808311610e8157829003601f168201915b505050505090508383604051610eb5929190613abd565b60405180910390208180519060200120149150509392505050565b610ed8611b7d565b6040516342d65a8d60e01b81526001600160a01b037f000000000000000000000000000000000000000000000000000000000000000016906342d65a8d90610f2890869086908690600401613b1f565b600060405180830381600087803b158015610f4257600080fd5b505af1158015610b7f573d6000803e3d6000fd5b333014610fb45760405162461bcd60e51b815260206004820152602660248201527f4e6f6e626c6f636b696e674c7a4170703a2063616c6c6572206d7573742062656044820152650204c7a4170760d41b60648201526084016109cb565b61102a8686868080601f01602080910402602001604051908101604052809392919081815260200183838082843760009201919091525050604080516020601f89018190048102820181019092528781528993509150879087908190840183828082843760009201919091525061201492505050565b505050505050565b61102a8585858561104660208701876136d6565b61105660408801602089016136d6565b6110636040890189613b3d565b8080601f01602080910402602001604051908101604052809392919081815260200183838082843760009201919091525061209b92505050565b6110a5611b7d565b6110af6000612183565b565b600160205260009081526040902080546110ca90613a89565b80601f01602080910402602001604051908101604052809291908181526020018280546110f690613a89565b80156111435780601f1061111857610100808354040283529160200191611143565b820191906000526020600020905b81548152906001019060200180831161112657829003601f168201915b505050505081565b6111ef8888888888888080601f0160208091040260200160405190810160405280939291908181526020018383808284376000920191909152508a925061119891505060208901896136d6565b6111a860408a0160208b016136d6565b6111b560408b018b613b3d565b8080601f0160208091040260200160405190810160405280939291908181526020018383808284376000920191909152506121d392505050565b505050505050505050565b600061120560095490565b905090565b6060600b8054610bce90613a89565b61ffff811660009081526001602052604081208054606092919061123c90613a89565b80601f016020809104026020016040519081016040528092919081815260200182805461126890613a89565b80156112b55780601f1061128a576101008083540402835291602001916112b5565b820191906000526020600020905b81548152906001019060200180831161129857829003601f168201915b50505050509050805160000361130d5760405162461bcd60e51b815260206004820152601d60248201527f4c7a4170703a206e6f20747275737465642070617468207265636f726400000060448201526064016109cb565b6113286000601483516113209190613b83565b8391906122cf565b9392505050565b6000338161133d82866117cc565b90508381101561139d5760405162461bcd60e51b815260206004820152602560248201527f45524332303a2064656372656173656420616c6c6f77616e63652062656c6f77604482015264207a65726f60d81b60648201526084016109cb565b610d828286868403611bd7565b6000806114278b8b8b8b8b8080601f01602080910402602001604051908101604052809392919081815260200183838082843760009201919091525050604080516020601f8d018190048102820181019092528b81528e93508d9250908c908c90819084018382808284376000920191909152506123dc92505050565b91509150995099975050505050505050565b611441611b7d565b81813060405160200161145693929190613b96565b60408051601f1981840301815291815261ffff85166000908152600160205220906114819082613c04565b507f8c0400cfe2d1199b1a725c78960bcc2a344d869b80590d0f2bd005db15a572ce8383836040516114b593929190613b1f565b60405180910390a1505050565b600033610ce8818585611d75565b6114d8611b7d565b600480546001600160a01b0319166001600160a01b0383169081179091556040519081527f5db758e995a17ec1ad84bdef7e8c3293a0bd6179bcce400dff5d4c3d87db726b9060200160405180910390a150565b611534611b7d565b6040516332fb62e760e21b81526001600160a01b037f0000000000000000000000000000000000000000000000000000000000000000169063cbed8b9c906115889088908890889088908890600401613cc3565b600060405180830381600087803b1580156115a257600080fd5b505af11580156111ef573d6000803e3d6000fd5b61ffff861660009081526005602052604080822090516115d99088908890613abd565b90815260408051602092819003830190206001600160401b038716600090815292529020549050806116595760405162461bcd60e51b815260206004820152602360248201527f4e6f6e626c6f636b696e674c7a4170703a206e6f2073746f726564206d65737360448201526261676560e81b60648201526084016109cb565b80838360405161166a929190613abd565b6040518091039020146116c95760405162461bcd60e51b815260206004820152602160248201527f4e6f6e626c6f636b696e674c7a4170703a20696e76616c6964207061796c6f616044820152601960fa1b60648201526084016109cb565b61ffff871660009081526005602052604080822090516116ec9089908990613abd565b90815260408051602092819003830181206001600160401b038916600090815290845282902093909355601f88018290048202830182019052868252611784918991899089908190840183828082843760009201919091525050604080516020601f8a018190048102820181019092528881528a93509150889088908190840183828082843760009201919091525061201492505050565b7fc264d91f3adc5588250e1551f547752ca0cfa8f6b530d243b9f9f4cab10ea8e587878787856040516117bb959493929190613cfc565b60405180910390a150505050505050565b6001600160a01b03918216600090815260086020908152604080832093909416825291909152205490565b6117ff611b7d565b61ffff83811660008181526002602090815260408083209487168084529482529182902085905581519283528201929092529081018290527f9d5c7c0b934da8fefa9c7760c98383778a12dfbfc0c3b3106518f43fb9508ac0906060016114b5565b3330146118b05760405162461bcd60e51b815260206004820152601f60248201527f4f4654436f72653a2063616c6c6572206d757374206265204f4654436f72650060448201526064016109cb565b6118bb308686612497565b9350846001600160a01b03168a61ffff167fbf551ec93859b170f9b2141bd9298bf3f64322c6f7beb2543a0cb669834118bf866040516118fd91815260200190565b60405180910390a3604051633fe79aed60e11b81526001600160a01b03861690637fcf35da908390611941908e908e908e908e908e908d908d908d90600401613d37565b600060405180830381600088803b15801561195b57600080fd5b5087f115801561196f573d6000803e3d6000fd5b505050505050505050505050505050565b611988611b7d565b61ffff831660009081526001602052604090206119a6828483613d92565b507ffa41487ad5d6728f0b19276fa1eddc16558578f5109fc39d2dc33c3230470dab8383836040516114b593929190613b1f565b6119e2611b7d565b6001600160a01b038116611a475760405162461bcd60e51b815260206004820152602660248201527f4f776e61626c653a206e6577206f776e657220697320746865207a65726f206160448201526564647265737360d01b60648201526084016109cb565b611a5081612183565b50565b604051633d7b2f6f60e21b815261ffff808616600483015284166024820152306044820152606481018290526060907f00000000000000000000000000000000000000000000000000000000000000006001600160a01b03169063f5ecbdbc90608401600060405180830381865afa158015611ad3573d6000803e3d6000fd5b505050506040513d6000823e601f3d908101601f19168201604052611afb9190810190613e51565b95945050505050565b600080611b675a60966366ad5c8a60e01b89898989604051602401611b2c9493929190613ebe565b60408051601f198184030181529190526020810180516001600160e01b03166001600160e01b031990931692909217909152309291906124e9565b915091508161102a5761102a8686868685612573565b6000546001600160a01b031633146110af5760405162461bcd60e51b815260206004820181905260248201527f4f776e61626c653a2063616c6c6572206973206e6f7420746865206f776e657260448201526064016109cb565b6001600160a01b038316611c395760405162461bcd60e51b8152602060048201526024808201527f45524332303a20617070726f76652066726f6d20746865207a65726f206164646044820152637265737360e01b60648201526084016109cb565b6001600160a01b038216611c9a5760405162461bcd60e51b815260206004820152602260248201527f45524332303a20617070726f766520746f20746865207a65726f206164647265604482015261737360f01b60648201526084016109cb565b6001600160a01b0383811660008181526008602090815260408083209487168084529482529182902085905590518481527f8c5be1e5ebec7d5bd14f71427d1e84f3dd0314c0f7b2291e5b200ac8c7c3b925910160405180910390a3505050565b6000611d0784846117cc565b90506000198114611d6f5781811015611d625760405162461bcd60e51b815260206004820152601d60248201527f45524332303a20696e73756666696369656e7420616c6c6f77616e636500000060448201526064016109cb565b611d6f8484848403611bd7565b50505050565b6001600160a01b038316611dd95760405162461bcd60e51b815260206004820152602560248201527f45524332303a207472616e736665722066726f6d20746865207a65726f206164604482015264647265737360d81b60648201526084016109cb565b6001600160a01b038216611e3b5760405162461bcd60e51b815260206004820152602360248201527f45524332303a207472616e7366657220746f20746865207a65726f206164647260448201526265737360e81b60648201526084016109cb565b6001600160a01b03831660009081526007602052604090205481811015611eb35760405162461bcd60e51b815260206004820152602660248201527f45524332303a207472616e7366657220616d6f756e7420657863656564732062604482015265616c616e636560d01b60648201526084016109cb565b6001600160a01b0380851660008181526007602052604080822086860390559286168082529083902080548601905591517fddf252ad1be2c89b69c2b068fc378daa952ba7f163c4a11628f55a4df523b3ef90611f139086815260200190565b60405180910390a3611d6f565b6000806000611f6e87611f3288612615565b6040805160006020820152602181019390935260c09190911b6001600160c01b0319166041830152805160298184030181526049909201905290565b60405163040a7bb160e41b81529091506001600160a01b037f000000000000000000000000000000000000000000000000000000000000000016906340a7bb1090611fc5908b90309086908b908b90600401613efc565b6040805180830381865afa158015611fe1573d6000803e3d6000fd5b505050506040513d601f19601f820116820180604052508101906120059190613f50565b92509250509550959350505050565b6000612020828261269b565b905060ff811661203b57612036858585856126f7565b610cd3565b60001960ff8216016120535761203685858585612787565b60405162461bcd60e51b815260206004820152601c60248201527f4f4654436f72653a20756e6b6e6f776e207061636b657420747970650000000060448201526064016109cb565b60006120a987828481612995565b6120b285612a6a565b5090506120c188888884612aaa565b90506000811161210f5760405162461bcd60e51b815260206004820152601960248201527813d19510dbdc994e88185b5bdd5b9d081d1bdbc81cdb585b1b603a1b60448201526064016109cb565b600061211e87611f3284612615565b905061212e888287878734612adc565b86896001600160a01b03168961ffff167fd81fc9b8523134ed613870ed029d6170cbb73aa6a6bc311b9a642689fb9df59a8560405161216f91815260200190565b60405180910390a450979650505050505050565b600080546001600160a01b038381166001600160a01b0319831681178455604051919092169283917f8be0079c531659141344cd1fd0a4f28419497f9722a3daafe3b4186f6b6457e09190a35050565b60006121eb896001846001600160401b038916612995565b6121f487612a6a565b5090506122038a8a8a84612aaa565b9050600081116122515760405162461bcd60e51b815260206004820152601960248201527813d19510dbdc994e88185b5bdd5b9d081d1bdbc81cdb585b1b603a1b60448201526064016109cb565b6000612268338a61226185612615565b8a8a612c81565b90506122788a8287878734612adc565b888b6001600160a01b03168b61ffff167fd81fc9b8523134ed613870ed029d6170cbb73aa6a6bc311b9a642689fb9df59a856040516122b991815260200190565b60405180910390a4509998505050505050505050565b6060816122dd81601f613ae3565b101561231c5760405162461bcd60e51b815260206004820152600e60248201526d736c6963655f6f766572666c6f7760901b60448201526064016109cb565b6123268284613ae3565b8451101561236a5760405162461bcd60e51b8152602060048201526011602482015270736c6963655f6f75744f66426f756e647360781b60448201526064016109cb565b60608215801561238957604051915060008252602082016040526123d3565b6040519150601f8416801560200281840101858101878315602002848b0101015b818310156123c25780518352602092830192016123aa565b5050858452601f01601f1916604052505b50949350505050565b60008060006123ef338a6122618b612615565b60405163040a7bb160e41b81529091506001600160a01b037f000000000000000000000000000000000000000000000000000000000000000016906340a7bb1090612446908d90309086908b908b90600401613efc565b6040805180830381865afa158015612462573d6000803e3d6000fd5b505050506040513d601f19601f820116820180604052508101906124869190613f50565b925092505097509795505050505050565b600033306001600160a01b038616148015906124c55750806001600160a01b0316856001600160a01b031614155b156124d5576124d5858285611cfb565b6124e0858585611d75565b50909392505050565b6000606060008060008661ffff166001600160401b0381111561250e5761250e61353e565b6040519080825280601f01601f191660200182016040528015612538576020820181803683370190505b50905060008087516020890160008d8df191503d92508683111561255a578692505b828152826000602083013e909890975095505050505050565b8180519060200120600560008761ffff1661ffff168152602001908152602001600020856040516125a49190613f74565b9081526040805191829003602090810183206001600160401b0388166000908152915220919091557fe183f33de2837795525b4792ca4cd60535bd77c53b7e7030060bfcf5734d6b0c906126019087908790879087908790613f90565b60405180910390a15050505050565b505050565b6000806126427f000000000000000000000000000000000000000000000000000000000000000084613ff8565b90506001600160401b03811115610bb95760405162461bcd60e51b815260206004820152601a60248201527f4f4654436f72653a20616d6f756e745344206f766572666c6f7700000000000060448201526064016109cb565b60006126a8826001613ae3565b835110156126ee5760405162461bcd60e51b8152602060048201526013602482015272746f55696e74385f6f75744f66426f756e647360681b60448201526064016109cb565b50016001015190565b60008061270383612cc2565b90925090506001600160a01b03821661271c5761dead91505b600061272782612d47565b9050612734878483612d7c565b9050826001600160a01b03168761ffff167fbf551ec93859b170f9b2141bd9298bf3f64322c6f7beb2543a0cb669834118bf8360405161277691815260200190565b60405180910390a350505050505050565b600080600080600061279886612d8f565b945094509450945094506000600660008b61ffff1661ffff168152602001908152602001600020896040516127cd9190613f74565b90815260408051602092819003830190206001600160401b038b166000908152925281205460ff16915061280085612d47565b90508161286e576128128b3083612d7c565b61ffff8c1660009081526006602052604090819020905191925060019161283a908d90613f74565b90815260408051602092819003830190206001600160401b038d16600090815292529020805460ff19169115159190911790555b6001600160a01b0386163b6128c5576040516001600160a01b03871681527f9aedf5fdba8716db3b6705ca00150643309995d4f818a249ed6dde6677e7792d9060200160405180910390a150505050505050611d6f565b8a8a8a8a8a8a868a60008a6128e3578b6001600160401b03166128e5565b5a5b90506000806129175a609663eaffd49a60e01b8e8e8e8d8d8d8d8d604051602401611b2c98979695949392919061400c565b915091508115612970578751602089012060405161ffff8d16907fb8890edbfc1c74692f527444645f95489c3703cc2df42e4a366f5d06fa6cd88490612962908e908e908690614080565b60405180910390a25061297d565b61297d8b8b8b8b85612573565b50505050505050505050505050505050505050505050565b60006129a083612e46565b61ffff80871660009081526002602090815260408083209389168352929052205490915080612a115760405162461bcd60e51b815260206004820152601a60248201527f4c7a4170703a206d696e4761734c696d6974206e6f742073657400000000000060448201526064016109cb565b612a1b8382613ae3565b82101561102a5760405162461bcd60e51b815260206004820152601b60248201527f4c7a4170703a20676173206c696d697420697320746f6f206c6f77000000000060448201526064016109cb565b600080612a977f0000000000000000000000000000000000000000000000000000000000000000846140ae565b9050612aa38184613b83565b9150915091565b6000336001600160a01b0386168114612ac857612ac8868285611cfb565b612ad28684612ea2565b5090949350505050565b61ffff861660009081526001602052604081208054612afa90613a89565b80601f0160208091040260200160405190810160405280929190818152602001828054612b2690613a89565b8015612b735780601f10612b4857610100808354040283529160200191612b73565b820191906000526020600020905b815481529060010190602001808311612b5657829003601f168201915b505050505090508051600003612be45760405162461bcd60e51b815260206004820152603060248201527f4c7a4170703a2064657374696e6174696f6e20636861696e206973206e6f742060448201526f61207472757374656420736f7572636560801b60648201526084016109cb565b612bef878751612fd6565b60405162c5803160e81b81526001600160a01b037f0000000000000000000000000000000000000000000000000000000000000000169063c5803100908490612c46908b9086908c908c908c908c906004016140c2565b6000604051808303818588803b158015612c5f57600080fd5b505af1158015612c73573d6000803e3d6000fd5b505050505050505050505050565b6060600185856001600160a01b0389168587604051602001612ca896959493929190614129565b604051602081830303815290604052905095945050505050565b60008080612cd0848261269b565b60ff16148015612ce1575082516029145b612d285760405162461bcd60e51b815260206004820152601860248201527713d19510dbdc994e881a5b9d985b1a59081c185e5b1bd85960421b60448201526064016109cb565b612d3383600d613047565b9150612d408360216130ac565b9050915091565b6000610bb97f00000000000000000000000000000000000000000000000000000000000000006001600160401b03841661418a565b6000612d888383613109565b5092915050565b600080806060816001612da2878361269b565b60ff1614612ded5760405162461bcd60e51b815260206004820152601860248201527713d19510dbdc994e881a5b9d985b1a59081c185e5b1bd85960421b60448201526064016109cb565b612df886600d613047565b9350612e058660216130ac565b9250612e128660296131ca565b9450612e1f8660496130ac565b9050612e3b6051808851612e339190613b83565b8891906122cf565b915091939590929450565b6000602282511015612e9a5760405162461bcd60e51b815260206004820152601c60248201527f4c7a4170703a20696e76616c69642061646170746572506172616d730000000060448201526064016109cb565b506022015190565b6001600160a01b038216612f025760405162461bcd60e51b815260206004820152602160248201527f45524332303a206275726e2066726f6d20746865207a65726f206164647265736044820152607360f81b60648201526084016109cb565b6001600160a01b03821660009081526007602052604090205481811015612f765760405162461bcd60e51b815260206004820152602260248201527f45524332303a206275726e20616d6f756e7420657863656564732062616c616e604482015261636560f01b60648201526084016109cb565b6001600160a01b03831660008181526007602090815260408083208686039055600980548790039055518581529192917fddf252ad1be2c89b69c2b068fc378daa952ba7f163c4a11628f55a4df523b3ef910160405180910390a3505050565b61ffff821660009081526003602052604081205490819003612ff757506127105b808211156126105760405162461bcd60e51b815260206004820181905260248201527f4c7a4170703a207061796c6f61642073697a6520697320746f6f206c6172676560448201526064016109cb565b6000613054826014613ae3565b8351101561309c5760405162461bcd60e51b8152602060048201526015602482015274746f416464726573735f6f75744f66426f756e647360581b60448201526064016109cb565b500160200151600160601b900490565b60006130b9826008613ae3565b835110156131005760405162461bcd60e51b8152602060048201526014602482015273746f55696e7436345f6f75744f66426f756e647360601b60448201526064016109cb565b50016008015190565b6001600160a01b03821661315f5760405162461bcd60e51b815260206004820152601f60248201527f45524332303a206d696e7420746f20746865207a65726f20616464726573730060448201526064016109cb565b80600960008282546131719190613ae3565b90915550506001600160a01b0382166000818152600760209081526040808320805486019055518481527fddf252ad1be2c89b69c2b068fc378daa952ba7f163c4a11628f55a4df523b3ef910160405180910390a35050565b60006131d7826020613ae3565b8351101561321f5760405162461bcd60e51b8152602060048201526015602482015274746f427974657333325f6f75744f66426f756e647360581b60448201526064016109cb565b50016020015190565b803561ffff8116811461323a57600080fd5b919050565b60008083601f84011261325157600080fd5b5081356001600160401b0381111561326857600080fd5b60208301915083602082850101111561328057600080fd5b9250929050565b80356001600160401b038116811461323a57600080fd5b600080600080600080608087890312156132b757600080fd5b6132c087613228565b955060208701356001600160401b03808211156132dc57600080fd5b6132e88a838b0161323f565b90975095508591506132fc60408a01613287565b9450606089013591508082111561331257600080fd5b5061331f89828a0161323f565b979a9699509497509295939492505050565b60006020828403121561334357600080fd5b81356001600160e01b03198116811461132857600080fd5b60005b8381101561337657818101518382015260200161335e565b50506000910152565b6000815180845261339781602086016020860161335b565b601f01601f19169290920160200192915050565b602081526000611328602083018461337f565b6000602082840312156133d057600080fd5b61132882613228565b6001600160a01b0381168114611a5057600080fd5b6000806040838503121561340157600080fd5b823561340c816133d9565b946020939093013593505050565b6000806040838503121561342d57600080fd5b61340c83613228565b60008060006060848603121561344b57600080fd5b8335613456816133d9565b92506020840135613466816133d9565b929592945050506040919091013590565b8035801515811461323a57600080fd5b60008060008060008060a087890312156134a057600080fd5b6134a987613228565b955060208701359450604087013593506134c560608801613477565b925060808701356001600160401b038111156134e057600080fd5b61331f89828a0161323f565b60008060006040848603121561350157600080fd5b61350a84613228565b925060208401356001600160401b0381111561352557600080fd5b6135318682870161323f565b9497909650939450505050565b634e487b7160e01b600052604160045260246000fd5b604051601f8201601f191681016001600160401b038111828210171561357c5761357c61353e565b604052919050565b60006001600160401b0382111561359d5761359d61353e565b50601f01601f191660200190565b6000806000606084860312156135c057600080fd5b6135c984613228565b925060208401356001600160401b038111156135e457600080fd5b8401601f810186136135f557600080fd5b803561360861360382613584565b613554565b81815287602083850101111561361d57600080fd5b8160208401602083013760006020838301015280945050505061364260408501613287565b90509250925092565b60006060828403121561365d57600080fd5b50919050565b600080600080600060a0868803121561367b57600080fd5b8535613686816133d9565b945061369460208701613228565b9350604086013592506060860135915060808601356001600160401b038111156136bd57600080fd5b6136c98882890161364b565b9150509295509295909350565b6000602082840312156136e857600080fd5b8135611328816133d9565b60008060008060008060008060e0898b03121561370f57600080fd5b883561371a816133d9565b975061372860208a01613228565b9650604089013595506060890135945060808901356001600160401b038082111561375257600080fd5b61375e8c838d0161323f565b909650945084915061377260a08c01613287565b935060c08b013591508082111561378857600080fd5b506137958b828c0161364b565b9150509295985092959890939650565b600080604083850312156137b857600080fd5b6137c183613228565b91506137cf60208401613228565b90509250929050565b600080600080600080600080600060e08a8c0312156137f657600080fd5b6137ff8a613228565b985060208a0135975060408a0135965060608a01356001600160401b038082111561382957600080fd5b6138358d838e0161323f565b909850965086915061384960808d01613287565b955061385760a08d01613477565b945060c08c013591508082111561386d57600080fd5b5061387a8c828d0161323f565b915080935050809150509295985092959850929598565b6000806000806000608086880312156138a957600080fd5b6138b286613228565b94506138c060208701613228565b93506040860135925060608601356001600160401b038111156138e257600080fd5b6138ee8882890161323f565b969995985093965092949392505050565b6000806040838503121561391257600080fd5b823561391d816133d9565b9150602083013561392d816133d9565b809150509250929050565b60008060006060848603121561394d57600080fd5b61395684613228565b925061396460208501613228565b9150604084013590509250925092565b6000806000806000806000806000806101008b8d03121561399457600080fd5b61399d8b613228565b995060208b01356001600160401b03808211156139b957600080fd5b6139c58e838f0161323f565b909b5099508991506139d960408e01613287565b985060608d0135975060808d013591506139f2826133d9565b90955060a08c0135945060c08c01359080821115613a0f57600080fd5b50613a1c8d828e0161323f565b9150809450508092505060e08b013590509295989b9194979a5092959850565b60008060008060808587031215613a5257600080fd5b613a5b85613228565b9350613a6960208601613228565b92506040850135613a79816133d9565b9396929550929360600135925050565b600181811c90821680613a9d57607f821691505b60208210810361365d57634e487b7160e01b600052602260045260246000fd5b8183823760009101908152919050565b634e487b7160e01b600052601160045260246000fd5b80820180821115610bb957610bb9613acd565b81835281816020850137506000828201602090810191909152601f909101601f19169091010190565b61ffff84168152604060208201526000611afb604083018486613af6565b6000808335601e19843603018112613b5457600080fd5b8301803591506001600160401b03821115613b6e57600080fd5b60200191503681900382131561328057600080fd5b81810381811115610bb957610bb9613acd565b8284823760609190911b6bffffffffffffffffffffffff19169101908152601401919050565b601f821115612610576000816000526020600020601f850160051c81016020861015613be55750805b601f850160051c820191505b8181101561102a57828155600101613bf1565b81516001600160401b03811115613c1d57613c1d61353e565b613c3181613c2b8454613a89565b84613bbc565b602080601f831160018114613c665760008415613c4e5750858301515b600019600386901b1c1916600185901b17855561102a565b600085815260208120601f198616915b82811015613c9557888601518255948401946001909101908401613c76565b5085821015613cb35787850151600019600388901b60f8161c191681555b5050505050600190811b01905550565b600061ffff808816835280871660208401525084604083015260806060830152613cf1608083018486613af6565b979650505050505050565b61ffff86168152608060208201526000613d1a608083018688613af6565b6001600160401b0394909416604083015250606001529392505050565b61ffff8916815260c060208201526000613d5560c08301898b613af6565b6001600160401b038816604084015286606084015285608084015282810360a0840152613d83818587613af6565b9b9a5050505050505050505050565b6001600160401b03831115613da957613da961353e565b613dbd83613db78354613a89565b83613bbc565b6000601f841160018114613df15760008515613dd95750838201355b600019600387901b1c1916600186901b178355610cd3565b600083815260209020601f19861690835b82811015613e225786850135825560209485019460019092019101613e02565b5086821015613e3f5760001960f88860031b161c19848701351681555b505060018560011b0183555050505050565b600060208284031215613e6357600080fd5b81516001600160401b03811115613e7957600080fd5b8201601f81018413613e8a57600080fd5b8051613e9861360382613584565b818152856020838501011115613ead57600080fd5b611afb82602083016020860161335b565b61ffff85168152608060208201526000613edb608083018661337f565b6001600160401b03851660408401528281036060840152613cf1818561337f565b61ffff861681526001600160a01b038516602082015260a060408201819052600090613f2a9083018661337f565b84151560608401528281036080840152613f44818561337f565b98975050505050505050565b60008060408385031215613f6357600080fd5b505080516020909101519092909150565b60008251613f8681846020870161335b565b9190910192915050565b61ffff8616815260a060208201526000613fad60a083018761337f565b6001600160401b03861660408401528281036060840152613fce818661337f565b90508281036080840152613f44818561337f565b634e487b7160e01b600052601260045260246000fd5b60008261400757614007613fe2565b500490565b600061010061ffff8b16835280602084015261402a8184018b61337f565b6001600160401b038a166040850152606084018990526001600160a01b038816608085015260a0840187905283810360c0850152905061406a818661337f565b9150508260e08301529998505050505050505050565b606081526000614093606083018661337f565b6001600160401b039490941660208301525060400152919050565b6000826140bd576140bd613fe2565b500690565b61ffff8716815260c0602082015260006140df60c083018861337f565b82810360408401526140f1818861337f565b6001600160a01b0387811660608601528616608085015283810360a0850152905061411c818561337f565b9998505050505050505050565b60ff60f81b8760f81b16815285600182015260006001600160401b0360c01b808760c01b166021840152856029840152808560c01b16604984015250825161417881605185016020870161335b565b91909101605101979650505050505050565b8082028115828204841417610bb957610bb9613acd56fea2646970667358221220415054a10a1620eda7fd5f862989d3b466b35b2f49e5f82543fac21c51d5eaf064736f6c63430008160033",
    "linkReferences": {}
  },
  "methodIdentifiers": {
    "DEFAULT_PAYLOAD_SIZE_LIMIT()": "c4461834",
    "NO_EXTRA_GAS()": "44770515",
    "PT_SEND()": "4c42899a",
    "PT_SEND_AND_CALL()": "e6a20ae6",
    "allowance(address,address)": "dd62ed3e",
    "approve(address,uint256)": "095ea7b3",
    "balanceOf(address)": "70a08231",
    "callOnOFTReceived(uint16,bytes,uint64,bytes32,address,uint256,bytes,uint256)": "eaffd49a",
    "circulatingSupply()": "9358928b",
    "creditedPackets(uint16,bytes,uint64)": "9bdb9812",
    "decimals()": "313ce567",
    "decreaseAllowance(address,uint256)": "a457c2d7",
    "estimateSendAndCallFee(uint16,bytes32,uint256,bytes,uint64,bool,bytes)": "a4c51df5",
    "estimateSendFee(uint16,bytes32,uint256,bool,bytes)": "365260b4",
    "failedMessages(uint16,bytes,uint64)": "5b8c41e6",
    "forceResumeReceive(uint16,bytes)": "42d65a8d",
    "getConfig(uint16,uint16,address,uint256)": "f5ecbdbc",
    "getTrustedRemoteAddress(uint16)": "9f38369a",
    "increaseAllowance(address,uint256)": "39509351",
    "isTrustedRemote(uint16,bytes)": "3d8b38f6",
    "lzEndpoint()": "b353aaa7",
    "lzReceive(uint16,bytes,uint64,bytes)": "001d3567",
    "minDstGasLookup(uint16,uint16)": "8cfd8f5c",
    "name()": "06fdde03",
    "nonblockingLzReceive(uint16,bytes,uint64,bytes)": "66ad5c8a",
    "owner()": "8da5cb5b",
    "payloadSizeLimitLookup(uint16)": "3f1f4fa4",
    "precrime()": "950c8a74",
    "renounceOwnership()": "715018a6",
    "retryMessage(uint16,bytes,uint64,bytes)": "d1deba1f",
    "sendAndCall(address,uint16,bytes32,uint256,bytes,uint64,(address,address,bytes))": "76203b48",
    "sendFrom(address,uint16,bytes32,uint256,(address,address,bytes))": "695ef6bf",
    "setConfig(uint16,uint16,uint256,bytes)": "cbed8b9c",
    "setMinDstGas(uint16,uint16,uint256)": "df2a5b3b",
    "setPayloadSizeLimit(uint16,uint256)": "0df37483",
    "setPrecrime(address)": "baf3292d",
    "setReceiveVersion(uint16)": "10ddb137",
    "setSendVersion(uint16)": "07e0db17",
    "setTrustedRemote(uint16,bytes)": "eb8d72b7",
    "setTrustedRemoteAddress(uint16,bytes)": "a6c3d165",
    "sharedDecimals()": "857749b0",
    "supportsInterface(bytes4)": "01ffc9a7",
    "symbol()": "95d89b41",
    "token()": "fc0c546a",
    "totalSupply()": "18160ddd",
    "transfer(address,uint256)": "a9059cbb",
    "transferFrom(address,address,uint256)": "23b872dd",
    "transferOwnership(address)": "f2fde38b",
    "trustedRemoteLookup(uint16)": "7533d788"
  },
  "id": 23
}