{
  "abi": [
    {
      "inputs": [
        {
          "internalType": "string",
          "name": "_name",
          "type": "string"
        },
        {
          "internalType": "string",
          "name": "_symbol",
          "type": "string"
        },
        {
          "internalType": "uint256",
          "name": "_minGasToTransfer",
          "type": "uint256"
        },
        {
          "internalType": "address",
          "name": "_lzEndpoint",
          "type": "address"
        }
      ],
      "stateMutability": "nonpayable",
      "type": "constructor"
    },
    {
      "anonymous": false,
      "inputs": [
        {
          "indexed": true,
          "internalType": "address",
          "name": "owner",
          "type": "address"
        },
        {
          "indexed": true,
          "internalType": "address",
          "name": "approved",
          "type": "address"
        },
        {
          "indexed": true,
          "internalType": "uint256",
          "name": "tokenId",
          "type": "uint256"
        }
      ],
      "name": "Approval",
      "type": "event"
    },
    {
      "anonymous": false,
      "inputs": [
        {
          "indexed": true,
          "internalType": "address",
          "name": "owner",
          "type": "address"
        },
        {
          "indexed": true,
          "internalType": "address",
          "name": "operator",
          "type": "address"
        },
        {
          "indexed": false,
          "internalType": "bool",
          "name": "approved",
          "type": "bool"
        }
      ],
      "name": "ApprovalForAll",
      "type": "event"
    },
    {
      "anonymous": false,
      "inputs": [
        {
          "indexed": false,
          "internalType": "bytes32",
          "name": "_hashedPayload",
          "type": "bytes32"
        }
      ],
      "name": "CreditCleared",
      "type": "event"
    },
    {
      "anonymous": false,
      "inputs": [
        {
          "indexed": false,
          "internalType": "bytes32",
          "name": "_hashedPayload",
          "type": "bytes32"
        },
        {
          "indexed": false,
          "internalType": "bytes",
          "name": "_payload",
          "type": "bytes"
        }
      ],
      "name": "CreditStored",
      "type": "event"
    },
    {
      "anonymous": false,
      "inputs": [
        {
          "indexed": false,
          "internalType": "uint16",
          "name": "_srcChainId",
          "type": "uint16"
        },
        {
          "indexed": false,
          "internalType": "bytes",
          "name": "_srcAddress",
          "type": "bytes"
        },
        {
          "indexed": false,
          "internalType": "uint64",
          "name": "_nonce",
          "type": "uint64"
        },
        {
          "indexed": false,
          "internalType": "bytes",
          "name": "_payload",
          "type": "bytes"
        },
        {
          "indexed": false,
          "internalType": "bytes",
          "name": "_reason",
          "type": "bytes"
        }
      ],
      "name": "MessageFailed",
      "type": "event"
    },
    {
      "anonymous": false,
      "inputs": [
        {
          "indexed": true,
          "internalType": "address",
          "name": "previousOwner",
          "type": "address"
        },
        {
          "indexed": true,
          "internalType": "address",
          "name": "newOwner",
          "type": "address"
        }
      ],
      "name": "OwnershipTransferred",
      "type": "event"
    },
    {
      "anonymous": false,
      "inputs": [
        {
          "indexed": true,
          "internalType": "uint16",
          "name": "_srcChainId",
          "type": "uint16"
        },
        {
          "indexed": true,
          "internalType": "bytes",
          "name": "_srcAddress",
          "type": "bytes"
        },
        {
          "indexed": true,
          "internalType": "address",
          "name": "_toAddress",
          "type": "address"
        },
        {
          "indexed": false,
          "internalType": "uint256[]",
          "name": "_tokenIds",
          "type": "uint256[]"
        }
      ],
      "name": "ReceiveFromChain",
      "type": "event"
    },
    {
      "anonymous": false,
      "inputs": [
        {
          "indexed": false,
          "internalType": "uint16",
          "name": "_srcChainId",
          "type": "uint16"
        },
        {
          "indexed": false,
          "internalType": "bytes",
          "name": "_srcAddress",
          "type": "bytes"
        },
        {
          "indexed": false,
          "internalType": "uint64",
          "name": "_nonce",
          "type": "uint64"
        },
        {
          "indexed": false,
          "internalType": "bytes32",
          "name": "_payloadHash",
          "type": "bytes32"
        }
      ],
      "name": "RetryMessageSuccess",
      "type": "event"
    },
    {
      "anonymous": false,
      "inputs": [
        {
          "indexed": true,
          "internalType": "uint16",
          "name": "_dstChainId",
          "type": "uint16"
        },
        {
          "indexed": true,
          "internalType": "address",
          "name": "_from",
          "type": "address"
        },
        {
          "indexed": true,
          "internalType": "bytes",
          "name": "_toAddress",
          "type": "bytes"
        },
        {
          "indexed": false,
          "internalType": "uint256[]",
          "name": "_tokenIds",
          "type": "uint256[]"
        }
      ],
      "name": "SendToChain",
      "type": "event"
    },
    {
      "anonymous": false,
      "inputs": [
        {
          "indexed": false,
          "internalType": "uint16",
          "name": "_dstChainId",
          "type": "uint16"
        },
        {
          "indexed": false,
          "internalType": "uint256",
          "name": "_dstChainIdToBatchLimit",
          "type": "uint256"
        }
      ],
      "name": "SetDstChainIdToBatchLimit",
      "type": "event"
    },
    {
      "anonymous": false,
      "inputs": [
        {
          "indexed": false,
          "internalType": "uint16",
          "name": "_dstChainId",
          "type": "uint16"
        },
        {
          "indexed": false,
          "internalType": "uint256",
          "name": "_dstChainIdToTransferGas",
          "type": "uint256"
        }
      ],
      "name": "SetDstChainIdToTransferGas",
      "type": "event"
    },
    {
      "anonymous": false,
      "inputs": [
        {
          "indexed": false,
          "internalType": "uint16",
          "name": "_dstChainId",
          "type": "uint16"
        },
        {
          "indexed": false,
          "internalType": "uint16",
          "name": "_type",
          "type": "uint16"
        },
        {
          "indexed": false,
          "internalType": "uint256",
          "name": "_minDstGas",
          "type": "uint256"
        }
      ],
      "name": "SetMinDstGas",
      "type": "event"
    },
    {
      "anonymous": false,
      "inputs": [
        {
          "indexed": false,
          "internalType": "uint256",
          "name": "_minGasToTransferAndStore",
          "type": "uint256"
        }
      ],
      "name": "SetMinGasToTransferAndStore",
      "type": "event"
    },
    {
      "anonymous": false,
      "inputs": [
        {
          "indexed": false,
          "internalType": "address",
          "name": "precrime",
          "type": "address"
        }
      ],
      "name": "SetPrecrime",
      "type": "event"
    },
    {
      "anonymous": false,
      "inputs": [
        {
          "indexed": false,
          "internalType": "uint16",
          "name": "_remoteChainId",
          "type": "uint16"
        },
        {
          "indexed": false,
          "internalType": "bytes",
          "name": "_path",
          "type": "bytes"
        }
      ],
      "name": "SetTrustedRemote",
      "type": "event"
    },
    {
      "anonymous": false,
      "inputs": [
        {
          "indexed": false,
          "internalType": "uint16",
          "name": "_remoteChainId",
          "type": "uint16"
        },
        {
          "indexed": false,
          "internalType": "bytes",
          "name": "_remoteAddress",
          "type": "bytes"
        }
      ],
      "name": "SetTrustedRemoteAddress",
      "type": "event"
    },
    {
      "anonymous": false,
      "inputs": [
        {
          "indexed": true,
          "internalType": "address",
          "name": "from",
          "type": "address"
        },
        {
          "indexed": true,
          "internalType": "address",
          "name": "to",
          "type": "address"
        },
        {
          "indexed": true,
          "internalType": "uint256",
          "name": "tokenId",
          "type": "uint256"
        }
      ],
      "name": "Transfer",
      "type": "event"
    },
    {
      "inputs": [],
      "name": "DEFAULT_PAYLOAD_SIZE_LIMIT",
      "outputs": [
        {
          "internalType": "uint256",
          "name": "",
          "type": "uint256"
        }
      ],
      "stateMutability": "view",
      "type": "function"
    },
    {
      "inputs": [],
      "name": "FUNCTION_TYPE_SEND",
      "outputs": [
        {
          "internalType": "uint16",
          "name": "",
          "type": "uint16"
        }
      ],
      "stateMutability": "view",
      "type": "function"
    },
    {
      "inputs": [
        {
          "internalType": "address",
          "name": "to",
          "type": "address"
        },
        {
          "internalType": "uint256",
          "name": "tokenId",
          "type": "uint256"
        }
      ],
      "name": "approve",
      "outputs": [],
      "stateMutability": "nonpayable",
      "type": "function"
    },
    {
      "inputs": [
        {
          "internalType": "address",
          "name": "owner",
          "type": "address"
        }
      ],
      "name": "balanceOf",
      "outputs": [
        {
          "internalType": "uint256",
          "name": "",
          "type": "uint256"
        }
      ],
      "stateMutability": "view",
      "type": "function"
    },
    {
      "inputs": [
        {
          "internalType": "bytes",
          "name": "_payload",
          "type": "bytes"
        }
      ],
      "name": "clearCredits",
      "outputs": [],
      "stateMutability": "nonpayable",
      "type": "function"
    },
    {
      "inputs": [
        {
          "internalType": "uint16",
          "name": "",
          "type": "uint16"
        }
      ],
      "name": "dstChainIdToBatchLimit",
      "outputs": [
        {
          "internalType": "uint256",
          "name": "",
          "type": "uint256"
        }
      ],
      "stateMutability": "view",
      "type": "function"
    },
    {
      "inputs": [
        {
          "internalType": "uint16",
          "name": "",
          "type": "uint16"
        }
      ],
      "name": "dstChainIdToTransferGas",
      "outputs": [
        {
          "internalType": "uint256",
          "name": "",
          "type": "uint256"
        }
      ],
      "stateMutability": "view",
      "type": "function"
    },
    {
      "inputs": [
        {
          "internalType": "uint16",
          "name": "_dstChainId",
          "type": "uint16"
        },
        {
          "internalType": "bytes",
          "name": "_toAddress",
          "type": "bytes"
        },
        {
          "internalType": "uint256[]",
          "name": "_tokenIds",
          "type": "uint256[]"
        },
        {
          "internalType": "bool",
          "name": "_useZro",
          "type": "bool"
        },
        {
          "internalType": "bytes",
          "name": "_adapterParams",
          "type": "bytes"
        }
      ],
      "name": "estimateSendBatchFee",
      "outputs": [
        {
          "internalType": "uint256",
          "name": "nativeFee",
          "type": "uint256"
        },
        {
          "internalType": "uint256",
          "name": "zroFee",
          "type": "uint256"
        }
      ],
      "stateMutability": "view",
      "type": "function"
    },
    {
      "inputs": [
        {
          "internalType": "uint16",
          "name": "_dstChainId",
          "type": "uint16"
        },
        {
          "internalType": "bytes",
          "name": "_toAddress",
          "type": "bytes"
        },
        {
          "internalType": "uint256",
          "name": "_tokenId",
          "type": "uint256"
        },
        {
          "internalType": "bool",
          "name": "_useZro",
          "type": "bool"
        },
        {
          "internalType": "bytes",
          "name": "_adapterParams",
          "type": "bytes"
        }
      ],
      "name": "estimateSendFee",
      "outputs": [
        {
          "internalType": "uint256",
          "name": "nativeFee",
          "type": "uint256"
        },
        {
          "internalType": "uint256",
          "name": "zroFee",
          "type": "uint256"
        }
      ],
      "stateMutability": "view",
      "type": "function"
    },
    {
      "inputs": [
        {
          "internalType": "uint16",
          "name": "",
          "type": "uint16"
        },
        {
          "internalType": "bytes",
          "name": "",
          "type": "bytes"
        },
        {
          "internalType": "uint64",
          "name": "",
          "type": "uint64"
        }
      ],
      "name": "failedMessages",
      "outputs": [
        {
          "internalType": "bytes32",
          "name": "",
          "type": "bytes32"
        }
      ],
      "stateMutability": "view",
      "type": "function"
    },
    {
      "inputs": [
        {
          "internalType": "uint16",
          "name": "_srcChainId",
          "type": "uint16"
        },
        {
          "internalType": "bytes",
          "name": "_srcAddress",
          "type": "bytes"
        }
      ],
      "name": "forceResumeReceive",
      "outputs": [],
      "stateMutability": "nonpayable",
      "type": "function"
    },
    {
      "inputs": [
        {
          "internalType": "uint256",
          "name": "tokenId",
          "type": "uint256"
        }
      ],
      "name": "getApproved",
      "outputs": [
        {
          "internalType": "address",
          "name": "",
          "type": "address"
        }
      ],
      "stateMutability": "view",
      "type": "function"
    },
    {
      "inputs": [
        {
          "internalType": "uint16",
          "name": "_version",
          "type": "uint16"
        },
        {
          "internalType": "uint16",
          "name": "_chainId",
          "type": "uint16"
        },
        {
          "internalType": "address",
          "name": "",
          "type": "address"
        },
        {
          "internalType": "uint256",
          "name": "_configType",
          "type": "uint256"
        }
      ],
      "name": "getConfig",
      "outputs": [
        {
          "internalType": "bytes",
          "name": "",
          "type": "bytes"
        }
      ],
      "stateMutability": "view",
      "type": "function"
    },
    {
      "inputs": [
        {
          "internalType": "uint16",
          "name": "_remoteChainId",
          "type": "uint16"
        }
      ],
      "name": "getTrustedRemoteAddress",
      "outputs": [
        {
          "internalType": "bytes",
          "name": "",
          "type": "bytes"
        }
      ],
      "stateMutability": "view",
      "type": "function"
    },
    {
      "inputs": [
        {
          "internalType": "address",
          "name": "owner",
          "type": "address"
        },
        {
          "internalType": "address",
          "name": "operator",
          "type": "address"
        }
      ],
      "name": "isApprovedForAll",
      "outputs": [
        {
          "internalType": "bool",
          "name": "",
          "type": "bool"
        }
      ],
      "stateMutability": "view",
      "type": "function"
    },
    {
      "inputs": [
        {
          "internalType": "uint16",
          "name": "_srcChainId",
          "type": "uint16"
        },
        {
          "internalType": "bytes",
          "name": "_srcAddress",
          "type": "bytes"
        }
      ],
      "name": "isTrustedRemote",
      "outputs": [
        {
          "internalType": "bool",
          "name": "",
          "type": "bool"
        }
      ],
      "stateMutability": "view",
      "type": "function"
    },
    {
      "inputs": [],
      "name": "lzEndpoint",
      "outputs": [
        {
          "internalType": "contract ILayerZeroEndpoint",
          "name": "",
          "type": "address"
        }
      ],
      "stateMutability": "view",
      "type": "function"
    },
    {
      "inputs": [
        {
          "internalType": "uint16",
          "name": "_srcChainId",
          "type": "uint16"
        },
        {
          "internalType": "bytes",
          "name": "_srcAddress",
          "type": "bytes"
        },
        {
          "internalType": "uint64",
          "name": "_nonce",
          "type": "uint64"
        },
        {
          "internalType": "bytes",
          "name": "_payload",
          "type": "bytes"
        }
      ],
      "name": "lzReceive",
      "outputs": [],
      "stateMutability": "nonpayable",
      "type": "function"
    },
    {
      "inputs": [
        {
          "internalType": "uint16",
          "name": "",
          "type": "uint16"
        },
        {
          "internalType": "uint16",
          "name": "",
          "type": "uint16"
        }
      ],
      "name": "minDstGasLookup",
      "outputs": [
        {
          "internalType": "uint256",
          "name": "",
          "type": "uint256"
        }
      ],
      "stateMutability": "view",
      "type": "function"
    },
    {
      "inputs": [],
      "name": "minGasToTransferAndStore",
      "outputs": [
        {
          "internalType": "uint256",
          "name": "",
          "type": "uint256"
        }
      ],
      "stateMutability": "view",
      "type": "function"
    },
    {
      "inputs": [],
      "name": "name",
      "outputs": [
        {
          "internalType": "string",
          "name": "",
          "type": "string"
        }
      ],
      "stateMutability": "view",
      "type": "function"
    },
    {
      "inputs": [
        {
          "internalType": "uint16",
          "name": "_srcChainId",
          "type": "uint16"
        },
        {
          "internalType": "bytes",
          "name": "_srcAddress",
          "type": "bytes"
        },
        {
          "internalType": "uint64",
          "name": "_nonce",
          "type": "uint64"
        },
        {
          "internalType": "bytes",
          "name": "_payload",
          "type": "bytes"
        }
      ],
      "name": "nonblockingLzReceive",
      "outputs": [],
      "stateMutability": "nonpayable",
      "type": "function"
    },
    {
      "inputs": [],
      "name": "owner",
      "outputs": [
        {
          "internalType": "address",
          "name": "",
          "type": "address"
        }
      ],
      "stateMutability": "view",
      "type": "function"
    },
    {
      "inputs": [
        {
          "internalType": "uint256",
          "name": "tokenId",
          "type": "uint256"
        }
      ],
      "name": "ownerOf",
      "outputs": [
        {
          "internalType": "address",
          "name": "",
          "type": "address"
        }
      ],
      "stateMutability": "view",
      "type": "function"
    },
    {
      "inputs": [
        {
          "internalType": "uint16",
          "name": "",
          "type": "uint16"
        }
      ],
      "name": "payloadSizeLimitLookup",
      "outputs": [
        {
          "internalType": "uint256",
          "name": "",
          "type": "uint256"
        }
      ],
      "stateMutability": "view",
      "type": "function"
    },
    {
      "inputs": [],
      "name": "precrime",
      "outputs": [
        {
          "internalType": "address",
          "name": "",
          "type": "address"
        }
      ],
      "stateMutability": "view",
      "type": "function"
    },
    {
      "inputs": [],
      "name": "renounceOwnership",
      "outputs": [],
      "stateMutability": "nonpayable",
      "type": "function"
    },
    {
      "inputs": [
        {
          "internalType": "uint16",
          "name": "_srcChainId",
          "type": "uint16"
        },
        {
          "internalType": "bytes",
          "name": "_srcAddress",
          "type": "bytes"
        },
        {
          "internalType": "uint64",
          "name": "_nonce",
          "type": "uint64"
        },
        {
          "internalType": "bytes",
          "name": "_payload",
          "type": "bytes"
        }
      ],
      "name": "retryMessage",
      "outputs": [],
      "stateMutability": "payable",
      "type": "function"
    },
    {
      "inputs": [
        {
          "internalType": "address",
          "name": "from",
          "type": "address"
        },
        {
          "internalType": "address",
          "name": "to",
          "type": "address"
        },
        {
          "internalType": "uint256",
          "name": "tokenId",
          "type": "uint256"
        }
      ],
      "name": "safeTransferFrom",
      "outputs": [],
      "stateMutability": "nonpayable",
      "type": "function"
    },
    {
      "inputs": [
        {
          "internalType": "address",
          "name": "from",
          "type": "address"
        },
        {
          "internalType": "address",
          "name": "to",
          "type": "address"
        },
        {
          "internalType": "uint256",
          "name": "tokenId",
          "type": "uint256"
        },
        {
          "internalType": "bytes",
          "name": "data",
          "type": "bytes"
        }
      ],
      "name": "safeTransferFrom",
      "outputs": [],
      "stateMutability": "nonpayable",
      "type": "function"
    },
    {
      "inputs": [
        {
          "internalType": "address",
          "name": "_from",
          "type": "address"
        },
        {
          "internalType": "uint16",
          "name": "_dstChainId",
          "type": "uint16"
        },
        {
          "internalType": "bytes",
          "name": "_toAddress",
          "type": "bytes"
        },
        {
          "internalType": "uint256[]",
          "name": "_tokenIds",
          "type": "uint256[]"
        },
        {
          "internalType": "address payable",
          "name": "_refundAddress",
          "type": "address"
        },
        {
          "internalType": "address",
          "name": "_zroPaymentAddress",
          "type": "address"
        },
        {
          "internalType": "bytes",
          "name": "_adapterParams",
          "type": "bytes"
        }
      ],
      "name": "sendBatchFrom",
      "outputs": [],
      "stateMutability": "payable",
      "type": "function"
    },
    {
      "inputs": [
        {
          "internalType": "address",
          "name": "_from",
          "type": "address"
        },
        {
          "internalType": "uint16",
          "name": "_dstChainId",
          "type": "uint16"
        },
        {
          "internalType": "bytes",
          "name": "_toAddress",
          "type": "bytes"
        },
        {
          "internalType": "uint256",
          "name": "_tokenId",
          "type": "uint256"
        },
        {
          "internalType": "address payable",
          "name": "_refundAddress",
          "type": "address"
        },
        {
          "internalType": "address",
          "name": "_zroPaymentAddress",
          "type": "address"
        },
        {
          "internalType": "bytes",
          "name": "_adapterParams",
          "type": "bytes"
        }
      ],
      "name": "sendFrom",
      "outputs": [],
      "stateMutability": "payable",
      "type": "function"
    },
    {
      "inputs": [
        {
          "internalType": "address",
          "name": "operator",
          "type": "address"
        },
        {
          "internalType": "bool",
          "name": "approved",
          "type": "bool"
        }
      ],
      "name": "setApprovalForAll",
      "outputs": [],
      "stateMutability": "nonpayable",
      "type": "function"
    },
    {
      "inputs": [
        {
          "internalType": "uint16",
          "name": "_version",
          "type": "uint16"
        },
        {
          "internalType": "uint16",
          "name": "_chainId",
          "type": "uint16"
        },
        {
          "internalType": "uint256",
          "name": "_configType",
          "type": "uint256"
        },
        {
          "internalType": "bytes",
          "name": "_config",
          "type": "bytes"
        }
      ],
      "name": "setConfig",
      "outputs": [],
      "stateMutability": "nonpayable",
      "type": "function"
    },
    {
      "inputs": [
        {
          "internalType": "uint16",
          "name": "_dstChainId",
          "type": "uint16"
        },
        {
          "internalType": "uint256",
          "name": "_dstChainIdToBatchLimit",
          "type": "uint256"
        }
      ],
      "name": "setDstChainIdToBatchLimit",
      "outputs": [],
      "stateMutability": "nonpayable",
      "type": "function"
    },
    {
      "inputs": [
        {
          "internalType": "uint16",
          "name": "_dstChainId",
          "type": "uint16"
        },
        {
          "internalType": "uint256",
          "name": "_dstChainIdToTransferGas",
          "type": "uint256"
        }
      ],
      "name": "setDstChainIdToTransferGas",
      "outputs": [],
      "stateMutability": "nonpayable",
      "type": "function"
    },
    {
      "inputs": [
        {
          "internalType": "uint16",
          "name": "_dstChainId",
          "type": "uint16"
        },
        {
          "internalType": "uint16",
          "name": "_packetType",
          "type": "uint16"
        },
        {
          "internalType": "uint256",
          "name": "_minGas",
          "type": "uint256"
        }
      ],
      "name": "setMinDstGas",
      "outputs": [],
      "stateMutability": "nonpayable",
      "type": "function"
    },
    {
      "inputs": [
        {
          "internalType": "uint256",
          "name": "_minGasToTransferAndStore",
          "type": "uint256"
        }
      ],
      "name": "setMinGasToTransferAndStore",
      "outputs": [],
      "stateMutability": "nonpayable",
      "type": "function"
    },
    {
      "inputs": [
        {
          "internalType": "uint16",
          "name": "_dstChainId",
          "type": "uint16"
        },
        {
          "internalType": "uint256",
          "name": "_size",
          "type": "uint256"
        }
      ],
      "name": "setPayloadSizeLimit",
      "outputs": [],
      "stateMutability": "nonpayable",
      "type": "function"
    },
    {
      "inputs": [
        {
          "internalType": "address",
          "name": "_precrime",
          "type": "address"
        }
      ],
      "name": "setPrecrime",
      "outputs": [],
      "stateMutability": "nonpayable",
      "type": "function"
    },
    {
      "inputs": [
        {
          "internalType": "uint16",
          "name": "_version",
          "type": "uint16"
        }
      ],
      "name": "setReceiveVersion",
      "outputs": [],
      "stateMutability": "nonpayable",
      "type": "function"
    },
    {
      "inputs": [
        {
          "internalType": "uint16",
          "name": "_version",
          "type": "uint16"
        }
      ],
      "name": "setSendVersion",
      "outputs": [],
      "stateMutability": "nonpayable",
      "type": "function"
    },
    {
      "inputs": [
        {
          "internalType": "uint16",
          "name": "_remoteChainId",
          "type": "uint16"
        },
        {
          "internalType": "bytes",
          "name": "_path",
          "type": "bytes"
        }
      ],
      "name": "setTrustedRemote",
      "outputs": [],
      "stateMutability": "nonpayable",
      "type": "function"
    },
    {
      "inputs": [
        {
          "internalType": "uint16",
          "name": "_remoteChainId",
          "type": "uint16"
        },
        {
          "internalType": "bytes",
          "name": "_remoteAddress",
          "type": "bytes"
        }
      ],
      "name": "setTrustedRemoteAddress",
      "outputs": [],
      "stateMutability": "nonpayable",
      "type": "function"
    },
    {
      "inputs": [
        {
          "internalType": "bytes32",
          "name": "",
          "type": "bytes32"
        }
      ],
      "name": "storedCredits",
      "outputs": [
        {
          "internalType": "uint16",
          "name": "srcChainId",
          "type": "uint16"
        },
        {
          "internalType": "address",
          "name": "toAddress",
          "type": "address"
        },
        {
          "internalType": "uint256",
          "name": "index",
          "type": "uint256"
        },
        {
          "internalType": "bool",
          "name": "creditsRemain",
          "type": "bool"
        }
      ],
      "stateMutability": "view",
      "type": "function"
    },
    {
      "inputs": [
        {
          "internalType": "bytes4",
          "name": "interfaceId",
          "type": "bytes4"
        }
      ],
      "name": "supportsInterface",
      "outputs": [
        {
          "internalType": "bool",
          "name": "",
          "type": "bool"
        }
      ],
      "stateMutability": "view",
      "type": "function"
    },
    {
      "inputs": [],
      "name": "symbol",
      "outputs": [
        {
          "internalType": "string",
          "name": "",
          "type": "string"
        }
      ],
      "stateMutability": "view",
      "type": "function"
    },
    {
      "inputs": [
        {
          "internalType": "uint256",
          "name": "tokenId",
          "type": "uint256"
        }
      ],
      "name": "tokenURI",
      "outputs": [
        {
          "internalType": "string",
          "name": "",
          "type": "string"
        }
      ],
      "stateMutability": "view",
      "type": "function"
    },
    {
      "inputs": [
        {
          "internalType": "address",
          "name": "from",
          "type": "address"
        },
        {
          "internalType": "address",
          "name": "to",
          "type": "address"
        },
        {
          "internalType": "uint256",
          "name": "tokenId",
          "type": "uint256"
        }
      ],
      "name": "transferFrom",
      "outputs": [],
      "stateMutability": "nonpayable",
      "type": "function"
    },
    {
      "inputs": [
        {
          "internalType": "address",
          "name": "newOwner",
          "type": "address"
        }
      ],
      "name": "transferOwnership",
      "outputs": [],
      "stateMutability": "nonpayable",
      "type": "function"
    },
    {
      "inputs": [
        {
          "internalType": "uint16",
          "name": "",
          "type": "uint16"
        }
      ],
      "name": "trustedRemoteLookup",
      "outputs": [
        {
          "internalType": "bytes",
          "name": "",
          "type": "bytes"
        }
      ],
      "stateMutability": "view",
      "type": "function"
    }
  ],
  "bytecode": {
    "object": "0x60a06040523480156200001157600080fd5b5060405162004a7438038062004a748339810160408190526200003491620001fb565b8383838380806200004533620000e3565b6001600160a01b031660805250600160065581620000b55760405162461bcd60e51b8152602060048201526024808201527f6d696e476173546f5472616e73666572416e6453746f7265206d7573742062656044820152630203e20360e41b606482015260840160405180910390fd5b50600755600b620000c7838262000321565b50600c620000d6828262000321565b50505050505050620003ed565b600080546001600160a01b038381166001600160a01b0319831681178455604051919092169283917f8be0079c531659141344cd1fd0a4f28419497f9722a3daafe3b4186f6b6457e09190a35050565b634e487b7160e01b600052604160045260246000fd5b600082601f8301126200015b57600080fd5b81516001600160401b038082111562000178576200017862000133565b604051601f8301601f19908116603f01168101908282118183101715620001a357620001a362000133565b8160405283815260209250866020858801011115620001c157600080fd5b600091505b83821015620001e55785820183015181830184015290820190620001c6565b6000602085830101528094505050505092915050565b600080600080608085870312156200021257600080fd5b84516001600160401b03808211156200022a57600080fd5b620002388883890162000149565b955060208701519150808211156200024f57600080fd5b506200025e8782880162000149565b60408701516060880151919550935090506001600160a01b03811681146200028557600080fd5b939692955090935050565b600181811c90821680620002a557607f821691505b602082108103620002c657634e487b7160e01b600052602260045260246000fd5b50919050565b601f8211156200031c576000816000526020600020601f850160051c81016020861015620002f75750805b601f850160051c820191505b81811015620003185782815560010162000303565b5050505b505050565b81516001600160401b038111156200033d576200033d62000133565b62000355816200034e845462000290565b84620002cc565b602080601f8311600181146200038d5760008415620003745750858301515b600019600386901b1c1916600185901b17855562000318565b600085815260208120601f198616915b82811015620003be578886015182559484019460019091019084016200039d565b5085821015620003dd5787850151600019600388901b60f8161c191681555b5050505050600190811b01905550565b608051614633620004416000396000818161085e01528181610a3901528181610d3d01528181610fc10152818161115601528181611a3201528181611e9f01528181611fd20152612f4a01526146336000f3fe6080604052600436106102e35760003560e01c80638cfd8f5c11610190578063baf3292d116100dc578063df2a5b3b11610095578063f23536411161006f578063f2353641146109a9578063f2fde38b146109c9578063f5ecbdbc146109e9578063fa25f9b614610a0957600080fd5b8063df2a5b3b14610949578063e985e9c514610969578063eb8d72b71461098957600080fd5b8063baf3292d146108a0578063c4461834146108c0578063c87b56dd146108d6578063cbed8b9c146108f6578063d12473a514610916578063d1deba1f1461093657600080fd5b80639f38369a11610149578063ab3ffb9311610123578063ab3ffb9314610811578063af3fb21c14610824578063b353aaa71461084c578063b88d4fde1461088057600080fd5b80639f38369a146107b1578063a22cb465146107d1578063a6c3d165146107f157600080fd5b80638cfd8f5c146106e65780638da5cb5b1461071e5780638ffa1f2a1461073c578063950c8a741461075c57806395d89b411461077c5780639ea5d6b11461079157600080fd5b80633d8b38f61161024f578063519056361161020857806366ad5c8a116101e257806366ad5c8a1461067157806370a0823114610691578063715018a6146106b15780637533d788146106c657600080fd5b806351905636146105ef5780635b8c41e6146106025780636352211e1461065157600080fd5b80633d8b38f6146105115780633f1f4fa41461053157806342842e0e1461056c57806342d65a8d1461058c57806348288190146105ac5780634ac3f4ff146105c257600080fd5b80630b4cad4c116102a15780630b4cad4c146103d95780630df37483146103f957806310ddb1371461041957806322a3ecf91461043957806323b872dd146104bc5780632a205e3d146104dc57600080fd5b80621d3567146102e857806301ffc9a71461030a57806306fdde031461033f57806307e0db1714610361578063081812fc14610381578063095ea7b3146103b9575b600080fd5b3480156102f457600080fd5b506103086103033660046134f4565b610a36565b005b34801561031657600080fd5b5061032a61032536600461359d565b610c67565b60405190151581526020015b60405180910390f35b34801561034b57600080fd5b50610354610c8a565b604051610336919061360a565b34801561036d57600080fd5b5061030861037c36600461361d565b610d1c565b34801561038d57600080fd5b506103a161039c366004613638565b610da5565b6040516001600160a01b039091168152602001610336565b3480156103c557600080fd5b506103086103d4366004613671565b610dcc565b3480156103e557600080fd5b506103086103f4366004613638565b610ee1565b34801561040557600080fd5b5061030861041436600461369d565b610f81565b34801561042557600080fd5b5061030861043436600461361d565b610fa0565b34801561044557600080fd5b5061048d610454366004613638565b600a6020526000908152604090208054600182015460029092015461ffff821692620100009092046001600160a01b0316919060ff1684565b6040805161ffff90951685526001600160a01b0390931660208501529183015215156060820152608001610336565b3480156104c857600080fd5b506103086104d73660046136b9565b610ff8565b3480156104e857600080fd5b506104fc6104f73660046137cd565b61102a565b60408051928352602083019190915201610336565b34801561051d57600080fd5b5061032a61052c36600461385b565b611050565b34801561053d57600080fd5b5061055e61054c36600461361d565b60036020526000908152604090205481565b604051908152602001610336565b34801561057857600080fd5b506103086105873660046136b9565b61111c565b34801561059857600080fd5b506103086105a736600461385b565b611137565b3480156105b857600080fd5b5061055e60075481565b3480156105ce57600080fd5b5061055e6105dd36600461361d565b60086020526000908152604090205481565b6103086105fd3660046138ad565b6111bd565b34801561060e57600080fd5b5061055e61061d366004613966565b6005602090815260009384526040808520845180860184018051928152908401958401959095209452929052825290205481565b34801561065d57600080fd5b506103a161066c366004613638565b6111d4565b34801561067d57600080fd5b5061030861068c3660046134f4565b611234565b34801561069d57600080fd5b5061055e6106ac3660046139c3565b611310565b3480156106bd57600080fd5b50610308611396565b3480156106d257600080fd5b506103546106e136600461361d565b6113aa565b3480156106f257600080fd5b5061055e6107013660046139e0565b600260209081526000928352604080842090915290825290205481565b34801561072a57600080fd5b506000546001600160a01b03166103a1565b34801561074857600080fd5b50610308610757366004613a13565b611444565b34801561076857600080fd5b506004546103a1906001600160a01b031681565b34801561078857600080fd5b5061035461168f565b34801561079d57600080fd5b506103086107ac36600461369d565b61169e565b3480156107bd57600080fd5b506103546107cc36600461361d565b611755565b3480156107dd57600080fd5b506103086107ec366004613a47565b61186b565b3480156107fd57600080fd5b5061030861080c36600461385b565b61187a565b61030861081f366004613b00565b611903565b34801561083057600080fd5b50610839600181565b60405161ffff9091168152602001610336565b34801561085857600080fd5b506103a17f000000000000000000000000000000000000000000000000000000000000000081565b34801561088c57600080fd5b5061030861089b366004613bb5565b611912565b3480156108ac57600080fd5b506103086108bb3660046139c3565b61194a565b3480156108cc57600080fd5b5061055e61271081565b3480156108e257600080fd5b506103546108f1366004613638565b6119a0565b34801561090257600080fd5b50610308610911366004613c20565b611a13565b34801561092257600080fd5b5061030861093136600461369d565b611aa8565b6103086109443660046134f4565b611b58565b34801561095557600080fd5b50610308610964366004613c8e565b611d6e565b34801561097557600080fd5b5061032a610984366004613cca565b611dd8565b34801561099557600080fd5b506103086109a436600461385b565b611e06565b3480156109b557600080fd5b506104fc6109c4366004613d03565b611e60565b3480156109d557600080fd5b506103086109e43660046139c3565b611f2b565b3480156109f557600080fd5b50610354610a04366004613d7c565b611fa1565b348015610a1557600080fd5b5061055e610a2436600461361d565b60096020526000908152604090205481565b337f00000000000000000000000000000000000000000000000000000000000000006001600160a01b031614610ab35760405162461bcd60e51b815260206004820152601e60248201527f4c7a4170703a20696e76616c696420656e64706f696e742063616c6c6572000060448201526064015b60405180910390fd5b61ffff861660009081526001602052604081208054610ad190613dc9565b80601f0160208091040260200160405190810160405280929190818152602001828054610afd90613dc9565b8015610b4a5780601f10610b1f57610100808354040283529160200191610b4a565b820191906000526020600020905b815481529060010190602001808311610b2d57829003601f168201915b50505050509050805186869050148015610b65575060008151115b8015610b8d575080516020820120604051610b839088908890613e03565b6040518091039020145b610be85760405162461bcd60e51b815260206004820152602660248201527f4c7a4170703a20696e76616c696420736f757263652073656e64696e6720636f6044820152651b9d1c9858dd60d21b6064820152608401610aaa565b610c5e8787878080601f01602080910402602001604051908101604052809392919081815260200183838082843760009201919091525050604080516020601f8a018190048102820181019092528881528a93509150889088908190840183828082843760009201919091525061205492505050565b50505050505050565b60006001600160e01b031982161580610c845750610c84826120cd565b92915050565b6060600b8054610c9990613dc9565b80601f0160208091040260200160405190810160405280929190818152602001828054610cc590613dc9565b8015610d125780601f10610ce757610100808354040283529160200191610d12565b820191906000526020600020905b815481529060010190602001808311610cf557829003601f168201915b5050505050905090565b610d2461210d565b6040516307e0db1760e01b815261ffff821660048201527f00000000000000000000000000000000000000000000000000000000000000006001600160a01b0316906307e0db17906024015b600060405180830381600087803b158015610d8a57600080fd5b505af1158015610d9e573d6000803e3d6000fd5b5050505050565b6000610db082612167565b506000908152600f60205260409020546001600160a01b031690565b6000610dd7826111d4565b9050806001600160a01b0316836001600160a01b031603610e445760405162461bcd60e51b815260206004820152602160248201527f4552433732313a20617070726f76616c20746f2063757272656e74206f776e656044820152603960f91b6064820152608401610aaa565b336001600160a01b0382161480610e605750610e608133611dd8565b610ed25760405162461bcd60e51b815260206004820152603d60248201527f4552433732313a20617070726f76652063616c6c6572206973206e6f7420746f60448201527f6b656e206f776e6572206f7220617070726f76656420666f7220616c6c0000006064820152608401610aaa565b610edc83836121b7565b505050565b610ee961210d565b60008111610f455760405162461bcd60e51b8152602060048201526024808201527f6d696e476173546f5472616e73666572416e6453746f7265206d7573742062656044820152630203e20360e41b6064820152608401610aaa565b60078190556040518181527ffebbc4f8bb9ec2313950c718d43123124b15778efda4c1f1d529de2995b4f34d906020015b60405180910390a150565b610f8961210d565b61ffff909116600090815260036020526040902055565b610fa861210d565b6040516310ddb13760e01b815261ffff821660048201527f00000000000000000000000000000000000000000000000000000000000000006001600160a01b0316906310ddb13790602401610d70565b611003335b82612225565b61101f5760405162461bcd60e51b8152600401610aaa90613e13565b610edc838383612283565b600080611042878761103b886123e7565b8787611e60565b915091509550959350505050565b61ffff83166000908152600160205260408120805482919061107190613dc9565b80601f016020809104026020016040519081016040528092919081815260200182805461109d90613dc9565b80156110ea5780601f106110bf576101008083540402835291602001916110ea565b820191906000526020600020905b8154815290600101906020018083116110cd57829003601f168201915b505050505090508383604051611101929190613e03565b60405180910390208180519060200120149150509392505050565b610edc83838360405180602001604052806000815250611912565b61113f61210d565b6040516342d65a8d60e01b81526001600160a01b037f000000000000000000000000000000000000000000000000000000000000000016906342d65a8d9061118f90869086908690600401613e89565b600060405180830381600087803b1580156111a957600080fd5b505af1158015610c5e573d6000803e3d6000fd5b610c5e8787876111cc886123e7565b878787612432565b6000818152600d60205260408120546001600160a01b031680610c845760405162461bcd60e51b8152602060048201526018602482015277115490cdcc8c4e881a5b9d985b1a59081d1bdad95b88125160421b6044820152606401610aaa565b3330146112925760405162461bcd60e51b815260206004820152602660248201527f4e6f6e626c6f636b696e674c7a4170703a2063616c6c6572206d7573742062656044820152650204c7a4170760d41b6064820152608401610aaa565b6113088686868080601f01602080910402602001604051908101604052809392919081815260200183838082843760009201919091525050604080516020601f8901819004810282018101909252878152899350915087908790819084018382808284376000920191909152506125fc92505050565b505050505050565b60006001600160a01b03821661137a5760405162461bcd60e51b815260206004820152602960248201527f4552433732313a2061646472657373207a65726f206973206e6f7420612076616044820152683634b21037bbb732b960b91b6064820152608401610aaa565b506001600160a01b03166000908152600e602052604090205490565b61139e61210d565b6113a86000612753565b565b600160205260009081526040902080546113c390613dc9565b80601f01602080910402602001604051908101604052809291908181526020018280546113ef90613dc9565b801561143c5780601f106114115761010080835404028352916020019161143c565b820191906000526020600020905b81548152906001019060200180831161141f57829003601f168201915b505050505081565b61144c6127a3565b80516020808301919091206000818152600a90925260409091206002015460ff166114ad5760405162461bcd60e51b81526020600482015260116024820152701b9bc818dc99591a5d1cc81cdd1bdc9959607a1b6044820152606401610aaa565b6000828060200190518101906114c39190613eec565b6000848152600a6020526040812080546001909101549294509092506114ff9161ffff8216916201000090046001600160a01b031690856127fc565b6000848152600a602052604090206001015490915081116115745760405162461bcd60e51b815260206004820152602960248201527f6e6f7420656e6f7567682067617320746f2070726f6365737320637265646974604482015268103a3930b739b332b960b91b6064820152608401610aaa565b815181036115eb576000838152600a602052604080822080546001600160b01b031916815560018101929092556002909101805460ff19169055517fd7be02b8dd0d27bd0517a9cb4d7469ce27df4313821ae5ec1ff69acc594ba233906115de9085815260200190565b60405180910390a161167f565b604080516080810182526000858152600a6020818152848320805461ffff80821687526001600160a01b03620100008084048216868a019081529989018b8152600160608b01818152998f90529790965297519851169096026001600160b01b03199091169690951695909517939093178455915191830191909155516002909101805491151560ff199092169190911790555b50505061168c6001600655565b50565b6060600c8054610c9990613dc9565b6116a661210d565b600081116117015760405162461bcd60e51b815260206004820152602260248201527f647374436861696e4964546f42617463684c696d6974206d757374206265203e604482015261020360f41b6064820152608401610aaa565b61ffff8216600081815260086020908152604091829020849055815192835282018390527f7315f7654d594ead24a30160ed9ba2d23247f543016b918343591e93d7afdb6d91015b60405180910390a15050565b61ffff811660009081526001602052604081208054606092919061177890613dc9565b80601f01602080910402602001604051908101604052809291908181526020018280546117a490613dc9565b80156117f15780601f106117c6576101008083540402835291602001916117f1565b820191906000526020600020905b8154815290600101906020018083116117d457829003601f168201915b5050505050905080516000036118495760405162461bcd60e51b815260206004820152601d60248201527f4c7a4170703a206e6f20747275737465642070617468207265636f72640000006044820152606401610aaa565b61186460006014835161185c9190613fbc565b839190612848565b9392505050565b611876338383612955565b5050565b61188261210d565b81813060405160200161189793929190613fcf565b60408051601f1981840301815291815261ffff85166000908152600160205220906118c2908261403d565b507f8c0400cfe2d1199b1a725c78960bcc2a344d869b80590d0f2bd005db15a572ce8383836040516118f693929190613e89565b60405180910390a1505050565b610c5e87878787878787612432565b61191c3383612225565b6119385760405162461bcd60e51b8152600401610aaa90613e13565b61194484848484612a23565b50505050565b61195261210d565b600480546001600160a01b0319166001600160a01b0383169081179091556040519081527f5db758e995a17ec1ad84bdef7e8c3293a0bd6179bcce400dff5d4c3d87db726b90602001610f76565b60606119ab82612167565b60006119c260408051602081019091526000815290565b905060008151116119e25760405180602001604052806000815250611864565b806119ec84612a56565b6040516020016119fd9291906140fc565b6040516020818303038152906040529392505050565b611a1b61210d565b6040516332fb62e760e21b81526001600160a01b037f0000000000000000000000000000000000000000000000000000000000000000169063cbed8b9c90611a6f908890889088908890889060040161412b565b600060405180830381600087803b158015611a8957600080fd5b505af1158015611a9d573d6000803e3d6000fd5b505050505050505050565b611ab061210d565b60008111611b0c5760405162461bcd60e51b815260206004820152602360248201527f647374436861696e4964546f5472616e73666572476173206d7573742062652060448201526203e20360ec1b6064820152608401610aaa565b61ffff8216600081815260096020908152604091829020849055815192835282018390527fc46df2983228ac2d9754e94a0d565e6671665dc8ad38602bc8e544f0685a29fb9101611749565b61ffff86166000908152600560205260408082209051611b7b9088908890613e03565b90815260408051602092819003830190206001600160401b03871660009081529252902054905080611bfb5760405162461bcd60e51b815260206004820152602360248201527f4e6f6e626c6f636b696e674c7a4170703a206e6f2073746f726564206d65737360448201526261676560e81b6064820152608401610aaa565b808383604051611c0c929190613e03565b604051809103902014611c6b5760405162461bcd60e51b815260206004820152602160248201527f4e6f6e626c6f636b696e674c7a4170703a20696e76616c6964207061796c6f616044820152601960fa1b6064820152608401610aaa565b61ffff87166000908152600560205260408082209051611c8e9089908990613e03565b90815260408051602092819003830181206001600160401b038916600090815290845282902093909355601f88018290048202830182019052868252611d26918991899089908190840183828082843760009201919091525050604080516020601f8a018190048102820181019092528881528a9350915088908890819084018382808284376000920191909152506125fc92505050565b7fc264d91f3adc5588250e1551f547752ca0cfa8f6b530d243b9f9f4cab10ea8e58787878785604051611d5d959493929190614164565b60405180910390a150505050505050565b611d7661210d565b61ffff83811660008181526002602090815260408083209487168084529482529182902085905581519283528201929092529081018290527f9d5c7c0b934da8fefa9c7760c98383778a12dfbfc0c3b3106518f43fb9508ac0906060016118f6565b6001600160a01b03918216600090815260106020908152604080832093909416825291909152205460ff1690565b611e0e61210d565b61ffff83166000908152600160205260409020611e2c82848361419f565b507ffa41487ad5d6728f0b19276fa1eddc16558578f5109fc39d2dc33c3230470dab8383836040516118f693929190613e89565b60008060008686604051602001611e7892919061429a565b60408051601f198184030181529082905263040a7bb160e41b825291506001600160a01b037f000000000000000000000000000000000000000000000000000000000000000016906340a7bb1090611edc908b90309086908b908b906004016142c8565b6040805180830381865afa158015611ef8573d6000803e3d6000fd5b505050506040513d601f19601f82011682018060405250810190611f1c919061431c565b92509250509550959350505050565b611f3361210d565b6001600160a01b038116611f985760405162461bcd60e51b815260206004820152602660248201527f4f776e61626c653a206e6577206f776e657220697320746865207a65726f206160448201526564647265737360d01b6064820152608401610aaa565b61168c81612753565b604051633d7b2f6f60e21b815261ffff808616600483015284166024820152306044820152606481018290526060907f00000000000000000000000000000000000000000000000000000000000000006001600160a01b03169063f5ecbdbc90608401600060405180830381865afa158015612021573d6000803e3d6000fd5b505050506040513d6000823e601f3d908101601f191682016040526120499190810190614340565b90505b949350505050565b6000806120b75a60966366ad5c8a60e01b8989898960405160240161207c9493929190614374565b60408051601f198184030181529190526020810180516001600160e01b03166001600160e01b03199093169290921790915230929190612ae8565b9150915081611308576113088686868685612b72565b60006001600160e01b031982166380ac58cd60e01b14806120fe57506001600160e01b03198216635b5e139f60e01b145b80610c845750610c8482612c0f565b6000546001600160a01b031633146113a85760405162461bcd60e51b815260206004820181905260248201527f4f776e61626c653a2063616c6c6572206973206e6f7420746865206f776e65726044820152606401610aaa565b61217081612c44565b61168c5760405162461bcd60e51b8152602060048201526018602482015277115490cdcc8c4e881a5b9d985b1a59081d1bdad95b88125160421b6044820152606401610aaa565b6000818152600f6020526040902080546001600160a01b0319166001600160a01b03841690811790915581906121ec826111d4565b6001600160a01b03167f8c5be1e5ebec7d5bd14f71427d1e84f3dd0314c0f7b2291e5b200ac8c7c3b92560405160405180910390a45050565b600080612231836111d4565b9050806001600160a01b0316846001600160a01b0316148061225857506122588185611dd8565b8061204c5750836001600160a01b031661227184610da5565b6001600160a01b031614949350505050565b826001600160a01b0316612296826111d4565b6001600160a01b0316146122bc5760405162461bcd60e51b8152600401610aaa906143b2565b6001600160a01b03821661231e5760405162461bcd60e51b8152602060048201526024808201527f4552433732313a207472616e7366657220746f20746865207a65726f206164646044820152637265737360e01b6064820152608401610aaa565b826001600160a01b0316612331826111d4565b6001600160a01b0316146123575760405162461bcd60e51b8152600401610aaa906143b2565b6000818152600f6020908152604080832080546001600160a01b03199081169091556001600160a01b03878116808652600e8552838620805460001901905590871680865283862080546001019055868652600d90945282852080549092168417909155905184937fddf252ad1be2c89b69c2b068fc378daa952ba7f163c4a11628f55a4df523b3ef91a4505050565b60408051600180825281830190925260609160009190602080830190803683370190505090508281600081518110612421576124216143f7565b602090810291909101015292915050565b60008451116124795760405162461bcd60e51b8152602060048201526013602482015272746f6b656e4964735b5d20697320656d70747960681b6044820152606401610aaa565b83516001148061249d575061ffff8616600090815260086020526040902054845111155b6124f45760405162461bcd60e51b815260206004820152602260248201527f62617463682073697a65206578636565647320647374206261746368206c696d6044820152611a5d60f21b6064820152608401610aaa565b60005b845181101561252d57612525888888888581518110612518576125186143f7565b6020026020010151612c61565b6001016124f7565b506000858560405160200161254392919061429a565b6040516020818303038152906040529050612588876001848851600960008d61ffff1661ffff16815260200190815260200160002054612583919061440d565b612d4c565b612596878286868634612e21565b856040516125a49190614424565b6040518091039020886001600160a01b03168861ffff167fe1b87c47fdeb4f9cbadbca9df3af7aba453bb6e501075d0440d88125b711522a886040516125ea9190614440565b60405180910390a45050505050505050565b600080828060200190518101906126139190613eec565b60148201519193509150600061262b888383866127fc565b905082518110156126ff5784516020808701919091206040805160808101825261ffff808d1682526001600160a01b038088168387019081528385018881526001606086018181526000898152600a909a529887902095518654935190941662010000026001600160b01b03199093169390941692909217178355519082015592516002909301805493151560ff199094169390931790925590517f10e0b70d256bccc84b7027506978bd8b68984a870788b93b479def144c839ad7906126f59083908990614453565b60405180910390a1505b816001600160a01b0316876040516127179190614424565b60405180910390208961ffff167f5b821db8a46f8ecbe1941ba2f51cfeea9643268b56631f70d45e2a745d990265866040516125ea9190614440565b600080546001600160a01b038381166001600160a01b0319831681178455604051919092169283917f8be0079c531659141344cd1fd0a4f28419497f9722a3daafe3b4186f6b6457e09190a35050565b6002600654036127f55760405162461bcd60e51b815260206004820152601f60248201527f5265656e7472616e637947756172643a207265656e7472616e742063616c6c006044820152606401610aaa565b6002600655565b6000825b8251811015612049576007545a10612049576128368686858481518110612829576128296143f7565b6020026020010151612fc6565b806128408161446c565b915050612800565b60608161285681601f614485565b10156128955760405162461bcd60e51b815260206004820152600e60248201526d736c6963655f6f766572666c6f7760901b6044820152606401610aaa565b61289f8284614485565b845110156128e35760405162461bcd60e51b8152602060048201526011602482015270736c6963655f6f75744f66426f756e647360781b6044820152606401610aaa565b606082158015612902576040519150600082526020820160405261294c565b6040519150601f8416801560200281840101858101878315602002848b0101015b8183101561293b578051835260209283019201612923565b5050858452601f01601f1916604052505b50949350505050565b816001600160a01b0316836001600160a01b0316036129b65760405162461bcd60e51b815260206004820152601960248201527f4552433732313a20617070726f766520746f2063616c6c6572000000000000006044820152606401610aaa565b6001600160a01b03838116600081815260106020908152604080832094871680845294825291829020805460ff191686151590811790915591519182527f17307eab39ab6107e8899845ad3d59bd9653f200f220920489ca2b5937696c31910160405180910390a3505050565b612a2e848484612283565b612a3a84848484613026565b6119445760405162461bcd60e51b8152600401610aaa90614498565b60606000612a6383613124565b60010190506000816001600160401b03811115612a8257612a826136fa565b6040519080825280601f01601f191660200182016040528015612aac576020820181803683370190505b5090508181016020015b600019016f181899199a1a9b1b9c1cb0b131b232b360811b600a86061a8153600a8504945084612ab657509392505050565b6000606060008060008661ffff166001600160401b03811115612b0d57612b0d6136fa565b6040519080825280601f01601f191660200182016040528015612b37576020820181803683370190505b50905060008087516020890160008d8df191503d925086831115612b59578692505b828152826000602083013e909890975095505050505050565b8180519060200120600560008761ffff1661ffff16815260200190815260200160002085604051612ba39190614424565b9081526040805191829003602090810183206001600160401b0388166000908152915220919091557fe183f33de2837795525b4792ca4cd60535bd77c53b7e7030060bfcf5734d6b0c90612c0090879087908790879087906144ea565b60405180910390a15050505050565b60006001600160e01b031982166322bac5d960e01b1480610c8457506301ffc9a760e01b6001600160e01b0319831614610c84565b6000908152600d60205260409020546001600160a01b0316151590565b612c6a33610ffd565b612ccd5760405162461bcd60e51b815260206004820152602e60248201527f4f4e46543732313a2073656e642063616c6c6572206973206e6f74206f776e6560448201526d1c881b9bdc88185c1c1c9bdd995960921b6064820152608401610aaa565b836001600160a01b0316612ce0826111d4565b6001600160a01b031614612d415760405162461bcd60e51b815260206004820152602260248201527f4f4e46543732313a2073656e642066726f6d20696e636f7272656374206f776e60448201526132b960f11b6064820152608401610aaa565b611944843083612283565b6000612d57836131fc565b61ffff80871660009081526002602090815260408083209389168352929052205490915080612dc85760405162461bcd60e51b815260206004820152601a60248201527f4c7a4170703a206d696e4761734c696d6974206e6f74207365740000000000006044820152606401610aaa565b612dd28382614485565b8210156113085760405162461bcd60e51b815260206004820152601b60248201527f4c7a4170703a20676173206c696d697420697320746f6f206c6f7700000000006044820152606401610aaa565b61ffff861660009081526001602052604081208054612e3f90613dc9565b80601f0160208091040260200160405190810160405280929190818152602001828054612e6b90613dc9565b8015612eb85780601f10612e8d57610100808354040283529160200191612eb8565b820191906000526020600020905b815481529060010190602001808311612e9b57829003601f168201915b505050505090508051600003612f295760405162461bcd60e51b815260206004820152603060248201527f4c7a4170703a2064657374696e6174696f6e20636861696e206973206e6f742060448201526f61207472757374656420736f7572636560801b6064820152608401610aaa565b612f34878751613258565b60405162c5803160e81b81526001600160a01b037f0000000000000000000000000000000000000000000000000000000000000000169063c5803100908490612f8b908b9086908c908c908c908c9060040161453c565b6000604051808303818588803b158015612fa457600080fd5b505af1158015612fb8573d6000803e3d6000fd5b505050505050505050505050565b612fcf81612c44565b1580612ffb5750612fdf81612c44565b8015612ffb575030612ff0826111d4565b6001600160a01b0316145b61300457600080fd5b61300d81612c44565b61301b57610edc82826132c9565b610edc308383612283565b60006001600160a01b0384163b1561311c57604051630a85bd0160e11b81526001600160a01b0385169063150b7a029061306a9033908990889088906004016145a3565b6020604051808303816000875af19250505080156130a5575060408051601f3d908101601f191682019092526130a2918101906145e0565b60015b613102573d8080156130d3576040519150601f19603f3d011682016040523d82523d6000602084013e6130d8565b606091505b5080516000036130fa5760405162461bcd60e51b8152600401610aaa90614498565b805181602001fd5b6001600160e01b031916630a85bd0160e11b14905061204c565b50600161204c565b60008072184f03e93ff9f4daa797ed6e38ed64bf6a1f0160401b83106131635772184f03e93ff9f4daa797ed6e38ed64bf6a1f0160401b830492506040015b6d04ee2d6d415b85acef8100000000831061318f576d04ee2d6d415b85acef8100000000830492506020015b662386f26fc1000083106131ad57662386f26fc10000830492506010015b6305f5e10083106131c5576305f5e100830492506008015b61271083106131d957612710830492506004015b606483106131eb576064830492506002015b600a8310610c845760010192915050565b60006022825110156132505760405162461bcd60e51b815260206004820152601c60248201527f4c7a4170703a20696e76616c69642061646170746572506172616d73000000006044820152606401610aaa565b506022015190565b61ffff82166000908152600360205260408120549081900361327957506127105b80821115610edc5760405162461bcd60e51b815260206004820181905260248201527f4c7a4170703a207061796c6f61642073697a6520697320746f6f206c617267656044820152606401610aaa565b6118768282604051806020016040528060008152506132e88383613311565b6132f56000848484613026565b610edc5760405162461bcd60e51b8152600401610aaa90614498565b6001600160a01b0382166133675760405162461bcd60e51b815260206004820181905260248201527f4552433732313a206d696e7420746f20746865207a65726f20616464726573736044820152606401610aaa565b61337081612c44565b156133bd5760405162461bcd60e51b815260206004820152601c60248201527f4552433732313a20746f6b656e20616c7265616479206d696e746564000000006044820152606401610aaa565b6133c681612c44565b156134135760405162461bcd60e51b815260206004820152601c60248201527f4552433732313a20746f6b656e20616c7265616479206d696e746564000000006044820152606401610aaa565b6001600160a01b0382166000818152600e6020908152604080832080546001019055848352600d90915280822080546001600160a01b0319168417905551839291907fddf252ad1be2c89b69c2b068fc378daa952ba7f163c4a11628f55a4df523b3ef908290a45050565b803561ffff8116811461349057600080fd5b919050565b60008083601f8401126134a757600080fd5b5081356001600160401b038111156134be57600080fd5b6020830191508360208285010111156134d657600080fd5b9250929050565b80356001600160401b038116811461349057600080fd5b6000806000806000806080878903121561350d57600080fd5b6135168761347e565b955060208701356001600160401b038082111561353257600080fd5b61353e8a838b01613495565b909750955085915061355260408a016134dd565b9450606089013591508082111561356857600080fd5b5061357589828a01613495565b979a9699509497509295939492505050565b6001600160e01b03198116811461168c57600080fd5b6000602082840312156135af57600080fd5b813561186481613587565b60005b838110156135d55781810151838201526020016135bd565b50506000910152565b600081518084526135f68160208601602086016135ba565b601f01601f19169290920160200192915050565b60208152600061186460208301846135de565b60006020828403121561362f57600080fd5b6118648261347e565b60006020828403121561364a57600080fd5b5035919050565b6001600160a01b038116811461168c57600080fd5b803561349081613651565b6000806040838503121561368457600080fd5b823561368f81613651565b946020939093013593505050565b600080604083850312156136b057600080fd5b61368f8361347e565b6000806000606084860312156136ce57600080fd5b83356136d981613651565b925060208401356136e981613651565b929592945050506040919091013590565b634e487b7160e01b600052604160045260246000fd5b604051601f8201601f191681016001600160401b0381118282101715613738576137386136fa565b604052919050565b60006001600160401b03821115613759576137596136fa565b50601f01601f191660200190565b600082601f83011261377857600080fd5b813561378b61378682613740565b613710565b8181528460208386010111156137a057600080fd5b816020850160208301376000918101602001919091529392505050565b8035801515811461349057600080fd5b600080600080600060a086880312156137e557600080fd5b6137ee8661347e565b945060208601356001600160401b038082111561380a57600080fd5b61381689838a01613767565b95506040880135945061382b606089016137bd565b9350608088013591508082111561384157600080fd5b5061384e88828901613767565b9150509295509295909350565b60008060006040848603121561387057600080fd5b6138798461347e565b925060208401356001600160401b0381111561389457600080fd5b6138a086828701613495565b9497909650939450505050565b600080600080600080600060e0888a0312156138c857600080fd5b87356138d381613651565b96506138e16020890161347e565b955060408801356001600160401b03808211156138fd57600080fd5b6139098b838c01613767565b965060608a0135955060808a0135915061392282613651565b90935060a08901359061393482613651565b90925060c0890135908082111561394a57600080fd5b506139578a828b01613767565b91505092959891949750929550565b60008060006060848603121561397b57600080fd5b6139848461347e565b925060208401356001600160401b0381111561399f57600080fd5b6139ab86828701613767565b9250506139ba604085016134dd565b90509250925092565b6000602082840312156139d557600080fd5b813561186481613651565b600080604083850312156139f357600080fd5b6139fc8361347e565b9150613a0a6020840161347e565b90509250929050565b600060208284031215613a2557600080fd5b81356001600160401b03811115613a3b57600080fd5b61204c84828501613767565b60008060408385031215613a5a57600080fd5b8235613a6581613651565b9150613a0a602084016137bd565b60006001600160401b03821115613a8c57613a8c6136fa565b5060051b60200190565b600082601f830112613aa757600080fd5b81356020613ab761378683613a73565b8083825260208201915060208460051b870101935086841115613ad957600080fd5b602086015b84811015613af55780358352918301918301613ade565b509695505050505050565b600080600080600080600060e0888a031215613b1b57600080fd5b8735613b2681613651565b9650613b346020890161347e565b955060408801356001600160401b0380821115613b5057600080fd5b613b5c8b838c01613767565b965060608a0135915080821115613b7257600080fd5b613b7e8b838c01613a96565b955060808a01359150613b9082613651565b819450613b9f60a08b01613666565b935060c08a013591508082111561394a57600080fd5b60008060008060808587031215613bcb57600080fd5b8435613bd681613651565b93506020850135613be681613651565b92506040850135915060608501356001600160401b03811115613c0857600080fd5b613c1487828801613767565b91505092959194509250565b600080600080600060808688031215613c3857600080fd5b613c418661347e565b9450613c4f6020870161347e565b93506040860135925060608601356001600160401b03811115613c7157600080fd5b613c7d88828901613495565b969995985093965092949392505050565b600080600060608486031215613ca357600080fd5b613cac8461347e565b9250613cba6020850161347e565b9150604084013590509250925092565b60008060408385031215613cdd57600080fd5b8235613ce881613651565b91506020830135613cf881613651565b809150509250929050565b600080600080600060a08688031215613d1b57600080fd5b613d248661347e565b945060208601356001600160401b0380821115613d4057600080fd5b613d4c89838a01613767565b95506040880135915080821115613d6257600080fd5b613d6e89838a01613a96565b945061382b606089016137bd565b60008060008060808587031215613d9257600080fd5b613d9b8561347e565b9350613da96020860161347e565b92506040850135613db981613651565b9396929550929360600135925050565b600181811c90821680613ddd57607f821691505b602082108103613dfd57634e487b7160e01b600052602260045260246000fd5b50919050565b8183823760009101908152919050565b6020808252602d908201527f4552433732313a2063616c6c6572206973206e6f7420746f6b656e206f776e6560408201526c1c881bdc88185c1c1c9bdd9959609a1b606082015260800190565b81835281816020850137506000828201602090810191909152601f909101601f19169091010190565b61ffff84168152604060208201526000612049604083018486613e60565b600082601f830112613eb857600080fd5b8151613ec661378682613740565b818152846020838601011115613edb57600080fd5b61204c8260208301602087016135ba565b60008060408385031215613eff57600080fd5b82516001600160401b0380821115613f1657600080fd5b613f2286838701613ea7565b9350602091508185015181811115613f3957600080fd5b85019050601f81018613613f4c57600080fd5b8051613f5a61378682613a73565b81815260059190911b82018301908381019088831115613f7957600080fd5b928401925b82841015613f9757835182529284019290840190613f7e565b80955050505050509250929050565b634e487b7160e01b600052601160045260246000fd5b81810381811115610c8457610c84613fa6565b8284823760609190911b6bffffffffffffffffffffffff19169101908152601401919050565b601f821115610edc576000816000526020600020601f850160051c8101602086101561401e5750805b601f850160051c820191505b818110156113085782815560010161402a565b81516001600160401b03811115614056576140566136fa565b61406a816140648454613dc9565b84613ff5565b602080601f83116001811461409f57600084156140875750858301515b600019600386901b1c1916600185901b178555611308565b600085815260208120601f198616915b828110156140ce578886015182559484019460019091019084016140af565b50858210156140ec5787850151600019600388901b60f8161c191681555b5050505050600190811b01905550565b6000835161410e8184602088016135ba565b8351908301906141228183602088016135ba565b01949350505050565b600061ffff808816835280871660208401525084604083015260806060830152614159608083018486613e60565b979650505050505050565b61ffff86168152608060208201526000614182608083018688613e60565b6001600160401b0394909416604083015250606001529392505050565b6001600160401b038311156141b6576141b66136fa565b6141ca836141c48354613dc9565b83613ff5565b6000601f8411600181146141fe57600085156141e65750838201355b600019600387901b1c1916600186901b178355610d9e565b600083815260209020601f19861690835b8281101561422f578685013582556020948501946001909201910161420f565b508682101561424c5760001960f88860031b161c19848701351681555b505060018560011b0183555050505050565b60008151808452602080850194506020840160005b8381101561428f57815187529582019590820190600101614273565b509495945050505050565b6040815260006142ad60408301856135de565b82810360208401526142bf818561425e565b95945050505050565b61ffff861681526001600160a01b038516602082015260a0604082018190526000906142f6908301866135de565b8415156060840152828103608084015261431081856135de565b98975050505050505050565b6000806040838503121561432f57600080fd5b505080516020909101519092909150565b60006020828403121561435257600080fd5b81516001600160401b0381111561436857600080fd5b61204c84828501613ea7565b61ffff8516815260806020820152600061439160808301866135de565b6001600160401b0385166040840152828103606084015261415981856135de565b60208082526025908201527f4552433732313a207472616e736665722066726f6d20696e636f72726563742060408201526437bbb732b960d91b606082015260800190565b634e487b7160e01b600052603260045260246000fd5b8082028115828204841417610c8457610c84613fa6565b600082516144368184602087016135ba565b9190910192915050565b602081526000611864602083018461425e565b82815260406020820152600061204c60408301846135de565b60006001820161447e5761447e613fa6565b5060010190565b80820180821115610c8457610c84613fa6565b60208082526032908201527f4552433732313a207472616e7366657220746f206e6f6e20455243373231526560408201527131b2b4bb32b91034b6b83632b6b2b73a32b960711b606082015260800190565b61ffff8616815260a06020820152600061450760a08301876135de565b6001600160401b0386166040840152828103606084015261452881866135de565b9050828103608084015261431081856135de565b61ffff8716815260c06020820152600061455960c08301886135de565b828103604084015261456b81886135de565b6001600160a01b0387811660608601528616608085015283810360a0850152905061459681856135de565b9998505050505050505050565b6001600160a01b03858116825284166020820152604081018390526080606082018190526000906145d6908301846135de565b9695505050505050565b6000602082840312156145f257600080fd5b81516118648161358756fea26469706673582212205812e6364be5016b12053b88b234229084cfd65d651207dd672019de819d2aae64736f6c63430008160033",
    "linkReferences": {}
  },
  "methodIdentifiers": {
    "DEFAULT_PAYLOAD_SIZE_LIMIT()": "c4461834",
    "FUNCTION_TYPE_SEND()": "af3fb21c",
    "approve(address,uint256)": "095ea7b3",
    "balanceOf(address)": "70a08231",
    "clearCredits(bytes)": "8ffa1f2a",
    "dstChainIdToBatchLimit(uint16)": "4ac3f4ff",
    "dstChainIdToTransferGas(uint16)": "fa25f9b6",
    "estimateSendBatchFee(uint16,bytes,uint256[],bool,bytes)": "f2353641",
    "estimateSendFee(uint16,bytes,uint256,bool,bytes)": "2a205e3d",
    "failedMessages(uint16,bytes,uint64)": "5b8c41e6",
    "forceResumeReceive(uint16,bytes)": "42d65a8d",
    "getApproved(uint256)": "081812fc",
    "getConfig(uint16,uint16,address,uint256)": "f5ecbdbc",
    "getTrustedRemoteAddress(uint16)": "9f38369a",
    "isApprovedForAll(address,address)": "e985e9c5",
    "isTrustedRemote(uint16,bytes)": "3d8b38f6",
    "lzEndpoint()": "b353aaa7",
    "lzReceive(uint16,bytes,uint64,bytes)": "001d3567",
    "minDstGasLookup(uint16,uint16)": "8cfd8f5c",
    "minGasToTransferAndStore()": "48288190",
    "name()": "06fdde03",
    "nonblockingLzReceive(uint16,bytes,uint64,bytes)": "66ad5c8a",
    "owner()": "8da5cb5b",
    "ownerOf(uint256)": "6352211e",
    "payloadSizeLimitLookup(uint16)": "3f1f4fa4",
    "precrime()": "950c8a74",
    "renounceOwnership()": "715018a6",
    "retryMessage(uint16,bytes,uint64,bytes)": "d1deba1f",
    "safeTransferFrom(address,address,uint256)": "42842e0e",
    "safeTransferFrom(address,address,uint256,bytes)": "b88d4fde",
    "sendBatchFrom(address,uint16,bytes,uint256[],address,address,bytes)": "ab3ffb93",
    "sendFrom(address,uint16,bytes,uint256,address,address,bytes)": "51905636",
    "setApprovalForAll(address,bool)": "a22cb465",
    "setConfig(uint16,uint16,uint256,bytes)": "cbed8b9c",
    "setDstChainIdToBatchLimit(uint16,uint256)": "9ea5d6b1",
    "setDstChainIdToTransferGas(uint16,uint256)": "d12473a5",
    "setMinDstGas(uint16,uint16,uint256)": "df2a5b3b",
    "setMinGasToTransferAndStore(uint256)": "0b4cad4c",
    "setPayloadSizeLimit(uint16,uint256)": "0df37483",
    "setPrecrime(address)": "baf3292d",
    "setReceiveVersion(uint16)": "10ddb137",
    "setSendVersion(uint16)": "07e0db17",
    "setTrustedRemote(uint16,bytes)": "eb8d72b7",
    "setTrustedRemoteAddress(uint16,bytes)": "a6c3d165",
    "storedCredits(bytes32)": "22a3ecf9",
    "supportsInterface(bytes4)": "01ffc9a7",
    "symbol()": "95d89b41",
    "tokenURI(uint256)": "c87b56dd",
    "transferFrom(address,address,uint256)": "23b872dd",
    "transferOwnership(address)": "f2fde38b",
    "trustedRemoteLookup(uint16)": "7533d788"
  },
  "id": 42
}