{
  "abi": [
    {
      "inputs": [
        {
          "internalType": "address",
          "name": "_token",
          "type": "address"
        },
        {
          "internalType": "uint8",
          "name": "_sharedDecimals",
          "type": "uint8"
        },
        {
          "internalType": "address",
          "name": "_lzEndpoint",
          "type": "address"
        }
      ],
      "stateMutability": "nonpayable",
      "type": "constructor"
    },
    {
      "anonymous": false,
      "inputs": [
        {
          "indexed": true,
          "internalType": "uint16",
          "name": "_srcChainId",
          "type": "uint16"
        },
        {
          "indexed": false,
          "internalType": "bytes",
          "name": "_srcAddress",
          "type": "bytes"
        },
        {
          "indexed": false,
          "internalType": "uint64",
          "name": "_nonce",
          "type": "uint64"
        },
        {
          "indexed": false,
          "internalType": "bytes32",
          "name": "_hash",
          "type": "bytes32"
        }
      ],
      "name": "CallOFTReceivedSuccess",
      "type": "event"
    },
    {
      "anonymous": false,
      "inputs": [
        {
          "indexed": false,
          "internalType": "uint16",
          "name": "_srcChainId",
          "type": "uint16"
        },
        {
          "indexed": false,
          "internalType": "bytes",
          "name": "_srcAddress",
          "type": "bytes"
        },
        {
          "indexed": false,
          "internalType": "uint64",
          "name": "_nonce",
          "type": "uint64"
        },
        {
          "indexed": false,
          "internalType": "bytes",
          "name": "_payload",
          "type": "bytes"
        },
        {
          "indexed": false,
          "internalType": "bytes",
          "name": "_reason",
          "type": "bytes"
        }
      ],
      "name": "MessageFailed",
      "type": "event"
    },
    {
      "anonymous": false,
      "inputs": [
        {
          "indexed": false,
          "internalType": "address",
          "name": "_address",
          "type": "address"
        }
      ],
      "name": "NonContractAddress",
      "type": "event"
    },
    {
      "anonymous": false,
      "inputs": [
        {
          "indexed": true,
          "internalType": "address",
          "name": "previousOwner",
          "type": "address"
        },
        {
          "indexed": true,
          "internalType": "address",
          "name": "newOwner",
          "type": "address"
        }
      ],
      "name": "OwnershipTransferred",
      "type": "event"
    },
    {
      "anonymous": false,
      "inputs": [
        {
          "indexed": true,
          "internalType": "uint16",
          "name": "_srcChainId",
          "type": "uint16"
        },
        {
          "indexed": true,
          "internalType": "address",
          "name": "_to",
          "type": "address"
        },
        {
          "indexed": false,
          "internalType": "uint256",
          "name": "_amount",
          "type": "uint256"
        }
      ],
      "name": "ReceiveFromChain",
      "type": "event"
    },
    {
      "anonymous": false,
      "inputs": [
        {
          "indexed": false,
          "internalType": "uint16",
          "name": "_srcChainId",
          "type": "uint16"
        },
        {
          "indexed": false,
          "internalType": "bytes",
          "name": "_srcAddress",
          "type": "bytes"
        },
        {
          "indexed": false,
          "internalType": "uint64",
          "name": "_nonce",
          "type": "uint64"
        },
        {
          "indexed": false,
          "internalType": "bytes32",
          "name": "_payloadHash",
          "type": "bytes32"
        }
      ],
      "name": "RetryMessageSuccess",
      "type": "event"
    },
    {
      "anonymous": false,
      "inputs": [
        {
          "indexed": true,
          "internalType": "uint16",
          "name": "_dstChainId",
          "type": "uint16"
        },
        {
          "indexed": true,
          "internalType": "address",
          "name": "_from",
          "type": "address"
        },
        {
          "indexed": true,
          "internalType": "bytes32",
          "name": "_toAddress",
          "type": "bytes32"
        },
        {
          "indexed": false,
          "internalType": "uint256",
          "name": "_amount",
          "type": "uint256"
        }
      ],
      "name": "SendToChain",
      "type": "event"
    },
    {
      "anonymous": false,
      "inputs": [
        {
          "indexed": false,
          "internalType": "uint16",
          "name": "_dstChainId",
          "type": "uint16"
        },
        {
          "indexed": false,
          "internalType": "uint16",
          "name": "_type",
          "type": "uint16"
        },
        {
          "indexed": false,
          "internalType": "uint256",
          "name": "_minDstGas",
          "type": "uint256"
        }
      ],
      "name": "SetMinDstGas",
      "type": "event"
    },
    {
      "anonymous": false,
      "inputs": [
        {
          "indexed": false,
          "internalType": "address",
          "name": "precrime",
          "type": "address"
        }
      ],
      "name": "SetPrecrime",
      "type": "event"
    },
    {
      "anonymous": false,
      "inputs": [
        {
          "indexed": false,
          "internalType": "uint16",
          "name": "_remoteChainId",
          "type": "uint16"
        },
        {
          "indexed": false,
          "internalType": "bytes",
          "name": "_path",
          "type": "bytes"
        }
      ],
      "name": "SetTrustedRemote",
      "type": "event"
    },
    {
      "anonymous": false,
      "inputs": [
        {
          "indexed": false,
          "internalType": "uint16",
          "name": "_remoteChainId",
          "type": "uint16"
        },
        {
          "indexed": false,
          "internalType": "bytes",
          "name": "_remoteAddress",
          "type": "bytes"
        }
      ],
      "name": "SetTrustedRemoteAddress",
      "type": "event"
    },
    {
      "inputs": [],
      "name": "DEFAULT_PAYLOAD_SIZE_LIMIT",
      "outputs": [
        {
          "internalType": "uint256",
          "name": "",
          "type": "uint256"
        }
      ],
      "stateMutability": "view",
      "type": "function"
    },
    {
      "inputs": [],
      "name": "NO_EXTRA_GAS",
      "outputs": [
        {
          "internalType": "uint256",
          "name": "",
          "type": "uint256"
        }
      ],
      "stateMutability": "view",
      "type": "function"
    },
    {
      "inputs": [],
      "name": "PT_SEND",
      "outputs": [
        {
          "internalType": "uint8",
          "name": "",
          "type": "uint8"
        }
      ],
      "stateMutability": "view",
      "type": "function"
    },
    {
      "inputs": [],
      "name": "PT_SEND_AND_CALL",
      "outputs": [
        {
          "internalType": "uint8",
          "name": "",
          "type": "uint8"
        }
      ],
      "stateMutability": "view",
      "type": "function"
    },
    {
      "inputs": [
        {
          "internalType": "uint16",
          "name": "_srcChainId",
          "type": "uint16"
        },
        {
          "internalType": "bytes",
          "name": "_srcAddress",
          "type": "bytes"
        },
        {
          "internalType": "uint64",
          "name": "_nonce",
          "type": "uint64"
        },
        {
          "internalType": "bytes32",
          "name": "_from",
          "type": "bytes32"
        },
        {
          "internalType": "address",
          "name": "_to",
          "type": "address"
        },
        {
          "internalType": "uint256",
          "name": "_amount",
          "type": "uint256"
        },
        {
          "internalType": "bytes",
          "name": "_payload",
          "type": "bytes"
        },
        {
          "internalType": "uint256",
          "name": "_gasForCall",
          "type": "uint256"
        }
      ],
      "name": "callOnOFTReceived",
      "outputs": [],
      "stateMutability": "nonpayable",
      "type": "function"
    },
    {
      "inputs": [],
      "name": "circulatingSupply",
      "outputs": [
        {
          "internalType": "uint256",
          "name": "",
          "type": "uint256"
        }
      ],
      "stateMutability": "view",
      "type": "function"
    },
    {
      "inputs": [
        {
          "internalType": "uint16",
          "name": "",
          "type": "uint16"
        },
        {
          "internalType": "bytes",
          "name": "",
          "type": "bytes"
        },
        {
          "internalType": "uint64",
          "name": "",
          "type": "uint64"
        }
      ],
      "name": "creditedPackets",
      "outputs": [
        {
          "internalType": "bool",
          "name": "",
          "type": "bool"
        }
      ],
      "stateMutability": "view",
      "type": "function"
    },
    {
      "inputs": [
        {
          "internalType": "uint16",
          "name": "_dstChainId",
          "type": "uint16"
        },
        {
          "internalType": "bytes32",
          "name": "_toAddress",
          "type": "bytes32"
        },
        {
          "internalType": "uint256",
          "name": "_amount",
          "type": "uint256"
        },
        {
          "internalType": "bytes",
          "name": "_payload",
          "type": "bytes"
        },
        {
          "internalType": "uint64",
          "name": "_dstGasForCall",
          "type": "uint64"
        },
        {
          "internalType": "bool",
          "name": "_useZro",
          "type": "bool"
        },
        {
          "internalType": "bytes",
          "name": "_adapterParams",
          "type": "bytes"
        }
      ],
      "name": "estimateSendAndCallFee",
      "outputs": [
        {
          "internalType": "uint256",
          "name": "nativeFee",
          "type": "uint256"
        },
        {
          "internalType": "uint256",
          "name": "zroFee",
          "type": "uint256"
        }
      ],
      "stateMutability": "view",
      "type": "function"
    },
    {
      "inputs": [
        {
          "internalType": "uint16",
          "name": "_dstChainId",
          "type": "uint16"
        },
        {
          "internalType": "bytes32",
          "name": "_toAddress",
          "type": "bytes32"
        },
        {
          "internalType": "uint256",
          "name": "_amount",
          "type": "uint256"
        },
        {
          "internalType": "bool",
          "name": "_useZro",
          "type": "bool"
        },
        {
          "internalType": "bytes",
          "name": "_adapterParams",
          "type": "bytes"
        }
      ],
      "name": "estimateSendFee",
      "outputs": [
        {
          "internalType": "uint256",
          "name": "nativeFee",
          "type": "uint256"
        },
        {
          "internalType": "uint256",
          "name": "zroFee",
          "type": "uint256"
        }
      ],
      "stateMutability": "view",
      "type": "function"
    },
    {
      "inputs": [
        {
          "internalType": "uint16",
          "name": "",
          "type": "uint16"
        },
        {
          "internalType": "bytes",
          "name": "",
          "type": "bytes"
        },
        {
          "internalType": "uint64",
          "name": "",
          "type": "uint64"
        }
      ],
      "name": "failedMessages",
      "outputs": [
        {
          "internalType": "bytes32",
          "name": "",
          "type": "bytes32"
        }
      ],
      "stateMutability": "view",
      "type": "function"
    },
    {
      "inputs": [
        {
          "internalType": "uint16",
          "name": "_srcChainId",
          "type": "uint16"
        },
        {
          "internalType": "bytes",
          "name": "_srcAddress",
          "type": "bytes"
        }
      ],
      "name": "forceResumeReceive",
      "outputs": [],
      "stateMutability": "nonpayable",
      "type": "function"
    },
    {
      "inputs": [
        {
          "internalType": "uint16",
          "name": "_version",
          "type": "uint16"
        },
        {
          "internalType": "uint16",
          "name": "_chainId",
          "type": "uint16"
        },
        {
          "internalType": "address",
          "name": "",
          "type": "address"
        },
        {
          "internalType": "uint256",
          "name": "_configType",
          "type": "uint256"
        }
      ],
      "name": "getConfig",
      "outputs": [
        {
          "internalType": "bytes",
          "name": "",
          "type": "bytes"
        }
      ],
      "stateMutability": "view",
      "type": "function"
    },
    {
      "inputs": [
        {
          "internalType": "uint16",
          "name": "_remoteChainId",
          "type": "uint16"
        }
      ],
      "name": "getTrustedRemoteAddress",
      "outputs": [
        {
          "internalType": "bytes",
          "name": "",
          "type": "bytes"
        }
      ],
      "stateMutability": "view",
      "type": "function"
    },
    {
      "inputs": [
        {
          "internalType": "uint16",
          "name": "_srcChainId",
          "type": "uint16"
        },
        {
          "internalType": "bytes",
          "name": "_srcAddress",
          "type": "bytes"
        }
      ],
      "name": "isTrustedRemote",
      "outputs": [
        {
          "internalType": "bool",
          "name": "",
          "type": "bool"
        }
      ],
      "stateMutability": "view",
      "type": "function"
    },
    {
      "inputs": [],
      "name": "lzEndpoint",
      "outputs": [
        {
          "internalType": "contract ILayerZeroEndpoint",
          "name": "",
          "type": "address"
        }
      ],
      "stateMutability": "view",
      "type": "function"
    },
    {
      "inputs": [
        {
          "internalType": "uint16",
          "name": "_srcChainId",
          "type": "uint16"
        },
        {
          "internalType": "bytes",
          "name": "_srcAddress",
          "type": "bytes"
        },
        {
          "internalType": "uint64",
          "name": "_nonce",
          "type": "uint64"
        },
        {
          "internalType": "bytes",
          "name": "_payload",
          "type": "bytes"
        }
      ],
      "name": "lzReceive",
      "outputs": [],
      "stateMutability": "nonpayable",
      "type": "function"
    },
    {
      "inputs": [
        {
          "internalType": "uint16",
          "name": "",
          "type": "uint16"
        },
        {
          "internalType": "uint16",
          "name": "",
          "type": "uint16"
        }
      ],
      "name": "minDstGasLookup",
      "outputs": [
        {
          "internalType": "uint256",
          "name": "",
          "type": "uint256"
        }
      ],
      "stateMutability": "view",
      "type": "function"
    },
    {
      "inputs": [
        {
          "internalType": "uint16",
          "name": "_srcChainId",
          "type": "uint16"
        },
        {
          "internalType": "bytes",
          "name": "_srcAddress",
          "type": "bytes"
        },
        {
          "internalType": "uint64",
          "name": "_nonce",
          "type": "uint64"
        },
        {
          "internalType": "bytes",
          "name": "_payload",
          "type": "bytes"
        }
      ],
      "name": "nonblockingLzReceive",
      "outputs": [],
      "stateMutability": "nonpayable",
      "type": "function"
    },
    {
      "inputs": [],
      "name": "outboundAmount",
      "outputs": [
        {
          "internalType": "uint256",
          "name": "",
          "type": "uint256"
        }
      ],
      "stateMutability": "view",
      "type": "function"
    },
    {
      "inputs": [],
      "name": "owner",
      "outputs": [
        {
          "internalType": "address",
          "name": "",
          "type": "address"
        }
      ],
      "stateMutability": "view",
      "type": "function"
    },
    {
      "inputs": [
        {
          "internalType": "uint16",
          "name": "",
          "type": "uint16"
        }
      ],
      "name": "payloadSizeLimitLookup",
      "outputs": [
        {
          "internalType": "uint256",
          "name": "",
          "type": "uint256"
        }
      ],
      "stateMutability": "view",
      "type": "function"
    },
    {
      "inputs": [],
      "name": "precrime",
      "outputs": [
        {
          "internalType": "address",
          "name": "",
          "type": "address"
        }
      ],
      "stateMutability": "view",
      "type": "function"
    },
    {
      "inputs": [],
      "name": "renounceOwnership",
      "outputs": [],
      "stateMutability": "nonpayable",
      "type": "function"
    },
    {
      "inputs": [
        {
          "internalType": "uint16",
          "name": "_srcChainId",
          "type": "uint16"
        },
        {
          "internalType": "bytes",
          "name": "_srcAddress",
          "type": "bytes"
        },
        {
          "internalType": "uint64",
          "name": "_nonce",
          "type": "uint64"
        },
        {
          "internalType": "bytes",
          "name": "_payload",
          "type": "bytes"
        }
      ],
      "name": "retryMessage",
      "outputs": [],
      "stateMutability": "payable",
      "type": "function"
    },
    {
      "inputs": [
        {
          "internalType": "address",
          "name": "_from",
          "type": "address"
        },
        {
          "internalType": "uint16",
          "name": "_dstChainId",
          "type": "uint16"
        },
        {
          "internalType": "bytes32",
          "name": "_toAddress",
          "type": "bytes32"
        },
        {
          "internalType": "uint256",
          "name": "_amount",
          "type": "uint256"
        },
        {
          "internalType": "bytes",
          "name": "_payload",
          "type": "bytes"
        },
        {
          "internalType": "uint64",
          "name": "_dstGasForCall",
          "type": "uint64"
        },
        {
          "components": [
            {
              "internalType": "address payable",
              "name": "refundAddress",
              "type": "address"
            },
            {
              "internalType": "address",
              "name": "zroPaymentAddress",
              "type": "address"
            },
            {
              "internalType": "bytes",
              "name": "adapterParams",
              "type": "bytes"
            }
          ],
          "internalType": "struct ICommonOFT.LzCallParams",
          "name": "_callParams",
          "type": "tuple"
        }
      ],
      "name": "sendAndCall",
      "outputs": [],
      "stateMutability": "payable",
      "type": "function"
    },
    {
      "inputs": [
        {
          "internalType": "address",
          "name": "_from",
          "type": "address"
        },
        {
          "internalType": "uint16",
          "name": "_dstChainId",
          "type": "uint16"
        },
        {
          "internalType": "bytes32",
          "name": "_toAddress",
          "type": "bytes32"
        },
        {
          "internalType": "uint256",
          "name": "_amount",
          "type": "uint256"
        },
        {
          "components": [
            {
              "internalType": "address payable",
              "name": "refundAddress",
              "type": "address"
            },
            {
              "internalType": "address",
              "name": "zroPaymentAddress",
              "type": "address"
            },
            {
              "internalType": "bytes",
              "name": "adapterParams",
              "type": "bytes"
            }
          ],
          "internalType": "struct ICommonOFT.LzCallParams",
          "name": "_callParams",
          "type": "tuple"
        }
      ],
      "name": "sendFrom",
      "outputs": [],
      "stateMutability": "payable",
      "type": "function"
    },
    {
      "inputs": [
        {
          "internalType": "uint16",
          "name": "_version",
          "type": "uint16"
        },
        {
          "internalType": "uint16",
          "name": "_chainId",
          "type": "uint16"
        },
        {
          "internalType": "uint256",
          "name": "_configType",
          "type": "uint256"
        },
        {
          "internalType": "bytes",
          "name": "_config",
          "type": "bytes"
        }
      ],
      "name": "setConfig",
      "outputs": [],
      "stateMutability": "nonpayable",
      "type": "function"
    },
    {
      "inputs": [
        {
          "internalType": "uint16",
          "name": "_dstChainId",
          "type": "uint16"
        },
        {
          "internalType": "uint16",
          "name": "_packetType",
          "type": "uint16"
        },
        {
          "internalType": "uint256",
          "name": "_minGas",
          "type": "uint256"
        }
      ],
      "name": "setMinDstGas",
      "outputs": [],
      "stateMutability": "nonpayable",
      "type": "function"
    },
    {
      "inputs": [
        {
          "internalType": "uint16",
          "name": "_dstChainId",
          "type": "uint16"
        },
        {
          "internalType": "uint256",
          "name": "_size",
          "type": "uint256"
        }
      ],
      "name": "setPayloadSizeLimit",
      "outputs": [],
      "stateMutability": "nonpayable",
      "type": "function"
    },
    {
      "inputs": [
        {
          "internalType": "address",
          "name": "_precrime",
          "type": "address"
        }
      ],
      "name": "setPrecrime",
      "outputs": [],
      "stateMutability": "nonpayable",
      "type": "function"
    },
    {
      "inputs": [
        {
          "internalType": "uint16",
          "name": "_version",
          "type": "uint16"
        }
      ],
      "name": "setReceiveVersion",
      "outputs": [],
      "stateMutability": "nonpayable",
      "type": "function"
    },
    {
      "inputs": [
        {
          "internalType": "uint16",
          "name": "_version",
          "type": "uint16"
        }
      ],
      "name": "setSendVersion",
      "outputs": [],
      "stateMutability": "nonpayable",
      "type": "function"
    },
    {
      "inputs": [
        {
          "internalType": "uint16",
          "name": "_remoteChainId",
          "type": "uint16"
        },
        {
          "internalType": "bytes",
          "name": "_path",
          "type": "bytes"
        }
      ],
      "name": "setTrustedRemote",
      "outputs": [],
      "stateMutability": "nonpayable",
      "type": "function"
    },
    {
      "inputs": [
        {
          "internalType": "uint16",
          "name": "_remoteChainId",
          "type": "uint16"
        },
        {
          "internalType": "bytes",
          "name": "_remoteAddress",
          "type": "bytes"
        }
      ],
      "name": "setTrustedRemoteAddress",
      "outputs": [],
      "stateMutability": "nonpayable",
      "type": "function"
    },
    {
      "inputs": [],
      "name": "sharedDecimals",
      "outputs": [
        {
          "internalType": "uint8",
          "name": "",
          "type": "uint8"
        }
      ],
      "stateMutability": "view",
      "type": "function"
    },
    {
      "inputs": [
        {
          "internalType": "bytes4",
          "name": "interfaceId",
          "type": "bytes4"
        }
      ],
      "name": "supportsInterface",
      "outputs": [
        {
          "internalType": "bool",
          "name": "",
          "type": "bool"
        }
      ],
      "stateMutability": "view",
      "type": "function"
    },
    {
      "inputs": [],
      "name": "token",
      "outputs": [
        {
          "internalType": "address",
          "name": "",
          "type": "address"
        }
      ],
      "stateMutability": "view",
      "type": "function"
    },
    {
      "inputs": [
        {
          "internalType": "address",
          "name": "newOwner",
          "type": "address"
        }
      ],
      "name": "transferOwnership",
      "outputs": [],
      "stateMutability": "nonpayable",
      "type": "function"
    },
    {
      "inputs": [
        {
          "internalType": "uint16",
          "name": "",
          "type": "uint16"
        }
      ],
      "name": "trustedRemoteLookup",
      "outputs": [
        {
          "internalType": "bytes",
          "name": "",
          "type": "bytes"
        }
      ],
      "stateMutability": "view",
      "type": "function"
    }
  ],
  "bytecode": {
    "object": "0x6101006040523480156200001257600080fd5b50604051620043c0380380620043c083398101604081905262000035916200027a565b8181818180806200004633620001fb565b6001600160a01b0390811660805260ff90931660a0525050851660c081905260408051600481526024810182526020810180516001600160e01b031663313ce56760e01b179052905160009450849350620000a29190620002c4565b600060405180830381855afa9150503d8060008114620000df576040519150601f19603f3d011682016040523d82523d6000602084013e620000e4565b606091505b5091509150816200014b5760405162461bcd60e51b815260206004820152602660248201527f50726f78794f46543a206661696c656420746f2067657420746f6b656e20646560448201526563696d616c7360d01b60648201526084015b60405180910390fd5b600081806020019051810190620001639190620002f5565b90508060ff168560ff161115620001d25760405162461bcd60e51b815260206004820152602c60248201527f50726f78794f46543a20736861726564446563696d616c73206d75737420626560448201526b203c3d20646563696d616c7360a01b606482015260840162000142565b620001de858262000330565b620001eb90600a6200044f565b60e0525062000460945050505050565b600080546001600160a01b038381166001600160a01b0319831681178455604051919092169283917f8be0079c531659141344cd1fd0a4f28419497f9722a3daafe3b4186f6b6457e09190a35050565b80516001600160a01b03811681146200026357600080fd5b919050565b805160ff811681146200026357600080fd5b6000806000606084860312156200029057600080fd5b6200029b846200024b565b9250620002ab6020850162000268565b9150620002bb604085016200024b565b90509250925092565b6000825160005b81811015620002e75760208186018101518583015201620002cb565b506000920191825250919050565b6000602082840312156200030857600080fd5b620003138262000268565b9392505050565b634e487b7160e01b600052601160045260246000fd5b60ff82811682821603908111156200034c576200034c6200031a565b92915050565b600181815b80851115620003935781600019048211156200037757620003776200031a565b808516156200038557918102915b93841c939080029062000357565b509250929050565b600082620003ac575060016200034c565b81620003bb575060006200034c565b8160018114620003d45760028114620003df57620003ff565b60019150506200034c565b60ff841115620003f357620003f36200031a565b50506001821b6200034c565b5060208310610133831016604e8410600b841016171562000424575081810a6200034c565b62000430838362000352565b80600019048211156200044757620004476200031a565b029392505050565b60006200031360ff8416836200039b565b60805160a05160c05160e051613eaf6200051160003960008181612173015281816125c90152612a640152600081816107aa01528181610f8901528181611eb801528181611f4201528181611f7b01528181611fc40152612697015260006104c001526000818161065b015281816107d101528181610a5701528181610aff01528181610c77015281816112ba015281816117c80152818161198501528181611e06015261287b0152613eaf6000f3fe60806040526004361061022f5760003560e01c80638da5cb5b1161012e578063c4461834116100ab578063eaffd49a1161006f578063eaffd49a1461071b578063eb8d72b71461073b578063f2fde38b1461075b578063f5ecbdbc1461077b578063fc0c546a1461079b57600080fd5b8063c44618341461069d578063cbed8b9c146106b3578063d1deba1f146106d3578063df2a5b3b146106e6578063e6a20ae61461070657600080fd5b80639f38369a116100f25780639f38369a146105e9578063a4c51df514610609578063a6c3d16514610629578063b353aaa714610649578063baf3292d1461067d57600080fd5b80638da5cb5b1461051a5780639358928b1461054c578063950c8a74146105615780639689cb05146105815780639bdb98121461059757600080fd5b806344770515116101bc578063715018a611610180578063715018a6146104595780637533d7881461046e57806376203b481461049b578063857749b0146104ae5780638cfd8f5c146104e257600080fd5b8063447705151461039b5780634c42899a146103b05780635b8c41e6146103d757806366ad5c8a14610426578063695ef6bf1461044657600080fd5b806310ddb1371161020357806310ddb137146102cb578063365260b4146102eb5780633d8b38f6146103205780633f1f4fa41461034057806342d65a8d1461037b57600080fd5b80621d35671461023457806301ffc9a71461025657806307e0db171461028b5780630df37483146102ab575b600080fd5b34801561024057600080fd5b5061025461024f366004612fdf565b6107ce565b005b34801561026257600080fd5b50610276610271366004613072565b6109ff565b60405190151581526020015b60405180910390f35b34801561029757600080fd5b506102546102a636600461309c565b610a36565b3480156102b757600080fd5b506102546102c63660046130b7565b610abf565b3480156102d757600080fd5b506102546102e636600461309c565b610ade565b3480156102f757600080fd5b5061030b6103063660046130ef565b610b36565b60408051928352602083019190915201610282565b34801561032c57600080fd5b5061027661033b366004613156565b610b8b565b34801561034c57600080fd5b5061036d61035b36600461309c565b60036020526000908152604090205481565b604051908152602001610282565b34801561038757600080fd5b50610254610396366004613156565b610c58565b3480156103a757600080fd5b5061036d600081565b3480156103bc57600080fd5b506103c5600081565b60405160ff9091168152602001610282565b3480156103e357600080fd5b5061036d6103f2366004613215565b6005602090815260009384526040808520845180860184018051928152908401958401959095209452929052825290205481565b34801561043257600080fd5b50610254610441366004612fdf565b610cde565b6102546104543660046132e2565b610dba565b34801561046557600080fd5b50610254610e25565b34801561047a57600080fd5b5061048e61048936600461309c565b610e39565b60405161028291906133a5565b6102546104a93660046133b8565b610ed3565b3480156104ba57600080fd5b506103c57f000000000000000000000000000000000000000000000000000000000000000081565b3480156104ee57600080fd5b5061036d6104fd36600461346a565b600260209081526000928352604080842090915290825290205481565b34801561052657600080fd5b506000546001600160a01b03165b6040516001600160a01b039091168152602001610282565b34801561055857600080fd5b5061036d610f82565b34801561056d57600080fd5b50600454610534906001600160a01b031681565b34801561058d57600080fd5b5061036d60075481565b3480156105a357600080fd5b506102766105b2366004613215565b6006602090815260009384526040808520845180860184018051928152908401958401959095209452929052825290205460ff1681565b3480156105f557600080fd5b5061048e61060436600461309c565b611018565b34801561061557600080fd5b5061030b61062436600461349d565b611127565b34801561063557600080fd5b50610254610644366004613156565b6111b6565b34801561065557600080fd5b506105347f000000000000000000000000000000000000000000000000000000000000000081565b34801561068957600080fd5b5061025461069836600461355a565b61123f565b3480156106a957600080fd5b5061036d61271081565b3480156106bf57600080fd5b506102546106ce366004613577565b61129b565b6102546106e1366004612fdf565b611325565b3480156106f257600080fd5b506102546107013660046135e5565b61153b565b34801561071257600080fd5b506103c5600181565b34801561072757600080fd5b50610254610736366004613621565b6115a5565b34801561074757600080fd5b50610254610756366004613156565b6116c4565b34801561076757600080fd5b5061025461077636600461355a565b61171e565b34801561078757600080fd5b5061048e6107963660046136e9565b611797565b3480156107a757600080fd5b507f0000000000000000000000000000000000000000000000000000000000000000610534565b337f00000000000000000000000000000000000000000000000000000000000000006001600160a01b03161461084b5760405162461bcd60e51b815260206004820152601e60248201527f4c7a4170703a20696e76616c696420656e64706f696e742063616c6c6572000060448201526064015b60405180910390fd5b61ffff86166000908152600160205260408120805461086990613736565b80601f016020809104026020016040519081016040528092919081815260200182805461089590613736565b80156108e25780601f106108b7576101008083540402835291602001916108e2565b820191906000526020600020905b8154815290600101906020018083116108c557829003601f168201915b505050505090508051868690501480156108fd575060008151115b801561092557508051602082012060405161091b908890889061376a565b6040518091039020145b6109805760405162461bcd60e51b815260206004820152602660248201527f4c7a4170703a20696e76616c696420736f757263652073656e64696e6720636f6044820152651b9d1c9858dd60d21b6064820152608401610842565b6109f68787878080601f01602080910402602001604051908101604052809392919081815260200183838082843760009201919091525050604080516020601f8a018190048102820181019092528881528a93509150889088908190840183828082843760009201919091525061184a92505050565b50505050505050565b60006001600160e01b03198216631f7ecdf760e01b1480610a3057506301ffc9a760e01b6001600160e01b03198316145b92915050565b610a3e6118c3565b6040516307e0db1760e01b815261ffff821660048201527f00000000000000000000000000000000000000000000000000000000000000006001600160a01b0316906307e0db17906024015b600060405180830381600087803b158015610aa457600080fd5b505af1158015610ab8573d6000803e3d6000fd5b5050505050565b610ac76118c3565b61ffff909116600090815260036020526040902055565b610ae66118c3565b6040516310ddb13760e01b815261ffff821660048201527f00000000000000000000000000000000000000000000000000000000000000006001600160a01b0316906310ddb13790602401610a8a565b600080610b7c8888888888888080601f01602080910402602001604051908101604052809392919081815260200183838082843760009201919091525061191d92505050565b91509150965096945050505050565b61ffff831660009081526001602052604081208054829190610bac90613736565b80601f0160208091040260200160405190810160405280929190818152602001828054610bd890613736565b8015610c255780601f10610bfa57610100808354040283529160200191610c25565b820191906000526020600020905b815481529060010190602001808311610c0857829003601f168201915b505050505090508383604051610c3c92919061376a565b60405180910390208180519060200120149150505b9392505050565b610c606118c3565b6040516342d65a8d60e01b81526001600160a01b037f000000000000000000000000000000000000000000000000000000000000000016906342d65a8d90610cb0908690869086906004016137a3565b600060405180830381600087803b158015610cca57600080fd5b505af11580156109f6573d6000803e3d6000fd5b333014610d3c5760405162461bcd60e51b815260206004820152602660248201527f4e6f6e626c6f636b696e674c7a4170703a2063616c6c6572206d7573742062656044820152650204c7a4170760d41b6064820152608401610842565b610db28686868080601f01602080910402602001604051908101604052809392919081815260200183838082843760009201919091525050604080516020601f890181900481028201810190925287815289935091508790879081908401838280828437600092019190915250611a1192505050565b505050505050565b610db285858585610dce602087018761355a565b610dde604088016020890161355a565b610deb60408901896137c1565b8080601f016020809104026020016040519081016040528093929190818152602001838380828437600092019190915250611a9892505050565b610e2d6118c3565b610e376000611b80565b565b60016020526000908152604090208054610e5290613736565b80601f0160208091040260200160405190810160405280929190818152602001828054610e7e90613736565b8015610ecb5780601f10610ea057610100808354040283529160200191610ecb565b820191906000526020600020905b815481529060010190602001808311610eae57829003601f168201915b505050505081565b610f778888888888888080601f0160208091040260200160405190810160405280939291908181526020018383808284376000920191909152508a9250610f20915050602089018961355a565b610f3060408a0160208b0161355a565b610f3d60408b018b6137c1565b8080601f016020809104026020016040519081016040528093929190818152602001838380828437600092019190915250611bd092505050565b505050505050505050565b60006007547f00000000000000000000000000000000000000000000000000000000000000006001600160a01b03166318160ddd6040518163ffffffff1660e01b8152600401602060405180830381865afa158015610fe5573d6000803e3d6000fd5b505050506040513d601f19601f820116820180604052508101906110099190613807565b6110139190613836565b905090565b61ffff811660009081526001602052604081208054606092919061103b90613736565b80601f016020809104026020016040519081016040528092919081815260200182805461106790613736565b80156110b45780601f10611089576101008083540402835291602001916110b4565b820191906000526020600020905b81548152906001019060200180831161109757829003601f168201915b50505050509050805160000361110c5760405162461bcd60e51b815260206004820152601d60248201527f4c7a4170703a206e6f20747275737465642070617468207265636f72640000006044820152606401610842565b610c5160006014835161111f9190613836565b839190611ccc565b6000806111a48b8b8b8b8b8080601f01602080910402602001604051908101604052809392919081815260200183838082843760009201919091525050604080516020601f8d018190048102820181019092528b81528e93508d9250908c908c9081908401838280828437600092019190915250611dd992505050565b91509150995099975050505050505050565b6111be6118c3565b8181306040516020016111d393929190613849565b60408051601f1981840301815291815261ffff85166000908152600160205220906111fe90826138b7565b507f8c0400cfe2d1199b1a725c78960bcc2a344d869b80590d0f2bd005db15a572ce838383604051611232939291906137a3565b60405180910390a1505050565b6112476118c3565b600480546001600160a01b0319166001600160a01b0383169081179091556040519081527f5db758e995a17ec1ad84bdef7e8c3293a0bd6179bcce400dff5d4c3d87db726b9060200160405180910390a150565b6112a36118c3565b6040516332fb62e760e21b81526001600160a01b037f0000000000000000000000000000000000000000000000000000000000000000169063cbed8b9c906112f79088908890889088908890600401613976565b600060405180830381600087803b15801561131157600080fd5b505af1158015610f77573d6000803e3d6000fd5b61ffff86166000908152600560205260408082209051611348908890889061376a565b90815260408051602092819003830190206001600160401b038716600090815292529020549050806113c85760405162461bcd60e51b815260206004820152602360248201527f4e6f6e626c6f636b696e674c7a4170703a206e6f2073746f726564206d65737360448201526261676560e81b6064820152608401610842565b8083836040516113d992919061376a565b6040518091039020146114385760405162461bcd60e51b815260206004820152602160248201527f4e6f6e626c6f636b696e674c7a4170703a20696e76616c6964207061796c6f616044820152601960fa1b6064820152608401610842565b61ffff8716600090815260056020526040808220905161145b908990899061376a565b90815260408051602092819003830181206001600160401b038916600090815290845282902093909355601f880182900482028301820190528682526114f3918991899089908190840183828082843760009201919091525050604080516020601f8a018190048102820181019092528881528a935091508890889081908401838280828437600092019190915250611a1192505050565b7fc264d91f3adc5588250e1551f547752ca0cfa8f6b530d243b9f9f4cab10ea8e5878787878560405161152a9594939291906139a4565b60405180910390a150505050505050565b6115436118c3565b61ffff83811660008181526002602090815260408083209487168084529482529182902085905581519283528201929092529081018290527f9d5c7c0b934da8fefa9c7760c98383778a12dfbfc0c3b3106518f43fb9508ac090606001611232565b3330146115f45760405162461bcd60e51b815260206004820152601f60248201527f4f4654436f72653a2063616c6c6572206d757374206265204f4654436f7265006044820152606401610842565b6115ff308686611e94565b9350846001600160a01b03168a61ffff167fbf551ec93859b170f9b2141bd9298bf3f64322c6f7beb2543a0cb669834118bf8660405161164191815260200190565b60405180910390a3604051633fe79aed60e11b81526001600160a01b03861690637fcf35da908390611685908e908e908e908e908e908d908d908d906004016139df565b600060405180830381600088803b15801561169f57600080fd5b5087f11580156116b3573d6000803e3d6000fd5b505050505050505050505050505050565b6116cc6118c3565b61ffff831660009081526001602052604090206116ea828483613a3a565b507ffa41487ad5d6728f0b19276fa1eddc16558578f5109fc39d2dc33c3230470dab838383604051611232939291906137a3565b6117266118c3565b6001600160a01b03811661178b5760405162461bcd60e51b815260206004820152602660248201527f4f776e61626c653a206e6577206f776e657220697320746865207a65726f206160448201526564647265737360d01b6064820152608401610842565b61179481611b80565b50565b604051633d7b2f6f60e21b815261ffff808616600483015284166024820152306044820152606481018290526060907f00000000000000000000000000000000000000000000000000000000000000006001600160a01b03169063f5ecbdbc90608401600060405180830381865afa158015611817573d6000803e3d6000fd5b505050506040513d6000823e601f3d908101601f1916820160405261183f9190810190613af9565b90505b949350505050565b6000806118ad5a60966366ad5c8a60e01b898989896040516024016118729493929190613b66565b60408051601f198184030181529190526020810180516001600160e01b03166001600160e01b03199093169290921790915230929190612044565b9150915081610db257610db286868686856120ce565b6000546001600160a01b03163314610e375760405162461bcd60e51b815260206004820181905260248201527f4f776e61626c653a2063616c6c6572206973206e6f7420746865206f776e65726044820152606401610842565b600080600061196b8761192f8861216b565b6040805160006020820152602181019390935260c09190911b6001600160c01b0319166041830152805160298184030181526049909201905290565b60405163040a7bb160e41b81529091506001600160a01b037f000000000000000000000000000000000000000000000000000000000000000016906340a7bb10906119c2908b90309086908b908b90600401613ba4565b6040805180830381865afa1580156119de573d6000803e3d6000fd5b505050506040513d601f19601f82011682018060405250810190611a029190613bf8565b92509250509550959350505050565b6000611a1d82826121f1565b905060ff8116611a3857611a338585858561224d565b610ab8565b60001960ff821601611a5057611a33858585856122dd565b60405162461bcd60e51b815260206004820152601c60248201527f4f4654436f72653a20756e6b6e6f776e207061636b65742074797065000000006044820152606401610842565b6000611aa6878284816124ec565b611aaf856125c1565b509050611abe88888884612601565b905060008111611b0c5760405162461bcd60e51b815260206004820152601960248201527813d19510dbdc994e88185b5bdd5b9d081d1bdbc81cdb585b1b603a1b6044820152606401610842565b6000611b1b8761192f8461216b565b9050611b2b888287878734612752565b86896001600160a01b03168961ffff167fd81fc9b8523134ed613870ed029d6170cbb73aa6a6bc311b9a642689fb9df59a85604051611b6c91815260200190565b60405180910390a450979650505050505050565b600080546001600160a01b038381166001600160a01b0319831681178455604051919092169283917f8be0079c531659141344cd1fd0a4f28419497f9722a3daafe3b4186f6b6457e09190a35050565b6000611be8896001846001600160401b0389166124ec565b611bf1876125c1565b509050611c008a8a8a84612601565b905060008111611c4e5760405162461bcd60e51b815260206004820152601960248201527813d19510dbdc994e88185b5bdd5b9d081d1bdbc81cdb585b1b603a1b6044820152606401610842565b6000611c65338a611c5e8561216b565b8a8a6128f7565b9050611c758a8287878734612752565b888b6001600160a01b03168b61ffff167fd81fc9b8523134ed613870ed029d6170cbb73aa6a6bc311b9a642689fb9df59a85604051611cb691815260200190565b60405180910390a4509998505050505050505050565b606081611cda81601f613c1c565b1015611d195760405162461bcd60e51b815260206004820152600e60248201526d736c6963655f6f766572666c6f7760901b6044820152606401610842565b611d238284613c1c565b84511015611d675760405162461bcd60e51b8152602060048201526011602482015270736c6963655f6f75744f66426f756e647360781b6044820152606401610842565b606082158015611d865760405191506000825260208201604052611dd0565b6040519150601f8416801560200281840101858101878315602002848b0101015b81831015611dbf578051835260209283019201611da7565b5050858452601f01601f1916604052505b50949350505050565b6000806000611dec338a611c5e8b61216b565b60405163040a7bb160e41b81529091506001600160a01b037f000000000000000000000000000000000000000000000000000000000000000016906340a7bb1090611e43908d90309086908b908b90600401613ba4565b6040805180830381865afa158015611e5f573d6000803e3d6000fd5b505050506040513d601f19601f82011682018060405250810190611e839190613bf8565b925092505097509795505050505050565b6040516370a0823160e01b81526001600160a01b03838116600483015260009182917f000000000000000000000000000000000000000000000000000000000000000016906370a0823190602401602060405180830381865afa158015611eff573d6000803e3d6000fd5b505050506040513d601f19601f82011682018060405250810190611f239190613807565b9050306001600160a01b03861603611f6e57611f696001600160a01b037f0000000000000000000000000000000000000000000000000000000000000000168585612938565b611fa3565b611fa36001600160a01b037f0000000000000000000000000000000000000000000000000000000000000000168686866129a0565b6040516370a0823160e01b81526001600160a01b03858116600483015282917f0000000000000000000000000000000000000000000000000000000000000000909116906370a0823190602401602060405180830381865afa15801561200d573d6000803e3d6000fd5b505050506040513d601f19601f820116820180604052508101906120319190613807565b61203b9190613836565b95945050505050565b6000606060008060008661ffff166001600160401b03811115612069576120696131a8565b6040519080825280601f01601f191660200182016040528015612093576020820181803683370190505b50905060008087516020890160008d8df191503d9250868311156120b5578692505b828152826000602083013e909890975095505050505050565b8180519060200120600560008761ffff1661ffff168152602001908152602001600020856040516120ff9190613c2f565b9081526040805191829003602090810183206001600160401b0388166000908152915220919091557fe183f33de2837795525b4792ca4cd60535bd77c53b7e7030060bfcf5734d6b0c9061215c9087908790879087908790613c4b565b60405180910390a15050505050565b6000806121987f000000000000000000000000000000000000000000000000000000000000000084613cb3565b90506001600160401b03811115610a305760405162461bcd60e51b815260206004820152601a60248201527f4f4654436f72653a20616d6f756e745344206f766572666c6f770000000000006044820152606401610842565b60006121fe826001613c1c565b835110156122445760405162461bcd60e51b8152602060048201526013602482015272746f55696e74385f6f75744f66426f756e647360681b6044820152606401610842565b50016001015190565b600080612259836129d8565b90925090506001600160a01b0382166122725761dead91505b600061227d82612a5d565b905061228a878483612a92565b9050826001600160a01b03168761ffff167fbf551ec93859b170f9b2141bd9298bf3f64322c6f7beb2543a0cb669834118bf836040516122cc91815260200190565b60405180910390a350505050505050565b60008060008060006122ee86612acd565b945094509450945094506000600660008b61ffff1661ffff168152602001908152602001600020896040516123239190613c2f565b90815260408051602092819003830190206001600160401b038b166000908152925281205460ff16915061235685612a5d565b9050816123c4576123688b3083612a92565b61ffff8c16600090815260066020526040908190209051919250600191612390908d90613c2f565b90815260408051602092819003830190206001600160401b038d16600090815292529020805460ff19169115159190911790555b6001600160a01b0386163b61241b576040516001600160a01b03871681527f9aedf5fdba8716db3b6705ca00150643309995d4f818a249ed6dde6677e7792d9060200160405180910390a1505050505050506124e6565b8a8a8a8a8a8a868a60008a612439578b6001600160401b031661243b565b5a5b905060008061246d5a609663eaffd49a60e01b8e8e8e8d8d8d8d8d604051602401611872989796959493929190613cc7565b9150915081156124c6578751602089012060405161ffff8d16907fb8890edbfc1c74692f527444645f95489c3703cc2df42e4a366f5d06fa6cd884906124b8908e908e908690613d3b565b60405180910390a2506124d3565b6124d38b8b8b8b856120ce565b5050505050505050505050505050505050505b50505050565b60006124f783612b84565b61ffff808716600090815260026020908152604080832093891683529290522054909150806125685760405162461bcd60e51b815260206004820152601a60248201527f4c7a4170703a206d696e4761734c696d6974206e6f74207365740000000000006044820152606401610842565b6125728382613c1c565b821015610db25760405162461bcd60e51b815260206004820152601b60248201527f4c7a4170703a20676173206c696d697420697320746f6f206c6f7700000000006044820152606401610842565b6000806125ee7f000000000000000000000000000000000000000000000000000000000000000084613d69565b90506125fa8184613836565b9150915091565b60006001600160a01b03851633146126665760405162461bcd60e51b815260206004820152602260248201527f50726f78794f46543a206f776e6572206973206e6f742073656e642063616c6c60448201526132b960f11b6064820152608401610842565b612671853084611e94565b915060008061267f846125c1565b909250905080156126be576126be6001600160a01b037f0000000000000000000000000000000000000000000000000000000000000000168883612938565b81600760008282546126d09190613c1c565b90915550600090506126e86001600160401b03612a5d565b90506007548110156127465760405162461bcd60e51b815260206004820152602160248201527f50726f78794f46543a206f7574626f756e64416d6f756e74206f766572666c6f6044820152607760f81b6064820152608401610842565b50909695505050505050565b61ffff86166000908152600160205260408120805461277090613736565b80601f016020809104026020016040519081016040528092919081815260200182805461279c90613736565b80156127e95780601f106127be576101008083540402835291602001916127e9565b820191906000526020600020905b8154815290600101906020018083116127cc57829003601f168201915b50505050509050805160000361285a5760405162461bcd60e51b815260206004820152603060248201527f4c7a4170703a2064657374696e6174696f6e20636861696e206973206e6f742060448201526f61207472757374656420736f7572636560801b6064820152608401610842565b612865878751612be0565b60405162c5803160e81b81526001600160a01b037f0000000000000000000000000000000000000000000000000000000000000000169063c58031009084906128bc908b9086908c908c908c908c90600401613d7d565b6000604051808303818588803b1580156128d557600080fd5b505af11580156128e9573d6000803e3d6000fd5b505050505050505050505050565b6060600185856001600160a01b038916858760405160200161291e96959493929190613de4565b604051602081830303815290604052905095945050505050565b6040516001600160a01b03831660248201526044810182905261299b90849063a9059cbb60e01b906064015b60408051601f198184030181529190526020810180516001600160e01b03166001600160e01b031990931692909217909152612c51565b505050565b6040516001600160a01b03808516602483015283166044820152606481018290526124e69085906323b872dd60e01b90608401612964565b600080806129e684826121f1565b60ff161480156129f7575082516029145b612a3e5760405162461bcd60e51b815260206004820152601860248201527713d19510dbdc994e881a5b9d985b1a59081c185e5b1bd85960421b6044820152606401610842565b612a4983600d612d26565b9150612a56836021612d8b565b9050915091565b6000610a307f00000000000000000000000000000000000000000000000000000000000000006001600160401b038416613e45565b60008160076000828254612aa69190613836565b9091555050306001600160a01b03841603612ac2575080610c51565b611842308484611e94565b600080806060816001612ae087836121f1565b60ff1614612b2b5760405162461bcd60e51b815260206004820152601860248201527713d19510dbdc994e881a5b9d985b1a59081c185e5b1bd85960421b6044820152606401610842565b612b3686600d612d26565b9350612b43866021612d8b565b9250612b50866029612de8565b9450612b5d866049612d8b565b9050612b796051808851612b719190613836565b889190611ccc565b915091939590929450565b6000602282511015612bd85760405162461bcd60e51b815260206004820152601c60248201527f4c7a4170703a20696e76616c69642061646170746572506172616d73000000006044820152606401610842565b506022015190565b61ffff821660009081526003602052604081205490819003612c0157506127105b8082111561299b5760405162461bcd60e51b815260206004820181905260248201527f4c7a4170703a207061796c6f61642073697a6520697320746f6f206c617267656044820152606401610842565b6000612ca6826040518060400160405280602081526020017f5361666545524332303a206c6f772d6c6576656c2063616c6c206661696c6564815250856001600160a01b0316612e469092919063ffffffff16565b9050805160001480612cc7575080806020019051810190612cc79190613e5c565b61299b5760405162461bcd60e51b815260206004820152602a60248201527f5361666545524332303a204552433230206f7065726174696f6e20646964206e6044820152691bdd081cdd58d8d9595960b21b6064820152608401610842565b6000612d33826014613c1c565b83511015612d7b5760405162461bcd60e51b8152602060048201526015602482015274746f416464726573735f6f75744f66426f756e647360581b6044820152606401610842565b500160200151600160601b900490565b6000612d98826008613c1c565b83511015612ddf5760405162461bcd60e51b8152602060048201526014602482015273746f55696e7436345f6f75744f66426f756e647360601b6044820152606401610842565b50016008015190565b6000612df5826020613c1c565b83511015612e3d5760405162461bcd60e51b8152602060048201526015602482015274746f427974657333325f6f75744f66426f756e647360581b6044820152606401610842565b50016020015190565b6060611842848460008585600080866001600160a01b03168587604051612e6d9190613c2f565b60006040518083038185875af1925050503d8060008114612eaa576040519150601f19603f3d011682016040523d82523d6000602084013e612eaf565b606091505b5091509150612ec087838387612ecb565b979650505050505050565b60608315612f3a578251600003612f33576001600160a01b0385163b612f335760405162461bcd60e51b815260206004820152601d60248201527f416464726573733a2063616c6c20746f206e6f6e2d636f6e74726163740000006044820152606401610842565b5081611842565b6118428383815115612f4f5781518083602001fd5b8060405162461bcd60e51b815260040161084291906133a5565b803561ffff81168114612f7b57600080fd5b919050565b60008083601f840112612f9257600080fd5b5081356001600160401b03811115612fa957600080fd5b602083019150836020828501011115612fc157600080fd5b9250929050565b80356001600160401b0381168114612f7b57600080fd5b60008060008060008060808789031215612ff857600080fd5b61300187612f69565b955060208701356001600160401b038082111561301d57600080fd5b6130298a838b01612f80565b909750955085915061303d60408a01612fc8565b9450606089013591508082111561305357600080fd5b5061306089828a01612f80565b979a9699509497509295939492505050565b60006020828403121561308457600080fd5b81356001600160e01b031981168114610c5157600080fd5b6000602082840312156130ae57600080fd5b610c5182612f69565b600080604083850312156130ca57600080fd5b6130d383612f69565b946020939093013593505050565b801515811461179457600080fd5b60008060008060008060a0878903121561310857600080fd5b61311187612f69565b95506020870135945060408701359350606087013561312f816130e1565b925060808701356001600160401b0381111561314a57600080fd5b61306089828a01612f80565b60008060006040848603121561316b57600080fd5b61317484612f69565b925060208401356001600160401b0381111561318f57600080fd5b61319b86828701612f80565b9497909650939450505050565b634e487b7160e01b600052604160045260246000fd5b604051601f8201601f191681016001600160401b03811182821017156131e6576131e66131a8565b604052919050565b60006001600160401b03821115613207576132076131a8565b50601f01601f191660200190565b60008060006060848603121561322a57600080fd5b61323384612f69565b925060208401356001600160401b0381111561324e57600080fd5b8401601f8101861361325f57600080fd5b803561327261326d826131ee565b6131be565b81815287602083850101111561328757600080fd5b816020840160208301376000602083830101528094505050506132ac60408501612fc8565b90509250925092565b6001600160a01b038116811461179457600080fd5b6000606082840312156132dc57600080fd5b50919050565b600080600080600060a086880312156132fa57600080fd5b8535613305816132b5565b945061331360208701612f69565b9350604086013592506060860135915060808601356001600160401b0381111561333c57600080fd5b613348888289016132ca565b9150509295509295909350565b60005b83811015613370578181015183820152602001613358565b50506000910152565b60008151808452613391816020860160208601613355565b601f01601f19169290920160200192915050565b602081526000610c516020830184613379565b60008060008060008060008060e0898b0312156133d457600080fd5b88356133df816132b5565b97506133ed60208a01612f69565b9650604089013595506060890135945060808901356001600160401b038082111561341757600080fd5b6134238c838d01612f80565b909650945084915061343760a08c01612fc8565b935060c08b013591508082111561344d57600080fd5b5061345a8b828c016132ca565b9150509295985092959890939650565b6000806040838503121561347d57600080fd5b61348683612f69565b915061349460208401612f69565b90509250929050565b600080600080600080600080600060e08a8c0312156134bb57600080fd5b6134c48a612f69565b985060208a0135975060408a0135965060608a01356001600160401b03808211156134ee57600080fd5b6134fa8d838e01612f80565b909850965086915061350e60808d01612fc8565b955060a08c01359150613520826130e1565b90935060c08b0135908082111561353657600080fd5b506135438c828d01612f80565b915080935050809150509295985092959850929598565b60006020828403121561356c57600080fd5b8135610c51816132b5565b60008060008060006080868803121561358f57600080fd5b61359886612f69565b94506135a660208701612f69565b93506040860135925060608601356001600160401b038111156135c857600080fd5b6135d488828901612f80565b969995985093965092949392505050565b6000806000606084860312156135fa57600080fd5b61360384612f69565b925061361160208501612f69565b9150604084013590509250925092565b6000806000806000806000806000806101008b8d03121561364157600080fd5b61364a8b612f69565b995060208b01356001600160401b038082111561366657600080fd5b6136728e838f01612f80565b909b50995089915061368660408e01612fc8565b985060608d0135975060808d0135915061369f826132b5565b90955060a08c0135945060c08c013590808211156136bc57600080fd5b506136c98d828e01612f80565b9150809450508092505060e08b013590509295989b9194979a5092959850565b600080600080608085870312156136ff57600080fd5b61370885612f69565b935061371660208601612f69565b92506040850135613726816132b5565b9396929550929360600135925050565b600181811c9082168061374a57607f821691505b6020821081036132dc57634e487b7160e01b600052602260045260246000fd5b8183823760009101908152919050565b81835281816020850137506000828201602090810191909152601f909101601f19169091010190565b61ffff8416815260406020820152600061183f60408301848661377a565b6000808335601e198436030181126137d857600080fd5b8301803591506001600160401b038211156137f257600080fd5b602001915036819003821315612fc157600080fd5b60006020828403121561381957600080fd5b5051919050565b634e487b7160e01b600052601160045260246000fd5b81810381811115610a3057610a30613820565b8284823760609190911b6bffffffffffffffffffffffff19169101908152601401919050565b601f82111561299b576000816000526020600020601f850160051c810160208610156138985750805b601f850160051c820191505b81811015610db2578281556001016138a4565b81516001600160401b038111156138d0576138d06131a8565b6138e4816138de8454613736565b8461386f565b602080601f83116001811461391957600084156139015750858301515b600019600386901b1c1916600185901b178555610db2565b600085815260208120601f198616915b8281101561394857888601518255948401946001909101908401613929565b50858210156139665787850151600019600388901b60f8161c191681555b5050505050600190811b01905550565b600061ffff808816835280871660208401525084604083015260806060830152612ec060808301848661377a565b61ffff861681526080602082015260006139c260808301868861377a565b6001600160401b0394909416604083015250606001529392505050565b61ffff8916815260c0602082015260006139fd60c08301898b61377a565b6001600160401b038816604084015286606084015285608084015282810360a0840152613a2b81858761377a565b9b9a5050505050505050505050565b6001600160401b03831115613a5157613a516131a8565b613a6583613a5f8354613736565b8361386f565b6000601f841160018114613a995760008515613a815750838201355b600019600387901b1c1916600186901b178355610ab8565b600083815260209020601f19861690835b82811015613aca5786850135825560209485019460019092019101613aaa565b5086821015613ae75760001960f88860031b161c19848701351681555b505060018560011b0183555050505050565b600060208284031215613b0b57600080fd5b81516001600160401b03811115613b2157600080fd5b8201601f81018413613b3257600080fd5b8051613b4061326d826131ee565b818152856020838501011115613b5557600080fd5b61203b826020830160208601613355565b61ffff85168152608060208201526000613b836080830186613379565b6001600160401b03851660408401528281036060840152612ec08185613379565b61ffff861681526001600160a01b038516602082015260a060408201819052600090613bd290830186613379565b84151560608401528281036080840152613bec8185613379565b98975050505050505050565b60008060408385031215613c0b57600080fd5b505080516020909101519092909150565b80820180821115610a3057610a30613820565b60008251613c41818460208701613355565b9190910192915050565b61ffff8616815260a060208201526000613c6860a0830187613379565b6001600160401b03861660408401528281036060840152613c898186613379565b90508281036080840152613bec8185613379565b634e487b7160e01b600052601260045260246000fd5b600082613cc257613cc2613c9d565b500490565b600061010061ffff8b168352806020840152613ce58184018b613379565b6001600160401b038a166040850152606084018990526001600160a01b038816608085015260a0840187905283810360c08501529050613d258186613379565b9150508260e08301529998505050505050505050565b606081526000613d4e6060830186613379565b6001600160401b039490941660208301525060400152919050565b600082613d7857613d78613c9d565b500690565b61ffff8716815260c060208201526000613d9a60c0830188613379565b8281036040840152613dac8188613379565b6001600160a01b0387811660608601528616608085015283810360a08501529050613dd78185613379565b9998505050505050505050565b60ff60f81b8760f81b16815285600182015260006001600160401b0360c01b808760c01b166021840152856029840152808560c01b166049840152508251613e33816051850160208701613355565b91909101605101979650505050505050565b8082028115828204841417610a3057610a30613820565b600060208284031215613e6e57600080fd5b8151610c51816130e156fea26469706673582212206718e6d2188333fd6af9246ea6492a1d5d842058e603f074c76bd956de022ae164736f6c63430008160033",
    "linkReferences": {}
  },
  "methodIdentifiers": {
    "DEFAULT_PAYLOAD_SIZE_LIMIT()": "c4461834",
    "NO_EXTRA_GAS()": "44770515",
    "PT_SEND()": "4c42899a",
    "PT_SEND_AND_CALL()": "e6a20ae6",
    "callOnOFTReceived(uint16,bytes,uint64,bytes32,address,uint256,bytes,uint256)": "eaffd49a",
    "circulatingSupply()": "9358928b",
    "creditedPackets(uint16,bytes,uint64)": "9bdb9812",
    "estimateSendAndCallFee(uint16,bytes32,uint256,bytes,uint64,bool,bytes)": "a4c51df5",
    "estimateSendFee(uint16,bytes32,uint256,bool,bytes)": "365260b4",
    "failedMessages(uint16,bytes,uint64)": "5b8c41e6",
    "forceResumeReceive(uint16,bytes)": "42d65a8d",
    "getConfig(uint16,uint16,address,uint256)": "f5ecbdbc",
    "getTrustedRemoteAddress(uint16)": "9f38369a",
    "isTrustedRemote(uint16,bytes)": "3d8b38f6",
    "lzEndpoint()": "b353aaa7",
    "lzReceive(uint16,bytes,uint64,bytes)": "001d3567",
    "minDstGasLookup(uint16,uint16)": "8cfd8f5c",
    "nonblockingLzReceive(uint16,bytes,uint64,bytes)": "66ad5c8a",
    "outboundAmount()": "9689cb05",
    "owner()": "8da5cb5b",
    "payloadSizeLimitLookup(uint16)": "3f1f4fa4",
    "precrime()": "950c8a74",
    "renounceOwnership()": "715018a6",
    "retryMessage(uint16,bytes,uint64,bytes)": "d1deba1f",
    "sendAndCall(address,uint16,bytes32,uint256,bytes,uint64,(address,address,bytes))": "76203b48",
    "sendFrom(address,uint16,bytes32,uint256,(address,address,bytes))": "695ef6bf",
    "setConfig(uint16,uint16,uint256,bytes)": "cbed8b9c",
    "setMinDstGas(uint16,uint16,uint256)": "df2a5b3b",
    "setPayloadSizeLimit(uint16,uint256)": "0df37483",
    "setPrecrime(address)": "baf3292d",
    "setReceiveVersion(uint16)": "10ddb137",
    "setSendVersion(uint16)": "07e0db17",
    "setTrustedRemote(uint16,bytes)": "eb8d72b7",
    "setTrustedRemoteAddress(uint16,bytes)": "a6c3d165",
    "sharedDecimals()": "857749b0",
    "supportsInterface(bytes4)": "01ffc9a7",
    "token()": "fc0c546a",
    "transferOwnership(address)": "f2fde38b",
    "trustedRemoteLookup(uint16)": "7533d788"
  },
  "id": 24
}