{
  "abi": [
    {
      "inputs": [
        {
          "internalType": "string",
          "name": "uri_",
          "type": "string"
        }
      ],
      "stateMutability": "nonpayable",
      "type": "constructor"
    },
    {
      "anonymous": false,
      "inputs": [
        {
          "indexed": true,
          "internalType": "address",
          "name": "account",
          "type": "address"
        },
        {
          "indexed": true,
          "internalType": "address",
          "name": "operator",
          "type": "address"
        },
        {
          "indexed": false,
          "internalType": "bool",
          "name": "approved",
          "type": "bool"
        }
      ],
      "name": "ApprovalForAll",
      "type": "event"
    },
    {
      "anonymous": false,
      "inputs": [
        {
          "indexed": true,
          "internalType": "address",
          "name": "operator",
          "type": "address"
        },
        {
          "indexed": true,
          "internalType": "address",
          "name": "from",
          "type": "address"
        },
        {
          "indexed": true,
          "internalType": "address",
          "name": "to",
          "type": "address"
        },
        {
          "indexed": false,
          "internalType": "uint256[]",
          "name": "ids",
          "type": "uint256[]"
        },
        {
          "indexed": false,
          "internalType": "uint256[]",
          "name": "values",
          "type": "uint256[]"
        }
      ],
      "name": "TransferBatch",
      "type": "event"
    },
    {
      "anonymous": false,
      "inputs": [
        {
          "indexed": true,
          "internalType": "address",
          "name": "operator",
          "type": "address"
        },
        {
          "indexed": true,
          "internalType": "address",
          "name": "from",
          "type": "address"
        },
        {
          "indexed": true,
          "internalType": "address",
          "name": "to",
          "type": "address"
        },
        {
          "indexed": false,
          "internalType": "uint256",
          "name": "id",
          "type": "uint256"
        },
        {
          "indexed": false,
          "internalType": "uint256",
          "name": "value",
          "type": "uint256"
        }
      ],
      "name": "TransferSingle",
      "type": "event"
    },
    {
      "anonymous": false,
      "inputs": [
        {
          "indexed": false,
          "internalType": "string",
          "name": "value",
          "type": "string"
        },
        {
          "indexed": true,
          "internalType": "uint256",
          "name": "id",
          "type": "uint256"
        }
      ],
      "name": "URI",
      "type": "event"
    },
    {
      "inputs": [
        {
          "internalType": "address",
          "name": "account",
          "type": "address"
        },
        {
          "internalType": "uint256",
          "name": "id",
          "type": "uint256"
        }
      ],
      "name": "balanceOf",
      "outputs": [
        {
          "internalType": "uint256",
          "name": "",
          "type": "uint256"
        }
      ],
      "stateMutability": "view",
      "type": "function"
    },
    {
      "inputs": [
        {
          "internalType": "address[]",
          "name": "accounts",
          "type": "address[]"
        },
        {
          "internalType": "uint256[]",
          "name": "ids",
          "type": "uint256[]"
        }
      ],
      "name": "balanceOfBatch",
      "outputs": [
        {
          "internalType": "uint256[]",
          "name": "",
          "type": "uint256[]"
        }
      ],
      "stateMutability": "view",
      "type": "function"
    },
    {
      "inputs": [
        {
          "internalType": "address",
          "name": "account",
          "type": "address"
        },
        {
          "internalType": "address",
          "name": "operator",
          "type": "address"
        }
      ],
      "name": "isApprovedForAll",
      "outputs": [
        {
          "internalType": "bool",
          "name": "",
          "type": "bool"
        }
      ],
      "stateMutability": "view",
      "type": "function"
    },
    {
      "inputs": [
        {
          "internalType": "address",
          "name": "_to",
          "type": "address"
        },
        {
          "internalType": "uint256",
          "name": "_tokenId",
          "type": "uint256"
        },
        {
          "internalType": "uint256",
          "name": "_amount",
          "type": "uint256"
        }
      ],
      "name": "mint",
      "outputs": [],
      "stateMutability": "nonpayable",
      "type": "function"
    },
    {
      "inputs": [
        {
          "internalType": "address",
          "name": "_to",
          "type": "address"
        },
        {
          "internalType": "uint256[]",
          "name": "_tokenIds",
          "type": "uint256[]"
        },
        {
          "internalType": "uint256[]",
          "name": "_amounts",
          "type": "uint256[]"
        }
      ],
      "name": "mintBatch",
      "outputs": [],
      "stateMutability": "nonpayable",
      "type": "function"
    },
    {
      "inputs": [
        {
          "internalType": "address",
          "name": "from",
          "type": "address"
        },
        {
          "internalType": "address",
          "name": "to",
          "type": "address"
        },
        {
          "internalType": "uint256[]",
          "name": "ids",
          "type": "uint256[]"
        },
        {
          "internalType": "uint256[]",
          "name": "amounts",
          "type": "uint256[]"
        },
        {
          "internalType": "bytes",
          "name": "data",
          "type": "bytes"
        }
      ],
      "name": "safeBatchTransferFrom",
      "outputs": [],
      "stateMutability": "nonpayable",
      "type": "function"
    },
    {
      "inputs": [
        {
          "internalType": "address",
          "name": "from",
          "type": "address"
        },
        {
          "internalType": "address",
          "name": "to",
          "type": "address"
        },
        {
          "internalType": "uint256",
          "name": "id",
          "type": "uint256"
        },
        {
          "internalType": "uint256",
          "name": "amount",
          "type": "uint256"
        },
        {
          "internalType": "bytes",
          "name": "data",
          "type": "bytes"
        }
      ],
      "name": "safeTransferFrom",
      "outputs": [],
      "stateMutability": "nonpayable",
      "type": "function"
    },
    {
      "inputs": [
        {
          "internalType": "address",
          "name": "operator",
          "type": "address"
        },
        {
          "internalType": "bool",
          "name": "approved",
          "type": "bool"
        }
      ],
      "name": "setApprovalForAll",
      "outputs": [],
      "stateMutability": "nonpayable",
      "type": "function"
    },
    {
      "inputs": [
        {
          "internalType": "bytes4",
          "name": "interfaceId",
          "type": "bytes4"
        }
      ],
      "name": "supportsInterface",
      "outputs": [
        {
          "internalType": "bool",
          "name": "",
          "type": "bool"
        }
      ],
      "stateMutability": "view",
      "type": "function"
    },
    {
      "inputs": [
        {
          "internalType": "address",
          "name": "_to",
          "type": "address"
        },
        {
          "internalType": "uint256",
          "name": "_tokenId",
          "type": "uint256"
        },
        {
          "internalType": "uint256",
          "name": "_amount",
          "type": "uint256"
        }
      ],
      "name": "transfer",
      "outputs": [],
      "stateMutability": "nonpayable",
      "type": "function"
    },
    {
      "inputs": [
        {
          "internalType": "uint256",
          "name": "",
          "type": "uint256"
        }
      ],
      "name": "uri",
      "outputs": [
        {
          "internalType": "string",
          "name": "",
          "type": "string"
        }
      ],
      "stateMutability": "view",
      "type": "function"
    }
  ],
  "bytecode": {
    "object": "0x60806040523480156200001157600080fd5b50604051620019b2380380620019b2833981016040819052620000349162000070565b80620000408162000048565b5050620002a2565b6002620000568282620001d6565b5050565b634e487b7160e01b600052604160045260246000fd5b600060208083850312156200008457600080fd5b82516001600160401b03808211156200009c57600080fd5b818501915085601f830112620000b157600080fd5b815181811115620000c657620000c66200005a565b604051601f8201601f19908116603f01168101908382118183101715620000f157620000f16200005a565b8160405282815288868487010111156200010a57600080fd5b600093505b828410156200012e57848401860151818501870152928501926200010f565b600086848301015280965050505050505092915050565b600181811c908216806200015a57607f821691505b6020821081036200017b57634e487b7160e01b600052602260045260246000fd5b50919050565b601f821115620001d1576000816000526020600020601f850160051c81016020861015620001ac5750805b601f850160051c820191505b81811015620001cd57828155600101620001b8565b5050505b505050565b81516001600160401b03811115620001f257620001f26200005a565b6200020a8162000203845462000145565b8462000181565b602080601f831160018114620002425760008415620002295750858301515b600019600386901b1c1916600185901b178555620001cd565b600085815260208120601f198616915b82811015620002735788860151825594840194600190910190840162000252565b5085821015620002925787850151600019600388901b60f8161c191681555b5050505050600190811b01905550565b61170080620002b26000396000f3fe608060405234801561001057600080fd5b50600436106100a85760003560e01c80632eb2c2d6116100715780632eb2c2d61461013e5780634e1273f414610151578063a22cb46514610171578063d81d0a1514610184578063e985e9c514610197578063f242432a146101d357600080fd5b8062fdd58e146100ad57806301ffc9a7146100d3578063095bcdb6146100f65780630e89341c1461010b578063156e29f61461012b575b600080fd5b6100c06100bb366004610dae565b6101e6565b6040519081526020015b60405180910390f35b6100e66100e1366004610df1565b61027f565b60405190151581526020016100ca565b610109610104366004610e15565b6102cf565b005b61011e610119366004610e48565b6102f0565b6040516100ca9190610ea7565b610109610139366004610e15565b610384565b61010961014c36600461100b565b61039f565b61016461015f3660046110b5565b6103eb565b6040516100ca91906111bc565b61010961017f3660046111cf565b61050d565b61010961019236600461120b565b61051c565b6100e66101a536600461127f565b6001600160a01b03918216600090815260016020908152604080832093909416825291909152205460ff1690565b6101096101e13660046112b2565b610537565b60006001600160a01b0383166102565760405162461bcd60e51b815260206004820152602a60248201527f455243313135353a2061646472657373207a65726f206973206e6f742061207660448201526930b634b21037bbb732b960b11b60648201526084015b60405180910390fd5b506000818152602081815260408083206001600160a01b03861684529091529020545b92915050565b60006001600160e01b03198216636cdb3d1360e11b14806102b057506001600160e01b031982166303a24d0760e21b145b8061027957506301ffc9a760e01b6001600160e01b0319831614610279565b6102eb3384848460405180602001604052806000815250610578565b505050565b6060600280546102ff90611317565b80601f016020809104026020016040519081016040528092919081815260200182805461032b90611317565b80156103785780601f1061034d57610100808354040283529160200191610378565b820191906000526020600020905b81548152906001019060200180831161035b57829003601f168201915b50505050509050919050565b6102eb838383604051806020016040528060008152506106a2565b6001600160a01b0385163314806103bb57506103bb85336101a5565b6103d75760405162461bcd60e51b815260040161024d90611351565b6103e4858585858561077c565b5050505050565b606081518351146104505760405162461bcd60e51b815260206004820152602960248201527f455243313135353a206163636f756e747320616e6420696473206c656e677468604482015268040dad2e6dac2e8c6d60bb1b606482015260840161024d565b6000835167ffffffffffffffff81111561046c5761046c610eba565b604051908082528060200260200182016040528015610495578160200160208202803683370190505b50905060005b8451811015610505576104e08582815181106104b9576104b961139f565b60200260200101518583815181106104d3576104d361139f565b60200260200101516101e6565b8282815181106104f2576104f261139f565b602090810291909101015260010161049b565b509392505050565b610518338383610911565b5050565b6102eb838383604051806020016040528060008152506109f1565b6001600160a01b038516331480610553575061055385336101a5565b61056f5760405162461bcd60e51b815260040161024d90611351565b6103e485858585855b6001600160a01b03841661059e5760405162461bcd60e51b815260040161024d906113b5565b3360006105aa85610b31565b905060006105b785610b31565b90506000868152602081815260408083206001600160a01b038c168452909152902054858110156105fa5760405162461bcd60e51b815260040161024d906113fa565b6000878152602081815260408083206001600160a01b038d8116855292528083208985039055908a16825281208054889290610637908490611444565b909155505060408051888152602081018890526001600160a01b03808b16928c821692918816917fc3d58168c5ae7397731d063d5bbf3d657854427343f4c083240f7aacaa2d0f62910160405180910390a4610697848a8a8a8a8a610b7c565b505050505050505050565b6001600160a01b0384166106c85760405162461bcd60e51b815260040161024d90611465565b3360006106d485610b31565b905060006106e185610b31565b90506000868152602081815260408083206001600160a01b038b16845290915281208054879290610713908490611444565b909155505060408051878152602081018790526001600160a01b03808a1692600092918716917fc3d58168c5ae7397731d063d5bbf3d657854427343f4c083240f7aacaa2d0f62910160405180910390a461077383600089898989610b7c565b50505050505050565b815183511461079d5760405162461bcd60e51b815260040161024d906114a6565b6001600160a01b0384166107c35760405162461bcd60e51b815260040161024d906113b5565b3360005b84518110156108a35760008582815181106107e4576107e461139f565b6020026020010151905060008583815181106108025761080261139f565b602090810291909101810151600084815280835260408082206001600160a01b038e1683529093529190912054909150818110156108525760405162461bcd60e51b815260040161024d906113fa565b6000838152602081815260408083206001600160a01b038e8116855292528083208585039055908b1682528120805484929061088f908490611444565b9091555050600190930192506107c7915050565b50846001600160a01b0316866001600160a01b0316826001600160a01b03167f4a39dc06d4c0dbc64b70af90fd698a233a518aa5d07e595d983b8c0526c8f7fb87876040516108f39291906114ee565b60405180910390a4610909818787878787610cd7565b505050505050565b816001600160a01b0316836001600160a01b0316036109845760405162461bcd60e51b815260206004820152602960248201527f455243313135353a2073657474696e6720617070726f76616c20737461747573604482015268103337b91039b2b63360b91b606482015260840161024d565b6001600160a01b03838116600081815260016020908152604080832094871680845294825291829020805460ff191686151590811790915591519182527f17307eab39ab6107e8899845ad3d59bd9653f200f220920489ca2b5937696c31910160405180910390a3505050565b6001600160a01b038416610a175760405162461bcd60e51b815260040161024d90611465565b8151835114610a385760405162461bcd60e51b815260040161024d906114a6565b3360005b8451811015610ac957838181518110610a5757610a5761139f565b6020026020010151600080878481518110610a7457610a7461139f565b602002602001015181526020019081526020016000206000886001600160a01b03166001600160a01b031681526020019081526020016000206000828254610abc9190611444565b9091555050600101610a3c565b50846001600160a01b031660006001600160a01b0316826001600160a01b03167f4a39dc06d4c0dbc64b70af90fd698a233a518aa5d07e595d983b8c0526c8f7fb8787604051610b1a9291906114ee565b60405180910390a46103e481600087878787610cd7565b60408051600180825281830190925260609160009190602080830190803683370190505090508281600081518110610b6b57610b6b61139f565b602090810291909101015292915050565b6001600160a01b0384163b156109095760405163f23a6e6160e01b81526001600160a01b0385169063f23a6e6190610bc0908990899088908890889060040161151c565b6020604051808303816000875af1925050508015610bfb575060408051601f3d908101601f19168201909252610bf891810190611561565b60015b610ca757610c0761157e565b806308c379a003610c405750610c1b61159a565b80610c265750610c42565b8060405162461bcd60e51b815260040161024d9190610ea7565b505b60405162461bcd60e51b815260206004820152603460248201527f455243313135353a207472616e7366657220746f206e6f6e2d455243313135356044820152732932b1b2b4bb32b91034b6b83632b6b2b73a32b960611b606482015260840161024d565b6001600160e01b0319811663f23a6e6160e01b146107735760405162461bcd60e51b815260040161024d90611624565b6001600160a01b0384163b156109095760405163bc197c8160e01b81526001600160a01b0385169063bc197c8190610d1b908990899088908890889060040161166c565b6020604051808303816000875af1925050508015610d56575060408051601f3d908101601f19168201909252610d5391810190611561565b60015b610d6257610c0761157e565b6001600160e01b0319811663bc197c8160e01b146107735760405162461bcd60e51b815260040161024d90611624565b80356001600160a01b0381168114610da957600080fd5b919050565b60008060408385031215610dc157600080fd5b610dca83610d92565b946020939093013593505050565b6001600160e01b031981168114610dee57600080fd5b50565b600060208284031215610e0357600080fd5b8135610e0e81610dd8565b9392505050565b600080600060608486031215610e2a57600080fd5b610e3384610d92565b95602085013595506040909401359392505050565b600060208284031215610e5a57600080fd5b5035919050565b6000815180845260005b81811015610e8757602081850181015186830182015201610e6b565b506000602082860101526020601f19601f83011685010191505092915050565b602081526000610e0e6020830184610e61565b634e487b7160e01b600052604160045260246000fd5b601f8201601f1916810167ffffffffffffffff81118282101715610ef657610ef6610eba565b6040525050565b600067ffffffffffffffff821115610f1757610f17610eba565b5060051b60200190565b600082601f830112610f3257600080fd5b81356020610f3f82610efd565b604051610f4c8282610ed0565b80915083815260208101915060208460051b870101935086841115610f7057600080fd5b602086015b84811015610f8c5780358352918301918301610f75565b509695505050505050565b600082601f830112610fa857600080fd5b813567ffffffffffffffff811115610fc257610fc2610eba565b604051610fd9601f8301601f191660200182610ed0565b818152846020838601011115610fee57600080fd5b816020850160208301376000918101602001919091529392505050565b600080600080600060a0868803121561102357600080fd5b61102c86610d92565b945061103a60208701610d92565b9350604086013567ffffffffffffffff8082111561105757600080fd5b61106389838a01610f21565b9450606088013591508082111561107957600080fd5b61108589838a01610f21565b9350608088013591508082111561109b57600080fd5b506110a888828901610f97565b9150509295509295909350565b600080604083850312156110c857600080fd5b823567ffffffffffffffff808211156110e057600080fd5b818501915085601f8301126110f457600080fd5b8135602061110182610efd565b60405161110e8282610ed0565b83815260059390931b850182019282810191508984111561112e57600080fd5b948201945b838610156111535761114486610d92565b82529482019490820190611133565b9650508601359250508082111561116957600080fd5b5061117685828601610f21565b9150509250929050565b60008151808452602080850194506020840160005b838110156111b157815187529582019590820190600101611195565b509495945050505050565b602081526000610e0e6020830184611180565b600080604083850312156111e257600080fd5b6111eb83610d92565b91506020830135801515811461120057600080fd5b809150509250929050565b60008060006060848603121561122057600080fd5b61122984610d92565b9250602084013567ffffffffffffffff8082111561124657600080fd5b61125287838801610f21565b9350604086013591508082111561126857600080fd5b5061127586828701610f21565b9150509250925092565b6000806040838503121561129257600080fd5b61129b83610d92565b91506112a960208401610d92565b90509250929050565b600080600080600060a086880312156112ca57600080fd5b6112d386610d92565b94506112e160208701610d92565b93506040860135925060608601359150608086013567ffffffffffffffff81111561130b57600080fd5b6110a888828901610f97565b600181811c9082168061132b57607f821691505b60208210810361134b57634e487b7160e01b600052602260045260246000fd5b50919050565b6020808252602e908201527f455243313135353a2063616c6c6572206973206e6f7420746f6b656e206f776e60408201526d195c881bdc88185c1c1c9bdd995960921b606082015260800190565b634e487b7160e01b600052603260045260246000fd5b60208082526025908201527f455243313135353a207472616e7366657220746f20746865207a65726f206164604082015264647265737360d81b606082015260800190565b6020808252602a908201527f455243313135353a20696e73756666696369656e742062616c616e636520666f60408201526939103a3930b739b332b960b11b606082015260800190565b8082018082111561027957634e487b7160e01b600052601160045260246000fd5b60208082526021908201527f455243313135353a206d696e7420746f20746865207a65726f206164647265736040820152607360f81b606082015260800190565b60208082526028908201527f455243313135353a2069647320616e6420616d6f756e7473206c656e677468206040820152670dad2e6dac2e8c6d60c31b606082015260800190565b6040815260006115016040830185611180565b82810360208401526115138185611180565b95945050505050565b6001600160a01b03868116825285166020820152604081018490526060810183905260a06080820181905260009061155690830184610e61565b979650505050505050565b60006020828403121561157357600080fd5b8151610e0e81610dd8565b600060033d11156115975760046000803e5060005160e01c5b90565b600060443d10156115a85790565b6040516003193d81016004833e81513d67ffffffffffffffff81602484011181841117156115d857505050505090565b82850191508151818111156115f05750505050505090565b843d870101602082850101111561160a5750505050505090565b61161960208286010187610ed0565b509095945050505050565b60208082526028908201527f455243313135353a204552433131353552656365697665722072656a656374656040820152676420746f6b656e7360c01b606082015260800190565b6001600160a01b0386811682528516602082015260a06040820181905260009061169890830186611180565b82810360608401526116aa8186611180565b905082810360808401526116be8185610e61565b9897505050505050505056fea2646970667358221220d5966378c9aeab1eb3fe9751d66d0acde4327f2337a900703f99f2fb51e10ce864736f6c63430008160033",
    "linkReferences": {}
  },
  "methodIdentifiers": {
    "balanceOf(address,uint256)": "00fdd58e",
    "balanceOfBatch(address[],uint256[])": "4e1273f4",
    "isApprovedForAll(address,address)": "e985e9c5",
    "mint(address,uint256,uint256)": "156e29f6",
    "mintBatch(address,uint256[],uint256[])": "d81d0a15",
    "safeBatchTransferFrom(address,address,uint256[],uint256[],bytes)": "2eb2c2d6",
    "safeTransferFrom(address,address,uint256,uint256,bytes)": "f242432a",
    "setApprovalForAll(address,bool)": "a22cb465",
    "supportsInterface(bytes4)": "01ffc9a7",
    "transfer(address,uint256,uint256)": "095bcdb6",
    "uri(uint256)": "0e89341c"
  },
  "id": 41
}